:10000000025019756D067F0F02317B020800438E86
:10001000805389F0758A50758CFBC28DD2A9C2B904
:10002000D28C22022ECF8B268A2789288C298D2AD2
:1000300078437C017D017BFF7A4379717E007F608C
:10004000124563C202AB26AA27A928124589245665
:10005000604E24DE6002C190D202E92407F9E43A3E
:10006000FA78E97C047D017E007F061245639003E7
:1000700055E024F3FFE434FFFEAB26E528240DF918
:10008000E43527FAC003C002C001E5282401F9E4E1
:100090003527A801FCAD03D001D002D0031245637F
:1000A000C203C204C205AB26E5282405F9E43527BE
:1000B000FA7D1C1207D5AB26AA27A92890000412A6
:1000C00045A2B50702D204E5282405F9E43527A89E
:1000D00001FCAD267B017A0479F07E007F05124891
:1000E000A2EF7002D205AB26AA27A928900003121E
:1000F00045A2FFB43904D205800BEF64146004EF0D
:10010000B41902D204300405300402D203200302E1
:10011000C190C204C2057531FF75323A7533557509
:1001200034008F357B017A01790112495E7B017AB7
:100130000179011236AB7E007F607D007B017A0180
:1001400079431248C6AB26AA27A928900003124576
:10015000A21246F001F010061B1103C414061B1571
:10016000061B16026617027D1802941903761A03FD
:100170008E1B03BF1F03BB22018E39050441057787
:100180004205A54305EF44061B5000000619302721
:1001900002C11B123393900141EEF0A3EFF09001E6
:1001A00041E0FCA3E0FDEC900151F0A3EDF0AB26A3
:1001B000AA27A92890000C1245A29004FFF09000F5
:1001C0000D1245A2900500F07B017A0479FF75338A
:1001D000007534017F037E001232D87B017A0579E5
:1001E000007533007534017F047E001232D88070B0
:1001F000E490014EF0AB26AA27A92890000B1245E7
:10020000A2FF540790014EF0EF5401FF900504E067
:10021000FE54016F600990014EE04420F0802D9063
:10022000000B1245A2FC5402FDEE54026D600990D1
:10023000014EE04440F08014EC5404FF900504E0CB
:1002400054046F600790014EE04480F0AB26AA276B
:10025000A92890000B1245A2900501F0A37402F0AA
:10026000D204C205C11B752C01D2277B007A00790C
:100270002C7533007534017F057E008012E4F52C67
:10028000C227FB7A00792CF5337534017F05FE1205
:1002900032D8C11BAB26AA27A92890000D1245A26F
:1002A0002460601114605C14607E1470026131245B
:1002B000A360026162E4F52C7B017A017951F53B80
:1002C000753C0C7F10FE123546E4F52C74017E005F
:1002D000A82C088005C333CE33CED8F9FF7880E64A
:1002E000FDEF5D6013E52C75F003A42451F582E465
:1002F0003401F583E05480F0052CE52CB404CDD214
:1003000005805F787AE6FE08E6FF4E7002800C7C7E
:10031000007D3C124615C37883E69F900151F0782A
:1003200082E6900152F0803A7879E6900151F080AF
:10033000317B017A017951753B00753C067F227E45
:100340000012354690014FE03027054401F080034C
:1003500054FEF090014FE03024054402F080035435
:10036000FDF0AB26AA27A92890000D1245A2900106
:1003700050F0D204C11BE4F52CFB7A00792CF53B3C
:10038000753C017F22FE123546532C808016E4F521
:100390002CFB7A00792CF53B753C017F22FE12354F
:1003A00046432C7F7B007A00792C7533007534012D
:1003B0007F227E001232D8D204C11BD204C11B128C
:1003C00034BEC11BE4F52CAB26AA27A92890000D4A
:1003D0001245A2245F70028168147002819C14701F
:1003E0000281E824036002A100E4F52CAB26AA27D1
:1003F000A92875F003E52CA4240EF582E435F0F568
:10040000831245A264807044AF2C04A807088002C0
:10041000C333D8FC788046F6AB2675F003E52CA4F0
:10042000240EF582E435F0F583E5282582F9E527E9
:100430003583FA124589FF9004F9E014FE7401A88F
:1004400006088002C333D8FC4F1245CF052CE52C9B
:10045000B40499AB26E528240EF9E43527FA753360
:100460000075340C7F1081FBAB26AA27A9289000C9
:100470000E1245A2FF78816014E64402F67883A646
:100480000790000F1245A27882F6E48008E654FD3A
:10049000F6E47883F6787AF608F68064AB26AA2725
:1004A000A92890000E1245A2FF7881600BE6440156
:1004B000F67879A607E48008E654FEF6E47879F643
:1004C000787CF608F67B007A007981753300753404
:1004D000017F207E001232D87B007A007979753353
:1004E000007534017F218013AB26E528240EF9E442
:1004F0003527FA7533007534067F227E001232D814
:10050000D204C11BE4F52CAB26AA27A92890000C25
:100510001245A2F52DE4F52CAF2CE52DA807088097
:1005200002C313D8FC30E042E52CFD7C002406FF1A
:10053000EC33FEED240EFDEC33FCAB26E5282DF963
:10054000E5273CFA7533007534011232D8740E2554
:100550002CF582E433F583AB26AA27A9281245A2FD
:10056000FF741B252CF8A607D21C052CE52CC39480
:100570000340A5D204C11BE4F52CF52CE52C240680
:10058000FFE433FE7451252CF9E43401FA7B017544
:100590003B00753C01123546052CE52CC394034005
:1005A000DBD2048076AB26E528240EF9E43527FA61
:1005B0007533007534017F307E001232D8AB26E5EA
:1005C00028240FF9E43527FA7533007534017F319B
:1005D0007E001232D8AB26AA27A92890000E124519
:1005E000A2F56E90000F1245A2F56BD204802C7B11
:1005F000017A017951753B00753C017F307E001214
:1006000035467B017A017952753B00753C017F319B
:100610007E00123546D2048002C204300472E4F532
:100620002CC204A2029206752E01752F017530436B
:1006300075312175320AAB26AA27A928900003122A
:1006400045A2F533A20592071225918F2C75110151
:100650009002EFE529F0A3E52AF09002EEE52BF0F9
:100660007E007F487D007B017A0279A51248C6AFE3
:100670002C7E0078A57C027D017B017A01794312F2
:1006800045639002EDE52CF0E4900339F075100419
:1006900022E4F525F526F527123894EF7002E141A2
:1006A000201223D212905017E493FF740193900507
:1006B0000ACFF0A3EFF09005087401F0A3745EF088
:1006C0001238948F7122123894EF65716002E1D470
:1006D00090050AE0FEA3E0FFC39050177401939FBA
:1006E000F527E4939EF526C3905013740193952744
:1006F000E4939526501BC39050157401939527E4FD
:10070000939526400C201309D2137D04AF71122853
:10071000EEC39050157401939527E49395264002FB
:10072000E1D4C39050177401939527E49395265014
:1007300002E1D4301402E1D4D2147D05AF71022855
:10074000EE30125C90050AE0FEA3E0FFC390501764
:100750007401939FF527E4939EF526C3905011747E
:1007600001939527E49395265036C3905013740156
:10077000939527E49395264027900508E07002A3FF
:10078000E060020572E572D3940150047D0280029C
:100790007D03AF711228EE7B037D327F031237D2C7
:1007A000900508E07002A3E0701DE5726019F52560
:1007B000E4F572E525C39402400AAD25AF7112330A
:1007C00039E4F525E4F571C213C214E490050AF08A
:1007D000A3F0C212228B348A358936E4FFFEEFC3C0
:1007E0009D5013AB34AA35A9368F8275830012450C
:1007F000A22EFE0F80E86306FF6306A7AF06222243
:10080000C0E0C0F0C083C082C0D075D000C000C0BE
:1008100001C002C003C004C005C006C00790522931
:10082000E493FFE577C39F500405778076757700E2
:100830009002A3E07002A3E0600E9002A4E024FF07
:10084000F09002A3E034FFF030150A0574E57470EF
:100850000A0573800675730075740090050AE070D0
:1008600002A3E0600E90050BE024FFF090050AE083
:1008700034FFF0900508E07002A3E0600E900509D7
:10088000E024FFF0900508E034FFF09004C4E0702D
:1008900002A3E0600E9004C5E024FFF09004C4E0E1
:1008A00034FFF0D39052277401939576E4939575B5
:1008B000400A0576E57670020575218A7575007522
:1008C0007600201B10E511C3940650040511800525
:1008D000751100D21B7881E6FB30E1417883E6FF99
:1008E0007E007C007D3C124603C3787BE69F18E6C1
:1008F0009E50090806E6187024068021787A760052
:10090000087600EB54FD7881F69005027402F078C9
:1009100082E6900501F0900505E04401F07881E65B
:1009200030E03F900504E060397879E6FF7E007C96
:10093000007D3C124603C3787DE69F18E69E500971
:100940000806E618701C068019787C760008760088
:100950009005027402F0900501E4F0900505E04472
:1009600001F0787F06E6187001069004CFE060027F
:1009700014F09004FEE0600214F09004C3E0600202
:1009800014F0900340E0600214F0301A3AE512C30C
:10099000940A50040512802F201D2AD21D7E007F4C
:1009A000807DFF7B017A0379411248C678417C0340
:1009B0007D017B017A0379C27E007F8012456390BE
:1009C00003C1E513F0C21A9004E7E0FFA3E0C39F60
:1009D0005005E004F041819004E8E4F0E56C24FE69
:1009E0006048147002417024026002417F9004D07C
:1009F000E054079004E7F0FD9004D1E075F014A4F2
:100A0000FFAEF07C001246159004D6EEF0A3EFF096
:100A10009004D2E0541F25E09004DAF09004D8E46A
:100A2000F0A3F0D226756C0280579004DAE0603BA8
:100A30009004D6E0FEA3E0FFC39004D9E09F9004A9
:100A4000D8E09E5017A3E004F070069004D8E004AC
:100A5000F0302604B2B28029D2B280259004D8E4C6
:100A6000F0A3F0B226A3E014F08016756C03801199
:100A70009004D8E4F0A3F0D226D2B2F56C8002D272
:100A8000B290522AE493FFE578D39F5002614875F3
:100A900078009004C6E0541FFF9004DBE054E04F60
:100AA000F09004C7E0541FFF9004DCE054E04FF0E6
:100AB0009004C8E0541FFF9004DDE054E04FF09034
:100AC00004C9E0541FFF9004DEE054E04FF09004AE
:100AD000CAE0541FFF9004DFE054E04FF09004CBD5
:100AE000E0541FFF9004E0E054E04FF09004CCE0AD
:100AF000541FFF9004E1E054E04FF09004CDE05427
:100B00001FFF9004E2E054E04FF09004CEE0541F49
:100B1000FF9004E3E054E04FF09004D3E0541FFF53
:100B20009004E4E054E04FF09004D4E0541FFF90B0
:100B300004E5E054E04FF09004D5E0541FFF90042A
:100B4000E6E054E04FF081A40578E578D3940040C6
:100B50006DE578D3942050669004DBE0FF541F606D
:100B60000EEF54E0FEEF14541F4EF0C2A08002D2EC
:100B7000A09004DEE0FF541F600EEF54E0FEEF147F
:100B8000541F4EF0C2A68002D2A69004E1E0FF54AA
:100B90001F600EEF54E0FEEF14541F4EF0C2818030
:100BA00002D2819004E4E0FF541F600EEF54E0FE97
:100BB000EF14541F4EF0C2CD81A4D2CD81A4E578AC
:100BC000D39420406DE578D3944050669004DCE0E7
:100BD000FF541F600EEF54E0FEEF14541F4EF0C29E
:100BE000A18002D2A19004DFE0FF541F600EEF54F9
:100BF000E0FEEF14541F4EF0C2A58002D2A590046F
:100C0000E2E0FF541F600EEF54E0FEEF14541F4E5D
:100C1000F0C2808002D2809004E5E0FF541F600E95
:100C2000EF54E0FEEF14541F4EF0C2CC8076D2CCCD
:100C30008072E578D39440406BE578D3946050643B
:100C40009004DDE0FF541F600EEF54E0FEEF1454FB
:100C50001F4EF0C2A28002D2A29004E0E0FF541F17
:100C6000600EEF54E0FEEF14541F4EF0C2A4800259
:100C7000D2A49004E3E0FF541F600EEF54E0FEEFB7
:100C800014541F4EF0C2A78002D2A79004E6E0FFE2
:100C9000541F600EEF54E0FEEF14541F4EF0C28359
:100CA0008002D283D007D006D005D004D003D00272
:100CB000D001D000D0D0D082D083D0F0D0E032901C
:100CC00004C4E0FEA3E04E707B9004C4F0A374065D
:100CD000F09050E0E493FFE564D39F401CE4F5649A
:100CE000E565D394074005E4F56580020565E4F504
:100CF00069F568F567F566804B0564E564C39400A3
:100D00004009E56494205003856466E564C394203B
:100D1000400CE56494405006E56424E0F567E56422
:100D2000C39440400CE56494605006E56424C0F52B
:100D300068E564C39460400CE56494805006E56403
:100D400024A0F569E565B407004002E1D7900D5392
:100D500025E073A161A19CA1C7C11CC155C192E14D
:100D60000FE56675F00584541FFF9004D4E054E04D
:100D70004FF0E56775F00584541FFF9004CDE054F3
:100D8000E04FF0E56875F00584541FFF9004CAE059
:100D900054E04FF0E56975F005848078E566541FEE
:100DA000FF9004D3E054E04FF0E567541FFF900438
:100DB000CCE054E04FF0E568541FFF9004C9E054C4
:100DC000E04FF0E569C18AE56675F00584FFC374FC
:100DD000069F541FFF9004D4E054E04FF0E5677580
:100DE000F00584FFC374069F541FFF9004CDE054A8
:100DF000E04FF0E56875F00584FFC374069F541F4B
:100E0000FF9004CAE054E04FF0E56975F00584FFF7
:100E1000C374069F541FFF9004C7E1D2E566C31355
:100E2000541FFF9004D5E054E04FF0E567C313541E
:100E30001FFF9004CEE054E04FF0E568C313541F49
:100E4000FF9004CBE054E04FF0E569C313541FFF5B
:100E50009004C8E1D2C3741F9566541FFF9004D359
:100E6000E054E04FF0C3741F9567541FFF9004CC0B
:100E7000E054E04FF0C3741F9568541FFF9004C9FD
:100E8000E054E04FF0C3741F9569541FFF9004C6EF
:100E9000E1D2E56675F00384541FFF9004D4E0545A
:100EA000E04FF0E56775F00384541FFF9004CDE038
:100EB00054E04FF0E56875F00384541FFF9004CAB6
:100EC000E054E04FF0E56975F00384541FFF90048F
:100ED000C7E054E04FF0E566C313541FFF9004D3FE
:100EE000E054E04FF0E567C313541FFF9004CCE0DB
:100EF00054E04FF0E568C313541FFF9004C9E05459
:100F0000E04FF0E569C313541FFF9004C6E1D2E53A
:100F100066C313FFC3740F9F541FFD9004D5E054A4
:100F2000E04DF0E567C313FFC3740F9F541FFC909F
:100F300004CEE054E04CF0E568C313FFC3740F9F88
:100F4000541FFB9004CBE054E04BF0E569C313FF62
:100F5000C3740F9F541FFF9004C8E054E04FF0E5A6
:100F60006675F00384FEC3740A9E541FFE9004D479
:100F7000E054E04EF0E56775F00384FEC3740A9E0A
:100F8000541FFE9004CDE054E04EF0E56875F00388
:100F900084FEC3740A9E541FFE9004CAE054E04EBF
:100FA000F0E56975F00384FEC3740A9E541FFE9039
:100FB00004C7E054E04EF09004D3E054E04DF090CC
:100FC00004CCE054E04CF09004C9E054E04BF090C5
:100FD00004C6E054E04FF0227B017A0479FF753BB0
:100FE00000753C017F037E001235467B017A05794E
:0E0FF00000753B00753C017F047E0002354613
:10100000E4F52578007C007D017BFF7A4F7939FE7D
:101010007F0C124563780C7C007D017BFF7A4F7951
:10102000457E007F06124563C223904F4BE493FE3A
:10103000740193FFC39004F6E09F9004F5E09E5086
:101040000EA3E004F070239004F5E004F0801BE4AC
:101050009004F5F0A3F078267C00FD7B017A0479FA
:10106000F7FE7F07124563122E38202228D2227BFA
:10107000007A007981753B00753C017F207E00126B
:1010800035467B007A007979753B00753C017F21FC
:101090007E00123546787EE6FA08E6FB7C007D3C51
:1010A000FFAE021246159004FCEFF07C007D3CAFD1
:1010B00003AE02124615A3EDF0C3787FE694101834
:1010C000E6940E402DE4787EF608F69004FBE0C32B
:1010D00094184004E4F080069004FBE004F09004CF
:1010E000F9E0D3940740057401F080069004F9E01C
:1010F00004F07B017A00790C12280090000CE0FFCC
:10110000547FFEBE7F04D224806EEF30E7689000EB
:101110000DE0131313541FFF7E007C007D3C12462C
:1011200003A3E02FFBEC3EFA9004FBE0FF7E0012ED
:101130004603A3E0F92FFFEC3EFED3EF9BEE9A406F
:1011400031900010E0131313541FFF7E001246036A
:10115000A3E02FFBEC3EFA9004FBE0FF7E0012467A
:1011600003E92FFFEC3EFED3EF9BEE9A5004D2240E
:101170008006C2248002C2247B017A007900121703
:101180000E900000E020E718900003E020E71190A7
:101190000006E020E70A900009E020E703C22522CC
:1011A000D225E4F525E52575F003A42400F582E4B5
:1011B0003400F583E0547FFD9004F9E0FF12373DE1
:1011C00040026183E52575F003A42400F582E43430
:1011D00000F583E0C4131313540120E0026183E59A
:1011E0002575F003A42401F582E43400F583E013AF
:1011F0001313541FFF7E007C007D3C124603E5253F
:1012000075F003A42402F582E43400F583E02FFB9B
:10121000EC3EFA9004FBE0FF7E00124603A3E0F9E7
:101220002FFFEC3EFEEFB50309EEB50205302302B9
:10123000C223E52575F003A42401F582E43400F50A
:1012400083E0131313541FFF7E007C007D3C124685
:1012500003E52575F003A42402F582E43400F58348
:10126000E02FFBEC3EFA9004FBE0FF7E0012460309
:10127000E92FFFEC3EFEEF6B7002EE6A70712023E7
:101280006ED223047E00A825088005C333CE33CE5A
:10129000D8F9FF7880E6FDFBEF5B602EAF25740187
:1012A000A807088002C333D8FCF45D7880F6E525F2
:1012B00075F003A42410FFE435F0FE7BFF7A4F792C
:1012C0004D7533007534011232D89005027402F066
:1012D000E52575F003A42401F582E43400F583E0EC
:1012E0005407900501F0900505E04401F06183E5A5
:1012F0002575F003A42401F582E43400F583E0139E
:101300001313541FFF7E007C007D3C124603E5252D
:1013100075F003A42402F582E43400F583E02FFB8A
:10132000EC3EFA9004FBE0FF7E00124603A3E02FA0
:10133000FFEC3EFED3EF9BEE9A404874017E00A87E
:1013400025088005C333CE33CED8F9FF7880E6FD7B
:10135000FBEF5B602EAF257401A807088002C33342
:10136000D8FCF45D7880F6E52575F003A42410FF21
:10137000E435F0FE7BFF7A4F794E7533007534010A
:101380001232D80525E525C39404500221A5227800
:10139000417C007D017BFF7A4379D37E007F601220
:1013A000456378A17C007D017BFF7A4479337E0020
:1013B0007F601245639004FEE07006740AF0122606
:1013C000C6E51024FE7002C1E7147002C1EE14706D
:1013D00002C1F6147002C1F924046002C1FF900337
:1013E0003DE0FF30E002E10630170FC217C2047F74
:1013F0000C7E647DFE7C221223E1E56DB4060312AF
:1014000038F8301B75C21BB2187E007F607D007BF0
:10141000017A0079411248C690004174ABF0A37480
:101420000EF0301806A37422F08006900043742357
:10143000F078457C007D017B017A0479F07E007FA5
:1014400005124563E49002EFF0A3F09002EE740DF4
:10145000F07E007F487D007B017A0279A51248C6A4
:1014600078A57C027D017B017A0079417E007F0EA8
:101470001245639002ED740EA1D0900505E0FF20A7
:10148000E002A128D200C201E4900040F0EF54FE37
:10149000900505F07E007F607D007B017A00794138
:1014A0001248C6900506E090004CF07531FF753289
:1014B0003A753366753400F5357B017A0079001290
:1014C000495E7B017A0079001236ABA20092067564
:1014D0002E01752F0075304175312175320A753333
:1014E00010A2019207122591900040EFF0E49002C3
:1014F000EFF0A3F09002EE740DF07E007F487D00C7
:101500007B017A0279A51248C6900040E0FF7E0078
:1015100078A57C027D017B017A00794112456390B8
:101520000040E09002EDA1D0900503E07002A1DF41
:10153000E51064016002A1DF7884F67884E6FFC3D9
:1015400094034002A1DF74017E00A807088005C350
:1015500033CE33CED8F9FF900503E0FDFBEF5B609F
:10156000797884E6FC7401A804088002C333D8FCAF
:10157000F45D900503F0900504E0FFA804088002E4
:10158000C313D8FC5401900041F07884E6241BF882
:10159000E6FFD394104043EF94FF503E74FF900257
:1015A000EFF0A3F09002EEEFF07E007F487D007B2D
:1015B000017A0279A51248C678A57C027D017B01DB
:1015C0007A0079417E007F011245639002ED74013B
:1015D000F0E4900339F075100422788406A13B20D2
:1015E0001D02E10DC21D900341E064FE6002E10DA9
:1015F00078437C037D017BFF7A4379D1FE7F021221
:1016000048A2EF6002E10D900349E0FDA3E0788578
:10161000F6ED08F6A3E008F6A3E008F6E4F56AFEA6
:101620007F60FD7B017A0079A11248C6900355E0E6
:10163000FF7E0078A17C007D017B017A0379561240
:1016400045637887E6FFD394104065EF94FF5060C0
:10165000900504E0F525E6B51B13E51B600F90052A
:10166000027402F05325FE9000A1E080357887E6F1
:10167000FDB51C15E51C60119005027402F05325A0
:10168000FD9000A1E025E08019EDB51D1BE51D6072
:10169000179005027402F05325FB9000A1E025E0AD
:1016A00025E04525900501F0900505E04401F02274
:1016B0007887E624F360101460242402704F7B01C5
:1016C0007A0079A10236E17885E6FC08E6FD4C70E7
:1016D0003C7B017A0079A108E6F52B0200267B010C
:1016E0007A0079A1022000756A03D2028005756A2A
:1016F00002C202021800021D7A756A04022AC19011
:10170000033DE030E00754FEF0A3E0F510228B2605
:101710008A27892878297C007D007BFF7A4E79D73B
:101720007E007F0C124563E4F535FB7A007929F5DC
:101730003B753C0C7F10FE123546E4F535E53575FA
:10174000F003A42429F8E6547FFFAB2675F003E5E7
:1017500035A42528F9E52735F0FA12458954804F3C
:10176000FF1245CFE53575F003A42429F8E654802F
:10177000C41313135401C43333335480FEEF547F26
:101780004E1245CFE53575F003A4242AF8E654E05F
:10179000C4135407FDE53575F003A4AB262528F9DD
:1017A000E52735F0FAE92401F9E43AFA12458954BB
:1017B000F84DFF1245CFE53575F003A4242AF8E66D
:1017C000541F33333354F8FEEF54074E1245CFE520
:1017D0003575F003A4242BF8E6FDE53575F003A478
:1017E000AB262528F9E52735F0FA900002ED1245E1
:0F17F000E10535E53564046002E13D22A2822265
:1018000078017C017D017BFF7A4179CD7E007F40AC
:10181000124563E4F52690033DE0FF30E01154FEED
:10182000F0A3E0F510E4F508F509F50AD2A322E5E6
:1018300008D3940F4016E4F508F509F50AD2A390F1
:1018400004FE740AF0751001756D0322200207E58D
:10185000087003750807E50864076004E50870066A
:101860009004FE740AF0E5087073E508600241E830
:10187000E50914601514602E2402600241E8C2A339
:101880009002A3E4F0A374C8418C9002A3E070021C
:10189000A3E0600241E8D2A39002A37417F0A374FE
:1018A00070F0750902229002A3E07002A3E07002BA
:1018B000F509201D0241E8C21D7549FF754A3C75B6
:1018C0004BC5903D05E493F54C7B017A0379417D4E
:1018D00080123000EA494B700241E841E1E508D34B
:1018E0009400500221B6E5089409400221B6E509AA
:1018F00014607404600241E8E50AD3940240024196
:101900004EE50875F086A4FFAEF02482F9743C3EE3
:101910007548FFF549894A754B0274842FF9743C68
:101920003E754CFFF54D894E75F086E508A424C43C
:10193000F582E5F0343CF583122BA28F267B017AE9
:10194000017901AD2612376775F086E508A42406F3
:10195000F582E5F0343DF583E493FF740193900242
:10196000A3CFF0A3EF418C9002A3E07002A3E0703C
:1019700002419B201D0241E8C21DE50875F086A4C6
:1019800024C5F9743C35F07549FFF54A894B75F06B
:1019900086E508A42405F582E5F0343DF583E4935B
:1019A000F54C7B017A0379417D80123000EA494B86
:1019B000700241E841E1E508C39409500241E8782A
:1019C000277C007D007BFF7A42790D7E007F10121C
:1019D000456390417AE493FF7E0078277C007D0088
:1019E0007BFF7A41793A124563E508C3940C502F86
:1019F000E50875F003A424A9F582E43441F583E4F5
:101A000093F527E50875F003A424AAF582E4344190
:101A1000F583E493FE740193F52AEEF52B801E7492
:101A20000F2508F8E6FFC39410400FEF94FF500A0B
:101A30008F27752A0DE4F52B8003050822E509148C
:101A4000604F04600241E8E50AD394024006E4F5E1
:101A50000AF508227548FF754941754A38754B02E9
:101A6000754C00754D00754E2790417A122BA28F50
:101A7000267B017A017901AD261237679041BCE4DB
:101A800093FF7401939002A3CFF0A3EFF0750901C7
:101A9000229002A3E07002A3E07005050AF5092276
:101AA000301D45C21D7549FF754A41754B7B9041FC
:101AB000BBE493F54C7B017A0379417D80123000C1
:101AC000EA494B701C7549FF754A41754BBE754C10
:101AD000067B017A0379417D80123000EA494B6030
:101AE00007E4F509F50A050822302405756D048020
:101AF0001BE56DB404031238F89004CFE0700DE5D7
:101B00006DB403087F0F12317B756D02E56D14B45F
:101B100007004002A176901B2025E0500205837348
:101B2000A179612E61316131A146A16EA173020CD0
:101B3000BFE51E30E06C900504E030E02CE56E75EA
:101B4000F003A424B8F582E43450F583E493541FE1
:101B5000FDE56E75F003A424B9F582E43450F583F5
:101B6000E493541FFBE56E802AE56B75F003A42413
:101B7000B8F582E43450F583E493541FFDE56B75AA
:101B8000F003A424B9F582E43450F583E493541FA0
:101B9000FBE56B75F003A424BAF582E43450F583B9
:101BA000800F9050B5E493541FFDA3E493541FFBA2
:101BB000A3E493541FF528E4FF123265E51E30E1DB
:101BC0006C900504E030E12CE56E75F003A424B8B8
:101BD000F582E43450F583E493541FFDE56E75F00F
:101BE00003A424B9F582E43450F583E493541FFB35
:101BF000E56E802AE56B75F003A424B8F582E43421
:101C000050F583E493541FFDE56B75F003A424B9EC
:101C1000F582E43450F583E493541FFBE56B75F0D3
:101C200003A424BAF582E43450F583800F9050B5B4
:101C3000E493541FFDA3E493541FFBA3E493541FA8
:101C4000F5287F01123265E51E30E26C900504E054
:101C500030E22CE56E75F003A424B8F582E434502C
:101C6000F583E493541FFDE56E75F003A424B9F5E4
:101C700082E43450F583E493541FFBE56E802AE53B
:101C80006B75F003A424B8F582E43450F583E49333
:101C9000541FFDE56B75F003A424B9F582E43450BC
:101CA000F583E493541FFBE56B75F003A424BAF5A8
:101CB00082E43450F583800F9050B5E493541FFDB7
:101CC000A3E493541FFBA3E493541FF5287F02124F
:101CD0003265D39050D67401939555E49395544052
:101CE000090555E5557002055422B21EE4F554F578
:101CF00055E56A14601514601A14602014602F24CE
:101D000004703FE4F5287B1EFD8021E4F528FB7D6F
:101D10001E8019E4F5287B0A7D1E8021E4301E0810
:101D2000F5287B0A7D1E8004F528FBFD800FE4303A
:101D30001E07F528FB7D1E8004F528FBFD7F0302AE
:101D40003265E4F56A229004C3E060047F018020DC
:101D50001238F87531FF7532507533A57B017A0062
:101D6000790012495E7B017A0079000236ABE4FF0C
:101D7000022200022C64756D032278417C017D01F2
:101D80007BFF7A4279B77E007F50124563E4F526E7
:101D900078917C017D017BFF7A437907FE7F4012B9
:101DA0004563E4F52778287C00FD7BFF7A4379477B
:101DB000FE7F0312456390033DE0FF30E00D54FECB
:101DC000F0A3E0F510E4F50CF50D22E4F5289002FF
:101DD000EEE0F529752A0D7548FF754943754A4AA5
:101DE000754B02754C00754D00754E28754F037B81
:101DF000017A017991122BAC8F279002EFE0FCA3BE
:101E0000E0FD9002EEE0F532753301753402753570
:101E1000A59002EDE0F5367B017A017941122F653C
:101E20008F26E50C14603F147002C1CB147002E1E0
:101E30002F147002E13E24046002E18BE50DD3947F
:101E4000034008750B01E4F50DE18BD2A37B017A09
:101E5000017941AD261237679002A37403F0A37491
:101E6000E8F0750C01229002A3E07002A3E070027A
:101E70008063201D02E18EC21D754901754A0175FE
:101E80004B9185274C7B017A0379417D801230008C
:101E9000EA494B6016900339E07002E12B750C02A1
:101EA0009002A37401F0A374F4F02278437C037DC4
:101EB000017BFF7A43794A7E007F021248A2EF60DD
:101EC00002E18E900345E0F50BE18B9002A3E070F8
:101ED00002A3E07005050DF50C22201D02E18E9095
:101EE0000349E0FDA3E07889F6ED08F690034CE0A5
:101EF00008F6C21D900339E0FF7E0078567C037D12
:101F0000017B017A0279F11248A2EF6002E18E783A
:101F100089E6FE08E6FF90033BE06E7003A3E06FE6
:101F2000706C90033AE0788B667063750C03223016
:101F30001C07C21C751003804C7510018047301CB3
:101F400007C21C7510038003751001E50B60367520
:101F500031FF75323975334D753400F5357B017AB3
:101F600001790112495E7B017A0179011236ABE5F4
:101F70000B2433600A24E4600624E97002800075B3
:101F80006A01E4F50BE4F50DF50C22750C0422C290
:101F900005E4F52E78E37C017D017BFF7A3B799F98
:101FA000FE7F031245633004089001E5E52DF080C3
:101FB00005E49001E5F0753801753901753AE39053
:101FC0003B5BE493F53B753CFF753D3B753E5C9098
:101FD0003B9CE493F53F754002A3E493F541740103
:101FE00093F5427BFF7A3B7919122D9E9205A2054B
:0F1FF00022E4F5C7F5C5F5C675C3FF75C4FF221A
:102000008B268A27892878C17C017D017BFF7A4352
:10201000794F7E007F22124563AB26AA27A928129A
:1020200045899001C1F09000011245A2FF7E00E9B0
:102030002402F9E43AFA78C27C017D01124563ABCF
:1020400026AA27A9289000011245A29001E2F0904B
:1020500001C1E02497604214700221DF2402600273
:1020600021FFC202D2049001C2E0F52D121F8F920F
:10207000027F0C1237F27531FF7532397533EE90ED
:1020800001C2E0753400F5357B017A01790112490E
:102090005E7B017A01790121DCC202C203E4F52CE6
:1020A000F52BF52AF5299001C2E0FFE52C4FF52C20
:1020B000E52BF52BE52AF52AE529F529A3E0FFE430
:1020C000FCFDFE78081246DDE52C4FF52CE52B4E85
:1020D000F52BE52A4DF52AE5294CF529A3E0FFE487
:1020E000FCFDFE78101246DDE52C4FF52CE52B4E5D
:1020F000F52BE52A4DF52AE5294CF529A3E0FFE467
:10210000FCFDFE78181246DDE52C4FF52CE52B4E34
:10211000F52BE52A4DF52AE5294CF529A3E0FF909A
:1021200004FFE0B5070C9001C7E0FE900500E06EEB
:1021300060339004FFEFF09001C7E0900500F07B62
:10214000017A0479FF7533007534017F037E001234
:1021500032D87B017A0579007533007534017F042C
:102160007E001232D89001C8E06002D2037F807EE8
:10217000437D6D7C38AB2CAA2BA92AA829D3124603
:10218000B9401DE52C2480FFE52B34BCFEE52A3444
:1021900092FDE52934C7FCA20392041223E19202C6
:1021A0007531FF75323A75330F9001C5E075340013
:1021B000F5359001C4E0753600F5379001C3E07540
:1021C0003800F5399001C2E0753A00F53B7B017AA1
:1021D00001794112495E7B017A0179410236AB7582
:1021E00031FF75323A7533387B017A0179811249B2
:1021F0005E7B017A0179811236ABC2041236372236
:10220000AD07E55E701D20211A9050DF93FFE55F5A
:10221000C39F5004055F800BE4F55FF563F562F53D
:1022200061F560E55E7004D2218009E55ED39450CB
:102230004002C2219004C4E07002A3E07075AF5E5A
:10224000202104155E8002055EEF541FFF9050DDD3
:10225000E493FEEF8EF084FFA3E493FEEF8EF0A4F0
:10226000FF9004C4E5F0F0A3EFF0E55EC3940040F6
:1022700009E55E94205003855E60E55EC3941040DE
:102280000CE55E94305006E55E24F0F561E55EC332
:102290009420400CE55E94405006E55E24E0F56233
:1022A000E55EC39430400CE55E94505006E55E2434
:1022B000D0F563ED147002614C04600261E0E55FEB
:1022C000600261E0302154E55EC3942E5015E55E56
:1022D00075F00F84E5F0D3940A9004D5E0500261C4
:1022E0006F61A8E55ED3942D40079004D5E0441FAC
:1022F000F0E55ED3943240079004CEE0441FF0E551
:102300005ED3943C40079004CBE0441FF0E55ED3DD
:102310009446500261E09004C861A7E563541FFF32
:102320009004D5E054E04FF0E562541FFF9004CED6
:10233000E054E04FF0E561541FFF9004CBE054E01F
:102340004FF0E560541FFF9004C861DBE55F600259
:1023500061E0302157E55EC3942E5017E55E75F0BD
:102360000F84E5F0D3940A9004D5E04002803954FC
:10237000E0F022E55ED3942D40079004C8E0441FAE
:10238000F0E55ED3943240079004CBE0441FF0E5C3
:102390005ED3943C40079004CEE0441FF0E55ED34A
:1023A0009446403C9004D5E0441FF022E563541F5E
:1023B000FF9004C8E054E04FF0E562541FFF900422
:1023C000CBE054E04FF0E561541FFF9004CEE054A1
:1023D000E04FF0E560541FFF9004D5E054E04FF06B
:1023E000228F308E2F8D2E8C2D78E37C017D017B0A
:1023F000FF7A3C79777E007F0B124563C2058530FA
:1024000034852F33852E32852D31200402A11F9073
:1024100004FFE0D3940C5040900500E0FFE4FCFD85
:10242000FE7B3CFAF9F812466AC004C005C006C03B
:10243000079004FFE0FFE4FCFDFE7B107A0EF9F844
:1024400012466AD003D002D001D000EF2BFFEE3A43
:10245000FEED39FDEC38A10A9004FFE0FFD3940CA7
:10246000405EEFD394185058E024F4FFE434FFFEAC
:10247000E4FCFD7B107A0EF9F812466AC004C00530
:10248000C006C007900500E0FFE4FCFDFE7B3CFABF
:10249000F9F812466AD003D002D001D000EB2FFB2E
:1024A000EA3EFAE93DF9E83CF8C3E5349BF534E54A
:1024B000339AF533E53299F532E53198F531805F9D
:1024C0009004FFE0FFC3941E4055EF24EFFFE43477
:1024D000FFFEE4FCFD7B107A0EF9F812466AC00498
:1024E000C005C006C007900500E0FFE4FCFDFE7BD0
:1024F0003CFAF9F812466AD003D002D001D000EBC2
:102500002FFFEA3EFEE93DFDE83CFCE5342FF534C3
:10251000E5333EF533E5323DF532E5313CF531E565
:1025200034FF9001E3EFF0E4FFE533FEE4FDFC78D7
:10253000081246CAA3EFF0E4FFFEE532FDE4FC78A2
:10254000101246CAA3EFF0E4FFFEFDE531FC781857
:102550001246CAA3EFF0753801753901753AE39058
:102560003C33E493F53B753CFF753D3C753E349040
:102570003C74E493F53F754002A3E493F541740184
:1025800093F5427BFF7A3B79F1122D9E9205A205CD
:1025900022AB2EAA2FA930900002E5321245E1901D
:1025A0000003E5331245E120070EAB2EAA2FA93018
:1025B00090000AE51F1245E1E5302405F9E4352FC6
:1025C000A801FCAD2E7B017A0479F07E007F051214
:1025D0004563AB2EE5302405F9E4352FFA7D1C1256
:1025E00007D5AB2EAA2FA930900004EF1245E120A9
:1025F0000602C1AA78A37C017D017BFF7A3A797932
:102600007E007F40124563AB2EAA2FA93074CC12F6
:1026100045CFE531240CAB2EAA2FA9309000011232
:1026200045E1E53124F3FFE434FFFEE92401F9E458
:102630003AFA78A37C017D01124563E53124FFFF5E
:10264000E434FFFE7D00AB2EE5302401F9E4352FA4
:10265000FA1248C6E53124F3FFE434FFFEE53024E6
:102660000DF9E4352FA801FCAD2E7B017A0179A389
:10267000124563E5302401F9E4352FA801FCAD2EA5
:102680007B017A0479E97E007F06124563E53024F8
:1026900008F9E4352FA801FCAD2E7B017A0479F00E
:1026A0007E007F051245637F2D22AB2EAA2FA93015
:1026B00074AA1245CFAB2EAA2FA930900001E531A4
:1026C0001245E17F2122C20278017C017D017BFF5E
:1026D0007A3B79CA7E007F20124563E4FF7534FFA0
:1026E00075353B7536EF75370175380175390175EC
:1026F0003A02753B01753C2C7BFF7A3B79EA7D05FC
:10270000123102EF7004C202E1CC90010FE0FE90A2
:10271000010EE0FDEEF526EDF527E4F528F529AEEE
:1027200026AF277C077DD01246158D2A90010CE03C
:10273000F52BA3E0F52CE4F52D852A28E52B640183
:102740006005E52BB4020AE52B240CF52915288039
:1027500003852B29E5292401FFE433FE7C007D1A43
:102760001246037D0A124615E5281313543F252807
:102770002F252C24DCF52D75F0078485F02DE52D13
:102780009004F96003F080037407F09004F8E52BDF
:10279000F09004FAE52CF09004F7E52AF090010996
:1027A000E09004FBF090010AE09004FCF090010B33
:1027B000E09004FDF0FD9004FCE075F03CA4AEF068
:1027C0007C002D787FF6EC3E18F6D202A20222D2CF
:1027D00004752D0C121F8F7F0C1237F27531FF75A7
:1027E000324F75334F75340075350C7B017A0079A3
:0D27F0004012495E7B017A0079400236AB51
:102800008B268A27892878297C007D007BFF7A4ED9
:1028100079E37E007F06124563E4F52FFB7A0079A9
:1028200029F53B753C067F22FE123546E4F52FE57F
:102830002F75F003A42429F8E6547FFFAB2675F02A
:1028400003E52FA42528F9E52735F0FA1245895428
:10285000804FFF1245CFE52F75F003A42429F8E639
:102860005480C41313135401C43333335480FEEF24
:10287000547F4E1245CFE52F75F003A4242AF8E6C5
:1028800054E0C4135407FDE52F75F003A4AB2625CF
:1028900028F9E52735F0FAE92401F9E43AFA124576
:1028A0008954F84DFF1245CFE52F75F003A4242A73
:1028B000F8E6541F33333354F8FEEF54074E1245F5
:1028C000CFE52F75F003A4242BF8E6FDE52F75F076
:1028D00003A4AB262528F9E52735F0FA900002ED90
:1028E0001245E1052FE52F64026002012F228F2897
:1028F000ED24FD6059147002218A14700221B8245D
:1029000003600221D97531FF75324F753375753407
:10291000008528357B017A00790012495E7B017AB7
:102920000079001236ABE52824FE600A24FE60061A
:102930002403600221D99005027401F0900501E59D
:1029400028F0900503F0900505E04401F022753170
:10295000FF75324F7533917534008528357B017AC8
:1029600000794012495E7B017A0079401236ABE56E
:102970002824FE600824FE60042403705C90050295
:102980007401F0900501E528F0227531FF75324F92
:102990007533AB7534008528357B017A0079801258
:1029A000495E7B017A0079801236ABE52824FC6011
:1029B000028026D2040236377531FF75324F7533E7
:1029C000C87534008528357B017A0079C012495ECC
:1029D0007B017A0079C01236AB22E4F5279005041A
:1029E000E0FFF527E52624FE602904705CE525302C
:1029F000E007EF6401900504F0E52530E10790055C
:102A000004E06402F0E52530E23F900504E0640450
:102A1000F08036E52590050430E006E04401F080C2
:102A200004E054FEF0E52590050430E106E04402A0
:102A3000F08004E054FDF0E52590050430E206E066
:102A40004404F08004E054FBF0123672E490050672
:102A5000F0900504E0FF5407900506F0EF5401FFE5
:102A6000E52754016F6006E04420F0802A900504B9
:102A7000E0FC5402FEE52754026E6009900506E072
:102A80004440F08012EC5404FFE52754046F6007C3
:102A9000900506E04480F0900504E0FF6006E478CD
:102AA0007CF608F6900507E0B401158F277B007AC5
:102AB0000079277533007534017F027E001232D809
:102AC00022900340E07002617990033FE030E033F0
:102AD00078017C017D017BFF7A43794C7E007F0386
:102AE00012456390033FE054FEF07B017A017901C7
:102AF000752C037D0E74FFFFFE1234787F327E004A
:102B000012386CE50E706CE50F14601914603324F4
:102B1000027060C2A39002A3E4F0A374C8F0750E23
:102B200000750F01229002A3E07002A3E07072D240
:102B3000A39002A37417F0A37470F0750E00750FC4
:102B400002229002A3E07002A3E07055F50EF50F8B
:102B50007531FF753239753390900340E07534005C
:102B6000F5357B017A01790412495E7B017A01799E
:102B700004802BE4F50EF50F22E4F50EF50FD2A339
:102B8000751003756D037531FF7532397533B47B7C
:102B9000017A01794412495E7B017A017944123647
:102BA000AB22E493F54F7B017A0179018B458A468C
:102BB0008947854F50E4F551AE5105518E82F5831A
:102BC00074FE1245E1AF5105518F82758300E54FC8
:102BD0001245E1AF4B7E007C00E5472551F9EC350D
:102BE00046A801FCAD45AB48AA49A94A124563E590
:102BF0004B2551F551E4FEEEC3954B5013AB48AA5B
:102C000049A94A8E827583001245A262500E80E760
:102C1000AF4F7E007C00E5472551F9EC3546A80111
:102C2000FCAD45AB4CAA4DA94E124563E54F25516D
:102C3000F551E4FEEEC3954F5013AB4CAA4DA94E8F
:102C40008E827583001245A262500E80E7AB45AAC2
:102C500046A947AF5105518F82758300E550124553
:102C6000E1AF51229004C2E014601C14700281F0A4
:102C70002402600281FC9004C47403F0A374E8F0A1
:102C80009004C27401F0229004C4E0FEA3E0FF4E61
:102C900060487C007DC7124615D3ED9463EC940028
:102CA000401BA3E0441FF09004C9E0441FF09004CF
:102CB000CCE0441FF09004D3E0441FF0229004C6FF
:102CC000E054E0F09004C9E054E0F09004CCE0540B
:102CD000E0F09004D3E054E0F0229004C47402F0D9
:102CE000A37458F07F0F12317B9004C27402F0225B
:102CF0009004C4E07002A3E070078001E49004C275
:102D0000F0228B258A2689271217FC405CD21120DD
:102D10001502D215D390500B7401939574E49395DA
:102D200073501BC390500D7401939574E493957385
:102D3000400C200F09AA29A92A124716D20FD390B6
:102D4000500D7401939574E49395735050C3905053
:102D50000F7401939574E4939573404120103EAA3B
:102D60002CA92D124716D21022C21530112FC211D4
:102D7000D390500B7401939574E493957340159020
:102D800050097401939574E49395735007AA26A98A
:102D900027124716E4F573F574C20FC210228B3563
:102DA0008A36893778EE7C017D017BFF7A3A79B9E2
:102DB0007E007F60124563E4F543853548853649DA
:102DC00085374A754B0285384C85394D853A4E8595
:102DD0003B4F7B017A0179EE122BAC8F44E4F54333
:102DE000E543C39540504FC21D9002A3E541F0A3B7
:102DF000E542F07B017A0179EEAD4412376790022B
:102E0000A3E07002A3E0602A301DF3C21D853C4997
:102E1000853D4A853E4B853F4C7B017A0379417D58
:102E200080123000EA494B60D57F027E0012386C78
:102E3000D322054380AAC32278127C007D017BFF48
:102E40007A4E79E97E007F501245637531FF753205
:102E50004E753381753400852635753600852737E4
:102E6000753800852939753A0085283B7B017A0041
:102E7000791212495E7B017A0079121236AB7531F4
:102E8000FF75324E7533AD753400852A35753600C1
:102E9000852B37753800852C397B017A0079121221
:102EA000495E7B017A0079121236AB7531FF7532BB
:102EB0004E7533C59004FFE0753400F5357B017A1B
:102EC00000791212495E7B017A0079120236ABC09A
:102ED000E0C0F0C083C082C0D075D000C000C00187
:102EE000C002C003C004C005C006C007309831C28C
:102EF00098E51A702B201A14D21AF512F513FE7FDA
:102F0000807DFF7B017A0379C21248C6AF13051397
:102F100074C22FF582E43403F583E599F07512004D
:102F2000309927C299E5156516601C74422515F580
:102F300082E43404F583E0F5990515E515C3948022
:102F400040087515008003751700D007D006D0051E
:102F5000D004D003D002D001D000D0D0D082D08312
:102F6000D0F0D0E0328B2D8A2E892F8C308D3178A5
:102F7000D47C017D017BFF7A42791F7E007F48125D
:102F80004563E4F537FE7F50FDAB2DAA2EA92F1225
:102F900048C69001D4E531F0E530A3F0A3E532F066
:102FA000A3F0A3740DF09001DAF0E4A3F0A374078A
:102FB000F0A3E536F0FF7E0078DE7C017D01AB33C7
:102FC000AA34A9351245637548FF754942754A1DF3
:102FD000754B02754C01754D01754ED4E536240ACA
:102FE000F54FAB2DAA2EA92F122BAC227B007A0015
:0F2FF000791B753B00753C037F067E000235465A
:103000008D488B458A468947E4F54D8B4E8A4F891A
:1030100050854951854A52854B53C3E5509547FF2A
:10302000E54F9546FE7C00EF254CFFEC3EFED3EFCE
:1030300095487480F86E985047AB510553E553AAF4
:10304000527002055214F9124589FFAB4E0550E546
:1030500050AA4F7002054F14F9124589B5071305A0
:103060004DE54DB54CD3C3E550954CF9E54F940073
:10307000FA22854951854A52854B53E4F54D809A91
:103080007B007A00790022C2AFD2BCE598543F445D
:1030900040F598E4752834F527F526F525C39528DD
:1030A000F528E49527F52774019526F526E495255E
:1030B000F525AF28AE27AD26FC78081246CA8FD674
:1030C0008528D7538EEF438E01538EF7438E0453DA
:1030D000AFFB538EF7438E10D2ACD29C53A23F7EEF
:1030E000007F807D007B017A0479421248C6D2AF0E
:1030F0007BFF7A39790B1238A77BFF7A3979320254
:1031000036AB8B308A3189328D33853B3D853C3EF1
:10311000E4F53FF53FE53FC3953A505CC21D900290
:10312000A3E53BF0A3E53CF0AB30AA31A932AD33C7
:103130001237679002A3E07002A3E06037301DF3FE
:10314000C21D78437C037D01AB34AA35A9367E00CD
:103150007F021248A2EF70DB9003C1E0FF7E00A85F
:1031600039AC38AD377B017A03794112456390035E
:10317000C1E0FF22053F809D7F0022AD07ED30E0DA
:10318000159004C8E054E0F09004C7E054E0F090DB
:1031900004C6E054E0F0ED5402C31360159004CB74
:1031A000E054E0F09004CAE054E0F09004C9E05428
:1031B000E0F0ED54041313543F60159004CEE05436
:1031C000E0F09004CDE054E0F09004CCE054E0F066
:1031D000ED5408131313541F60159004D5E054E008
:1031E000F09004D4E054E0F09004D3E054E0F022F6
:1031F0007525C8E4F526C200123503788CA607129F
:10320000383C8F1E788CE6FF656F6010E570C395C3
:1032100025500405708005E4F570D200300045C2E9
:1032200000E56F6FF5268F6FE52630E210E56F90B1
:10323000050730E2057401F080037402F0E52654BE
:10324000306021E56F5430C4540F14600C14600DCD
:103250001460042403700D8008751F3922751F3A0D
:1032600022751F3B22E56D64036006E56D64047002
:1032700066E56DB404179050D8E493FEED8EF084AB
:10328000FDEB8EF084FBE5288EF084F528EF1460CA
:103290001314601914601F2403703CED541FFF9039
:1032A00004C68019ED541FFF9004C98010ED541F0F
:1032B000FF9004CC8007ED541FFF9004D3E054E04E
:1032C0004FF0EB541FFFA3E054E04FF0E528541FEC
:1032D000FFA3E054E04FF0228E2E8F2F8B308A31E7
:1032E000893278237C027D017BFF7A5179A77E00A9
:1032F0007F801245637B017A027923753B00753C20
:1033000080E4FFFE123546E4FF123800AE33AF34DE
:103310007423252FF97402352EA801FC7D01AB30F2
:10332000AA31A9321245637B017A027923753A00EA
:10333000753B80E4FFFE0235838F288D29900503BD
:10334000E528F0900505E04401F07531FF75324F36
:103350007533E57534008528357536008529377B4A
:10336000017A00790012495E7B017A0079001236F9
:10337000ABE52824FE601124FE600E24037013E5E3
:103380002924FC700D0227CF22E52924FC700312AA
:10339000390222E4F52EF52F78A37C017D017BFF15
:1033A0007A3B79A2FE7F20124563E4FF7534FF75F6
:1033B000353B7536C87537017538017539A3753ACF
:1033C00002753B01753C2C7BFF7A3B79C27D06126E
:1033D0003102EF600C9001A8E0422FA3E0FEEE4224
:1033E0002EAE2EAF2F22E47884F653B1C743B23805
:1033F000C2B5C2B4C2B3900507E0B4011C7B007A29
:10340000007984753B00753C017F027E00123546D1
:103410007884E6900504F08014E47884F6FB7A0062
:103420007984F5337534017F02FE1232D812367278
:10343000221238BA1238EC1237B090033E7403F0FF
:1034400090033DE04401F01206917528FF752907AD
:10345000752AFF752BFF752C07752DFF7BFF7A38BA
:1034600079CC122D021231F0121000123713121300
:103470008F121AE9C2B680CF8E268F278D288B290E
:103480008A2A892B78847C017D017BFF7A427967C7
:103490007E007F50124563852832852933852A3482
:1034A000852B35852C367B017A017984AD27AC26B6
:1034B000122F65AD077B017A01798402376778A303
:1034C0007C017D017BFF7A5179277E007F80124548
:1034D000637B017A0179A3753300753480E4FFFEC4
:1034E0001232D89001A374A1F07B017A0179A375FF
:1034F00033007534017F017E001232D87F0A7E00CE
:1035000002386CE4FF2090030F80035307FE2091E4
:103510000543070280035307FD20920543070480FB
:10352000035307FB20930543070880035307F72045
:10353000930543071080035307EF209405430720AA
:1035400080035307DF22AD07AC06C2AF75C7807595
:10355000C5018CC3AF058FC475C65A75C6A500E5F5
:10356000C21245CF0DBD00010C740129F9E43AFAED
:10357000E53C153C7002153B14453B70D5121FF11C
:10358000D2AF22AD07AC06C2AF75C78075C5028C3D
:10359000C3AF058FC4124589F5C275C65A75C6A555
:1035A000000DBD00010C740129F9E43AFAE53B1560
:1035B0003B7002153A14453A70D5121FF1D2AF2272
:1035C0005395084396F75393F443940B53C9CF4351
:1035D000CA30756D03E4F528FBFDFF123265E4F592
:1035E00028FBFD7F01123265E4F528FBFD7F021206
:1035F0003265E4F528FBFD7F030232657B007A002B
:10360000796E753B00753C017F307E001235467B3C
:10361000007A00796B753B00753C017F317E0012AA
:103620003546E56ED394094003756E01E56BD3947E
:10363000094003E4F56B2290034074F0F030040776
:1036400090033FE04401F090033E7405F090033D89
:10365000E04401F0756D077531FF753239753376C9
:103660007B017A0179E312495E7B017A0179E302F9
:1036700036ABE51E30E00D900504E030E004D2B337
:103680008002C2B3E51E30E10D900504E030E10494
:10369000D2B48002C2B4E51E30E20D900504E030E1
:1036A000E204D2B58002C2B50238F88B2E8A2F8987
:1036B000307F0F7E0012386CE5A2543F4440F5A2E3
:1036C0007F0F7E0012386CAB2EAA2FA9301238A7BC
:1036D0007F0F7E0012386C53A23F7F0F7E000238AE
:1036E0006C8B268A278928124589FF900501F0A353
:1036F0007402F07531FF7532397533C37534008F3C
:10370000357B017A01790112495E7B017A017901E9
:103710000236AB900502E06403602178257C007DD1
:10372000007B017A0579017E007F02124563122930
:10373000DA9005027403F0E4900501F022AC07A9C9
:10374000051CE4FD74017E00A805088005C333CE86
:1037500033CED8F9FFE9FBEF5B6006EDB50402D389
:10376000220DBD07DFC3228B458A468947E4FEEE62
:10377000C39D5018AB450547E547AA46700205466C
:1037800014F9124589FF12378D0E80E32274422509
:1037900016F582E43404F583EFF00516E516C394BC
:1037A000804003E4F516E5177005751701D29922DC
:1037B000E4900000F07B017A007900F53B753C0154
:1037C0007F01FE123546900000E064A160031234D0
:1037D000BE2220241CEF5407FF9004D0E054F84F81
:1037E000F0A3EDF0EB541FFFA3E054E04FF0756C35
:0F37F00001229004C3EFF0756D057F0F02317B4E
:10380000AD07AC06C2AF8CC3AF058FC475C780755A
:10381000C50375C65A75C6A500121FF1D2AF227F27
:10382000F87E7FEF24FAFFEE34FFFAA9077BFF78DA
:10383000EF7C047D017E007F060245637F07E51F64
:10384000B43B028010E51FB43A047F038007E51FF4
:10385000B439027F012253911F53921F5393FB539C
:1038600094FB2092069005077401F022AB07AA068C
:10387000EB1B70011A144A60077F011238DC80F0DC
:103880002253B1FD43B20243B10153B2FE5395F747
:1038900043960822E4FF2096010F20970343070276
:1038A00020950343070422124589FF600C12378DCF
:1038B000740129F9E43AFA80EE2212000E123881DE
:1038C0001230871235C01238560233E690033E7428
:1038D00002F090033DE04401F00200037D367C07D6
:1038E000ED1D70011C144C70F7DFF12212381F120D
:1038F0002FEC1235FC020FD89004CF740AF0756DCE
:103900000322900340E06002E4F02269276D205515
:103910004152543120666F72207769666920646174
:103920007461207472616E736C6174652021212151
:103930000A0069276D20554152543120666F72206C
:10394000646174734C6F67202121210A0072656DD8
:103950006F7465206461746152657175657374205C
:103960006661696C2C20636F64653A5B3078253042
:1039700032585D2E0A00646576486F6C642073745B
:10398000617274207269676874206E6F772E0A0006
:10399000646576486F6C642074696D6520636F752B
:1039A0006E742072656D696E643A20253032642031
:1039B000732E0A00646576486F6C642073746F70B0
:1039C0002E0A00636D645363656E6172696F4374A0
:1039D000726C20636F6D6D696E672C2073746174F7
:1039E0007573446174613A253032582E0A006D6156
:1039F0007374657220636D64436F6D696E673A6EB0
:103A0000776B4F70656E3A25303264732E0A006D05
:103A100061737465722055544320636F6D696E67DE
:103A20003A5B3078253032582530325825303258BC
:103A3000253032585D2E0A006E6F646520636D6418
:103A4000436F6D696E673A6465764E776B20686F79
:103A50006C642E0A00636D64436F6D696E673A256E
:103A60003032582E0A007377446174612070757388
:103A7000683A253032582E0A00000000000000008D
:103A80000000000000000000000000000000000036
:103A90000000000000000000000000000000000026
:103AA0000000000000000000000000000000000016
:103AB0000000000000000000000000000000000006
:103AC00000000000000000000000000000000000F6
:103AD00000000000000000000000000000000000E6
:103AE00000000000000000000000000000000000D6
:103AF00000000000000000000000000000000000C6
:103B000000000000000000000000000000000000B5
:103B10000000000000000000002608FCFF0000007C
:103B20000000000000000000000000000000000095
:103B30000000000000000000000000000000000085
:103B40000000000000000000000000000000000075
:103B5000000000000000000000000003FE016608F5
:103B6000006F0000000000000000000000000000E6
:103B70000000000000000000000000000000000045
:103B80000000000000000000000000000000000035
:103B9000000000000000000000000000060096FC8D
:103BA000FF00000000000000000000000000000016
:103BB0000000000000000000000000000000000005
:103BC0000000FE0126060627660600000000000031
:103BD00000000000000000000000000000000000E5
:103BE00000000000000000000000FE002111306114
:103BF0001121100000000000000000000000000083
:103C000000000000000000000000000000000000B4
:103C100000000000000000000000000000000000A4
:103C20000000000000000000000000000000000094
:103C30000000000BFE016110000000000000000009
:103C40000000000000000000000000000000000074
:103C50000000000000000000000000000000000064
:103C60000000000000000000000000000000000054
:103C700000000000050064000000000000000000DB
:103C800000004609000000000000000000000000E5
:103C90000000000000000000000000000000000024
:103CA0000000000000000000000000000000000014
:103CB0000000000000000000000000000000000004
:103CC0000000000000FE064180010200020603C35E
:103CD00000000000000000000000000000000000E4
:103CE00000000000000000000000000000000000D4
:103CF00000000000000000000000000000000000C4
:103D000000000000000B0FA04609000000000000AA
:103D100000000000000000000000000000000000A3
:103D20000000000000000000000000000000000093
:103D30000000000000000000000000000000000083
:103D40000000000000000000000000FE06418001AD
:103D50000200020603C30000000000000000000093
:103D60000000000000000000000000000000000053
:103D70000000000000000000000000000000000043
:103D800000000000000000000000000B0FA026054E
:103D9000030103000000000000000000000000001C
:103DA0000000000000000000000000000000000013
:103DB0000000000000000000000000000000000003
:103DC00000000000000000000000000000000000F3
:103DD00003FE016605006200000000000000000014
:103DE00000000000000000000000000000000000D3
:103DF00000000000000000000000000000000000C3
:103E000000000000000000000000000000000000B2
:103E1000000601F446090000000000000000000058
:103E20000000000000000000000000000000000092
:103E30000000000000000000000000000000000082
:103E40000000000000000000000000000000000072
:103E500000000000000000FE064180010200020692
:103E600003C300000000000000000000000000008C
:103E70000000000000000000000000000000000042
:103E80000000000000000000000000000000000032
:103E9000000000000000000B0FA0260587010100B4
:103EA0000000000000000000000000000000000012
:103EB0000000000000000000000000000000000002
:103EC00000000000000000000000000000000000F2
:103ED00000000000000000000000000003FE01667A
:103EE000050062000000000000000000000000006B
:103EF00000000000000000000000000000000000C2
:103F000000000000000000000000000000000000B1
:103F1000000000000000000000000000000601F4A6
:103F20002702FFFF0000000000000000000000006A
:103F30000000000000000000000000000000000081
:103F40000000000000000000000000000000000071
:103F50000000000000000000000000000000000061
:103F6000000002FE01670200640000000000000083
:103F70000000000000000000000000000000000041
:103F80000000000000000000000000000000000031
:103F90000000000000000000000000000000000021
:103FA0000000000601F4270300800000000000006C
:103FB0000000000000000000000000000000000001
:103FC00000000000000000000000000000000000F1
:103FD00000000000000000000000000000000000E1
:103FE000000000000000000004FE016703006500FF
:103FF00000000000000000000000000000000000C1
:1040000000000000000000000000000000000000B0
:1040100000000000000000000000000000000000A0
:104020000000000000000000000601F4260000006F
:104030000000000000000000000000000000000080
:104040000000000000000000000000000000000070
:104050000000000000000000000000000000000060
:10406000000000000000000000000000000000FE52
:104070000145C007830000000000000000000000B0
:104080000000000000000000000000000000000030
:104090000000000000000000000000000000000020
:1040A000000000000000000000000000000000060A
:1040B0001F402608FCFF0000000000000000000078
:1040C00000000000000000000000000000000000F0
:1040D00000000000000000000000000000000000E0
:1040E00000000000000000000000000000000000D0
:1040F0000000000003FE016608006F0000000000E1
:1041000000000000000000000000000000000000AF
:10411000000000000000000000000000000000009F
:10412000000000000000000000000000000000008F
:10413000000000000006009624000E0D000D000D8A
:10414000000100000100000000000000000000006D
:10415000000000000000000000000000000000005F
:10416000000000000000000000000000000000004F
:10417000000000000000000000000DFE01640000CF
:1041800065000000000000000000000000000000CA
:10419000000000000000000000000000000000001F
:1041A000000000000000000000000000000000000F
:1041B00000000000000000000000000601F4FE0105
:1041C0006400B8DD0C000D0D000D0E000D000000A8
:1041D00000000000000000000000000000000000DF
:1041E00000000000000000000000000000000000CF
:1041F00000000000000000000000000000000000BF
:1042000000000000000000000000000000000000AE
:104210000000000000000000000000000024010079
:10422000000000000000000000000000000000008E
:10423000000000000000000000000000000000007E
:10424000000000000000000000000000000000006E
:10425000000000000000000000000000000000005E
:10426000000000000000000000000000000000004E
:10427000000000000000000000000000000000003E
:10428000000000000000000000000000000000002E
:10429000000000000000000000000000000000001E
:1042A000000000000000000000000000000000000E
:1042B00000000000000000000000000000000000FE
:1042C00000000000000000000000000000000000EE
:1042D00000000000000000000000000000000000DE
:1042E00000000000000000000000000000000000CE
:1042F00000000000000000000000000000000000BE
:1043000000000000000000000000000000000000AD
:10431000000000000000000000000000000000009D
:10432000000000000000000000000000000000008D
:10433000000000000000000000000000000000007D
:104340000000000000000000000044806A0100003E
:10435000000000000000000000000000000000005D
:10436000000000000000000000000000000000004D
:10437000000000000000000000000000000000003D
:10438000000000000000000000000000000000002D
:10439000000000000000000000000000000000001D
:1043A000000000000000000000000000000000000D
:1043B00000000000000000000000000000000000FD
:1043C00000000000000000000000000000000000ED
:1043D0000044810000000000000000000000000018
:1043E00000000000000000000000000000000000CD
:1043F00000000000000000000000000000000000BD
:1044000000000000000000000000000000000000AC
:10441000000000000000000000000000000000009C
:10442000000000000000000000000000000000008C
:10443000000000000000000000000000000000007C
:10444000000000000000000000000000000000006C
:10445000000000000000000000000000000000005C
:10446000000000000000000000000000000000004C
:10447000000000000000000000000000000000003C
:10448000000000000000000000000000000000002C
:10449000000000E709F608DFFA8046E709F208DFC6
:1044A000FA803E88828C83E709F0A3DFFA8032E34A
:1044B00009F608DFFA8078E309F208DFFA807088ED
:1044C000828C83E309F0A3DFFA806489828A83E027
:1044D000A3F608DFFA805889828A83E0A3F208DF16
:1044E000FA804C80D280FA80C680D4806980F280C5
:1044F00033801080A680EA809A80A880DA80E280EB
:10450000CA803389828A83ECFAE493A3C8C582C83F
:10451000CCC583CCF0A3C8C582C8CCC583CCDFE9A9
:10452000DEE7800D89828A83E493A3F608DFF9EC45
:10453000FAA9F0EDFB2289828A83ECFAE0A3C8C5D0
:1045400082C8CCC583CCF0A3C8C582C8CCC583CCF7
:10455000DFEADEE880DB89828A83E493A3F208DF66
:10456000F980CC88F0EF60010E4E60C388F0ED2436
:1045700002B4040050B9F582EB2402B4040050AF39
:1045800023234582239044E373BB010689828A83F7
:10459000E0225002E722BBFE02E32289828A83E402
:1045A0009322BB010CE58229F582E5833AF583E08D
:1045B000225006E92582F8E622BBFE06E92582F8AC
:1045C000E222E58229F582E5833AF583E49322BB72
:1045D000010689828A83F0225002F722BBFE01F392
:1045E00022F8BB010DE58229F582E5833AF583E8DF
:1045F000F0225006E92582C8F622BBFE05E9258295
:10460000C8F222EF8DF0A4A8F0CF8CF0A428CE8DB4
:10461000F0A42EFE22BC000BBE0029EF8DF084FF1B
:10462000ADF022E4CCF875F008EF2FFFEE33FEEC8E
:1046300033FCEE9DEC984005FCEE9DFE0FD5F0E9B5
:10464000E4CEFD22EDF8F5F0EE8420D21CFEADF0B4
:1046500075F008EF2FFFED33FD4007985006D5F0B9
:10466000F222C398FD0FD5F0EA22E88FF0A4CC8B9C
:10467000F0A42CFCE98EF0A42CFC8AF0EDA42CFC18
:10468000EA8EF0A4CDA8F08BF0A42DCC3825F0FD57
:10469000E98FF0A42CCD35F0FCEB8EF0A4FEA9F050
:1046A000EB8FF0A4CFC5F02ECD39FEE43CFCEAA49C
:1046B0002DCE35F0FDE43CFC22EB9FF5F0EA9E4266
:1046C000F0E99D42F0E89C45F022E8600FECC3134E
:1046D000FCED13FDEE13FEEF13FFD8F122E8600F9F
:1046E000EFC333FFEE33FEED33FDEC33FCD8F122A4
:1046F000D083D082F8E4937012740193700DA3A359
:1047000093F8740193F5828883E47374029368606C
:10471000EFA3A3A380DF8A838982E473E3F5F00922
:10472000E208B5F06BDFF58067E3F5F009E608B560
:10473000F05EDFF5805A87F009E608B5F052DFF643
:10474000804E87F009E208B5F046DFF680428882A5
:104750008C8387F009E0A3B5F036DFF680328882DB
:104760008C8387F009E493A3B5F025DFF5802188D9
:10477000828C83E3F5F009E0A3B5F014DFF5801037
:1047800088828C83E3F5F009E493A3B5F002DFF4AB
:1047900002484B808780E9809080D4803E801580DD
:1047A0006E807E809D80B7808D80A38051807480D4
:1047B0003C02485789828A83ECFAE493F5F0A3C857
:1047C000C582C8CCC583CCE493A3C8C582C8CCC578
:1047D00083CCB5F076DFE3DEE1807089828A83E402
:1047E00093F5F0A3E208B5F062DFF4805E89828A77
:1047F00083E0F5F0A3E608B5F051DFF5804D89823E
:104800008A83E0F5F0A3E208B5F040DFF5803C894B
:10481000828A83E493F5F0A3E608B5F02EDFF480F6
:104820002A8002805789828A83ECFAE493F5F0A308
:10483000C8C582C8CCC583CCE0A3C8C582C8CCC5D6
:1048400083CCB5F006DFE4DEE280007FFFB5F00246
:104850000F2240027F012289828A83ECFAE0F5F080
:10486000A3C8C582C8CCC583CCE0A3C8C582C8CCC8
:10487000C583CCB5F0D5DFE5DEE380CF89828A83BE
:10488000ECFAE0F5F0A3C8C582C8CCC583CCE493AC
:10489000A3C8C582C8CCC583CCB5F0AFDFE4DEE2E7
:1048A00080A988F0EF60010E4E60ABED2402B404E5
:1048B000005098F582EB2402B40400508E23234567
:1048C000822390479373EF4E6012EF60010EEDBBB1
:1048D000010B89828A83F0A3DFFCDEFA2289F05083
:1048E00007F709DFFCA9F022BBFEFCF309DFFCA9F6
:1048F000F022FAE6FB0808E6F925F0F618E6CA3ACF
:10490000F622E53D2431F8E6053D22782E300D02F1
:104910007831E475F0011248F20245892006EB7FF8
:104920002ED2068018EF540F2490D43440D4FF3098
:104930000A0BEF24BFB41A0050032461FFE53E6068
:1049400002153E0541E54170020540300D0D782EFF
:10495000E475F0011248F2EF0245CF0250E1740312
:10496000D20D8003E4C20DF53D8B2E8A2F8930E4F1
:10497000F53EF540F541E53E60077F2012493D8058
:10498000F5753FFFC207C206C208C209C20BC20CBE
:10499000C20E12490BFF700D300D057F0012494EFB
:1049A000AF41AE4022B4255FC2D5C20A12490BFF07
:1049B00024D0B40A00501A75F00A783E30D50508A4
:1049C000B6FF0106C6A426F620D5047002D20980DF
:1049D000D924CFB41A00EF5004C2E5D20A024B4EDC
:1049E000D20780C6D20680C0D20880BCD2D580BA99
:1049F000D20B80B47F2012493D2008077401B53ED8
:104A00000040F1124902FF12493D024976D20ED20E
:104A10000C8095124902FB124902FA124902F94A26
:104A20004B7006791F7A4C7BFF20082EE53E602AEA
:104A30007E008E827583001245A260060EEE653FF1
:104A400070F0C2D5EBC0E0EAC0E0E9C0E0EE124B86
:104A500095D0E0F9D0E0FAD0E0FB124589FF60AADA
:104A6000EBC0E0EAC0E0E9C0E012493DD0E024013B
:104A7000F9D0E03400FAD0E0FBE53F0460DCD53F3C
:104A8000D980877BFF7A4B7991D208809C791080FE
:104A9000027908C20CC20E8008D2D5790A80047946
:104AA0000AC2D5E53F047002F53FE4FAFDFEFF12AD
:104AB0004902FC7B08200713124902FD7B103006D7
:104AC0000A124902FE124902FF7B20EC3382D59282
:104AD000D55013C3E43006069FFFE49EFEE4200792
:104AE000039DFDE49CFCE4CBF8C207EC700CCFCE38
:104AF000CDCCE824F8F870F38017C3EF33FFEE3322
:104B0000FEED33FDEC33FCEB33FB994002FB0FD899
:104B1000E9EB300705F8D0E0C448B207C0E00AEC82
:104B20004D4E4F78207B0070C2EAB53F0040BCC0BC
:104B3000E0124B97D0F0D0E0200704C4C0E0C4B22C
:104B400007C0F0124926D0F0D5F0EB0249761246A4
:104B5000F04A13534A8D5849E44C49E0424A914F78
:104B60004A99444A994949F9434A9F554A83464AD2
:104B700083454A83474C3F5049E82D49EC2E4A0F64
:104B80002B49F0234A0D204C282A49A84800004A06
:104B9000073F3F3F00790AA2D5200914300B09B91D
:104BA00010020404B9080104A2D5200C025001042B
:104BB0002008689208B53E005034C0E07F203009DC
:104BC000197F30A208720C720B500F124BEEC20804
:104BD000C20CC20BC20E7F30800F300B03E9C0E065
:104BE00012493D300B03D0E0F9D0E0B53ECC300B9C
:104BF000177F30B9100C12493D7F58300A077F7873
:104C00008003B9080312493D3008057F2D02493D54
:104C10007F20200EF87F2B200CF322920880CF28D3
:104C20006E756C6C2900D2071249023007F8C20772
:104C3000783E30D50108F60249A82D504349581254
:104C400049022403B405004001E4904C3A93124910
:104C50002E743A12492ED209753E04024A8D02750D
:104C600000000177000178004304DB0000004304EA
:104C7000DE0000004304E10000004304E400000003
:104C80004104E7034104E8004204D601F44204D899
:104C900000004104DA08C1A6011F3B011E01031BED
:104CA0000000004604EF0000000000004604E90098
:104CB0000000000000C1274304C60000004304C9EF
:104CC0000000004304CC0000004304D300000001B6
:104CD0006E01016B004304D0000000016D00016A09
:104CE000004204C400004104CF0A4104C300016C27
:104CF0000002540000C11E4104C20001561FC19FA2
:104D0000015700015800C1A0015900015A00015B80
:104D100000015C00015D00015E00C1A1015F0001B6
:104D2000600001610001620001630001640001652F
:104D30000001660001670001680001690042033D4F
:104D40000000C11CC1194202A3000042033F000041
:104D5000C11B011100C11DC11A0112000113006025
:104D6000810341000000000000000000000000007E
:104D70000000000000000000000000000000000033
:104D80000000000000000000000000000000000023
:104D90000000000000000000000000000000000013
:104DA0000000000000000000000000000000000003
:104DB00000000000000000000000000000000000F3
:104DC00000000000000000000000000000000000E3
:104DD00000000000000000000000000000000000D3
:104DE00000000000011000010800010900010A0094
:104DF000010B00010C00010D00020E0000C118C1E2
:104E000097018C00C196C1150273000042050A008B
:104E1000004205080000016F00017000C10FC110C1
:104E2000C111017100C112C113C114017200410509
:104E30000702410504004205010003410503004249
:104E4000050500004704F7000000000000004104D1
:104E5000FE0A4104FF0841050000027E00000180B7
:104E600000C125C124018100027A000001830001F4
:104E70008200027C00000179004204F50000C1229A
:104E8000000A3E3E3D3D3DCAB1BCE4B4C13D3D3D9E
:104E90003C3C0A20202020323025642F253032640B
:104EA0002F253032642D57253031640A0020202010
:104EB0002020202020253032643A253032643A25E3
:104EC0003032640A0074696D655A6F6E655F483AE6
:104ED000253032642E0A00000000000000000000AF
:104EE00000000000000000000000000000000000C2
:104EF00000000000000000000000000000000000B2
:104F000000000000000000000000000000000000A1
:104F10000000000000000000000000000000000091
:104F20000000000000000000000000000000000081
:104F30000000000000000000000000000000000071
:104F40000000000000000000000000138800007452
:104F50006F756368506164207370656369616C206C
:104F6000747269673A6E776B4F70656E3A253032AE
:104F700064732E0A00746F7563685061643A25305B
:104F800032582C2073686F727450726573732E0AD6
:104F900000746F7563685061643A253032582C2074
:104FA000636E7450726573732E0A00746F75636854
:104FB0005061643A253032582C206C6F6E67507205
:104FC0006573735F412E0A00746F75636850616486
:104FD0003A253032582C206C6F6E675072657373AF
:104FE0005F422E0A00746F7563685061643A253021
:104FF00032582C202530325874696D6520707265E6
:1050000073734F7665722E0A00000A0BB82710EAF8
:105010006000140BB82710EA60787FE4F6D8FD75BD
:10502000818C025060023431E493A3F8E493A340EE
:1050300003F68001F208DFF48029E493A3F8540713
:10504000240CC8C333C4540F4420C8834004F4560E
:10505000800146F6DFE4800B010204081020408046
:10506000904C5EE47E019360BCA3FF543F30E509A1
:10507000541FFEE493A360010ECF54C025E060A846
:1050800040B8E493A3FAE493A3F8E493A3C8C582D9
:10509000C8CAC583CAF0A3C8C582C8CAC583CADF47
:1050A000E9DEE780BE7A6967624E776B20436C6FFA
:1050B00073652E0A001F0000000000140A1F1F0065
:1050C000001F000A080010001F00101F001F0A0028
:1050D00000001F000A1F00C80403030101050400AB
:1050E00080EFB40A07740D1250EC740A309811A8BE
:1050F00099B8130CC2983098FDA899C298B811F6C7
:105100003099FDC299F599220000000000000000CE
:10511000000000000000000000000000000000008F
:10512000000000000000000000000000000000007F
:10513000000000000000000000000000000000006F
:10514000000000000000000000000000000000005F
:10515000000000000000000000000000000000004F
:10516000000000000000000000000000000000003F
:10517000000000000000000000000000000000002F
:10518000000000000000000000000000000000001F
:10519000000000000000000000000000000000000F
:1051A00000000000000000000000000000000000FF
:1051B00000000000000000000000000000000000EF
:1051C00000000000000000000000000000000000DF
:1051D00000000000000000000000000000000000CF
:1051E00000000000000000000000000000000000BF
:1051F00000000000000000000000000000000000AF
:10520000000000000000000000000000000000009E
:10521000000000000000000000000000000000008E
:0B522000000000000000004E201460A1
:00000001FF
