:10000000024E0F756D067F0F023000020800438E0E
:10001000805389F0758A50758CFBC28DD2A9C2B904
:10002000D28C22022D438B268A2789288C298D2A5F
:1000300078437C017D017BFF7A41799E7E007F6061
:10004000124390C202AB26AA27A9281243B624560F
:10005000604E24DE6002C1A3D202E92407F9E43A2B
:10006000FA78E97C047D017E007F061243909003BC
:1000700055E024F3FFE434FFFEAB26E528240DF918
:10008000E43527FAC003C002C001E5282401F9E4E1
:100090003527A801FCAD03D001D002D00312439054
:1000A000C203C204C205AB26E5282405F9E43527BE
:1000B000FA7D1C1217D1AB26AA27A928900004129A
:1000C00043CFB50702D204E5282405F9E43527A873
:1000D00001FCAD267B017A0479F07E007F05124693
:1000E000BEEF7002D205AB26AA27A9289000031202
:1000F00043CFFFB43904D205800BEF64146004EFE2
:10010000B41902D204300405300402D203200302E1
:10011000C1A3C204C2057531FF75323875338275CB
:1001200034008F357B017A01790112477A7B017A9D
:100130000179011235907E007F607D007B017A019C
:1001400079431246E2AB26AA27A92890000312435E
:10015000CF12450C01F010062E1103C414062E1503
:10016000062E16026617027D1802941903761A03EA
:100170008E1B03BF1F03BB22018E39051741058A61
:100180004205B843060244062E500000062C3026D5
:1001900002C12E12327A900141EEF0A3EFF09001ED
:1001A00041E0FCA3E0FDEC900151F0A3EDF0AB26A3
:1001B000AA27A92890000C1243CF9004FFF09000CA
:1001C0000D1243CF900500F07B017A0479FF75335F
:1001D000007534017F037E001231BF7B017A0579FF
:1001E000007533007534017F047E001231BF8070CA
:1001F000E490014EF0AB26AA27A92890000B1243E9
:10020000CFFF540790014EF0EF5401FF900504E03A
:10021000FE54016F600990014EE04420F0802D9063
:10022000000B1243CFFC5402FDEE54026D600990A6
:10023000014EE04440F08014EC5404FF900504E0CB
:1002400054046F600790014EE04480F0AB26AA276B
:10025000A92890000B1243CF900501F0A37402F07F
:10026000D204C205C12E752C01D2267B007A0079FA
:100270002C7533007534017F057E008012E4F52C67
:10028000C226FB7A00792CF5337534017F05FE1206
:1002900031BFC12EAB26AA27A92890000D1243CF4B
:1002A0002460601114605C14607E1470026131245B
:1002B000A360026162E4F52C7B017A017951F53B80
:1002C000753C0C7F10FE12342BE4F52C74017E007B
:1002D000A82C088005C333CE33CED8F9FF7880E64A
:1002E000FDEF5D6013E52C75F003A42451F582E465
:1002F0003401F583E05480F0052CE52CB404CDD214
:1003000005805F787AE6FE08E6FF4E7002800C7C7E
:10031000007D3C124442C37883E69F900151F078FF
:1003200082E6900152F0803A7879E6900151F080AF
:10033000317B017A017951753B00753C067F227E45
:100340000012342B90014FE03026054401F0800369
:1003500054FEF090014FE03023054402F080035436
:10036000FDF0AB26AA27A92890000D1243CF9001DB
:1003700050F0D204C12EE4F52CFB7A00792CF53B29
:10038000753C017F22FE12342B532C808016E4F53D
:100390002CFB7A00792CF53B753C017F22FE123450
:1003A0002B432C7F7B007A00792C75330075340148
:1003B0007F227E001231BFD204C12ED204C12E1280
:1003C00033A3C12EE4F52CAB26AA27A92890000D53
:1003D0001243CF245F7002817B14700281AF1470CE
:1003E0000281FB24036002A113E4F52CAB26AA27AB
:1003F000A92875F003E52CA4240EF582E435F0F568
:10040000831243CF64807056AF2C04A80708800283
:10041000C333D8FC788046F6AB2675F003E52CA4F0
:10042000240EF582E435F0F583E5282582F9E527E9
:100430003583FAC003C002C0011243B6FFAA27A940
:100440002890001F1243CF14FE7401A806088002F2
:10045000C333D8FC4FD001D002D0031243FC052C8B
:10046000E52C64047086AB26E528240EF9E43527D4
:10047000FA75330075340C7F10A10EAB26AA27A99C
:100480002890000E1243CFFF78816014E64402F6F4
:100490007883A60790000F1243CF7882F6E4800895
:1004A000E654FDF6E47883F6787AF608F68064ABD5
:1004B00026AA27A92890000E1243CFFF7881600B4F
:1004C000E64401F67879A607E48008E654FEF6E4EF
:1004D0007879F6787CF608F67B007A0079817533B6
:1004E000007534017F207E001231BF7B007A0079D5
:1004F000797533007534017F218013AB26E52824FC
:100500000EF9E43527FA7533007534067F227E0034
:100510001231BFD204C12EE4F52CAB26AA27A9289C
:1005200090000C1243CFF52DE4F52CAF2CE52DA84F
:1005300007088002C313D8FC30E042E52CFD7C00A4
:100540002406FFEC33FEED240EFDEC33FCAB26E578
:10055000282DF9E5273CFA7533007534011231BFB7
:10056000740E252CF582E433F583AB26AA27A9283F
:100570001243CFFF741B252CF8A607D21C052CE5CF
:100580002CC3940340A5D204C12EE4F52CF52CE530
:100590002C2406FFE433FE7451252CF9E43401FACF
:1005A0007B01753B00753C0112342B052CE52CC3F7
:1005B000940340DBD2048076AB26E528240EF9E4D0
:1005C0003527FA7533007534017F307E001231BF54
:1005D000AB26E528240FF9E43527FA753300753486
:1005E000017F317E001231BFAB26AA27A9289000D7
:1005F0000E1243CFF56E90000F1243CFF56BD2046D
:10060000802C7B017A017951753B00753C017F306C
:100610007E0012342B7B017A017952753B00753CC8
:10062000017F317E0012342BD2048002C2043004D8
:1006300072E4F52CC204A2029206752E01752F01F8
:1006400075304375312175320AAB26AA27A9289047
:1006500000031243CFF533A205920712169C8F2C8C
:100660007511019002EFE529F0A3E52AF09002EE62
:10067000E52BF07E007F487D007B017A0279A51290
:1006800046E2AF2C7E0078A57C027D017B017A01D9
:1006900079431243909002EDE52CF0E4900339F099
:1006A00075100422E4F525F526F527123729EF7099
:1006B00002E154201223D212904E0DE493FF7401F4
:1006C0009390050ACFF0A3EFF09005087401F0A312
:1006D000745EF01237298F7122123729EF6571602D
:1006E00002E1E790050AE0FEA3E0FFC3904E0D741F
:1006F00001939FF527E4939EF526C3904E0974015C
:10070000939527E4939526501BC3904E0B74019349
:100710009527E4939526400C201309D2137D04AF4E
:1007200071122800C3904E0B7401939527E49395A2
:10073000264002E1E7C3904E0D7401939527E493A0
:1007400095265002E1E7301402E1E7D2147D05AFAF
:100750007102280030125C90050AE0FEA3E0FFC39E
:10076000904E0D7401939FF527E4939EF526C39058
:100770004E077401939527E49395265036C3904E07
:10078000097401939527E49395264027900508E086
:100790007002A3E060020572E572D3940150047DFB
:1007A0000280027D03AF711228007B037D327F033C
:1007B000122FDB900508E07002A3E0701DE5726067
:1007C00019F525E4F572E525C39402400AAD25AF7D
:1007D00071123220E4F525E4F571C213C214E490DD
:1007E000050AF0A3F0C2122253911F53921F539394
:0F07F000FB5394FB2092069005077401F0222220
:10080000C0E0C0F0C083C082C0D075D000C000C0BE
:1008100001C002C003C004C005C006C007902FFD80
:10082000E493FFE577C39F500405778076757700E2
:100830009002A3E07002A3E0600E9002A4E024FF07
:10084000F09002A3E034FFF030150A0574E57470EF
:100850000A0573800675730075740090050AE070D0
:1008600002A3E0600E90050BE024FFF090050AE083
:1008700034FFF0900508E07002A3E0600E900509D7
:10088000E024FFF0900508E034FFF09004C4E0702D
:1008900002A3E0600E9004C5E024FFF09004C4E0E1
:1008A00034FFF0D3902FFB7401939576E493957504
:1008B000400A0576E57670020575218A7575007522
:1008C0007600201B10E511C3940650040511800525
:1008D000751100D21B7881E6FB30E1417883E6FF99
:1008E0007E007C007D3C124430C3787BE69F18E696
:1008F0009E50090806E6187024068021787A760052
:10090000087600EB54FD7881F69005027402F078C9
:1009100082E6900501F0900505E04401F07881E65B
:1009200030E03F900504E060397879E6FF7E007C96
:10093000007D3C124430C3787DE69F18E69E500946
:100940000806E618701C068019787C760008760088
:100950009005027402F0900501E4F0900505E04472
:1009600001F0787F06E6187001069004CFE060027F
:1009700014F09004FEE0600214F09004C3E0600202
:1009800014F0900340E0600214F0301A3AE512C30C
:10099000940A50040512802F201D2AD21D7E007F4C
:1009A000807DFF7B017A0379411246E278417C0326
:1009B0007D017B017A0379C27E007F801243909093
:1009C00003C1E513F0C21A9004E7E0FFA3E0C39F60
:1009D0005005E004F041819004E8E4F0E56C24FE69
:1009E0006048147002417024026002417F9004D07C
:1009F000E054079004E7F0FD9004D1E075F014A4F2
:100A0000FFAEF07C001244429004D6EEF0A3EFF06B
:100A10009004D2E0541F25E09004DAF09004D8E46A
:100A2000F0A3F0D225756C0280579004DAE0603BA9
:100A30009004D6E0FEA3E0FFC39004D9E09F9004A9
:100A4000D8E09E5017A3E004F070069004D8E004AC
:100A5000F0302504B2B28029D2B280259004D8E4C7
:100A6000F0A3F0B225A3E014F08016756C0380119A
:100A70009004D8E4F0A3F0D225D2B2F56C8002D273
:100A8000B2902FFEE493FFE578D39F500261487542
:100A900078009004C6E0541FFF9004DBE054E04F60
:100AA000F09004C7E0541FFF9004DCE054E04FF0E6
:100AB0009004C8E0541FFF9004DDE054E04FF09034
:100AC00004C9E0541FFF9004DEE054E04FF09004AE
:100AD000CAE0541FFF9004DFE054E04FF09004CBD5
:100AE000E0541FFF9004E0E054E04FF09004CCE0AD
:100AF000541FFF9004E1E054E04FF09004CDE05427
:100B00001FFF9004E2E054E04FF09004CEE0541F49
:100B1000FF9004E3E054E04FF09004D3E0541FFF53
:100B20009004E4E054E04FF09004D4E0541FFF90B0
:100B300004E5E054E04FF09004D5E0541FFF90042A
:100B4000E6E054E04FF081A40578E578D3940040C6
:100B50006DE578D3942050669004DBE0FF541F606D
:100B60000EEF54E0FEEF14541F4EF0C2A08002D2EC
:100B7000A09004DEE0FF541F600EEF54E0FEEF147F
:100B8000541F4EF0C2A68002D2A69004E1E0FF54AA
:100B90001F600EEF54E0FEEF14541F4EF0C2818030
:100BA00002D2819004E4E0FF541F600EEF54E0FE97
:100BB000EF14541F4EF0C2CD81A4D2CD81A4E578AC
:100BC000D39420406DE578D3944050669004DCE0E7
:100BD000FF541F600EEF54E0FEEF14541F4EF0C29E
:100BE000A18002D2A19004DFE0FF541F600EEF54F9
:100BF000E0FEEF14541F4EF0C2A58002D2A590046F
:100C0000E2E0FF541F600EEF54E0FEEF14541F4E5D
:100C1000F0C2808002D2809004E5E0FF541F600E95
:100C2000EF54E0FEEF14541F4EF0C2CC8076D2CCCD
:100C30008072E578D39440406BE578D3946050643B
:100C40009004DDE0FF541F600EEF54E0FEEF1454FB
:100C50001F4EF0C2A28002D2A29004E0E0FF541F17
:100C6000600EEF54E0FEEF14541F4EF0C2A4800259
:100C7000D2A49004E3E0FF541F600EEF54E0FEEFB7
:100C800014541F4EF0C2A78002D2A79004E6E0FFE2
:100C9000541F600EEF54E0FEEF14541F4EF0C28359
:100CA0008002D283D007D006D005D004D003D00272
:100CB000D001D000D0D0D082D083D0F0D0E032E4C8
:100CC000F52578007C007D017BFF7A4D7955FE7F0C
:100CD0000C124390780C7C007D017BFF7A4D79618A
:100CE0007E007F06124390904D67E493FE7401935B
:100CF000FFC39004F6E09F9004F5E09E500EA3E041
:100D000004F070239004F5E004F0801BE49004F5F7
:100D1000F0A3F078267C00FD7B017A0479F7FE7F52
:100D200007124390122CAC202228D2227B007A009A
:100D30007981753B00753C017F207E0012342B7B4E
:100D4000007A007979753B00753C017F217E0012A5
:100D5000342B787EE6FA08E6FB7C007D3CFFAE0291
:100D60001244429004FCEFF07C007D3CAF03AE02E5
:100D7000124442A3EDF0C3787FE6941018E6940E77
:100D8000402DE4787EF608F69004FBE0C39418400A
:100D900004E4F080069004FBE004F09004F9E0D352
:100DA000940740057401F080069004F9E004F07B9C
:100DB000017A00790C1226ED90000CE0FF547FFEC2
:100DC000BE7F04D223806EEF30E76890000DE01301
:100DD0001313541FFF7E007C007D3C124430A3E0BF
:100DE0002FFBEC3EFA9004FBE0FF7E00124430A3A0
:100DF000E0F92FFFEC3EFED3EF9BEE9A40319000DE
:100E000010E0131313541FFF7E00124430A3E02F91
:100E1000FBEC3EFA9004FBE0FF7E00124430E92F29
:100E2000FFEC3EFED3EF9BEE9A5004D2238006C225
:100E3000238002C2237B017A0079001225FF9000F3
:100E400000E020E718900003E020E711900006E0A2
:100E500020E70A900009E020E703C22422D224E41C
:100E6000F525E52575F003A42400F582E43400F5AA
:100E700083E0547FFD9004F9E0FF1236224002E146
:100E8000F4E52575F003A42400F582E43400F5832D
:100E9000E0C4131313540120E002E1F4E52575F0DA
:100EA00003A42401F582E43400F583E01313135402
:100EB0001FFF7E007C007D3C124430E52575F00369
:100EC000A42402F582E43400F583E02FFBEC3EFA23
:100ED0009004FBE0FF7E00124430A3E02FFFEC3EC5
:100EE000FEEF6B7002EE6A7077A3E0D3940AE4948D
:100EF00000506D74017E00A825088005C333CE33F1
:100F0000CED8F9FF7880E6FDFBEF5B602EAF25744D
:100F100001A807088002C333D8FCF45D7880F6E5A9
:100F20002575F003A42410FFE435F0FE7BFF7A4D15
:100F300079697533007534011231BF90050274026E
:100F4000F0E52575F003A42401F582E43400F5836F
:100F5000E05407900501F0900505E04401F0E1F44C
:100F6000E52575F003A42401F582E43400F583E05F
:100F7000131313541FFF7E007C007D3C124430E5A8
:100F80002575F003A42402F582E43400F583E02FF4
:100F9000FBEC3EFA9004FBE0FF7E00124430A3E03D
:100FA0002FFFEC3EFED3EF9BEE9A404874017E008B
:100FB000A825088005C333CE33CED8F9FF7880E664
:100FC000FDFBEF5B602EAF257401A807088002C30C
:100FD00033D8FCF45D7880F6E52575F003A4241081
:100FE000FFE435F0FE7BFF7A4D796A753300753486
:100FF000011231BF0525E525C394045002C16222C8
:1010000078417C007D017BFF7A4279007E007F6021
:1010100012439078A17C007D017BFF7A4279607E4B
:10102000007F601243909004FEE07006740AF01294
:1010300024F6E51024FE7002615C147002616314F2
:101040007002616B147002616E240460026174901E
:10105000033DE0FF30E002617B30170FC217C2048E
:101060007F0C7E647DFE7C221221D8E56DB40603E0
:101070001237B5301B66C21BB21890004174ABF03A
:10108000A3740EF0301806A37422F080069000437B
:101090007423F078457C007D017B017A0479F07E31
:1010A000007F05124390E49002EFF0A3F09002EE6F
:1010B000740DF07E007F487D007B017A0279A512D5
:1010C00046E278A57C027D017B017A0079417E00B1
:1010D0007F0E1243909002ED740E2177900505E08B
:1010E000FF20E002218DD200C201E4900040F0EF29
:1010F00054FE900505F0A3E090004CF07531FF75AB
:101100003238753393753400F5357B017A007900F8
:1011100012477A7B017A007900123590A20092067C
:10112000752E01752F0075304175312175320A75A4
:101130003310A201920712169C900040EFF0E49049
:1011400002EFF0A3F09002EE740DF07E007F487D78
:10115000007B017A0279A51246E2900040E0FF7E12
:101160000078A57C027D017B017A007941124390D1
:10117000900040E09002EDF0E4900339F075100427
:10118000FE7F60FD7B017A0079410246E290050313
:10119000E070024145E5106401600241457884F643
:1011A0007884E6FFC394034002414574017E00A8A1
:1011B00007088005C333CE33CED8F9FF900503E08E
:1011C000FDFBEF5B607A7884E6FC7401A80408807C
:1011D00002C333D8FCF45D900503F0900504E0FFF2
:1011E000A804088002C313D8FC5401900041F07891
:1011F00084E6241BF8E6FFD394104044EF94FF509C
:101200003F74FF9002EFF0A3F09002EEEFF07E004B
:101210007F487D007B017A0279A51246E278A57CA1
:10122000027D017B017A0079417E007F01124390AB
:101230009002ED7401F0E4900339F075100480051C
:1012400078840621A07E007F607D007B017A007992
:10125000411246E2201D026182C21D900341E064FA
:10126000FE6002618278437C037D017BFF7A4179D5
:10127000FEFE7F021246BEEF60026182900349E0EB
:10128000FDA3E07885F6ED08F6A3E008F6A3E008F4
:10129000F6E4F56AFE7F60FD7B017A0079A11246D3
:1012A000E2900355E0FF7E0078A17C007D017B0188
:1012B0007A0379561243907887E6FFD394104065FD
:1012C000EF94FF5060900504E0F525E6B51B13E5AB
:1012D0001B600F9005027402F05325FE9000A1E000
:1012E00080357887E6FDB51C15E51C601190050278
:1012F0007402F05325FD9000A1E025E08019EDB5C2
:101300001D1BE51D60179005027402F05325FB902C
:1013100000A1E025E025E04525900501F0900505B8
:10132000E04401F0227887E624F36010146024245E
:1013300002704F7B017A0079A10235C67885E6FC00
:1013400008E6FD4C703C7B017A0079A108E6F52B9C
:101350000200267B017A0079A1022388756A03D2F4
:10136000028005756A02C202021800022000756A36
:10137000040229D390033DE030E00754FEF0A3E0DF
:10138000F510229004C4E0FEA3E04E707B9004C4EC
:10139000F0A37406F090500CE493FFE564D39F40F3
:1013A0001CE4F564E565D394074005E4F565800227
:1013B0000565E4F569F568F567F566804B0564E554
:1013C00064C394004009E56494205003856466E595
:1013D00064C39420400CE56494405006E56424E026
:1013E000F567E564C39440400CE56494605006E5FD
:1013F0006424C0F568E564C39460400CE56494809F
:101400005006E56424A0F569E565B407004002C113
:101410009B90141725E07381258160818B81E0A169
:1014200019A156A1D3E56675F00584541FFF9004F9
:10143000D4E054E04FF0E56775F00584541FFF9049
:1014400004CDE054E04FF0E56875F00584541FFFCB
:101450009004CAE054E04FF0E56975F005848078A7
:10146000E566541FFF9004D3E054E04FF0E5675465
:101470001FFF9004CCE054E04FF0E568541FFF904C
:1014800004C9E054E04FF0E569A14EE56675F0054A
:1014900084FFC374069F541FFF9004D4E054E04FB0
:1014A000F0E56775F00584FFC374069F541FFF9035
:1014B00004CDE054E04FF0E56875F00584FFC37497
:1014C000069F541FFF9004CAE054E04FF0E5697591
:1014D000F00584FFC374069F541FFF9004C7C19694
:1014E000E566C313541FFF9004D5E054E04FF0E5C8
:1014F00067C313541FFF9004CEE054E04FF0E5683B
:10150000C313541FFF9004CBE054E04FF0E569C3D0
:1015100013541FFF9004C8C196C3741F9566541FCF
:10152000FF9004D3E054E04FF0C3741F9567541F3D
:10153000FF9004CCE054E04FF0C3741F9568541F33
:10154000FF9004C9E054E04FF0C3741F9569541F25
:10155000FF9004C6C196E56675F00384541FFF90A2
:1015600004D4E054E04FF0E56775F00384541FFFA6
:101570009004CDE054E04FF0E56875F00384541F0B
:10158000FF9004CAE054E04FF0E56975F00384541D
:101590001FFF9004C7E054E04FF0E566C313541FEB
:1015A000FF9004D3E054E04FF0E567C313541FFFEE
:1015B0009004CCE054E04FF0E568C313541FFF9053
:1015C00004C9E054E04FF0E569C313541FFF9004D1
:1015D000C6C196E566C313FFC3740F9F541FFD90E9
:1015E00004D5E054E04DF0E567C313FFC3740F9FCB
:1015F000541FFC9004CEE054E04CF0E568C313FFA8
:10160000C3740F9F541FFB9004CBE054E04BF0E5F4
:1016100069C313FFC3740F9F541FFF9004C8E054A5
:10162000E04FF0E56675F00384FEC3740A9E541F14
:10163000FE9004D4E054E04EF0E56775F00384FEBC
:10164000C3740A9E541FFE9004CDE054E04EF0E5B2
:101650006875F00384FEC3740A9E541FFE9004CA8A
:10166000E054E04EF0E56975F00384FEC3740A9E11
:10167000541FFE9004C7E054E04EF09004D3E054B1
:10168000E04DF09004CCE054E04CF09004C9E054FC
:10169000E04BF09004C6E054E04FF022AB2EAA2FAE
:1016A000A930900002E53212440E900003E5331297
:1016B000440E20070EAB2EAA2FA93090000AE51F7A
:1016C00012440EE5302405F9E4352FA801FCAD2EB7
:1016D0007B017A0479F07E007F05124390AB2EE502
:1016E000302405F9E4352FFA7D1C1217D1AB2EAA50
:1016F0002FA930900004EF12440E200602E1B578C5
:10170000A37C017D017BFF7A3879A67E007F4012A1
:101710004390AB2EAA2FA93074CC1243FCE53124A0
:101720000CAB2EAA2FA93090000112440EE53124F3
:10173000F3FFE434FFFEE92401F9E43AFA78A37CEC
:10174000017D01124390E53124FFFFE434FFFE7D6B
:1017500000AB2EE5302401F9E4352FFA1246E2E51C
:101760003124F3FFE434FFFEE530240DF9E4352F96
:10177000A801FCAD2E7B017A0179A3124390E530DC
:101780002401F9E4352FA801FCAD2E7B017A047900
:10179000E97E007F06124390E5302408F9E4352FF6
:1017A000A801FCAD2E7B017A0479F07E007F051242
:1017B00043907F2D22AB2EAA2FA93074AA1243FC8E
:1017C000AB2EAA2FA930900001E53112440E7F21E3
:1017D000228B348A358936E4FFFEEFC39D5013AB6C
:1017E00034AA35A9368F827583001243CF2EFE0F9F
:0E17F00080E86306FF6306A7AF0622A28222EE
:1018000078017C017D017BFF7A3F79FA7E007F4081
:10181000124390E4F52690033DE0FF30E01154FEC2
:10182000F0A3E0F510E4F508F509F50AD2A322E5E6
:1018300008D3940F4016E4F508F509F50AD2A390F1
:1018400004FE740AF0751001756D0322200207E58D
:10185000087003750807E50864076004E50870066A
:101860009004FE740AF0E5087073E508600241E830
:10187000E50914601514602E2402600241E8C2A339
:101880009002A3E4F0A374C8418C9002A3E070021C
:10189000A3E0600241E8D2A39002A37417F0A374FE
:1018A00070F0750902229002A3E07002A3E07002BA
:1018B000F509201D0241E8C21D7549FF754A3A75B8
:1018C0004BF2903B32E493F54C7B017A0379417DF6
:1018D00080122E60EA494B700241E841E1E508D3ED
:1018E0009400500221B6E5089409400221B6E509AA
:1018F00014607404600241E8E50AD3940240024196
:101900004EE50875F086A4FFAEF024AFF9743A3EB8
:101910007548FFF549894A754B0274B12FF9743A3D
:101920003E754CFFF54D894E75F086E508A424F10F
:10193000F582E5F0343AF583122AB48F267B017ADA
:10194000017901AD2612367275F086E508A42433BC
:10195000F582E5F0343BF583E493FF740193900244
:10196000A3CFF0A3EF418C9002A3E07002A3E0703C
:1019700002419B201D0241E8C21DE50875F086A4C6
:1019800024F2F9743A35F07549FFF54A894B75F040
:1019900086E508A42432F582E5F0343BF583E49330
:1019A000F54C7B017A0379417D80122E60EA494B28
:1019B000700241E841E1E508C39409500241E8782A
:1019C000277C007D007BFF7A40793A7E007F1012F1
:1019D0004390903FA7E493FF7E0078277C007D0032
:1019E0007BFF7A3F7967124390E508C3940C502F30
:1019F000E50875F003A424D6F582E4343FF583E4CA
:101A000093F527E50875F003A424D7F582E4343F65
:101A1000F583E493FE740193F52AEEF52B801E7492
:101A20000F2508F8E6FFC39410400FEF94FF500A0B
:101A30008F27752A0DE4F52B8003050822E509148C
:101A4000604F04600241E8E50AD394024006E4F5E1
:101A50000AF508227548FF75493F754A65754B02BE
:101A6000754C00754D00754E27903FA7122AB48F14
:101A7000267B017A017901AD26123672903FE9E4A6
:101A800093FF7401939002A3CFF0A3EFF0750901C7
:101A9000229002A3E07002A3E07005050AF5092276
:101AA000301D45C21D7549FF754A3F754BA8903FD3
:101AB000E8E493F54C7B017A0379417D80122E6036
:101AC000EA494B701C7549FF754A3F754BEB754CE5
:101AD000067B017A0379417D80122E60EA494B60D2
:101AE00007E4F509F50A050822302305756D048021
:101AF0001BE56DB404031237B59004CFE0700DE51B
:101B00006DB403087F0F123000756D02E56D14B4DB
:101B100007004002A15B901B2025E0500205837363
:101B2000A15E612E61316131A146A153A15802131A
:101B300083E51E30E06C900504E030E02CE56E7526
:101B4000F003A424E4F582E4344FF583E493541FB6
:101B5000FDE56E75F003A424E5F582E4344FF583CA
:101B6000E493541FFBE56E802AE56B75F003A42413
:101B7000E4F582E4344FF583E493541FFDE56B757F
:101B8000F003A424E5F582E4344FF583E493541F75
:101B9000FBE56B75F003A424E6F582E4344FF5838E
:101BA000800F904FE1E493541FFDA3E493541FFB77
:101BB000A3E493541FF528E4FF1230EAE51E30E158
:101BC0006C900504E030E12CE56E75F003A424E48C
:101BD000F582E4344FF583E493541FFDE56E75F010
:101BE00003A424E5F582E4344FF583E493541FFB0A
:101BF000E56E802AE56B75F003A424E4F582E434F5
:101C00004FF583E493541FFDE56B75F003A424E5C1
:101C1000F582E4344FF583E493541FFBE56B75F0D4
:101C200003A424E6F582E4344FF583800F904FE15E
:101C3000E493541FFDA3E493541FFBA3E493541FA8
:101C4000F5287F011230EAE51E30E26C900504E0D1
:101C500030E22CE56E75F003A424E4F582E4344F01
:101C6000F583E493541FFDE56E75F003A424E5F5B8
:101C700082E4344FF583E493541FFBE56E802AE53C
:101C80006B75F003A424E4F582E4344FF583E49308
:101C9000541FFDE56B75F003A424E5F582E4344F91
:101CA000F583E493541FFBE56B75F003A424E6F57C
:101CB00082E4344FF583800F904FE1E493541FFD8D
:101CC000A3E493541FFBA3E493541FF5287F02124F
:101CD00030EAD39050027401939555E493955440A3
:101CE000090555E5557002055422B21EE4F554F578
:101CF00055E56A14601514601A14602014602F24CE
:101D000004703FE4F5287B1EFD8021E4F528FB7D6F
:101D10001E8019E4F5287B0A7D1E8021E4301E0810
:101D2000F5287B0A7D1E8004F528FBFD800FE4303A
:101D30001E07F528FB7D1E8004F528FBFD7F0302AE
:101D400030EAE4F56A229004C3E060047F01800574
:101D50000237B5E4FF021D5F021F40756D0322AD1F
:101D600007E55E701D20211A90500B93FFE55FC3BD
:101D70009F5004055F800BE4F55FF563F562F56144
:101D8000F560E55E7004D2218009E55ED394504091
:101D900002C2219004C4E07002A3E07075AF5E201F
:101DA0002104155E8002055EEF541FFF905009E488
:101DB00093FEEF8EF084FFA3E493FEEF8EF0A4FF7A
:101DC0009004C4E5F0F0A3EFF0E55EC39400400991
:101DD000E55E94205003855E60E55EC39410400C80
:101DE000E55E94305006E55E24F0F561E55EC3944F
:101DF00020400CE55E94405006E55E24E0F562E587
:101E00005EC39430400CE55E94505006E55E24D0ED
:101E1000F563ED147002C1AB046002E13FE55F6061
:101E200002E13F302154E55EC3942E5015E55E7506
:101E3000F00F84E5F0D3940A9004D5E05002C1CEAF
:101E4000E107E55ED3942D40079004D5E0441FF0F0
:101E5000E55ED3943240079004CEE0441FF0E55E87
:101E6000D3943C40079004CBE0441FF0E55ED3944C
:101E7000465002E13F9004C8E106E563541FFF901D
:101E800004D5E054E04FF0E562541FFF9004CEE02B
:101E900054E04FF0E561541FFF9004CBE054E04F55
:101EA000F0E560541FFF9004C8E13AE55F6002E18D
:101EB0003F302157E55EC3942E5017E55E75F00F55
:101EC00084E5F0D3940A9004D5E04002803954E0D0
:101ED000F022E55ED3942D40079004C8E0441FF043
:101EE000E55ED3943240079004CBE0441FF0E55EFA
:101EF000D3943C40079004CEE0441FF0E55ED394B9
:101F000046403C9004D5E0441FF022E563541FFF97
:101F10009004C8E054E04FF0E562541FFF9004CBFA
:101F2000E054E04FF0E561541FFF9004CEE054E030
:101F30004FF0E560541FFF9004D5E054E04FF022CD
:101F40009004C2E014601C147002E1CC2402600210
:101F5000E1D89004C47403F0A374E8F09004C27450
:101F600001F0229004C4E0FEA3E0FF4E60487C0034
:101F70007DC7124442D3ED9463EC9400401BA3E070
:101F8000441FF09004C9E0441FF09004CCE0441FCB
:101F9000F09004D3E0441FF0229004C6E054E0F037
:101FA0009004C9E054E0F09004CCE054E0F09004D8
:101FB000D3E054E0F0229004C47402F0A37458F00B
:101FC0007F0F1230009004C27402F0229004C4E02B
:101FD0007002A3E070078001E49004C2F022E49054
:101FE0000000F07B017A007900F53B753C017F0130
:101FF000FE12342B900000E064A160031233A32290
:1020000078017C017D017BFF7A4079E47E007F507E
:10201000124390E4F52678517C017D017BFF7A41E3
:102020007934FE7F40124390E4F52778287C00FD48
:102030007BFF7A417974FE7F0312439090033DE069
:10204000FF30E00D54FEF0A3E0F510E4F50CF50DC3
:1020500022E4F5289002EEE0F529752A0D7548FF77
:10206000754941754A77754B02754C00754D007581
:102070004E28754F037B017A017951122ABE8F27B2
:102080009002EFE0FCA3E0FD9002EEE0F532753344
:10209000017534027535A59002EDE0F5367B017AC5
:1020A000017901122DD98F26E50C14603F147002BE
:1020B0002138147002219A14700221A924046002AC
:1020C00021D4E50DD394034008750B01E4F50D21EF
:1020D000D4D2A37B017A017901AD26123672900227
:1020E000A37403F0A374E8F0750C01229002A3E03E
:1020F0007002A3E07002804A201D0221D7C21D7524
:102100004901754A01754B5185274C7B017A03794A
:10211000417D80122E60EA494B6016900339E070D1
:10212000028073750C029002A37401F0A374F4F0A2
:1021300022900345E0F50B229002A3E07002A3E099
:102140007005050DF50C22201D0221D7900349E0F2
:10215000FDA3E07889F6ED08F690034CE008F6C29E
:102160001D900339E0FF7E0078567C037D017B01E2
:102170007A0279F11246BEEF705D7889E6FE08E6D4
:10218000FF90033BE06E7003A3E06F704A90033A48
:10219000E0788B667041750C0322301C07C21C75F9
:1021A0001003802A7510018025301C07C21C751091
:1021B000038003751001E50B60142433600A24E4E6
:1021C000600624E970028000756A01E4F50BE4F50D
:1021D0000DF50C22750C04228F308E2F8D2E8C2D38
:1021E00078237C017D017BFF7A3A79A47E007F0B06
:1021F000124390C205853034852F33852E32852DCC
:102200003120040261169004FFE0D3940C504090FA
:102210000500E0FFE4FCFDFE7B3CFAF9F812449770
:10222000C004C005C006C0079004FFE0FFE4FCFD49
:10223000FE7B107A0EF9F8124497D003D002D00139
:10224000D000EF2BFFEE3AFEED39FDEC3861019046
:1022500004FFE0FFD3940C405EEFD394185058E095
:1022600024F4FFE434FFFEE4FCFD7B107A0EF9F861
:10227000124497C004C005C006C007900500E0FFE7
:10228000E4FCFDFE7B3CFAF9F8124497D003D0023F
:10229000D001D000EB2FFBEA3EFAE93DF9E83CF82B
:1022A000C3E5349BF534E5339AF533E53299F532DD
:1022B000E53198F531805F9004FFE0FFC3941E4044
:1022C00055EF24EFFFE434FFFEE4FCFD7B107A0EB3
:1022D000F9F8124497C004C005C006C00790050075
:1022E000E0FFE4FCFDFE7B3CFAF9F8124497D003D2
:1022F000D002D001D000EB2FFFEA3EFEE93DFDE821
:102300003CFCE5342FF534E5333EF533E5323DF55D
:1023100032E5313CF531E534FF900123EFF0E4FF85
:10232000E533FEE4FDFC78081244E6A3EFF0E4FF99
:10233000FEE532FDE4FC78101244E6A3EFF0E4FF82
:10234000FEFDE531FC78181244E6A3EFF075380184
:10235000753901753A23903A60E493F53B753CFF7B
:10236000753D3A753E61903AA1E493F53F754002A0
:10237000A3E493F541740193F5427BFF7A3A791E09
:10238000122C129205A205228B268A278928780111
:102390007C017D017BFF7A41797C7E007F221243A4
:1023A00090AB26AA27A9281243B6900101F090000D
:1023B000011243CFFF7E00E92402F9E43AFA7802E1
:1023C0007C017D01124390AB26AA27A92890000129
:1023D0001243CF900122F0900101E02497601F1476
:1023E000700281F02402600281F5C202D2049001E1
:1023F00002E0F52D12315D92027F0C02378FC2028E
:10240000C203E4F52CF52BF52AF529900102E0FF33
:10241000E52C4FF52CE52BF52BE52AF52AE529F5DA
:1024200029A3E0FFE4FCFDFE78081244F9E52C4FF7
:10243000F52CE52B4EF52BE52A4DF52AE5294CF533
:1024400029A3E0FFE4FCFDFE78101244F9E52C4FCF
:10245000F52CE52B4EF52BE52A4DF52AE5294CF513
:1024600029A3E0FFE4FCFDFE78181244F9E52C4FA7
:10247000F52CE52B4EF52BE52A4DF52AE5294CF5F3
:1024800029A3E0FF9004FFE0B5070C900107E0FEF0
:10249000900500E06E60339004FFEFF0900107E0DC
:1024A000900500F07B017A0479FF753300753401E3
:1024B0007F037E001231BF7B017A057900753300FE
:1024C0007534017F047E001231BF900108E0600284
:1024D000D203E52C2480FFE52B34BCFEE52A3492A0
:1024E000FDE52934C7FCA20392041221D8920222EE
:1024F000C20412351C22C20278017C017D017BFFDF
:102500007A3979F77E007F20124390E4FF7534FF1B
:1025100075353A75361C7537017538017539017591
:102520003A02753B01753C2C7BFF7A3A79177D05A1
:10253000122F62EF7004C202A1FC90010FE0FE9026
:10254000010EE0FDEEF526EDF527E4F528F529AEC0
:1025500026AF277C077DD01244428D2A90010CE0E3
:10256000F52BA3E0F52CE4F52D852A28E52B640155
:102570006005E52BB4020AE52B240CF5291528800B
:1025800003852B29E5292401FFE433FE7C007D1A15
:102590001244307D0A124442E5281313543F252883
:1025A0002F252C24DCF52D75F0078485F02DE52DE5
:1025B0009004F96003F080037407F09004F8E52BB1
:1025C000F09004FAE52CF09004F7E52AF090010968
:1025D000E09004FBF090010AE09004FCF090010B05
:1025E000E09004FDF0FD9004FCE075F03CA4AEF03A
:1025F0007C002D787FF6EC3E18F6D202A202228BE8
:10260000268A27892878297C007D007BFF7A4C79EF
:10261000F37E007F0C124390E4F535FB7A007929B4
:10262000F53B753C0C7F10FE12342BE4F535E53597
:1026300075F003A42429F8E6547FFFAB2675F00358
:10264000E535A42528F9E52735F0FA1243B654807C
:102650004FFF1243FCE53575F003A42429F8E65436
:1026600080C41313135401C43333335480FEEF5426
:102670007F4E1243FCE53575F003A4242AF8E65496
:10268000E0C4135407FDE53575F003A4AB262528F7
:10269000F9E52735F0FAE92401F9E43AFA1243B6EC
:1026A00054F84DFF1243FCE53575F003A4242AF8D5
:1026B000E6541F33333354F8FEEF54074E1243FCF5
:1026C000E53575F003A4242BF8E6FDE53575F00338
:1026D000A4AB262528F9E52735F0FA900002ED1283
:1026E000440E0535E53564046002C12E228B268A2E
:1026F00027892878297C007D007BFF7A4C79FF7E32
:10270000007F06124390E4F52FFB7A007929F53B10
:10271000753C067F22FE12342BE4F52FE52F75F071
:1027200003A42429F8E6547FFFAB2675F003E52FB8
:10273000A42528F9E52735F0FA1243B654804FFF57
:102740001243FCE52F75F003A42429F8E65480C455
:102750001313135401C43333335480FEEF547F4EAC
:102760001243FCE52F75F003A4242AF8E654E0C4D4
:10277000135407FDE52F75F003A4AB262528F9E5D2
:102780002735F0FAE92401F9E43AFA1243B654F88D
:102790004DFF1243FCE52F75F003A4242AF8E654FC
:1027A0001F33333354F8FEEF54074E1243FCE52F2A
:1027B00075F003A4242BF8E6FDE52F75F003A4AB18
:1027C000262528F9E52735F0FA900002ED12440E8F
:1027D000052FE52F64026002E11C2274422516F5E4
:1027E00082E43404F583EFF00516E516C3948040C7
:0E27F00003E4F516E5177005751701D299225E
:102800008F28ED24FD6059147002019C14700201A0
:10281000CA2403600201EB7531FF75324D75336BCD
:102820007534008528357B017A00790012477A7B60
:10283000017A007900123590E52824FE600A24FE12
:1028400060062403600201EB9005027401F090051C
:1028500001E528F0900503F0900505E04401F02221
:102860007531FF75324D7533877534008528357B9A
:10287000017A00794012477A7B017A00794012355B
:1028800090E52824FE600824FE60042403705C9018
:1028900005027401F0900501E528F0227531FF75FD
:1028A000324D7533A17534008528357B017A007966
:1028B0008012477A7B017A007980123590E52824CE
:1028C000FC60028026D20402351C7531FF75324D42
:1028D0007533BE7534008528357B017A0079C012C6
:1028E000477A7B017A0079C012359022E4F527906F
:1028F0000504E0FFF527E52624FE602904705CE569
:102900002530E007EF6401900504F0E52530E1078C
:10291000900504E06402F0E52530E23F900504E014
:102920006404F08036E52590050430E006E04401BB
:10293000F08004E054FEF0E52590050430E106E067
:102940004402F08004E054FDF0E52590050430E2F7
:1029500006E04404F08004E054FBF0123557E490A4
:102960000506F0900504E0FF5407900506F0EF54CB
:1029700001FFE52754016F6006E04420F0802A90B3
:102980000504E0FC5402FEE52754026E6009900540
:1029900006E04440F08012EC5404FFE52754046F35
:1029A0006007900506E04480F0900504E0FF6006B3
:1029B000E4787CF608F6900507E0B401158F277BD4
:1029C000007A0079277533007534017F027E00128A
:1029D00031BF22900340E07002418B90033FE03012
:1029E000E03378017C017D017BFF7A4179797E00BB
:1029F0007F0312439090033FE054FEF07B017A0185
:102A00007901752C037D0E74FFFFFE1233187F329F
:102A10007E001236EEE50E706CE50F14601914603E
:102A20003324027060C2A39002A3E4F0A374C8F040
:102A3000750E00750F01229002A3E07002A3E070F2
:102A400072D2A39002A37417F0A37470F0750E00F5
:102A5000750F02229002A3E07002A3E07055F50EFC
:102A6000F50F7531FF753238753324900340E075EA
:102A70003400F5357B017A01790412477A7B017ABB
:102A8000017904802BE4F50EF50F22E4F50EF50F25
:102A9000D2A3751003756D037531FF753238753328
:102AA000487B017A01794412477A7B017A017944A3
:102AB00012359022E493F54F7B017A0179018B4521
:102AC0008A468947854F50E4F551AE5105518E82B3
:102AD000F58374FE12440EAF5105518F8275830049
:102AE000E54F12440EAF4B7E007C00E5472551F9BF
:102AF000EC3546A801FCAD45AB48AA49A94A1243AA
:102B000090E54B2551F551E4FEEEC3954B5013ABC8
:102B100048AA49A94A8E827583001243CF62500E9B
:102B200080E7AF4F7E007C00E5472551F9EC354644
:102B3000A801FCAD45AB4CAA4DA94E124390E54F00
:102B40002551F551E4FEEEC3954F5013AB4CAA4D01
:102B5000A94E8E827583001243CF62500E80E7AB80
:102B600045AA46A947AF5105518F82758300E550AC
:102B700012440EAF51228B258A2689271217FB405B
:102B80005CD211201502D215D3904E017401939599
:102B900074E4939573501BC3904E03740193957422
:102BA000E4939573400C200F09AA29A92A124532F3
:102BB000D20FD3904E037401939574E493957350A0
:102BC00050C3904E057401939574E49395734041FE
:102BD00020103EAA2CA92D124532D21022C2153047
:102BE000112FC211D3904E017401939574E4939503
:102BF000734015904DFF7401939574E49395735051
:102C000007AA26A927124532E4F573F574C20FC24C
:102C100010228B358A368937782E7C017D017BFF27
:102C20007A3879E67E007F60124390E4F54385357B
:102C30004885364985374A754B0285384C85394D6C
:102C4000853A4E853B4F7B017A01792E122ABE8F41
:102C500044E4F543E543C39540504FC21D9002A3A1
:102C6000E541F0A3E542F07B017A01792EAD4412F3
:102C700036729002A3E07002A3E0602A301DF3C216
:102C80001D853C49853D4A853E4B853F4C7B017AFD
:102C90000379417D80122E60EA494B60D57F027E28
:102CA000001236EED322054380AAC32278127C009C
:102CB0007D017BFF7A4D79057E007F501243907530
:102CC00031FF75324C75339D753400852635753668
:102CD00000852737753800852939753A0085283BE6
:102CE0007B017A00791212477A7B017A00791212FD
:102CF00035907531FF75324C7533C9753400852AAE
:102D000035753600852B37753800852C397B017A6F
:102D100000791212477A7B017A0079121235907588
:102D200031FF75324C7533E19004FFE0753400F5E6
:102D3000357B017A00791212477A7B017A00791289
:102D4000023590C0E0C0F0C083C082C0D075D00012
:102D5000C000C001C002C003C004C005C006C00757
:102D6000309831C298E51A702B201A14D21AF51235
:102D7000F513FE7F807DFF7B017A0379C21246E264
:102D8000AF13051374C22FF582E43403F583E5997C
:102D9000F0751200309927C299E5156516601C740C
:102DA000422515F582E43404F583E0F5990515E52F
:102DB00015C3948040087515008003751700D0076F
:102DC000D006D005D004D003D002D001D000D0D09E
:102DD000D082D083D0F0D0E0328B2D8A2E892F8CF8
:102DE000308D3178D47C017D017BFF7A40794C7E37
:102DF000007F48124390E4F537FE7F50FDAB2DAACB
:102E00002EA92F1246E29001D4E531F0E530A3F06F
:102E1000A3E532F0A3F0A3740DF09001DAF0E4A37F
:102E2000F0A37407F0A3E536F0FF7E0078DE7C01A6
:102E30007D01AB33AA34A9351243907548FF75491B
:102E400040754A4A754B02754C01754D01754ED45B
:102E5000E536240AF54FAB2DAA2EA92F122ABE2241
:102E60008D488B458A468947E4F54D8B4E8A4F89BC
:102E700050854951854A52854B53C3E5509547FFCC
:102E8000E54F9546FE7C00EF254CFFEC3EFED3EF70
:102E900095487480F86E985047AB510553E553AA96
:102EA000527002055214F91243B6FFAB4E0550E5BD
:102EB00050AA4F7002054F14F91243B6B507130517
:102EC0004DE54DB54CD3C3E550954CF9E54F940015
:102ED000FA22854951854A52854B53E4F54D809A33
:102EE0007B007A00790022C2AFD2BCE598543F44FF
:102EF00040F598E4752834F527F526F525C395287F
:102F0000F528E49527F52774019526F526E49525FF
:102F1000F525AF28AE27AD26FC78081244E68FD6FB
:102F20008528D7538EEF438E01538EF7438E04537B
:102F3000AFFB538EF7438E10D2ACD29C53A23F7E90
:102F4000007F807D007B017A0479421246E2D2AF95
:102F50007BFF7A3779C812373C7BFF7A3779EF02EB
:102F600035908B308A3189328D33853B3D853C3EAF
:102F7000E4F53FF53FE53FC3953A505CC21D900232
:102F8000A3E53BF0A3E53CF0AB30AA31A932AD3369
:102F90001236729002A3E07002A3E06037301DF396
:102FA000C21D78437C037D01AB34AA35A9367E006F
:102FB0007F021246BEEF70DB9003C1E0FF7E00A8E7
:102FC00039AC38AD377B017A0379411243909003D5
:102FD000C1E0FF22053F809D7F002220231CEF548B
:102FE00007FF9004D0E054F84FF0A3EDF0EB541F2E
:0F2FF000FFA3E054E04FF0756C01224E201460F7
:10300000AD07ED30E0159004C8E054E0F09004C73F
:10301000E054E0F09004C6E054E0F0ED5402C31335
:1030200060159004CBE054E0F09004CAE054E0F066
:103030009004C9E054E0F0ED54041313543F6015BC
:103040009004CEE054E0F09004CDE054E0F0900421
:10305000CCE054E0F0ED5408131313541F601590A6
:1030600004D5E054E0F09004D4E054E0F09004D3B0
:10307000E054E0F0227525C8E4F526C2001233E8DA
:10308000788CA6071236D48F1E788CE6FF656F60A9
:1030900010E570C39525500405708005E4F570D2E5
:1030A00000300045C200E56F6FF5268F6FE52630D2
:1030B000E210E56F90050730E2057401F0800374BB
:1030C00002F0E52654306021E56F5430C4540F14EB
:1030D000600C14600D1460042403700D8008751FCB
:1030E0003922751F3A22751F3B22E56D6403600685
:1030F000E56D64047066E56DB40417905004E493C4
:10310000FEED8EF084FDEB8EF084FBE5288EF084DE
:10311000F528EF14601314601914601F2403703C29
:10312000ED541FFF9004C68019ED541FFF9004C991
:103130008010ED541FFF9004CC8007ED541FFF90CA
:1031400004D3E054E04FF0EB541FFFA3E054E04FF2
:10315000F0E528541FFFA3E054E04FF022C205E43D
:10316000F52E78237C017D017BFF7A3979CCFE7FB7
:1031700003124390300408900125E52DF08005E40A
:10318000900125F0753801753901753A2390398819
:10319000E493F53B753CFF753D39753E899039C91F
:1031A000E493F53F754002A3E493F541740193F570
:1031B000427BFF7A397946122C129205A205228EA3
:1031C0002E8F2F8B308A31893278237C027D017BD0
:1031D000FF7A4F79617E007F801243907B017A02F3
:1031E0007923753B00753C80E4FFFE12342BE4FF2D
:1031F000123698AE33AF347423252FF97402352E6E
:10320000A801FC7D01AB30AA31A9321243907B01A9
:103210007A027923753A00753B80E4FFFE02346838
:103220008F288D29900503E528F0900505E04401DD
:10323000F07531FF75324D7533DB753400852835F7
:103240007536008529377B017A00790012477A7B31
:10325000017A007900123590E52824FE601124FEE1
:10326000600E24037013E52924FC700D02379C22A4
:10327000E52924FC70031237BF22E4F52EF52F78E0
:10328000A37C017D017BFF7A3979CFFE7F20124339
:1032900090E4FF7534FF7535397536F5753701756E
:1032A00038017539A3753A02753B01753C2C7BFFDB
:1032B0007A3979EF7D06122F62EF600C9001A8E059
:1032C000422FA3E0FEEE422EAE2EAF2F22E47884F2
:1032D000F653B1C743B238C2B5C2B4C2B390050702
:1032E000E0B4011C7B007A007984753B00753C01D9
:1032F0007F027E0012342B7884E6900504F080145F
:10330000E47884F6FB7A007984F5337534017F0222
:10331000FE1231BF123557228E268F278D288B291A
:103320008A2A892B78847C017D017BFF7A407994FD
:103330007E007F50124390852832852933852A34B8
:10334000852B35852C367B017A017984AD27AC2617
:10335000122DD9AD077B017A0179840236721237BA
:103360004F1237A9121FDE90033E7403F090033D05
:10337000E04401F01206A47528FF752907752AFE9E
:10338000752BFF752C07752DFE7BFF7A377961123F
:103390002B76123075120CBF1235F8121000121A6B
:1033A000E980D178A37C017D017BFF7A4E79E17EB3
:1033B000007F801243907B017A0179A375330075F9
:1033C0003480E4FFFE1231BF9001A374A1F07B01B1
:1033D0007A0179A37533007534017F017E001231C3
:1033E000BF7F0A7E000236EEE4FF2090030F8003C9
:1033F0005307FE20910543070280035307FD2092E7
:103400000543070480035307FB2093054307088007
:10341000035307F720930543071080035307EF205A
:10342000940543072080035307DF22AD07AC06C293
:10343000AF75C78075C5018CC3AF058FC475C65AFB
:1034400075C6A500E5C21243FC0DBD00010C740158
:1034500029F9E43AFAE53C153C7002153B14453B6A
:1034600070D5123781D2AF22AD07AC06C2AF75C797
:103470008075C5028CC3AF058FC41243B6F5C27503
:10348000C65A75C6A5000DBD00010C740129F9E4EA
:103490003AFAE53B153B7002153A14453A70D512DD
:1034A0003781D2AF225395084396F75393F4439450
:1034B0000B53C9CF43CA30756D03E4F528FBFDFFFC
:1034C0001230EAE4F528FBFD7F011230EAE4F5282A
:1034D000FBFD7F021230EAE4F528FBFD7F0302309A
:1034E000EA7B007A00796E753B00753C017F307E87
:1034F0000012342B7B007A00796B753B00753C0120
:103500007F317E0012342BE56ED394094003756E33
:1035100001E56BD394094003E4F56B2290034074FA
:10352000F0F030040790033FE04401F090033E7454
:1035300005F090033DE04401F0756D077531FF75AE
:10354000323875330A7B017A01792312477A7B017D
:103550007A017923023590E51E30E00D900504E0F4
:1035600030E004D2B38002C2B3E51E30E10D900515
:1035700004E030E104D2B48002C2B4E51E30E20DB2
:10358000900504E030E204D2B58002C2B50237B53E
:103590008B2E8A2F89307F0F7E001236EEE5A254E3
:1035A0003F4440F5A27F0F7E001236EEAB2EAA2FCD
:1035B000A93012373C7F0F7E001236EE53A23F7FB8
:1035C0000F7E000236EE8B268A2789281243B6FF2B
:1035D000900501F0A37402F07531FF753238753330
:1035E000577534008F357B017A01790112477A7B58
:1035F000017A017901023590900502E064036021AF
:1036000078257C007D007B017A0579017E007F02B0
:103610001243901228EC9005027403F0E490050127
:10362000F022AC07A9051CE4FD74017E00A8050882
:103630008005C333CE33CED8F9FFE9FBEF5B6006DC
:10364000EDB50402D3220DBD07DFC3227B017A044E
:1036500079FF753B00753C017F037E0012342B7BA4
:10366000017A057900753B00753C017F047E0002FC
:10367000342B8B458A468947E4FEEEC39D5018AB38
:10368000450547E547AA467002054614F91243B6B8
:10369000FF1227DB0E80E322AD07AC06C2AF8CC35E
:1036A000AF058FC475C78075C50375C65A75C6A5A5
:1036B00000123781D2AF227FF87E7FEF24FAFFEE2F
:1036C00034FFFAA9077BFF78EF7C047D017E007F41
:1036D000060243907F07E51FB43B028010E51FB44C
:1036E0003A047F038007E51FB439027F0122AB074C
:1036F000AA06EB1B70011A144A60077F011237718A
:1037000080F0227B007A00791B753B00753C037FBB
:10371000067E0002342B53B1FD43B20243B1015384
:10372000B2FE5395F743960822E4FF2096010F203E
:103730009703430702209503430704221243B6FF71
:10374000600C1227DB740129F9E43AFA80EE2212A8
:10375000000E123716122EE71234A51207E80232B5
:10376000CD90033E7402F090033DE04401F002006E
:10377000037D367C07ED1D70011C144C70F7DFF1E2
:1037800022E4F5C7F5C5F5C675C3FF75C4FF2290E1
:1037900004C3EFF0756D057F0F023000D204752D64
:1037A0000C12315D7F0C02378F1236B712370312BD
:1037B00034E102364C9004CF740AF0756D03229008
:1037C0000340E06002E4F02269276D205541525425
:1037D0003120666F722077696669206461746120A8
:1037E0007472616E736C617465202121210A006915
:1037F000276D20554152543120666F7220646174E8
:10380000734C6F67202121210A00646576486F6C34
:1038100064207374617274207269676874206E6FBB
:10382000772E0A00646576486F6C642074696D6554
:1038300020636F756E742072656D696E643A202521
:1038400030326420732E0A00646576486F6C642001
:1038500073746F702E0A00636D645363656E6172DA
:10386000696F4374726C20636F6D6D696E672C2095
:10387000737461747573446174613A253032582EE3
:103880000A00636D64436F6D696E673A2530325884
:103890002E0A0073774461746120707573683A254D
:1038A0003032582E0A000000000000000000000026
:1038B0000000000000000000000000000000000008
:1038C00000000000000000000000000000000000F8
:1038D00000000000000000000000000000000000E8
:1038E00000000000000000000000000000000000D8
:1038F00000000000000000000000000000000000C8
:1039000000000000000000000000000000000000B7
:1039100000000000000000000000000000000000A7
:103920000000000000000000000000000000000097
:103930000000000000000000000000000000000087
:103940000000000000002608FCFF0000000000004E
:103950000000000000000000000000000000000067
:103960000000000000000000000000000000000057
:103970000000000000000000000000000000000047
:10398000000000000000000003FE016608006F0058
:103990000000000000000000000000000000000027
:1039A0000000000000000000000000000000000017
:1039B0000000000000000000000000000000000007
:1039C000000000000000000000060096FCFF000060
:1039D00000000000000000000000000000000000E7
:1039E000000000000000000000000000000000FED9
:1039F0000126060627660600000000000000000001
:103A000000000000000000000000000000000000B6
:103A100000000000000000FE0021113061112110A3
:103A20000000000000000000000000000000000096
:103A30000000000000000000000000000000000086
:103A40000000000000000000000000000000000076
:103A50000000000000000000000000000000000066
:103A60000BFE0161100000000000000000000000DB
:103A70000000000000000000000000000000000046
:103A80000000000000000000000000000000000036
:103A90000000000000000000000000000000000026
:103AA0000005006400000000000000000000004667
:103AB00009000000000000000000000000000000FD
:103AC00000000000000000000000000000000000F6
:103AD00000000000000000000000000000000000E6
:103AE00000000000000000000000000000000000D6
:103AF0000000FE064180010200020603C300000030
:103B000000000000000000000000000000000000B5
:103B100000000000000000000000000000000000A5
:103B20000000000000000000000000000000000095
:103B300000000B0FA046090000000000000000007C
:103B40000000000000000000000000000000000075
:103B50000000000000000000000000000000000065
:103B60000000000000000000000000000000000055
:103B70000000000000000000FE064180010200027B
:103B80000603C30000000000000000000000000069
:103B90000000000000000000000000000000000025
:103BA0000000000000000000000000000000000015
:103BB00000000000000000000B0FA0260503010319
:103BC00000000000000000000000000000000000F5
:103BD00000000000000000000000000000000000E5
:103BE00000000000000000000000000000000000D5
:103BF0000000000000000000000000000003FE01C3
:103C000066050062000000000000000000000000E7
:103C100000000000000000000000000000000000A4
:103C20000000000000000000000000000000000094
:103C3000000000000000000000000000000006017D
:103C4000F446090000000000000000000000000031
:103C50000000000000000000000000000000000064
:103C60000000000000000000000000000000000054
:103C70000000000000000000000000000000000044
:103C800000000000FE064180010200020603C3009E
:103C90000000000000000000000000000000000024
:103CA0000000000000000000000000000000000014
:103CB0000000000000000000000000000000000004
:103CC000000000000B0FA026058701010000000086
:103CD00000000000000000000000000000000000E4
:103CE00000000000000000000000000000000000D4
:103CF00000000000000000000000000000000000C4
:103D000000000000000000000003FE0166050062E4
:103D100000000000000000000000000000000000A3
:103D20000000000000000000000000000000000093
:103D30000000000000000000000000000000000083
:103D4000000000000000000000000601F42702FF50
:103D5000FF00000000000000000000000000000064
:103D60000000000000000000000000000000000053
:103D70000000000000000000000000000000000043
:103D80000000000000000000000000000000000231
:103D9000FE01670200640000000000000000000057
:103DA0000000000000000000000000000000000013
:103DB0000000000000000000000000000000000003
:103DC00000000000000000000000000000000000F3
:103DD0000601F4270300800000000000000000003E
:103DE00000000000000000000000000000000000D3
:103DF00000000000000000000000000000000000C3
:103E000000000000000000000000000000000000B2
:103E1000000000000004FE016703006500000000D0
:103E20000000000000000000000000000000000092
:103E30000000000000000000000000000000000082
:103E40000000000000000000000000000000000072
:103E50000000000000000601F42600000000000041
:103E60000000000000000000000000000000000052
:103E70000000000000000000000000000000000042
:103E80000000000000000000000000000000000032
:103E9000000000000000000000000000FE0145C01E
:103EA0000783000000000000000000000000000088
:103EB0000000000000000000000000000000000002
:103EC00000000000000000000000000000000000F2
:103ED000000000000000000000000000061F402657
:103EE00008FCFF00000000000000000000000000CF
:103EF00000000000000000000000000000000000C2
:103F000000000000000000000000000000000000B1
:103F100000000000000000000000000000000000A1
:103F20000003FE016608006F0000000000000000B2
:103F30000000000000000000000000000000000081
:103F40000000000000000000000000000000000071
:103F50000000000000000000000000000000000061
:103F6000000006009624000E0D000D000D0001005B
:103F70000001000000000000000000000000000040
:103F80000000000000000000000000000000000031
:103F90000000000000000000000000000000000021
:103FA000000000000000000DFE016400006500003C
:103FB0000000000000000000000000000000000001
:103FC00000000000000000000000000000000000F1
:103FD00000000000000000000000000000000000E1
:103FE00000000000000000000601F4FE016400B8BB
:103FF000DD0C000D0D000D0E000D00000000000096
:1040000000000000000000000000000000000000B0
:1040100000000000000000000000000000000000A0
:104020000000000000000000000000000000000090
:104030000000000000000000000000000000000080
:10404000000000000000000000002401000000004B
:104050000000000000000000000000000000000060
:104060000000000000000000000000000000000050
:104070000000000000000000000000000000000040
:104080000000000000000000000000000000000030
:104090000000000000000000000000000000000020
:1040A0000000000000000000000000000000000010
:1040B0000000000000000000000000000000000000
:1040C00000000000000000000000000000000000F0
:1040D00000000000000000000000000000000000E0
:1040E00000000000000000000000000000000000D0
:1040F00000000000000000000000000000000000C0
:1041000000000000000000000000000000000000AF
:10411000000000000000000000000000000000009F
:10412000000000000000000000000000000000008F
:10413000000000000000000000000000000000007F
:10414000000000000000000000000000000000006F
:10415000000000000000000000000000000000005F
:10416000000000000000000000000000000000004F
:104170000000000000000044806A01000000000010
:10418000000000000000000000000000000000002F
:10419000000000000000000000000000000000001F
:1041A000000000000000000000000000000000000F
:1041B00000000000000000000000000000000000FF
:1041C00000000000000000000000000000000000EF
:1041D00000000000000000000000000000000000DF
:1041E00000000000000000000000000000000000CF
:1041F00000000000000000000000000000004481FA
:1042000000000000000000000000000000000000AE
:10421000000000000000000000000000000000009E
:10422000000000000000000000000000000000008E
:10423000000000000000000000000000000000007E
:10424000000000000000000000000000000000006E
:10425000000000000000000000000000000000005E
:10426000000000000000000000000000000000004E
:10427000000000000000000000000000000000003E
:10428000000000000000000000000000000000002E
:10429000000000000000000000000000000000001E
:1042A000000000000000000000000000000000000E
:1042B00000000000000000000000000000000000FE
:1042C000E709F608DFFA8046E709F208DFFA803EE0
:1042D00088828C83E709F0A3DFFA8032E309F608CD
:1042E000DFFA8078E309F208DFFA807088828C8335
:1042F000E309F0A3DFFA806489828A83E0A3F608E9
:10430000DFFA805889828A83E0A3F208DFFA804CC2
:1043100080D280FA80C680D4806980F28033801099
:1043200080A680EA809A80A880DA80E280CA803302
:1043300089828A83ECFAE493A3C8C582C8CCC5837A
:10434000CCF0A3C8C582C8CCC583CCDFE9DEE7804A
:104350000D89828A83E493A3F608DFF9ECFAA9F0C9
:10436000EDFB2289828A83ECFAE0A3C8C582C8CC1F
:10437000C583CCF0A3C8C582C8CCC583CCDFEADE38
:10438000E880DB89828A83E493A3F208DFF980CC9A
:1043900088F0EF60010E4E60C388F0ED2402B40493
:1043A0000050B9F582EB2402B4040050AF2323453A
:1043B000822390431073BB010689828A83E02250D6
:1043C00002E722BBFE02E32289828A83E49322BBB6
:1043D000010CE58229F582E5833AF583E022500657
:1043E000E92582F8E622BBFE06E92582F8E222E50D
:1043F0008229F582E5833AF583E49322BB0106899D
:10440000828A83F0225002F722BBFE01F322F8BB1E
:10441000010DE58229F582E5833AF583E8F0225023
:1044200006E92582C8F622BBFE05E92582C8F222EC
:10443000EF8DF0A4A8F0CF8CF0A428CE8DF0A42EA0
:10444000FE22BC000BBE0029EF8DF084FFADF022F0
:10445000E4CCF875F008EF2FFFEE33FEEC33FCEE02
:104460009DEC984005FCEE9DFE0FD5F0E9E4CEFDF5
:1044700022EDF8F5F0EE8420D21CFEADF075F008C8
:10448000EF2FFFED33FD4007985006D5F0F222C321
:1044900098FD0FD5F0EA22E88FF0A4CC8BF0A42C85
:1044A000FCE98EF0A42CFC8AF0EDA42CFCEA8EF042
:1044B000A4CDA8F08BF0A42DCC3825F0FDE98FF029
:1044C000A42CCD35F0FCEB8EF0A4FEA9F0EB8FF020
:1044D000A4CFC5F02ECD39FEE43CFCEAA42DCE35A8
:1044E000F0FDE43CFC22E8600FECC313FCED13FD8F
:1044F000EE13FEEF13FFD8F122E8600FEFC333FF96
:10450000EE33FEED33FDEC33FCD8F122D083D082C4
:10451000F8E4937012740193700DA3A393F87401DF
:1045200093F5828883E4737402936860EFA3A3A376
:1045300080DF8A838982E473E3F5F009E208B5F04D
:104540006BDFF58067E3F5F009E608B5F05EDFF5AF
:10455000805A87F009E608B5F052DFF6804E87F002
:1045600009E208B5F046DFF6804288828C8387F046
:1045700009E0A3B5F036DFF6803288828C8387F0BD
:1045800009E493A3B5F025DFF5802188828C83E3CD
:10459000F5F009E0A3B5F014DFF5801088828C8374
:1045A000E3F5F009E493A3B5F002DFF40246678077
:1045B0008780E9809080D4803E8015806E807E80E8
:1045C0009D80B7808D80A380518074803C024673AB
:1045D00089828A83ECFAE493F5F0A3C8C582C8CC3B
:1045E000C583CCE493A3C8C582C8CCC583CCB5F041
:1045F00076DFE3DEE1807089828A83E493F5F0A3BD
:10460000E208B5F062DFF4805E89828A83E0F5F02B
:10461000A3E608B5F051DFF5804D89828A83E0F585
:10462000F0A3E208B5F040DFF5803C89828A83E49C
:1046300093F5F0A3E608B5F02EDFF4802A8002801F
:104640005789828A83ECFAE493F5F0A3C8C582C83F
:10465000CCC583CCE0A3C8C582C8CCC583CCB5F09B
:1046600006DFE4DEE280007FFFB5F0020F224002A9
:104670007F012289828A83ECFAE0F5F0A3C8C58223
:10468000C8CCC583CCE0A3C8C582C8CCC583CCB593
:10469000F0D5DFE5DEE380CF89828A83ECFAE0F5AE
:1046A000F0A3C8C582C8CCC583CCE493A3C8C58297
:1046B000C8CCC583CCB5F0AFDFE4DEE280A988F0DA
:1046C000EF60010E4E60ABED2402B404005098F58B
:1046D00082EB2402B40400508E23234582239045AC
:1046E000AF73EF4E6012EF60010EEDBB010B8982DC
:1046F0008A83F0A3DFFCDEFA2289F05007F709DF96
:10470000FCA9F022BBFEFCF309DFFCA9F022FAE6CB
:10471000FB0808E6F925F0F618E6CA3AF622E53D68
:104720002431F8E6053D22782E300D027831E4750B
:10473000F00112470E0243B62006EB7F2ED2068010
:1047400018EF540F2490D43440D4FF300A0BEF24D8
:10475000BFB41A0050032461FFE53E6002153E0518
:1047600041E54170020540300D0D782EE475F001F1
:1047700012470EEF0243FC024E9B7403D20D8003DE
:10478000E4C20DF53D8B2E8A2F8930E4F53EF540CD
:10479000F541E53E60077F2012475980F5753FFFE0
:1047A000C207C206C208C209C20BC20CC20E12471F
:1047B00027FF700D300D057F0012476AAF41AE40F4
:1047C00022B4255FC2D5C20A124727FF24D0B40AFB
:1047D00000501A75F00A783E30D50508B6FF01067C
:1047E000C6A426F620D5047002D20980D924CFB4FD
:1047F0001A00EF5004C2E5D20A02496AD20780C605
:10480000D20680C0D20880BCD2D580BAD20B80B488
:104810007F201247592008077401B53E0040F1126D
:10482000471EFF124759024792D20ED20C809512B2
:10483000471EFB12471EFA12471EF94A4B700679B3
:104840003B7A4A7BFF20082EE53E602A7E008E825E
:104850007583001243CF60060EEE653F70F0C2D53F
:10486000EBC0E0EAC0E0E9C0E0EE1249B1D0E0F907
:10487000D0E0FAD0E0FB1243B6FF60AAEBC0E0EA5A
:10488000C0E0E9C0E0124759D0E02401F9D0E0349B
:1048900000FAD0E0FBE53F0460DCD53FD980877BA0
:1048A000FF7A4979ADD208809C791080027908C2DC
:1048B0000CC20E8008D2D5790A8004790AC2D5E5E7
:1048C0003F047002F53FE4FAFDFEFF12471EFC7B39
:1048D0000820071312471EFD7B1030060A12471EE0
:1048E000FE12471EFF7B20EC3382D592D55013C3B6
:1048F000E43006069FFFE49EFEE42007039DFDE4EE
:104900009CFCE4CBF8C207EC700CCFCECDCCE824F5
:10491000F8F870F38017C3EF33FFEE33FEED33FD8D
:10492000EC33FCEB33FB994002FB0FD8E9EB30078B
:1049300005F8D0E0C448B207C0E00AEC4D4E4F780D
:10494000207B0070C2EAB53F0040BCC0E01249B312
:10495000D0F0D0E0200704C4C0E0C4B207C0F01219
:104960004742D0F0D5F0EB02479212450C482F5346
:1049700048A95848004C47FC4248AD4F48B5444808
:10498000B54948154348BB55489F46489F45489FF1
:10499000474A5B5048042D48082E482B2B480C23CF
:1049A0004829204A442A47C448000048233F3F3F43
:1049B00000790AA2D5200914300B09B910020404A9
:1049C000B9080104A2D5200C025001042008689205
:1049D00008B53E005034C0E07F203009197F30A276
:1049E00008720C720B500F124A0AC208C20CC20B9A
:1049F000C20E7F30800F300B03E9C0E01247593000
:104A00000B03D0E0F9D0E0B53ECC300B177F30B9C6
:104A1000100C1247597F58300A077F788003B90875
:104A2000031247593008057F2D0247597F20200E79
:104A3000F87F2B200CF322920880CF286E756C6CC7
:104A40002900D20712471E3007F8C207783E30D53A
:104A50000108F60247C42D5043495812471E24034B
:104A6000B405004001E4904A569312474A743A1242
:104A7000474AD209753E040248A902750000017731
:104A8000000178004304DB0000004304DE00000066
:104A90004304E10000004304E40000004104E70394
:104AA0004104E8004204D601F44204D80000410465
:104AB000DA08C1A5011F3B011E01031B00000046CF
:104AC00004EF0000000000004604E90000000000C0
:104AD00000C1264304C60000004304C9000000438F
:104AE00004CC0000004304D3000000016E01016B00
:104AF000004304D0000000016D00016A004204C4BC
:104B000000004104CF0A4104C300016C00025400BC
:104B100000C11E4104C20001561FC19F0157000180
:104B20005800C1A0015900015A00015B00015C005E
:104B3000015D00015E00C1A1015F00016000016133
:104B4000000162000163000164000165000166006C
:104B500001670001680001690042033D0000C11CBB
:104B6000C1194202A3000042033F0000C11B011112
:104B700000C11DC11A011200011300608103410030
:104B80000000000000000000000000000000000025
:104B90000000000000000000000000000000000015
:104BA0000000000000000000000000000000000005
:104BB00000000000000000000000000000000000F5
:104BC00000000000000000000000000000000000E5
:104BD00000000000000000000000000000000000D5
:104BE00000000000000000000000000000000000C5
:104BF00000000000000000000000000000000000B5
:104C0000011000010800010900010A00010B000168
:104C10000C00010D00020E0000C118C197018C00AC
:104C2000C196C1150273000042050A000042050842
:104C30000000016F00017000C10FC110C1110171AE
:104C400000C112C113C114017200410507024105E0
:104C50000400420501000341050300420505000070
:104C60004704F7000000000000004104FE0A410470
:104C7000FF0841050000027E0000018000C124C140
:104C800023018100027A0000018300018200027C7E
:104C900000000179004204F50000C122000A3E3EF6
:104CA0003D3D3DCAB1BCE4B4C13D3D3D3C3C0A2064
:104CB000202020323025642F253032642F253032D9
:104CC000642D57253031640A002020202020202028
:104CD00020253032643A253032643A253032640A75
:104CE0000074696D655A6F6E655F483A25303264AD
:104CF0002E0A00000000000000000000000000007C
:104D000000000000000000000000000000000000A3
:104D10000000000000000000000000000000000093
:104D20000000000000000000000000000000000083
:104D30000000000000000000000000000000000073
:104D40000000000000000000000000000000000063
:104D50000000000000000000000000000000000053
:104D60000000000000000013880000746F75636885
:104D70005061643A253032582C2073686F72745039
:104D8000726573732E0A00746F7563685061643ABC
:104D9000253032582C20636E7450726573732E0A5E
:104DA00000746F7563685061643A253032582C2066
:104DB0006C6F6E6750726573735F412E0A00746F7B
:104DC0007563685061643A253032582C206C6F6EE0
:104DD0006750726573735F422E0A00746F75636863
:104DE0005061643A253032582C202530325874698D
:104DF0006D652070726573734F7665722E0A0000C0
:104E00000A0BB82710EA6000140BB82710EA607884
:104E10007FE4F6D8FD75818C024E5602335EE49332
:104E2000A3F8E493A34003F68001F208DFF480299D
:104E3000E493A3F85407240CC8C333C4540F44208C
:104E4000C8834004F456800146F6DFE4800B01027B
:104E5000040810204080904A7AE47E019360BCA34D
:104E6000FF543F30E509541FFEE493A360010ECFC9
:104E700054C025E060A840B8E493A3FAE493A3F8F3
:104E8000E493A3C8C582C8CAC583CAF0A3C8C582B3
:104E9000C8CAC583CADFE9DEE780BEEFB40A07747B
:104EA0000D124EA6740A309811A899B8130CC29826
:104EB0003098FDA899C298B811F63099FDC299F5BD
:104EC0009922000000000000000000000000000027
:104ED00000000000000000000000000000000000D2
:104EE00000000000000000000000000000000000C2
:104EF00000000000000000000000000000000000B2
:104F000000000000000000000000000000000000A1
:104F10000000000000000000000000000000000091
:104F20000000000000000000000000000000000081
:104F30000000000000000000000000000000000071
:104F40000000000000000000000000000000000061
:104F50000000000000000000000000000000000051
:104F60000000000000000000000000000000000041
:104F70000000000000000000000000000000000031
:104F80000000000000000000000000000000000021
:104F90000000000000000000000000000000000011
:104FA0000000000000000000000000000000000001
:104FB00000000000000000000000000000000000F1
:104FC00000000000000000000000000000000000E1
:104FD00000000000000000000000000000000000D1
:104FE000001F0000000000140A1F1F00001F000A1D
:104FF000080010001F00101F001F0A0000001F0003
:0D5000000A1F00C80403030101050400801D
:00000001FF
