:100000000264DD9006BBE0124BDB220200A1438EAE
:10001000805389F0758A50758CFBC28DD2A9D2B9F4
:10002000D28C220263BC8D498B468A478948E4F50D
:100030004E8B4F8A5089511275D7C3E5519548FFB1
:10004000E5509547FE7C00EF254DFFEC3EFED3EFDB
:1000500095497480F86E985041AB520554E554AA06
:10006000537002055314F91232ECFFAB4F0551E502
:1000700051AA507002055014F91232ECB50713055D
:100080004EE54EB54DD3C3E551954DF9E55094007D
:10009000FA221275D7E4F54E80A07B007A00790031
:0200A00022320A
:1000A30002270869276D20554152543120666F722B
:1000B30020776966692064617461207472616E736C
:1000C3006C617465202121210A0069276D20554147
:1000D30052543120666F7220646174734C6F6720D1
:1000E3002121210A006E776B5A69676220636F6E64
:1000F3006E6563742F72656A6F696E20616C6C2024
:10010300636F6D706C6574652E0A006E776B5A6948
:10011300676220636F6E6E6563742F72656A6F69C1
:100123006E206D61696E537465702D2530326440A5
:100133006D6574686F643A256420636F6D706C65D8
:1001430074652E0A00657272206672616D6548657A
:1001530061643A253032582E0A00726376506F720A
:100163007420697320253032582C207263764E77C1
:100173006B4164647220697320253034582E0A0061
:1001830072656D6F74652064617461526571756524
:100193007374206661696C2C20636F64653A5B300D
:1001A30078253032585D202D2D6C6F6F7025642EAD
:1001B3000A003E3E3E64744661696C20746F6F2092
:1001C3006D6F72652C207A6967626565207265635D
:1001D3006F6E6E656374207269676874206E6F77E3
:1001E3002E0A00646576486F6C64207374617274C0
:1001F300207269676874206E6F772E0A00646576D3
:10020300486F6C642074696D6520636F756E74202C
:1002130072656D696E643A202530326420732E0A4C
:1002230000646576486F6C642073746F702E0A00E7
:10023300636D645363656E6172696F4374726C209E
:10024300636F6D6D696E672C20737461747573448D
:100253006174613A253032582E0A006D61737465FA
:100263007220636D64436F6D696E673A6E776B4F8F
:1002730070656E3A25303264732E0A006D617374B3
:1002830065722055544320636F6D696E673A5B3026
:1002930078253032582530325825303258253032BF
:1002A300585D2E0A006E6F646520636D64436F6D45
:1002B300696E673A6465764E776B20686F6C642E5F
:1002C3000A006D617374657220636D643A2064740F
:1002D300506572696F6420686F6C642C2074696D5B
:1002E300653A25642E0A0064696666657220736345
:1002F300656E65206465746563742066726F6D2036
:10030300706F6C696E672E0A00636D64436F6D696D
:100313006E673A253032582E0A003E3E3E3E3E3E40
:100323003E3E74696D65725F7461623320726573FA
:10033300706F6E643A5B253032582D253032582D5C
:10034300253032585D2E0A003E3E3E3E3E3E3E3E46
:1003530074696D65725F74616233206861732062D2
:1003630065656E207365743A5B253032582D2530F0
:1003730032582D253032585D2E0A003E3E3E3E3E19
:100383003E3E3E696E7465726E6574206F66666C80
:10039300696E652E0A003E3E3E3E3E3E3E3E72651F
:1003A3006C6179537461747573207265616C6573E4
:1003B3003A253032582C2063757272656E7456611B
:1003C3006C3A253032582E0A003E3E3E3E3E3E3EBB
:1003D3003E64656C6179506572696F643A5B25644C
:1003E3005D2C2064656C617955704163743A5B25BB
:1003F3003032585D2E0A003E3E3E3E3E3E3E3E6655
:100403006163746F7279207265636F7665722073AE
:1004130074616E644279212E0A003E3E3E3E3E3EAA
:100423003E3E6167696E67436D64206465764C6F19
:10043300636B20636F6D696E672C206C6F636B4910
:10044300663A5B25645D2E0A003E3E3E3E3E3E3EDE
:100453003E6167696E67436D642074696D657220E0
:10046300636F6D696E672C206461746154616231DE
:100473003A5B253032582D253032582D25303258ED
:100483005D2E0A003E3E3E3E3E3E3E3E6167696E45
:1004930067436D6420677265656E4D6F64652063A5
:1004A3006F6D696E672C2074696D655365743A25A9
:1004B300642E0A003E3E3E3E3E3E3E3E6167696E0E
:1004C30067436D64206E696768744D6F646520636C
:1004D3006F6D696E67207769746820646174733A1D
:1004E3005B253032582025303258202530325800D1
:1004F3002025303258202530325820253032585D9F
:100503002E0A003E3E3E3E3E3E3E3E6167696E67BA
:10051300436D6420626B4C6967687420636F6D6917
:100523006E672C206F6E2D497372743A25303264D6
:100533002C206F66662D497372743A253032642E0F
:100543000A003E3E3E3E3E3E3E3E6167696E674365
:100553006D6420686F7273696E674C696768742095
:10056300636F6D696E672C206F707265617444618F
:1005730074613A253032582E0A003E3E3E3E3E3EDE
:100583003E3E6167696E67436D6420737769746388
:100593006842696E6453657420636F6D696E672C7E
:1005A300206F7072656174426974486F6C643A2598
:1005B3003032582062696E64446174613A25303286
:1005C30058202530325820253032582E0A003E3E1E
:1005D3003E3E3E3E3E3E6167696E67436D64206307
:1005E30075727461696E4F72626974616C5365747C
:1005F30020636F6D696E672C2076616C5365743A66
:100603002564202E0A003E3E3E3E3E3E3E3E66614F
:1006130063746F7279207265636F76657220646F9D
:10062300696E67206E6F77212E0A0063757272659B
:100633006E745061696E20676574206973203A2572
:10064300642E0A003E3E3E636F6F7264696E61748E
:100653006F72206C6F737420746F6F206C6F6E6792
:100663002C207A6967626565207265636F6E6E65BB
:100673006374207269676874206E6F772E0A003E78
:100683003E3E64744374726C45616368206C6F6FA3
:1006930070506172616D3A25642025642025642CB5
:1006A30020646174613A25642E0A006374726C20BD
:1006B300656163684F7468657220636D6420636F5E
:1006C3006D696E672C20636C75737465723A25309F
:1006D30032642C2076616C3A253032642C206C6FA6
:1006E3006F703A253032642E0A007A6967624E775A
:1006F3006B206F70656E206E6F746963652067652C
:10070300743A2564732E0A00000000000000000004
:1007130000000000000000000000000000000000D6
:1007230000000000000000000000000000000000C6
:1007330000000000000000000000000000000000B6
:1007430000000000000000000000000000000000A6
:100753000000000000000000000000000000000096
:100763000000000000000000000000000000000086
:100773000000000000000000000000000000000076
:100783000000000000000000000000000000000066
:100793000000000000000000000000000000000056
:1007A30000000000000000002608FCFF000000001D
:1007B3000000000000000000000000000000000036
:1007C3000000000000000000000000000000000026
:1007D3000000000000000000000000000000000016
:1007E3000000000000000000000003FE0166080096
:1007F3006F00000000000000000000000000000087
:1008030000000000000000000000000000000000E5
:1008130000000000000000000000000000000000D5
:100823000000000000000000000000060096FCFF2E
:1008330000000000000000000000000000000000B5
:1008430000000000000000000000000000000000A5
:1008530000FE0126060627660600000000000000D1
:100863000000000000000000000000000000000085
:10087300000000000000000000FE002111306111A3
:100883002110000000000000000000000000000034
:100893000000000000000000000000000000000055
:1008A3000000000000000000000000000000000045
:1008B3000000000000000000000000000000000035
:1008C30000000BFE016110000000000000000000AA
:1008D3000000000000000000000000000000000015
:1008E3000000000000000000000000000000000005
:1008F30000000000000000000000000000000000F5
:10090300000000050064000000000000000000007B
:100913000046090000000000000000000000000085
:1009230000000000000000000000000000000000C4
:1009330000000000000000000000000000000000B4
:1009430000000000000000000000000000000000A4
:1009530000000000FE064180010200020603C300FE
:100963000000000000000000000000000000000084
:100973000000000000000000000000000000000074
:100983000000000000000000000000000000000064
:10099300000000000B0FA04609000000000000004B
:1009A3000000000000000000000000000000000044
:1009B3000000000000000000000000000000000034
:1009C3000000000000000000000000000000000024
:1009D30000000000000000000000FE06418001024C
:1009E30000020603C3000000000000000000000036
:1009F30000000000000000000000000000000000F4
:100A030000000000000000000000000000000000E3
:100A1300000000000000000000000B0FA0260503EB
:100A230001030000000000000000000000000000BF
:100A330000000000000000000000000000000000B3
:100A430000000000000000000000000000000000A3
:100A53000000000000000000000000000000000390
:100A6300FE016605006200000000000000000000B7
:100A73000000000000000000000000000000000073
:100A83000000000000000000000000000000000063
:100A93000000000000000000000000000000000053
:100AA3000601F446090000000000000000000000F9
:100AB3000000000000000000000000000000000033
:100AC3000000000000000000000000000000000023
:100AD3000000000000000000000000000000000013
:100AE300000000000000FE06418001020002060330
:100AF300C300000000000000000000000000000030
:100B030000000000000000000000000000000000E2
:100B130000000000000000000000000000000000D2
:100B23000000000000000B0FA02605870101000054
:100B330000000000000000000000000000000000B2
:100B430000000000000000000000000000000000A2
:100B53000000000000000000000000000000000092
:100B6300000000000000000000000003FE01660515
:100B73000062000000000000000000000000000010
:100B83000000000000000000000000000000000062
:100B93000000000000000000000000000000000052
:100BA3000000000000000000000000000601F42720
:100BB30002FFFF0000000000000000000000000032
:100BC3000000000000000000000000000000000022
:100BD3000000000000000000000000000000000012
:100BE3000000000000000000000000000000000002
:100BF3000002FE0167020064000000000000000024
:100C030000000000000000000000000000000000E1
:100C130000000000000000000000000000000000D1
:100C230000000000000000000000000000000000C1
:100C330000000601F427030080000000000000000C
:100C430000000000000000000000000000000000A1
:100C53000000000000000000000000000000000091
:100C63000000000000000000000000000000000081
:100C73000000000000000004FE016703006500009F
:100C83000000000000000000000000000000000061
:100C93000000000000000000000000000000000051
:100CA3000000000000000000000000000000000041
:100CB30000000000000000000601F4260000000010
:100CC3000000000000000000000000000000000021
:100CD3000000000000000000000000000000000011
:100CE3000000000000000000000000000000000001
:100CF3000000000000000000000000000000FE01F2
:100D030045C0078300000000000000000000000051
:100D130000000000000000000000000000000000D0
:100D230000000000000000000000000000000000C0
:100D33000000000000000000000000000000061F8B
:100D4300402608FCFF000000000000000000000037
:100D53000000000000000000000000000000000090
:100D63000000000000000000000000000000000080
:100D73000000000000000000000000000000000070
:100D830000000003FE016608006F00000000000081
:100D93000000000000000000000000000000000050
:100DA3000000000000000000000000000000000040
:100DB3000000000000000000000000000000000030
:100DC3000000000006009624000E0D000D000D002B
:100DD300010000010000000000000000000000000E
:100DE3000000000000000000000000000000000000
:100DF30000000000000000000000000000000000F0
:100E03000000000000000000000DFE01640000650A
:100E130000000000000000000000000000000000CF
:100E230000000000000000000000000000000000BF
:100E330000000000000000000000000000000000AF
:100E4300000000000000000000000601F4FE016441
:100E530000B8DD0C000D0D000D0E000D00000000AC
:100E6300000000000000000000000000000000007F
:100E7300000000000000000000000000000000006F
:100E8300000000000000000000000000000000005F
:100E9300000000000000000000000000000000004F
:100EA300000000000000000000000000240100001A
:100EB300000000000000000000000000000000002F
:100EC300000000000000000000000000000000001F
:100ED300000000000000000000000000000000000F
:100EE30000000000000000000000000000000000FF
:100EF30000000000000000000000000000000000EF
:100F030000000000000000000000000000000000DE
:100F130000000000000000000000000000000000CE
:100F230000000000000000000000000000000000BE
:100F330000000000000000000000000000000000AE
:100F4300000000000000000000000000000000009E
:100F5300000000000000000000000000000000008E
:100F6300000000000000000000000000000000007E
:100F7300000000000000000000000000000000006E
:100F8300000000000000000000000000000000005E
:100F9300000000000000000000000000000000004E
:100FA300000000000000000000000000000000003E
:100FB300000000000000000000000000000000002E
:100FC300000000000000000000000000000000001E
:100FD300000000000000000000000000000000000E
:100FE30000000000000000000000000000000000FE
:100FF30000000000000000000000000000000000EE
:1010030000000000000000000000000000000000DD
:1010130000000000000000000000000000000000CD
:1010230000000000000000000000000000000000BD
:1010330000000000000000000000000000000000AD
:10104300000000000000000000000000000000009D
:10105300000000000000000000000000000000008D
:10106300000000000000000000000000000000007D
:10107300000000000000000000000000000000006D
:10108300000000000000000000000000000000005D
:10109300000000000000000000000000000000004D
:1010A300000000000000000000000000000000003D
:1010B30000000000000000000000000044806A01FE
:1010C300000000000000000000000000000000001D
:1010D300000000000000000000000000000000000D
:1010E30000000000000000000000000000000000FD
:1010F30000000000000000000000000000000000ED
:1011030000000000000000000000000000000000DC
:1011130000000000000000000000000000000000CC
:1011230000000000000000000000000000000000BC
:1011330000000000000000000000000000000000AC
:10114300000000000000000000000000000000009C
:10115300000000000000000000000000000000008C
:10116300000000000000000000000000000000007C
:10117300000000000000000000000000000000006C
:10118300000000000000000000000000000000005C
:10119300000000000000000000000000000000004C
:1011A300000000000000000000000000000000003C
:1011B300000000000000000000000000000000002C
:1011C300000000000000448145CB00000000000047
:1011D300000000000000000000000000000000000C
:1011E30000000000000000000000000000000000FC
:1011F30000000000000000000000000000000000EC
:1012030000000000000000000000000000000000DB
:1012130000000000000000000000000000000000CB
:1012230000000000000000000000000000000000BB
:1012330000000000000000000000000000000000AB
:10124300000000000000000000000000000000009B
:10125300000000000000000000000000000000008B
:10126300000000000000000000000000000000007B
:10127300000000000000000000000000000000006B
:10128300000000000000000000000000000000005B
:10129300000000000000000000000000000000004B
:1012A300000000000000000000000000000000003B
:1012B300000000000000000000000000000000002B
:1012C300000000000000000000000000000000001B
:1012D300000000000000000000000000000000000B
:1012E30000000000000000000000000000000000FB
:1012F30000000000000000000000000000FB0000F0
:10130300000000008B278A2889298C2A8D2B787A64
:101313007C017D017BFF7A1079E61236AEC20212A0
:101323003A201232EC2456604F24B070030218E2C4
:101333001470030218C8242F6003021DC9D202E9E6
:101343002407F9E43A78D27C067F061239569004D2
:10135300C3E0123920AB27E529240DF9E43528FA37
:10136300C003C002C001E52924011239A4AD03D092
:1013730001D002D0031232C61239D22405F9E43562
:1013830028FA7D1C1272F6AB279000041236A3B51F
:101393000702D204E52924051239A4AD277B017A7B
:1013A3000679DA7F051237377002D2051236B5FF98
:1013B300B43904D205800BEF64146004EFB419024E
:1013C300D204300405300402D203200303021DC9F2
:1013D300C204C205121E62123675753C03753D0CBC
:1013E3001236B5123689123E2012368E12713A7AAF
:1013F30001797A1237241236B512345F148F10151F
:101403001E11168614186E15186E161551171562CF
:1014130018157A1916621A166A1B16801F167B2274
:1014230014393917A741180D42183B43185844186B
:101433006E500000186C302E0302186E1274403088
:101443002802C2289006E2E0900185F0A37407F019
:10145300E570900188F0A3E571F090000C1236B8A6
:10146300900686F090000D12330512373E7F037EFF
:1014730000126D317B017A0679871237487F047E2B
:1014830000126D317F0A12756302154AE4900185DB
:10149300F090000B1236F0FF5407900185F0EF54E3
:1014A30001FF9006E2E0FE54016F6009900185E0C0
:1014B3004420F0802D90000B123305FC5402FDEE06
:1014C30054026D6009900185E04440F08014EC54AF
:1014D30004FF9006E2E054046F6007900185E04446
:1014E30080F090000B12377C123815E57664396072
:1014F3000BE576643A6005E576B43B12123A27FEB3
:101503009006E2E06EFEEF4E9006E1F0800BE5768A
:10151300B440069006E17401F0802C9006E2E0549A
:1015230007900185F0E4A3F0302E06E04401F0803B
:1015330007900186E054FEF0900186E0302B0544CD
:1015430002F0800354FDF0D204C20502186E752D1B
:1015530001D22E12395E1237487F057E008012E4D5
:10156300F52DC22EFB7A00792DF53D753E017F05E1
:10157300FE126D3102186E1236ED2460601614608F
:101583007314700302161C14700302162524A3603F
:1015930003021656E4F52D7B017A017988F554751B
:1015A300550C7F10FE1271D4E4F52D74017E00A852
:1015B3002D088005C333CE33CED8F9FF78D1E6FDAD
:1015C300EF5D6013E52D75F003A42488F582E43400
:1015D30001F583E05480F0052DE52DB404CDD2054B
:1015E300123675753C03753D1D90018E121DCA128E
:1015F300713A805F78CFE6FE08E6FF4E7002800CFA
:101603007C007D3C123378C378D8E69F900188F044
:1016130078D7E6900189F0803A78CEE6900188F099
:1016230080317B017A0179887554007555067F32C4
:101633007E001271D4900186E0302E054401F080C3
:101643000354FEF0900186E0302B054402F0800342
:1016530054FDF01236ED900187F0D20402186E1299
:101663001E32532D808006121E32432D7F12395EA7
:101673001237487F3202184FD20402186E12628367
:1016830002186EE4F52D1236ED245F700302174540
:1016930014700302177014700302179C2403600371
:1016A3000217A2E4F52D123A201238DE1233056434
:1016B300807031AF2D04A807088002C333D8FC78AB
:1016C300D146F6AB271238DEE5292582F9E5283520
:1016D30083FA1232EC1239658002C333D8FC4F12FD
:1016E30033328012AF2D7401A807088002C333D8A8
:1016F300FCF478D156F6052DE52D640470A8123755
:10170300AA753D00753E0C121E57123675753C03C3
:10171300753D4B90001412377C753E00F53F9000E9
:1017230015123305754000F5419000161233057507
:101733004200F54312368E123E2012368E12713A53
:10174300805D1237EDFF78D66014E64402F678D850
:10175300A60790000F12330578D7F6E48008E65405
:10176300FDF6E478D8F678CFF608F680321237ED36
:10177300FF78D6600BE64401F678CEA607E480082E
:10178300E654FEF6E478CEF678D2F608F6121E1288
:101793007F0C7E00126D3180061237AA121E46D2CC
:1017A3000402186EE4F52D90000C1237F0F52EE4C8
:1017B300F52DAF2DE52EA807088002C313D8FC3002
:1017C300E03BE52DFD7C002406FFEC33FEED240E0B
:1017D300FDEC33FCAB27E5292DF9E5283CFA12375C
:1017E30048126D31740E252DF582E433F583AB2752
:1017F3001236A3FF7472252DF8A607D21F052DE517
:101803002DC3940340ACD2048061E4F52DF52DE59E
:101813002D2406FFE433FE7488252DF9E43401FA00
:101823007B017554007555011271D4052DE52DC347
:10183300940340DBD20480331237AAC002C001787C
:10184300A87C067D01D001D0021238457E00126DBE
:1018530031D20480161237AA7554007555027F38A9
:101863007E001271D4D2048002C204200403021D3C
:10187300C9E4F52DC204A202920675330175340141
:1018830075357A75362175370A1236B5F538A205DE
:101893009207125D1B8F2D900323E004F09003AA9F
:1018A300E52AF0A3E52BF0E52C123769AF2D7A0179
:1018B300797A1237859003A8E52D1238BB44FAFFD5
:1018C300E41239DD227F06127563123675753C0307
:1018D300753D7E12368E123E2012368E12713A7884
:1018E3003C7C017A1179857F3E1236F91239D22474
:1018F30001F9E43528FAC002C0011236A024FEFD26
:10190300D001D0021272F612369E7C0024FFF582BB
:10191300EC34FFF583123305B50702D203E529241E
:10192300021239A4AD277A0679DA7F051237E470FB
:1019330002D204200303021DC9200403021DC9AB04
:1019430027E529240FF9E43528783C7C017F3E12F2
:101953003956123A20900008123305245E700302B0
:101963001DA8046003021DC9787F7C117DFF123717
:10197300DE7003021D829003237414F078767C04D6
:101983007A01793C7F061237D512369E7E0024FEFB
:10199300F582EE34FFF583123305FF655C60048F37
:1019A3005CD205200503021DC9121E6290013CE0B2
:1019B30030E0729006E2E0FC5407FE900142E054EE
:1019C300076E6036E05407123815E5766439600B0C
:1019D300E576643A6005E576B43B14123A276CFE6B
:1019E300EF4E9006E1F09006E3E04401F0800BE552
:1019F30076B440069006E17401F0123675753C0327
:101A0300753D999006E2E0753E005407F53F90015D
:101A130042E05407754000F54112368E123E201203
:101A2300368E12713A90013CE030E25190015EE053
:101A330078D6603CE64402F6E078D8F6A3E078D79F
:101A4300F6E478CFF608F6FE7F40FDFB12367D758F
:101A53003C03753DCC78D8123A0278D7E67540003E
:101A6300F54112368E123E2012368E12713A800DD7
:101A7300E654FEF6E478D8F678CFF608F690013C03
:101A8300E030E717D219123675753C03753DFA122B
:101A9300368E123E2012368E12713A90013CE0309F
:101AA300E146E4F52DFE7F40FDFB12367D753C04D7
:101AB300753D1D900143E0FFC31354011236891293
:101AC3003E2012368E12713A900143E030E10775E1
:101AD3002D01D22E8005E4F52DC22E12395E123768
:101AE300487F057E00126D3190013CE030E47AE4DA
:101AF300F52DFE7F40FDFB12367D753C04753D4C94
:101B0300900146121DCA12713AE4F52D1238EEE027
:101B130064807029AF2D04A807088002C333D8FC62
:101B230078D146F61238EEC083C082E01239658060
:101B330002C333D8FC4FD082D083F08012AF2D7410
:101B430001A807088002C333D8FCF478D156F60500
:101B53002DE52D640870B57B017A017946753D004A
:101B6300753E18121E5712760A90013CE030E33B93
:101B7300123675753C04753D8790016012368812E4
:101B83003E2012368E12713A900160E078D66006DC
:101B9300E64401F68004E654FEF6900160E078CE58
:101BA300F6121E127F0C7E00126D3190013CE03064
:101BB300E565782D7C007A1179C37F061238A91266
:101BC3003675753C04753DB7900161121DEE1271B7
:101BD3003A123675753C04753DF3900164121DEE9F
:101BE30012713A900161E06005432D7F8003532D0C
:101BF30080900162E06005432D808003532D7F9028
:101C03000163E0F52EA3E0F52FA3E0F531A3E0F5A2
:101C13003212395E121E4690013CE030E633123632
:101C230075753C05753D06900167123890A3123A0D
:101C33001212368E123E2012368E12713A78A87C1A
:101C4300067D017B017A0179671238457E00126DAA
:101C53003190013DE030E037123675753C05753D36
:101C630045900143E0FFC4135401123689123E200C
:101C730012368E12713A900143E0FFC413540713D6
:101C83009227302707E49006B7F080031274409040
:101C9300013DE0C31354077003021D38E490013B78
:101CA300F0FE7F40FDFB12367D753C05753D7D9052
:101CB300013DE0FFC3135407753E00F53F90016AF1
:101CC300123879A3123A1912368E123E2012368E2A
:101CD30012713AE490013BF090013BE0FFC394039F
:101CE30050511239AC8005C333CE33CED8F9FF90AF
:101CF300013DE0C3135407FDEF5D602F90013BE00E
:101D0300FD2406FFE433FE746A2DF9E43401FA126C
:101D13003746126D3190013BE0FF246AF582E434CB
:101D230001F583E0FE74722FF8A60690013BE004F0
:101D3300F080A5D21F90013DE020E403021DC912EB
:101D43003675753C05753DD190016D123688123E8E
:101D53002012368E12713A90016DE0FF9006E6F084
:101D6300BFFF02E4F07B017A0679E61237487F0968
:101D73007E00126D319006DF7401F0A304F0227F20
:101D8300067A04797612377330193B123675753C2F
:101D930006753D0912368E123E2012368E12713AA6
:101DA300C219026283781D7C037D011237DE600451
:101DB3007560A2229005497414F07F067A03791D99
:101DC30012381E7560A122E0753E00F53FA3E07551
:101DD3004000F541A3E0754200F5437B007A0079AA
:101DE3007E123E207B007A00797E22E0753E00F56C
:101DF3003FA3E0754000F541A3E0754200F5437B46
:101E0300007A00797E123E207B007A00797E227B65
:101E1300007A0079D6753D00753E017F0B7E001276
:101E23006D317B007A0079CE753D00753E0122E469
:101E3300F52DFB7A00792DF5547555017F32FE128D
:101E430071D422753D00753E067F327E00126D31DE
:101E53001275F3227F107E00126D311275EA227B18
:101E6300017D327F031273DA2278097C007D017BC6
:101E7300FF7A1179CD1236AE78A27C007D017BFF0B
:101E83007A1279661236AE900685E07006740AF00F
:101E9300125A2FE55D24FE70030226B81470030264
:101EA30026C11470030226E51470030226E8147099
:101EB300030226EE240560030226FD900474E0FF6E
:101EC30030E003022704301A2DC21AC2047F0C7EAD
:101ED300647DFE7C221255AC126F07123671753C7D
:101EE30006753D2E85703E85713F12368E123E205B
:101EF30012368E12713AE51FB40603127440900431
:101F030081E07023751E01302802C22890031CE073
:101F1300D3941E4017E4F01239FB7BFF7A0679470E
:101F230012713A755D0322E490031CF090049FE064
:101F3300FF900490E02FFFE433FE9004AEE07C00BA
:101F43002FFFEC3EFE78C0F608EFF64E700302203A
:101F530057900324E07002A3E0600302205778C087
:101F63007D0312385B78BEA60408A605ED4C7032DB
:101F7300FE7F40FDFB12367D753C06753D82900465
:101F83009012389090049F123A129004AE12388047
:101F9300900482123A1912368E123E2012368E1295
:101FA300713A78BEE6FA08E6FB123972EA12376034
:101FB300E0701A06E618700106123A31FF7C007DC4
:101FC3000312337878BEA60408A60580D5123A31E9
:101FD300FF123972EE123760E014F090049075F03E
:101FE3000FEF123453EE123760E0FF18E6FC08E6F9
:101FF300FD90048375F00F12375CEFF090048E129E
:102003003758E0FEA3E0FFC006C00790048D1237E7
:1020130058E0FDC0057C007D0FAF03AE02123366AE
:1020230074822FF974043EFA7B01123A3190048CC6
:10203300123975EE123760E0F531D005D007D006BE
:102043001270109012FFE493FF740193900324CF56
:10205300F0A3EFF0201E0302231490047CE060033E
:10206300022314900007F0C21EB21BFEFD7A007912
:10207300091239B49006E2E05407FF9003B5E05427
:10208300F84FF09006E3E030E02954FEF09003B5FA
:10209300E0541FFFF0E0FE9006E4E0FDEEC41354AD
:1020A30007FEEF541FFFED4E5407C43354E04F9027
:1020B30003B5F0A22CE4335401FF9003B6E054FEC1
:1020C3004FFFF0A22EE433540125E0FEEF54FD4E02
:1020D300FFF078D6E6FE5402C313540125E025E051
:1020E300FDEF54FB4DFFF0EE540133333354F8FE50
:1020F300EF54F74EFFF0A22BE4335401C454F0FE27
:10210300EF54EF4EFFF0A227E4335401C43354E0FD
:10211300FEEF54DF4EF0E4900000F07B017A037988
:10212300B9F5547555187F10FE1271D4E490000070
:10213300F0900000E0FFC3940850311239AC8005E1
:10214300C333CE33CED8F9FF78D1E6FDEF5D60140B
:10215300900000E075F003A424B9F582E43403F59C
:10216300837480F0900000E004F080C578CF7D3C5C
:1021730012385BC378D8E69F9003D1F078D7E6A3F3
:10218300F078CEE6A3F078017C007A1379017F061C
:102193001236957B017A007901126702900001E003
:1021A300FF547FFEBE7F089003D47401F08005E4E2
:1021B3009003D4F0EFC4131313540130E0089003D9
:1021C300D57401F08005E49003D5F0900002E0138C
:1021D3001313541F9003D6F0900003E09003D7F03D
:1021E300900005E0131313541F9003D8F0900006DA
:1021F300E09003D9F078DA7C037D017B017A0679DC
:10220300A87E007F021232C6E49003DCF07B017AE1
:102213000379DDF5547555037F06FE1271D4E57617
:1022230024C070089006E6E09003E0F0E560245EC9
:10223300601104702178AF7C037D017B017A0479FE
:1022430076800C78AF7C037D017B017A03791D7E58
:10225300007F061232C6E4900007F01236DE74FAED
:102263001236DAE41239BB7D011236C1900007E061
:102273002406F01236DEE5601236DAE576F0E57014
:102283001237B71236E5EFF01237B81236E5E571BB
:102293001236DA7407F09006861237B61236E5EF77
:1022A300F09006871237B61236E5EF1239BBA80154
:1022B300FC7A0379AF7F3E1237D5900007E0243EC6
:1022C300F0E004F0E090000AF07B017A00790A2440
:1022D300FEFD1272F6900007E02408F582E4340054
:1022E300F583EFF0E49003AAF0A3F0740D123769BD
:1022F300900007E0FF7A007909123785900007E024
:102303009003A81238BBFFEF44F4FF74011239DDC8
:10231300229006E3E0FF30E03AD200C201E49000ED
:1023230008F0EF54FE9006E3F0A3E054E0C4135426
:1023330007C43354E0FF9003B5E0541F4FF09003FC
:102343001DE04401F07560A29005497402F090030A
:1023530023F0229006E1E070030224E6E55D6401C8
:1023630060030224E6E57624C724FD500A24FC70AA
:10237300030224900224E6E478C2F678C2E6FFC39F
:10238300940340030224E61239AC8005C333CE33F1
:10239300CED8F9FF9006E1E0FDFBEF5B700302246A
:1023A3008A78C2E6FC7401A804088002C333D8FC0F
:1023B300F45D9006E1F09006E2E0FFA804088002D5
:1023C300C313D8FC5401900009F078C2E62472F8D4
:1023D300E6FFD39410500302248AEF94FF400302D4
:1023E300248AE0FF78C260081237F9740AF0800685
:1023F3001237F9740BF078C2E6FE24ACF582E434AC
:1024030003F583EF123916EE75F00FA4248EF582CF
:10241300E43404F58374FFF0A3F074722EF8E6FF3E
:10242300EE75F00FA4248DF582E43404F583EFF008
:1024330090000A7D0078C2E675F00FA42482F97437
:102443000435F0FAAE83AF82123A38FF78C2E6FE63
:1024530075F00FA42482F582E43404F583EFF0EEE3
:1024630075F00FA42483F582E43404F583E4F0EEDD
:1024730075F00FA4248CF582E43404F5837402F020
:10248300EE1237C7741EF078C20602237E9006E16F
:10249300E06401704EF0E572D394104046E5729407
:1024A300FF50409006E2E0900009F0900318F0908E
:1024B30003AC12391674FF90048EF0A3F090048DD0
:1024C300E572F07E007F0A7D007A047982123A3841
:1024D300900482F0E4A3F090048C7402F0900490D2
:1024E300741EF020210302270712398F600302268E
:1024F300887A1179C91238FE60030226889004B7DE
:10250300E0FDA3E0FEEDFF78C5EEF6FE08EFF6A3CF
:10251300E008F6A3E008F6EF4E700C1239FBE51E57
:1025230064046003E4F51E7F997A0079A212381ED1
:102533009004C378A27C007D017A0479C41238B276
:1025430078C7E6FFD394105003022654EF94FF405C
:10255300030226549006E2E078C3F6E408F6123943
:1025630017123675753C06753DAE78C7123A029060
:1025730000A212387912368E123E2012368E127154
:102583003AE57624C724FD500A24FC70030226177B
:10259300022645E478C4F678C4E6FFC394034003F7
:1025A30002264574722FF8E6FF78C7667061EF6004
:1025B3005E1237C3E0FE9000A3E0D39E50030226D1
:1025C300457401A807088002C333D8FCF478C356C6
:1025D300FEF69000A2E0FDA807088002C333D8FCF2
:1025E3004E123815ED78C460081237F9740AF0807A
:1025F300061237F9740BF01237C3E4F09000A2E02F
:10260300FE74AC2FF582E43403F583EEF080337867
:10261300C406808378C7E6B57228E5726024900407
:1026230090E0FF9000A3E0D39F40179000A2E0FF4B
:10263300123815900318EFF0E4900490F09003AC77
:10264300EFF09006E3E04401F090031DE04404F052
:102653002278C7E624F36010146024240260030286
:102663002707123A42026FD178C5E6FC08E6FD4C13
:102673006003022707123A4208E6F52C02130712F9
:102683003A42024EB7123991707A7A1179CB1238E5
:10269300FE70719004B3E0FF600312745812367534
:1026A300753C06753DED9004B3123688123E201238
:1026B300368E02713A751E03C228D2028014751E2B
:1026C30002C228302D0F78DAE618466003C2A3222F
:1026D300C202024472C2A3900474E030E026D2A383
:1026E300801F0247BD751E05025F9F751E01900482
:1026F3007EE0701030200D026283900474E030E0BD
:10270300031238D622C0E0C0F0C083C082C0D075A7
:10271300D000C000C001C002C003C004C005C00691
:10272300C007D390769D740193956DE493956C40A7
:102733000A056DE56D7002056C807B756C00756D27
:1027430000056EE576644070639006E7E060481428
:1027530060211470579006E6E0FF60509006E5E0B4
:10276300C39F502C126A25C39F40419006E5E004A5
:10277300F080399006E6E060339006E5E0D39400FC
:10278300400E126A259F40249006E5E014F0801C59
:102793009006E7E4F080159006E2E06402600D9095
:1027A30006DF7402F0A3126A2E126A4C126A25C362
:1027B3009F4003756E0090769CE493FFE56BC39F87
:1027C3005005056B022870756B00900326E07002BC
:1027D300A3E0600E900327E024FFF0900326E0348B
:1027E300FFF030170A0567E567700A05668006750E
:1027F30066007567009006EDE07002A3E0600E903E
:1028030006EEE024FFF09006EDE034FFF09006EAD8
:10281300E07002A3E0600E9006EBE024FFF0900668
:10282300EAE034FFF09006ABE07002A3E0600E90A4
:1028330006ACE024FFF09006ABE034FFF0900324F5
:10284300E07002A3E0600E900325E024FFF0900304
:1028530024E034FFF09006EFE07002A3E0600E90F6
:1028630006F0E024FFF09006EFE034FFF0D390761B
:102873009A740193956AE4939569400B056AE56A36
:1028830070020569022A0F756900756A00201E1916
:10289300900549E0FF900323E0C39F5005E004F057
:1028A3008007900323E4F0D21E78D6E6FB30E1766E
:1028B30078D8126A3778D0E69F18E69E5009080642
:1028C300E618700106805F78CF760008760078D826
:1028D3007600EB54FD78D6F69006E07402F078D7D4
:1028E300E69006DF126A2E90031DE04404F0E576BD
:1028F3006439600BE576643A6005E576B43B121201
:102903006A53FE9006E2E06EFEEF4E9006E1F08021
:1029130008E576B44003126A4C9006F1E04401F0F6
:102923009006F47402F078D6E630E05F9006E2E0B9
:10293300FB605878CE126A3778D3E69F18E69E502C
:10294300090806E618704406804178D276000876B6
:10295300009006E07402F09006DFE4126A2E900302
:102963001DE04408F0E5766439600BE576643A606F
:1029730005E576B43B0D126A536BFEEF4E9006E10C
:10298300F08008E576B44003126A4C78DAE618461C
:10299300600708E6161870011690047CE0600214C4
:1029A300F090031BE0600214F078D506E61870017E
:1029B300069006B7E0600530280214F0900685E023
:1029C300600214F09006B0E0600214F0900480E01E
:1029D300600214F090047DE0600214F09006F5E0CC
:1029E300600214F09006BEE0600214F090047EE0F2
:1029F300600214F09006A7E0600214F0900481E0F6
:102A0300600414F0800690031CE004F0301D6AE5B6
:102A13005EC3940A5004055E805F20215AE55FC3BC
:102A230094054053D2217E007F997DFF7B017A0478
:102A330079AF12363578AF7C047D017B017A057955
:102A43004A7E007F991232C6900548E55FF09004F4
:102A5300B0E02405FFE433FEE55F6F7001EE60171D
:102A63009006F1E04401F090054BE09006F2F0A3EC
:102A7300E55FF0A37401F0C21D9006D0E0FFA3E070
:102A8300C39F5006E004F0022B379006D1E4F09088
:102A930006AAE024FE6049147003022B2824026076
:102AA30003022B359006B8E054079006D0F0FD9052
:102AB30006B9E075F014A4FFAEF07C0012337890F1
:102AC30006BFEEF0A3EFF09006BAE0541F25E090A6
:102AD30006C3F0126A44D2319006AA7402F08054FD
:102AE3009006C3E060379006BFE0FEA3E0FFC3900B
:102AF30006C2E09F9006C1E09E5017A3E004F07069
:102B0300069006C1E004F0303104B2B28026D2B29E
:102B13008022126A44B231A3E014F080179006AA0F
:102B23007403F0800F126A44D231D2B29006AAF035
:102B33008002D2B29076A0E493FFE56FD39F500357
:102B4300022BCE756F009006ADE09006C41269F8B3
:102B53009006AEE09006C51269F89006AFE09006C5
:102B6300C6126A019006B1E09006C7126A01900688
:102B7300B2E09006C8126A0A9006B3E09006C91242
:102B83006A0A9006B4E09006CA126A139006B5E08A
:102B93009006CB126A139006B6E09006CC126A1C1C
:102BA3009006BBE09006CD126A1C9006BCE0541F51
:102BB300FF9006CEE054E04FF09006BDE0541FFFB7
:102BC3009006CFE054E04FF0022D05056FE56FD37B
:102BD30094004062E56FD39420505B9006C4E0FFFD
:102BE300541F600CE57530E0071269EDC2A0800246
:102BF300D2A09006C7E0FF541F600CE57530E107D3
:102C03001269EDC2A68002D2A69006CAE0FF541F45
:102C1300600CE57530E2071269EDC2818002D28152
:102C23009006CDE0FF541F60081269EDC2CD022D5E
:102C330005D2CD022D05E56FD394204060E56FD317
:102C4300944050599006C5E0FF541F600CE5753061
:102C5300E0071269EDC2A18002D2A19006C8E0FF8D
:102C6300541F600CE57530E1071269EDC2A58002BF
:102C7300D2A59006CBE0FF541F600CE57530E20748
:102C83001269EDC2808002D2809006CEE0FF541F0D
:102C930060071269EDC2CC8069D2CC8065E56FD341
:102CA3009440405EE56FD3946050579006C6E0FFB2
:102CB300541F600CE57530E0071269EDC2A2800273
:102CC300D2A29006C9E0FF541F600CE57530E107FE
:102CD3001269EDC2A48002D2A49006CCE0FF541F77
:102CE300600CE57530E2071269EDC2A78002D2A736
:102CF3009006CFE0FF541F60071269EDC283800284
:102D0300D283D007D006D005D004D003D002D0019F
:102D1300D000D0D0D082D083D0F0D0E0320269008E
:102D230000016B00026C0000016E00016F0043069E
:102D3300C40000004306C70000004306CA000000A9
:102D43004306CD0000004106D0034106D1004206F0
:102D5300BF01F44206C100004106C308C1B10176B8
:102D63004001750103720000000270000020407EE4
:102D73000000000000000000000000000000000050
:102D83000000000000000000000000000000000040
:102D93000000000000000000000000000000000030
:102DA3000000000000000000000000000000000020
:102DB3004606D90000000000004606D201010101C9
:102DC30001014106D800C12EC12D4306AD0000000C
:102DD3004306B10000004306B40000004306BB00F5
:102DE30000004206A80000C1A7011F00011E004207
:102DF30006AB00004106B73CC1284106B0004106BE
:102E0300BE004106A7004306B80000004106AA0021
:102E130002080000C1224106A600010A1FC1A30146
:102E23000B00010C00C1A4010D00010E00010F00F5
:102E3300011000011100011200C1A50113000114CA
:102E430000011500011600011700C1260118000139
:102E53001900011A00011B00011C00011D0044069A
:102E6300F10000000060840328000000000000005F
:102E7300000000000000000000000000000000004F
:102E8300000000000000000000000000000000003F
:102E9300000000000000000000000000000000002F
:102EA300000000000000000000000000000000001F
:102EB300000000000000000000000000000000000F
:102EC30000000000000000000000000000000000FF
:102ED30000000000000000000000000000000000EF
:102EE30000000000000000000000000000602D044E
:102EF300820000000000000000000000000000004D
:102F030000000000000000000000000000000000BE
:102F13000000000000000000000000000000420369
:102F2300240000608403EE000000000000000000A5
:102F3300000000000000000000000000000000008E
:102F4300000000000000000000000000000000007E
:102F5300000000000000000000000000000000006E
:102F6300000000000000000000000000000000005E
:102F7300000000000000000000000000000000004E
:102F8300000000000000000000000000000000003E
:102F9300000000000000000000000000000000002E
:102FA3000000000000000000000000420472000066
:102FB300603E03AF000000000000000000000000BE
:102FC30000000000000000000000000000000000FE
:102FD30000000000000000000000000000000000EE
:102FE30000000000000000000000000000000000DE
:102FF300000046047600000000000046031D0000A8
:10300300000000000160A14204740000C11FC11C44
:10301300420326000002D9001442047F0000C11EAF
:10302300410323004105491441047C0041047D030D
:103033004303180000004303AC0000004103ED000C
:1030430041031B00C121C11D015E00015F00609AA5
:1030530004AF0000000000000000000000000000BA
:10306300000000000000000000000000000000005D
:10307300000000000000000000000000000000004D
:10308300000000000000000000000000000000003D
:10309300000000000000000000000000000000002D
:1030A300000000000000000000000000000000001D
:1030B300000000000000000000000000000000000D
:1030C30000000000000000000000000000000000FD
:1030D30000000000000000000000000000000000ED
:1030E300000000000000000000000000015D00413E
:1030F30004811E41031C0041047E00C120410314CE
:10310300004103150041031600410313FF0156005C
:1031130001570001580001590041031700025A00EA
:1031230000015C00C119C11BC19A01DB00C198C138
:1031330017026600004206ED00004206EA00004165
:1031430006EC014206EF0000016800016500C10FB3
:10315300C110C1110161000162004106E900016370
:1031630000C112C113C1140164004106E802410603
:10317300E2004206DF00034106E100C12F4206E3FD
:103183000000C1304306E500000047067E00000052
:10319300000000004106850A4106860841068700B3
:1031A30002D4000001D100C12CC12B01D60002CFF3
:1031B300000001D80001D70002D2000001CE0002B6
:1031C300CC000058068E0000000000000000000044
:1031D30000000000000000000000000000004606A0
:1031E3008800000000000042067C0000C12941065F
:1031F300F50000E709F608DFFA8046E709F208DF81
:10320300FA803E88828C83E709F0A3DFFA8032E3F9
:1032130009F608DFFA8078E309F208DFFA8070889C
:10322300828C83E309F0A3DFFA806489828A83E0D6
:10323300A3F608DFFA805889828A83E0A3F208DFC5
:10324300FA804C80D280FA80C680D4806980F28074
:1032530033801080A680EA809A80A880DA80E2809A
:10326300CA803389828A83ECFAE493A3C8C582C8EF
:10327300CCC583CCF0A3C8C582C8CCC583CCDFE959
:10328300DEE7800D89828A83E493A3F608DFF9ECF5
:10329300FAA9F0EDFB2289828A83ECFAE0A3C8C580
:1032A30082C8CCC583CCF0A3C8C582C8CCC583CCA7
:1032B300DFEADEE880DB89828A83E493A3F208DF16
:1032C300F980CC88F0EF60010E4E60C388F0ED24E6
:1032D30002B4040050B9F582EB2402B4040050AFE9
:1032E300232345822390324673BB010689828A8356
:1032F300E0225002E722BBFE02E32289828A83E4B2
:103303009322BB010CE58229F582E5833AF583E03C
:10331300225006E92582F8E622BBFE06E92582F85B
:10332300E222E58229F582E5833AF583E49322BB21
:10333300010689828A83F0225002F722BBFE01F341
:1033430022F8BB010DE58229F582E5833AF583E88E
:10335300F0225006E92582C8F622BBFE05E9258244
:10336300C8F222EF8DF0A4A8F0CF8CF0A428CE8D64
:10337300F0A42EFE22BC000BBE0029EF8DF084FFCB
:10338300ADF022E4CCF875F008EF2FFFEE33FEEC3E
:1033930033FCEE9DEC984005FCEE9DFE0FD5F0E965
:1033A300E4CEFD22EDF8F5F0EE8420D21CFEADF064
:1033B30075F008EF2FFFED33FD4007985006D5F069
:1033C300F222C398FD0FD5F0EA22E88FF0A4CC8B4C
:1033D300F0A42CFCE98EF0A42CFC8AF0EDA42CFCC8
:1033E300EA8EF0A4CDA8F08BF0A42DCC3825F0FD07
:1033F300E98FF0A42CCD35F0FCEB8EF0A4FEA9F000
:10340300EB8FF0A4CFC5F02ECD39FEE43CFCEAA44B
:103413002DCE35F0FDE43CFC22EB9FF5F0EA9E4215
:10342300F0E99D42F0E89C45F022E8600FECC313FD
:10343300FCED13FDEE13FEEF13FFD8F122E8600F4E
:10344300EFC333FFEE33FEED33FDEC33FCD8F12253
:10345300A42582F582E5F03583F58322D083D082DB
:10346300F8E4937012740193700DA3A393F874019D
:1034730093F5828883E4737402936860EFA3A3A334
:1034830080DF8A838982E473E3F5F009E208B5F00B
:103493006BDFF58067E3F5F009E608B5F05EDFF56D
:1034A300805A87F009E608B5F052DFF6804E87F0C0
:1034B30009E208B5F046DFF6804288828C8387F004
:1034C30009E0A3B5F036DFF6803288828C8387F07B
:1034D30009E493A3B5F025DFF5802188828C83E38B
:1034E300F5F009E0A3B5F014DFF5801088828C8332
:1034F300E3F5F009E493A3B5F002DFF40235BA80F3
:103503008780E9809080D4803E8015806E807E80A5
:103513009D80B7808D80A380518074803C0235C626
:1035230089828A83ECFAE493F5F0A3C8C582C8CCF8
:10353300C583CCE493A3C8C582C8CCC583CCB5F0FE
:1035430076DFE3DEE1807089828A83E493F5F0A37A
:10355300E208B5F062DFF4805E89828A83E0F5F0E9
:10356300A3E608B5F051DFF5804D89828A83E0F543
:10357300F0A3E208B5F040DFF5803C89828A83E45A
:1035830093F5F0A3E608B5F02EDFF4802A800280DD
:103593005789828A83ECFAE493F5F0A3C8C582C8FD
:1035A300CCC583CCE0A3C8C582C8CCC583CCB5F059
:1035B30006DFE4DEE280007FFFB5F0020F22400267
:1035C3007F012289828A83ECFAE0F5F0A3C8C582E1
:1035D300C8CCC583CCE0A3C8C582C8CCC583CCB551
:1035E300F0D5DFE5DEE380CF89828A83ECFAE0F56C
:1035F300F0A3C8C582C8CCC583CCE493A3C8C58255
:10360300C8CCC583CCB5F0AFDFE4DEE280A988F097
:10361300EF60010E4E60ABED2402B404005098F548
:1036230082EB2402B40400508E2323458223903579
:103633000273EF4E6012EF60010EEDBB010B898246
:103643008A83F0A3DFFCDEFA2289F05007F709DF53
:10365300FCA9F022BBFEFCF309DFFCA9F022FAE689
:10366300FB0808E6F925F0F618E6CA3AF6228E704A
:103673008F717E007D007B007F407A00797E123659
:1036830035753BFF22E0753E00F53F7B007A0079FC
:103693007E227D017BFF7E000232C6AB27900001B4
:1036A300AA28A9290233057D017BFF7E007F9902A9
:1036B30032C6900003AB27AA28A929023305A80123
:1036C300FC7A0679DA7F057B017E000232C67D0132
:1036D3007BFF7E000232C6F0900007E0FF04F07427
:1036E300092FF582E43400F5832290000DAB27AA5D
:1036F30028A9290233057D017BFF7E000232C6A380
:10370300E0FFE4FCFDFE123440E52D4FF52DE52CE2
:103713004EF52CE52B4DF52BE52A4CF52AA3E0FFBE
:10372300227E007F997D007B0102363578B17C04CF
:103733007D017F027E00123611EF22900687F07A18
:103743000679867B01753D00753E01227D017BFF75
:103753007E000232C675F00FED123453EC75F00F94
:10376300A42583F583229003A9F07F807A03792827
:103773007E007D007B01023635AB27AA28A92902EA
:1037830033057E0078287C037D017B010232C690DD
:103793000687E0FFE4FCFDFE7B3CFAF9F80233CD3B
:1037A3007D017BFF0232C6AB27E529240EF9E43500
:1037B30028FA22E0FF900007E0FE04F074092E22AD
:1037C30078C4E6FF75F00FA42490F582E43404F581
:1037D30083227D017B017E000232C67A01793C7F20
:1037E300067B017E00123611EF2290000EAB27AA52
:1037F30028A929023305E62418F582E43403F58366
:1038030022FFE434FFFEE4FCFD7B107A0EF9F8029C
:1038130033CD9006DFF0A37402F0227E007D007B9F
:1038230001023635E4F558F557900473E054FEF081
:10383300E4900472F0A3E05401F022AB33AA34A95C
:1038430035227E007F021232C67B017A0679A87583
:103853003D00753E027F3822E6FE08E6FF7C00024B
:103863003378E493F540754102A3E493F542740180
:1038730093F5437BFF22E0754000F541A3E07542D9
:1038830000F543227B017A0479AF7D9922E0753EEE
:1038930000F53F227E007C00E5482552F9EC3547D0
:1038A300A801FCAD46227D007BFF7E000232C6E00C
:1038B300FF7E007B010232C6F0E490046EF09004B8
:1038C30073E04401F0E0540122F9E43534A801FC2B
:1038D300AD332254FEF0A3E0F55D2275F003E52D30
:1038E300A4240EF582E435F0F58322E52D75F0036B
:1038F300A42446F582E43401F5832278B17C047B69
:10390300FFFE7F027D01123611EF228F8275830045
:10391300023305F090047D7403F022E53624F3FFAF
:10392300E434FFFE22900314E075F086A422E493AE
:10393300FF740193900326CFF0A3EF227D017BFF59
:10394300FE1232C6E422D2A39003267417F0A374A6
:1039530070F022FA7D017E000232C67B007A007984
:103963002D22FF900680E014FE7401A80608229021
:10397300049075F00F023453754402754501754682
:103983002C7BFF22FC12342DA3EFF022C2219004E2
:10399300AFE064FE22900475F0900474E04401F0FB
:1039A30022F9E43528A801FC2274017E00A8070847
:1039B300227F997B01023635F0900007E02409F954
:1039C300E4340022C2A3900326E4F0A374C822C205
:1039D30003C204C205AB27E52922900472F0A3EFCA
:1039E300F0755D0422F9E43AFA7D010232C6AF5262
:1039F30005528F8275830022900481741EF022E6A3
:103A0300753E00F53F22AB27AA28A9290232ECE034
:103A1300754000F54122E0754400F54522AB27AA25
:103A230028A929229006E1E0FF9006DFE02278BE74
:103A3300E6FE08E6227B01123635900009E0227B80
:103A4300017A0079A222302B11E51F64036006E599
:103A53001F64027031751F04802CE51FB404031228
:103A63007440E51FB40206202803751F039006B7B0
:103A7300E07013E51FB4030E30280B3027087F0FC7
:103A8300126BA4751F02E51F14B408004003023D26
:103A930003903AA275F003A4C58325F0C58373028E
:103AA3003ABA023ABD023AC0023AC0023CBC023CF6
:103AB300D7023CDF023CDC020003024CBE9006E26C
:103AC300E0FFF527E576B4390DEF54014227E527EA
:103AD30025E0F527803FE576B43A169006E2E0FF4D
:103AE30054024227E52725E0F527EF5401422780BA
:103AF30024E576B43B02800BE57664406005E57609
:103B0300B43D089006E2E0F527800AE576B43C056B
:103B130012751A8F27E57624C0705FE52724FC60B1
:103B23002024037038124B189006A9123D07124B3C
:103B330096541FF52B7F01123D95FB9006A8023B7F
:103B4300F9124BAB9006A8124B2E9006A8123D0714
:103B53009006A9123D4FFB9006A9023BF9124B18A0
:103B6300541F124B96541FF52BE4FF123D959006FC
:103B7300A8123D4FFB9006A9807CE57530E01EE559
:103B83002730E00E124BAB124C98124B31124C9F64
:103B93008006124B18124CA6124B9A8003124BF458
:103BA300541FF52BE4FF126C76E57530E11EE52713
:103BB30030E10E124BAB124C98124B31124C9F80DA
:103BC30006124B18124CA6124B9A8003124BF45454
:103BD3001FF52B7F01126C76E57530E21EE5273069
:103BE300E20E124BAB124C98124B31124C9F8006D3
:103BF300124B18124CA6124B9A8003124BF4541F0B
:103C0300F52B7F02126C76E51EB404089006B0E033
:103C13007002F51ED3906DCE7401939509E49395CC
:103C23000840090509E5097002050822B222E4F5F6
:103C330008F509E51E146026146029146051146008
:103C43000E14605D2405706DE4F52B7B1E803DE44E
:103C5300302206F52B7B1E8003F52BFB802EE4F52B
:103C63002BFB8020302D2178DAE618466011E430F2
:103C73002207F52BFB7D1E8026F52BFBFD8020E420
:103C8300F52B7B0A7D1E8028E4F52BFBFD8021E4C8
:103C9300302208F52B7B0A7D1E8004F52BFBFD806B
:103CA3000FE4302207F52BFB7D1E8004F52BFBFD73
:103CB3007F03026C76E4F51E229006B0E060047F79
:103CC300018013124C46123635753BFF753C6D75FA
:103CD3003D868020E4FF0250AB0269049006BEE0FB
:103CE3006003027206124C46123635753BFF753C73
:103CF3006D753D96124C4F123E20124C4F02713A95
:103D0300751F0322541FFBE075F003A424AFF58253
:103D1300E4346DF583E493541FF52BE4FF126C76C2
:103D23009006A9E075F003A424ADF582E4346DF5A3
:103D330083E493541FFD9006A9E075F003A424AE19
:103D4300F582E4346DF583E493541F22FBE075F0B0
:103D530003A424AFF582E4346DF583E493541FF593
:103D63002B7F01126C769006A9E075F003A424ADB5
:103D7300F582E4346DF583E493541FFD9006A9E0C6
:103D830075F003A424AEF582E4346DF583E4935413
:103D93001F22126C769006A8E075F003A424ADF5FB
:103DA30082E4346DF583E493541FFD9006A8E07517
:103DB300F003A424AEF582E4346DF583E493541F39
:103DC30022E547243BF8E60547227838300D027890
:103DD3003BE475F0011236610232EC2006EB7F2ED4
:103DE300D2068018EF540F2490D43440D4FF300A05
:103DF3000BEF24BFB41A0050032461FFE5486002AF
:103E03001548054BE54B7002054A300D0D7838E433
:103E130075F001123661EF0233320272A97403D2D4
:103E23000D8003E4C20DF5478B388A39893AE4F5EE
:103E330048F54AF54BE54860077F20123DFF80F5C2
:103E43007549FFC207C206C208C209C20BC20CC22F
:103E53000E123DCDFF700D300D057F00123E10AFE9
:103E63004BAE4A22B4255FC2D5C20A123DCDFF2410
:103E7300D0B40A00501A75F00A784830D50508B650
:103E8300FF0106C6A426F620D5047002D20980D904
:103E930024CFB41A00EF5004C2E5D20A024010D274
:103EA3000780C6D20680C0D20880BCD2D580BAD2E1
:103EB3000B80B47F20123DFF2008077401B5480032
:103EC30040F1123DC4FF123DFF023E38D20ED20C28
:103ED3008095123DC4FB123DC4FA123DC4F94A4B0E
:103EE300700679E17A407BFF20082EE548602A7E40
:103EF300008E8275830012330560060EEE654970ED
:103F0300F0C2D5EBC0E0EAC0E0E9C0E0EE124057F2
:103F1300D0E0F9D0E0FAD0E0FB1232ECFF60AAEB7C
:103F2300C0E0EAC0E0E9C0E0123DFFD0E02401F9BF
:103F3300D0E03400FAD0E0FBE5490460DCD549D990
:103F430080877BFF7A407953D208809C7910800266
:103F53007908C20CC20E8008D2D5790A8004790A86
:103F6300C2D5E549047002F549E4FAFDFEFF123DAE
:103F7300C4FC7B08200713123DC4FD7B1030060AE6
:103F8300123DC4FE123DC4FF7B20EC3382D592D593
:103F93005013C3E43006069FFFE49EFEE4200703AC
:103FA3009DFDE49CFCE4CBF8C207EC700CCFCECDB6
:103FB300CCE824F8F870F38017C3EF33FFEE33FE39
:103FC300ED33FDEC33FCEB33FB994002FB0FD8E9F7
:103FD300EB300705F8D0E0C448B207C0E00AEC4D67
:103FE3004E4F78207B0070C2EAB5490040BCC0E068
:103FF300124059D0F0D0E0200704C4C0E0C4B20797
:10400300C0F0123DE8D0F0D5F0EB023E3812345F39
:104013003ED5533F4F583EA64C3EA2423F534F3FDF
:104023005B443F5B493EBB433F61553F45463F458C
:10403300453F45474101503EAA2D3EAE2E3ED12B72
:104043003EB2233ECF2040EA2A3E6A4800003EC9E2
:104053003F3F3F00790AA2D5200914300B09B9105C
:10406300020404B9080104A2D5200C025001042063
:1040730008689208B548005034C0E07F2030091921
:104083007F30A208720C720B500F1240B0C208C2EC
:104093000CC20BC20E7F30800F300B03E9C0E0125D
:1040A3003DFF300B03D0E0F9D0E0B548CC300B171F
:1040B3007F30B9100C123DFF7F58300A077F78809C
:1040C30003B90803123DFF3008057F2D023DFF7F32
:1040D30020200EF87F2B200CF322920880CF286E2D
:1040E300756C6C2900D207123DC43007F8C20778FB
:1040F3004830D50108F6023E6A2D50434958123D17
:10410300C42403B405004001E49040FC93123DF045
:10411300743A123DF0D209754804023F4FE4F52783
:10412300905C1F93FE740193FFC390067DE09F9004
:10413300067CE09E500EA3E004F0702390067CE022
:1041430004F0801BE490067CF0A3F078287C00FD4B
:104153007B017A06797EFE7F071232C61261352013
:104163002934D2297B007A0079D6125CC67F0B7E74
:10417300001271D47B007A0079CE125CC67F0C7E6C
:10418300001271D47B017A06798E12667C7B017AE8
:1041930006798812670278D4E6FA08E6FBFF125D17
:1041A30012900683EFF0AF03125D12A3EDF0C37814
:1041B300D5E6941018E6940E402DE478D4F608F66C
:1041C300900682E0C394184004E4F08006900682CF
:1041D300E004F0900680E0D3940740057401F0807A
:1041E30006900680E004F0900688E0547FFFBF7FCE
:1041F30005D22B024293C22A900689E0131313546B
:104203001FFF7E007C007D3C123366125CE590004C
:1042130000F0A3EFF090068CE0131313541F125C0D
:104223005B125CE5900002F0FAA3EFF0FB125C571F
:10423300125CE5900004F0A3EFF0C3900001E09B53
:10424300900000E09A5004C22A8002D22A90068885
:10425300E030E73A202A1B125C9E4012900002E0F5
:10426300FEA3E0FFED9FEC9E5004D22B8022C22BD5
:10427300801E125C9E500F900002E0FEA3E0FFC37D
:10428300ED9FEC9E5004D22B8006C22B8002C22BE2
:10429300E4F527125C77C4131313540130E004D2FE
:1042A3002C8009C22C0527E527B408E7202C03023C
:1042B3004458E4F527125C77547FFD900680E0FFB5
:1042C300127230400302444C125C77C4131313542C
:1042D3000120E00302444C125C23A3E0F92FFFEC1E
:1042E3003EFEEF6B7002EE6A6028125CEC8005C341
:1042F30033CE33CED8F9FF78CCE6FC08E6FDEE5C8E
:10430300FAEF5D4A600CEFF4FFEEF45C18F6ED5F34
:1043130008F6125C23E92FFFEC3EFEEF6B7002EE12
:104323006A600302440F047E00A827088005C33394
:10433300CE33CED8F9FFEE78CC56FEEF08564E605A
:104343000302440FFE7F40FDFB7A00797E1236356F
:10435300753BFF753C5B753D96753E0085273F7B3E
:10436300007A00797E123E207B007A00797E1271FA
:104373003A125CEC8005C333CE33CED8F9FF78CC48
:10438300E64EF608E64FF678D1E6F9FDEF5D601CE0
:10439300AF277401A807088002C333D8FCF4597807
:1043A300D1F67A5C79211244591275EA9006E074C9
:1043B30002F0E52775F003A4248FF582E43406F5B3
:1043C30083E054079006DFF09006E3E04401F090A9
:1043D300031DE04410F0E5766439600BE576643A3A
:1043E3006005E576B43B189006E1E0FF9006DFE058
:1043F300FE9006E2E06EFEEF4E9006E1F0804AE5A5
:1044030076644070449006E104F0803D125C231210
:104413005CE5FED3EF9BEE9A402F125CEC8005C364
:1044230033CE33CED8F9FF78D1E6FDFBEF5B6019CD
:10443300AF277401A807088002C333D8FCF45D7862
:10444300D1F67A5C79221244590527E527C39408EB
:1044530050030242B822E52775F003A42410FFE4B9
:1044630035F0FE7BFF753D00753E01126D312278FC
:104473003B7C017A0E795F7F4012374F90017B744A
:1044830002F0E4F527900474E0FF30E00F1238D611
:10449300E4900314F0A3F0A3F0D2A322900314E05A
:1044A300D3940F4037E4F0A3F0A3F0D2A390068592
:1044B300740AF0755D01751F031239FB300205D2D2
:1044C30003127170126F07123671753C00753DE867
:1044D30012368E123E2012368E02713A20020A9054
:1044E3000314E0B401037407F0900314E0FF6407BE
:1044F3006003EF7006900685740AF0900313E06F73
:10450300602AA3E0900313F0123675753C01753DE4
:104513000E900313123890A202E433754000F54164
:1045230012368E123E2012368E12713A900314E028
:10453300FF7061EF6003024793900315E01460106E
:10454300146024240260030247931239C7024731DF
:10455300900326E07002A3E06003024793123949F7
:104563009003157402F022900326E07002A3E0701A
:1045730004900315F0202103024793C221754AFFDB
:10458300754B09754C57900997124794700302476E
:1045930093024786900314E0FFD39400500302462E
:1045A30068EF94094003024668A3E014607704604F
:1045B30003024793900314E0FF90017BB407057453
:1045C3000CF080037402F090017BE0FE900316E090
:1045D300D39E4003024704EF75F086A4FFAEF02498
:1045E30014F974093E7549FFF54A894B754C0274F9
:1045F300162FF974093E754DFFF54E894F12392870
:104603002456F582E5F03409F5831247A7AD271246
:1046130072D01239282498F582E5F03409F5831213
:104623003931024731900326E07002A3E0700302A0
:104633004743202103024793C2211239282457F903
:10464300740935F0754AFFF54B894CE075F086A483
:104653002497F582E5F03409F58312479470030239
:104663004793024786900314E0C39409500302471B
:104673009378287C007A0E799F7F101238A9900EC8
:104683000CE493FF7E0078287C007D007BFF7A0D8D
:1046930079CC1232C6900314E0FDC3940C502EE083
:1046A300FF75F003A4243BF582E4340EF583E49311
:1046B300F528EF75F003A4243CF582E4340EF5836A
:1046C300E493FE740193F52BEEF52C801E74662D96
:1046D300F8E6FFC39410500302478DEF94FF4003A5
:1046E30002478D8F28752B0DE4F52C900315E014EC
:1046F3006044046003024793900316E0D39402409E
:1047030007E4F0900314F0227549FF754A0D754BC9
:10471300CA754C02754D00754E00754F28900E0CEE
:104723001247A7AD271272D0900E4E123931F09076
:1047330003157401F022900326E07002A3E0700CCD
:10474300900316E004F0E4900315F022302141C2F7
:1047530021754AFF754B0E754C0D900E4DE493F584
:104763004D123887120026EA494B7017754AFF75B8
:104773004B0E754C50754D06123887120026EA49C8
:104783004B600DE4900315F0A3F0900314E004F0E4
:1047930022E493F54D7B017A0479AF7D99120026CB
:1047A300EA494B22E493F5507B017A01793B126588
:1047B300698F277B017A01793B22783C7C017D015B
:1047C3007BFF7A0F79E31236AEE4F52778D57C01C7
:1047D3007A10797C7F4012393FF52878297C00FDD7
:1047E3007BFF7A1079BCFE7F031232C6752C0F90C3
:1047F3000474E0FF30E0091238D6E4F557F5582287
:10480300E4F5299003A9E0F52A752B0D7549FF7589
:104813004A10754BBF754C02754D00754E00754FB0
:10482300297550037B017A0179D51265698F289028
:1048330003AAE0FCA3E0FD9003A9E0F53775380176
:10484300753903753A289003A8E0F53B7B017A019B
:10485300793C12680C8F27E55714604314700302E8
:1048630049461470030249E31470030249F4240413
:104873006003024A71E558D394034009755601E475
:10488300F558024A71D2A3900473E020E003124A60
:10489300759003267403F0A374E8F0755701229012
:1048A3000472E0C313FEA3E013FFEE547FFCAD07D5
:1048B300900326E0FAA3E0FBFFAE021233789001E7
:1048C3003BEFF0EB4A70060558F5578050900473A0
:1048D300E030E01190013BE0FF900317E06F6005CB
:1048E300EFF0124A75202103024A74C221754A016E
:1048F300754B01754CD585284D123887120026EA71
:10490300494B601E90046EE07005755703800D756A
:1049130057029003267401F0A374F4F0E490031794
:10492300F0227BFF7A1079BF12372F6003024A749B
:104933009004B3E0F556900473E030E003024A7448
:10494300024A71900326E07002A3E070050558F552
:104953005722202103024A749004B7E0FDA3E078B4
:10496300C9F6ED08F69004BAE008F612398F60181C
:10497300123675753C01753D489004AF12368812A6
:104983003E2012368E12713A90046EE0FF7E00785C
:10499300C47C047B017A0379EE123907701F78C94E
:1049A300E6FE08E6FF900470E0B50611A3E0B50744
:1049B3000C90046FE0086670047557032212367575
:1049C300753C01753D5D78CB123A0278C9E6FE0865
:1049D300E68E40F54112368E123E2012368E807ED0
:1049E300301F07C21F755D038003755D01123827F1
:1049F30022E556603C123675753C01753D83753E64
:104A03000085563F75400085594112368E123E206F
:104A130012368E12713A302802C228E556243360CA
:104A23000A24E4600624E970028000751E01E4F59F
:104A330056123827E559C3952C5017900549E0B411
:104A4300140CE52C75F003842559F5598013055989
:104A5300800FE4F559755D037BFF7A0179B5027127
:104A63003A301F06C21F755D0322755D012275571B
:104A730004227B017A01793CAD271272D022541FA4
:104A8300FFE054E04FF0C3741F950E541FFF9006D0
:104A9300BBE054E04FF0C3741F950F541FFF900603
:104AA300B4E054E04FF09006B1C3741F9510541F47
:104AB300FFE054E04FF0229006B575F00384541FD5
:104AC300FFE054E04FF02275F00584FFC374069FA6
:104AD300541FFFE054E04FF02213139006B2541F0B
:104AE300FFE054E04FF022E51AC313541FFFE054D4
:104AF300E04FF022C3741F950F541FFF9006B1E0DF
:104B030054E04FF0C3741F950E9006AD541FFFE0A1
:104B130054E04FF0229006A9E075F003A424ADF50C
:104B230082E4346DF583E4939006A9541FFDE07588
:104B3300F003A424AEF582E4346DF583E49322E517
:104B43001BC313541FFFE054E04FF02213139006CE
:104B5300B5541FFFE054E04FF022C3741F9511902A
:104B630006BB541FFFE054E04FF022E51A84900681
:104B7300BC541FFFE054E04FF022E51CC313541F45
:104B8300FFE054E04FF0229006B4541FFFE054E0DE
:104B93004FF022FB9006A9E075F003A424AFF58241
:104BA300E4346DF583E493229006A8E075F003A442
:104BB30024ADF582E4346DF583E4932275F0038428
:104BC300FEC3740A9E541FFEE054E0229006B154C3
:104BD3001FFFE054E04FF022441FF09006ADE04485
:104BE3001FF09006B1E0441FF09006B4E0441FF0BC
:104BF30022906DCBE493541FFDA3E493541FFBA3B6
:104C0300E493229006ADE054E0F09006B1E054E066
:104C1300F09006B4E054E022FFE493FEEF8EF0A49C
:104C2300FF9006ABE5F0F0A3EFF022F0EB541FA3E7
:104C3300FFE054E04FF022E0441FF0A3E054E044CF
:104C43000AF0221274407E007F407D007B007A00D0
:104C5300797E22C313FFC3740F9F541F22C3741F93
:104C63009511541FFF9006AD2275F00384FEC374A3
:104C73000A9E541FFEE054E022E51275F00F84E50E
:104C8300F0D3940AE022F09006BBE054E0227B02CA
:104C93007D287F0322541FFD9006A822541FFB90FA
:104CA30006A822541FFB9006A922541FFF9006AEAC
:104CB3002275F00584FFC374069F229006ABE0FEC5
:104CC300A3E04E707B9006ABF0A3740CF0906DD80C
:104CD300E493FFE518D39F401CE4F518E519D3943A
:104CE300074005E4F51980020519E4F51DF51CF5E7
:104CF3001BF51A804B0518E518C394004009E51805
:104D03009420500385181AE518C39420400CE51825
:104D130094405006E51824E0F51BE518C394404081
:104D23000CE51894605006E51824C0F51CE518C37B
:104D33009460400CE51894805006E51824A0F51DF6
:104D4300E519B407004003024EB6904D54F82828E5
:104D530073024D69024D89024D9C024DBF024DDE27
:104D6300024E01024E3E75F005124B6EE51B75F0C7
:104D73000584124B51E51C75F00584124ADEE51DCE
:104D830075F005848030E51A124B62E51B124B8ADD
:104D9300E51C124BCFE51D805FE51A9006BC124A55
:104DA300CAE51B124CB4124B51E51C9006B2124AD1
:104DB300CAE51D124CB4124CAD024EB19006BD12A1
:104DC3004AEA9006B6124B429006B3124B7DE51D9C
:104DD300C313541FFF9006AF024EB1C3741F951A3D
:104DE300124B62C3741F951B124B8AC3741F951C0D
:104DF300124BCFC3741F951D124C65024EB175F053
:104E030003124B6EE51B124ABAE51C75F0038412BC
:104E13004ADEE51D75F00384541F9006AE124C3331
:104E23009006BB124AEA9006B4124B429006B112A6
:104E33004B7DE51DC313124C658073E51A124C5666
:104E4300FD9006BDE054E04DF0E51B124C56FC907E
:104E530006B6E054E04CF0E51C124C56FB9006B34A
:104E6300E054E04BF0E51D124C56FF9006AFE054C2
:104E7300E04FF0E51A9006BC124BBF4EF0E51B90D5
:104E830006B5124C6C4EF0E51C9006B2124C6C4EFB
:104E9300F0E51D9006AE124BBF4E124C894D124CDD
:104EA300134CF09006B1E054E04BF09006ADE054A3
:104EB300E04FF0228B278A288929783B7C017A10DE
:104EC30079C47E007F221237A3AB27AA28A929120F
:104ED30032EC90013BF0900001123305FF7E00E9B4
:104EE3002402783C7C011239E8AB27AA28A929902F
:104EF300000112330590015CF090013BE0249760C0
:104F03004314700302502D24FE7003025067147083
:104F130003025047240560030250AAC202D2049040
:104F2300013CE0F52E126E28920290013CE0FF1244
:104F33007458123675753C02753D5E90013C12380B
:104F430090025021C202C203E4F52DF52CF52BF596
:104F53002A90013CE0FFE52D4FF52DE52CF52CE5DE
:104F63002BF52BE52AF52A7808123702E4FCFDFE1F
:104F73007810123440E52D4FF52DE52C4EF52CE538
:104F83002B4DF52BE52A4CF52A781812370290069B
:104F930086E0B5070C900141E0FE900687E06E6065
:104FA30021900686EFF0900141E012373E7F037EA9
:104FB30000126D317A0679871237467F047E00121C
:104FC3006D31900142E06002D2037F807E437D6DAC
:104FD3007C38AB2DAA2CA92BA82AD312341C401D34
:104FE300E52D2480FFE52C34BCFEE52B3492FDE552
:104FF3002A34C7FCA20392041255AC9202123675EE
:10500300753C02753D7F90013F12389090013E122E
:105013003A1290013D12388090013C123A1912362F
:105023008E123E2012368E02713A123675753C028C
:10503300753DA812368E123E2012368E12713AC278
:10504300040271A2123675753C02753DC590013C90
:10505300123688123E2012368E12713A90013CE0CD
:10506300FF0275639006E2E078C9F69003EDE0FF76
:1050730090013CE06F6030123675753C02753DEA75
:1050830012368E123E2012368E12713A90013CE097
:105093009003EDF0D39407500E9006E07402F09065
:1050A30003EDE09006DFF022AD07E512701D202529
:1050B3001A906DD793FFE513C39F50040513800B1C
:1050C300E4F513F517F516F515F514E5127004D28A
:1050D300258009E512D394504002C2259006ABE027
:1050E3007002A3E07066AF1220250415128002053A
:1050F30012EF541FFF906DD5E493FEEF8EF084A35F
:10510300124C1BE512C394004009E512942050038E
:10511300851214E512C39410400CE5129430500626
:10512300E51224F0F515E512C39420400CE5129422
:10513300405006E51224E0F516E512C39430400C06
:10514300E51294505006E51224D0F517ED147003C0
:105153000251ED046003025261E5136003025261E0
:10516300302552E512C3942E50129006BB124C7C8C
:105173004002803D54E0F0A3E0025205E512D394CF
:105183002D40069006BB124C3AE512D394324006EA
:10519300124BEC124C3EE512D3943C40069006B100
:1051A300124C3AE512D3944650030252619006AD75
:1051B300E0124C3B22E517124B62E516124B8AE5CF
:1051C30015124BCFE514124B0CE5179006BC124A8F
:1051D300BDE516124ABAE51575F00384124ADEE5F9
:1051E3001475F00384124CAD806FE5137070302595
:1051F3004EE512C3942E500E9006BC124C7C400216
:10520300803954E0F022E512D3942D40079006AE86
:10521300E0441FF0E512D3943240079006B2E04415
:105223001FF0E512D3943C40079006B5E0441FF00D
:10523300E512D3944640279006BCE0441FF022E5D4
:10524300179006AE124BD2E516124ADEE515124B45
:1052530051E514541FFF9006BCE054E04FF0226D5B
:1052630061635F7265616C65733A2530325820253E
:10527300303258202530325820002530325820252E
:1052830030325820253032582E0A007A6967624E30
:10529300776B206578736974464C47207265616C3F
:1052A30065733A25642E0A00696E73657274206310
:1052B300617463683A2025642C2076616C3A25304A
:1052C30032582E0A00000000000000000000000019
:1052D30000000000000000000000000000000000CB
:1052E30000000000000000000000000000000000BB
:1052F30000000000000000000000000000000000AB
:10530300000000000000000000000000000000009A
:10531300000000000000000000000000000000008A
:10532300000000000000000000000000000000007A
:10533300000000000000000000000000000000006A
:10534300000000000000000000000000000000005A
:10535300000000000000000000000000000000004A
:10536300000000000000000000000000000000003A
:10537300000000000000000000000000000000002A
:10538300000000000000000000000000000000001A
:10539300000000000000000000000000000000000A
:1053A30000000000000000000000000000000000FA
:1053B30000000000000000000000000000000000EA
:1053C30000000000000000000000000000000000DA
:1053D30000000000000000000000000000000000CA
:1053E30000000000000000000000000000000000BA
:1053F30000000000000000000000000000000000AA
:1054030000000000000000000000000000AD07C223
:1054130015EF24FE604F24FE70030254B224036090
:10542300030254EDE576B43907E49006DFF08028F3
:10543300E576B440089006DF7404F0801BE576B48B
:105443003D119006E2E0C39403500D9006DFE004A3
:10545300F080059006DFEDF0E57520E00302554E80
:10546300D21502554EE576B439051268058033E549
:1054730076B43A028018E576B440089006DF7402E9
:10548300F0801FE576B43D159006E2E06007E490F6
:1054930006DFF0800D9006DF7403F080059006DFD1
:1054A300EDF0E57520E10302554ED21502554EE5A8
:1054B30076B43A089006DF7402F08025E576B440AE
:1054C30005126805801BE576B43D119006E2E0D332
:1054D3009400400D9006DFE014F080059006DFEDA8
:1054E300F0E57530E265D2158061E57624C6601A71
:1054F300146033240260030255ABED30E1031267FD
:10550300F5E57530E145D2158041ED30E0031267D2
:10551300F5ED30E2079006DFE04402F0E57554054F
:105523006029D2158025ED30E0031267F5ED30E1F7
:10553300079006DFE04402F0ED30E2079006DFE07B
:105543004404F0E57554076002D215E576643960CA
:105553000BE576643A6005E576B43B089006E074A3
:1055630001F080069006E07402F0200026E57664E0
:1055730039600BE576643A6005E576B43B0A90063C
:10558300DFE09006E1F0800BE576B440069006E19B
:105593007401F09006DFE060031267FD3015097BAC
:1055A300017D327F031273DA228F318E308D2F8C7F
:1055B3002E785D7C017A0979097F0B12374FC2057A
:1055C300853135853034852F33852E32200403020F
:1055D3005699900686E0D3940C502C123792C0044F
:1055E300C005C006C007900686E0FFE4FCFDFE127E
:1055F300380CD003D002D001D000EF2BFFEE3AFEDF
:10560300ED39FDEC38807A900686E0FFD3940C40A8
:1056130042EFD39418503CE024F4123804C004C081
:1056230005C006C007123792D003D002D001D000C4
:10563300EB2FFBEA3EFAE93DF9E83CF8C3E5359B7D
:10564300F535E5349AF534E53399F533E53298F5D4
:10565300328043900686E0FFC3941E4039EF24EF67
:10566300123804C004C005C006C007123792D00325
:10567300D002D001D000EB2FFFEA3EFEE93DFDE86A
:105683003CFCE5352FF535E5343EF534E5333DF5A2
:1056930033E5323CF532E535FF90015DEFF0E4FF91
:1056A300E534FEE4FD7808123987E4FFFEE533FDB7
:1056B300E47810123987E4FFFEFDE532FC78181216
:1056C3003988753901753A01753B5D9008C5E493D6
:1056D300F53C753DFF753E08753FC69009061238C7
:1056E300657A08798312644E9205A20522E4F527B0
:1056F300F528F5299006EFE07002A3E07006FEFDA1
:10570300FB1267AB12751AEF70030257B82012151C
:10571300D212905A2DE493FF7401939006EDCFF0CB
:10572300A3EF0257A712751AEF656370481267DD7E
:105733001267975019905A2B12679A4011AF631250
:105743007470201309D2137D04AF63125825C390DC
:105753005A2B12679B4003025824C3905A2D126799
:105763009B5003025824301403025824D2147D059D
:10577300AF630258259006EDE0FEA3E0FF905A2D9B
:10578300E493FC740193FDC39FFFEC9EFED3905AF8
:10579300277401939FE4939E50030258249006EDCF
:1057A300ECF0A3EDF09006EA7401F0A3745EF0123E
:1057B300751A8F632230122F1267DDC3905A271296
:1057C300679B5023126797401E9006EAE07002A37E
:1057D300E060020564E564D3940150047D02800215
:1057E3007D03AF631258259006EAE07002A3E070D0
:1057F3001DE5646019F527E4F564E527C3940240C9
:105803000AAD27AF63126073E4F527E4F563301341
:1058130002C213301402C214E49006EDF0A3F0C2E6
:1058230012228F2A8D2BE52B24FD60281460661429
:1058330070030258DE24036003025901C216126783
:1058430088753BFF753C59753D5012591412713AD6
:10585300C200803A126788753BFF753C59753D6CF1
:1058630012591412713A9006ECE004F0E0B40313F9
:10587300436801E52A547F25E0FFE56854014FF5AD
:105883006880097F017A00796812678ED200AF2A97
:105893001254108069E56830E021C313547F652AF0
:1058A3007019FE7F01FDFB1267D61273F51267882C
:1058B300753BFF753C59753D868012126788753BB1
:1058C300FF753C59753DA3753E00852A3F1267C29B
:1058D300123E201267C212713A8023126788753B09
:1058E300FF753C59753DC0753E00852A3F1267C25E
:1058F300123E201267C212713AD2041271A2E52B32
:105903006403600C1267C9E52B640260031267A588
:1059130022753E00852A3F7B007A00797E123E2065
:105923007B007A00797E22746F756368506164200E
:105933007370656369616C20747269673A6E776B23
:105943004F70656E3A25303264732E0A00746F759A
:1059530063685061643A253032582C2073686F7243
:105963007450726573732E0A00746F7563685061A7
:10597300643A253032582C20636E74507265737309
:105983002E0A00636F6D62696E6174696F6E2066C3
:10599300756E3C3353314C3E2074726967210A00A3
:1059A300746F7563685061643A253032582C206CEB
:1059B3006F6E6750726573735F412E0A00746F7563
:1059C30063685061643A253032582C206C6F6E67DF
:1059D30050726573735F422E0A00746F756368506B
:1059E30061643A253032582C202530325874696D61
:1059F300652070726573734F7665722E0A00636F4C
:105A03006D62696E6174696F6E2066756E3C3353A7
:105A130035533E2074726967210A00000A0BB82EC1
:105A2300E0EA601E00140BB84E20EA60C202783B25
:105A33007C017A08795C7F201236F9E4FF753EFF1A
:105A4300753F0875408175410175420175433B12ED
:105A5300397B7A08797C7D05126C0EEF7005C202E2
:105A6300025B28900149E0FE900148E0FDEEF52736
:105A7300EDF528E4F529F52AAE27AF287C077DD07C
:105A83001233788D2B900146E0F52CA3E0F52DE43D
:105A9300F52E852B29E52C64016005E52CB4020A5B
:105AA300E52C240CF52A15298003852C2AE52A24C4
:105AB30001FFE433FE7C007D1A1233667D0A123344
:105AC30078E5291313543F25292F252D24DCF52EA2
:105AD30075F0078485F02EE52E9006806003F08034
