:100000000263299006BAE0124A46220200A1438EFA
:10001000805389F0758A50758CFBC28DD2A9D2B9F4
:10002000D28C2202617C8D498B468A478948E4F54F
:100030004E8B4F8A508951127354C3E5519548FF36
:10004000E5509547FE7C00EF254DFFEC3EFED3EFDB
:1000500095497480F86E985041AB520554E554AA06
:10006000537002055314F91231C0FFAB4F0551E52F
:1000700051AA507002055014F91231C0B50713058A
:100080004EE54EB54DD3C3E551954DF9E55094007D
:10009000FA22127354E4F54E80A07B007A007900B6
:0200A00022320A
:1000A3000225FC69276D20554152543120666F7239
:1000B30020776966692064617461207472616E736C
:1000C3006C617465202121210A0069276D20554147
:1000D30052543120666F7220646174734C6F6720D1
:1000E3002121210A006E776B5A69676220636F6E64
:1000F3006E6563742F72656A6F696E20616C6C2024
:10010300636F6D706C6574652E0A006E776B5A6948
:10011300676220636F6E6E6563742F72656A6F69C1
:100123006E206D61696E537465702D2530326440A5
:100133006D6574686F643A256420636F6D706C65D8
:1001430074652E0A00657272206672616D6548657A
:1001530061643A253032582E0A00726376506F720A
:100163007420697320253032582C207263764E77C1
:100173006B4164647220697320253034582E0A0061
:1001830072656D6F74652064617461526571756524
:100193007374206661696C2C20636F64653A5B300D
:1001A30078253032585D2E0A00646576486F6C649A
:1001B300207374617274207269676874206E6F773C
:1001C3002E0A00646576486F6C642074696D65203F
:1001D300636F756E742072656D696E643A202530A5
:1001E300326420732E0A00646576486F6C64207352
:1001F300746F702E0A00636D645363656E61726978
:100203006F4374726C20636F6D6D696E672C20731E
:100213007461747573446174613A253032582E0ADF
:10022300006D617374657220636D64436F6D696EF5
:10023300673A6E776B4F70656E3A25303264732E72
:100243000A006D61737465722055544320636F6DAA
:10025300696E673A5B30782530325825303258253D
:10026300303258253032585D2E0A006E6F64652097
:10027300636D64436F6D696E673A6465764E776B41
:1002830020686F6C642E0A006D617374657220635D
:100293006D643A206474506572696F6420686F6C92
:1002A300642C2074696D653A25642E0A00646966BE
:1002B300666572207363656E652064657465637437
:1002C3002066726F6D20706F6C696E672E0A006313
:1002D3006D64436F6D696E673A253032582E0A009C
:1002E3003E3E3E3E3E3E3E3E74696D65725F7461C6
:1002F300623320726573706F6E643A5B25303258D7
:100303002D253032582D253032585D2E0A003E3EC1
:100313003E3E3E3E3E3E74696D65725F746162337C
:1003230020686173206265656E207365743A5B258E
:100333003032582D253032582D253032585D2E0A53
:10034300003E3E3E3E3E3E3E3E696E7465726E65C5
:1003530074206F66666C696E652E0A003E3E3E3EF3
:100363003E3E3E3E72656C617953746174757320D1
:100373007265616C65733A253032582C206375724F
:1003830072656E7456616C3A253032582E0A003EFF
:100393003E3E3E3E3E3E3E64656C61795065726909
:1003A3006F643A5B25645D2C2064656C61795570DC
:1003B3004163743A5B253032585D2E0A003E3E3E5F
:1003C3003E3E3E3E3E666163746F727920726563A2
:1003D3006F766572207374616E644279212E0A0010
:1003E3003E3E3E3E3E3E3E3E6167696E67436D6400
:1003F300206465764C6F636B20636F6D696E672C49
:10040300206C6F636B49663A5B25645D2E0A003E80
:100413003E3E3E3E3E3E3E6167696E67436D6420ED
:1004230074696D657220636F6D696E672C206461FA
:100433007461546162313A5B253032582D25303274
:10044300582D253032585D2E0A003E3E3E3E3E3E3C
:100453003E3E6167696E67436D6420677265656ED2
:100463004D6F646520636F6D696E672C2074696DD1
:10047300655365743A25642E0A003E3E3E3E3E3E79
:100483003E3E6167696E67436D64206E6967687499
:100493004D6F646520636F6D696E6720776974685B
:1004A30020646174733A5B2530325820253032580A
:1004B300202530325800202530325820253032583C
:1004C30020253032585D2E0A003E3E3E3E3E3E3EE3
:1004D3003E6167696E67436D6420626B4C69676850
:1004E3007420636F6D696E672C206F6E2D49737274
:1004F300743A253032642C206F66662D497372740A
:100503003A253032642E0A003E3E3E3E3E3E3E3E9B
:100513006167696E67436D6420686F7273696E67A4
:100523004C6967687420636F6D696E672C206F7008
:1005330072656174446174613A253032582E0A0041
:100543003E3E3E3E3E3E3E3E6167696E67436D649E
:100553002073776974636842696E645365742063BA
:100563006F6D696E672C206F707265617442697478
:10057300486F6C643A253032582062696E64446176
:1005830074613A25303258202530325820253032D4
:10059300582E0A003E3E3E3E3E3E3E3E6167696E39
:1005A30067436D64206375727461696E4F7262692B
:1005B30074616C53657420636F6D696E672C20766C
:1005C300616C5365743A2564202E0A003E3E3E3E1C
:1005D3003E3E3E3E666163746F7279207265636F5F
:1005E30076657220646F696E67206E6F77212E0ABD
:1005F3000063757272656E745061696E206765740D
:10060300206973203A25642E0A003E3E3E647443FB
:1006130074726C45616368206C6F6F7050617261B6
:100623006D3A25642025642025642E0A00637472C4
:100633006C20656163684F7468657220636D642024
:10064300636F6D696E672C20636C75737465723AA2
:10065300253032642C2076616C3A253032642C20AC
:100663006C6F6F703A253032642E0A000000000070
:100673000000000000000000000000000000000077
:100683000000000000000000000000000000000067
:100693000000000000000000000000000000000057
:1006A3000000000000000000000000000000000047
:1006B3000000000000000000000000000000000037
:1006C3000000000000000000000000000000000027
:1006D3000000000000000000000000000000000017
:1006E3000000000000000000000000000000000007
:1006F30000000000000000000000000000000000F7
:100703000000000000000000000000002608FCFFBD
:1007130000000000000000000000000000000000D6
:1007230000000000000000000000000000000000C6
:1007330000000000000000000000000000000000B6
:10074300000000000000000000000000000003FEA5
:10075300016608006F0000000000000000000000B8
:100763000000000000000000000000000000000086
:100773000000000000000000000000000000000076
:100783000000000000000000000000000000000660
:100793000096FCFF000000000000000000000000C5
:1007A3000000000000000000000000000000000046
:1007B3000000000000FE0126060627660600000072
:1007C3000000000000000000000000000000000026
:1007D30000000000000000000000000000FE0021F7
:1007E3001130611121100000000000000000000022
:1007F30000000000000000000000000000000000F6
:1008030000000000000000000000000000000000E5
:1008130000000000000000000000000000000000D5
:100823000000000000000BFE01611000000000004A
:1008330000000000000000000000000000000000B5
:1008430000000000000000000000000000000000A5
:100853000000000000000000000000000000000095
:10086300000000000000000500640000000000001C
:100873000000000000460900000000000000000026
:100883000000000000000000000000000000000065
:100893000000000000000000000000000000000055
:1008A3000000000000000000000000000000000045
:1008B3000000000000000000FE064180010200026B
:1008C3000603C30000000000000000000000000059
:1008D3000000000000000000000000000000000015
:1008E3000000000000000000000000000000000005
:1008F30000000000000000000B0FA04609000000EC
:1009030000000000000000000000000000000000E4
:1009130000000000000000000000000000000000D4
:1009230000000000000000000000000000000000C4
:100933000000000000000000000000000000FE06B0
:100943004180010200020603C30000000000000012
:100953000000000000000000000000000000000094
:100963000000000000000000000000000000000084
:1009730000000000000000000000000000000B0F5A
:10098300A026050301030000000000000000000092
:100993000000000000000000000000000000000054
:1009A3000000000000000000000000000000000044
:1009B3000000000000000000000000000000000034
:1009C30000000003FE016605006200000000000055
:1009D3000000000000000000000000000000000014
:1009E3000000000000000000000000000000000004
:1009F30000000000000000000000000000000000F4
:100A0300000000000601F446090000000000000099
:100A130000000000000000000000000000000000D3
:100A230000000000000000000000000000000000C3
:100A330000000000000000000000000000000000B3
:100A430000000000000000000000FE0641800102DB
:100A530000020603C30000000000000000000000C5
:100A63000000000000000000000000000000000083
:100A73000000000000000000000000000000000073
:100A8300000000000000000000000B0FA0260587F7
:100A93000101000000000000000000000000000051
:100AA3000000000000000000000000000000000043
:100AB3000000000000000000000000000000000033
:100AC3000000000000000000000000000000000320
:100AD300FE01660500620000000000000000000047
:100AE3000000000000000000000000000000000003
:100AF30000000000000000000000000000000000F3
:100B030000000000000000000000000000000000E2
:100B13000601F42702FFFF000000000000000000B0
:100B230000000000000000000000000000000000C2
:100B330000000000000000000000000000000000B2
:100B430000000000000000000000000000000000A2
:100B5300000000000002FE016702006400000000C4
:100B63000000000000000000000000000000000082
:100B73000000000000000000000000000000000072
:100B83000000000000000000000000000000000062
:100B93000000000000000601F427030080000000AD
:100BA3000000000000000000000000000000000042
:100BB3000000000000000000000000000000000032
:100BC3000000000000000000000000000000000022
:100BD300000000000000000000000004FE016703A5
:100BE300006500000000000000000000000000009D
:100BF30000000000000000000000000000000000F2
:100C030000000000000000000000000000000000E1
:100C13000000000000000000000000000601F426B0
:100C230000000000000000000000000000000000C1
:100C330000000000000000000000000000000000B1
:100C430000000000000000000000000000000000A1
:100C53000000000000000000000000000000000091
:100C63000000FE0145C007830000000000000000F3
:100C73000000000000000000000000000000000071
:100C83000000000000000000000000000000000061
:100C93000000000000000000000000000000000051
:100CA3000000061F402608FCFF00000000000000B3
:100CB3000000000000000000000000000000000031
:100CC3000000000000000000000000000000000021
:100CD3000000000000000000000000000000000011
:100CE3000000000000000003FE016608006F000022
:100CF30000000000000000000000000000000000F1
:100D030000000000000000000000000000000000E0
:100D130000000000000000000000000000000000D0
:100D2300000000000000000006009624000E0D00E5
:100D33000D000D0001000001000000000000000094
:100D430000000000000000000000000000000000A0
:100D53000000000000000000000000000000000090
:100D6300000000000000000000000000000DFE0174
:100D730064000065000000000000000000000000A7
:100D83000000000000000000000000000000000060
:100D93000000000000000000000000000000000050
:100DA3000000000000000000000000000000060139
:100DB300F4FE016400B8DD0C000D0D000D0E000DF6
:100DC3000000000000000000000000000000000020
:100DD3000000000000000000000000000000000010
:100DE3000000000000000000000000000000000000
:100DF30000000000000000000000000000000000F0
:100E030000000000000000000000000000000000DF
:100E130024010000000000000000000000000000AA
:100E230000000000000000000000000000000000BF
:100E330000000000000000000000000000000000AF
:100E4300000000000000000000000000000000009F
:100E5300000000000000000000000000000000008F
:100E6300000000000000000000000000000000007F
:100E7300000000000000000000000000000000006F
:100E8300000000000000000000000000000000005F
:100E9300000000000000000000000000000000004F
:100EA300000000000000000000000000000000003F
:100EB300000000000000000000000000000000002F
:100EC300000000000000000000000000000000001F
:100ED300000000000000000000000000000000000F
:100EE30000000000000000000000000000000000FF
:100EF30000000000000000000000000000000000EF
:100F030000000000000000000000000000000000DE
:100F130000000000000000000000000000000000CE
:100F230000000000000000000000000000000000BE
:100F330000000000000000000000000000000000AE
:100F4300000000000000000000000000000000009E
:100F5300000000000000000000000000000000008E
:100F6300000000000000000000000000000000007E
:100F7300000000000000000000000000000000006E
:100F8300000000000000000000000000000000005E
:100F9300000000000000000000000000000000004E
:100FA300000000000000000000000000000000003E
:100FB300000000000000000000000000000000002E
:100FC300000000000000000000000000000000001E
:100FD300000000000000000000000000000000000E
:100FE30000000000000000000000000000000000FE
:100FF30000000000000000000000000000000000EE
:1010030000000000000000000000000000000000DD
:1010130000000000000000000000000000000000CD
:1010230044806A010000000000000000000000008E
:1010330000000000000000000000000000000000AD
:10104300000000000000000000000000000000009D
:10105300000000000000000000000000000000008D
:10106300000000000000000000000000000000007D
:10107300000000000000000000000000000000006D
:10108300000000000000000000000000000000005D
:10109300000000000000000000000000000000004D
:1010A300000000000000000000000000000000003D
:1010B300000000000000000000000000000000002D
:1010C300000000000000000000000000000000001D
:1010D300000000000000000000000000000000000D
:1010E30000000000000000000000000000000000FD
:1010F30000000000000000000000000000000000ED
:1011030000000000000000000000000000000000DC
:1011130000000000000000000000000000000000CC
:1011230000000000000000000000448145CB0000E7
:1011330000000000000000000000000000000000AC
:10114300000000000000000000000000000000009C
:10115300000000000000000000000000000000008C
:10116300000000000000000000000000000000007C
:10117300000000000000000000000000000000006C
:10118300000000000000000000000000000000005C
:10119300000000000000000000000000000000004C
:1011A300000000000000000000000000000000003C
:1011B300000000000000000000000000000000002C
:1011C300000000000000000000000000000000001C
:1011D300000000000000000000000000000000000C
:1011E30000000000000000000000000000000000FC
:1011F30000000000000000000000000000000000EC
:1012030000000000000000000000000000000000DB
:1012130000000000000000000000000000000000CB
:1012230000000000000000000000000000000000BB
:1012330000000000000000000000000000000000AB
:10124300000000000000000000000000000000009B
:10125300000000000000000000000000000000008B
:1012630000FB0000000000008B278A2889298C2AB4
:101273008D2B787A7C017D017BFF7A10794A1235B8
:1012830082C2021238D81231C02456604F24B07083
:101293000302183C147003021822242F6003021D5A
:1012A30017D202E92407F9E43A78D17C067F0612C3
:1012B30038099004C2E01237DDAB27E529240DF984
:1012C300E43528FAC003C002C001E529240112381D
:1012D3005FAD03D001D002D00312319A12388D24AE
:1012E30005F9E43528FA7D1C1270CFAB2790000472
:1012F300123577B50702D204E529240512385FAD0C
:10130300277B017A0679D97F0512360B7002D20545
:10131300123589FFB43904D205800BEF64146004DD
:10132300EFB41902D204300405300402D2032003BF
:1013330003021D17C204C205123549753C02753DEF
:10134300D212358912355D123CB9123562126F150E
:101353007A01797A1235F812358912333313F01082
:10136300147F1115E71417C81517C81614B21714EC
:10137300C31814DB1915C31A15CB1B15E11F15DC94
:1013830022139A39170841176E42179C4317B94421
:1013930017C850000017C63030030217C81271BFB8
:1013A300302802C2289006E1E0900185F0A374077B
:1013B300F0E56F900188F0A3E570F090000C123512
:1013C3008C900685F090000D1231D91236127F03EE
:1013D3007E00126B097B017A06798612361C7F0424
:1013E3007E00126B097F0A1272D40214ABE49001DF
:1013F30085F090000B1235C4FF5407900185F0EF80
:101403005401FF9006E1E0FE54016F6009900185ED
:10141300E04420F0802D90000B1231D9FC5402FDE2
:10142300EE54026D6009900185E04440F08014ECB5
:101433005404FF9006E1E054046F6007900185E0D7
:101443004480F090000B1236501236E9E57564398A
:10145300600BE575643A6005E575B43B121238DF3D
:10146300FE9006E1E06EFEEF4E9006E0F0800BE5A5
:1014730075B440069006E07401F0802C9006E1E01C
:101483005407900185F0E4A3F0303006E04401F006
:101493008007900186E054FEF0900186E0302B0532
:1014A3004402F0800354FDF0D204C2050217C8754C
:1014B3002D01D23012381112361C7F057E008012A6
:1014C300E4F52DC230FB7A00792DF5387539017FAB
:1014D30005FE126B090217C81235C1246060161489
:1014E300607314700302157D14700302158624A320
:1014F30060030215B7E4F52D7B017A017988F55471
:1015030075550C7F10FE126F7DE4F52D74017E007E
:10151300A82D088005C333CE33CED8F9FF78D0E6A3
:10152300FDEF5D6013E52D75F003A42488F582E4D7
:101533003401F583E05480F0052DE52DB404CDD2BC
:1015430005123549753C02753DE390018E121D1855
:10155300126F15805F78CEE6FE08E6FF4E700280BC
:101563000C7C007D3C12324CC378D7E69F900188F7
:10157300F078D6E6900189F0803A78CDE69001883C
:10158300F080317B017A0179887554007555067FA7
:10159300327E00126F7D900186E03030054401F009
:1015A300800354FEF0900186E0302B054402F08066
:1015B3000354FDF01235C1900187F0D2040217C81D
:1015C300121D98532D808006121D98432D7F1238CB
:1015D3001112361C7F320217B0D2040217C81262EE
:1015E3009D0217C8E4F52D1235C1245F700302165E
:1015F300A61470030216D11470030216FD240360AF
:1016030003021703E4F52D1238D812379B1231D990
:1016130064807031AF2D04A807088002C333D8FC5F
:1016230078D046F6AB2712379BE5292582F9E528C2
:101633003583FA1231C01238188002C333D8FC4FF5
:101643001232068012AF2D7401A807088002C3333B
:10165300D8FCF478D056F6052DE52D640470A81255
:10166300367E75380075390C121DBD123549753C2F
:1016730003753D11900014123650753E00F53F90EE
:1016830000151231D9754000F5419000161231D979
:10169300754200F543123562123CB9123562126F7E
:1016A30015805D1236C1FF78D56014E64402F678E2
:1016B300D7A60790000F1231D978D6F6E48008E652
:1016C30054FDF6E478D7F678CEF608F68032123673
:1016D300C1FF78D5600BE64401F678CDA607E48018
:1016E30008E654FEF6E478CDF678D1F608F6121D36
:1016F300787F0C7E00126B09800612367E121DACB9
:10170300D2040217C8E4F52D90000C1236C4F52E4E
:10171300E4F52DAF2DE52EA807088002C313D8FCEE
:1017230030E03BE52DFD7C002406FFEC33FEED2489
:101733000EFDEC33FCAB27E5292DF9E5283CFA1225
:10174300361C126B09740E252DF582E433F583AB39
:1017530027123577FF7471252DF8A607D21F052DA3
:10176300E52DC3940340ACD204805AE4F52DF52D46
:10177300E52D2406FFE433FE7488252DF9E43401B6
:10178300FA7B01755400755501126F7D052DE52D0A
:10179300C3940340DBD204802C12367EC002C00106
:1017A30078A77C067D01D001D0021237027E001299
:1017B3006B09D204800F12367E123898126F7DD2D5
:1017C300048002C204200403021D17E4F52DC204A1
:1017D300A202920675330175340175357A75362187
:1017E30075370A123589F538A2059207125B7A8F8D
:1017F3002D900322E004F09003A9E52AF0A3E52B42
:10180300F0E52C12363DAF2D7A01797A12365990D4
:1018130003A7E52D12377844FAFFE41238A3227F99
:10182300061272D4123549753C03753D4412356274
:10183300123CB9123562126F15783C7C017A10792B
:10184300E97F3E1235CD12388D2401F9E43528FAAB
:10185300C002C00112357424FEFDD001D002127003
:10186300CF1235727C0024FFF582EC34FFF583122E
:1018730031D9B50702D203E529240212385FAD2717
:101883007A0679D97F051236B87002D20420030391
:10189300021D17200403021D17AB27E529240FF9A6
:1018A300E43528783C7C017F3E1238091238D89001
:1018B30000081231D9245E7003021CF6046003028F
:1018C3001D1778E37C107DFF1236B27003021CD023
:1018D3009003227414F078757C047A01793C7F06B6
:1018E3001236A91235727E0024FEF582EE34FFF51E
:1018F300831231D9FF655B60048F5BD2052005033A
:10190300021D177B017D327F0312717390013CE04E
:1019130030E0729006E1E0FC5407FE900142E0548F
:10192300076E6036E054071236E9E5756439600BDB
:10193300E575643A6005E575B43B141238DF6CFE57
:10194300EF4E9006E0F09006E2E04401F0800BE5F4
:1019530075B440069006E07401F0123549753C03F6
:10196300753D5F9006E1E0753E005407F53F900139
:1019730042E05407754000F541123562123CB9123A
:101983003562126F1590013CE030E25190015EE048
:1019930078D5603CE64402F6E078D7F6A3E078D643
:1019A300F6E478CEF608F6FE7F40FDFB123551755E
:1019B3003C03753D9278D71238C178D6E67540005E
:1019C300F541123562123CB9123562126F15800D62
:1019D300E654FEF6E478D7F678CEF608F690013CA6
:1019E300E030E717D219123549753C03753DC01233
:1019F3003562123CB9123562126F1590013CE0302A
:101A0300E13DE4F52DFE7F40FDFB123551753C03AE
:101A1300753DE3900143E0FFC3121D60126F159003
:101A23000143E030E107752D01D2308005E4F52D47
:101A3300C23012381112361C7F057E00126B0990DA
:101A4300013CE030E477E4F52DFE7F40FDFB1235E9
:101A530051753C04753D12900146121D18126F1505
:101A6300E4F52D1237ABE064807029AF2D04A8078D
:101A7300088002C333D8FC78D046F61237ABC08354
:101A8300C082E01238188002C333D8FC4FD082D012
:101A930083F08012AF2D7401A807088002C333D8E6
:101AA300FCF478D056F6052DE52D640870B57B015E
:101AB3007A017946753800753918121DBD90013CBD
:101AC300E030E33B123549753C04753D4D900160B0
:101AD30012355C123CB9123562126F15900160E049
:101AE30078D56006E64401F68004E654FEF69001DC
:101AF30060E078CDF6121D787F0C7E00126B0990A2
:101B0300013CE030E565782D7C007A1179277F066A
:101B1300123766123549753C04753D7D900161129B
:101B23001D3C126F15123549753C04753DB9900182
:101B330064121D3C126F15900161E06005432D7F17
:101B43008003532D80900162E06005432D80800364
:101B5300532D7F900163E0F52EA3E0F52FA3E0F56D
:101B630031A3E0F532123811121DAC90013CE03084
:101B7300E633123549753C04753DCC900167123745
:101B83004DA31238D1123562123CB9123562126F6D
:101B93001578A77C067D017B017A017967123702EC
:101BA3007E00126B0990013DE030E02E123549753D
:101BB3003C05753D0B900143E0FFC4121D60126F9D
:101BC30015900143E0FFC4135407139227302707EE
:101BD300E49006B6F080031271BF90013DE0C31399
:101BE30054077003021C86E490013BF0FE7F40FD26
:101BF300FB123551753C05753D4390013DE0FFC334
:101C0300135407753E00F53F90016A123736A3E07F
:101C1300754400F545123562123CB9123562126FF4
:101C230015E490013BF090013BE0FFC39403505156
:101C33001238678005C333CE33CED8F9FF90013D08
:101C4300E0C3135407FDEF5D602F90013BE0FD24DB
:101C530006FFE433FE746A2DF9E43401FA12361AEE
:101C6300126B0990013BE0FF246AF582E43401F52D
:101C730083E0FE74712FF8A60690013BE004F08028
:101C8300A5D21F90013DE020E403021D1712354940
:101C9300753C05753D9790016D12355C123CB91288
:101CA3003562126F1590016DE0FF9006E5F0BFFFFE
:101CB30002E4F07B017A0679E512361C7F097E0087
:101CC300126B099006DE7401F0A304F0227F067AFA
:101CD30004797512364730193B123549753C057541
:101CE3003DCF123562123CB9123562126F15C2191B
:101CF30002629D781C7C037D011236B26004755F1D
:101D0300A2229005487414F07F067A03791C1236D8
:101D1300F2755FA122E0753E00F53FA3E075400038
:101D2300F541A3E0754200F5437B007A00797D120B
:101D33003CB97B007A00797D22E0753E00F53FA334
:101D4300E0754000F541A3E0754200F5437B007A5E
:101D530000797D123CB97B007A00797D221354010E
:101D6300753E00F53F7B007A00797D123CB97B001C
:101D73007A00797D227B007A0079D5753800753930
:101D8300017F0B7E00126B097B007A0079CD7538D9
:101D93000075390122E4F52DFB7A00792DF5547590
:101DA30055017F32FE126F7D227538007539067F2B
:101DB300327E00126B09127370227F107E00126B49
:101DC300091273672278097C007D017BFF7A117900
:101DD3003112358278A27C007D017BFF7A1179CAAA
:101DE300123582900684E07006740AF012588EE56C
:101DF3005C24FE70030225CA1470030225D11470FB
:101E0300030225D91470030225DC1470030225E2B2
:101E1300240560030225F1900473E0FF30E0030220
:101E230025F8301A2DC21AC2047F0C7E647DFE7C15
:101E33002212540B126CE1123545753C05753DF4C5
:101E4300856F3E85703F123562123CB912356212BE
:101E53006F15E51FB406031271BF900480E070088C
:101E6300751E01302802C22890049EE0FF90048F63
:101E7300E02FFFE433FE9004ADE07C002FFFEC3E47
:101E8300FE78BFF608EFF64E7003021F8D90032312
:101E9300E07002A3E06003021F8D78BF7D03123759
:101EA3001878BDA60408A605ED4C702CFE7F40FDF6
:101EB300FB123551753C06753D0D90048F12374D5D
:101EC30090049E1238D19004AD12373D1235621240
:101ED3003CB9123562126F1578BDE6FA08E6FB12BB
:101EE3003825EA123634E0701A06E6187001061235
:101EF30038E9FF7C007D0312324C78BDA60408A6A6
:101F03000580D51238E9FF123825EE123634E01475
:101F1300F090048F75F00FEF123327EE123634E092
:101F2300FF18E6FC08E6FD90048275F00F123630C8
:101F3300EFF090048D12362CE0FEA3E0FFC006C044
:101F43000790048C12362CE0FDC0057C007D0FAF9A
:101F530003AE0212323A74812FF974043EFA7B0104
:101F63001238E990048B123828EE123634E0F5313A
:101F7300D005D007D006126DEB901263E493FF7483
:101F83000193900323CFF0A3EFF0201E030222431B
:101F930090047BE06003022243900007F0C21EB26C
:101FA3001BFEFD7A00790912386F9006E1E05407B1
:101FB300FF9003B4E054F84FF09006E2E030E029DC
:101FC30054FEF09003B4E0541FFFF0E0FE9006E3EC
:101FD300E0FDEEC4135407FEEF541FFFED4E54070C
:101FE300C43354E04F9003B4F0A22CE4335401FF04
:101FF3009003B5E054FE4FFFF0A230E433540125C3
:10200300E0FEEF54FD4EFFF078D5E6FE5402C31315
:10201300540125E025E0FDEF54FB4DFFF0EE5401A4
:1020230033333354F8FEEF54F74EFFF0A22BE4336F
:102033005401C454F0FEEF54EF4EFFF0A227E433F3
:102043005401C43354E0FEEF54DF4EF0E49000003B
:10205300F07B017A0379B8F5547555187F10FE1299
:102063006F7DE4900000F0900000E0FFC3940850FF
:10207300311238678005C333CE33CED8F9FF78D019
:10208300E6FDEF5D6014900000E075F003A424B852
:10209300F582E43403F5837480F0900000E004F0EB
:1020A30080C578CE7D3C123718C378D7E69F90035E
:1020B300D0F078D6E6A3F078CDE6A3F078017C00E3
:1020C3007A1279657F061235697B017A00790112EC
:1020D300654E900001E0FF547FFEBE7F089003D35E
:1020E3007401F08005E49003D3F0EFC41313135489
:1020F3000130E0089003D47401F08005E49003D428
:10210300F0900002E0131313541F9003D5F09000D6
:1021130003E09003D6F0900005E0131313541F90CF
:1021230003D7F0900006E09003D8F07B017A03799F
:10213300D9123898126F7DE49003DBF07B017A03A8
:1021430079DCF5547555037F06FE126F7DE5752422
:10215300C070089006E5E09003DFF0E55F245E6061
:102163001104702178AE7C037D017B017A047975BB
:10217300800C78AE7C037D017B017A03791C7E00A1
:102183007F0612319AE4900007F01235B274FA1206
:1021930035AEE41238767D01123595900007E024C0
:1021A30006F01235B2E55F1235AEE575F0E56F1254
:1021B300368B1235B9EFF012368C1235B9E5701241
:1021C30035AE7407F090068512368A1235B9EFF0F2
:1021D30090068612368A1235B9EF123876A801FCBA
:1021E3007A0379AE7F3E1236A9900007E0243EF0D1
:1021F300E004F0E090000AF07B017A00790A24FE03
:10220300FD1270CF900007E02408F582E43400F556
:1022130083EFF0E49003A9F0A3F0740D12363D9020
:102223000007E0FF7A007909123659900007E09021
:1022330003A7123778FFEF44F4FF74011238A32287
:102243009006E2E0FF30E03AD200C201E4900008D9
:10225300F0EF54FE9006E2F0A3E054E0C4135407F9
:10226300C43354E0FF9003B4E0541F4FF090031CB9
:10227300E04401F0755FA29005487402F0900322D8
:10228300F0229006E0E07003022415E55C6401602F
:1022930003022415E57524C724FD500A24FC7003AA
:1022A3000223BF022415E478C1F678C1E6FFC39484
:1022B3000340030224151238678005C333CE33CE9F
:1022C300D8F9FF9006E0E0FDFBEF5B70030223B952
:1022D30078C1E6FC7401A804088002C333D8FCF477
:1022E3005D9006E0F09006E1E0FFA804088002C3D9
:1022F30013D8FC5401900009F078C1E62471F8E684
:10230300FFD3941050030223B9EF94FF4003022339
:10231300B9E0FF78C160081236CD740AF080061266
:1023230036CD740BF078C1E6FE24ABF582E43403BA
:10233300F583EF1237D3EE75F00FA4248DF582E405
:102343003404F58374FFF0A3F074712EF8E6FFEE06
:1023530075F00FA4248CF582E43404F583EFF09038
:10236300000A7D0078C1E675F00FA42481F9740496
:1023730035F0FAAE83AF821238F0FF78C1E6FE750E
:10238300F00FA42481F582E43404F583EFF0EE75B5
:10239300F00FA42482F582E43404F583E4F0EE75AF
:1023A300F00FA4248BF582E43404F5837402F0EE79
:1023B30012369B741EF078C1060222AD9006E0E04F
:1023C3006401704EF0E571D394104046E57194FFBB
:1023D30050409006E1E0900009F0900318F090035C
:1023E300AB1237D374FF90048DF0A3F090048CE507
:1023F30071F07E007F0A7D007A0479811238F090B3
:102403000481F0E4A3F090048B7402F090048F74C1
:102413001EF02021030225FB12384A60030225B473
:102423007A11792D1237BB60030225B49004B6E00C
:10243300FDA3E0FEEDFF78C4EEF6FE08EFF6A3E0A1
:1024430008F6A3E008F6EF4E700F900480741EF0B8
:10245300E51E64046003E4F51E7F997A0079A212F5
:1024630036F29004C278A27C007D017A0479C3120B
:10247300376F78C6E6FFD394105003022586EF9496
:10248300FF40030225869006E1E078C2F6E408F6F1
:102493001237D4123549753C06753D3078C612386B
:1024A300C19000A2123736123562123CB91235625E
:1024B300126F15E57524C724FD500A24FC7003022E
:1024C3002549022577E478C3F678C3E6FFC394036E
:1024D300400302257774712FF8E6FF78C6667061B2
:1024E300EF605E123697E0FE9000A3E0D39E5003A8
:1024F3000225777401A807088002C333D8FCF47857
:10250300C256FEF69000A2E0FDA807088002C3337E
:10251300D8FC4E1236E9ED78C360081236CD740A42
:10252300F080061236CD740BF0123697E4F090006B
:10253300A2E0FE74AB2FF582E43403F583EEF08062
:102543003378C306808378C6E6B57128E5716024C5
:1025530090048FE0FF9000A3E0D39F40179000A268
:10256300E0FF1236E9900318EFF0E490048FF09047
:1025730003ABEFF09006E2E04401F090031CE0446B
:1025830004F02278C6E624F3600D14601E24027062
:10259300671238FA026DAC78C4E6FC08E6FD4C70AD
:1025A300571238FA08E6F52C02126B1238FA024D6C
:1025B3002212384C70427A11792F1237BB7039903E
:1025C30004B2E0FF0271D7751E03D2028005751EA7
:1025D30002C20202430B02464A751E05025D2875BC
:1025E3001E0190047DE0701030200D02629D900466
:1025F30073E030E00312379322C0E0C0F0C083C021
:1026030082C0D075D000C000C001C002C003C004A6
:10261300C005C006C007D3907413740193956CE48E
:1026230093956B400A056CE56C7002056B807875B9
:102633006B00756C00056DE575644070609006E68F
:10264300E060481460211470549006E5E0FF604D8B
:102653009006E4E0C39F502C1269B5C39F403E909F
:1026630006E4E004F080369006E5E060309006E48E
:10267300E0D39400400E1269B59F40219006E4E038
:1026830014F080199006E6E4F080129006E1E0640D
:1026930002600A9006DE7402F0A31269BE1269B5E5
:1026A300C39F4003756D00907412E493FFE56AC302
:1026B3009F5005056A022761756A00900325E07043
:1026C30002A3E0600E900326E024FFF0900325E0D0
:1026D30034FFF030170A0566E566700A0565800663
:1026E3007565007566009006ECE07002A3E0600E6D
:1026F3009006EDE024FFF09006ECE034FFF0900646
:10270300E9E07002A3E0600E9006EAE024FFF09097
:1027130006E9E034FFF09006AAE07002A3E0600E41
:102723009006ABE024FFF09006AAE034FFF090039C
:1027330023E07002A3E0600E900324E024FFF090F6
:102743000323E034FFF09006EEE07002A3E0600E96
:102753009006EFE024FFF09006EEE034FFF0D39014
:1027630074107401939569E4939568400B0569E5CA
:1027730069700205680228F0756800756900201EFB
:1027830019900548E0FF900322E0C39F5005E00441
:10279300F08007900322E4F0D21E78D5E6FB30E107
:1027A3007978D71269C778CFE69F18E69E50090853
:1027B30006E618700106806278CE76000876007807
:1027C300D77600EB54FD78D5F69006DF7402F078E7
:1027D300D6E69006DE1269BE90031CE04404F0E5E1
:1027E300756439600BE575643A6005E575B43B12B1
:1027F3001269DCFE9006E1E06EFEEF4E9006E0F01B
:10280300800BE575B440069006E07401F09006F085
:10281300E04401F09006F37402F078D5E630E0620C
:102823009006E1E0FB605B78CD1269C778D2E69F42
:1028330018E69E50090806E618704706804478D1CA
:1028430076000876009006DF7402F09006DEE4124C
:1028530069BE90031CE04408F0E5756439600BE53C
:1028630075643A6005E575B43B0D1269DC6BFEEFE8
:102873004E9006E0F0800BE575B440069006E074D8
:1028830001F090047BE0600214F090031BE060020F
:1028930014F078D406E6187001069006B6E06005D9
:1028A30030280214F0900684E0600214F09006AF22
:1028B300E0600214F090047FE0600214F090047C66
:1028C300E0600214F09006F4E0600214F09006BD9C
:1028D300E0600214F090047DE0600214F09006A61C
:1028E300E0600214F0900480E0600214F0301D6A8E
:1028F300E55DC3940A5004055D805F20215AE55EBF
:10290300C394054053D2217E007F997DFF7B017ADA
:102913000479AE12350978AE7C047D017B017A051A
:1029230079497E007F9912319A900547E55EF090D0
:1029330004AFE02405FFE433FEE55E6F7001EE6053
:10294300179006F0E04401F090054AE09006F1F09C
:10295300A3E55EF0A37401F0C21D9006CFE0FFA3D0
:10296300E0C39F5006E004F0022A189006D0E4F07A
:102973009006A9E024FE6049147003022A09240288
:102983006003022A169006B7E054079006CFF0FDC5
:102993009006B8E075F014A4FFAEF07C0012324C40
:1029A3009006BEEEF0A3EFF09006B9E0541F25E0C9
:1029B3009006C2F01269D4D22F9006A97402F08057
:1029C300549006C2E060379006BEE0FEA3E0FFC36A
:1029D3009006C1E09F9006C0E09E5017A3E004F06C
:1029E30070069006C0E004F0302F04B2B28026D205
:1029F300B280221269D4B22FA3E014F0801790069C
:102A0300A97403F0800F1269D4D22FD2B29006A911
:102A1300F08002D2B2907416E493FFE56ED39F5018
:102A230003022AAF756E009006ACE09006C31269EC
:102A3300889006ADE09006C41269889006AEE090D7
:102A430006C51269919006B0E09006C6126991908E
:102A530006B1E09006C712699A9006B2E09006C8E4
:102A630012699A9006B3E09006C91269A39006B45E
:102A7300E09006CA1269A39006B5E09006CB1269EE
:102A8300AC9006BAE09006CC1269AC9006BBE05459
:102A93001FFF9006CDE054E04FF09006BCE0541FBA
:102AA300FF9006CEE054E04FF0022BE6056EE56E94
:102AB300D394004062E56ED39420505B9006C3E04C
:102AC300FF541F600CE57430E00712697DC2A080DB
:102AD30002D2A09006C6E0FF541F600CE57430E1FB
:102AE3000712697DC2A68002D2A69006C9E0FF54F0
:102AF3001F600CE57430E20712697DC2818002D247
:102B0300819006CCE0FF541F600812697DC2CD029C
:102B13002BE6D2CD022BE6E56ED394204060E56E22
:102B2300D3944050599006C4E0FF541F600CE574E1
:102B330030E00712697DC2A18002D2A19006C7E0EE
:102B4300FF541F600CE57430E10712697DC2A58054
:102B530002D2A59006CAE0FF541F600CE57430E270
:102B63000712697DC2808002D2809006CDE0FF54B7
:102B73001F600712697DC2CC8069D2CC8065E56E87
:102B8300D39440405EE56ED3946050579006C5E001
:102B9300FF541F600CE57430E00712697DC2A28008
:102BA30002D2A29006C8E0FF541F600CE57430E126
:102BB3000712697DC2A48002D2A49006CBE0FF5421
:102BC3001F600CE57430E20712697DC2A78002D250
:102BD300A79006CEE0FF541F600712697DC2838071
:102BE30002D283D007D006D005D004D003D002D0C0
:102BF30001D000D0D0D082D083D0F0D0E0320268B0
:102C03000000016A00026B0000016D00016E0043C9
:102C130006C30000004306C60000004306C90000C7
:102C2300004306CC0000004106CF034106D000421A
:102C330006BE01F44206C000004106C208C1AF014E
:102C430075400174010371000000026F0000204011
:102C53007D000000000000000000000000000000F4
:102C63000000000000000000000000000000000061
:102C73000000000000000000000000000000000051
:102C83000000000000000000000000000000000041
:102C9300004606D80000000000004606D1010101ED
:102CA3000101014106D700C1304306AC00000043D7
:102CB30006B00000004306B30000004306BA00005C
:102CC300004206A70000C1A7011F00011E00420623
:102CD300AA00004106B63CC1284106AF004106BD2B
:102CE300004106A6004306B70000004106A9000202
:102CF300080000C1224106A500010A1FC1A3010B60
:102D030000010C00C1A4010D00010E00010F000120
:102D13001000011100011200C1A5011300011400EC
:102D2300011500011600011700C126011800011941
:102D330000011A00011B00011C00011D004406F0E4
:102D43000000000060840327000000000000000072
:102D53000000000000000000000000000000000070
:102D63000000000000000000000000000000000060
:102D73000000000000000000000000000000000050
:102D83000000000000000000000000000000000040
:102D93000000000000000000000000000000000030
:102DA3000000000000000000000000000000000020
:102DB3000000000000000000000000000000000010
:102DC300000000000000000000000000602D0481EE
:102DD30000000000000000000000000000000000F0
:102DE30000000000000000000000000000000000E0
:102DF3000000000000000000000000000042032368
:102E03000000608403ED00000000000000000000EB
:102E130000000000000000000000000000000000AF
:102E2300000000000000000000000000000000009F
:102E3300000000000000000000000000000000008F
:102E4300000000000000000000000000000000007F
:102E5300000000000000000000000000000000006F
:102E6300000000000000000000000000000000005F
:102E7300000000000000000000000000000000004F
:102E83000000000000000000000042047100006028
:102E93003E03AE0000000000000000000000000040
:102EA300000000000000000000000000000000001F
:102EB300000000000000000000000000000000000F
:102EC30000000000000000000000000000000000FF
:102ED3000046047500000000000046031C000000CB
:102EE300000000015FA14204730000C11FC11C4226
:102EF3000325000042047E0000C11E41032200415D
:102F030005481441047B0041047C0343031800007B
:102F1300004303AB0000004103EC0041031B00C16D
:102F230021C11D015D00015E00609A04AE00000036
:102F3300000000000000000000000000000000008E
:102F4300000000000000000000000000000000007E
:102F5300000000000000000000000000000000006E
:102F6300000000000000000000000000000000005E
:102F7300000000000000000000000000000000004E
:102F8300000000000000000000000000000000003E
:102F9300000000000000000000000000000000002E
:102FA300000000000000000000000000000000001E
:102FB300000000000000000000000000000000000E
:102FC30000000000000000015C004104801E410479
:102FD3007D00C12041031400410315004103160085
:102FE300410313FF01560001570001580041031725
:102FF3000002590000015B00C119C11BC19A01D82D
:1030030000C198C117026500004206EC00004206A9
:10301300E900004106EB014206EE000001670001F2
:103023006400C10FC110C1110160000161004106BC
:10303300E800016200C112C113C11401630041061B
:10304300E7024106E1004206DE00034106E000C15B
:103053002D4206E20000C12E4306E40000004706AD
:103063007D000000000000004106840A4106850837
:103073004106860002D3000001D000C12CC12B0100
:10308300D50002CE000001D70001D60002D1000016
:1030930001CD0058068D0000000000000000000074
:1030A30000000000000000000000000000004606D1
:1030B3008700000000000002CB000042067B0000F6
:1030C300C1294106F40000E709F608DFFA8046E764
:1030D30009F208DFFA803E88828C83E709F0A3DFD8
:1030E300FA8032E309F608DFFA8078E309F208DFB1
:1030F300FA807088828C83E309F0A3DFFA80648905
:10310300828A83E0A3F608DFFA805889828A83E003
:10311300A3F208DFFA804C80D280FA80C680D48084
:103123006980F28033801080A680EA809A80A8802C
:10313300DA80E280CA803389828A83ECFAE493A33B
:10314300C8C582C8CCC583CCF0A3C8C582C8CCC5CA
:1031530083CCDFE9DEE7800D89828A83E493A3F6DB
:1031630008DFF9ECFAA9F0EDFB2289828A83ECFAF5
:10317300E0A3C8C582C8CCC583CCF0A3C8C582C8A8
:10318300CCC583CCDFEADEE880DB89828A83E493E3
:10319300A3F208DFF980CC88F0EF60010E4E60C324
:1031A30088F0ED2402B4040050B9F582EB2402B494
:1031B300040050AF232345822390311A73BB0106C9
:1031C30089828A83E0225002E722BBFE02E322893E
:1031D300828A83E49322BB010CE58229F582E5838D
:1031E3003AF583E0225006E92582F8E622BBFE0683
:1031F300E92582F8E222E58229F582E5833AF5831F
:10320300E49322BB010689828A83F0225002F722CB
:10321300BBFE01F322F8BB010DE58229F582E583AC
:103223003AF583E8F0225006E92582C8F622BBFE70
:1032330005E92582C8F222EF8DF0A4A8F0CF8CF027
:10324300A428CE8DF0A42EFE22BC000BBE0029EFD5
:103253008DF084FFADF022E4CCF875F008EF2FFF7A
:10326300EE33FEEC33FCEE9DEC984005FCEE9DFE48
:103273000FD5F0E9E4CEFD22EDF8F5F0EE8420D28F
:103283001CFEADF075F008EF2FFFED33FD400798FE
:103293005006D5F0F222C398FD0FD5F0EA22E88F4D
:1032A300F0A4CC8BF0A42CFCE98EF0A42CFC8AF0C7
:1032B300EDA42CFCEA8EF0A4CDA8F08BF0A42DCCC9
:1032C3003825F0FDE98FF0A42CCD35F0FCEB8EF022
:1032D300A4FEA9F0EB8FF0A4CFC5F02ECD39FEE408
:1032E3003CFCEAA42DCE35F0FDE43CFC22EB9FF53B
:1032F300F0EA9E42F0E99D42F0E89C45F022E86046
:103303000FECC313FCED13FDEE13FEEF13FFD8F127
:1033130022E8600FEFC333FFEE33FEED33FDEC33F2
:10332300FCD8F122A42582F582E5F03583F58322CA
:10333300D083D082F8E4937012740193700DA3A329
:1033430093F8740193F5828883E47374029368603D
:10335300EFA3A3A380DF8A838982E473E3F5F009F3
:10336300E208B5F06BDFF58067E3F5F009E608B531
:10337300F05EDFF5805A87F009E608B5F052DFF614
:10338300804E87F009E208B5F046DFF68042888276
:103393008C8387F009E0A3B5F036DFF680328882AC
:1033A3008C8387F009E493A3B5F025DFF5802188AA
:1033B300828C83E3F5F009E0A3B5F014DFF5801008
:1033C30088828C83E3F5F009E493A3B5F002DFF47C
:1033D30002348E808780E9809080D4803E8015807F
:1033E3006E807E809D80B7808D80A38051807480A5
:1033F3003C02349A89828A83ECFAE493F5F0A3C8F9
:10340300C582C8CCC583CCE493A3C8C582C8CCC548
:1034130083CCB5F076DFE3DEE1807089828A83E4D2
:1034230093F5F0A3E208B5F062DFF4805E89828A47
:1034330083E0F5F0A3E608B5F051DFF5804D89820E
:103443008A83E0F5F0A3E208B5F040DFF5803C891C
:10345300828A83E493F5F0A3E608B5F02EDFF480C7
:103463002A8002805789828A83ECFAE493F5F0A3D9
:10347300C8C582C8CCC583CCE0A3C8C582C8CCC5A7
:1034830083CCB5F006DFE4DEE280007FFFB5F00217
:103493000F2240027F012289828A83ECFAE0F5F051
:1034A300A3C8C582C8CCC583CCE0A3C8C582C8CC99
:1034B300C583CCB5F0D5DFE5DEE380CF89828A838F
:1034C300ECFAE0F5F0A3C8C582C8CCC583CCE4937D
:1034D300A3C8C582C8CCC583CCB5F0AFDFE4DEE2B8
:1034E30080A988F0EF60010E4E60ABED2402B404B6
:1034F300005098F582EB2402B40400508E23234538
:1035030082239033D673EF4E6012EF60010EEDBB52
:10351300010B89828A83F0A3DFFCDEFA2289F05053
:1035230007F709DFFCA9F022BBFEFCF309DFFCA9C6
:10353300F022FAE6FB0808E6F925F0F618E6CA3A9F
:10354300F6228E6F8F707E007D007B007F407A00B5
:10355300797D123509753BFF22E0753E00F53F7B0F
:10356300007A00797D227D017BFF7E0002319AABD8
:1035730027900001AA28A9290231D97D017BFF7E6A
:10358300007F9902319A900003AB27AA28A9290248
:1035930031D9A801FC7A0679D97F057B017E000227
:1035A300319A7D017BFF7E0002319AF0900007E0A3
:1035B300FF04F074092FF582E43400F583229000B0
:1035C3000DAB27AA28A9290231D97D017BFF7E00F3
:1035D30002319AA3E0FFE4FCFDFE123314E52D4F04
:1035E300F52DE52C4EF52CE52B4DF52BE52A4CF569
:1035F3002AA3E0FF227E007F997D007B010235092B
:1036030078B07C047D017F027E001234E5EF2290C6
:103613000686F07A0679857B0175380075390122B3
:103623007D017BFF7E0002319A75F00FED12332787
:10363300EC75F00FA42583F583229003A8F07F8017
:103643007A0379277E007D007B01023509AB27AA27
:1036530028A9290231D97E0078277C037D017B01CB
:1036630002319A900686E0FFE4FCFDFE7B3CFAF90A
:10367300F80232A17D017BFF02319AAB27E52924B1
:103683000EF9E43528FA22E0FF900007E0FE04F08B
:1036930074092E2278C3E6FF75F00FA4248FF582F8
:1036A300E43404F583227D017B017E0002319A7AA2
:1036B30001793C7F067B017E001234E5EF22900006
:1036C3000EAB27AA28A9290231D9E62418F582E4EA
:1036D3003403F58322FFE434FFFEE4FCFD7B107A20
:1036E3000EF9F80232A19006DEF0A37402F0227EF6
:1036F300007D007B01023509AB33AA34A935227E54
:10370300007F0212319A7B017A0679A7753800751A
:1037130039027F3822E6FE08E6FF7C0002324CE4E1
:1037230093F540754102A3E493F542740193F54385
:103733007BFF22E0754000F541A3E0754200F543AD
:10374300227B017A0479AE7D9922E0753E00F53F34
:10375300227E007C00E5482552F9EC3547A801FCA0
:10376300AD46227D007BFF7E0002319AE0FF7E00A2
:103773007B0102319AF0E490046DF0900472E0440E
:1037830001F0E0540122F9E43534A801FCAD332201
:1037930054FEF0A3E0F55C2275F003E52DA4240E9E
:1037A300F582E435F0F58322E52D75F003A4244674
:1037B300F582E43401F5832278B07C047BFFFE7F3D
:1037C300027D011234E5EF228F827583000231D925
:1037D300F090047C7403F022E53624F3FFE434FF15
:1037E300FE22900314E075F086A422E493FF740193
:1037F30093900325CFF0A3EF22D2A3900325741750
:10380300F0A37470F022FA7D017E0002319A7B00EE
:103813007A00792D22FF90067FE014FE7401A8063A
:10382300082290048F75F00F0233277D017BFFFE82
:1038330002319A75440275450175462C7BFF22FCC3
:10384300123301A3EFF022C2219004AEE064FE2202
:10385300900474F0900473E04401F022F9E43528F5
:10386300A801FC2274017E00A80708227F997B012E
:10387300023509F0900007E02409F9E4340022C27C
:10388300A3900325E4F0A374C822C203C204C205B3
:10389300AB27E529227554007555027F387E002237
:1038A300900471F0A3EFF0755C0422F9E43AFA7D19
:1038B3000102319AAF5205528F8275830022E67559
:1038C3003E00F53F22AB27AA28A9290231C0E075A3
:1038D3004000F54122AB27AA28A929229006E0E05F
:1038E300FF9006DEE02278BDE6FE08E6227B0112A9
:1038F3003509900009E0227B017A0079A222302B5E
:1039030011E51F64036006E51F64027031751F042F
:10391300802CE51FB404031271BFE51FB402062017
:103923002803751F039006B6E07013E51FB4030E5A
:1039330030280B3027087F0F126913751F02E51F0C
:1039430014B408004003023B9C90395A75F003A459
:10395300C58325F0C583730239720239750239783C
:10396300023978023B55023B70023B78023B7502F9
:103973000003024B299006E1E0FFF527E575B43912
:103983000DEF54014227E52725E0F527803FE57534
:10399300B43A169006E1E0FF54024227E52725E0FA
:1039A300F527EF540142278024E575B43B02800BD1
:1039B300E57564406005E575B43D089006E1E0F502
:1039C30027800AE575B43C051272AE8F27E575248E
:1039D300C0705FE52724FC602024037038124983FC
:1039E3009006A8123BA0124A01541FF52B7F011227
:1039F3003C2EFB9006A7023AB1124A169006A71274
:103A030049999006A7123BA09006A8123BE8FB90A9
:103A130006A8023AB1124983541F124A01541FF5F2
:103A23002BE4FF123C2E9006A7123BE8FB9006A85E
:103A3300807CE57430E01EE52730E00E124A161252
:103A43004B0312499C124B0A8006124983124B11F5
:103A5300124A058003124A5F541FF52BE4FF126AD2
:103A63004EE57430E11EE52730E10E124A16124B83
:103A73000312499C124B0A8006124983124B1112FE
:103A83004A058003124A5F541FF52B7F01126A4EC9
:103A9300E57430E21EE52730E20E124A16124B039C
:103AA30012499C124B0A8006124983124B11124A87
:103AB300058003124A5F541FF52B7F02126A4EE5FD
:103AC3001EB404089006AFE07002F51ED3906BA6F7
:103AD3007401939509E493950840090509E5097074
:103AE30002050822B222E4F508F509E51E14602751
:103AF30014602C14603214600E14603E2405704E62
:103B0300E4F52B7B1E800DE4302206F52B7B1E8013
:103B130003F52BFBFD8021E4F52BFB7D1E8019E4CF
:103B2300F52B7B0A7D1E8021E4302208F52B7B0ACE
:103B33007D1E8004F52BFBFD800FE4302207F52B5F
:103B4300FB7D1E8004F52BFBFD7F03026A4EE4F52B
:103B53001E229006AFE060047F018013124AB11267
:103B63003509753BFF753C6B753D5E8020E4FF02B4
:103B73004F190267509006BDE06003026FDF124ADF
:103B8300B1123509753BFF753C6B753D6E124ABA30
:103B9300123CB9124ABA026F15751F0322541FFB58
:103BA300E075F003A42487F582E4346BF583E49392
:103BB300541FF52BE4FF126A4E9006A8E075F0033C
:103BC300A42485F582E4346BF583E493541FFD90BC
:103BD30006A8E075F003A42486F582E4346BF5832C
:103BE300E493541F22FBE075F003A42487F582E4D9
:103BF300346BF583E493541FF52B7F01126A4E90C7
:103C030006A8E075F003A42485F582E4346BF583FC
:103C1300E493541FFD9006A8E075F003A42486F5F1
:103C230082E4346BF583E493541F22126A4E9006A8
:103C3300A7E075F003A42485F582E4346BF583E4EF
:103C430093541FFD9006A7E075F003A42486F58224
:103C5300E4346BF583E493541F22E547243BF8E6F1
:103C63000547227838300D02783BE475F0011235B0
:103C7300350231C02006EB7F2ED2068018EF540F99
:103C83002490D43440D4FF300A0BEF24BFB41A007D
:103C930050032461FFE54860021548054BE54B706E
:103CA30002054A300D0D7838E475F001123535EF11
:103CB3000232060270827403D20D8003E4C20DF552
:103CC300478B388A39893AE4F548F54AF54BE54894
:103CD30060077F20123C9880F57549FFC207C20632
:103CE300C208C209C20BC20CC20E123C66FF700DA1
:103CF300300D057F00123CA9AF4BAE4A22B4255FBD
:103D0300C2D5C20A123C66FF24D0B40A00501A7509
:103D1300F00A784830D50508B6FF0106C6A426F692
:103D230020D5047002D20980D924CFB41A00EF50F1
:103D330004C2E5D20A023EA9D20780C6D20680C0D9
:103D4300D20880BCD2D580BAD20B80B47F20123C7B
:103D5300982008077401B5480040F1123C5DFF123A
:103D63003C98023CD1D20ED20C8095123C5DFB12E2
:103D73003C5DFA123C5DF94A4B7006797A7A3F7BD7
:103D8300FF20082EE548602A7E008E82758300128C
:103D930031D960060EEE654970F0C2D5EBC0E0EA9A
:103DA300C0E0E9C0E0EE123EF0D0E0F9D0E0FAD096
:103DB300E0FB1231C0FF60AAEBC0E0EAC0E0E9C05B
:103DC300E0123C98D0E02401F9D0E03400FAD0E0CE
:103DD300FBE5490460DCD549D980877BFF7A3E79CE
:103DE300ECD208809C791080027908C20CC20E8044
:103DF30008D2D5790A8004790AC2D5E5490470024C
:103E0300F549E4FAFDFEFF123C5DFC7B0820071335
:103E1300123C5DFD7B1030060A123C5DFE123C5DD8
:103E2300FF7B20EC3382D592D55013C3E4300606D2
:103E33009FFFE49EFEE42007039DFDE49CFCE4CB8E
:103E4300F8C207EC700CCFCECDCCE824F8F870F3B1
:103E53008017C3EF33FFEE33FEED33FDEC33FCEBA2
:103E630033FB994002FB0FD8E9EB300705F8D0E0AC
:103E7300C448B207C0E00AEC4D4E4F78207B007077
:103E8300C2EAB5490040BCC0E0123EF2D0F0D0E037
:103E9300200704C4C0E0C4B207C0F0123C81D0F0D4
:103EA300D5F0EB023CD11233333D6E533DE8583D20
:103EB3003F4C3D3B423DEC4F3DF4443DF4493D54C2
:103EC300433DFA553DDE463DDE453DDE473F9A50D4
:103ED3003D432D3D472E3D6A2B3D4B233D68203FFF
:103EE300832A3D034800003D623F3F3F00790AA219
:103EF300D5200914300B09B910020404B9080104D0
:103F0300A2D5200C025001042008689208B548008D
:103F13005034C0E07F203009197F30A208720C7240
:103F23000B500F123F49C208C20CC20BC20E7F30A6
:103F3300800F300B03E9C0E0123C98300B03D0E054
:103F4300F9D0E0B548CC300B177F30B9100C123CD8
:103F5300987F58300A077F788003B90803123C988A
:103F63003008057F2D023C987F20200EF87F2B2000
:103F73000CF322920880CF286E756C6C2900D2074F
:103F8300123C5D3007F8C207784830D50108F602C5
:103F93003D032D50434958123C5D2403B4050040B2
:103FA30001E4903F9593123C89743A123C89D209FB
:103FB300754804023DE8E4F527905A7E93FE7401A8
:103FC30093FFC390067CE09F90067BE09E500EA378
:103FD300E004F0702390067BE004F0801BE490067D
:103FE3007BF0A3F078287C00FD7B017A06797DFEC7
:103FF3007F0712319A125F8D202934D2297B007AF0
:104003000079D5125B257F0B7E00126F7D7B007AD2
:104013000079CD125B257F0C7E00126F7D7B017AC8
:1040230006798D1264C87B017A06798712654E780A
:10403300D3E6FA08E6FBFF125B71900682EFF0AF5E
:1040430003125B71A3EDF0C378D4E6941018E694E1
:104053000E402DE478D3F608F6900681E0C3941859
:104063004004E4F08006900681E004F090067FE0CF
:10407300D3940740057401F0800690067FE004F0B6
:10408300900687E0547FFFBF7F05D22B02412CC2ED
:104093002A900688E0131313541FFF7E007C007DD3
:1040A3003C12323A125B44900000F0A3EFF090060A
:1040B3008BE0131313541F125ABA125B449000027D
:1040C300F0FAA3EFF0FB125AB6125B44900004F02F
:1040D300A3EFF0C3900001E09B900000E09A50042E
:1040E300C22A8002D22A900687E030E73A202A1BB0
:1040F300125AFD4012900002E0FEA3E0FFED9FEC98
:104103009E5004D22B8022C22B801E125AFD500FC8
:10411300900002E0FEA3E0FFC3ED9FEC9E5004D2AB
:104123002B8006C22B8002C22BE4F527125AD6C479
:10413300131313540130E004D22C8009C22C052739
:10414300E527B408E7202C030242F1E4F527125ACD
:10415300D6547FFD90067FE0FF12700940030242B0
:10416300E5125AD6C4131313540120E0030242E5A7
:10417300125A82A3E0F92FFFEC3EFEEF6B7002EEC2
:104183006A6028125B4B8005C333CE33CED8F9FF68
:1041930078CBE6FC08E6FDEE5CFAEF5D4A600CEFD7
:1041A300F4FFEEF45C18F6ED5F08F6125A82E92F7D
:1041B300FFEC3EFEEF6B7002EE6A60030242A8045E
:1041C3007E00A827088005C333CE33CED8F9FFEE8F
:1041D30078CB56FEEF08564E60030242A8FE7F409E
:1041E300FDFB7A00797D123509753BFF753C5975E6
:1041F3003DF5753E0085273F7B007A00797D123CB3
:10420300B97B007A00797D126F15125B4B8005C371
:1042130033CE33CED8F9FF78CBE64EF608E64FF629
:1042230078D0E6F9FDEF5D601CAF277401A807089D
:104233008002C333D8FCF45978D0F67A5A798012C5
:1042430042F21273679006DF7402F0E52775F003FC
:10425300A4248EF582E43406F583E054079006DE49
:10426300F09006E2E04401F090031CE04410F0E516
:10427300756439600BE575643A6005E575B43B1800
:104283009006E0E0FF9006DEE0FE9006E1E06EFEC1
:10429300EF4E9006E0F0804AE57564407044900666
:1042A300E004F0803D125A82125B44FED3EF9BEE92
:1042B3009A402F125B4B8005C333CE33CED8F9FF20
:1042C30078D0E6FDFBEF5B6019AF277401A8070800
:1042D3008002C333D8FCF45D78D0F67A5A79811220
:1042E30042F20527E527C39408500302415122E512
:1042F3002775F003A42410FFE435F0FE7BFF753827
:1043030000753901126B0922783B7C017A0D79C360
:104313007F4012362390017B7402F0E4F52790046A
:1043230073E0FF30E00F123793E4900314F0A3F02F
:10433300A3F0D2A322900314E0D3940F402CE4F013
:10434300A3F0A3F0D2A3900684740AF0755C017500
:104353001F03126CE1123545753C00753DE81235BB
:1043630062123CB9123562026F15200209900314E0
:10437300E070037407F0900314E0FF64076003EF39
:104383007006900684740AF0900313E06F602AA30A
:10439300E0900313F0123549753C01753D0E90030F
:1043A3001312374DA202E433754000F54112356212
:1043B300123CB9123562126F15900314E0FF70615D
:1043C300EF6003024620900315E01460101460248C
:1043D300240260030246201238820245BE90032560
:1043E300E07002A3E060030246201237FC9003153D
:1043F3007402F022900325E07002A3E0700490039E
:1044030015F0202103024620C221754AFF754B088F
:10441300754CBB9008FB12462170030246200246EE
:1044230013900314E0FFD3940050030244F5EF9478
:104433000940030244F5A3E01460770460030246D5
:1044430020900314E0FF90017BB40705740CF08007
:10445300037402F090017BE0FE900316E0D39E40CC
:1044630003024591EF75F086A4FFAEF02478F9744A
:10447300083E7549FFF54A894B754C02747A2FF94A
:1044830074083E754DFFF54E894F1237E524BAF592
:1044930082E5F03408F583124634AD271270A91271
:1044A30037E524FCF582E5F03408F5831237EE0294
:1044B30045BE900325E07002A3E070030245D020BF
:1044C3002103024620C2211237E524BBF9740835C3
:1044D300F0754AFFF54B894CE075F086A424FBF593
:1044E30082E5F03408F58312462170030246200268
:1044F3004613900314E0C39409500302462078281E
:104503007C007A0E79037F10123766900D70E49366
:10451300FF7E0078287C007D007BFF7A0D793012C6
:10452300319A900314E0FDC3940C502EE0FF75F014
:1045330003A4249FF582E4340DF583E493F528EF77
:1045430075F003A424A0F582E4340DF583E493FE0F
:10455300740193F52BEEF52C801E74652DF8E6FFA0
:10456300C39410500302461AEF94FF400302461A05
:104573008F28752B0DE4F52C900315E0146044048B
:104583006003024620900316E0D394024007E4F050
:10459300900314F0227549FF754A0D754B2E754C27
:1045A30002754D00754E00754F28900D70124634FC
:1045B300AD271270A9900DB21237EEF09003157467
:1045C30001F022900325E07002A3E0700C90031623
:1045D300E004F0E4900315F022302141C221754A32
:1045E300FF754B0D754C71900DB1E493F54D12377A
:1045F30044120026EA494B7017754AFF754B0D7537
:104603004CB4754D06123744120026EA494B600D2F
:10461300E4900315F0A3F0900314E004F022E49374
:10462300F54D7B017A0479AE7D99120026EA494B58
:1046330022E493F5507B017A01793B1263B58F270E
:104643007B017A01793B22783C7C017D017BFF7AF7
:104653000F7947123582E4F52778D57C017A0F79F3
:10466300E07F4012382EE4F52878297C00FD7BFF9B
:104673007A107920FE7F0312319A900473E0FF30A1
:10468300E009123793E4F557F55822E4F52990032E
:10469300A8E0F52A752B0D7549FF754A10754B2354
:1046A300754C02754D00754E00754F297550037B8F
:1046B300017A0179D51263B58F289003A9E0FCA391
:1046C300E0FD9003A8E0F537753801753903753AB5
:1046D300279003A7E0F53B7B017A01793C126658EA
:1046E3008F27E5571460431470030247D1147003F6
:1046F30002486F14700302487E240460030248DCFE
:10470300E558D394034009755601E4F5580248DC93
:10471300D2A3900472E020E0031248E090032574D2
:1047230003F0A374E8F075570122900471E0C313FA
:10473300FEA3E013FFEE547FFCAD07900325E0FAE0
:10474300A3E0FBFFAE0212324C90013BEFF0EB4AC9
:1047530070060558F5578050900472E030E01190D0
:10476300013BE0FF900317E06F6005EFF01248E0B4
:104773002021030248DFC221754A01754B01754CA4
:10478300D585284D123744120026EA494B601E9006
:10479300046DE07005755703800D7557029003256E
:1047A3007401F0A374F4F0E4900317F0227BFF7A12
:1047B30010792312360360030248DF9004B2E0F558
:1047C30056900472E030E0030248DF0248DC9003B5
:1047D30025E07002A3E070050558F5572220210358
:1047E3000248DF9004B6E0FDA3E078C8F6ED08F6D2
:1047F3009004B9E008F612384A6018123549753C3E
:1048030001753D489004AE12355C123CB912356215
:10481300126F1590046DE0FF7E0078C37C047B016A
:104823007A0379ED1237C4701F78C8E6FE08E6FFF5
:1048330090046FE0B50611A3E0B5070C90046EE099
:104843000866700475570322123549753C01753D9E
:104853005D78CA1238C178C8E6FE08E68E40F54195
:10486300123562123CB9123562026F15301F07C24E
:104873001F755C03804C755C018047301F07C21FA6
:10488300755C038003755C01E55660361235497526
:104893003C01753D83753E0085563F123562123CDF
:1048A300B9123562126F15302802C228E556243337
:1048B300600A24E4600624E970028000751E01E4A6
:1048C300F556E4F558F557900472E054FEF0E49081
:1048D3000471F0A3E05401F022755704227B017A9E
:1048E30001793CAD271270A922541FFFE054E04F19
:1048F300F0C3741F950E541FFF9006BAE054E04FA7
:10490300F0C3741F950F541FFF9006B3E054E04F9C
:10491300F09006B0C3741F9510541FFFE054E04F8E
:10492300F0229006B475F00384541FFFE054E04F67
:10493300F02275F00584FFC374069F541FFFE054F3
:10494300E04FF02213139006B1541FFFE054E04FE1
:10495300F022E51AC313541FFFE054E04FF022C3C3
:10496300741F950F541FFF9006B0E054E04FF0C33F
:10497300741F950E9006AC541FFFE054E04FF022D5
:104983009006A8E075F003A42485F582E4346BF562
:1049930083E4939006A8541FFDE075F003A42486D6
:1049A300F582E4346BF583E49322E51BC313541FB0
:1049B300FFE054E04FF02213139006B4541FFFE0BE
:1049C30054E04FF022C3741F95119006BA541FFF91
:1049D300E054E04FF022E51A849006BB541FFFE039
:1049E30054E04FF022E51CC313541FFFE054E04F83
:1049F300F0229006B3541FFFE054E04FF022FB90E7
:104A030006A8E075F003A42487F582E4346BF583EC
:104A1300E493229006A7E075F003A42485F582E4CD
:104A2300346BF583E4932275F00384FEC3740A9E0A
:104A3300541FFEE054E0229006B0541FFFE054E000
:104A43004FF022441FF09006ACE0441FF09006B0F4
:104A5300E0441FF09006B3E0441FF022906BA3E400
:104A630093541FFDA3E493541FFBA3E493229006E6
:104A7300ACE054E0F09006B0E054E0F09006B3E010
:104A830054E022FFE493FEEF8EF0A4FF9006AAE524
:104A9300F0F0A3EFF022F0EB541FA3FFE054E04F3C
:104AA300F022E0441FF0A3E054E0440AF022127124
:104AB300BF7E007F407D007B007A00797D22C31397
:104AC300FFC3740F9F541F22C3741F9511541FFFFC
:104AD3009006AC2275F00384FEC3740A9E541FFE35
:104AE300E054E022E51275F00F84E5F0D3940AE078
:104AF30022F09006BAE054E0227B027D287F032255
:104B0300541FFD9006A722541FFB9006A722541F93
:104B1300FB9006A822541FFF9006AD2275F0058472
:104B2300FFC374069F229006AAE0FEA3E04E707BAB
:104B33009006AAF0A3740CF0906BB0E493FFE51811
:104B4300D39F401CE4F518E519D394074005E4F519
:104B53001980020519E4F51DF51CF51BF51A804BA8
:104B63000518E518C394004009E5189420500385FF
:104B7300181AE518C39420400CE51894405006E534
:104B83001824E0F51BE518C39440400CE518946025
:104B93005006E51824C0F51CE518C39460400CE5E5
:104BA3001894805006E51824A0F51DE519B40700F4
:104BB3004003024D21904BBFF8282873024BD402C7
:104BC3004BF4024C07024C2A024C49024C6C024C37
:104BD300A975F0051249D9E51B75F005841249BC86
:104BE300E51C75F00584124949E51D75F0058480BF
:104BF30030E51A1249CDE51B1249F5E51C124A3A74
:104C0300E51D805FE51A9006BB124935E51B124B83
:104C13001F1249BCE51C9006B1124935E51D124B24
:104C23001F124B18024D1C9006BC1249559006B535
:104C33001249AD9006B21249E8E51DC313541FFF94
:104C43009006AE024D1CC3741F951A1249CDC3744E
:104C53001F951B1249F5C3741F951C124A3AC3745E
:104C63001F951D124AD0024D1C75F0031249D9E558
:104C73001B124925E51C75F00384124949E51D758E
:104C8300F00384541F9006AD124A9E9006BA12494F
:104C9300559006B31249AD9006B01249E8E51DC31D
:104CA30013124AD08073E51A124AC1FD9006BCE084
:104CB30054E04DF0E51B124AC1FC9006B5E054E008
:104CC3004CF0E51C124AC1FB9006B2E054E04BF0F5
:104CD300E51D124AC1FF9006AEE054E04FF0E51A1D
:104CE3009006BB124A2A4EF0E51B9006B4124AD72F
:104CF3004EF0E51C9006B1124AD74EF0E51D900622
:104D0300AD124A2A4E124AF44D124A7E4CF09006D6
:104D1300B0E054E04BF09006ACE054E04FF0228B4F
:104D2300278A288929783B7C017A1079287E007F9D
:104D330022123677AB27AA28A9291231C090013B4A
:104D4300F09000011231D9FF7E00E92402783C7C07
:104D5300011238AEAB27AA28A9299000011231D934
:104D630090015CF090013BE02497604314700302D0
:104D73004E9B24FE7003024ED5147003024EB524DD
:104D8300056003024F18C202D20490013CE0F52EE5
:104D9300126C00920290013CE0FF1271D712354968
:104DA300753C02753D2490013C12374D024E8FC273
:104DB30002C203E4F52DF52CF52BF52A90013CE016
:104DC300FFE52D4FF52DE52CF52CE52BF52BE52AED
:104DD300F52A78081235D6E4FCFDFE781012331458
:104DE300E52D4FF52DE52C4EF52CE52B4DF52BE55B
:104DF3002A4CF52A78181235D6900685E0B5070CAB
:104E0300900141E0FE900686E06E6021900685EFFA
:104E1300F0900141E01236127F037E00126B097A93
:104E230006798612361A7F047E00126B09900142BE
:104E3300E06002D2037F807E437D6D7C38AB2DAA78
:104E43002CA92BA82AD31232F0401DE52D2480FF74
:104E5300E52C34BCFEE52B3492FDE52A34C7FCA2D5
:104E630003920412540B9202123549753C02753DAC
:104E73004590013F12374D90013E1238D190013DCC
:104E830012373D90013CE0754400F545123562123E
:104E93003CB9123562026F15123549753C02753DF6
:104EA3006E123562123CB9123562126F15C20402DA
:104EB3006F4B123549753C02753D8B90013C1235A1
:104EC3005C123CB9123562126F1590013CE0FF028F
:104ED30072D49006E1E078C8F69003ECE0FF90010D
:104EE3003CE06F6030123549753C02753DB01235B8
:104EF30062123CB9123562126F1590013CE09003C7
:104F0300ECF0D39407500E9006DF7402F09003EC9C
:104F1300E09006DEF022AD07E512701D20251A9001
:104F23006BAF93FFE513C39F50040513800BE4F5A8
:104F330013F517F516F515F514E5127004D225804F
:104F430009E512D394504002C2259006AAE07002EC
:104F5300A3E07066AF12202504151280020512EF3C
:104F6300541FFF906BADE493FEEF8EF084A3124ABF
:104F730086E512C394004009E5129420500385127C
:104F830014E512C39410400CE51294305006E51258
:104F930024F0F515E512C39420400CE5129440501B
:104FA30006E51224E0F516E512C39430400CE51231
:104FB30094505006E51224D0F517ED1470030250F7
:104FC3005B0460030250CFE51360030250CF30252A
:104FD30052E512C3942E50129006BA124AE74002C9
:104FE300803D54E0F0A3E0025073E512D3942D40CA
:104FF300069006BA124AA5E512D394324006124A25
:1050030057124AA9E512D3943C40069006B0124ABF
:10501300A5E512D3944650030250CF9006ACE0129C
:105023004AA622E5171249CDE5161249F5E51512F0
:105033004A3AE514124977E5179006BB124928E569
:1050430016124925E51575F00384124949E51475CF
:10505300F00384124B18806FE513707030254EE512
:1050630012C3942E500E9006BB124AE740028039B9
:1050730054E0F022E512D3942D40079006ADE044AE
:105083001FF0E512D3943240079006B1E0441FF0BD
:10509300E512D3943C40079006B4E0441FF0E512B8
:1050A300D3944640279006BBE0441FF022E51790B7
:1050B30006AD124A3DE516124949E5151249BCE50C
:1050C30014541FFF9006BBE054E04FF022AD07C21B
:1050D30015EF24FE604F24FE700302517224036017
:1050E300030251ADE575B43907E49006DEF080287C
:1050F300E575B440089006DE7404F0801BE575B4D2
:105103003D119006E1E0C39403500D9006DEE004E8
:10511300F080059006DEEDF0E57420E00302520E08
:10512300D21502520EE575B439051266518033E586
:1051330075B43A028018E575B440089006DE74022F
:10514300F0801FE575B43D159006E1E06007E4903B
:1051530006DEF0800D9006DE7403F080059006DE17
:10516300EDF0E57420E10302520ED21502520EE572
:1051730075B43A089006DE7402F08025E575B440F4
:1051830005126651801BE575B43D119006E1E0D32D
:105193009400400D9006DEE014F080059006DEEDED
:1051A300F0E57430E265D2158061E57524C6601AB6
:1051B30014603324026003025279ED30E103126676
:1051C30041E57430E145D2158041ED30E0031266CC
:1051D30041ED30E2079006DEE04402F0E574540549
:1051E3006029D2158025ED30E003126641ED30E1F0
:1051F300079006DEE04402F0ED30E2079006DEE0C1
:105203004404F0E57454076002D215E5756439600F
:105213000BE575643A6005E575B43B089006DF74E9
:1052230001F080069006DF7402F0200034E5756417
:1052330039600BE575643A6005E575B43B18900673
:10524300E0E0FF9006DEE0FE9006E1E06EFEEF4E4A
:105253009006E0F0800BE575B440069006E074011B
:10526300F09006DEE060031266493015097B017D8C
:10527300327F03127173226D61635F7265616C65C6
:10528300733A253032582025303258202530325891
:10529300200025303258202530325820253032580E
:1052A3002E0A00696E736572742063617463683AD1
:1052B3002025642C2076616C3A253032582E0A0062
:1052C30000000000000000000000000000000000DB
:1052D30000000000000000000000000000000000CB
:1052E30000000000000000000000000000000000BB
:1052F30000000000000000000000000000000000AB
:10530300000000000000000000000000000000009A
:10531300000000000000000000000000000000008A
:10532300000000000000000000000000000000007A
:10533300000000000000000000000000000000006A
:10534300000000000000000000000000000000005A
:10535300000000000000000000000000000000004A
:10536300000000000000000000000000000000003A
:10537300000000000000000000000000000000002A
:10538300000000000000000000000000000000001A
:10539300000000000000000000000000000000000A
:1053A30000000000000000000000000000000000FA
:1053B30000000000000000000000000000000000EA
:1053C30000000000000000000000000000000000DA
:1053D30000000000000000000000000000000000CA
:1053E30000000000000000000000000000000000BA
:1053F30000000000000000000000000000000000AA
:1054030000000000000000008F318E308D2F8C2EA5
:10541300785D7C017A08796D7F0B123623C205858E
:105423003135853034852F33852E322004030254E1
:10543300F8900685E0D3940C502C123666C004C055
:1054430005C006C007900685E0FFE4FCFDFE1236AA
:10545300E0D003D002D001D000EF2BFFEE3AFEEDF7
:1054630039FDEC38807A900685E0FFD3940C4042F6
:10547300EFD39418503CE024F41236D8C004C0058E
:10548300C006C007123666D003D002D001D000EBAD
:105493002FFBEA3EFAE93DF9E83CF8C3E5359BF515
:1054A30035E5349AF534E53399F533E53298F53239
:1054B3008043900685E0FFC3941E4039EF24EF122A
:1054C30036D8C004C005C006C007123666D003D064
:1054D30002D001D000EB2FFFEA3EFEE93DFDE83CA0
:1054E300FCE5352FF535E5343EF534E5333DF5334D
:1054F300E5323CF532E535FF90015DEFF0E4FFE581
:1055030034FEE4FD7808123842E4FFFEE533FDE49F
:105513007810123842E4FFFEFDE532FC78181238A9
:1055230043753901753A01753B5D900829E493F59C
:105533003C753DFF753E08753F2A90086A12372275
:105543007A0779E712620E9205A20522E4F527F5A0
:1055530028F5299006EEE07002A3E07006FEFDFB3D
:105563001265F71272AEEF7003025617201215D2AE
:105573001290588CE493FF7401939006ECCFF0A340
:10558300EF0256061272AEEF656270481266291278
:1055930065E3501990588A1265E64011AF621271A3
:1055A300EF201309D2137D04AF62125684C39058BF
:1055B3008A1265E74003025683C390588C1265E74D
:1055C3005003025683301403025683D2147D05AF71
:1055D300620256849006ECE0FEA3E0FF90588CE450
:1055E30093FC740193FDC39FFFEC9EFED3905886FA
:1055F3007401939FE4939E50030256839006ECEC50
:10560300F0A3EDF09006E97401F0A3745EF012725A
:10561300AE8F622230122F126629C390588612650C
:10562300E750231265E3401E9006E9E07002A3E011
:1056330060020563E563D3940150047D0280027D1B
:1056430003AF621256849006E9E07002A3E0701D76
:10565300E5636019F527E4F563E527C39402400A7F
:10566300AD27AF62125ECDE4F527E4F56230130295
:10567300C213301402C214E49006ECF0A3F0C21279
:10568300228F2A8D2BE52B24FD602814606614706D
:105693000302573D24036003025760C2161265D408
:1056A300753BFF753C57753DAF125773126F15C2AB
:1056B30000803A1265D4753BFF753C57753DCB129C
:1056C3005773126F159006EBE004F0E0B403134335
:1056D3006701E52A547F25E0FFE56754014FF5672D
:1056E30080097F017A0079671265DAD200AF2A1246
:1056F30050D08069E56730E021C313547F652A7079
:1057030019FE7F01FDFB12662212724B1265D475DE
:105713003BFF753C57753DE580121265D4753BFF21
:10572300753C58753D02753E00852A3F12660E1280
:105733003CB912660E126F1580231265D4753BFFB8
:10574300753C58753D1F753E00852A3F12660E1243
:105753003CB912660E126F15D204126F4BE52B641F
:1057630003600C126615E52B640260031265F122D7
:10577300753E00852A3F7B007A00797D123CB97B18
:10578300007A00797D22746F7563685061642073B9
:1057930070656369616C20747269673A6E776B4FE9
:1057A30070656E3A25303264732E0A00746F756328
:1057B300685061643A253032582C2073686F7274D4
:1057C30050726573732E0A00746F75636850616459
:1057D3003A253032582C20636E7450726573732EE1
:1057E3000A00636F6D62696E6174696F6E2066751E
:1057F3006E3C3353314C3E2074726967210A007446
:105803006F7563685061643A253032582C206C6F91
:105813006E6750726573735F412E0A00746F756310
:10582300685061643A253032582C206C6F6E675093
:10583300726573735F422E0A00746F7563685061FB
:10584300643A253032582C202530325874696D65FE
:105853002070726573734F7665722E0A00636F6DE5
:1058630062696E6174696F6E2066756E3C33533581
:10587300533E2074726967210A00000A0BB82EE0B8
:10588300EA601E00140BB84E20EA60C202783B7C2B
:10589300017A0779C07F201235CDE4FF753EFF758D
:1058A3003F077540E575410175420175433B123869
:1058B300367A0779E07D051269E6EF7005C20202C8
:1058C3005987900149E0FE900148E0FDEEF527ED90
:1058D300F528E4F529F52AAE27AF287C077DD012F9
:1058E300324C8D2B900146E0F52CA3E0F52DE4F529
:1058F3002E852B29E52C64016005E52CB4020AE50D
:105903002C240CF52A15298003852C2AE52A240149
:10591300FFE433FE7C007D1A12323A7D0A12324CC8
:10592300E5291313543F25292F252D24DCF52E7546
:10593300F0078485F02EE52E90067F6003F0800348
:105943007407F090067EE52CF0900680E52DF0902C
:10595300067DE52BF0900143E0900681F090014431
:10596300E0900682F0900145E0900683F0FD9006FA
:1059730082E075F03CA4AEF07C002D78D4F6EC3ECA
:1059830018F6D202A202220A3E3E3D3D3DCAB1BCF8
:10599300E4B4C13D3D3D3C3C0A202020203230256B
:1059A3003032642F253032642F253032642D572551
:1059B3003031640A0020202020202020202530328E
:1059C300643A253032643A253032640A0074696DD2
:1059D300655A6F6E655F483A253032642E0A00635C
:1059E300757272656E742050414E49443A25642E97
:1059F3000A003E3E3E3E3E3E3E3E74696D65722D5C
:105A0300253032645F55502121212E0A0000000009
:105A13000000000000000000000000000000000083
:105A23000000000000000000000000000000000073
:105A33000000000000000000000000000000000063
:105A43000000000000000000000000000000000053
:105A53000000000000000000000000000000000043
:105A63000000000000000000000000000000000033
:105A7300000000000000000000000027100000E507
:105A83002775F003A4248EF582E43406F583E0132E
:105A93001313541FFF7E007C007D3C12323AE5272E
:105AA30075F003A4248FF582E43406F583E02FFB1D
:105AB300EC3EFA900681E0FF7E0002323AFF12329A
:105AC30006E54E75F003A422FF123206E53C75F09D
:105AD30003A422E52775F003A4248DF582E434069C
