:10000000025738756C067F0F025A47022136438E1D
:10001000805389F0758A50758CFBC28DD2A9C2B904
:10002000D28C220256A269276D20554152543120AC
:10003000666F7220776966692064617461207472EA
:10004000616E736C617465202121210A0069276D3E
:1000500020554152543120666F7220646174734C94
:100060006F67202121210A006E776B5A6967622031
:10007000636F6E6E6563742F72656A6F696E20615F
:100080006C6C20636F6D706C6574652E0A006E7702
:100090006B5A69676220636F6E6E6563742F726559
:1000A0006A6F696E206D61696E537465702D2530BD
:1000B0003264406D6574686F643A256420636F6DC7
:1000C000706C6574652E0A00657272206672616DCF
:1000D00065486561643A253032582E0A00726376AD
:1000E000506F727420697320253032582C2072634F
:1000F000764E776B416464722069732025303458E2
:100100002E0A0072656D6F746520646174615265BA
:100110007175657374206661696C2C20636F64650A
:100120003A5B3078253032585D2E0A006465764897
:100130006F6C6420737461727420726967687420D4
:100140006E6F772E0A00646576486F6C6420746960
:100150006D6520636F756E742072656D696E643AAB
:10016000202530326420732E0A00646576486F6C57
:10017000642073746F702E0A00636D645363656E40
:100180006172696F4374726C20636F6D6D696E6725
:100190002C20737461747573446174613A25303234
:1001A000582E0A006D617374657220636D64436F2D
:1001B0006D696E673A6E776B4F70656E3A253032B7
:1001C00064732E0A006D6173746572205554432068
:1001D000636F6D696E673A5B307825303258253031
:1001E000325825303258253032585D2E0A006E6F55
:1001F000646520636D64436F6D696E673A6465760C
:100200004E776B20686F6C642E0A00636D64436FD9
:100210006D696E673A253032582E0A003E3E3E3EEA
:100220003E3E3E3E74696D65725F7461623320725A
:100230006573706F6E643A5B253032582D2530320D
:10024000582D253032585D2E0A003E3E3E3E3E3E41
:100250003E3E74696D65725F7461623320686173DC
:10026000206265656E207365743A5B253032582DC7
:10027000253032582D253032585D2E0A003E3E3E44
:100280003E3E3E3E3E72656C617953746174757397
:10029000207265616C65733A253032582C20637585
:1002A0007272656E7456616C3A253032582E0A00AF
:1002B0003E3E3E3E3E3E3E3E64656C617950657218
:1002C000696F643A5B25645D2C2064656C617955C7
:1002D000704163743A5B253032585D2E0A003E3E11
:1002E0003E3E3E3E3E3E666163746F7279207265AB
:1002F000636F766572207374616E644279212E0A91
:10030000003E3E3E3E3E3E3E3E6167696E67436D47
:1003100064206465764C6F636B20636F6D696E67F4
:100320002C206C6F636B49663A5B25645D2E0A0076
:100330003E3E3E3E3E3E3E3E6167696E67436D64B3
:100340002074696D657220636F6D696E672C20641F
:10035000617461546162333A5B253032582D253027
:1003600032582D253032585D2E0A003E3E3E3E3E2C
:100370003E3E3E6167696E67436D642067726565E6
:100380006E4D6F646520636F6D696E672E0A003E67
:100390003E3E3E3E3E3E3E6167696E67436D642071
:1003A0006E696768744D6F646520636F6D696E6711
:1003B0002E0A003E3E3E3E3E3E3E3E6167696E670F
:1003C000436D6420626B4C6967687420636F6D696C
:1003D0006E672E0A003E3E3E3E3E3E3E3E666163F6
:1003E000746F7279207265636F76657220646F69CD
:1003F0006E67206E6F77212E0A003E3E3E3E3E3EE7
:100400003E3E696E7465726E6574206F66666C69D7
:100410006E652E0A006374726C20656163684F74A8
:1004200068657220636D6420636F6D696E672C2050
:10043000636C75737465723A253032642E0A00005D
:1004400000000000000000000000000000000000AC
:10045000000000000000000000000000000000009C
:10046000000000000000000000000000000000008C
:10047000000000000000000000000000000000007C
:10048000000000000000000000000000000000006C
:10049000000000000000000000000000000000005C
:1004A000000000000000000000000000000000004C
:1004B000000000000000000000000000000000003C
:1004C000000000000000000000000000000000002C
:1004D00000000000000000000000000000000026F6
:1004E00008FCFF0000000000000000000000000009
:1004F00000000000000000000000000000000000FC
:1005000000000000000000000000000000000000EB
:1005100000000000000000000000000000000000DB
:100520000003FE016608006F0000000000000000EC
:1005300000000000000000000000000000000000BB
:1005400000000000000000000000000000000000AB
:10055000000000000000000000000000000000009B
:100560000000060096FCFF000000000000000000F4
:10057000000000000000000000000000000000007B
:100580000000000000000000FE01260606276606A7
:10059000000000000000000000000000000000005B
:1005A000000000000000000000000000000000004B
:1005B000FE00211130611121100000000000000038
:1005C000000000000000000000000000000000002B
:1005D000000000000000000000000000000000001B
:1005E000000000000000000000000000000000000B
:1005F0000000000000000000000BFE016110000080
:1006000000000000000000000000000000000000EA
:1006100000000000000000000000000000000000DA
:1006200000000000000000000000000000000000CA
:100630000000000000000000000005006400000051
:10064000000000000000000046090000000000005B
:10065000000000000000000000000000000000009A
:10066000000000000000000000000000000000008A
:10067000000000000000000000000000000000007A
:100680000000000000000000000000FE06418001A4
:100690000200020603C3000000000000000000008A
:1006A000000000000000000000000000000000004A
:1006B000000000000000000000000000000000003A
:1006C00000000000000000000000000B0FA0460921
:1006D000000000000000000000000000000000001A
:1006E000000000000000000000000000000000000A
:1006F00000000000000000000000000000000000FA
:1007000000000000000000000000000000000000E9
:1007100000FE064180010200020603C30000000043
:1007200000000000000000000000000000000000C9
:1007300000000000000000000000000000000000B9
:1007400000000000000000000000000000000000A9
:10075000000B0FA0260503010300000000000000AD
:100760000000000000000000000000000000000089
:100770000000000000000000000000000000000079
:100780000000000000000000000000000000000069
:1007900000000000000003FE01660500620000008A
:1007A0000000000000000000000000000000000049
:1007B0000000000000000000000000000000000039
:1007C0000000000000000000000000000000000029
:1007D000000000000000000601F4460900000000CF
:1007E0000000000000000000000000000000000009
:1007F00000000000000000000000000000000000F9
:1008000000000000000000000000000000000000E8
:1008100000000000000000000000000000FE064193
:1008200080010200020603C3000000000000000077
:1008300000000000000000000000000000000000B8
:1008400000000000000000000000000000000000A8
:10085000000000000000000000000000000B0FA0DE
:1008600026058701010000000000000000000000D4
:100870000000000000000000000000000000000078
:100880000000000000000000000000000000000068
:100890000000000000000000000000000000000058
:1008A000000003FE01660500620000000000000079
:1008B0000000000000000000000000000000000038
:1008C0000000000000000000000000000000000028
:1008D0000000000000000000000000000000000018
:1008E0000000000601F42702FFFF000000000000E6
:1008F00000000000000000000000000000000000F8
:1009000000000000000000000000000000000000E7
:1009100000000000000000000000000000000000D7
:10092000000000000000000002FE016702006400F9
:1009300000000000000000000000000000000000B7
:1009400000000000000000000000000000000000A7
:100950000000000000000000000000000000000097
:100960000000000000000000000601F427030080E2
:100970000000000000000000000000000000000077
:100980000000000000000000000000000000000067
:100990000000000000000000000000000000000057
:1009A000000000000000000000000000000004FE45
:1009B0000167030065000000000000000000000067
:1009C0000000000000000000000000000000000027
:1009D0000000000000000000000000000000000017
:1009E0000000000000000000000000000000000601
:1009F00001F42600000000000000000000000000DC
:100A000000000000000000000000000000000000E6
:100A100000000000000000000000000000000000D6
:100A200000000000000000000000000000000000C6
:100A30000000000000FE0145C00783000000000028
:100A400000000000000000000000000000000000A6
:100A50000000000000000000000000000000000096
:100A60000000000000000000000000000000000086
:100A70000000000000061F402608FCFF00000000E8
:100A80000000000000000000000000000000000066
:100A90000000000000000000000000000000000056
:100AA0000000000000000000000000000000000046
:100AB0000000000000000000000003FE01660800C6
:100AC0006F000000000000000000000000000000B7
:100AD0000000000000000000000000000000000016
:100AE0000000000000000000000000000000000006
:100AF0000000000000000000000000060096240036
:100B00000E0D000D000D00010000010000000000AE
:100B100000000000000000000000000000000000D5
:100B200000000000000000000000000000000000C5
:100B300000000000000000000000000000000000B5
:100B40000DFE0164000065000000000000000000D0
:100B50000000000000000000000000000000000095
:100B60000000000000000000000000000000000085
:100B70000000000000000000000000000000000075
:100B8000000601F4FE016400B8DD0C000D0D000D3F
:100B90000E000D000000000000000000000000003A
:100BA0000000000000000000000000000000000045
:100BB0000000000000000000000000000000000035
:100BC0000000000000000000000000000000000025
:100BD0000000000000000000000000000000000015
:100BE00000000024010000000000000000000000E0
:100BF00000000000000000000000000000000000F5
:100C000000000000000000000000000000000000E4
:100C100000000000000000000000000000000000D4
:100C200000000000000000000000000000000000C4
:100C300000000000000000000000000000000000B4
:100C400000000000000000000000000000000000A4
:100C50000000000000000000000000000000000094
:100C60000000000000000000000000000000000084
:100C70000000000000000000000000000000000074
:100C80000000000000000000000000000000000064
:100C90000000000000000000000000000000000054
:100CA0000000000000000000000000000000000044
:100CB0000000000000000000000000000000000034
:100CC0000000000000000000000000000000000024
:100CD0000000000000000000000000000000000014
:100CE0000000000000000000000000000000000004
:100CF00000000000000000000000000000000000F4
:100D000000000000000000000000000000000000E3
:100D100044806A01000000000000000000000000A4
:100D200000000000000000000000000000000000C3
:100D300000000000000000000000000000000000B3
:100D400000000000000000000000000000000000A3
:100D50000000000000000000000000000000000093
:100D60000000000000000000000000000000000083
:100D70000000000000000000000000000000000073
:100D80000000000000000000000000000000000063
:100D90000000000000000000000000000000000053
:100DA0000000000000000000000000000000000043
:100DB0000000000000000000000000000000000033
:100DC0000000000000000000000000000000000023
:100DD000004481000000000000000000000000004E
:100DE0000000000000000000000000000000000003
:100DF00000000000000000000000000000000000F3
:100E000000000000000000000000000000000000E2
:100E100000000000000000000000000000000000D2
:100E200000000000000000000000000000000000C2
:100E300000000000000000000000000000000000B2
:100E400000000000000000000000000000000000A2
:100E50000000000000000000000000000000000092
:100E60000000000000000000000000000000000082
:100E70000000000000000000000000000000000072
:100E80000000000000000000000000000000000062
:100E90000000000000000000008B268A2789288CB3
:100EA000298D2A78F87C007D017BFF7A0D79377EC9
:100EB000007F60122736C202AB26AA27A928122774
:100EC0005C2456605C24B070030215E914700302C0
:100ED0001AAE242F6003021ADDD202E92407F9E4D6
:100EE0003AFA78C17C047D017E007F061227369095
:100EF0000353E024F3FFE434FFFEAB26E528240D82
:100F0000F9E43527FAC003C002C001E5282401F93D
:100F1000E43527A801FCAD03D001D002D00312278D
:100F200036C203C204C205AB26E5282405F9E43520
:100F300027FA7D1C126171AB26AA27A9289000040C
:100F4000122775B50702D204E5282405F9E43527F0
:100F5000A801FCAD267B017A0479C87E007F0512CA
:100F60002A75EF7002D205AB26AA27A928900003A4
:100F7000122775FFB43904D205800BEF64146004A6
:100F8000EFB41902D204300405300402D203200366
:100F900003021ADDC204C2057E007F407D007B0192
:100FA0007A0479CD122A99753AFF753B02753C0B8C
:100FB000AB26AA27A928900003122775753D00F5D6
:100FC0003E7B017A0479CD1236487B017A0479CDD3
:100FD00012613B7E007F607D007B017A0079F81210
:100FE0002A99AB26AA27A928900003122775122850
:100FF000C3109610156D1112B914156D15156D16D7
:10100000110D17112418113C1912681A12801B12A5
:10101000B31F12AE22102B3914554114C94214F7D4
:1010200043154144156D500000156B30280302151F
:101030006D125D929000C8EEF0A3EFF0FD900544B4
:10104000E0900103F0EE900106F0AF05A3EFF0ABE6
:1010500026AA27A92890000C12277590053FF0902A
:10106000000D122775900540F07B017A05793F75D8
:1010700037007538017F037E00125CD17B017A0551
:1010800079407537007538017F047E00125CD17F8E
:101090000A1263198070E4900103F0AB26AA27A915
:1010A0002890000B122775FF5407900103F0EF54AE
:1010B00001FF900544E0FE54016F6009900103E0D8
:1010C0004420F0802D90000B122775FC5402FDEE99
:1010D00054026D6009900103E04440F08014EC5428
:1010E00004FF900544E054046F6007900103E0445E
:1010F00080F0AB26AA27A92890000B12277590052F
:1011000041F0A37402F0D204C20502156D752C01E2
:10111000D2287B007A00792C7537007538017F055D
:101120007E008012E4F52CC228FB7A00792CF5377A
:101130007538017F05FE125CD102156DAB26AA271A
:10114000A92890000D1227752460601914700302FD
:1011500011F414700302121914700302122224A352
:101160006003021253E4F52C7B017A017906F548FD
:1011700075490C7F10FE125FDAE4F52C74017E00D5
:10118000A82C088005C333CE33CED8F9FF787EE68D
:10119000FDEF5D6013E52C75F003A42406F582E4F1
:1011A0003401F583E05480F0052CE52CB404CDD255
:1011B000057E007F407D007B017A0479CD122A995B
:1011C000753AFF753B02753C1C90010CE0753D00C3
:1011D000F53EA3E0753F00F540A3E0754100F54200
:1011E0007B017A0479CD1236487B017A0479CD12DD
:1011F000613B805F7878E6FE08E6FF4E7002800C67
:101200007C007D3C1227E8C37881E69F900106F0C0
:101210007880E6900107F0803A7877E6900106F052
:1012200080317B017A0179067548007549067F3265
:101230007E00125FDA900104E03028054401F0805E
:101240000354FEF0900104E03025054402F08003D1
:1012500054FDF0AB26AA27A92890000D12277590FF
:101260000105F0D20402156DE4F52CFB7A00792C0F
:10127000F5487549017F32FE125FDA532C808016E3
:10128000E4F52CFB7A00792CF5487549017F32FE94
:10129000125FDA432C7F7B007A00792C753700755A
:1012A00038017F327E00125CD1D20402156DD20467
:1012B00002156D12543602156DE4F52CAB26AA27E3
:1012C000A92890000D122775245F70030213B8142B
:1012D00070030213EC147003021438240360030239
:1012E0001450E4F52CAB26AA27A92875F003E52CA9
:1012F000A4240EF582E435F0F5831227756480701E
:1013000044AF2C04A807088002C333D8FC787E467B
:10131000F6AB2675F003E52CA4240EF582E435F037
:10132000F583E5282582F9E5273583FA12275CFF46
:10133000900539E014FE7401A806088002C333D872
:10134000FC4F1227A2052CE52CB40499AB26E52806
:10135000240EF9E43527FA75370075380C7F107EB6
:1013600000125CD17E007F407D007B017A0479CD44
:10137000122A99753AFF753B02753C4AAB26AA279B
:10138000A928900014122775753D00F53E900015B0
:10139000122775753F00F5409000161227757541AC
:1013A00000F5427B017A0479CD1236487B017A043C
:1013B00079CD12613B021450AB26AA27A9289000D0
:1013C0000E122775FF787F6014E64402F67881A636
:1013D0000790000F1227757880F6E48008E654FD28
:1013E000F6E47881F67878F608F68064AB26AA27CA
:1013F000A92890000E122775FF787F600BE6440144
:10140000F67877A607E48008E654FEF6E47877F6E7
:10141000787AF608F67B007A00797F7537007538A0
:10142000017F307E00125CD17B007A0079777537BE
:10143000007538017F318013AB26E528240EF9E4CE
:101440003527FA7537007538067F327E00125CD179
:10145000D20402156DE4F52CAB26AA27A92890002A
:101460000C122775F52DE4F52CAF2CE52DA80708F7
:101470008002C313D8FC30E042E52CFD7C0024063A
:10148000FFEC33FEED240EFDEC33FCAB26E5282DFE
:10149000F9E5273CFA753700753801125CD1740EF6
:1014A000252CF582E433F583AB26AA27A928122739
:1014B00075FF746E252CF8A607D215052CE52CC3F4
:1014C000940340A5D20402156DE4F52CF52CE52C0F
:1014D0002406FFE433FE7406252CF9E43401FA7B7C
:1014E00001754800754901125FDA052CE52CC3949B
:1014F0000340DBD2048076AB26E528240EF9E435E0
:1015000027FA7537007538017F407E00125CD1AB39
:1015100026E528240FF9E43527FA753700753801D8
:101520007F417E00125CD1AB26AA27A92890000E2D
:10153000122775F56D90000F122775F56BD2048098
:101540002C7B017A0179067548007549017F407E40
:1015500000125FDA7B017A0179077548007549014D
:101560007F417E00125FDAD2048002C204200403AD
:10157000021ADDE4F52CC204A2029206753201754E
:1015800033007534F875352175360AAB26AA27A9BC
:1015900028900003122775F537A205920712493DDE
:1015A0008F2C900267E004F09002B4E529F0A3E5E7
:1015B0002AF09002B3E52BF07E007F487D007B018E
:1015C0007A02796A122A99AF2C7E00786A7C027DB1
:1015D000017B017A0079F81227369002B2E52CF0EF
:1015E000E490032DF0750D042278CA7C007D017B08
:1015F000FF7A0D799D7E007F2E122736C203C2042A
:10160000AB26E5282401F9E43527FAC002C001AA77
:1016100027A92890000112277524FEFDD001D002D1
:10162000126171AB26AA27A9289000011227757CA8
:101630000024FFF582EC34FFF583122775B507020D
:10164000D203E5282402F9E43527A801FCAD267B66
:10165000017A0479C87E007F05122A75EF7002D2E4
:1016600004200303021ADD200403021ADDAB26E581
:1016700028240FF9E43527FA78CA7C007D017E0022
:101680007F2E122736AB26AA27A9289000081227FA
:1016900075245E7003021A7B046003021ADD7897DA
:1016A0007C0D7DFF7B017A0079CA7E007F06122ABD
:1016B00075EF7003021A379002677414F078357C66
:1016C000037D017B017A0079CA7E007F06122736EE
:1016D0009000CAE030E05A900544E05407FF9000C3
:1016E000D0E05407FE6F6049900541EEF0A374020C
:1016F000F07E007F407D007B017A0479CD122A992B
:10170000753AFF753B02753C7D900544E0753D00E0
:101710005407F53E9000D0E05407753F00F5407B3C
:10172000017A0479CD1236487B017A0479CD1261B1
:101730003B9000CAE030E2639000ECE0FF787F600D
:101740004DE64402F67881A607A3E07880F6E478B7
:1017500078F608F6FE7F40FD7B017A0479CD122AE7
:1017600099753AFF753B02753CB07881E6753D008E
:10177000F53E7880E6753F00F5407B017A0479CD2F
:101780001236487B017A0479CD12613B800DE65414
:10179000FEF6E47881F67878F608F69000CAE03034
:1017A000E72CD20F7E007F407D007B017A0479CD4B
:1017B000122A99753AFF753B02753CDE7B017A046B
:1017C00079CD1236487B017A0479CD12613B9000C5
:1017D000CAE030E15FE4F52CFE7F40FD7B017A0436
:1017E00079CD122A99753AFF753B03753C0190003B
:1017F000D1E0FFC3135401753D00F53E7B017A042F
:1018000079CD1236487B017A0479CD12613B900084
:10181000D1E030E107752C01D2288005E4F52CC217
:10182000287B007A00792C7537007538017F057E9A
:1018300000125CD19000CAE020E4030218EDE4F548
:101840002CFE7F40FD7B017A0479CD122A99753AEE
:10185000FF753B03753C309000DAE0753D00F53EC6
:10186000A3E0753F00F540A3E0754100F5427B0120
:101870007A0479CD1236487B017A0479CD12613B26
:10188000E4F52CE52C75F003A424D4F582E43400AF
:10189000F583E06480703CAF2C04A807088002C385
:1018A00033D8FC787E46F6E52C75F003A424D4F5F5
:1018B00082E43400F583C083C082E0FF900539E004
:1018C00014FE7401A806088002C333D8FC4FD082EE
:1018D000D083F0052CE52CB408A97B017A0079D4DB
:1018E0007537007538187F107E00125CD19000CAE1
:1018F000E030E358753AFF753B03753C6B7B017A2A
:101900000479CD1236487B017A0479CD12613B907F
:1019100000EEE0FF787F6006E64401F68004E654BE
:10192000FEF67877A6077B007A00797F7537007519
:1019300038017F307E00125CD17B007A00797775A8
:1019400037007538017F317E00125CD19000CAE00B
:1019500020E5030219DE782C7C007D007BFF7A0DE8
:1019600079CB7E007F061227367E007F407D007B8C
:10197000017A0479CD122A99753AFF753B03753CBB
:101980008F7B017A0479CD1236487B017A0479CDB8
:1019900012613B9000EFE06005432C7F8003532CE5
:1019A000809000F0E06005432C808003532C7F90F2
:1019B00000F1E033333354F8F52DA3E0F52EA3E026
:1019C00033333354F8F530A3E0F5317B007A0079F6
:1019D0002C7537007538067F327E00125CD190007E
:1019E000CAE030E6477E007F407D007B017A0479C3
:1019F000CD122A99753AFF753B03753CB37B017A8A
:101A00000479CD1236487B017A0479CD12613B907E
:101A100000F5E0F56DA3E0F56B7B017A0079F575D3
:101A200037007538027F407E00125CD19000CBE019
:101A300020E003021ADD227E007F067D007B017A12
:101A4000037935122A99200F03021ADD7E007F40A8
:101A50007D007B017A0479CD122A99753AFF753B96
:101A600003753CD57B017A0479CD1236487B017A27
:101A70000479CD12613BC20F0254369003C0741436
:101A8000F078617C027D017B017A0079CA7E007F5B
:101A900006122A75EF60047510A2227E007F067D73
:101AA000007B017A027961122A997510A1227F06C2
:101AB0001263197E007F407D007B017A0479CD128C
:101AC0002A99753AFF753B03753CFA7B017A0479D4
:101AD000CD1236487B017A0479CD12613B22780819
:101AE0007C007D017BFF7A0D79D37E007F60122719
:101AF0003678687C007D017BFF7A0E79337E007F2B
:101B00006012273690053EE07006740AF0124B9F73
:101B1000E50D24FE700302210F1470030221161438
:101B2000700302211E1470030221212404600302A9
:101B30002127900333E0FF30E00302212E30100F05
:101B4000C210C2047F0C7E647DFE7C22124642E5F8
:101B50006CB406031263E8201403021E4290033B98
:101B6000E06003021E42900006F0C214B211FE7F34
:101B700060FD7B017A007908122A99900544E054AF
:101B800007FF9002BCE054F84FF0A226E433540162
:101B9000FFA3E054FE4FFFF0A228E433540125E0F8
:101BA000FEEF54FD4EFFF0787FE6FE5402C313545F
:101BB0000125E025E0FDEF54FB4DFFF0EE5401332D
:101BC000333354F8FEEF54F74EFFF0A225E43354BC
:101BD00001C454F0FEEF54EF4EF054DFF07B017A75
:101BE0000279C07548007549187F107E00125FDACF
:101BF0007878E6FE08E6FF7C007D3C1227E8C37893
:101C000081E69F9002D8F07880E6A3F07877E6A38B
:101C1000F078007C007D017BFF7A0E79937E007F57
:101C2000061227367B017A007900124E9B90000045
:101C3000E0FF547FFEBE7F089002DB7401F0800558
:101C4000E49002DBF0EFC4131313540130E008906A
:101C500002DC7401F08005E49002DCF0900001E009
:101C6000131313541F9002DDF0900002E09002DE87
:101C7000F0900004E0131313541F9002DFF0900063
:101C800005E09002E0F07B017A0279E17548007589
:101C900049027F407E00125FDAE49002E3F0E51033
:101CA000245E601104702178B67C027D017B017A8C
:101CB000037935800C78B67C027D017B017A02794C
:101CC000617E007F06122736E4900006F0E0FF04F4
:101CD000F074082FF582E43400F58374FAF0900074
:101CE00006E0FF04F074082FF582E43400F583E485
:101CF000F0900006E02408F9E43400A801FC7D011E
:101D00007B017A0479C87E007F0512273690000691
:101D1000E02406F0E0FF04F074082FF582E43400BC
:101D2000F583E510F0900006E0FF04F074082FF54D
:101D300082E43400F583E572F0900006E0FF04F0E1
:101D400074082FF582E43400F583E4F0900006E097
:101D5000FF04F074082FF582E43400F583E4F0907A
:101D60000006E0FF04F074082FF582E43400F583E8
:101D7000E4F090053FE0FF900006E0FE04F07408F8
:101D80002EF582E43400F583EFF0900540E0FF90FB
:101D90000006E0FE04F074082EF582E43400F583BA
:101DA000EFF0900006E02408F9E43400A801FC7D7F
:101DB000017B017A0279B67E007F2E1227369000D1
:101DC00006E0242EF0E004F0E0900009F07B017AB8
:101DD00000790924FEFD126171900006E02407F5E8
:101DE00082E43400F583EFF0E49002B4F0A3F090C5
:101DF00002B3740DF07E007F487D007B017A02798A
:101E00006A122A99900006E0FF7E00786A7C027DC3
:101E1000017B017A007908122736900006E09002D3
:101E2000B2F0E490032DF0900332E04401F0E0546E
:101E300001FFEF44F4FF9003317401F0A3EFF002CF
:101E40001F82900545E0FF30E03AD200C201E490E5
:101E50000007F0EF54FE900545F0A3E054E0C413F2
:101E60005407C43354E0FF9002BCE0541F4FF0907D
:101E70000261E04401F07510A29003C07402F0907A
:101E80000267F022900543E07003021F8CE50D64A9
:101E9000016003021F8C7882F67882E6FFC3940308
:101EA0004003021F8C74017E00A807088005C3331D
:101EB000CE33CED8F9FF900543E0FDFBEF5B700316
:101EC000021F867882E6FC7401A804088002C333EE
:101ED000D8FCF45D900543F0900544E0FFA80408A9
:101EE0008002C313D8FC5401900008F07882E624E5
:101EF0006EF8E6FFD394105003021F86EF94FF4064
:101F000003021F86E07882600FE6245DF582E434E8
:101F100002F583740AF0800DE6245DF582E4340254
:101F2000F583740BF090033C7403F074FF9002B4DB
:101F3000F0A3F07882E6246EF8E69002B3F07E001B
:101F40007F487D007B017A02796A122A99786A7C3F
:101F5000027D017B017A0079087E007F011227361D
:101F60009002B27401F0E490032DF0900332E0444B
:101F700001F0E0540144FAFF900331E4F0A3EFF0E4
:101F8000D22A750D0422788206021E9920160302B9
:101F90002135C21690033FE064FE600302213578CC
:101FA000417C037D017BFF7A0D79D1FE7F02122AED
:101FB00075EF6003022135900347E0FDA3E07884CC
:101FC000F6ED08F6A3E008F6A3E008F6E4F56AFEED
:101FD0007F60FD7B017A007968122A99900353E0B3
:101FE000FF7E0078687C007D017B017A03795412C2
:101FF00027367886E6FFD3941050030220D8EF945A
:10200000FF40030220D8900544E07883F690033C1B
:102010007403F07E007F407D007B017A0479CD124D
:102020002A99753AFF753B04753C157886E6753D2F
:1020300000F53E7B017A0479CD1236487B017A04A3
:1020400079CD12613B7886E6FC656E7023E56E60A3
:102050001F9005427402F07883E654FEFEF690006D
:1020600068E0FD4E900541F0ED90025D605F8058A4
:10207000EC656F7027E56F60239005427402F0787D
:1020800083E654FDFFF6900068E0FE25E04F9005E2
:1020900041F0EE90025E6002802E80317886E66527
:1020A00070702DE57060299005427402F07883E627
:1020B00054FBFFF6900068E0FE25E025E04F900518
:1020C00041F0EE90025F6005740AF08003740BF03B
:1020D000900545E04401F0227886E624F360101470
:1020E00060242402704F7B017A007968025DE578F4
:1020F00084E6FC08E6FD4C703C7B017A00796808B8
:10210000E6F52B020E997B017A007968024234755C
:102110006A03D2028005756A02C202022EA4023C42
:102120006F756A04024F8A900333E030E00754FE73
:10213000F0A3E0F50D22C0E0C0F0C083C082C0D0A3
:1021400075D000C000C001C002C003C004C005C0FB
:1021500006C00790648AE493FFE575C39F500405A9
:10216000758076757500900268E07002A3E0600EDD
:10217000900269E024FFF0900268E034FFF0301D27
:102180000A051DE51D700A051C8006751C00751DDD
:102190000090054AE07002A3E0600E90054BE02439
:1021A000FFF090054AE034FFF0900548E07002A38C
:1021B000E0600E900549E024FFF0900548E034FF10
:1021C000F0900510E07002A3E0600E900511E0248D
:1021D000FFF0900510E034FFF0D390648874019311
:1021E0009574E4939573400B0574E5747002057360
:1021F0000222F47573007574002014199003C0E076
:10220000FF900267E0C39F5005E004F08007900252
:1022100067E4F0D214787FE6FB30E14C7881E6FF8A
:102220007E007C007D3C1227D6C37879E69F18E6B5
:102230009E50090806E618702F06802C78787600E4
:1022400008760078817600EB54FD787FF6900542A1
:102250007402F07880E6900541F0900545E0440175
:10226000F0900261E04404F0787FE630E0469005AB
:1022700044E060407877E6FF7E007C007D3C1227DA
:10228000D6C3787BE69F18E69E50090806E61870CC
:1022900023068020787A7600087600900542740242
:1022A000F0900541E4F0900545E04401F0900261B2
:1022B000E04408F090033BE0600214F0900260E01C
:1022C000600214F0787D06E61870010690051BE0A8
:1022D000600214F090053EE0600214F090050EE0FC
:1022E000600214F090033EE0600214F090033CE0C2
:1022F000600214F0301366E50EC3940A5004050E14
:10230000805B201656E50FC39405404FD2167E0021
:102310007F807DFF7B017A03793F122A99783F7C89
:10232000037D017B017A0379C17E007F801227360D
:102330009003BFE50FF0900340E02405FFE433FE77
:10234000E50F6F7001EE601390054CE04401F090D2
:1023500003C2E090054DF0A3E50FF0C213900533E2
:10236000E0FFA3E0C39F5006E004F00224249005A0
:1023700034E4F090050FE024FE604D147003022455
:10238000112402600302242290051CE054079005EA
:1023900033F0FD90051DE075F014A4FFAEF07C0055
:1023A0001227E8900522EEF0A3EFF090051EE0540E
:1023B0001F25E0900526F0900524E4F0A3F0D22735
:1023C00090050F7402F0805C900526E0603B90055C
:1023D00022E0FEA3E0FFC3900525E09F900524E0E6
:1023E0009E5017A3E004F07006900524E004F0303E
:1023F0002704B2B2802ED2B2802A900524E4F0A342
:10240000F0B227A3E014F0801B90050F7403F08056
:1024100013900524E4F0A3F0D227D2B290050FF078
:102420008002D2B290648BE493FFE576D39F500391
:102430000224ED757600900512E0541FFF900527E9
:10244000E054E04FF0900513E0541FFF900528E0A2
:1024500054E04FF0900514E0541FFF900529E0541C
:10246000E04FF0900515E0541FFF90052AE054E07E
:102470004FF0900516E0541FFF90052BE054E04FFD
:10248000F0900517E0541FFF90052CE054E04FF04A
:10249000900518E0541FFF90052DE054E04FF09098
:1024A0000519E0541FFF90052EE054E04FF0900511
:1024B0001AE0541FFF90052FE054E04FF090051FE5
:1024C000E0541FFF900530E054E04FF0900520E00D
:1024D000541FFF900531E054E04FF0900521E05487
:1024E0001FFF900532E054E04FF002264B0576E5E1
:1024F00076D39400406FE576D394205068900527FA
:10250000E0FF541F600EEF54E0FEEF14541F4EF036
:10251000C2A08002D2A090052AE0FF541F600EEFF7
:1025200054E0FEEF14541F4EF0C2A68002D2A690D3
:10253000052DE0FF541F600EEF54E0FEEF14541F12
:102540004EF0C2818002D281900530E0FF541F60BE
:102550000FEF54E0FEEF14541F4EF0C2CD02264B95
:10256000D2CD02264BE576D39420406DE576D39408
:10257000405066900528E0FF541F600EEF54E0FEC7
:10258000EF14541F4EF0C2A18002D2A190052BE09F
:10259000FF541F600EEF54E0FEEF14541F4EF0C2C4
:1025A000A58002D2A590052EE0FF541F600EEF54C7
:1025B000E0FEEF14541F4EF0C2808002D2809005DE
:1025C00031E0FF541F600EEF54E0FEEF14541F4E35
:1025D000F0C2CC8076D2CC8072E576D39440406B4A
:1025E000E576D394605064900529E0FF541F600E97
:1025F000EF54E0FEEF14541F4EF0C2A28002D2A2AC
:1026000090052CE0FF541F600EEF54E0FEEF1454D1
:102610001F4EF0C2A48002D2A490052FE0FF541FE9
:10262000600EEF54E0FEEF14541F4EF0C2A780027C
:10263000D2A7900532E0FF541F600EEF54E0FEEF8A
:1026400014541F4EF0C2838002D283D007D006D02C
:1026500005D004D003D002D001D000D0D0D082D099
:1026600083D0F0D0E032E709F608DFFA8046E709C8
:10267000F208DFFA803E88828C83E709F0A3DFFA54
:102680008032E309F608DFFA8078E309F208DFFA1E
:10269000807088828C83E309F0A3DFFA80648982EA
:1026A0008A83E0A3F608DFFA805889828A83E0A350
:1026B000F208DFFA804C80D280FA80C680D480692C
:1026C00080F28033801080A680EA809A80A880DA29
:1026D00080E280CA803389828A83ECFAE493A3C8BB
:1026E000C582C8CCC583CCF0A3C8C582C8CCC5837D
:1026F000CCDFE9DEE7800D89828A83E493A3F608C4
:10270000DFF9ECFAA9F0EDFB2289828A83ECFAE08A
:10271000A3C8C582C8CCC583CCF0A3C8C582C8CC29
:10272000C583CCDFEADEE880DB89828A83E493A379
:10273000F208DFF980CC88F0EF60010E4E60C388AC
:10274000F0ED2402B4040050B9F582EB2402B40485
:102750000050AF23234582239026B673BB01068920
:10276000828A83E0225002E722BBFE02E3228982B2
:102770008A83E49322BB010CE58229F582E5833A42
:10278000F583E0225006E92582F8E622BBFE06E941
:102790002582F8E222E58229F582E5833AF583E491
:1027A0009322BB010689828A83F0225002F722BB62
:1027B000FE01F322F8BB010DE58229F582E5833A9B
:1027C000F583E8F0225006E92582C8F622BBFE0513
:1027D000E92582C8F222EF8DF0A4A8F0CF8CF0A4F6
:1027E00028CE8DF0A42EFE22BC000BBE0029EF8D5A
:1027F000F084FFADF022E4CCF875F008EF2FFFEE87
:1028000033FEEC33FCEE9DEC984005FCEE9DFE0F94
:10281000D5F0E9E4CEFD22EDF8F5F0EE8420D21CEF
:10282000FEADF075F008EF2FFFED33FD4007985037
:1028300006D5F0F222C398FD0FD5F0EA22E88FF01A
:10284000A4CC8BF0A42CFCE98EF0A42CFC8AF0ED37
:10285000A42CFCEA8EF0A4CDA8F08BF0A42DCC38EB
:1028600025F0FDE98FF0A42CCD35F0FCEB8EF0A423
:10287000FEA9F0EB8FF0A4CFC5F02ECD39FEE43CDD
:10288000FCEAA42DCE35F0FDE43CFC22EB9FF5F0F4
:10289000EA9E42F0E99D42F0E89C45F022E8600F94
:1028A000ECC313FCED13FDEE13FEEF13FFD8F12282
:1028B000E8600FEFC333FFEE33FEED33FDEC33FC86
:1028C000D8F122D083D082F8E4937012740193700F
:1028D0000DA3A393F8740193F5828883E4737402C3
:1028E000936860EFA3A3A380DF8A838982E473E304
:1028F000F5F009E208B5F06BDFF58067E3F5F00964
:10290000E608B5F05EDFF5805A87F009E608B5F015
:1029100052DFF6804E87F009E208B5F046DFF68018
:102920004288828C8387F009E0A3B5F036DFF68019
:102930003288828C8387F009E493A3B5F025DFF514
:10294000802188828C83E3F5F009E0A3B5F014DFE1
:10295000F5801088828C83E3F5F009E493A3B5F049
:1029600002DFF4022A1E808780E9809080D4803EB6
:102970008015806E807E809D80B7808D80A3805181
:102980008074803C022A2A89828A83ECFAE493F5D7
:10299000F0A3C8C582C8CCC583CCE493A3C8C582C4
:1029A000C8CCC583CCB5F076DFE3DEE180708982E8
:1029B0008A83E493F5F0A3E208B5F062DFF4805E69
:1029C00089828A83E0F5F0A3E608B5F051DFF5804F
:1029D0004D89828A83E0F5F0A3E208B5F040DFF587
:1029E000803C89828A83E493F5F0A3E608B5F02E53
:1029F000DFF4802A8002805789828A83ECFAE4938C
:102A0000F5F0A3C8C582C8CCC583CCE0A3C8C582F5
:102A1000C8CCC583CCB5F006DFE4DEE280007FFFE2
:102A2000B5F0020F2240027F012289828A83ECFAEC
:102A3000E0F5F0A3C8C582C8CCC583CCE0A3C8C567
:102A400082C8CCC583CCB5F0D5DFE5DEE380CF8985
:102A5000828A83ECFAE0F5F0A3C8C582C8CCC583AE
:102A6000CCE493A3C8C582C8CCC583CCB5F0AFDF96
:102A7000E4DEE280A988F0EF60010E4E60ABED2449
:102A800002B404005098F582EB2402B40400508E86
:102A9000232345822390296673EF4E6012EF600175
:102AA0000EEDBB010B89828A83F0A3DFFCDEFA22E4
:102AB00089F05007F709DFFCA9F022BBFEFCF309FF
:102AC000DFFCA9F022FAE6FB0808E6F925F0F61883
:102AD000E6CA3AF622E4F52678407C007D017BFFC9
:102AE0007A4D798AFE7F1812273678587C007D014E
:102AF0007BFF7A4D79A27E007F06122736C2249092
:102B00004DA8E493FE740193FFC3900536E09F90B7
:102B10000535E09E500EA3E004F07023900535E0EB
:102B200004F0801BE4900535F0A3F078277C00FDCD
:102B30007B017A057937FE7F0712273612560B2064
:102B40002328D2237B007A00797F754800754901DC
:102B50007F307E00125FDA7B007A0079777548005B
:102B60007549017F317E00125FDA787CE6FA08E66B
:102B7000FB7C007D3CFFAE021227E890053CEFF0A5
:102B80007C007D3CAF03AE021227E8A3EDF0C378D2
:102B90007DE6941018E6940E402DE4787CF608F655
:102BA00090053BE0C394184004E4F0800690053B98
:102BB000E004F0900539E0D3940740057401F080FB
:102BC00006900539E004F07B017A007958124E9B9B
:102BD000900058E0FF547FFEBE7F04D225806EEF48
:102BE00030E768900059E0131313541FFF7E007CF8
:102BF000007D3C1227D6A3E02FFBEC3EFA90053B6C
:102C0000E0FF7E001227D6A3E0F92FFFEC3EFED3B3
:102C1000EF9BEE9A403190005CE0131313541FFFBA
:102C20007E001227D6A3E02FFBEC3EFA90053BE096
:102C3000FF7E001227D6E92FFFEC3EFED3EF9BEE7E
:102C40009A5004D2258006C2258002C2257B017AD3
:102C5000007940124DACE4F526E52675F003A42476
:102C600040F582E43400F583E0C4131313540130BB
:102C7000E004D2268009C2260526E526B408DA201B
:102C80002603022EA3E4F526E52675F003A42440CE
:102C9000F582E43400F583E0547FFD900539E0FFD0
:102CA0001261C54003022E97E52675F003A4244067
:102CB000F582E43400F583E0C4131313540120E0DB
:102CC00003022E97E52675F003A42441F582E4342F
:102CD00000F583E0131313541FFF7E007C007D3C3E
:102CE0001227D6E52675F003A42442F582E43400C9
:102CF000F583E02FFBEC3EFA90053BE0FF7E0012EF
:102D000027D6A3E0F92FFFEC3EFEEFB50309EEB5A1
:102D10000205302402C224E52675F003A42441F5FF
:102D200082E43400F583E0131313541FFF7E007C0C
:102D3000007D3C1227D6E52675F003A42442F582D7
:102D4000E43400F583E02FFBEC3EFA90053BE0FF16
:102D50007E001227D6E92FFFEC3EFEEF6B7002EEED
:102D60006A6003022E03302403022E03753AFF75B6
:102D70003B4D753C01F53D85263E7B017A0079008F
:102D80001236487B017A00790012613BD22474012B
:102D90007E00A826088005C333CE33CED8F9FF784D
:102DA0007EE6FDFBEF5B602EAF267401A80708806E
:102DB00002C333D8FCF45D787EF6E52675F003A4F3
:102DC0002410FFE435F0FE7BFF7A4D79AA753700B9
:102DD000753801125CD19005427402F0E52675F059
:102DE00003A42441F582E43400F583E05407900500
:102DF00041F0900545E04401F0900261E04410F09C
:102E0000022E97E52675F003A42441F582E43400F0
:102E1000F583E0131313541FFF7E007C007D3C12EA
:102E200027D6E52675F003A42442F582E43400F5A4
:102E300083E02FFBEC3EFA90053BE0FF7E0012277B
:102E4000D6A3E02FFFEC3EFED3EF9BEE9A404874F2
:102E5000017E00A826088005C333CE33CED8F9FF03
:102E6000787EE6FDFBEF5B602EAF267401A80708B5
:102E70008002C333D8FCF45D787EF6E52675F00356
:102E8000A42410FFE435F0FE7BFF7A4D79AB753753
:102E900000753801125CD10526E526C3940850035D
:102EA000022C882278C87C007D017BFF7A0B799305
:102EB0007E007F401227369001087402F0E4F52668
:102EC000900333E030E01354FEF0A3E0F50DE490FE
:102ED0000259F0A3F0A3F0D2A322900259E0D394B8
:102EE0000F403EE4F0A3F0A3F0D2A390053E740A95
:102EF000F0750D01756C037E007F407D007B017ACB
:102F00000479CD122A99753AFF753B00753C687BB0
:102F1000017A0479CD1236487B017A0479CD0261B9
:102F20003B200209900259E070037407F0900259A7
:102F3000E0FF64076003EF700690053E740AF090AE
:102F40000258E06F6042A3E0900258F07E007F409C
:102F50007D007B017A0479CD122A99753AFF753B81
:102F600000753C8E900258E0753D00F53EA202E4EB
:102F700033753F00F5407B017A0479CD1236487BEA
:102F8000017A0479CD12613B900259E0FF6003029F
:102F90003012EF600302326390025AE0146017149B
:102FA000603424026003023263C2A3900268E4F03A
:102FB000A374C80231F7900268E07002A3E06003D6
:102FC000023263D2A39002687417F0A37470F09079
:102FD000025A7402F022900268E07002A3E07004CA
:102FE00090025AF0201603023263C2167549FF752B
:102FF0004A06754B8B9006CBE493F54C7B017A0324
:10300000793F7D8012584BEA494B700302326302CC
:103010003256900259E0FFD394005003023116EF6C
:1030200094094003023116A3E01470030230C20475
:103030006003023263900259E0FF900108B4070573
:10304000740CF080037402F0900108E0FE90025BC3
:10305000E0D39E40030231B8EF75F086A4FFAEF0D6
:103060002448F974063E7548FFF549894A754B02B4
:10307000744A2FF974063E754CFFF54D894E900247
:1030800059E075F086A4248AF582E5F03406F583CC
:103090001252288F267B017A0079C8AD2612623C35
:1030A000900259E075F086A424CCF582E5F0340650
:1030B000F583E493FF740193900268CFF0A3EF02CD
:1030C00031F7900268E07002A3E070030232092039
:1030D0001603023263C216900259E075F086A424EA
:1030E0008BF9740635F07549FFF54A894BE075F0A8
:1030F00086A424CBF582E5F03406F583E493F54C01
:103100007B017A03793F7D8012584BEA494B70036B
:10311000023263023256900259E0C394095003020E
:10312000326378277C007D007BFF7A0B79D37E00A9
:103130007F10122736900B40E493FF7E0078277CA7
:10314000007D007BFF7A0B7900122736900259E050
:10315000FDC3940C502EE0FF75F003A4246FF5829C
:10316000E4340BF583E493F527EF75F003A42470A2
:10317000F582E4340BF583E493FE740193F52AEEB3
:10318000F52B801E74622DF8E6FFC39410500302E5
:10319000325DEF94FF400302325D8F27752A0DE404
:1031A000F52B90025AE014605604600302326390DB
:1031B000025BE0D394024007E4F0900259F02275DC
:1031C00048FF75490A754AFE754B02754C00754DEE
:1031D00000754E27900B401252288F267B017A00F3
:1031E00079C8AD2612623C900B82E493FF74019380
:1031F000900268CFF0A3EFF090025A7401F0229091
:103200000268E07002A3E0700C90025BE004F0E45E
:1032100090025AF02230164BC2167549FF754A0BC0
:10322000754B41900B81E493F54C7B017A03793F18
:103230007D8012584BEA494B701C7549FF754A0B4B
:10324000754B84754C067B017A03793F7D8012585B
:103250004BEA494B600DE490025AF0A3F0900259FA
:10326000E004F022027300000175000176004305BE
:103270002700000043052A00000043052D00000040
:103280004305300000004105330341053400420589
:103290002201F4420524000041052608C1A701725D
:1032A0003B017101036E000000604004CD0000008E
:1032B000000000000000000000000000000000000E
:1032C00000000000000000000000000000000000FE
:1032D00000000000000000000000000000000000EE
:1032E000000000000000000000000000004604C7CD
:1032F0000000000000004604C1010101010101C1FC
:10330000284305120000004305150000004305187E
:1033100000000043051F000000016D08016B05015E
:103320006C00016A00420510000041051B3C41058C
:103330000E0043051C00000041050F000254000070
:10334000C11F41050D0001561FC1A00157000158C2
:1033500000C1A1015900015A00015B00015C00019C
:103360005D00015E00C1A2015F000160000161001B
:103370000162000163000164000165000166000153
:103380006700016800016900C12943054C00000085
:10339000604C026A00000000000000000000000015
:1033A000000000000000000000000000000000001D
:1033B000000000000000000000000000000000000D
:1033C00000000000000000000000000000000000FD
:1033D00000000000000000000000000000000000ED
:1033E000604C02E50000000000000000000000004A
:1033F00000000000000000000000000000000000CD
:1034000000000000000000000000000000000000BC
:1034100000000000000000000000000000000000AC
:10342000000000000000000000000000000000009C
:103430004203310000602E02B600000000000000D0
:10344000000000000000000000000000000000007C
:10345000000000000000000000000000000000006C
:1034600000000000000000460335000000000000DE
:103470004602610000000000000110A14203330079
:1034800000C115C112420268000042033D0000C1A4
:1034900014410267004103C01441033B0041033C57
:1034A0000343025D0000004102E40041026000C1EC
:1034B00016C113010E00010F006081033F000000E0
:1034C00000000000000000000000000000000000FC
:1034D00000000000000000000000000000000000EC
:1034E00000000000000000000000000000000000DC
:1034F00000000000000000000000000000000000CC
:1035000000000000000000000000000000000000BB
:1035100000000000000000000000000000000000AB
:10352000000000000000000000000000000000009B
:103530000000000000000000000000000000010D7D
:10354000004102590041025A0041025B0041025809
:10355000FF010800010900010A0041025C00020BA2
:103560000000C10FC111C190011E00C19EC11D020A
:103570001C000042054A00004205480000011800F6
:10358000011900C117C118C119011A00C11AC11BC4
:10359000C11C011B00410547024105440042054191
:1035A000000341054300C12A420545000047053795
:1035B0000000000000000041053E0A41053F0841AF
:1035C000054000027C0000017E00C126C125017F6C
:1035D0000002780000018100018000027A000001F1
:1035E00077004205350000C123C12B00E546243A8F
:1035F000F8E60546227837300D02783AE475F00196
:10360000122AC502275C2006EB7F2ED2068018EF17
:10361000540F2490D43440D4FF300A0BEF24BFB4AD
:103620001A0050032461FFE54760021547054AE58B
:103630004A70020549300D0D7837E475F001122A01
:10364000C5EF0227A20261EF7403D20D8003E4C22A
:103650000DF5468B378A388939E4F547F549F54A3F
:10366000E54760077F2012362780F57548FFC207BF
:10367000C206C208C209C20BC20CC20E1235F5FF47
:10368000700D300D057F00123638AF4AAE4922B4B6
:10369000255FC2D5C20A1235F5FF24D0B40A005006
:1036A0001A75F00A784730D50508B6FF0106C6A49A
:1036B00026F620D5047002D20980D924CFB41A008E
:1036C000EF5004C2E5D20A023838D20780C6D206CB
:1036D00080C0D20880BCD2D580BAD20B80B47F2003
:1036E0001236272008077401B5470040F11235EC67
:1036F000FF123627023660D20ED20C80951235ECBE
:10370000FB1235ECFA1235ECF94A4B700679097A5E
:10371000397BFF20082EE547602A7E008E82758364
:103720000012277560060EEE654870F0C2D5EBC03A
:10373000E0EAC0E0E9C0E0EE12387FD0E0F9D0E086
:10374000FAD0E0FB12275CFF60AAEBC0E0EAC0E021
:10375000E9C0E0123627D0E02401F9D0E03400FAC5
:10376000D0E0FBE5480460DCD548D980877BFF7A50
:1037700038797BD208809C791080027908C20CC20B
:103780000E8008D2D5790A8004790AC2D5E54804AA
:103790007002F548E4FAFDFEFF1235ECFC7B0820D0
:1037A00007131235ECFD7B1030060A1235ECFE12C1
:1037B00035ECFF7B20EC3382D592D55013C3E43037
:1037C00006069FFFE49EFEE42007039DFDE49CFCAB
:1037D000E4CBF8C207EC700CCFCECDCCE824F8F8DF
:1037E00070F38017C3EF33FFEE33FEED33FDEC33A0
:1037F000FCEB33FB994002FB0FD8E9EB300705F8EF
:10380000D0E0C448B207C0E00AEC4D4E4F78207BB0
:103810000070C2EAB5480040BCC0E0123881D0F068
:10382000D0E0200704C4C0E0C4B207C0F0123610D4
:10383000D0F0D5F0EB0236601228C336FD5337774F
:103840005836CE4C36CA42377B4F3783443783498C
:1038500036E343378955376D46376D45376D473900
:10386000295036D22D36D62E36F92B36DA2336F7B6
:103870002039122A369248000036F13F3F3F007946
:103880000AA2D5200914300B09B910020404B908A2
:103890000104A2D5200C025001042008689208B54A
:1038A00047005034C0E07F203009197F30A20872F1
:1038B0000C720B500F1238D8C208C20CC20BC20EC9
:1038C0007F30800F300B03E9C0E0123627300B0346
:1038D000D0E0F9D0E0B547CC300B177F30B9100CF1
:1038E0001236277F58300A077F788003B908031201
:1038F00036273008057F2D0236277F20200EF87FDF
:103900002B200CF322920880CF286E756C6C290056
:10391000D2071235EC3007F8C207784730D50108D6
:10392000F60236922D504349581235EC2403B40563
:10393000004001E490392493123618743A12361874
:10394000D209754704023777900510E0FEA3E04ED8
:10395000707B900510F0A3740CF09060CBE493FFA3
:10396000E564D39F401CE4F564E565D39407400506
:10397000E4F56580020565E4F569F568F567F566C7
:10398000804B0564E564C394004009E564942050CD
:1039900003856466E564C39420400CE5649440505C
:1039A00006E56424E0F567E564C39440400CE564F3
:1039B00094605006E56424C0F568E564C3946040F3
:1039C0000CE56494805006E56424A0F569E565B4CF
:1039D00007004003023C6E9039DEF8282873023954
:1039E000F3023A2E023A5A023AB0023AEA023B286D
:1039F000023BA6E56675F00584541FFF900520E0A4
:103A000054E04FF0E56775F00584541FFF900519E9
:103A1000E054E04FF0E56875F00584541FFF900511
:103A200016E054E04FF0E56975F005848079E566AD
:103A3000541FFF90051FE054E04FF0E567541FFF4F
:103A4000900518E054E04FF0E568541FFF9005150D
:103A5000E054E04FF0E569023B1FE56675F0058430
:103A6000FFC374069F541FFF900520E054E04FF001
:103A7000E56775F00584FFC374069F541FFF90052A
:103A800019E054E04FF0E56875F00584FFC3740653
:103A90009F541FFF900516E054E04FF0E56975F064
:103AA0000584FFC374069F541FFF900513023C69F1
:103AB000E566C313541FFF900521E054E04FF0E585
:103AC00067C313541FFF90051AE054E04FF0E568F8
:103AD000C313541FFF900517E054E04FF0E569C38E
:103AE00013541FFF900514023C69C3741F9566545C
:103AF0001FFF90051FE054E04FF0C3741F956754FB
:103B00001FFF900518E054E04FF0C3741F956854F0
:103B10001FFF900515E054E04FF0C3741F956954E2
:103B20001FFF900512023C69E56675F00384541F7F
:103B3000FF900520E054E04FF0E56775F0038454F2
:103B40001FFF900519E054E04FF0E56875F003841D
:103B5000541FFF900516E054E04FF0E56975F0033F
:103B600084541FFF900513E054E04FF0E566C31343
:103B7000541FFF90051FE054E04FF0E567C3135456
:103B80001FFF900518E054E04FF0E568C313541F81
:103B9000FF900515E054E04FF0E569C313541FFF93
:103BA000900512023C69E566C313FFC3740F9F546E
:103BB0001FFD900521E054E04DF0E567C313FFC3FE
:103BC000740F9F541FFC90051AE054E04CF0E56818
:103BD000C313FFC3740F9F541FFB900517E054E0FD
:103BE0004BF0E569C313FFC3740F9F541FFF90058B
:103BF00014E054E04FF0E56675F00384FEC3740AE8
:103C00009E541FFE900520E054E04EF0E56775F0ED
:103C10000384FEC3740A9E541FFE900519E054E00D
:103C20004EF0E56875F00384FEC3740A9E541FFECF
:103C3000900516E054E04EF0E56975F00384FEC38C
:103C4000740A9E541FFE900513E054E04EF0900558
:103C50001FE054E04DF0900518E054E04CF0900562
:103C600015E054E04BF0900512E054E04FF022785C
:103C7000C97C007D017BFF7A0C797D7E007F50122C
:103C80002736E4F52678197C017D017BFF7A0C79D3
:103C9000CDFE7F40122736E4F52778287C00FD7B97
:103CA000FF7A0D790DFE7F03122736900333E0FF74
:103CB00030E00D54FEF0A3E0F50DE4F509F50A221D
:103CC000E4F5289002B3E0F529752A0D7548FF75D3
:103CD000490D754A10754B02754C00754D00754EB7
:103CE00028754F037B017A0179191252328F279080
:103CF00002B4E0FCA3E0FD9002B3E0F532753301BD
:103D000075340275356A9002B2E0F5367B017A00AF
:103D100079C91257C48F26E50914604B1470030249
:103D20003E23147003023EFC147003023F0B240474
:103D30006003023F79E50AD394034009750801E462
:103D4000F50A023F79D2A3900332E020E00B7B0119
:103D50007A0079C9AD2612623C9002687403F0A320
:103D600074E8F075090122900331E0C313FEA3E06B
:103D700013FFEE547FFCAD07900268E0FAA3E0FB6E
:103D8000FFAE021227E89000C8EFF0EB4A7006057C
:103D90000AF509805D900332E030E0199000C8E038
:103DA000FF90025CE06F600DEFF07B017A0079C953
:103DB000AD2612623C201603023F7CC216754901F3
:103DC000754A01754B1985274C7B017A03793F7D34
:103DD0008012584BEA494B601E90032DE070057528
:103DE0000903800D7509029002687401F0A374F450
:103DF000F0E490025CF02278417C037D017BFF7A45
:103E00000D79107E007F02122A75EF6003023F7C5D
:103E1000900343E0F508900332E030E003023F7C7A
:103E2000023F79900268E07002A3E07005050AF590
:103E30000922201603023F7C900347E0FDA3E078AF
:103E400088F6ED08F690034AE008F6C21690033FA4
:103E5000E064FE60337E007F407D007B017A047960
:103E6000CD122A99753AFF753B00753CC890033F07
:103E7000E0753D00F53E7B017A0479CD1236487B32
:103E8000017A0479CD12613B90032DE0FF7E00782A
:103E9000547C037D017B017A0279E5122A75EF706B
:103EA0001F7888E6FE08E6FF90032FE0B50611A311
:103EB000E0B5070C90032EE0086670047509032234
:103EC0007E007F407D007B017A0479CD122A9975AE
:103ED0003AFF753B00753CDD788AE6753D00F53E9E
:103EE0007888E6FE08E68E3FF5407B017A0479CDBE
:103EF0001236487B017A0479CD02613B301507C246
:103F000015750D03805C750D018057301507C215BE
:103F1000750D038003750D01E50860467E007F4046
:103F20007D007B017A0479CD122A99753AFF753BA1
:103F300001753C03753D0085083E7B017A0479CD0F
:103F40001236487B017A0479CD12613BE5082433AF
:103F5000600A24E4600624E970028000756A01E4C6
:103F6000F508E4F50AF509900332E054FEF0E49018
:103F70000331F0A3E05401F022750904223025102A
:103F8000E56C64036005E56CB40220756C04801B6D
:103F9000E56CB404031263E890051BE0700DE56C5A
:103FA000B403087F0F125A47756C02E56C14B4070E
:103FB000004003024230903FC475F003A4C583253E
:103FC000F0C58373024233023FD9023FDC023FDC7B
:103FD0000241F102422802422D023948E57130E0E7
:103FE0006C900544E030E02CE56D75F003A424A34B
:103FF000F582E43460F583E493541FFDE56D75F0BC
:1040000003A424A4F582E43460F583E493541FFBF5
:10401000E56D802AE56B75F003A424A3F582E434F2
:1040200060F583E493541FFDE56B75F003A424A4AD
:10403000F582E43460F583E493541FFBE56B75F07F
:1040400003A424A5F582E43460F583800F9060A07A
:10405000E493541FFDA3E493541FFBA3E493541F64
:10406000F529E4FF125B31E57130E16C900544E025
:1040700030E12CE56D75F003A424A3F582E43460EF
:10408000F583E493541FFDE56D75F003A424A4F5B6
:1040900082E43460F583E493541FFBE56D802AE5E8
:1040A0006B75F003A424A3F582E43460F583E493F4
:1040B000541FFDE56B75F003A424A4F582E434607D
:1040C000F583E493541FFBE56B75F003A424A5F579
:1040D00082E43460F583800F9060A0E493541FFD68
:1040E000A3E493541FFBA3E493541FF5297F01120B
:1040F0005B31E57130E26C900544E030E22CE56D17
:1041000075F003A424A3F582E43460F583E49354AA
:104110001FFDE56D75F003A424A4F582E43460F579
:1041200083E493541FFBE56D802AE56B75F003A4CF
:1041300024A3F582E43460F583E493541FFDE56B1A
:1041400075F003A424A4F582E43460F583E4935469
:104150001FFBE56B75F003A424A5F582E43460F53C
:1041600083800F9060A0E493541FFDA3E493541F39
:10417000FBA3E493541FF5297F02125B31D39060B7
:10418000C17401939555E493955440090555E5553F
:104190007002055422B21FE4F554F555E56A146027
:1041A0001514601A14602014602F2404703FE4F585
:1041B000297B1EFD8021E4F529FB7D1E8019E4F595
:1041C000297B0A7D1E8021E4301F08F5297B0A7DAA
:1041D0001E8004F529FBFD800FE4301F07F529FB45
:1041E0007D1E8004F529FBFD7F03025B31E4F56A47
:1041F0002290050EE060047F01802F1263E87E00AC
:104200007F407D007B017A0479CD122A99753AFFAF
:10421000753B60753C907B017A0479CD1236487B02
:10422000017A0479CD02613BE4FF024458025396BF
:10423000756C03228B268A27892878087C017D01EA
:104240007BFF7A0D79157E007F22122736AB26AAD6
:1042500027A92812275C900108F090000112277509
:10426000FF7E00E92402F9E43AFA78097C017D0135
:10427000122736AB26AA27A928900001122775908D
:104280000129F0900108E02497605714700302445C
:104290002824026003024457C202D204900109E0BC
:1042A000F52D125C6F9202900109E0FF1263CF7E40
:1042B000007F407D007B017A0479CD122A99753AFE
:1042C000FF753B01753CA4900109E0753D00F53E8A
:1042D0007B017A0479CD1236487B017A0479CD02CC
:1042E0004425C202C203E4F52CF52BF52AF52990EA
:1042F0000109E0FFE52C4FF52CE52BF52BE52AF520
:104300002AE529F529A3E0FFE4FCFDFE7808122840
:10431000B0E52C4FF52CE52B4EF52BE52A4DF52A73
:10432000E5294CF529A3E0FFE4FCFDFE78101228F6
:10433000B0E52C4FF52CE52B4EF52BE52A4DF52A53
:10434000E5294CF529A3E0FFE4FCFDFE78181228CE
:10435000B0E52C4FF52CE52B4EF52BE52A4DF52A33
:10436000E5294CF529A3E0FF90053FE0B5070C9047
:10437000010EE0FE900540E06E603390053FEFF0E7
:1043800090010EE0900540F07B017A05793F75378A
:10439000007538017F037E00125CD17B017A0579BC
:1043A000407537007538017F047E00125CD19001A2
:1043B0000FE06002D2037F807E437D6D7C38AB2CA2
:1043C000AA2BA92AA829D312288C401DE52C2480C9
:1043D000FFE52B34BCFEE52A3492FDE52934C7FC09
:1043E000A20392041246429202753AFF753B017590
:1043F0003CC590010CE0753D00F53E90010BE07569
:104400003F00F54090010AE0754100F54290010936
:10441000E0754300F5447B017A0079C81236487B89
:10442000017A0079C802613B7E007F407D007B01FC
:104430007A0479CD122A99753AFF753B01753CEEE5
:104440007B017A0479CD1236487B017A0479CD124A
:10445000613BC204125ECA22AD07E55E701D2022D8
:104460001A9060CA93FFE55FC39F5004055F800BFD
:10447000E4F55FF563F562F561F560E55E7004D221
:10448000228009E55ED394504002C222900510E0DC
:104490007002A3E07075AF5E202204155E800205F5
:1044A0005EEF541FFF9060C8E493FEEF8EF084FF30
:1044B000A3E493FEEF8EF0A4FF900510E5F0F0A3C7
:1044C000EFF0E55EC394004009E55E94205003855B
:1044D0005E60E55EC39410400CE55E94305006E5E6
:1044E0005E24F0F561E55EC39420400CE55E9440E7
:1044F0005006E55E24E0F562E55EC39430400CE5CD
:104500005E94505006E55E24D0F563ED147003020E
:1045100045AC046003024641E55F6003024641305A
:104520002258E55EC3942E5017E55E75F00F84E5C2
:10453000F0D3940A900521E050030245D0024609C9
:10454000E55ED3942D4007900521E0441FF0E55E21
:10455000D39432400790051AE0441FF0E55ED394EF
:104560003C4007900517E0441FF0E55ED3944650A9
:1045700003024641900514024608E563541FFF906C
:104580000521E054E04FF0E562541FFF90051AE06A
:1045900054E04FF0E561541FFF900517E054E04FE1
:1045A000F0E560541FFF90051402463CE55F600390
:1045B000024641302257E55EC3942E5017E55E75E2
:1045C000F00F84E5F0D3940A900520E04002803992
:1045D00054E0F022E55ED3942D4007900513E044AB
:1045E0001FF0E55ED394324007900516E0441FF0BB
:1045F000E55ED3943C4007900519E0441FF0E55E6A
:10460000D39446403C900520E0441FF022E56354DB
:104610001FFF900513E054E04FF0E562541FFF9038
:104620000516E054E04FF0E561541FFF900519E0D6
:1046300054E04FF0E560541FFF900520E054E04F38
:10464000F0228F308E2F8D2E8C2D782A7C017D01CB
:104650007BFF7A06793D7E007F0B122736C20585E7
:104660003034852F33852E32852D312004030247C7
:104670008290053FE0D3940C5041900540E0FFE468
:10468000FCFDFE7B3CFAF9F812283DC004C005C0D1
:1046900006C00790053FE0FFE4FCFDFE7B107A0EAC
:1046A000F9F812283DD003D002D001D000EF2BFF43
:1046B000EE3AFEED39FDEC3802476D90053FE0FF24
:1046C000D3940C405EEFD394185058E024F4FFE4E8
:1046D00034FFFEE4FCFD7B107A0EF9F812283DC091
:1046E00004C005C006C007900540E0FFE4FCFDFEE5
:1046F0007B3CFAF9F812283DD003D002D001D0005B
:10470000EB2FFBEA3EFAE93DF9E83CF8C3E5349BC0
:10471000F534E5339AF533E53299F532E53198F51C
:1047200031805F90053FE0FFC3941E4055EF24EFBA
:10473000FFE434FFFEE4FCFD7B107A0EF9F812284A
:104740003DC004C005C006C007900540E0FFE4FC82
:10475000FDFE7B3CFAF9F812283DD003D002D001CF
:10476000D000EB2FFFEA3EFEE93DFDE83CFCE534DE
:104770002FF534E5333EF533E5323DF532E5313C96
:10478000F531E534FF90012AEFF0E4FFE533FEE474
:10479000FDFC780812289DA3EFF0E4FFFEE532FD52
:1047A000E4FC781012289DA3EFF0E4FFFEFDE53154
:1047B000FC781812289DA3EFF07538017539017542
:1047C0003A2A9005F9E493F53B753CFF753D057574
:1047D0003EFA90063AE493F53F754002A3E493F560
:1047E00041740193F5427BFF7A0579B712557192B6
:1047F00005A20522E4F526F527F528126369EF7076
:10480000030248A9201A23D21A905226E493FF7477
:10481000019390054ACFF0A3EFF09005487401F0A2
:10482000A3745EF01263698F1A22126369EF651A2E
:10483000600302493C90054AE0FEA3E0FFC39052AA
:10484000267401939FF528E4939EF527C390522286
:104850007401939528E4939527501BC390522474B8
:1048600001939528E4939527400C201B09D21B7DCA
:1048700004AF1A124A73C39052247401939528E42A
:10488000939527400302493CC390522674019395A7
:1048900028E4939527500302493C301C0302493C0D
:1048A000D21C7D05AF1A024A73301A5C90054AE0AB
:1048B000FEA3E0FFC39052267401939FF528E49372
:1048C0009EF527C39052207401939528E493952771
:1048D0005036C39052227401939528E49395274053
:1048E00027900548E07002A3E06002051BE51BD39A
:1048F000940150047D0280027D03AF1A124A737B3B
:10490000027D327F03126262900548E07002A3E0EC
:10491000701DE51B6019F526E4F51BE526C394021E
:10492000400AAD26AF1A125BA4E4F526E4F51AC2DC
:104930001BC21CE490054AF0A3F0C21A22AB32AAB3
:1049400033A934900002E5361227B4900003E5370E
:104950001227B420070EAB32AA33A93490000AE51F
:10496000721227B4E5342405F9E43533A801FCAD0F
:10497000327B017A0479C87E007F05122736AB327C
:10498000E5342405F9E43533FA7D1C126171AB324C
:10499000AA33A934900004EF1227B4200603024A78
:1049A0005778587C017D017BFF7A04793F7E007F38
:1049B00040122736AB32AA33A93474CC1227A2E5B1
:1049C00035240CAB32AA33A9349000011227B4E588
:1049D0003524F3FFE434FFFEE92401F9E43AFA78E0
:1049E000587C017D01122736E53524FFFFE434FFB2
:1049F000FE7D00AB32E5342401F9E43533FA122AA6
:104A000099E53524F3FFE434FFFEE534240DF9E4A1
:104A10003533A801FCAD327B017A01795812273673
:104A2000E5342401F9E43533A801FCAD327B017A89
:104A30000479C17E007F06122736E5342408F9E4A4
:104A40003533A801FCAD327B017A0479C87E007F42
:104A5000051227367F2D22AB32AA33A93474AA124D
:104A600027A2AB32AA33A934900001E5351227B44E
:104A70007F21228F29ED24FD606C147003024B31DD
:104A8000147003024B6E24036003024B9E7E007F72
:104A9000407D007B017A0479CD122A99753AFF7521
:104AA0003B51753C84753D0085293E7B017A047934
:104AB000CD1236487B017A0479CD12613BE5292479
:104AC000FE600B24FE600724036003024B9E9005EA
:104AD000427401F0900541E529F0900543F09005FE
:104AE00045E04401F0227E007F407D007B017A0496
:104AF00079CD122A99753AFF753B51753CA0753DE9
:104B00000085293E7B017A0479CD1236487B017AF3
:104B10000479CD12613BE52924FE600824FE60047F
:104B20002403707A9005427401F0900541E529F064
:104B3000227E007F407D007B017A0479CD122A9984
:104B4000753AFF753B51753CBA753D0085293E7B32
:104B5000017A0479CD1236487B017A0479CD12614D
:104B60003BE52924FC60028035D204025ECA7E0047
:104B70007F407D007B017A0479CD122A99753AFF36
:104B8000753B51753CD7753D0085293E7B017A0404
:104B900079CD1236487B017A0479CD12613B22C26D
:104BA0000278C87C007D017BFF7A0579907E007FCA
:104BB00020122736E4FF7538FF753905753AB5754B
:104BC0003B01753C00753DC8753E02753F0175405F
:104BD0002C7BFF7A0579B07D051259CEEF7005C2A6
:104BE00002024CA69000D6E0FE9000D5E0FDEEF566
:104BF00026EDF527E4F528F529AE26AF277C077DBD
:104C0000D01227E88D2A9000D3E0F52BA3E0F52CF5
:104C1000E4F52D852A28E52B64016005E52BB40217
:104C20000AE52B240CF52915288003852B29E52975
:104C30002401FFE433FE7C007D1A1227D67D0A1280
:104C400027E8E5281313543F25282F252C24DCF5CD
:104C50002D75F0078485F02DE52D9005396003F062
:104C600080037407F0900538E52BF090053AE52CA9
:104C7000F0900537E52AF09000D0E090053BF090E9
:104C800000D1E090053CF09000D2E090053DF0FDB1
:104C900090053CE075F03CA4AEF07C002D787DF6EC
:104CA000EC3E18F6D202A202220A3E3E3D3D3DCA2B
:104CB000B1BCE4B4C13D3D3D3C3C0A202020203243
:104CC00030253032642F253032642F253032642D68
:104CD00057253031640A0020202020202020202564
:104CE0003032643A253032643A253032640A007436
:104CF000696D655A6F6E655F483A253032642E0AD9
:104D0000003E3E3E3E3E3E3E3E74696D65722D2540
:104D10003032645F55502121212E0A00000000002E
:104D20000000000000000000000000000000000083
:104D30000000000000000000000000000000000073
:104D40000000000000000000000000000000000063
:104D50000000000000000000000000000000000053
:104D60000000000000000000000000000000000043
:104D70000000000000000000000000000000000033
:104D80000000000000000000000000000000000023
:104D90000000000000000000000000000000000013
:104DA0000000000000000000138800008B278A2804
:104DB0008929782A7C007D007BFF7A4D791C7E0052
:104DC0007F18122736E4F542FB7A00792AF54875F8
:104DD00049187F10FE125FDAE4F542E54275F003F0
:104DE000A4242AF8E6547FFFAB2775F003E542A41C
:104DF0002529F9E52835F0FA12275C54804FFF1277
:104E000027A2E54275F003A4242AF8E65480C413CF
:104E100013135401C43333335480FEEF547F4E12C6
:104E200027A2E54275F003A4242BF8E654E0C4134E
:104E30005407FDE54275F003A4AB272529F9E528C1
:104E400035F0FAE92401F9E43AFA12275C54F84DF6
:104E5000FF1227A2E54275F003A4242BF8E6541FA5
:104E600033333354F8FEEF54074E1227A2E5427550
:104E7000F003A4242CF8E6FDE54275F003A4AB276B
:104E80002529F9E52835F0FA900002ED1227B4053E
:104E900042E54264086003024DDB228B278A2889A1
:104EA00029782A7C007D007BFF7A4D79347E007F53
:104EB00006122736E4F530FB7A00792AF548754961
:104EC000067F32FE125FDAE4F530E53075F003A4B8
:104ED000242AF8E6547FFFAB2775F003E530A425BC
:104EE00029F9E52835F0FA12275C54804FFF122784
:104EF000A2E53075F003A4242AF8E65480C4131305
:104F0000135401C43333335480FEEF547F4E1227C1
:104F1000A2E53075F003A4242BF8E654E0C4135442
:104F200007FDE53075F003A4AB272529F9E5283501
:104F3000F0FAE92401F9E43AFA12275C54F84DFF3B
:104F40001227A2E53075F003A4242BF8E6541F3392
:104F5000333354F8FEEF54074E1227A2E53075F0B4
:104F600003A4242CF8E6FDE53075F003A4AB272557
:104F700029F9E52835F0FA900002ED1227B4053042
:104F8000E53064026003024ECA2290033EE07003E3
:104F900002504190033DE030E03378C87C007D0151
:104FA0007BFF7A0D79127E007F0312273690033D36
:104FB000E054FEF07B017A0079C8752C037D0E74F5
:104FC000FFFFFE125F147F327E0012632EE50B702E
:104FD0006AE50C1460191460332402705EC2A39059
:104FE0000268E4F0A374C8F0750B00750C01229000
:104FF0000268E07002A3E0707DD2A390026874178B
:10500000F0A37470F0750B00750C0222900268E03A
:105010007002A3E07060F50BF50CFE7F40FD7B0194
:105020007A0479CD122A99753AFF753B01753C4691
:1050300090033EE0753D00F53E8029E4F50BF50C4C
:1050400022E4F50BF50CD2A3750D03756C03FE7FFE
:1050500040FD7B017A0479CD122A99753AFF753BA0
:1050600001753C6A7B017A0479CD1236487B017A5E
:105070000479CD12613B22E4F528900544E0FFF568
:1050800028E52724FE602904705CE52630E007EF60
:105090006401900544F0E52630E107900544E064A2
:1050A00002F0E52630E23F900544E06404F08036EB
:1050B000E52690054430E006E04401F08004E05429
:1050C000FEF0E52690054430E106E04402F080045D
:1050D000E054FDF0E52690054430E206E04404F09B
:1050E0008004E054FBF01260CCE4900546F090059B
:1050F00044E0FF5407900546F0EF5401FFE52854C3
:10510000016F6006E04420F0802A900544E0FC54E2
:1051100002FEE52854026E6009900546E04440F026
:105120008012EC5404FFE52854046F600790054694
:10513000E04480F0900544E0FF6006E4787AF608E9
:10514000F6900547E0B401158F287B007A00792896
:105150007537007538017F027E00125CD122746FB2
:10516000756368506164207370656369616C207455
:105170007269673A6E776B4F70656E3A25303264AC
:10518000732E0A00746F7563685061643A2530327B
:10519000582C2073686F727450726573732E0A00F6
:1051A000746F7563685061643A253032582C2063FF
:1051B0006E7450726573732E0A00746F7563685055
:1051C00061643A253032582C206C6F6E67507265DE
:1051D00073735F412E0A00746F7563685061643A9F
:1051E000253032582C206C6F6E6750726573735F78
:1051F000422E0A00746F7563685061643A2530323C
:10520000582C202530325874696D65207072657392
:10521000734F7665722E0A00000A0BB82710EA60F9
:1052200000140BB82710EA60E493F54F7B017A0075
:1052300079C88B458A468947854F50E4F551AE5170
:1052400005518E82F58374FE1227B4AF5105518F3C
:1052500082758300E54F1227B4AF4B7E007C00E5DA
:10526000472551F9EC3546A801FCAD45AB48AA49A4
:10527000A94A122736E54B2551F551E4FEEEC395B8
:105280004B5013AB48AA49A94A8E82758300122756
:105290007562500E80E7AF4F7E007C00E5472551D8
:1052A000F9EC3546A801FCAD45AB4CAA4DA94E1210
:1052B0002736E54F2551F551E4FEEEC3954F5013C7
:1052C000AB4CAA4DA94E8E82758300122775625091
:1052D0000E80E7AB45AA46A947AF5105518F8275AD
:1052E0008300E5501227B4AF51226D61635F726590
:1052F000616C65733A2530325820253032582025AC
:1053000030325820002530325820253032582025A0
:105310003032582E0A00000000000000000000009B
:10532000000000000000000000000000000000007D
:10533000000000000000000000000000000000006D
:10534000000000000000000000000000000000005D
:10535000000000000000000000000000000000004D
:10536000000000000000000000000000000000003D
:10537000000000000000000000000000000000002D
:10538000000000000000000000000000000000001D
:1053900000000000000090050DE014601E14700372
:1053A000025424240260030254309005107403F068
:1053B000A374E8F090050D7401F022900510E0FE52
:1053C000A3E0FF4E60487C007DC71227E8D3ED9430
:1053D00063EC9400401BA3E0441FF0900515E044EB
:1053E0001FF0900518E0441FF090051FE0441FF0E7
:1053F00022900512E054E0F0900515E054E0F090A2
:105400000518E054E0F090051FE054E0F02290050C
:10541000107402F0A37458F07F0F125A4790050DD4
:105420007402F022900510E07002A3E07007800182
:10543000E490050DF02278587C017D017BFF7A53C2
:1054400079167E007F801227367B017A01795875A4
:105450003700753880E4FFFE125CD190015874A1CA
:10546000F07B017A0179587537007538017F017E2C
:1054700000125CD19001587408F07B017A017958D0
:105480007537007538017F407E00125CD19001585D
:105490007405F07B017A0179587537007538017F02
:1054A000417E00125CD1E4900158F07B017A0179D1
:1054B00058F5377538037F06FE125CD17E007F03F6
:1054C0007D007B007A00796E122A997F0A7E001295
:1054D000632E0200008B268A278928126404405C10
:1054E000D219201D02D21DD390521A740193951D1A
:1054F000E493951C501BC390521C740193951DE4BA
:1055000093951C400C201709AA2AA92B1228E9D22E
:1055100017D390521C740193951DE493951C505021
:10552000C390521E740193951DE493951C40412035
:10553000183EAA2DA92E1228E9D21822C21D301910
:105540002FC219D390521A740193951DE493951CA0
:105550004015905218740193951DE493951C5007C3
:10556000AA27A9281228E9E4F51CF51DC217C218BC
:10557000228B358A36893778357C017D017BFF7A2D
:1055800004797F7E007F60122736E4F54385354835
:1055900085364985374A754B0285384C85394D85A6
:1055A0003A4E853B4F7B017A0179351252328F4456
:1055B000E4F543E543C39540504FC216900268E5B9
:1055C00041F0A3E542F07B017A017935AD441262E6
:1055D0003C900268E07002A3E0602A3016F3C21625
:1055E000853C49853D4A853E4B853F4C7B017A038E
:1055F000793F7D8012584BEA494B60D57F027E008F
:1056000012632ED322054380AAC322785E7C007DDC
:10561000017BFF7A4D793A7E007F50122736753A2A
:10562000FF753B4C753CA9753D0085273E753F00D5
:10563000852840754100852A427543008529447BB1
:10564000017A00795E1236487B017A00795E126138
:105650003B753AFF753B4C753CD7753D00852B3E3D
:10566000753F00852C40754100852D427B017A00F5
:10567000795E1236487B017A00795E12613B753A99
:10568000FF753B4C753CEF90053FE0753D00F53EE6
:105690007B017A00795E1236487B017A00795E02DE
:1056A000613BC0E0C0F0C083C082C0D075D000C0F4
:1056B00000C001C002C003C004C005C006C007305E
:1056C0009831C298E517702B201314D213F50EF5FC
:1056D0000FFE7F807DFF7B017A0379C1122A99AF8B
:1056E0000F050F74C12FF582E43403F583E599F0BB
:1056F000750E00309927C299E5126513601C74413C
:105700002512F582E43404F583E0F5990512E512DB
:10571000C3948040087512008003751400D007D030
:1057200006D005D004D003D002D001D000D0D0D014
:1057300082D083D0F0D0E032787FE4F6D8FD758156
:105740008A02577F025E34E493A3F8E493A34003F4
:10575000F68001F208DFF48029E493A3F8540724CB
:105760000CC8C333C4540F4420C8834004F456808B
:105770000146F6DFE4800B0102040810204080900F
:105780003264E47E019360BCA3FF543F30E50954CA
:105790001FFEE493A360010ECF54C025E060A84033
:1057A000B8E493A3FAE493A3F8E493A3C8C582C82A
:1057B000CAC583CAF0A3C8C582C8CAC583CADFE9FF
:1057C000DEE780BE8B2D8A2E892F8C308D31785963
:1057D0007C017D017BFF7A0B79E57E007F481227F3
:1057E00036E4F537FE7F50FDAB2DAA2EA92F122AE5
:1057F00099900159E531F0E530A3F0A3E532F0A32B
:10580000F0A3740DF090015FF0E4A3F0A37407F02F
:10581000A3E536F0FF7E0078637C017D01AB33AAFF
:1058200034A9351227367548FF75490B754AE3755B
:105830004B02754C01754D01754E59E536240AF53C
:105840004FAB2DAA2EA92F125232228D488B458A9A
:10585000468947E4F54D8B4E8A4F895085495185DD
:105860004A52854B53C3E5509547FFE54F9546FE99
:105870007C00EF254CFFEC3EFED3EF95487480F89A
:105880006E985047AB510553E553AA52700205522A
:1058900014F912275CFFAB4E0550E550AA4F700279
:1058A000054F14F912275CB50713054DE54DB54CAE
:1058B000D3C3E550954CF9E54F9400FA2285495140
:1058C000854A52854B53E4F54D809A7B007A0079E6
:1058D00000227FF87E7FEF24FBFFEE34FFFAA9075A
:1058E0007BFF78C77C047D017E007F06122736751A
:1058F0003AFF753B52753CEA9004C7E0753D00F5F0
:105900003EA3E0753F00F540A3E0754100F5427B02
:10591000017A0079001236487B017A007900126121
:105920003B753AFF753B53753C059004CAE0753DE5
:1059300000F53EA3E0753F00F540A3E0754100F59A
:10594000427B017A0079001236487B017A007900A7
:1059500002613BC2AFD2BCE598543F4440F598E4A5
:10596000752934F528F527F526C39529F529E495F9
:1059700028F52874019527F527E49526F526AF2903
:10598000AE28AD27FC780812289D8FD68529D753DD
:105990008EEF438E01538EF7438E0453AFFB538E2D
:1059A000F7438E10D2ACD29C53A23F7E007F807D05
:1059B000007B017A047941122A99D2AF7BFF7A00E9
:1059C000792612637C7BFF7A00794D02613B8B3430
:1059D0008A3589368D37853F41854042E4F543F568
:1059E00043E543C3953E505CC216900268E53FF024
:1059F000A3E540F0AB34AA35A936AD3712623C902E
:105A00000268E07002A3E060373016F3C2167841F6
:105A10007C037D01AB38AA39A93A7E007F02122AA5
:105A200075EF70DB9003BFE0FF7E00A83DAC3CAD9E
:105A30003B7B017A03793F1227369003BFE0FF22B8
:105A40000543809D7F0022AD07ED30E015900514E1
:105A5000E054E0F0900513E054E0F0900512E054BB
:105A6000E0F0ED5402C3136015900517E054E0F028
:105A7000900516E054E0F0900515E054E0F0ED5488
:105A8000041313543F601590051AE054E0F090059C
:105A900019E054E0F0900518E054E0F0ED540813DC
:105AA0001313541F6015900521E054E0F090052079
:105AB000E054E0F090051FE054E0F0227526C8E4C1
:105AC000F527C200125F5A781EA6071262E98F718D
:105AD000781EE6FF65186010E519C3952650040589
