:0A00000002688390066BEFF02232D5
:10000B000200091274BC12758412754B1200261271
:10001B00716312730102719F02675DC2AFC2BCE5CF
:10002B0098543F4440F598E4752A34F529F528F5A2
:10003B0027C3952AF52AE49529F52974019528F506
:10004B0028E49527F527AF2AAE29AD28FC780812AE
:10005B00360D8FD6852AD7538EEF438E01538EF7ED
:10006B00438E0453AFFB538EF7438E10D2ACD29C0E
:10007B0053A23F7E007F997D007B017A05791D128B
:10008B003815D2AF7BFF7A0079A61275717BFF7A98
:06009B000079CD02724E57
:1000A3000228CF69276D20554152543120666F7263
:1000B30020776966692064617461207472616E736C
:1000C3006C617465202121210A0069276D20554147
:1000D30052543120666F7220646174734C6F6720D1
:1000E3002121210A006E776B5A69676220636F6E64
:1000F3006E6563742F72656A6F696E20616C6C2024
:10010300636F6D706C6574652E0A006E776B5A6948
:10011300676220636F6E6E6563742F72656A6F69C1
:100123006E206D61696E537465702D2530326440A5
:100133006D6574686F643A256420636F6D706C65D8
:1001430074652E0A00657272206672616D6548657A
:1001530061643A253032582E0A00726376506F720A
:100163007420697320253032582C207263764E77C1
:100173006B4164647220697320253034582E0A0061
:1001830072656D6F74652064617461526571756524
:100193007374206661696C2C20636F64653A5B300D
:1001A30078253032585D2E0A00646576486F6C649A
:1001B300207374617274207269676874206E6F773C
:1001C3002E0A00646576486F6C642074696D65203F
:1001D300636F756E742072656D696E643A202530A5
:1001E300326420732E0A00646576486F6C64207352
:1001F300746F702E0A00636D645363656E61726978
:100203006F4374726C20636F6D6D696E672C20731E
:100213007461747573446174613A253032582E0ADF
:10022300006D617374657220636D64436F6D696EF5
:10023300673A6E776B4F70656E3A25303264732E72
:100243000A006D61737465722055544320636F6DAA
:10025300696E673A5B30782530325825303258253D
:10026300303258253032585D2E0A006E6F64652097
:10027300636D64436F6D696E673A6465764E776B41
:1002830020686F6C642E0A006D617374657220635D
:100293006D643A206474506572696F6420686F6C92
:1002A300642C2074696D653A25642E0A00646966BE
:1002B300666572207363656E652064657465637437
:1002C3002066726F6D20706F6C696E672E0A006313
:1002D3006D64436F6D696E673A253032582E0A009C
:1002E3003E3E3E3E3E3E3E3E74696D65725F7461C6
:1002F300623320726573706F6E643A5B25303258D7
:100303002D253032582D253032585D2E0A003E3EC1
:100313003E3E3E3E3E3E74696D65725F746162337C
:1003230020686173206265656E207365743A5B258E
:100333003032582D253032582D253032585D2E0A53
:10034300003E3E3E3E3E3E3E3E72656C61795374D6
:1003530061747573207265616C65733A2530325828
:100363002C2063757272656E7456616C3A25303257
:10037300582E0A003E3E3E3E3E3E3E3E64656C6164
:1003830079506572696F643A5B25645D2C206465FE
:100393006C617955704163743A5B253032585D2E38
:1003A3000A003E3E3E3E3E3E3E3E666163746F72D1
:1003B30079207265636F766572207374616E64422F
:1003C30079212E0A003E3E3E3E3E3E3E3E61676937
:1003D3006E67436D64206465764C6F636B20636F57
:1003E3006D696E672C206C6F636B49663A5B25649D
:1003F3005D2E0A003E3E3E3E3E3E3E3E6167696ED6
:1004030067436D642074696D657220636F6D696EF7
:10041300672C2064617461546162313A5B25303228
:10042300582D253032582D253032585D2E0A003E86
:100433003E3E3E3E3E3E3E6167696E67436D6420CD
:10044300677265656E4D6F646520636F6D696E6776
:100453002C2074696D655365743A25642E0A003E39
:100463003E3E3E3E3E3E3E6167696E67436D64209D
:100473006E696768744D6F646520636F6D696E673D
:10048300207769746820646174733A5B253032584D
:10049300202530325820253032580020253032585C
:1004A300202530325820253032585D2E0A003E3E3A
:1004B3003E3E3E3E3E3E6167696E67436D64206229
:1004C3006B4C6967687420636F6D696E672C206F6E
:1004D3006E2D497372743A253032642C206F666630
:1004E3002D497372743A253032642E0A003E3E3E23
:1004F3003E3E3E3E3E6167696E67436D6420686FB2
:100503007273696E674C6967687420636F6D696E97
:10051300672C206F7072656174446174613A253091
:1005230032582E0A003E3E3E3E3E3E3E3E616769E5
:100533006E67436D642073776974636842696E64A0
:1005430053657420636F6D696E672C206F707265DD
:100553006174426974486F6C643A25303258206282
:10056300696E64446174613A253032582025303213
:100573005820253032582E0A003E3E3E3E3E3E3E37
:100583003E666163746F7279207265636F7665721C
:1005930020646F696E67206E6F77212E0A003E3EDE
:1005A3003E3E3E3E3E3E696E7465726E6574206FDC
:1005B30066666C696E652E0A0063757272656E7489
:1005C3005061696E20676574206973203A25303461
:1005D300582E0A003E3E3E64744374726C45616358
:1005E30068206C6F6F70506172616D3A25642025CD
:1005F300642025642E0A006374726C20656163684D
:100603004F7468657220636D6420636F6D696E67F4
:100613002C20636C75737465723A253032642C2018
:1006230076616C3A253032642C206C6F6F703A25FA
:100633003032642E0A0000000000000000000000B9
:1006430000000000000000000000000000000000A7
:100653000000000000000000000000000000000097
:100663000000000000000000000000000000000087
:100673000000000000000000000000000000000077
:100683000000000000000000000000000000000067
:100693000000000000000000000000000000000057
:1006A3000000000000000000000000000000000047
:1006B3000000000000000000000000000000000037
:1006C3000000000000000000000000000000000027
:1006D3000000000000002608FCFF000000000000EE
:1006E3000000000000000000000000000000000007
:1006F30000000000000000000000000000000000F7
:1007030000000000000000000000000000000000E6
:10071300000000000000000003FE016608006F00F7
:1007230000000000000000000000000000000000C6
:1007330000000000000000000000000000000000B6
:1007430000000000000000000000000000000000A6
:10075300000000000000000000060096FCFF0000FF
:100763000000000000000000000000000000000086
:10077300000000000000000000000000000000FE78
:1007830001260606276606000000000000000000A0
:100793000000000000000000000000000000000056
:1007A30000000000000000FE002111306111211043
:1007B3000000000000000000000000000000000036
:1007C3000000000000000000000000000000000026
:1007D3000000000000000000000000000000000016
:1007E3000000000000000000000000000000000006
:1007F3000BFE01611000000000000000000000007B
:1008030000000000000000000000000000000000E5
:1008130000000000000000000000000000000000D5
:1008230000000000000000000000000000000000C5
:100833000005006400000000000000000000004606
:10084300090000000000000000000000000000009C
:100853000000000000000000000000000000000095
:100863000000000000000000000000000000000085
:100873000000000000000000000000000000000075
:100883000000FE064180010200020603C3000000CF
:100893000000000000000000000000000000000055
:1008A3000000000000000000000000000000000045
:1008B3000000000000000000000000000000000035
:1008C30000000B0FA046090000000000000000001C
:1008D3000000000000000000000000000000000015
:1008E3000000000000000000000000000000000005
:1008F30000000000000000000000000000000000F5
:100903000000000000000000FE064180010200021A
:100913000603C30000000000000000000000000008
:1009230000000000000000000000000000000000C4
:1009330000000000000000000000000000000000B4
:1009430000000000000000000B0FA02605030103B8
:100953000000000000000000000000000000000094
:100963000000000000000000000000000000000084
:100973000000000000000000000000000000000074
:100983000000000000000000000000000003FE0162
:100993006605006200000000000000000000000087
:1009A3000000000000000000000000000000000044
:1009B3000000000000000000000000000000000034
:1009C300000000000000000000000000000006011D
:1009D300F4460900000000000000000000000000D1
:1009E3000000000000000000000000000000000004
:1009F30000000000000000000000000000000000F4
:100A030000000000000000000000000000000000E3
:100A130000000000FE064180010200020603C3003D
:100A230000000000000000000000000000000000C3
:100A330000000000000000000000000000000000B3
:100A430000000000000000000000000000000000A3
:100A5300000000000B0FA026058701010000000025
:100A63000000000000000000000000000000000083
:100A73000000000000000000000000000000000073
:100A83000000000000000000000000000000000063
:100A930000000000000000000003FE016605006284
:100AA3000000000000000000000000000000000043
:100AB3000000000000000000000000000000000033
:100AC3000000000000000000000000000000000023
:100AD300000000000000000000000601F42702FFF0
:100AE300FF00000000000000000000000000000004
:100AF30000000000000000000000000000000000F3
:100B030000000000000000000000000000000000E2
:100B130000000000000000000000000000000002D0
:100B2300FE016702006400000000000000000000F6
:100B330000000000000000000000000000000000B2
:100B430000000000000000000000000000000000A2
:100B53000000000000000000000000000000000092
:100B63000601F427030080000000000000000000DD
:100B73000000000000000000000000000000000072
:100B83000000000000000000000000000000000062
:100B93000000000000000000000000000000000052
:100BA300000000000004FE01670300650000000070
:100BB3000000000000000000000000000000000032
:100BC3000000000000000000000000000000000022
:100BD3000000000000000000000000000000000012
:100BE3000000000000000601F426000000000000E1
:100BF30000000000000000000000000000000000F2
:100C030000000000000000000000000000000000E1
:100C130000000000000000000000000000000000D1
:100C2300000000000000000000000000FE0145C0BD
:100C33000783000000000000000000000000000027
:100C430000000000000000000000000000000000A1
:100C53000000000000000000000000000000000091
:100C6300000000000000000000000000061F4026F6
:100C730008FCFF000000000000000000000000006E
:100C83000000000000000000000000000000000061
:100C93000000000000000000000000000000000051
:100CA3000000000000000000000000000000000041
:100CB3000003FE016608006F000000000000000052
:100CC3000000000000000000000000000000000021
:100CD3000000000000000000000000000000000011
:100CE3000000000000000000000000000000000001
:100CF300000006009624000E0D000D000D000100FB
:100D030000010000000000000000000000000000DF
:100D130000000000000000000000000000000000D0
:100D230000000000000000000000000000000000C0
:100D3300000000000000000DFE01640000650000DB
:100D430000000000000000000000000000000000A0
:100D53000000000000000000000000000000000090
:100D63000000000000000000000000000000000080
:100D730000000000000000000601F4FE016400B85A
:100D8300DD0C000D0D000D0E000D00000000000035
:100D93000000000000000000000000000000000050
:100DA3000000000000000000000000000000000040
:100DB3000000000000000000000000000000000030
:100DC3000000000000000000000000000000000020
:100DD30000000000000000000000240100000000EB
:100DE3000000000000000000000000000000000000
:100DF30000000000000000000000000000000000F0
:100E030000000000000000000000000000000000DF
:100E130000000000000000000000000000000000CF
:100E230000000000000000000000000000000000BF
:100E330000000000000000000000000000000000AF
:100E4300000000000000000000000000000000009F
:100E5300000000000000000000000000000000008F
:100E6300000000000000000000000000000000007F
:100E7300000000000000000000000000000000006F
:100E8300000000000000000000000000000000005F
:100E9300000000000000000000000000000000004F
:100EA300000000000000000000000000000000003F
:100EB300000000000000000000000000000000002F
:100EC300000000000000000000000000000000001F
:100ED300000000000000000000000000000000000F
:100EE30000000000000000000000000000000000FF
:100EF30000000000000000000000000000000000EF
:100F030000000000000000000000000000000000DE
:100F130000000000000000000000000000000000CE
:100F23000000000000000044806A0100000000008F
:100F330000000000000000000000000000000000AE
:100F4300000000000000000000000000000000009E
:100F5300000000000000000000000000000000008E
:100F6300000000000000000000000000000000007E
:100F7300000000000000000000000000000000006E
:100F8300000000000000000000000000000000005E
:100F9300000000000000000000000000000000004E
:100FA300000000000000000000000000000000003E
:100FB300000000000000000000000000000000002E
:100FC300000000000000000000000000000000001E
:100FD300000000000000000000000000000000000E
:100FE3000000000000000000000000448145CB0029
:100FF30000000000000000000000000000000000EE
:1010030000000000000000000000000000000000DD
:1010130000000000000000000000000000000000CD
:1010230000000000000000000000000000000000BD
:1010330000000000000000000000000000000000AD
:10104300000000000000000000000000000000009D
:10105300000000000000000000000000000000008D
:10106300000000000000000000000000000000007D
:10107300000000000000000000000000000000006D
:10108300000000000000000000000000000000005D
:10109300000000000000000000000000000000004D
:1010A300000000000000000000000000000000003D
:1010B300FB0000000000008B278A2889298C2A8DD9
:1010C3002B78FB7C007D017BFF7A0F79517E007FBB
:1010D300601234A6C202AB27AA28A9291234CC2451
:1010E30056605C24B0700302186E147003021EE590
:1010F300242F6003021F14D202E92407F9E43AFA09
:1011030078B67C057D017E007F061234A69003FD30
:10111300E024F3FFE434FFFEAB27E529240DF9E4D3
:101123003528FAC003C002C001E5292401F9E435DA
:1011330028A801FCAD03D001D002D0031234A6C20B
:1011430003C204C205AB27E5292405F9E43528FACF
:101153007D1C127284AB27AA28A92990000412349B
:10116300E5B50702D204E5292405F9E43528A801E9
:10117300FCAD277B017A0579BE7E007F051237F12E
:10118300EF7002D205AB27AA28A9299000031234D5
:10119300E5FFB43904D205800BEF64146004EFB4A7
:1011A3001902D204300405300402D20320030302DF
:1011B3001F14C204C2057E007F407D007B017A05B7
:1011C30079C3123815753BFF753C02753DD2AB27C9
:1011D300AA28A9299000031234E5753E00F53F7B48
:1011E300017A0579C31244857B017A0579C31272AA
:1011F3004E7E007F607D007B017A0079FB123815FB
:10120300AB27AA28A9299000031234E512363F120E
:10121300B810132A1115091417DD1517DD16135D00
:1012230017137418138C1914B81A14D01B15031F31
:1012330014FE22124C3916C541173942176743175A
:10124300B14417DD50000017DB3031030217DD1204
:101253007538302902C22990065AE0900106F0A39E
:101263007407F0E518900109F0A3E519F0AB27AA7C
:1012730028A92990000C1234E590060DF090000D7A
:101283001234E590060EF07B017A06790D7538006D
:101293007539017F037E00126DB27B017A06790EE8
:1012A3007538007539017F047E00126DB27F0A1212
:1012B30074E6021356E4900106F0AB27AA28A92985
:1012C30090000B1234E5FF5407900106F0EF540130
:1012D300FF90065AE0FE54016F6009900106E04456
:1012E30020F0802D90000B1234E5FC5402FDEE54E7
:1012F300026D6009900106E04440F08014EC540450
:10130300FF90065AE054046F6007900106E04480A2
:10131300F0AB27AA28A92990000B1234E5900657B1
:10132300F0A37402F0802C90065AE0540790010653
:10133300F0E4A3F0303106E04401F08007900107A8
:10134300E054FEF0900107E0302C054402F08003E6
:1013530054FDF0D204C2050217DD752D01D2317B95
:10136300007A00792D7538007539017F057E00807C
:1013730012E4F52DC231FB7A00792DF53875390168
:101383007F05FE126DB20217DDAB27AA28A92990AB
:10139300000D1234E5246060191470030214441420
:1013A300700302146914700302147224A36003020D
:1013B30014A3E4F52D7B017A017909F55475550CD5
:1013C3007F10FE127216E4F52D74017E00A82D081D
:1013D3008005C333CE33CED8F9FF7890E6FDEF5DB9
:1013E3006013E52D75F003A42409F582E43401F5B7
:1013F30083E05480F0052DE52DB404CDD2057E00A5
:101403007F407D007B017A0579C3123815753BFF58
:10141300753C02753DE390010FE0753E00F53FA377
:10142300E0754000F541A3E0754200F5437B017A86
:101433000579C31244857B017A0579C312724E8004
:101443005F788EE6FE08E6FF4E7002800C7C007D1E
:101453003C123558C37897E69F900109F07896E6D9
:1014630090010AF0803A788DE6900109F080317B93
:10147300017A0179097554007555067F327E001291
:101483007216900107E03031054401F0800354FEE9
:10149300F0900107E0302C054402F0800354FDF086
:1014A300AB27AA28A92990000D1234E5900108F072
:1014B300D2040217DDE4F52DFB7A00792DF554757E
:1014C30055017F32FE127216532D808016E4F52DDE
:1014D300FB7A00792DF5547555017F32FE12721691
:1014E300432D7F7B007A00792D7538007539017F94
:1014F300327E00126DB2D2040217DDD2040217DD70
:101503001264F10217DDE4F52DAB27AA28A929906F
:10151300000D1234E5245F700302162014700302D9
:1015230016541470030216A5240360030216C0E4C4
:10153300F52DAB27AA28A92975F003E52DA4240EC0
:10154300F582E435F0F5831234E564807046AF2DFF
:1015530004A807088002C333D8FC789046F6AB276B
:1015630075F003E52DA4240EF582E435F0F583E54B
:10157300292582F9E5283583FA1234CCFF90060732
:10158300E014FE7401A806088002C333D8FC4F128E
:1015930035128012AF2D7401A807088002C333D817
:1015A300FCF4789056F6052DE52D64047084AB2782
:1015B300E529240EF9E43528FA75380075390C7FCE
:1015C300107E00126DB21275E87E007F407D007BB5
:1015D300017A0579C3123815753BFF753C03753DD8
:1015E30011AB27AA28A9299000141234E5753E00EF
:1015F300F53F9000151234E5754000F54190001653
:101603001234E5754200F5437B017A0579C3124430
:10161300857B017A0579C312724E0216C0AB27AAE5
:1016230028A92990000E1234E5FF78956014E6444A
:1016330002F67897A60790000F1234E57896F6E441
:101643008008E654FDF6E47897F6788EF608F6807F
:101653006CAB27AA28A92990000E1234E5FF7895D0
:10166300600BE64401F6788DA607E48008E654FE95
:10167300F6E4788DF67891F608F67B007A00799592
:101683007538007539017F307E00126DB27B007AA8
:1016930000798D7538007539017F317E00126DB286
:1016A300801BAB27E529240EF9E43528FA753800A9
:1016B3007539067F327E00126DB21275F1D20402C3
:1016C30017DDE4F52DAB27AA28A92990000C1234C5
:1016D300E5F52EE4F52DAF2DE52EA807088002C30E
:1016E30013D8FC30E042E52DFD7C002406FFEC33EB
:1016F300FEED240EFDEC33FCAB27E5292DF9E5289F
:101703003CFA753800753901126DB2740E252DF54A
:1017130082E433F583AB27AA28A9291234E5FF74A1
:101723001A252DF8A607D220052DE52DC3940340D5
:10173300A5D2040217DDE4F52DF52DE52D2406FFD2
:10174300E433FE7409252DF9E43401FA7B01755461
:1017530000755501127216052DE52DC3940340DB68
:10176300D2048076AB27E529240EF9E43528FA75EF
:1017730038007539017F407E00126DB2AB27E52931
:10178300240FF9E43528FA7538007539017F417E55
:1017930000126DB2AB27AA28A92990000E1234E5D6
:1017A300F56F90000F1234E5F56DD204802C7B01A8
:1017B3007A0179097554007555017F407E001272D4
:1017C300167B017A01790A7554007555017F417EB4
:1017D30000127216D2048002C204200403021F14F2
:1017E300E4F52DC204A20292067533017534007527
:1017F30035FB75362175370AAB27AA28A92990002E
:10180300031234E5F538A205920712574D8F2D9038
:10181300026AE004F09002F1E52AF0A3E52BF090D0
:1018230002F0E52CF07E007F807D007B017A027957
:101833006F123815AF2D7E00786F7C027D017B011E
:101843007A0079FB1234A69002EFE52DF0E49003C1
:10185300A8F09003ADE04401F0E0540144FAFF9096
:1018630003ACE4F0A3EFF0750D042278CA7C007D8D
:10187300017BFF7A0F79B77E007F311234A6C20352
:10188300C204AB27E5292401F9E43528FAC002C0D4
:1018930001AA28A9299000011234E524FEFDD001F4
:1018A300D002127284AB27AA28A92990000112340E
:1018B300E57C0024FFF582EC34FFF5831234E5B5B3
:1018C3000702D203E5292402F9E43528A801FCAD77
:1018D300277B017A0579BE7E007F051237F1EF7011
:1018E30002D204200303021F14200403021F14ABBB
:1018F30027E529240FF9E43528FA78CA7C007D010D
:101903007E007F311234A6AB27AA28A929900008AC
:101913001234E5245E7003021EB2046003021F1436
:1019230078B17C0F7DFF7B017A0079CA7E007F0648
:101933001237F1EF7003021E6E90026A7414F0788E
:10194300B07C037D017B017A0079CA7E007F061299
:1019530034A69000CAE030E06290065AE05407FFD4
:101963009000D0E054076F6052E05407900657F0A0
:10197300A37402F090065BE04401F07E007F407D9B
:10198300007B017A0579C3123815753BFF753C035B
:10199300753D4490065AE0753E005407F53F9000AC
:1019A300D0E05407754000F5417B017A0579C312F5
:1019B30044857B017A0579C312724E9000CAE030E8
:1019C300E2629000ECE07895604DE64402F6E07840
:1019D30097F6A3E07896F6E4788EF608F6FE7F4055
:1019E300FD7B017A0579C3123815753BFF753C03FE
:1019F300753D777897E6753E00F53F7896E6754036
:101A030000F5417B017A0579C31244857B017A0590
:101A130079C312724E800DE654FEF6E47897F67899
:101A23008EF608F69000CAE030E72CD21A7E007FCB
:101A3300407D007B017A0579C3123815753BFF752C
:101A43003C03753DA57B017A0579C31244857B016F
:101A53007A0579C312724E9000CAE030E15FE4F573
:101A63002DFE7F40FD7B017A0579C3123815753B46
:101A7300FF753C03753DC89000D1E0FFC3135401CB
:101A8300753E00F53F7B017A0579C31244857B01DE
:101A93007A0579C312724E9000D1E030E107752DBB
:101AA30001D2318005E4F52DC2317B007A00792D16
:101AB3007538007539017F057E00126DB29000CA3A
:101AC300E020E403021B91E4F52DFE7F40FD7B0142
:101AD3007A0579C3123815753BFF753C03753DF7DD
:101AE3009000D4E0753E00F53FA3E0754000F5415A
:101AF300A3E0754200F5437B017A0579C31244855F
:101B03007B017A0579C312724EE4F52DE52D75F04C
:101B130003A424D4F582E43400F583E06480703EAA
:101B2300AF2D04A807088002C333D8FC789046F68B
:101B3300E52D75F003A424D4F582E43400F583C0C5
:101B430083C082E0FF900607E014FE7401A8060834
:101B53008002C333D8FC4FD082D083F08012AF2DE4
:101B63007401A807088002C333D8FCF4789056F6B2
:101B7300052DE52D640870947B017A0079D47538BE
:101B8300007539187F107E00126DB21275E890004F
:101B9300CAE030E3727E007F407D007B017A0579E5
:101BA300C3123815753BFF753C04753D329000EE4A
:101BB300E0753E00F53F7B017A0579C31244857BCE
:101BC300017A0579C312724E9000EEE078956006B3
:101BD300E64401F68004E654FEF69000EEE0788DCC
:101BE300F67B007A0079957538007539017F307E70
:101BF30000126DB27B007A00798D7538007539015A
:101C03007F317E00126DB29000CAE020E503021C12
:101C1300ED782D7C007D007BFF7A0F79E87E007FD5
:101C2300061234A67E007F407D007B017A0579C3CE
:101C3300123815753BFF753C04753D629000EFE06B
:101C4300753E00F53FA3E0754000F541A3E0754202
:101C530000F5437B017A0579C31244857B017A053C
:101C630079C312724E7E007F407D007B017A057935
:101C7300C3123815753BFF753C04753D9E9000F209
:101C8300E0753E00F53FA3E0754000F541A3E07524
:101C93004200F5437B017A0579C31244857B017ABF
:101CA3000579C312724E9000EFE06005432D7F80EB
:101CB30003532D809000F0E06005432D8080035393
:101CC3002D7F9000F1E0F52EA3E0F52FA3E0F53191
:101CD300A3E0F5327B007A00792D7538007539065B
:101CE3007F327E00126DB21275F19000CAE030E6C9
:101CF300577E007F407D007B017A0579C31238153A
:101D0300753BFF753C04753DB19000F5E0753E00F1
:101D1300F53FA3E0754000F5417B017A0579C312D5
:101D230044857B017A0579C312724E9000F5E0F584
:101D33006FA3E0F56D7B017A0079F575380075398D
:101D4300027F407E00126DB29000CBE030E0517E06
:101D5300007F407D007B017A0579C3123815753BFE
:101D6300FF753C04753DF09000D1E0FFC4135401AE
:101D7300753E00F53F7B017A0579C31244857B01EB
:101D83007A0579C312724E9000D1E0FFC413540751
:101D9300139228302807E490063CF080031275382C
:101DA3009000CBE0C31354077003021F14E49000A8
:101DB300C9F0FE7F40FD7B017A0579C312381575A2
:101DC3003BFF753C05753D289000CBE0FFC31354E2
:101DD30007753E00F53F9000F8E0754000F541A31C
:101DE300E0754200F543A3E0754400F5457B017AB5
:101DF3000579C31244857B017A0579C312724EE4D7
:101E03009000C9F09000C9E0FFC39403505A7401D5
:101E13007E00A807088005C333CE33CED8F9FF90E0
:101E230000CBE0C3135407FDEF5D60349000C9E0BD
:101E3300FD2406FFE433FE74F82DF9E43400FA7B45
:101E430001753800753901126DB29000C9E0FF24A5
:101E5300F8F582E43400F583E0FE741A2FF8A60641
:101E63009000C9E004F0809CD220227E007F067D92
:101E7300007B017A0379B0123815201A03021F146C
:101E83007E007F407D007B017A0579C3123815758A
:101E93003BFF753C05753D7C7B017A0579C3124494
:101EA300857B017A0579C312724EC21A0264F178F6
:101EB300647C027D017B017A0079CA7E007F061271
:101EC30037F1EF60047510A2229004837414F07E3E
:101ED300007F067D007B017A027964123815751044
:101EE300A1227F061274E67E007F407D007B017A8B
:101EF3000579C3123815753BFF753C05753DA17B0C
:101F0300017A0579C31244857B017A0579C312727C
:101F13004E2278097C007D017BFF7A0F79F27E00E7
:101F23007F601234A678697C007D017BFF7A10798B
:101F3300527E007F601234A690060CE07006740A8D
:101F4300F0125BD6E50D24FE70030228991470038A
:101F53000228A01470030228A81470030228AB14EB
:101F630070030228B1240560030228C09003AEE089
:101F7300FF30E0030228C7301B46C21BC2047F0C9C
:101F83007E647DFE7C221252BF126EC68E188F199C
:101F93007E007F407D007B017A0579C31238157579
:101FA3003BFF753C05753DBC85183E85193F7B019C
:101FB3007A0579C31244857B017A0579C312724E7F
:101FC300E56EB406031275389003BBE07003756CBD
:101FD300019003D9E0547FFF9003CAE0547F2FFFA1
:101FE300E433FE9003E8E0547F7C002FFFEC3EFED9
:101FF300787FF608EFF64E700302217C90026BE0C7
:102003007002A3E0600302217C787FE6FE08E6FF0E
:102013007C007D03123558787DA60408A605ED4C97
:102023007049FE7F40FD7B017A0579C3123815752F
:102033003BFF753C05753DD79003CAE0547F753E61
:1020430000F53F9003D9E0547F754000F5419003BC
:10205300E8E0547F754200F5437B017A0579C312AA
:1020630044857B017A0579C312724E787DE6FE08BA
:10207300E69003CA75F00F123633EE75F00FA42500
:1020830083F583E0FB547F701D06E6187001067824
:102093007DE6FE08E6FF7C007D03123558787DA6B9
:1020A3000408A60580C5787DE6FE08E6FF9003CA0E
:1020B30075F00F123633EE75F00FA42583F583EB1D
:1020C3005480FDEB14547F4DF09003CA75F00FEF6D
:1020D300123633EE75F00FA42583F583E0547FFFAA
:1020E30018E6FC08E6FD9003BD75F00F123633ECDD
:1020F30075F00FA42583F583EFF09003C875F00FF7
:10210300ED123633EC75F00FA42583F583E0FEA3BF
:10211300E0FFC006C0079003C775F00FED1236331A
:10212300EC75F00FA42583F583E0FDC00518E6FEEA
:1021330008E6FF7C007D0F12354674BC2FF974034B
:102143003EFA7B01787DE6FE08E69003C675F00F44
:10215300123633EE75F00FA42583F583E0F531D005
:1021630005D007D00612709D9010B2E493FF74015E
:102173009390026BCFF0A3EFF0201F03022505908D
:1021830003B6E06003022505900007F0C21FB21CEE
:10219300FE7F60FD7B017A00790912381590065A9B
:1021A300E05407FF9002FCE054F84FF090065BE028
:1021B30030E02954FEF09002FCE0541FFFF0E0FEF3
:1021C30090065CE0FDEEC4135407FEEF541FFFEDD1
:1021D3004E5407C43354E04F9002FCF0A22DE43375
:1021E3005401FF9002FDE054FE4FFFF0A231E433AF
:1021F300540125E0FEEF54FD4EFFF07895E6FE54C2
:1022030002C313540125E025E0FDEF54FB4DFFF01D
:10221300EE540133333354F8FEEF54F74EFFF0A27C
:102223002CE4335401C454F0FEEF54EF4EFFF0A2FC
:1022330028E4335401C43354E0FEEF54DF4EF0E49A
:10224300900000F07B017A037900F5547555187FEF
:1022530010FE127216E4900000F0900000E0FFC33D
:102263009408503574017E00A807088005C333CE57
:1022730033CED8F9FF7890E6FDEF5D60149000004F
:10228300E075F003A42400F582E43403F58374803D
:10229300F0900000E004F080C1788EE6FE08E6FFCF
:1022A3007C007D3C123558C37897E69F900318F065
:1022B3007896E6A3F0788DE6A3F078017C007D01A3
:1022C3007BFF7A1079B47E007F061234A67B017AF5
:1022D300007901125DCF900001E0FF547FFEBE7FC5
:1022E3000890031B7401F08005E490031BF0EFC416
:1022F300131313540130E00890031C7401F080059C
:10230300E490031CF0900002E0131313541F900396
:102313001DF0900003E090031EF0900005E01313FE
:1023230013541F90031FF0900006E0900320F07BEE
:10233300017A0379217554007555027F407E00129E
:102343007216E4900323F07B017A037924F5547524
:1023530055037F06FE127216E510245E60110470A9
:102363002178F67C027D017B017A0379B0800C78B9
:10237300F67C027D017B017A0279647E007F06127E
:1023830034A6E4900007F0E0FF04F074092FF5820F
:10239300E43400F58374FAF0900007E0FF04F0746E
:1023A300092FF582E43400F583E4F0900007E0247C
:1023B30009F9E43400A801FC7D017B017A0579BEAB
:1023C3007E007F051234A6900007E02406F0E0FFAC
:1023D30004F074092FF582E43400F583E510F090DE
:1023E3000007E0FF04F074092FF582E43400F5835D
:1023F300E51EF0E518FF900007E0FE04F074092ED7
:10240300F582E43400F583EFF0900007E0FE04F07A
:1024130074092EF582E43400F583E519F090000782
:10242300E0FF04F074092FF582E43400F5837407A8
:10243300F090060DE0FF900007E0FE04F074092E13
:10244300F582E43400F583EFF090060EE0FF900090
:1024530007E0FE04F074092EF582E43400F583EFFF
:10246300F0900007E02409F9E43400A801FC7D01A1
:102473007B017A0279F67E007F311234A690000741
:10248300E02431F0E004F0E090000AF07B017A00F0
:10249300790A24FEFD127284900007E02408F58275
:1024A300E43400F583EFF0E49002F1F0A3F090023E
:1024B300F0740DF07E007F807D007B017A02796FDE
:1024C300123815900007E0FF7E00786F7C027D01D3
:1024D3007B017A0079091234A6900007E09002EF9D
:1024E300F0E49003A8F09003ADE04401F0E0540160
:1024F300FFEF44F4FF9003AC7401F0A3EFF0750D0C
:10250300042290065BE0FF30E03AD200C201E4907F
:102513000008F0EF54FE90065BF0A3E054E0C41310
:102523005407C43354E0FF9002FCE0541F4FF09073
:102533000264E04401F07510A29004837402F090E9
:10254300026AF022900659E07003022697E50D64B3
:102553000160030226977881F67881E6FFC394032E
:10256300400302269774017E00A807088005C33341
:10257300CE33CED8F9FF900659E0FDFBEF5B700335
:102583000226917881E6FC7401A804088002C33313
:10259300D8FCF45D900659F090065AE0FFA80408B1
:1025A3008002C313D8FC5401900009F07881E6241B
:1025B3001AF8E6FFD394105003022691EF94FF40DC
:1025C30003022691E0FF7881600FE62460F582E440
:1025D3003402F583740AF0800DE62460F582E43456
:1025E30002F583740BF07881E6FE24F3F582E4347C
:1025F30002F583EFF09003B77403F0EE75F00FA4C8
:1026030024C8F582E43403F58374FFF0A3F0741A4D
:102613002EF8E6FFEE75F00FA424C7F582E4340329
:10262300F583EFF090000A7D007881E675F00FA442
:1026330024BCF9740335F0FA7B01AE83AF82123800
:1026430015900009E0FF7881E6FE75F00FA424BC25
:10265300F582E43403F583EFF0EE75F00FA424BDA7
:10266300F582E43403F583E4F0EE75F00FA424C699
:10267300F582E43403F5837402F0EE75F00FA424BD
:10268300CAF582E43403F583E05480441EF0788174
:102693000602255C2022030228CEC2229003E9E031
:1026A30064FE600302287478EB7C037D017BFF7A70
:1026B3000F79EEFE7F021237F1EF60030228749068
:1026C30003F1E0FDA3E0FEEDFF7884EEF6FE08EFF4
:1026D300F6A3E008F6A3E008F6EF4E700F9003BBF5
:1026E300741EF0E56C64046003E4F56C7E007F60A7
:1026F3007D007B017A0079691238159003FDE0FFB4
:102703007E0078697C007D017B017A0379FE1234B7
:10271300A67886E6FFD39410500302283AEF94FF7D
:10272300400302283A90065AE07882F6E408F690CD
:1027330003B77403F07E007F407D007B017A057947
:10274300C3123815753BFF753C05753DFA7886E66F
:10275300753E00F53F900069E0754000F541A3E048
:10276300754200F5437B017A0579C31244857B01E9
:102773007A0579C312724EE47883F67883E6FFC351
:1027830094034003022832741A2FF8E6FF78866612
:10279300600302282CEF700302282C7883E6FF7570
:1027A300F00FA424CAF582E43403F583E0547FFEDA
:1027B30090006AE0D39E40777401A807088002C3A3
:1027C30033D8FCF4788256FEF6900069E0FDA80742
:1027D300088002C333D8FC4E900657F0A37402F06E
:1027E300ED7883600FE62460F582E43402F58374A8
:1027F3000AF0800DE62460F582E43402F583740B5D
:10280300F07883E6FF75F00FA424CAF582E434035D
:10281300F583E05480F0900069E0FE74F32FF582B5
:10282300E43402F583EEF0800678830602277E9077
:10283300065BE04401F0227886E624F3601314601B
:1028430027240260030228CE7B017A007969026C97
:10285300ED7884E6FC08E6FD4C70707B017A007924
:102863006908E6F52C0210BA7B017A007969024DFA
:10287300BA9003E9E064FE705278EB7C037D017B40
:10288300FF7A0F79F0FE7F021237F1EF703D90036C
:10289300EDE0FF0274D1756C03D2028005756C0202
:1028A300C202023CB0024AAC756C05025ACA756C8E
:1028B300019003B8E070143021110264F19003AE6B
:1028C300E030E00754FEF0A3E0F50D22C0E0C0F0D5
:1028D300C083C082C0D075D000C000C001C002C098
:1028E30003C004C005C006C007D39076807401936B
:1028F3009515E4939514400B0515E5157002051421
:1029030002298A7514007515000516E51E644070CA
:102913006790065FE0604A14602414705B90065E63
:10292300E0FF90065DE0C39F5030907682E493FF12
:10293300E516C39F404290065DE004F0803A90069E
:102943005DE0D394004013907682E493FFE5169FF5
:10295300402690065DE014F0801E90065FE4F08050
:102963001790065AE06402600F9006577402F0A3B2
:10297300F090065BE04401F0907682E493FFE51665
:10298300C39F400375160090767FE493FFE513C35E
:102993009F50050513022A2975130090026DE070FC
:1029A30002A3E0600E90026EE024FFF090026DE05F
:1029B30034FFF030170A057CE57C700A057B80063E
:1029C300757B00757C00900665E07002A3E0600EE5
:1029D300900666E024FFF0900665E034FFF0900671
:1029E30062E07002A3E0600E900663E024FFF090C3
:1029F3000662E034FFF0900630E07002A3E0600E60
:102A0300900631E024FFF0900630E034FFF09002AE
:102A13006BE07002A3E0600E90026CE024FFF09084
:102A2300026BE034FFF0D390767D7401939512E44A
:102A3300939511400B0512E51270020511022B7CD0
:102A4300751100751200201F19900483E0FF900296
:102A53006AE0C39F5005E004F0800790026AE4F047
:102A6300D21F7895E6FB30E1597897E6FF7E007C2C
:102A7300007D3C123546C3788FE69F18E69E5009C9
:102A83000806E618703C068039788E7600087600D2
:102A930078977600EB54FD7895F69006587402F01B
:102AA3007896E6900657F090065BE04401F09002BA
:102AB30064E04404F0900667E04401F090066A7411
:102AC30002F07895E630E04690065AE06040788D53
:102AD300E6FF7E007C007D3C123546C37892E69F7C
:102AE30018E69E50090806E61870230680207891A0
:102AF30076000876009006587402F0900657E4F0CA
:102B030090065BE04401F0900264E04408F0900317
:102B1300B6E0600214F0900263E0600214F078946F
:102B230006E61870010690063CE0600530290214A1
:102B3300F090060CE0600214F0900635E060021499
:102B4300F09003BAE0600214F09003B7E06002145F
:102B5300F090066BE0600214F0900643E06002140C
:102B6300F09003B8E0600214F090062EE0600214C7
:102B7300F09003BBE0600214F0301E6AE50EC394CC
:102B83000A5004050E805F20225AE50FC3940540C6
:102B930053D2227E007F997DFF7B017A0379E9126C
:102BA300381578E97C037D017B017A0479847E0002
:102BB3007F991234A6900482E50FF09003EAE02493
:102BC30005FFE433FEE50F6F7001EE6017900667B3
:102BD300E04401F0900485E0900668F0A3E50FF06F
:102BE300A37401F0C21E900655E0FFA3E0C39F50FB
:102BF30006E004F0022CB0900656E4F090062FE0B5
:102C030024FE604D147003022C9D24026003022CE9
:102C1300AE90063DE05407900655F0FD90063EE069
:102C230075F014A4FFAEF07C00123558900644EE04
:102C3300F0A3EFF090063FE0541F25E0900648F024
:102C4300900646E4F0A3F0D23090062F7402F08091
:102C53005C900648E0603B900644E0FEA3E0FFC3BF
:102C6300900647E09F900646E09E5017A3E004F0CD
:102C73007006900646E004F0303004B2B2802ED2E3
:102C8300B2802A900646E4F0A3F0B230A3E014F039
:102C9300801B90062F7403F08013900646E4F0A384
:102CA300F0D230D2B290062FF08002D2B290768367
:102CB300E493FFE517D39F5003022D797517009016
:102CC3000632E0541FFF900649E054E04FF09006AF
:102CD30033E0541FFF90064AE054E04FF09006346F
:102CE300E0541FFF90064BE054E04FF0900636E0AF
:102CF300541FFF90064CE054E04FF0900637E05429
:102D03001FFF90064DE054E04FF0900638E0541F4B
:102D1300FF90064EE054E04FF0900639E0541FFF59
:102D230090064FE054E04FF090063AE0541FFF90B6
:102D33000650E054E04FF090063BE0541FFF90062E
:102D430051E054E04FF0900640E0541FFF900652CC
:102D5300E054E04FF0900641E0541FFF900653E02B
:102D630054E04FF0900642E0541FFF900654E054A5
:102D7300E04FF0022F090517E517D3940050030223
:102D83002E03E517D394205077900649E0FF541F94
:102D93006013E51D30E00EEF54E0FEEF14541F4EB8
:102DA300F0C2A08002D2A090064CE0FF541F601333
:102DB300E51D30E10EEF54E0FEEF14541F4EF0C258
:102DC300A68002D2A690064FE0FF541F6013E51DB4
:102DD30030E20EEF54E0FEEF14541F4EF0C2818038
:102DE30002D281900652E0FF541F600FEF54E0FEC1
:102DF300EF14541F4EF0C2CD022F09D2CD022F097A
:102E0300E517D39420407EE517D39440507790067E
:102E13004AE0FF541F6013E51D30E00EEF54E0FE5F
:102E2300EF14541F4EF0C2A18002D2A190064DE0D0
:102E3300FF541F6013E51D30E10EEF54E0FEEF1465
:102E4300541F4EF0C2A58002D2A5900650E0FF5455
:102E53001F6013E51D30E20EEF54E0FEEF14541F24
:102E63004EF0C2808002D280900653E0FF541F6070
:102E73000FEF54E0FEEF14541F4EF0C2CC022F09A3
:102E8300D2CC022F09E517D39440407AE517D394A7
:102E930060507390064BE0FF541F6013E51D30E054
:102EA3000EEF54E0FEEF14541F4EF0C2A28002D284
:102EB300A290064EE0FF541F6013E51D30E10EEFB4
:102EC30054E0FEEF14541F4EF0C2A48002D2A4902B
:102ED3000651E0FF541F6013E51D30E20EEF54E08E
:102EE300FEEF14541F4EF0C2A78002D2A7900654DF
:102EF300E0FF541F600EEF54E0FEEF14541F4EF03A
:102F0300C2838002D283D007D006D005D004D00379
:102F1300D002D001D000D0D0D082D083D0F0D0E086
:102F23003202110000011300021400000116000117
:102F3300170043064900000043064C000000430607
:102F43004F000000430652000000410655034106AE
:102F5300560042064401F442064600004106480872
:102F6300C1B0011E40011D01031A00000002180038
:102F730000604005C30000000000000000000000E6
:102F8300000000000000000000000000000000003E
:102F9300000000000000000000000000000000002E
:102FA300000000000000000000000000000000001E
:102FB30000000000004605BD0000000000004605BB
:102FC300B60101010101014105BC00C131430632D3
:102FD30000000043063600000043063900000043AA
:102FE3000640000000016F08016D05C1A8016E00D5
:102FF300016C00420630000041063C3CC1294106F9
:1030030035004106430041062E0043063D00000003
:1030130041062F0002560000C12341062D0001582E
:103023001FC1A4015900015A00C1A5015B00015C45
:1030330000015D00015E00015F00016000C1A601A7
:103043006100016200016300016400016500C127A2
:10305300016600016700016800016900016A00015F
:103063006B00440667000000006084026F000000EC
:10307300000000000000000000000000000000004D
:10308300000000000000000000000000000000003D
:10309300000000000000000000000000000000002D
:1030A300000000000000000000000000000000001D
:1030B300000000000000000000000000000000000D
:1030C30000000000000000000000000000000000FD
:1030D30000000000000000000000000000000000ED
:1030E30000000000000000000000000000000000DD
:1030F30000602D03BC000000000000000000000081
:1031030000000000000000000000000000000000BC
:1031130000000000000000000000000000000000AC
:10312300000042026B0000608403280000000000DE
:10313300000000000000000000000000000000008C
:10314300000000000000000000000000000000007C
:10315300000000000000000000000000000000006C
:10316300000000000000000000000000000000005C
:10317300000000000000000000000000000000004C
:10318300000000000000000000000000000000003C
:10319300000000000000000000000000000000002C
:1031A30000000000000000000000000000000042DA
:1031B30003AC0000603102F60000000000000000D4
:1031C30000000000000000000000000000000000FC
:1031D30000000000000000000000000000000000EC
:1031E3000000000000000000004603B000000000E3
:1031F30000004602640000000000000110A1420329
:10320300AE0000C120C11D42026D00004203B9009F
:1032130000C11F41026A00410483144103B6004107
:1032230003B7034302600000004302F300000041C0
:1032330003270041026300C122C11E010E00010FDA
:1032430000609A03E9000000000000000000000095
:10325300000000000000000000000000000000006B
:10326300000000000000000000000000000000005B
:10327300000000000000000000000000000000004B
:10328300000000000000000000000000000000003B
:10329300000000000000000000000000000000002B
:1032A300000000000000000000000000000000001B
:1032B300000000000000000000000000000000000B
:1032C30000000000000000000000000000000000FB
:1032D30000000000000000000000000000000001EA
:1032E3000D004103BB1E4103B800C12141025C0034
:1032F30041025D0041025E0041025BFF01080001E3
:103303000900010A0041025F00020B0000C11AC15B
:103313001CC19B011F00C198C117027B000042061C
:10332300650000420662000041066401C11901778D
:1033330000017800C10FC110C1114106610001797C
:1033430000C112C113C114017A0041066002410693
:103353005A0043065D000300420657000341065925
:1033630000C12E42065B0000C12F47060500000086
:103373000000000041060C0A41060D0841060E003C
:1033830002930000019000C12DC12C019500028E13
:10339300000001970001960002910000018D005882
:1033A30006150000000000000000000000000000FF
:1033B3000000000000000000000046060F000000AF
:1033C300000000028B00004206030000C12A4106F0
:1033D3006B0000E709F608DFFA8046E709F208DF29
:1033E300FA803E88828C83E709F0A3DFFA8032E318
:1033F30009F608DFFA8078E309F208DFFA807088BB
:10340300828C83E309F0A3DFFA806489828A83E0F4
:10341300A3F608DFFA805889828A83E0A3F208DFE3
:10342300FA804C80D280FA80C680D4806980F28092
:1034330033801080A680EA809A80A880DA80E280B8
:10344300CA803389828A83ECFAE493A3C8C582C80D
:10345300CCC583CCF0A3C8C582C8CCC583CCDFE977
:10346300DEE7800D89828A83E493A3F608DFF9EC13
:10347300FAA9F0EDFB2289828A83ECFAE0A3C8C59E
:1034830082C8CCC583CCF0A3C8C582C8CCC583CCC5
:10349300DFEADEE880DB89828A83E493A3F208DF34
:1034A300F980CC88F0EF60010E4E60C388F0ED2404
:1034B30002B4040050B9F582EB2402B4040050AF07
:1034C300232345822390342673BB010689828A8392
:1034D300E0225002E722BBFE02E32289828A83E4D0
:1034E3009322BB010CE58229F582E5833AF583E05B
:1034F300225006E92582F8E622BBFE06E92582F87A
:10350300E222E58229F582E5833AF583E49322BB3F
:10351300010689828A83F0225002F722BBFE01F35F
:1035230022F8BB010DE58229F582E5833AF583E8AC
:10353300F0225006E92582C8F622BBFE05E9258262
:10354300C8F222EF8DF0A4A8F0CF8CF0A428CE8D82
:10355300F0A42EFE22BC000BBE0029EF8DF084FFE9
:10356300ADF022E4CCF875F008EF2FFFEE33FEEC5C
:1035730033FCEE9DEC984005FCEE9DFE0FD5F0E983
:10358300E4CEFD22EDF8F5F0EE8420D21CFEADF082
:1035930075F008EF2FFFED33FD4007985006D5F087
:1035A300F222C398FD0FD5F0EA22E88FF0A4CC8B6A
:1035B300F0A42CFCE98EF0A42CFC8AF0EDA42CFCE6
:1035C300EA8EF0A4CDA8F08BF0A42DCC3825F0FD25
:1035D300E98FF0A42CCD35F0FCEB8EF0A4FEA9F01E
:1035E300EB8FF0A4CFC5F02ECD39FEE43CFCEAA46A
:1035F3002DCE35F0FDE43CFC22EB9FF5F0EA9E4234
:10360300F0E99D42F0E89C45F022E8600FECC3131B
:10361300FCED13FDEE13FEEF13FFD8F122E8600F6C
:10362300EFC333FFEE33FEED33FDEC33FCD8F12271
:10363300A42582F582E5F03583F58322D083D082F9
:10364300F8E4937012740193700DA3A393F87401BB
:1036530093F5828883E4737402936860EFA3A3A352
:1036630080DF8A838982E473E3F5F009E208B5F029
:103673006BDFF58067E3F5F009E608B5F05EDFF58B
:10368300805A87F009E608B5F052DFF6804E87F0DE
:1036930009E208B5F046DFF6804288828C8387F022
:1036A30009E0A3B5F036DFF6803288828C8387F099
:1036B30009E493A3B5F025DFF5802188828C83E3A9
:1036C300F5F009E0A3B5F014DFF5801088828C8350
:1036D300E3F5F009E493A3B5F002DFF402379A802F
:1036E3008780E9809080D4803E8015806E807E80C4
:1036F3009D80B7808D80A380518074803C0237A663
:1037030089828A83ECFAE493F5F0A3C8C582C8CC16
:10371300C583CCE493A3C8C582C8CCC583CCB5F01C
:1037230076DFE3DEE1807089828A83E493F5F0A398
:10373300E208B5F062DFF4805E89828A83E0F5F007
:10374300A3E608B5F051DFF5804D89828A83E0F561
:10375300F0A3E208B5F040DFF5803C89828A83E478
:1037630093F5F0A3E608B5F02EDFF4802A800280FB
:103773005789828A83ECFAE493F5F0A3C8C582C81B
:10378300CCC583CCE0A3C8C582C8CCC583CCB5F077
:1037930006DFE4DEE280007FFFB5F0020F22400285
:1037A3007F012289828A83ECFAE0F5F0A3C8C582FF
:1037B300C8CCC583CCE0A3C8C582C8CCC583CCB56F
:1037C300F0D5DFE5DEE380CF89828A83ECFAE0F58A
:1037D300F0A3C8C582C8CCC583CCE493A3C8C58273
:1037E300C8CCC583CCB5F0AFDFE4DEE280A988F0B6
:1037F300EF60010E4E60ABED2402B404005098F567
:1038030082EB2402B40400508E2323458223903696
:10381300E273EF4E6012EF60010EEDBB010B898284
:103823008A83F0A3DFFCDEFA2289F05007F709DF71
:10383300FCA9F022BBFEFCF309DFFCA9F022FAE6A7
:10384300FB0808E6F925F0F618E6CA3AF622E4F58D
:1038530027905F9F93FE740193FFC3900604E09F3C
:10386300900603E09E500EA3E004F070239006033D
:10387300E004F0801BE4900603F0A3F078287C00BA
:10388300FD7B017A067905FE7F071234A61266C610
:10389300202A3AD22A7B007A00799575540075550F
:1038A300017F307E001272167B007A00798D755489
:1038B300007555017F317E001272167B017A0679FD
:1038C30015125CE07B017A06790F125DCF7893E6DF
:1038D300FA08E6FB7C007D3CFFAE021235589006E9
:1038E3000AEFF07C007D3CAF03AE02123558A3ED26
:1038F300F0C37894E6941018E6940E402DE4789380
:10390300F608F6900609E0C394184004E4F0800634
:10391300900609E004F0900607E0D394074005748D
:1039230001F08006900607E004F090060FE0547F54
:10393300FFBF7F05D22C023A0BC22B900610E01377
:103943001313541FFF7E007C007D3C123546A3E019
:103953002FFFEC3E900000F0A3EFF0900613E0136E
:103963001313541FFF7E00123546A3E02FFFEC3ED6
:10397300900002F0FAA3EFF0FB900609E0FF7E004F
:10398300123546A3E02FFFEC3E900004F0A3EFF0C6
:10399300C3900001E09B900000E09A5004C22B808A
:1039A30002D22B90060FE030E75C202B2D90000015
:1039B300E0FEA3E0FF900004E0FCA3E0FDD39FEC56
:1039C3009E4013900002E0FEA3E0FFD3ED9FEC9E28
:1039D3005004D22C8032C22C802E900000E0FEA333
:1039E300E0FF900004E0FCA3E0FDD39FEC9E500EAB
:1039F300900002E0FEA3E0FFED9FEC9E5004D22C6A
:103A03008006C22C8002C22CE4F527E52775F0035B
:103A1300A42415F582E43406F583E0C41313135488
:103A23000130E004D22D8009C22D0527E527B40813
:103A3300DA202D03023CAFE4F527E52775F003A454
:103A43002415F582E43406F583E0547FFD900607E0
:103A5300E0FF1272AE4003023CA3E52775F003A416
:103A63002415F582E43406F583E0C41313135401DB
:103A730020E003023CA3E52775F003A42416F58296
:103A8300E43406F583E0131313541FFF7E007C0018
:103A93007D3C123546E52775F003A42417F582E42F
:103AA3003406F583E02FFBEC3EFA900609E0FF7E37
:103AB30000123546A3E0F92FFFEC3EFEEF6B7002D8
:103AC300EE6A602C74017E00A827088005C333CEFC
:103AD30033CED8F9FF788BE6FC08E6FDEE5CFAEF0F
:103AE3005D4A600CEFF4FFEEF45C18F6ED5F08F648
:103AF300E52775F003A42416F582E43406F583E084
:103B0300131313541FFF7E007C007D3C123546E5E2
:103B13002775F003A42417F582E43406F583E02F18
:103B2300FBEC3EFA900609E0FF7E00123546E92FD2
:103B3300FFEC3EFEEF6B7002EE6A6003023C0F0483
:103B43007E00A827088005C333CE33CED8F9FFEE15
:103B5300788B56FEEF08564E6003023C0FFE7F4003
:103B6300FD7B017A0579C3123815753BFF753C5F00
:103B7300753D16753E0085273F7B017A0579C31293
:103B830044857B017A0579C312724E74017E00A8C5
:103B930027088005C333CE33CED8F9FF788BE64EA2
:103BA300F608E64FF67890E6F9FDEF5D6031AF2752
:103BB3007401A807088002C333D8FCF4597890F63F
:103BC300E52775F003A42410FFE435F0FE7BFF7AAC
:103BD3005F79A1753800753901126DB21275E890DD
:103BE30006587402F0E52775F003A42416F582E461
:103BF3003406F583E05407900657F090065BE044E3
:103C030001F0900264E04410F0023CA3E52775F054
:103C130003A42416F582E43406F583E01313135446
:103C23001FFF7E007C007D3C123546E52775F003BF
:103C3300A42417F582E43406F583E02FFBEC3EFA67
:103C4300900609E0FF7E00123546A3E02FFFEC3E0D
:103C5300FED3EF9BEE9A404874017E00A8270880AC
:103C630005C333CE33CED8F9FF7890E6FDFBEF5B87
:103C7300602EAF277401A807088002C333D8FCF471
:103C83005D7890F6E52775F003A42410FFE435F082
:103C9300FE7BFF7A5F79A2753800753901126DB228
:103CA3000527E527C394085003023A3D2278C97CCF
:103CB300007D017BFF7A0D798D7E007F401234A653
:103CC3009001097402F0E4F5279003AEE0FF30E0C1
:103CD3001354FEF0A3E0F50DE490025CF0A3F0A30F
:103CE300F0D2A32290025CE0D3940F4045E4F0A30A
:103CF300F0A3F0D2A390060C740AF0750D01756E53
:103D030003126EC68E188F197E007F407D007B01E3
:103D13007A0579C3123815753BFF753C00753DE88C
:103D23007B017A0579C31244857B017A0579C30245
:103D3300724E20020990025CE070037407F0900257
:103D43005CE0FF64076003EF700690060C740AF0F2
:103D530090025BE06F6042A3E090025BF07E007F25
:103D6300407D007B017A0579C3123815753BFF75D9
:103D73003C01753D0E90025BE0753E00F53FA202EB
:103D8300E433754000F5417B017A0579C31244851C
:103D93007B017A0579C312724E90025CE0FF6003E7
:103DA300023E26EF600302407790025DE014601745
:103DB30014603424026003024077C2A390026DE4CE
:103DC300F0A374C802400B90026DE07002A3E060A0
:103DD30003024077D2A390026D7417F0A37470F0BE
:103DE30090025D7402F02290026DE07002A3E07015
:103DF3000490025DF0202203024077C222754AFF3D
:103E0300754B08754C859008C5E493F54D7B017A95
:103E13000379E97D99126A20EA494B7003024077DE
:103E230002406A90025CE0FFD394005003023F2AF1
:103E3300EF94094003023F2AA3E0147003023ED625
:103E430004600302407790025CE0FF900109B4072D
:103E530005740CF080037402F0900109E0FE9002F7
:103E63005EE0D39E4003023FCCEF75F086A4FFAE25
:103E7300F02442F974083E7549FFF54A894B754CA5
:103E83000274442FF974083E754DFFF54E894F9027
:103E9300025CE075F086A42484F582E5F03408F52D
:103EA300831262218F277B017A0079C9AD271273B0
:103EB3007590025CE075F086A424C6F582E5F034C3
:103EC30008F583E493FF74019390026DCFF0A3EFA1
:103ED30002400B90026DE07002A3E0700302401DEC
:103EE300202203024077C22290025CE075F086A490
:103EF3002485F9740835F0754AFFF54B894CE07554
:103F0300F086A424C5F582E5F03408F583E493F53F
:103F13004D7B017A0379E97D99126A20EA494B7056
:103F23000302407702406A90025CE0C394095003A5
:103F330002407778287C007D007BFF7A0D79CD7E67
:103F4300007F101234A6900D3AE493FF7E00782888
:103F53007C007D007BFF7A0C79FA1234A690025C18
:103F6300E0FDC3940C502EE0FF75F003A42469F523
:103F730082E4340DF583E493F528EF75F003A4246C
:103F83006AF582E4340DF583E493FE740193F52B13
:103F9300EEF52C801E740E2DF8E6FFC3941050032B
:103FA300024071EF94FF40030240718F28752B0D7F
:103FB300E4F52C90025DE014605604600302407740
:103FC30090025EE0D394024007E4F090025CF0229A
:103FD3007549FF754A0C754BF8754C02754D0075A4
:103FE3004E00754F28900D3A1262218F277B017A7C
:103FF3000079C9AD27127375900D7CE493FF7401AA
:104003009390026DCFF0A3EFF090025D7401F02264
:1040130090026DE07002A3E0700C90025EE004F089
:10402300E490025DF02230224BC222754AFF754BA9
:104033000D754C3B900D7BE493F54D7B017A037931
:10404300E97D99126A20EA494B701C754AFF754B4A
:104053000D754C7E754D067B017A0379E97D9912C6
:104063006A20EA494B600DE490025DF0A3F09002F0
:104073005CE004F022302C11E56E64036006E56E0B
:1040830064027023756E04801EE56EB4040312751A
:104093003890063CE07010E56EB4030B3028087FBF
:1040A3000F126B99756E02E56E14B408004003029B
:1040B30044259040C375F003A4C58325F0C58373DD
:1040C3000240DB0240DE0240E10240E10243C00263
:1040D30043E70243EF0243EC027442024785900632
:1040E3005AE0FFF527E51EB4390DEF54014227E5E9
:1040F3002725E0F527803FE51EB43A1690065AE0DF
:10410300FF54024227E52725E0F527EF5401422714
:104113008024E51EB43B028005E51EB440089006EA
:104123005AE0F5278010E51E643D6005E51EB43CAA
:104133000512755E8F27E51E24C0705BE52724FCFE
:10414300600F2403702E906EB5126912906EAC80CE
:104153002912690F906EACE493541FFDA3E49354AA
:104163001FFBA3E493541FF52B7F01126926906E66
:10417300B502431612690F906EB5E493541FFDA365
:10418300E493541FFBA3E493541FF52B7F0112699F
:1041930026906EAC024316E51D30E06AE52730E059
:1041A3002CE56F75F003A4249DF582E4346EF5834A
:1041B300E493541FFDE56F75F003A4249EF582E498
:1041C300346EF583E493541FFBE56F802AE56D7528
:1041D300F003A4249DF582E4346EF583E493541F25
:1041E300FDE56D75F003A4249EF582E4346EF5833A
:1041F300E493541FFBE56D75F003A4249FF582E45B
:10420300346EF583800F906E9AE493541FFDA3E4FC
:1042130093541FFBA312691EE51D30E16AE52730A5
:10422300E12CE56F75F003A4249DF582E4346EF56B
:1042330083E493541FFDE56F75F003A4249EF58278
:10424300E4346EF583E493541FFBE56F802AE56D38
:1042530075F003A4249DF582E4346EF583E493544E
:104263001FFDE56D75F003A4249EF582E4346EF51D
:1042730083E493541FFBE56D75F003A4249FF5823B
:10428300E4346EF583800F906E9AE493541FFDA37C
:10429300E493541FFBA3E493541FF52B7F0112698E
:1042A30026E51D30E26AE52730E22CE56F75F00361
:1042B300A4249DF582E4346EF583E493541FFDE555
:1042C3006F75F003A4249EF582E4346EF583E493C2
:1042D300541FFBE56F802AE56D75F003A4249DF55B
:1042E30082E4346EF583E493541FFDE56D75F003AA
:1042F300A4249EF582E4346EF583E493541FFBE516
:104303006D75F003A4249FF582E4346EF583800F6A
:10431300906E9AE493541FFDA3E493541FFBA3E40C
:1043230093541FF52B7F02126926E56CB4040890A1
:104333000635E07002F56CD3906EBB74019395570C
:10434300E493955640090557E5577002055622B286
:1043530023E4F556F557E56C14602714602C1460BC
:104363003214600E14603E2405704EE4F52B7B1E60
:10437300800DE4302306F52B7B1E8003F52BFBFD1C
:104383008021E4F52BFB7D1E8019E4F52B7B0A7D50
:104393001E8021E4302308F52B7B0A7D1E8004F563
:1043A3002BFBFD800FE4302307F52BFB7D1E8004E0
:1043B300F52BFBFD7F03026926E4F56C229006359D
:1043C300E060047F01801F1275387E007F407D000E
:1043D3007B017A0579C3123815753BFF753C6E7501
:1043E3003D73802CE4FF02506F026451900643E05A
:1043F3006003026F691275387E007F407D007B0188
:104403007A0579C3123815753BFF753C6E753D838C
:104413007B017A0579C31244857B017A0579C3024E
:10442300724E756E0322E547243BF8E60547227872
:1044330038300D02783BE475F0011238410234CC78
:104443002006EB7F2ED2068018EF540F2490D4342D
:1044530040D4FF300A0BEF24BFB41A005003246189
:10446300FFE54860021548054BE54B7002054A30ED
:104473000D0D7838E475F001123841EF0235120260
:1044830073287403D20D8003E4C20DF5478B388A79
:1044930039893AE4F548F54AF54BE54860077F204A
:1044A30012446480F57549FFC207C206C208C209F7
:1044B300C20BC20CC20E124432FF700D300D057FC9
:1044C30000124475AF4BAE4A22B4255FC2D5C20A6F
:1044D300124432FF24D0B40A00501A75F00A784807
:1044E30030D50508B6FF0106C6A426F620D504700C
:1044F30002D20980D924CFB41A00EF5004C2E5D206
:104503000A024675D20780C6D20680C0D20880BC94
:10451300D2D580BAD20B80B47F201244642008071E
:104523007401B5480040F1124429FF124464024467
:104533009DD20ED20C8095124429FB124429FA1203
:104543004429F94A4B700679467A477BFF20082EA7
:10455300E548602A7E008E827583001234E560068A
:104563000EEE654970F0C2D5EBC0E0EAC0E0E9C0E9
:10457300E0EE1246BCD0E0F9D0E0FAD0E0FB123412
:10458300CCFF60AAEBC0E0EAC0E0E9C0E0124464FB
:10459300D0E02401F9D0E03400FAD0E0FBE549048F
:1045A30060DCD549D980877BFF7A4679B8D2088009
:1045B3009C791080027908C20CC20E8008D2D5798A
:1045C3000A8004790AC2D5E549047002F549E4FA80
:1045D300FDFEFF124429FC7B08200713124429FD2A
:1045E3007B1030060A124429FE124429FF7B20EC7B
:1045F3003382D592D55013C3E43006069FFFE49E61
:10460300FEE42007039DFDE49CFCE4CBF8C207EC29
:10461300700CCFCECDCCE824F8F870F38017C3EF3D
:1046230033FFEE33FEED33FDEC33FCEB33FB99400C
:1046330002FB0FD8E9EB300705F8D0E0C448B20716
:10464300C0E00AEC4D4E4F78207B0070C2EAB549BA
:104653000040BCC0E01246BED0F0D0E0200704C446
:10466300C0E0C4B207C0F012444DD0F0D5F0EB0265
:10467300449D12363F453A5345B458450B4C4507C4
:104683004245B84F45C04445C04945204345C655FA
:1046930045AA4645AA4545AA47476650450F2D45B5
:1046A300132E45362B451723453420474F2A44CF35
:1046B300480000452E3F3F3F00790AA2D520091448
:1046C300300B09B910020404B9080104A2D5200C67
:1046D300025001042008689208B548005034C0E035
:1046E3007F203009197F30A208720C720B500F1211
:1046F3004715C208C20CC20BC20E7F30800F300BAD
:1047030003E9C0E0124464300B03D0E0F9D0E0B514
:1047130048CC300B177F30B9100C1244647F5830EB
:104723000A077F788003B908031244643008057FC1
:104733002D0244647F20200EF87F2B200CF322925D
:104743000880CF286E756C6C2900D207124429307B
:1047530007F8C207784830D50108F60244CF2D5038
:104763004349581244292403B405004001E4904707
:104773006193124455743A124455D20975480402A0
:1047830045B4900630E0FEA3E04E707B900630F017
:10479300A3740CF0906EC5E493FFE566D39F401CB1
:1047A300E4F566E567D394074005E4F56780020501
:1047B30067E4F56BF56AF569F568804B0566E566B0
:1047C300C394004009E56694205003856668E56656
:1047D300C39420400CE56694405006E56624E0F55A
:1047E30069E566C39440400CE56694605006E5664F
:1047F30024C0F56AE566C39460400CE56694805076
:1048030006E56624A0F56BE567B407004003024A9A
:10481300AB90481BF828287302483002486B0248C3
:10482300970248ED0249270249650249E3E56875A5
:10483300F00584541FFF900641E054E04FF0E56912
:1048430075F00584541FFF90063AE054E04FF0E5FD
:104853006A75F00584541FFF900637E054E04FF06B
:10486300E56B75F005848079E568541FFF90064079
:10487300E054E04FF0E569541FFF900639E054E03F
:104883004FF0E56A541FFF900636E054E04FF0E521
:104893006B02495CE56875F00584FFC374069F5499
:1048A3001FFF900641E054E04FF0E56975F0058481
:1048B300FFC374069F541FFF90063AE054E04FF085
:1048C300E56A75F00584FFC374069F541FFF9006C5
:1048D30037E054E04FF0E56B75F00584FFC37406D1
:1048E3009F541FFF900633024AA6E568C313541F63
:1048F300FF900642E054E04FF0E569C313541FFFF5
:1049030090063BE054E04FF0E56AC313541FFF9059
:104913000638E054E04FF0E56BC313541FFF9006D5
:1049230034024AA6C3741F9568541FFF900640E0E3
:1049330054E04FF0C3741F9569541FFF900639E08C
:1049430054E04FF0C3741F956A541FFF900636E07E
:1049530054E04FF0C3741F956B541FFF900632024F
:104963004AA6E56875F00384541FFF900641E0549E
:10497300E04FF0E56975F00384541FFF90063AE0B9
:1049830054E04FF0E56A75F00384541FFF90063737
:10499300E054E04FF0E56B75F00384541FFF90067D
:1049A30033E054E04FF0E568C313541FFF90064013
:1049B300E054E04FF0E569C313541FFF900639E05C
:1049C30054E04FF0E56AC313541FFF900636E054DA
:1049D300E04FF0E56BC313541FFF900632024AA663
:1049E300E568C313FFC3740F9F541FFD900642E095
:1049F30054E04DF0E569C313FFC3740F9F541FFCCC
:104A030090063BE054E04CF0E56AC313FFC3740F18
:104A13009F541FFB900638E054E04BF0E56BC31343
:104A2300FFC3740F9F541FFF900634E054E04FF010
:104A3300E56875F00384FEC3740A9E541FFE900656
:104A430041E054E04EF0E56975F00384FEC3740A57
:104A53009E541FFE90063AE054E04EF0E56A75F06E
:104A63000384FEC3740A9E541FFE900637E054E08D
:104A73004EF0E56B75F00384FEC3740A9E541FFE6B
:104A8300900633E054E04EF0900640E054E04DF0E1
:104A9300900639E054E04CF0900636E054E04BF0D9
:104AA300900632E054E04FF02278CA7C007D017B0F
:104AB300FF7A0E79877E007F601234A6E4F52778AB
:104AC3002A7C017D017BFF7A0E79E7FE7F40123459
:104AD300A6E4F52878297C00FD7BFF7A0F7927FE71
:104AE3007F031234A69003AEE0FF30E00D54FEF0D6
:104AF300A3E0F50DE4F509F50A22E4F5299002F0A7
:104B0300E0F52A752B0D7549FF754A0F754B2A750C
:104B13004C02754D00754E00754F297550037B018E
:104B23007A01792A12622B8F289002F1E0FCA3E02C
:104B3300FD9002F0E0F537753801753902753A6F6B
:104B43009002EFE0F53B7B017A0079CA1269998FF5
:104B530027E50914604B147003024C6014700302C0
:104B63004D39147003024D4824046003024DB6E529
:104B73000AD394034009750801E4F50A024DB6D23D
:104B8300A39003ADE020E00B7B017A0079CAAD2747
:104B930012737590026D7403F0A374E8F075090144
:104BA300229003ACE0C313FEA3E013FFEE547FFC9B
:104BB300AD0790026DE0FAA3E0FBFFAE0212355899
:104BC3009000C9EFF0EB4A7006050AF509805D9085
:104BD30003ADE030E0199000C9E0FF90025FE06FA1
:104BE300600DEFF07B017A0079CAAD27127375204F
:104BF3002203024DB9C222754A01754B01754C2A35
:104C030085284D7B017A0379E97D99126A20EA4967
:104C13004B601E9003A8E07005750903800D7509AC
:104C23000290026D7401F0A374F4F0E490025FF05B
:104C33002278EB7C037D017BFF7A0F792A7E007F4C
:104C4300021237F1EF6003024DB99003EDE0F5086E
:104C53009003ADE030E003024DB9024DB690026D12
:104C6300E07002A3E07005050AF509222022030281
:104C73004DB99003F1E0FDA3E07888F6ED08F690D6
:104C830003F4E008F6C2229003E9E064FE60337E99
:104C9300007F407D007B017A0579C3123815753B8F
:104CA300FF753C01753D489003E9E0753E00F53F13
:104CB3007B017A0579C31244857B017A0579C31296
:104CC300724E9003A8E0FF7E0078FE7C037D017B9B
:104CD300017A0379281237F1EF701F7888E6FE080E
:104CE300E6FF9003AAE0B50611A3E0B5070C900315
:104CF300A9E008667004750903227E007F407D00E9
:104D03007B017A0579C3123815753BFF753C017534
:104D13003D5D788AE6753E00F53F7888E6FE08E655
:104D23008E40F5417B017A0579C31244857B017A74
:104D33000579C302724E302007C220750D03805CD3
:104D4300750D018057302007C220750D0380037550
:104D53000D01E50860467E007F407D007B017A05FA
:104D630079C3123815753BFF753C01753D83753E5C
:104D73000085083F7B017A0579C31244857B017A5C
:104D83000579C312724EE5082433600A24E46006F1
:104D930024E970028000756C01E4F508E4F50AF576
:104DA300099003ADE054FEF0E49003ACF0A3E054AB
:104DB30001F022750904228B278A28892978497CE6
:104DC300017D017BFF7A0F792F7E007F221234A6AB
:104DD300AB27AA28A9291234CC900149F0900001ED
:104DE3001234E5FF7E00E92402F9E43AFA784A7CBA
:104DF300017D011234A6AB27AA28A929900001122C
:104E030034E590016AF0900149E0249760641470DE
:104E130003024FBB24FE7003025016147003024FAB
:104E2300EA2405600302506EC202D20490014AE0F4
:104E3300F52E126D50920290014AE0FF1274D17E5A
:104E4300007F407D007B017A0579C3123815753BDD
:104E5300FF753C02753D2490014AE0753E00F53F25
:104E63007B017A0579C31244857B017A0579C302F4
:104E73004FB8C202C203E4F52DF52CF52BF52A90A9
:104E8300014AE0FFE52D4FF52DE52CF52CE52BF53B
:104E93002BE52AF52AA3E0FFE4FCFDFE7808123691
:104EA30020E52D4FF52DE52C4EF52CE52B4DF52B5F
:104EB300E52A4CF52AA3E0FFE4FCFDFE7810123648
:104EC30020E52D4FF52DE52C4EF52CE52B4DF52B3F
:104ED300E52A4CF52AA3E0FFE4FCFDFE7818123620
:104EE30020E52D4FF52DE52C4EF52CE52B4DF52B1F
:104EF300E52A4CF52AA3E0FF90060DE0B5070C90D8
:104F0300014FE0FE90060EE06E603390060DEFF069
:104F130090014FE090060EF07B017A06790D75380B
:104F2300007539017F037E00126DB27B017A067929
:104F33000E7538007539017F047E00126DB2900141
:104F430050E06002D2037F807E437D6D7C38AB2DC1
:104F5300AA2CA92BA82AD31235FC401DE52D2480A9
:104F6300FFE52C34BCFEE52B3492FDE52A34C7FC67
:104F7300A20392041252BF9202753BFF753C027565
:104F83003D4590014DE0753E00F53F90014CE075C5
:104F93004000F54190014BE0754200F54390014A12
:104FA300E0754400F5457B017A0079C91244857B9D
:104FB300017A0079C902724E7E007F407D007B0139
:104FC3007A0579C3123815753BFF753C02753D6E42
:104FD3007B017A0579C31244857B017A0579C31273
:104FE300724EC204026FB9753BFF753C02753D8B6F
:104FF30090014AE0753E00F53F7B017A0179091281
:1050030044857B017A01790912724E90014AE0FFCF
:105013000274E690065AE07888F6900327E0FF9042
:10502300014AE06F60457E007F407D007B017A0589
:1050330079C3123815753BFF753C02753DB07B0192
:105043007A0579C31244857B017A0579C312724EBE
:1050530090014AE0900327F0D39407500E9006582E
:105063007402F0900327E0900657F022AD07E56045
:10507300701D20261A906EC493FFE561C39F5004F0
:105083000561800BE4F561F565F564F563F562E5AB
:10509300607004D2268009E560D394504002C22692
:1050A300900630E07002A3E07075AF60202604150F
:1050B3006080020560EF541FFF906EC2E493FEEF21
:1050C3008EF084FFA3E493FEEF8EF0A4FF900630EE
:1050D300E5F0F0A3EFF0E560C394004009E56094C8
:1050E300205003856062E560C39410400CE5609432
:1050F300305006E56024F0F563E560C39420400C6E
:10510300E56094405006E56024E0F564E560C394EF
:1051130030400CE56094505006E56024D0F565ED11
:105123001470030252290460030252BEE561600356
:105133000252BE30267AE560C3942E501BE560759B
:10514300F00F84E5F0D3940A900640E040028055C6
:1051530054E0F0A3E002524DE560D3942D400E904D
:105163000640E0441FF0A3E054E0440AF0E560D3B6
:105173009432400E900639E0441FF0A3E054E0441B
:105183000AF0E560D3943C400E900636E0441FF0ED
:10519300A3E054E0440AF0E560D39446500302527E
:1051A300BE900632E0441FF0A3E054E0440AF0222C
:1051B300E565541FFF900640E054E04FF0E564546A
:1051C3001FFF900639E054E04FF0E563541FFF9052
:1051D3000636E054E04FF0E562541FFF900632E0DC
:1051E30054E04FF0E56575F00384541FFF900641CA
:1051F300E054E04FF0E56475F00384541FFF90061C
:105203003AE054E04FF0E56375F00384541FFF90D8
:105213000637E054E04FF0E56275F00384541FFF56
:105223009006330252B9E56160030252BE3026573D
:10523300E560C3942E5017E56075F00F84E5F0D355
:10524300940A900641E04002803954E0F022E56080
:10525300D3942D4007900633E0441FF0E560D394C8
:10526300324007900637E0441FF0E560D3943C409A
:105273000790063AE0441FF0E560D39446403C9023
:105283000641E0441FF022E565541FFF900633E01A
:1052930054E04FF0E564541FFF900637E054E04FAD
:1052A300F0E563541FFF90063AE054E04FF0E562E7
:1052B300541FFF900641E054E04FF0228F318E30AF
:1052C3008D2F8C2E786B7C017D017BFF7A087937DB
:1052D3007E007F0B1234A6C20585313585303485B7
:1052E3002F33852E322004030253FF90060DE0D3A3
:1052F300940C504190060EE0FFE4FCFDFE7B3CFA6B
:10530300F9F81235ADC004C005C006C00790060DFC
:10531300E0FFE4FCFDFE7B107A0EF9F81235ADD008
:1053230003D002D001D000EF2BFFEE3AFEED39FDA2
:10533300EC380253EA90060DE0FFD3940C405EEF85
:10534300D394185058E024F4FFE434FFFEE4FCFD4A
:105353007B107A0EF9F81235ADC004C005C006C043
:105363000790060EE0FFE4FCFDFE7B3CFAF9F81221
:1053730035ADD003D002D001D000EB2FFBEA3EFACB
:10538300E93DF9E83CF8C3E5359BF535E5349AF595
:1053930034E53399F533E53298F532805F90060DA5
:1053A300E0FFC3941E4055EF24EFFFE434FFFEE417
:1053B300FCFD7B107A0EF9F81235ADC004C005C0B0
:1053C30006C00790060EE0FFE4FCFDFE7B3CFAF905
:1053D300F81235ADD003D002D001D000EB2FFFEA95
:1053E3003EFEE93DFDE83CFCE5352FF535E5343E71
:1053F300F534E5333DF533E5323CF532E535FF90E1
:10540300016BEFF0E4FFE534FEE4FDFC78081236AF
:105413000DA3EFF0E4FFFEE533FDE4FC7810123654
:105423000DA3EFF0E4FFFEFDE532FC781812360D14
:10543300A3EFF0753901753A01753B6B9007F3E4FF
:1054430093F53C753DFF753E07753FF4900834E4D2
:1054530093F540754102A3E493F542740193F54338
:105463007BFF7A0779B112662C9205A205226D6142
:10547300635F7265616C65733A253032582025305D
:10548300325820253032582000253032582025301C
:10549300325820253032582E0A00696E73657274B3
:1054A3002063617463683A2025642C2076616C3A2A
:1054B300253032582E0A00000000000000000000D2
:1054C30000000000000000000000000000000000D9
:1054D30000000000000000000000000000000000C9
:1054E30000000000000000000000000000000000B9
:1054F30000000000000000000000000000000000A9
:105503000000000000000000000000000000000098
:105513000000000000000000000000000000000088
:105523000000000000000000000000000000000078
:105533000000000000000000000000000000000068
:105543000000000000000000000000000000000058
:105553000000000000000000000000000000000048
:105563000000000000000000000000000000000038
:105573000000000000000000000000000000000028
:105583000000000000000000000000000000000018
:105593000000000000000000000000000000000008
:1055A30000000000000000000000000000000000F8
:1055B30000000000000000000000000000000000E8
:1055C30000000000000000000000000000000000D8
:1055D30000000000000000000000000000000000C8
:1055E30000000000000000000000000000000000B8
:1055F300000000000000000000000000000000E4C4
:10560300F527F528F52912755EEF70030256BC20C5
:105613001223D212906083E493FF74019390066582
:10562300CFF0A3EFF09006627401F0A3745EF01262
:10563300755E8F792212755EEF6579600302574CB0
:10564300900665E0FEA3E0FFC39060837401939F1F
:10565300F529E4939EF528C390607F7401939529FF
:10566300E49395285020C39060817401939529E4B5
:105673009395284011AF79127478201309D2137DC2
:1056830004AF79125883C39060817401939529E420
:10569300939528400302574CC390608374019395FC
:1056A30029E4939528500302574C30140302574CB6
:1056B300D2147D05AF79025883301253900665E00A
:1056C300FEA3E0FFC39060837401939FF529E493E5
:1056D3009EF528C390607D7401939529E4939528E2
:1056E300502DC390607F7401939529E493952840CE
:1056F3001E900662E07002A3E06002057AE57AD3A9
:10570300940150047D0280027D03AF791258839087
:105713000662E07002A3E0701DE57A6019F527E4E4
:10572300F57AE527C39402400AAD27AF79126C0ED0
:10573300E4F527E4F579301302C213301402C214DE
:10574300E4900665F0A3F0C21222AB33AA34A93564
:10575300900002E537123524900003E53812352412
:1057630020070EAB33AA34A93590000AE51E123583
:1057730024E5352405F9E43534A801FCAD337B0178
:105783007A0579BE7E007F051234A6AB33E5352456
:1057930005F9E43534FA7D1C127284AB33AA34A9BB
:1057A30035900004EF123524200603025867785B16
:1057B3007C017D017BFF7A0679397E007F401234BC
:1057C300A6AB33AA34A93574CC123512E536240CB2
:1057D300AB33AA34A935900001123524E53624F3FE
:1057E300FFE434FFFEE92401F9E43AFA785B7C0133
:1057F3007D011234A6E53624FFFFE434FFFE7D006D
:10580300AB33E5352401F9E43534FA123815E536BE
:1058130024F3FFE434FFFEE535240DF9E43534A821
:1058230001FCAD337B017A01795B1234A6E53524A3
:1058330001F9E43534A801FCAD337B017A0579B66F
:105843007E007F061234A6E5352408F9E43534A832
:1058530001FCAD337B017A0579BE7E007F051234EE
:10586300A67F2D22AB33AA34A93574AA123512AB05
:1058730033AA34A935900001E5361235247F21225D
:105883008F2A8D2BE52B24FD604714700302591CCE
:10589300147003025970240360030259A5C2167ED3
:1058A300007F407D007B017A0579C3123815753B73
:1058B300FF753C5F753DC9753E00852A3F7B017AC4
:1058C3000579C31244857B017A0579C312724E8030
:1058D300407E007F407D007B017A0579C312381535
:1058E300753BFF753C5F753DE5753E00852A3F7B43
:1058F300017A0579C31244857B017A0579C3127253
:105903004E900664E004F0E0B40304D2198002C2AE
:1059130019AF2A1259B40259A530191FC2191274AA
:10592300FB7E007F407D007B017A0579C312381529
:10593300753BFF753C5F753DFF801E7E007F407D9C
:10594300007B017A0579C3123815753BFF753C60FE
:10595300753D16753E00852A3F7B017A0579C31292
:1059630044857B017A0579C312724E80357E007FB0
:10597300407D007B017A0579C3123815753BFF75AD
:105983003C60753D33753E00852A3F7B017A05797E
:10599300C31244857B017A0579C312724ED2041275
:1059A3006FB9E52B640360089006647401F0C219B3
:1059B30022C215EF24FE604C24FE7003025A5024C9
:1059C300036003025A89E51EB43907E4900657F0D1
:1059D3008025E51EB440089006577401F08018E551
:1059E3001EB43D0E90065AE0C39403500AE004F03F
:1059F3008005900657EFF0E51D20E003025A89D297
:105A030015025A89E51EB439089006577401F080CF
:105A130033E51EB43A028018E51EB44008900657D9
:105A23007402F0801FE51EB43D1590065AE060072E
:105A3300E4900657F0800D9006577403F0800590AC
:105A43000657EFF0E51D30E13DD2158039E51EB470
:105A53003A089006577402F08025E51EB44008907A
:105A630006577404F08018E51EB43D0E90065AE004
:105A7300D39400400AE014F08005900657EFF0E558
:105A83001D30E202D215E51E6439600BE51E643A4F
:105A93006005E51EB43B109006587401F09006575C
:105AA300E0900659F080069006587402F09006576D
:105AB300E0600790065BE04401F03015097B017D4F
:105AC300327F031272DE229003AEE030E01554FE03
:105AD300F0A3E0F50DE4F50BF50C90026DF0A3F0E7
