:100000000259C8756C067F0F025CD7022332438EFB
:10001000805389F0758A50758CFBC28DD2A9C2B904
:10002000D28C2202593269276D2055415254312019
:10003000666F7220776966692064617461207472EA
:10004000616E736C617465202121210A0069276D3E
:1000500020554152543120666F7220646174734C94
:100060006F67202121210A006E776B5A6967622031
:10007000636F6E6E6563742F72656A6F696E20615F
:100080006C6C20636F6D706C6574652E0A006E7702
:100090006B5A69676220636F6E6E6563742F726559
:1000A0006A6F696E206D61696E537465702D2530BD
:1000B0003264406D6574686F643A256420636F6DC7
:1000C000706C6574652E0A00657272206672616DCF
:1000D00065486561643A253032582E0A00726376AD
:1000E000506F727420697320253032582C2072634F
:1000F000764E776B416464722069732025303458E2
:100100002E0A0072656D6F746520646174615265BA
:100110007175657374206661696C2C20636F64650A
:100120003A5B3078253032585D2E0A006465764897
:100130006F6C6420737461727420726967687420D4
:100140006E6F772E0A00646576486F6C6420746960
:100150006D6520636F756E742072656D696E643AAB
:10016000202530326420732E0A00646576486F6C57
:10017000642073746F702E0A00636D645363656E40
:100180006172696F4374726C20636F6D6D696E6725
:100190002C20737461747573446174613A25303234
:1001A000582E0A006D617374657220636D64436F2D
:1001B0006D696E673A6E776B4F70656E3A253032B7
:1001C00064732E0A006D6173746572205554432068
:1001D000636F6D696E673A5B307825303258253031
:1001E000325825303258253032585D2E0A006E6F55
:1001F000646520636D64436F6D696E673A6465760C
:100200004E776B20686F6C642E0A006D61737465A5
:100210007220636D643A206474506572696F642063
:10022000686F6C642C2074696D653A25642E0A0031
:10023000646966666572207363656E6520646574C3
:100240006563742066726F6D20706F6C696E672EC7
:100250000A00636D64436F6D696E673A25303258EA
:100260002E0A003E3E3E3E3E3E3E3E74696D657245
:100270005F7461623320726573706F6E643A5B25E0
:100280003032582D253032582D253032585D2E0A07
:10029000003E3E3E3E3E3E3E3E74696D65725F747A
:1002A00061623320686173206265656E20736574D6
:1002B0003A5B253032582D253032582D25303258B2
:1002C0005D2E0A003E3E3E3E3E3E3E3E72656C6105
:1002D00079537461747573207265616C65733A2526
:1002E0003032582C2063757272656E7456616C3AA8
:1002F000253032582E0A003E3E3E3E3E3E3E3E6493
:10030000656C6179506572696F643A5B25645D2C38
:100310002064656C617955704163743A5B253032B5
:10032000585D2E0A003E3E3E3E3E3E3E3E666163C6
:10033000746F7279207265636F7665722073746171
:100340006E644279212E0A003E3E3E3E3E3E3E3ED7
:100350006167696E67436D64206465764C6F636B9B
:1003600020636F6D696E672C206C6F636B49663A12
:100370005B25645D2E0A003E3E3E3E3E3E3E3E61B3
:1003800067696E67436D642074696D657220636F81
:100390006D696E672C2064617461546162333A5BED
:1003A000253032582D253032582D253032585D2ECB
:1003B0000A003E3E3E3E3E3E3E3E6167696E6743FA
:1003C0006D6420677265656E4D6F646520636F6D47
:1003D000696E672C2074696D655365743A25642EC7
:1003E0000A003E3E3E3E3E3E3E3E6167696E6743CA
:1003F0006D64206E696768744D6F646520636F6D0E
:10040000696E672E0A003E3E3E3E3E3E3E3E6167BE
:10041000696E67436D6420626B4C69676874206322
:100420006F6D696E672C206F6E2D497372743A255B
:100430003032642C206F66662D497372743A253011
:1004400032642E0A003E3E3E3E3E3E3E3E616769BD
:100450006E67436D642073776974636842696E6484
:1004600053657420636F6D696E672C2062696E64DA
:10047000446174613A2530325820253032582025A5
:100480003032582E0A003E3E3E3E3E3E3E3E6661C3
:1004900063746F7279207265636F76657220646F22
:1004A000696E67206E6F77212E0A003E3E3E3E3E0B
:1004B0003E3E3E696E7465726E6574206F66666C52
:1004C000696E652E0A006374726C20656163684F03
:1004D0007468657220636D6420636F6D696E672C4C
:1004E00020636C75737465723A253032642E0A008D
:1004F00000000000000000000000000000000000FC
:1005000000000000000000000000000000000000EB
:1005100000000000000000000000000000000000DB
:1005200000000000000000000000000000000000CB
:1005300000000000000000000000000000000000BB
:1005400000000000000000000000000000000000AB
:10055000000000000000000000000000000000009B
:10056000000000000000000000000000000000008B
:10057000000000000000000000000000000000007B
:10058000000000000000000000000000000000006B
:100590002608FCFF00000000000000000000000032
:1005A000000000000000000000000000000000004B
:1005B000000000000000000000000000000000003B
:1005C000000000000000000000000000000000002B
:1005D000000003FE016608006F000000000000003C
:1005E000000000000000000000000000000000000B
:1005F00000000000000000000000000000000000FB
:1006000000000000000000000000000000000000EA
:10061000000000060096FCFF000000000000000043
:1006200000000000000000000000000000000000CA
:10063000000000000000000000FE012606062766FC
:1006400006000000000000000000000000000000A4
:10065000000000000000000000000000000000009A
:1006600000FE002111306111211000000000000087
:10067000000000000000000000000000000000007A
:10068000000000000000000000000000000000006A
:10069000000000000000000000000000000000005A
:1006A000000000000000000000000BFE01611000CF
:1006B000000000000000000000000000000000003A
:1006C000000000000000000000000000000000002A
:1006D000000000000000000000000000000000001A
:1006E00000000000000000000000000500640000A1
:1006F00000000000000000000046090000000000AB
:1007000000000000000000000000000000000000E9
:1007100000000000000000000000000000000000D9
:1007200000000000000000000000000000000000C9
:10073000000000000000000000000000FE064180F4
:10074000010200020603C3000000000000000000D8
:100750000000000000000000000000000000000099
:100760000000000000000000000000000000000089
:100770000000000000000000000000000B0FA04679
:100780000900000000000000000000000000000060
:100790000000000000000000000000000000000059
:1007A0000000000000000000000000000000000049
:1007B0000000000000000000000000000000000039
:1007C0000000FE064180010200020603C300000093
:1007D0000000000000000000000000000000000019
:1007E0000000000000000000000000000000000009
:1007F00000000000000000000000000000000000F9
:1008000000000B0FA02605030103000000000000FC
:1008100000000000000000000000000000000000D8
:1008200000000000000000000000000000000000C8
:1008300000000000000000000000000000000000B8
:100840000000000000000003FE01660500620000D9
:100850000000000000000000000000000000000098
:100860000000000000000000000000000000000088
:100870000000000000000000000000000000000078
:1008800000000000000000000601F446090000001E
:100890000000000000000000000000000000000058
:1008A0000000000000000000000000000000000048
:1008B0000000000000000000000000000000000038
:1008C0000000000000000000000000000000FE0624
:1008D0004180010200020603C30000000000000086
:1008E0000000000000000000000000000000000008
:1008F00000000000000000000000000000000000F8
:1009000000000000000000000000000000000B0FCD
:10091000A026058701010000000000000000000083
:1009200000000000000000000000000000000000C7
:1009300000000000000000000000000000000000B7
:1009400000000000000000000000000000000000A7
:1009500000000003FE0166050062000000000000C8
:100960000000000000000000000000000000000087
:100970000000000000000000000000000000000077
:100980000000000000000000000000000000000067
:10099000000000000601F42702FFFF000000000035
:1009A0000000000000000000000000000000000047
:1009B0000000000000000000000000000000000037
:1009C0000000000000000000000000000000000027
:1009D00000000000000000000002FE016702006449
:1009E0000000000000000000000000000000000007
:1009F00000000000000000000000000000000000F7
:100A000000000000000000000000000000000000E6
:100A1000000000000000000000000601F4270300B1
:100A20008000000000000000000000000000000046
:100A300000000000000000000000000000000000B6
:100A400000000000000000000000000000000000A6
:100A50000000000000000000000000000000000492
:100A6000FE016703006500000000000000000000B8
:100A70000000000000000000000000000000000076
:100A80000000000000000000000000000000000066
:100A90000000000000000000000000000000000056
:100AA0000601F42600000000000000000000000025
:100AB0000000000000000000000000000000000036
:100AC0000000000000000000000000000000000026
:100AD0000000000000000000000000000000000016
:100AE000000000000000FE0145C007830000000078
:100AF00000000000000000000000000000000000F6
:100B000000000000000000000000000000000000E5
:100B100000000000000000000000000000000000D5
:100B2000000000000000061F402608FCFF00000037
:100B300000000000000000000000000000000000B5
:100B400000000000000000000000000000000000A5
:100B50000000000000000000000000000000000095
:100B6000000000000000000000000003FE01660815
:100B7000006F000000000000000000000000000006
:100B80000000000000000000000000000000000065
:100B90000000000000000000000000000000000055
:100BA0000000000000000000000000000600962485
:100BB000000E0D000D000D000100000100000000FE
:100BC0000000000000000000000000000000000025
:100BD0000000000000000000000000000000000015
:100BE0000000000000000000000000000000000005
:100BF000000DFE0164000065000000000000000020
:100C000000000000000000000000000000000000E4
:100C100000000000000000000000000000000000D4
:100C200000000000000000000000000000000000C4
:100C300000000601F4FE016400B8DD0C000D0D009B
:100C40000D0E000D0000000000000000000000007C
:100C50000000000000000000000000000000000094
:100C60000000000000000000000000000000000084
:100C70000000000000000000000000000000000074
:100C80000000000000000000000000000000000064
:100C9000000000002401000000000000000000002F
:100CA0000000000000000000000000000000000044
:100CB0000000000000000000000000000000000034
:100CC0000000000000000000000000000000000024
:100CD0000000000000000000000000000000000014
:100CE0000000000000000000000000000000000004
:100CF00000000000000000000000000000000000F4
:100D000000000000000000000000000000000000E3
:100D100000000000000000000000000000000000D3
:100D200000000000000000000000000000000000C3
:100D300000000000000000000000000000000000B3
:100D400000000000000000000000000000000000A3
:100D50000000000000000000000000000000000093
:100D60000000000000000000000000000000000083
:100D70000000000000000000000000000000000073
:100D80000000000000000000000000000000000063
:100D90000000000000000000000000000000000053
:100DA0000000000000000000000000000000000043
:100DB0000000000000000000000000000000000033
:100DC0000000000000000000000000000000000023
:100DD0000000000000000000000000000000000013
:100DE0000044806A010000000000000000000000D4
:100DF00000000000000000000000000000000000F3
:100E000000000000000000000000000000000000E2
:100E100000000000000000000000000000000000D2
:100E200000000000000000000000000000000000C2
:100E300000000000000000000000000000000000B2
:100E400000000000000000000000000000000000A2
:100E50000000000000000000000000000000000092
:100E60000000000000000000000000000000000082
:100E70000000000000000000000000000000000072
:100E80000000000000000000000000000000000062
:100E90000000000000000000000000000000000052
:100EA0000000000000448145CB000000000000006D
:100EB0000000000000000000000000000000000032
:100EC0000000000000000000000000000000000022
:100ED0000000000000000000000000000000000012
:100EE0000000000000000000000000000000000002
:100EF00000000000000000000000000000000000F2
:100F000000000000000000000000000000000000E1
:100F100000000000000000000000000000000000D1
:100F200000000000000000000000000000000000C1
:100F300000000000000000000000000000000000B1
:100F400000000000000000000000000000000000A1
:100F50000000000000000000000000000000000091
:100F60000000000000000000000000000000008BF6
:100F7000268A2789288C298D2A78FB7C007D017B95
:100F8000FF7A0E79087E007F60122932C202AB26FA
:100F9000AA27A9281229582456605C24B07003029D
:100FA00016D4147003021C1E242F6003021C4DD2A1
:100FB00002E92407F9E43AFA78C77C047D017E004F
:100FC0007F06122932900359E024F3FFE434FFFE38
:100FD000AB26E528240DF9E43527FAC003C002C08A
:100FE00001E5282401F9E43527A801FCAD03D0016F
:100FF000D002D003122932C203C204C205AB26E5D7
:10100000282405F9E43527FA7D1C126415AB26AABD
:1010100027A928900004122971B50702D204E528F7
:101020002405F9E43527A801FCAD267B017A047973
:10103000CE7E007F05122C71EF7002D205AB26AA7E
:1010400027A928900003122971FFB43904D2058022
:101050000BEF64146004EFB41902D20430040530BD
:101060000402D203200303021C4DC204C2057E0009
:101070007F407D007B017A0479D3122C95753AFF6D
:10108000753B02753C52AB26AA27A9289000031293
:101090002971753D00F53E7B017A0479D3123847FA
:1010A0007B017A0479D31263DF7E007F607D007B51
:1010B000017A0079FB122C95AB26AA27A92890006B
:1010C00003122971122ABF116C10164311138F14C9
:1010D00016431516431611E31711FA1812121913B5
:1010E0003E1A13561B13891F138422110139152B25
:1010F00041159F4215CD4316174416435000001664
:10110000413028030216431260859000C8EEF0A318
:10111000EFF0FD90054AE0900106F0EE900109F035
:10112000AF05A3EFF0AB26AA27A92890000C12293F
:1011300071900545F090000D122971900546F07BE5
:10114000017A0579457537007538017F037E0012F5
:101150005FC47B017A0579467537007538017F04D5
:101160007E00125FC47F0A1265BD8070E4900106A4
:10117000F0AB26AA27A92890000B122971FF54076B
:10118000900106F0EF5401FF90054AE0FE54016F14
:101190006009900106E04420F0802D90000B122998
:1011A00071FC5402FDEE54026D6009900106E044AA
:1011B00040F08014EC5404FF90054AE054046F6042
:1011C00007900106E04480F0AB26AA27A9289000EA
:1011D0000B122971900547F0A37402F0D204C205E6
:1011E000021643752C01D2287B007A00792C7537C2
:1011F000007538017F057E008012E4F52CC228FBC3
:101200007A00792CF5377538017F05FE125FC4022C
:101210001643AB26AA27A92890000D122971246035
:1012200060191470030212CA1470030212EF1470D2
:10123000030212F824A36003021329E4F52C7B01B6
:101240007A017909F54875490C7F10FE12627EE437
:10125000F52C74017E00A82C088005C333CE33CE54
:10126000D8F9FF787EE6FDEF5D6013E52C75F0039D
:10127000A42409F582E43401F583E05480F0052CC0
:10128000E52CB404CDD2057E007F407D007B017A41
:101290000479D3122C95753AFF753B02753C639027
:1012A000010FE0753D00F53EA3E0753F00F540A35A
:1012B000E0754100F5427B017A0479D31238477B0F
:1012C000017A0479D31263DF805F7878E6FE08E65E
:1012D000FF4E7002800C7C007D3C1229E4C37881B3
:1012E000E69F900109F07880E690010AF0803A7854
:1012F00077E6900109F080317B017A017909754820
:10130000007549067F327E0012627E900107E03050
:1013100028054401F0800354FEF0900107E03025D9
:10132000054402F0800354FDF0AB26AA27A92890BB
:10133000000D122971900108F0D204021643E4F561
:101340002CFB7A00792CF5487549017F32FE126238
:101350007E532C808016E4F52CFB7A00792CF5481E
:101360007549017F32FE12627E432C7F7B007A003A
:10137000792C7537007538017F327E00125FC4D238
:1013800004021643D2040216431256C6021643E460
:10139000F52CAB26AA27A92890000D122971245FED
:1013A000700302148E1470030214C2147003021529
:1013B0000E24036003021526E4F52CAB26AA27A908
:1013C0002875F003E52CA4240EF582E435F0F583AE
:1013D00012297164807044AF2C04A807088002C3EE
:1013E00033D8FC787E46F6AB2675F003E52CA424B2
:1013F0000EF582E435F0F583E5282582F9E52735F9
:1014000083FA122958FF90053FE014FE7401A806E4
:10141000088002C333D8FC4F12299E052CE52CB45A
:101420000499AB26E528240EF9E43527FA75370030
:1014300075380C7F107E00125FC47E007F407D00F7
:101440007B017A0479D3122C95753AFF753B0275AE
:101450003C91AB26AA27A928900014122971753D4A
:1014600000F53E900015122971753F00F54090007F
:1014700016122971754100F5427B017A0479D31265
:1014800038477B017A0479D31263DF021526AB2635
:10149000AA27A92890000E122971FF787F6014E610
:1014A0004402F67881A60790000F1229717880F621
:1014B000E48008E654FDF6E47881F67878F608F6DC
:1014C0008064AB26AA27A92890000E122971FF7804
:1014D0007F600BE64401F67877A607E48008E654BF
:1014E000FEF6E47877F6787AF608F67B007A0079EB
:1014F0007F7537007538017F307E00125FC47B0036
:101500007A0079777537007538017F318013AB2603
:10151000E528240EF9E43527FA7537007538067F7B
:10152000327E00125FC4D204021643E4F52CAB26CF
:10153000AA27A92890000C122971F52DE4F52CAFEB
:101540002CE52DA807088002C313D8FC30E042E543
:101550002CFD7C002406FFEC33FEED240EFDEC3365
:10156000FCAB26E5282DF9E5273CFA7537007538E0
:1015700001125FC4740E252CF582E433F583AB268B
:10158000AA27A928122971FF746E252CF8A607D264
:1015900015052CE52CC3940340A5D204021643E4A0
:1015A000F52CF52CE52C2406FFE433FE7409252CDC
:1015B000F9E43401FA7B0175480075490112627E35
:1015C000052CE52CC3940340DBD2048076AB26E5E2
:1015D00028240EF9E43527FA7537007538017F4065
:1015E0007E00125FC4AB26E528240FF9E43527FA04
:1015F0007537007538017F417E00125FC4AB26AAA3
:1016000027A92890000E122971F56D90000F12295C
:1016100071F56BD204802C7B017A01790975480041
:101620007549017F407E0012627E7B017A01790A52
:101630007548007549017F417E0012627ED20480A8
:1016400002C204200403021C4DE4F52CC204A202D1
:1016500092067532017533007534FB753521753688
:101660000AAB26AA27A928900003122971F537A2F0
:10167000059207124BCD8F2C90026AE004F0900285
:10168000B7E529F0A3E52AF09002B6E52BF07E003D
:101690007F487D007B017A02796D122C95AF2C7EFC
:1016A00000786D7C027D017B017A0079FB12293282
:1016B0009002B5E52CF0E4900333F0900338E04459
:1016C00001F0E0540144FAFF900337E4F0A3EFF097
:1016D000750D042278CA7C007D017BFF7A0E796E3D
:1016E0007E007F31122932C203C204AB26E52824D2
:1016F00001F9E43527FAC002C001AA27A928900001
:101700000112297124FEFDD001D002126415AB260E
:10171000AA27A9289000011229717C0024FFF582D4
:10172000EC34FFF583122971B50702D203E52824B2
:1017300002F9E43527A801FCAD267B017A0479CEB5
:101740007E007F05122C71EF7002D2042003030289
:101750001C4D200403021C4DAB26E528240FF9E4A0
:101760003527FA78CA7C007D017E007F311229324C
:10177000AB26AA27A928900008122971245E7003BD
:10178000021BEB046003021C4D78687C0E7DFF7B1E
:10179000017A0079CA7E007F06122C71EF70030275
:1017A0001BA790026A7414F0783B7C037D017B01D7
:1017B0007A0079CA7E007F061229329000CAE03092
:1017C000E05B90054AE05407FF9000D0E054076FBB
:1017D000604BE05407900547F0A37402F07E007F51
:1017E000407D007B017A0479D3122C95753AFF7500
:1017F0003B02753CC490054AE0753D005407F53E38
:101800009000D0E05407753F00F5407B017A0479E1
:10181000D31238477B017A0479D31263DF9000CA70
:10182000E030E2629000ECE0787F604DE64402F642
:10183000E07881F6A3E07880F6E47878F608F6FEA2
:101840007F40FD7B017A0479D3122C95753AFF75A0
:101850003B02753CF77881E6753D00F53E7880E601
:10186000753F00F5407B017A0479D31238477B013C
:101870007A0479D31263DF800DE654FEF6E47881B2
:10188000F67878F608F69000CAE030E72CD20F7EA2
:10189000007F407D007B017A0479D3122C95753A44
:1018A000FF753B03753C257B017A0479D3123847D9
:1018B0007B017A0479D31263DF9000CAE030E15FE4
:1018C000E4F52CFE7F40FD7B017A0479D3122C9540
:1018D000753AFF753B03753C489000D1E0FFC31398
:1018E0005401753D00F53E7B017A0479D3123847E7
:1018F0007B017A0479D31263DF9000D1E030E107F5
:10190000752C01D2288005E4F52CC2287B007A00D2
:10191000792C7537007538017F057E00125FC49001
:1019200000CAE020E4030219D8E4F52CFE7F40FD54
:101930007B017A0479D3122C95753AFF753B0375B8
:101940003C779000DAE0753D00F53EA3E0753F007E
:10195000F540A3E0754100F5427B017A0479D3128A
:1019600038477B017A0479D31263DFE4F52CE52C48
:1019700075F003A424D4F582E43400F583E0648098
:10198000703CAF2C04A807088002C333D8FC787ED3
:1019900046F6E52C75F003A424D4F582E43400F572
:1019A00083C083C082E0FF90053FE014FE7401A86D
:1019B00006088002C333D8FC4FD082D083F0052CB8
:1019C000E52CB408A97B017A0079D4753700753805
:1019D000187F107E00125FC49000CAE030E3637588
:1019E0003AFF753B03753CB29000EEE0753D00F5A3
:1019F0003E7B017A0479D31238477B017A0479D38C
:101A00001263DF9000EEE0787F6006E64401F68026
:101A100004E654FEF69000EEE07877F67B007A005C
:101A2000797F7537007538017F307E00125FC47B87
:101A3000007A0079777537007538017F317E0012A2
:101A40005FC49000CAE020E503021AD4782C7C0021
:101A50007D007BFF7A0E799F7E007F061229327E01
:101A6000007F407D007B017A0479D3122C95753A72
:101A7000FF753B03753CE27B017A0479D31238474A
:101A80007B017A0479D31263DF9000EFE0600543B5
:101A90002C7F8003532C809000F0E06005432C8065
:101AA0008003532C7F9000F1E033333354F8F52D4D
:101AB000A3E0F52EA3E033333354F8F530A3E0F57B
:101AC000317B007A00792C7537007538067F327EBD
:101AD00000125FC49000CAE030E6577E007F407D70
:101AE000007B017A0479D3122C95753AFF753B047B
:101AF000753C069000F5E0753D00F53EA3E0753FAE
:101B000000F5407B017A0479D31238477B017A04CF
:101B100079D31263DF9000F5E0F56DA3E0F56B7B00
:101B2000017A0079F57537007538027F407E001222
:101B30005FC49000CAE020E703021C4DE4F52CFED0
:101B40007F40FD7B017A0479D3122C95753AFF759D
:101B50003B04753C459000F8E0753D00F53EA3E080
:101B6000753F00F540A3E0754100F5427B017A0422
:101B700079D31238477B017A0479D31263DF7B0172
:101B80007A0079F87537007538037F067E00125F9A
:101B9000C4786E7C007D007B017A0079F87E007F3E
:101BA00003122932D215227E007F067D007B017A46
:101BB00003793B122C95200F03021C4D7E007F40C1
:101BC0007D007B017A0479D3122C95753AFF753B21
:101BD00004753C867B017A0479D31238477B017AFD
:101BE0000479D31263DFC20F0256C678647C027D8B
:101BF000017B017A0079CA7E007F06122C71EF60AA
:101C0000047510A2229003C67414F07E007F067D36
:101C1000007B017A027964122C957510A1227F064F
:101C20001265BD7E007F407D007B017A0479D3126E
:101C30002C95753AFF753B04753CAB7B017A0479B2
:101C4000D31238477B017A0479D31263DF227808F4
:101C50007C007D017BFF7A0E79A97E007F601229CE
:101C60003278687C007D017BFF7A0F79097E007FE6
:101C700060122932900544E07006740AF0124E2F6B
:101C8000E50D24FE700302230B14700302231214CB
:101C9000700302231A14700302231D24046003023C
:101CA0002323900339E0FF30E00302232A30100F92
:101CB000C210C2047F0C7E647DFE7C221248D2E5F5
:101CC0006CB4060312668C201403021FC3900341F8
:101CD000E06003021FC3900006F0C214B211FE7F41
:101CE00060FD7B017A007908122C9590054AE0543A
:101CF00007FF9002BFE054F84FF0A226E4335401EE
:101D0000FFA3E054FE4FFFF0A228E433540125E086
:101D1000FEEF54FD4EFFF0787FE6FE5402C31354ED
:101D20000125E025E0FDEF54FB4DFFF0EE540133BB
:101D3000333354F8FEEF54F74EFFF0A225E433544A
:101D400001C454F0FEEF54EF4EF054DFF07B017A03
:101D50000279C37548007549187F107E0012627EB3
:101D60007878E6FE08E6FF7C007D3C1229E4C37823
:101D700081E69F9002DBF07880E6A3F07877E6A317
:101D8000F078007C007D017BFF7A0F79697E007F0F
:101D9000061229327B017A00790012512B90000043
:101DA000E0FF547FFEBE7F089002DE7401F08005E4
:101DB000E49002DEF0EFC4131313540130E00890F6
:101DC00002DF7401F08005E49002DFF0900001E092
:101DD000131313541F9002E0F0900002E09002E110
:101DE000F0900004E0131313541F9002E2F09000EF
:101DF00005E09002E3F07B017A0279E47548007512
:101E000049027F407E0012627EE49002E6F07B0190
:101E10007A0279E7F5487549037F06FE12627EE58E
:101E200010245E601104702178B97C027D017B0171
:101E30007A03793B800C78B97C027D017B017A02C0
:101E400079647E007F06122932E4900006F0E0FFFC
:101E500004F074082FF582E43400F58374FAF090EE
:101E60000006E0FF04F074082FF582E43400F583E7
:101E7000E4F0900006E02408F9E43400A801FC7DB9
:101E8000017B017A0479CE7E007F05122932900011
:101E900006E02406F0E0FF04F074082FF582E43435
:101EA00000F583E510F0900006E0FF04F074082FC1
:101EB000F582E43400F583E572F0900006E0FF045B
:101EC000F074082FF582E43400F583E4F090000606
:101ED000E0FF04F074082FF582E43400F583E4F0A9
:101EE000900006E0FF04F074082FF582E43400F55A
:101EF00083E4F0900545E0FF900006E0FE04F074F6
:101F0000082EF582E43400F583EFF0900546E0FFFB
:101F1000900006E0FE04F074082EF582E43400F52B
:101F200083EFF0900006E02408F9E43400A801FCF7
:101F30007D017B017A0279B97E007F3112293290CE
:101F40000006E02431F0E004F0E0900009F07B01AD
:101F50007A00790924FEFD126415900006E024073A
:101F6000F582E43400F583EFF0E49002B7F0A3F0DB
:101F70009002B6740DF07E007F487D007B017A02EE
:101F8000796D122C95900006E0FF7E00786D7C0242
:101F90007D017B017A007908122932900006E090D9
:101FA00002B5F0E4900333F0900338E04401F0E030
:101FB0005401FFEF44F4FF9003377401F0A3EFF0F6
:101FC00002210390054BE0FF30E03AD200C201E469
:101FD000900007F0EF54FE90054BF0A3E054E0C4EE
:101FE000135407C43354E0FF9002BFE0541F4FF076
:101FF000900264E04401F07510A29003C67402F0F0
:1020000090026AF022900549E0700302210DE50D6F
:102010006401600302210D7882F67882E6FFC394A2
:1020200003400302210D74017E00A807088005C348
:1020300033CE33CED8F9FF900549E0FDFBEF5B705E
:10204000030221077882E6FC7401A804088002C319
:1020500033D8FCF45D900549F090054AE0FFA804F0
:10206000088002C313D8FC5401900008F07882E67F
:10207000246EF8E6FFD394105003022107EF94FF7B
:102080004003022107E07882600FE62460F582E4D5
:102090003402F583740AF0800DE62460F582E4349E
:1020A00002F583740BF09003427403F074FF900206
:1020B000B7F0A3F07882E6246EF8E69002B6F07EE0
:1020C000007F487D007B017A02796D122C95786D36
:1020D0007C027D017B017A0079087E007F01122954
:1020E000329002B57401F0E4900333F0900338E0CD
:1020F0004401F0E0540144C8FF900337E4F0A3EF3B
:10210000F0D22A750D042278820602201A201603C6
:10211000022331C216900345E064FE60030222E60A
:1021200078477C037D017BFF7A0E79A5FE7F021242
:102130002C71EF60030222E690034DE0FDA3E078EE
:1021400084F6ED08F6A3E008F6A3E008F6E4F56AE5
:10215000FE7F60FD7B017A007968122C959003590F
:10216000E0FF7E0078687C007D017B017A03795A6C
:102170001229327886E6FFD3941050030222AFEF83
:1021800094FF40030222AF90054AE07883F6900363
:10219000427403F07E007F407D007B017A0479D396
:1021A000122C95753AFF753B04753CC67886E6752A
:1021B0003D00F53E7B017A0479D31238477B017AE2
:1021C0000479D31263DF7886E6FD656E703FE56EB5
:1021D000603B9005487402F07883E654FEFFF69069
:1021E0000068E0FE4F900547F0EE900260600574D5
:1021F0000AF08003740BF0900068E05401FF900532
:102200004AE054016F70030222A70222977886E603
:10221000FD656F703DE56F60399005487402F07898
:1022200083E654FDFFF6900068E0FE25E04F900540
:1022300047F0EE9002616005740AF08003740BF0C1
:10224000900068E05402FF90054AE054026F605726
:1022500080457886E6FD6570704DE57060499005B3
:10226000487402F07883E654FBFFF6900068E0FEC5
:1022700025E025E04F900547F0EE9002626005747E
:102280000AF08003740BF0900068E05404FF90059E
:102290004AE054046F60107B017A00796875300160
:1022A00074FFFFFE1261B890054BE04401F0227804
:1022B00086E624F36010146024240270747B017A93
:1022C000007968025E9D7884E6FC08E6FD4C70614A
:1022D0007B017A00796808E6F52B020F6F7B017AA3
:1022E000007968024433900345E064FE7043784708
:1022F0007C037D017BFF7A0E79A7FE7F02122C7191
:10230000EF702E900349E0FF026673756A03D202F4
:102310008005756A02C2020230A0023E6E756A0430
:1023200002521A900339E030E00754FEF0A3E0F5C2
:102330000D22C0E0C0F0C083C082C0D075D000C004
:1023400000C001C002C003C004C005C006C00790A1
:10235000672EE493FFE575C39F500405758076757D
:10236000750090026BE07002A3E0600E90026CE0DA
:1023700024FFF090026BE034FFF0301D0A051DE5EC
:102380001D700A051C8006751C00751D0090055007
:10239000E07002A3E0600E900551E024FFF090058C
:1023A00050E034FFF090054EE07002A3E0600E9024
:1023B000054FE024FFF090054EE034FFF090051645
:1023C000E07002A3E0600E900517E024FFF0900596
:1023D00016E034FFF0D390672C7401939574E49366
:1023E0009573400B0574E574700205730224F07553
:1023F00073007574002014199003C6E0FF90026A00
:10240000E0C39F5005E004F0800790026AE4F0D238
:1024100014787FE6FB30E14C7881E6FF7E007C009B
:102420007D3C1229D2C37879E69F18E69E500908B0
:1024300006E618702F06802C7878760008760078EB
:10244000817600EB54FD787FF69005487402F078B1
:1024500080E6900547F090054BE04401F09002645F
:10246000E04404F0787FE630E04690054AE06040C2
:102470007877E6FF7E007C007D3C1229D2C3787B12
:10248000E69F18E69E50090806E61870230680208D
:10249000787A76000876009005487402F090054737
:1024A000E4F090054BE04401F0900264E04408F051
:1024B000900341E0600214F0900263E0600214F0C7
:1024C000787D06E618700106900521E0600214F0A0
:1024D000900544E0600214F0900514E0600214F0EE
:1024E000900344E0600214F0900342E0600214F0B4
:1024F000301366E50EC3940A5004050E805B201667
:1025000056E50FC39405404FD2167E007F807DFFB5
:102510007B017A037945122C9578457C037D017BFC
:10252000017A0379C77E007F801229329003C5E5C6
:102530000FF0900346E02405FFE433FEE50F6F70D3
:1025400001EE6013900552E04401F09003C8E09062
:102550000553F0A3E50FF0C213900539E0FFA3E0A7
:10256000C39F5006E004F002262090053AE4F09064
:102570000515E024FE604D14700302260D24026050
:102580000302261E900522E05407900539F0FD90C5
:102590000523E075F014A4FFAEF07C001229E4904E
:1025A0000528EEF0A3EFF0900524E0541F25E090FD
:1025B000052CF090052AE4F0A3F0D22790051574BD
:1025C00002F0805C90052CE0603B900528E0FEA3C3
:1025D000E0FFC390052BE09F90052AE09E5017A3D3
:1025E000E004F0700690052AE004F0302704B2B24F
:1025F000802ED2B2802A90052AE4F0A3F0B227A35D
:10260000E014F0801B9005157403F0801390052AE8
:10261000E4F0A3F0D227D2B2900515F08002D2B236
:1026200090672FE493FFE576D39F50030226E97568
:102630007600900518E0541FFF90052DE054E04F00
:10264000F0900519E0541FFF90052EE054E04FF084
:1026500090051AE0541FFF90052FE054E04FF090D2
:10266000051BE0541FFF900530E054E04FF090054B
:102670001CE0541FFF900531E054E04FF090051D21
:10268000E0541FFF900532E054E04FF090051EE04B
:10269000541FFF900533E054E04FF090051FE054C5
:1026A0001FFF900534E054E04FF0900520E0541FE8
:1026B000FF900535E054E04FF0900525E0541FFFF2
:1026C000900536E054E04FF0900526E0541FFF904F
:1026D0000537E054E04FF0900527E0541FFF9005C8
:1026E00038E054E04FF00228470576E576D39400B1
:1026F000406FE576D39420506890052DE0FF541F7D
:10270000600EEF54E0FEEF14541F4EF0C2A08002A2
:10271000D2A0900530E0FF541F600EEF54E0FEEFB2
:1027200014541F4EF0C2A68002D2A6900533E0FFDB
:10273000541F600EEF54E0FEEF14541F4EF0C281A0
:102740008002D281900536E0FF541F600FEF54E005
:10275000FEEF14541F4EF0C2CD022847D2CD0228FE
:1027600047E576D39420406DE576D394405066904B
:10277000052EE0FF541F600EEF54E0FEEF14541FCF
:102780004EF0C2A18002D2A1900531E0FF541F603B
:102790000EEF54E0FEEF14541F4EF0C2A58002D29B
:1027A000A5900534E0FF541F600EEF54E0FEEF14D7
:1027B000541F4EF0C2808002D280900537E0FF5453
:1027C0001F600EEF54E0FEEF14541F4EF0C2CC8099
:1027D00076D2CC8072E576D39440406BE576D39484
:1027E00060506490052FE0FF541F600EEF54E0FE30
:1027F000EF14541F4EF0C2A28002D2A2900532E024
:10280000FF541F600EEF54E0FEEF14541F4EF0C251
:10281000A48002D2A4900535E0FF541F600EEF544F
:10282000E0FEEF14541F4EF0C2A78002D2A790051D
:1028300038E0FF541F600EEF54E0FEEF14541F4EBB
:10284000F0C2838002D283D007D006D005D004D056
:1028500003D002D001D000D0D0D082D083D0F0D02D
:10286000E032E709F608DFFA8046E709F208DFFA06
:10287000803E88828C83E709F0A3DFFA8032E30987
:10288000F608DFFA8078E309F208DFFA80708882C0
:102890008C83E309F0A3DFFA806489828A83E0A352
:1028A000F608DFFA805889828A83E0A3F208DFFA0B
:1028B000804C80D280FA80C680D4806980F28033D8
:1028C000801080A680EA809A80A880DA80E280CAA0
:1028D000803389828A83ECFAE493A3C8C582C8CC8A
:1028E000C583CCF0A3C8C582C8CCC583CCDFE9DEE4
:1028F000E7800D89828A83E493A3F608DFF9ECFA76
:10290000A9F0EDFB2289828A83ECFAE0A3C8C58294
:10291000C8CCC583CCF0A3C8C582C8CCC583CCDFE6
:10292000EADEE880DB89828A83E493A3F208DFF998
:1029300080CC88F0EF60010E4E60C388F0ED240279
:10294000B4040050B9F582EB2402B4040050AF2364
:10295000234582239028B273BB010689828A83E0D3
:10296000225002E722BBFE02E32289828A83E4939B
:1029700022BB010CE58229F582E5833AF583E0224A
:102980005006E92582F8E622BBFE06E92582F8E238
:1029900022E58229F582E5833AF583E49322BB019F
:1029A0000689828A83F0225002F722BBFE01F322BD
:1029B000F8BB010DE58229F582E5833AF583E8F05D
:1029C000225006E92582C8F622BBFE05E92582C809
:1029D000F222EF8DF0A4A8F0CF8CF0A428CE8DF0D9
:1029E000A42EFE22BC000BBE0029EF8DF084FFADAB
:1029F000F022E4CCF875F008EF2FFFEE33FEEC3355
:102A0000FCEE9DEC984005FCEE9DFE0FD5F0E9E450
:102A1000CEFD22EDF8F5F0EE8420D21CFEADF0756F
:102A2000F008EF2FFFED33FD4007985006D5F0F288
:102A300022C398FD0FD5F0EA22E88FF0A4CC8BF0EA
:102A4000A42CFCE98EF0A42CFC8AF0EDA42CFCEA6A
:102A50008EF0A4CDA8F08BF0A42DCC3825F0FDE9A4
:102A60008FF0A42CCD35F0FCEB8EF0A4FEA9F0EB9A
:102A70008FF0A4CFC5F02ECD39FEE43CFCEAA42DA6
:102A8000CE35F0FDE43CFC22EB9FF5F0EA9E42F0EF
:102A9000E99D42F0E89C45F022E8600FECC313FC8E
:102AA000ED13FDEE13FEEF13FFD8F122E8600FEFF8
:102AB000C333FFEE33FEED33FDEC33FCD8F122D00F
:102AC00083D082F8E4937012740193700DA3A393E2
:102AD000F8740193F5828883E4737402936860EF5D
:102AE000A3A3A380DF8A838982E473E3F5F009E27C
:102AF00008B5F06BDFF58067E3F5F009E608B5F09F
:102B00005EDFF5805A87F009E608B5F052DFF680FF
:102B10004E87F009E208B5F046DFF6804288828CE5
:102B20008387F009E0A3B5F036DFF6803288828C27
:102B30008387F009E493A3B5F025DFF5802188822F
:102B40008C83E3F5F009E0A3B5F014DFF58010887D
:102B5000828C83E3F5F009E493A3B5F002DFF4027D
:102B60002C1A808780E9809080D4803E8015806E0A
:102B7000807E809D80B7808D80A380518074803C52
:102B8000022C2689828A83ECFAE493F5F0A3C8C567
:102B900082C8CCC583CCE493A3C8C582C8CCC58306
:102BA000CCB5F076DFE3DEE1807089828A83E4933E
:102BB000F5F0A3E208B5F062DFF4805E89828A83D3
:102BC000E0F5F0A3E608B5F051DFF5804D89828A83
:102BD00083E0F5F0A3E208B5F040DFF5803C8982A0
:102BE0008A83E493F5F0A3E608B5F02EDFF4802A9B
:102BF0008002805789828A83ECFAE493F5F0A3C8B7
:102C0000C582C8CCC583CCE0A3C8C582C8CCC58367
:102C1000CCB5F006DFE4DEE280007FFFB5F0020F06
:102C20002240027F012289828A83ECFAE0F5F0A338
:102C3000C8C582C8CCC583CCE0A3C8C582C8CCC5F2
:102C400083CCB5F0D5DFE5DEE380CF89828A83ECE3
:102C5000FAE0F5F0A3C8C582C8CCC583CCE493A341
:102C6000C8C582C8CCC583CCB5F0AFDFE4DEE28056
:102C7000A988F0EF60010E4E60ABED2402B40400B1
:102C80005098F582EB2402B40400508E2323458231
:102C900023902B6273EF4E6012EF60010EEDBB01CB
:102CA0000B89828A83F0A3DFFCDEFA2289F05007C9
:102CB000F709DFFCA9F022BBFEFCF309DFFCA9F059
:102CC00022FAE6FB0808E6F925F0F618E6CA3AF615
:102CD00022E4F52678407C007D017BFF7A50791A4A
:102CE000FE7F1812293278587C007D017BFF7A50D4
:102CF00079327E007F06122932C224905038E49344
:102D0000FE740193FFC390053CE09F90053BE09E5D
:102D1000500EA3E004F0702390053BE004F0801B0C
:102D2000E490053BF0A3F078277C00FD7B017A0559
:102D3000793DFE7F0712293212589B202328D22387
:102D40007B007A00797F7548007549017F307E00ED
:102D500012627E7B007A0079777548007549017FA1
:102D6000317E0012627E787CE6FA08E6FB7C007D0C
:102D70003CFFAE021229E4900542EFF07C007D3C5E
:102D8000AF03AE021229E4A3EDF0C3787DE6941000
:102D900018E6940E402DE4787CF608F6900541E0A4
:102DA000C394184004E4F08006900541E004F090DC
:102DB000053FE0D3940740057401F0800690053F7D
:102DC000E004F07B017A00795812512B900058E012
:102DD000FF547FFEBE7F04D225806EEF30E76890FF
:102DE0000059E0131313541FFF7E007C007D3C123A
:102DF00029D2A3E02FFBEC3EFA900541E0FF7E00D4
:102E00001229D2A3E0F92FFFEC3EFED3EF9BEE9AFE
:102E1000403190005CE0131313541FFF7E00122911
:102E2000D2A3E02FFBEC3EFA900541E0FF7E0012BA
:102E300029D2E92FFFEC3EFED3EF9BEE9A5004D24D
:102E4000258006C2258002C2257B017A00794012C6
:102E5000503CE4F526E52675F003A42440F582E411
:102E60003400F583E0C4131313540130E004D22678
:102E70008009C2260526E526B408DA20260302309A
:102E80009FE4F526E52675F003A42440F582E4349A
:102E900000F583E0547FFD90053FE0FF1264694038
:102EA00003023093E52675F003A42440F582E43450
:102EB00000F583E0C4131313540120E003023093A0
:102EC000E52675F003A42441F582E43400F583E09F
:102ED000131313541FFF7E007C007D3C1229D2E5A2
:102EE0002675F003A42442F582E43400F583E02F34
:102EF000FBEC3EFA900541E0FF7E001229D2A3E0F0
:102F0000F92FFFEC3EFEEFB50309EEB502053024C4
:102F100002C224E52675F003A42441F582E43400BE
:102F2000F583E0131313541FFF7E007C007D3C12D9
:102F300029D2E52675F003A42442F582E43400F595
:102F400083E02FFBEC3EFA900541E0FF7E00122962
:102F5000D2E92FFFEC3EFEEF6B7002EE6A600302D7
:102F60002FFF302403022FFF753AFF753B4F753C4E
:102F700091F53D85263E7B017A0079001238477B2A
:102F8000017A0079001263DFD22474017E00A82642
:102F9000088005C333CE33CED8F9FF787EE6FDFB3B
:102FA000EF5B602EAF267401A807088002C333D8F8
:102FB000FCF45D787EF6E52675F003A42410FFE4AA
:102FC00035F0FE7BFF7A50793A753700753801127B
:102FD0005FC49005487402F0E52675F003A424410F
:102FE000F582E43400F583E05407900547F090053E
:102FF0004BE04401F0900264E04410F0023093E5AD
:103000002675F003A42441F582E43400F583E0132F
:103010001313541FFF7E007C007D3C1229D2E5264D
:1030200075F003A42442F582E43400F583E02FFB1D
:10303000EC3EFA900541E0FF7E001229D2A3E02F7A
:10304000FFEC3EFED3EF9BEE9A404874017E00A851
:1030500026088005C333CE33CED8F9FF787EE6FD4F
:10306000FBEF5B602EAF267401A807088002C33314
:10307000D8FCF45D787EF6E52675F003A42410FFF5
:10308000E435F0FE7BFF7A50793B753700753801E7
:10309000125FC40526E526C394085003022E84223D
:1030A00078C87C007D017BFF7A0C79447E007F40EC
:1030B0001229329001087402F0E4F526900339E0F9
:1030C00030E01354FEF0A3E0F50DE490025CF0A3B1
:1030D000F0A3F0D2A32290025CE0D3940F403EE430
:1030E000F0A3F0A3F0D2A3900544740AF0750D018B
:1030F000756C037E007F407D007B017A0479D312DA
:103100002C95753AFF753B00753C687B017A047914
:10311000D31238477B017A0479D30263DF20020996
:1031200090025CE070037407F090025CE0FF6407BB
:103130006003EF7006900544740AF090025BE06F44
:103140006042A3E090025BF07E007F407D007B0147
:103150007A0479D3122C95753AFF753B00753C8E35
:1031600090025BE0753D00F53EA202E433753F003E
:10317000F5407B017A0479D31238477B017A0479D0
:10318000D31263DF90025CE0FF600302320EEF6057
:103190000302345F90025DE014601714603424026F
:1031A000600302345FC2A390026BE4F0A374C80210
:1031B00033F390026BE07002A3E0600302345FD24D
:1031C000A390026B7417F0A37470F090025D740208
:1031D000F02290026BE07002A3E0700490025DF0B8
:1031E00020160302345FC2167549FF754A07754BF6
:1031F0003C90077CE493F54C7B017A0379457D8014
:10320000125ADBEA494B700302345F0234529002D7
:103210005CE0FFD394005003023312EF94094003A3
:10322000023312A3E01470030232BE0460030234BE
:103230005F90025CE0FF900108B40705740CF08019
:10324000037402F0900108E0FE90025EE0D39E401D
:10325000030233B4EF75F086A4FFAEF024F9F974DD
:10326000063E7548FFF549894A754B0274FB2FF9F4
:1032700074063E754CFFF54D894E90025CE075F08A
:1032800086A4243BF582E5F03407F5831254B88F09
:10329000267B017A0079C8AD261264E090025CE0DA
:1032A00075F086A4247DF582E5F03407F583E49378
:1032B000FF74019390026BCFF0A3EF0233F39002FF
:1032C0006BE07002A3E070030234052016030234A1
:1032D0005FC21690025CE075F086A4243CF9740786
:1032E00035F07549FFF54A894BE075F086A4247CDA
:1032F000F582E5F03407F583E493F54C7B017A031E
:1033000079457D80125ADBEA494B700302345F0233
:10331000345290025CE0C39409500302345F782772
:103320007C007D007BFF7A0C79847E007F1012295F
:1033300032900BF1E493FF7E0078277C007D007BC8
:10334000FF7A0B79B112293290025CE0FDC3940C34
:10335000502EE0FF75F003A42420F582E4340CF530
:1033600083E493F527EF75F003A42421F582E43478
:103370000CF583E493FE740193F52AEEF52B801E81
:1033800074622DF8E6FFC394105003023459EF9491
:10339000FF40030234598F27752A0DE4F52B900264
:1033A0005DE014605604600302345F90025EE0D377
:1033B00094024007E4F090025CF0227548FF7549E2
:1033C0000B754AAF754B02754C00754D00754E2755
:1033D000900BF11254B88F267B017A0079C8AD2684
:1033E0001264E0900C33E493FF74019390026BCF6E
:1033F000F0A3EFF090025D7401F02290026BE07098
:1034000002A3E0700C90025EE004F0E490025DF034
:103410002230164BC2167549FF754A0B754BF29058
:103420000C32E493F54C7B017A0379457D80125A86
:10343000DBEA494B701C7549FF754A0C754B3575B5
:103440004C067B017A0379457D80125ADBEA494BB1
:10345000600DE490025DF0A3F090025CE004F022C5
:103460000273000001750001760043052D00000085
:1034700043053000000043053300000043053600DB
:1034800000004105390341053A0042052801F44294
:10349000052A000041052C08C1A701723B017101FA
:1034A000036E000000604004D30000000000000034
:1034B000000000000000000000000000000000000C
:1034C00000000000000000000000000000000000FC
:1034D00000000000000000000000000000000000EC
:1034E0000000000000000000004604CD00000000C5
:1034F00000004604C7010101010101C1284305186C
:1035000000000043051B00000043051E00000043AF
:103510000525000000016D08016B05016C00016AC2
:103520000042051600004105213C410514004305F9
:10353000220000004105150002540000C11F410592
:10354000130001561FC1A0015700015800C1A1017D
:103550005900015A00015B00015C00015D00015E41
:1035600000C1A2015F000160000161000162000171
:1035700063000164000165000166000167000168E5
:1035800000016900C129430552000000604C026D32
:10359000000000000000000000000000000000002B
:1035A000000000000000000000000000000000001B
:1035B000000000000000000000000000000000000B
:1035C00000000000000000000000000000000000FB
:1035D000000000000000000000000000604C02EB52
:1035E00000000000000000000000000000000000DB
:1035F00000000000000000000000000000000000CB
:1036000000000000000000000000000000000000BA
:1036100000000000000000000000000000000000AA
:10362000000000000000000000000000420337001E
:1036300000603102B900000000000000000000003E
:10364000000000000000000000000000000000007A
:10365000000000000000000000000000000000006A
:1036600000000000000046033B0000000000004690
:1036700002640000000000000110A14203390000B4
:10368000C115C11242026B00004203430000C11485
:1036900041026A004103C614410341004103420351
:1036A0004302600000004102EA0041026300C116CB
:1036B000C113010E00010F006081034500000000EE
:1036C00000000000000000000000000000000000FA
:1036D00000000000000000000000000000000000EA
:1036E00000000000000000000000000000000000DA
:1036F00000000000000000000000000000000000CA
:1037000000000000000000000000000000000000B9
:1037100000000000000000000000000000000000A9
:103720000000000000000000000000000000000099
:1037300000000000000000000000000000010D007B
:1037400041025C0041025D0041025E0041025BFFFC
:10375000010800010900010A0041025F00020B009C
:1037600000C10FC111C190011E00C19EC11D021CEC
:103770000000420550000042054E00000118000103
:103780001900C117C118C119011A00C11AC11BC102
:103790001C011B0041054D0241054A00420547003E
:1037A0000341054900C12A42054B000047053D0081
:1037B0000000000000004105440A4105450841059C
:1037C0004600027C0000017E00C126C125017F0069
:1037D00002780000018100018000027A0000017778
:1037E0000042053B0000C123C12B00E546243AF806
:1037F000E60546227837300D02783AE475F001127A
:103800002CC10229582006EB7F2ED2068018EF54D7
:103810000F2490D43440D4FF300A0BEF24BFB41AE5
:103820000050032461FFE54760021547054AE54A59
:1038300070020549300D0D7837E475F001122CC186
:10384000EF02299E0264937403D20D8003E4C20D3B
:10385000F5468B378A388939E4F547F549F54AE565
:103860004760077F2012382680F57548FFC207C2DF
:1038700006C208C209C20BC20CC20E1237F4FF7096
:103880000D300D057F00123837AF4AAE4922B425FE
:103890005FC2D5C20A1237F4FF24D0B40A00501A0E
:1038A00075F00A784730D50508B6FF0106C6A4268C
:1038B000F620D5047002D20980D924CFB41A00EFC3
:1038C0005004C2E5D20A023A37D20780C6D2068037
:1038D000C0D20880BCD2D580BAD20B80B47F20126F
:1038E00038262008077401B5470040F11237EBFF76
:1038F00012382602385FD20ED20C80951237EBFBBD
:103900001237EBFA1237EBF94A4B700679087A3B1B
:103910007BFF20082EE547602A7E008E827583009B
:1039200012297160060EEE654870F0C2D5EBC0E05A
:10393000EAC0E0E9C0E0EE123A7ED0E0F9D0E0FA69
:10394000D0E0FB122958FF60AAEBC0E0EAC0E0E932
:10395000C0E0123826D0E02401F9D0E03400FAD0DB
:10396000E0FBE5480460DCD548D980877BFF7A3AE4
:10397000797AD208809C791080027908C20CC20E34
:103980008008D2D5790A8004790AC2D5E548047046
:1039900002F548E4FAFDFEFF1237EBFC7B08200736
:1039A000131237EBFD7B1030060A1237EBFE12378D
:1039B000EBFF7B20EC3382D592D55013C3E4300665
:1039C000069FFFE49EFEE42007039DFDE49CFCE4CB
:1039D000CBF8C207EC700CCFCECDCCE824F8F87051
:1039E000F38017C3EF33FFEE33FEED33FDEC33FC12
:1039F000EB33FB994002FB0FD8E9EB300705F8D019
:103A0000E0C448B207C0E00AEC4D4E4F78207B007E
:103A100070C2EAB5480040BCC0E0123A80D0F0D095
:103A2000E0200704C4C0E0C4B207C0F012380FD0D1
:103A3000F0D5F0EB02385F122ABF38FC53397658C4
:103A400038CD4C38C942397A4F39824439824938A5
:103A5000E243398855396C46396C45396C473B2807
:103A60005038D12D38D52E38F82B38D92338F620B8
:103A70003B112A389148000038F03F3F3F00790A57
:103A8000A2D5200914300B09B910020404B90801A9
:103A900004A2D5200C025001042008689208B54702
:103AA000005034C0E07F203009197F30A208720C2A
:103AB000720B500F123AD7C208C20CC20BC20E7F53
:103AC00030800F300B03E9C0E0123826300B03D0F2
:103AD000E0F9D0E0B547CC300B177F30B9100C12AD
:103AE00038267F58300A077F788003B908031238D8
:103AF000263008057F2D0238267F20200EF87F2BE8
:103B0000200CF322920880CF286E756C6C2900D2AD
:103B1000071237EB3007F8C207784730D50108F6AF
:103B20000238912D504349581237EB2403B4050055
:103B30004001E4903B2393123817743A123817D29D
:103B400009754704023976900516E0FEA3E04E7031
:103B50007B900516F0A3740CF090636FE493FFE57F
:103B600064D39F401CE4F564E565D394074005E405
:103B7000F56580020565E4F569F568F567F5668029
:103B80004B0564E564C394004009E5649420500348
:103B9000856466E564C39420400CE5649440500657
:103BA000E56424E0F567E564C39440400CE5649463
:103BB000605006E56424C0F568E564C39460400C79
:103BC000E56494805006E56424A0F569E565B407D2
:103BD000004003023E6D903BDDF8282873023BF263
:103BE000023C2D023C59023CAF023CE9023D270257
:103BF0003DA5E56675F00584541FFF900526E05449
:103C0000E04FF0E56775F00584541FFF90051FE055
:103C100054E04FF0E56875F00584541FFF90051CD3
:103C2000E054E04FF0E56975F005848079E566546D
:103C30001FFF900525E054E04FF0E567541FFF900B
:103C4000051EE054E04FF0E568541FFF90051BE0AF
:103C500054E04FF0E569023D1EE56675F00584FF0E
:103C6000C374069F541FFF900526E054E04FF0E513
:103C70006775F00584FFC374069F541FFF90051FEE
:103C8000E054E04FF0E56875F00584FFC374069FCB
:103C9000541FFF90051CE054E04FF0E56975F005F6
:103CA00084FFC374069F541FFF900519023E68E508
:103CB00066C313541FFF900527E054E04FF0E567FB
:103CC000C313541FFF900520E054E04FF0E568C394
:103CD00013541FFF90051DE054E04FF0E569C31336
:103CE000541FFF90051A023E68C3741F9566541F47
:103CF000FF900525E054E04FF0C3741F9567541FF3
:103D0000FF90051EE054E04FF0C3741F9568541FE8
:103D1000FF90051BE054E04FF0C3741F9569541FDA
:103D2000FF900518023E68E56675F00384541FFF96
:103D3000900526E054E04FF0E56775F00384541FCA
:103D4000FF90051FE054E04FF0E56875F0038454E0
:103D50001FFF90051CE054E04FF0E56975F0038407
:103D6000541FFF900519E054E04FF0E566C313546B
:103D70001FFF900525E054E04FF0E567C313541F83
:103D8000FF90051EE054E04FF0E568C313541FFF99
:103D900090051BE054E04FF0E569C313541FFF90FA
:103DA0000518023E68E566C313FFC3740F9F541FD6
:103DB000FD900527E054E04DF0E567C313FFC374A1
:103DC0000F9F541FFC900520E054E04CF0E568C3C1
:103DD00013FFC3740F9F541FFB90051DE054E04B6D
:103DE000F0E569C313FFC3740F9F541FFF90051ABA
:103DF000E054E04FF0E56675F00384FEC3740A9E5C
:103E0000541FFE900526E054E04EF0E56775F00380
:103E100084FEC3740A9E541FFE90051FE054E04EBA
:103E2000F0E56875F00384FEC3740A9E541FFE908B
:103E3000051CE054E04EF0E56975F00384FEC374A0
:103E40000A9E541FFE900519E054E04EF09005259F
:103E5000E054E04DF090051EE054E04CF090051B5E
:103E6000E054E04BF0900518E054E04FF02278C9A0
:103E70007C007D017BFF7A0D793E7E007F601229F8
:103E800032E4F52678297C017D017BFF7A0D799E4D
:103E9000FE7F40122932E4F52778287C00FD7BFF65
:103EA0007A0D79DEFE7F03122932900339E0FF306C
:103EB000E00D54FEF0A3E0F50DE4F509F50A22E467
:103EC000F5289002B6E0F529752A0D7548FF754969
:103ED0000D754AE1754B02754C00754D00754E2805
:103EE000754F037B017A0179291254C28F27900202
:103EF000B7E0FCA3E0FD9002B6E0F536753701753A
:103F0000380275396D9002B5E0F53A7B017A007997
:103F1000C9125A548F26E50914604B1470030240ED
:103F2000221470030240FB14700302410A2404604F
:103F300003024178E50AD394034009750801E4F5CA
:103F40000A024178D2A3900338E020E00B7B017A8B
:103F50000079C9AD261264E090026B7403F0A3747B
:103F6000E8F075090122900337E0C313FEA3E013C4
:103F7000FFEE547FFCAD0790026BE0FAA3E0FBFF7D
:103F8000AE021229E49000C8EFF0EB4A7006050A71
:103F9000F509805D900338E030E0199000C8E0FF3B
:103FA00090025FE06F600DEFF07B017A0079C9ADA0
:103FB000261264E020160302417BC2167549017582
:103FC0004A01754B2985274C7B017A0379457D8011
:103FD000125ADBEA494B601E900333E07005750905
:103FE00003800D75090290026B7401F0A374F4F064
:103FF000E490025FF02278477C037D017BFF7A0D1D
:1040000079E17E007F02122C71EF600302417B9008
:104010000349E0F508900338E030E00302417B02F9
:10402000417890026BE07002A3E07005050AF50983
:104030002220160302417B90034DE0FDA3E0788827
:10404000F6ED08F6900350E008F6C216900345E03E
:1040500064FE60337E007F407D007B017A0479D36B
:10406000122C95753AFF753B00753CC8900345E0EE
:10407000753D00F53E7B017A0479D31238477B0108
:104080007A0479D31263DF900333E0FF7E00785A1D
:104090007C037D017B017A0279EB122C71EF701F9A
:1040A0007888E6FE08E6FF900335E0B50611A3E048
:1040B000B5070C900334E008667004750903227E8E
:1040C000007F407D007B017A0479D3122C95753AEC
:1040D000FF753B00753CDD788AE6753D00F53E785E
:1040E00088E6FE08E68E3FF5407B017A0479D3121C
:1040F00038477B017A0479D30263DF301507C21594
:10410000750D03805C750D018057301507C215755C
:104110000D038003750D01E50860467E007F407D3C
:10412000007B017A0479D3122C95753AFF753B0117
:10413000753C03753D0085083E7B017A0479D312F6
:1041400038477B017A0479D31263DFE508243360B2
:104150000A24E4600624E970028000756A01E4F52F
:1041600008E4F50AF509900338E054FEF0E4900302
:1041700037F0A3E05401F02275090422302510E540
:104180006C64036005E56CB40220756C04801BE56B
:104190006CB4040312668C900521E0700DE56CB4DC
:1041A00003087F0F125CD7756C02E56C14B407002E
:1041B000400302442F9041C375F003A4C58325F04A
:1041C000C583730244320241D80241DB0241DB0263
:1041D00043F002442702442C023B47E57130E06C77
:1041E00090054AE030E02CE56D75F003A42447F516
:1041F00082E43463F583E493541FFDE56D75F003A9
:10420000A42448F582E43463F583E493541FFBE56A
:104210006D802AE56B75F003A42447F582E43463CE
:10422000F583E493541FFDE56B75F003A42448F572
:1042300082E43463F583E493541FFBE56B75F0036C
:10424000A42449F582E43463F583800F906344E449
:1042500093541FFDA3E493541FFBA3E493541FF551
:1042600029E4FF125DC1E57130E16C90054AE03050
:10427000E12CE56D75F003A42447F582E43463F581
:1042800083E493541FFDE56D75F003A42448F58283
:10429000E43463F583E493541FFBE56D802AE56BFA
:1042A00075F003A42447F582E43463F583E4935462
:1042B0001FFDE56B75F003A42448F582E43463F533
:1042C00083E493541FFBE56B75F003A42449F58246
:1042D000E43463F583800F906344E493541FFDA39B
:1042E000E493541FFBA3E493541FF5297F01125D4F
:1042F000C1E57130E26C90054AE030E22CE56D7565
:10430000F003A42447F582E43463F583E493541F57
:10431000FDE56D75F003A42448F582E43463F5836C
:10432000E493541FFBE56D802AE56B75F003A4242C
:1043300047F582E43463F583E493541FFDE56B7520
:10434000F003A42448F582E43463F583E493541F16
:10435000FBE56B75F003A42449F582E43463F5832F
:10436000800F906344E493541FFDA3E493541FFB18
:10437000A3E493541FF5297F02125DC1D3906365B6
:104380007401939555E493955440090555E555708E
:1043900002055422B21FE4F554F555E56A14601580
:1043A00014601A14602014602F2404703FE4F5296F
:1043B0007B1EFD8021E4F529FB7D1E8019E4F52993
:1043C0007B0A7D1E8021E4301F08F5297B0A7D1EB3
:1043D0008004F529FBFD800FE4301F07F529FB7DE4
:1043E0001E8004F529FBFD7F03025DC1E4F56A220E
:1043F000900514E060047F01802F12668C7E007FA0
:10440000407D007B017A0479D3122C95753AFF75B3
:104410003B63753C347B017A0479D31238477B01C6
:104420007A0479D30263DFE4FF0246E80256267578
:104430006C03228B268A27892878487C017D017BA2
:10444000FF7A0D79E67E007F22122932AB26AA2759
:10445000A928122958900148F0900001122971FFF3
:104460007E00E92402F9E43AFA78497C017D0112E0
:104470002932AB26AA27A9289000011229719001A0
:1044800069F0900148E02497606414700302463498
:1044900024FE700302468F147003024663240560F5
:1044A000030246E7C202D204900149E0F52D125FF3
:1044B000629202900149E0FF1266737E007F407DA8
:1044C000007B017A0479D3122C95753AFF753B0174
:1044D000753CA4900149E0753D00F53E7B017A04EE
:1044E00079D31238477B017A0479D3024631C2026C
:1044F000C203E4F52CF52BF52AF529900149E0FFDC
:10450000E52C4FF52CE52BF52BE52AF52AE529F5C9
:1045100029A3E0FFE4FCFDFE7808122AACE52C4F4D
:10452000F52CE52B4EF52BE52A4DF52AE5294CF522
:1045300029A3E0FFE4FCFDFE7810122AACE52C4F25
:10454000F52CE52B4EF52BE52A4DF52AE5294CF502
:1045500029A3E0FFE4FCFDFE7818122AACE52C4FFD
:10456000F52CE52B4EF52BE52A4DF52AE5294CF5E2
:1045700029A3E0FF900545E0B5070C90014EE0FE51
:10458000900546E06E6033900545EFF090014EE0F7
:10459000900546F07B017A0579457537007538013D
:1045A0007F037E00125FC47B017A05794675370070
:1045B0007538017F047E00125FC490014FE06002F5
:1045C000D2037F807E437D6D7C38AB2CAA2BA92A39
:1045D000A829D3122A88401DE52C2480FFE52B341E
:1045E000BCFEE52A3492FDE52934C7FCA2039204FF
:1045F0001248D29202753AFF753B01753CC5900195
:104600004CE0753D00F53E90014BE0753F00F540F4
:1046100090014AE0754100F542900149E075430080
:10462000F5447B017A0079C81238477B017A00791A
:10463000C80263DF7E007F407D007B017A0479D36E
:10464000122C95753AFF753B01753CEE7B017A049F
:1046500079D31238477B017A0479D31263DFC2041D
:1046600002616E753AFF753B02753C0B900149E0A3
:10467000753D00F53E7B017A0179081238477B01D0
:104680007A0179081263DF900149E0FF1265BD905D
:10469000054AE07888F69002EAE0FF900149E06F71
:1046A00060457E007F407D007B017A0479D3122C27
:1046B00095753AFF753B02753C307B017A0479D3DE
:1046C0001238477B017A0479D31263DF900149E005
:1046D0009002EAF0D39407500E9005487402F090CF
:1046E00002EAE0900547F022AD07E55E701D20224A
:1046F0001A90636E93FFE55FC39F5004055F800BC4
:10470000E4F55FF563F562F561F560E55E7004D28E
:10471000228009E55ED394504002C222900516E043
:104720007002A3E07075AF5E202204155E80020562
:104730005EEF541FFF90636CE493FEEF8EF084FFF6
:10474000A3E493FEEF8EF0A4FF900516E5F0F0A32E
:10475000EFF0E55EC394004009E55E9420500385C8
:104760005E60E55EC39410400CE55E94305006E553
:104770005E24F0F561E55EC39420400CE55E944054
:104780005006E55E24E0F562E55EC39430400CE53A
:104790005E94505006E55E24D0F563ED147003027C
:1047A000483C0460030248D1E55F60030248D13011
:1047B0002258E55EC3942E5017E55E75F00F84E530
:1047C000F0D3940A900527E050030248600248990C
:1047D000E55ED3942D4007900527E0441FF0E55E89
:1047E000D394324007900520E0441FF0E55ED39457
:1047F0003C400790051DE0441FF0E55ED394465011
:10480000030248D190051A024898E563541FFF90AF
:104810000527E054E04FF0E562541FFF900520E0CB
:1048200054E04FF0E561541FFF90051DE054E04F48
:10483000F0E560541FFF90051A0248CCE55F600365
:104840000248D1302257E55EC3942E5017E55E75BD
:10485000F00F84E5F0D3940A900526E040028039F9
:1048600054E0F022E55ED3942D4007900519E04412
:104870001FF0E55ED39432400790051CE0441FF022
:10488000E55ED3943C400790051FE0441FF0E55ED1
:10489000D39446403C900526E0441FF022E5635443
:1048A0001FFF900519E054E04FF0E562541FFF90A0
:1048B000051CE054E04FF0E561541FFF90051FE038
:1048C00054E04FF0E560541FFF900526E054E04FA0
:1048D000F0228F308E2F8D2E8C2D786A7C017D01F9
:1048E0007BFF7A0679EE7E007F0B122932C20585A6
:1048F0003034852F33852E32852D31200403024A32
:1049000012900545E0D3940C5041900546E0FFE439
:10491000FCFDFE7B3CFAF9F8122A39C004C005C040
:1049200006C007900545E0FFE4FCFDFE7B107A0E13
:10493000F9F8122A39D003D002D001D000EF2BFFB2
:10494000EE3AFEED39FDEC380249FD900545E0FFF9
:10495000D3940C405EEFD394185058E024F4FFE455
:1049600034FFFEE4FCFD7B107A0EF9F8122A39C000
:1049700004C005C006C007900546E0FFE4FCFDFE4C
:104980007B3CFAF9F8122A39D003D002D001D000CA
:10499000EB2FFBEA3EFAE93DF9E83CF8C3E5349B2E
:1049A000F534E5339AF533E53299F532E53198F58A
:1049B00031805F900545E0FFC3941E4055EF24EF22
:1049C000FFE434FFFEE4FCFD7B107A0EF9F8122AB6
:1049D00039C004C005C006C007900546E0FFE4FCEE
:1049E000FDFE7B3CFAF9F8122A39D003D002D0013F
:1049F000D000EB2FFFEA3EFEE93DFDE83CFCE5344C
:104A00002FF534E5333EF533E5323DF532E5313C03
:104A1000F531E534FF90016AEFF0E4FFE533FEE4A1
:104A2000FDFC7808122A99A3EFF0E4FFFEE532FDC1
:104A3000E4FC7810122A99A3EFF0E4FFFEFDE531C3
:104A4000FC7818122A99A3EFF075380175390175B1
:104A50003A6A9006AAE493F53B753CFF753D0675EE
:104A60003EAB9006EBE493F53F754002A3E493F56B
:104A700041740193F5427BFF7A06796812580192DE
:104A800005A20522E4F526F527F52812660DEF703C
:104A900003024B39201A23D21A9054B6E493FF74C0
:104AA0000193900550CFF0A3EFF090054E7401F004
:104AB000A3745EF012660D8F1A2212660DEF651A4E
:104AC0006003024BCC900550E0FEA3E0FFC390547E
:104AD000B67401939FF528E4939EF527C39054B2D2
:104AE0007401939528E4939527501BC39054B47494
:104AF00001939528E4939527400C201B09D21B7D38
:104B000004AF1A124D03C39054B47401939528E472
:104B10009395274003024BCCC39054B674019395F0
:104B200028E49395275003024BCC301C03024BCC56
:104B3000D21C7D05AF1A024D03301A5C900550E07F
:104B4000FEA3E0FFC39054B67401939FF528E4934D
:104B50009EF527C39054B07401939528E49395274C
:104B60005036C39054B27401939528E4939527402E
:104B70002790054EE07002A3E06002051BE51BD301
:104B8000940150047D0280027D03AF1A124D037B15
:104B9000027D327F0312650690054EE07002A3E0AD
:104BA000701DE51B6019F526E4F51BE526C394028C
:104BB000400AAD26AF1A125E34E4F526E4F51AC2B7
:104BC0001BC21CE4900550F0A3F0C21A22AB32AA1B
:104BD00033A934900002E5361229B0900003E5377E
:104BE0001229B020070EAB32AA33A93490000AE58F
:104BF000721229B0E5342405F9E43533A801FCAD7F
:104C0000327B017A0479CE7E007F05122932AB32E5
:104C1000E5342405F9E43533FA7D1C126415AB3212
:104C2000AA33A934900004EF1229B0200603024CE5
:104C3000E7785B7C017D017BFF7A0479F07E007F61
:104C400040122932AB32AA33A93474CC12299EE522
:104C500035240CAB32AA33A9349000011229B0E5F7
:104C60003524F3FFE434FFFEE92401F9E43AFA784D
:104C70005B7C017D01122932E53524FFFFE434FF1E
:104C8000FE7D00AB32E5342401F9E43533FA122C11
:104C900095E53524F3FFE434FFFEE534240DF9E413
:104CA0003533A801FCAD327B017A01795B122932E0
:104CB000E5342401F9E43533A801FCAD327B017AF7
:104CC0000479C77E007F06122932E5342408F9E40E
:104CD0003533A801FCAD327B017A0479CE7E007FAA
:104CE000051229327F2D22AB32AA33A93474AA12BD
:104CF000299EAB32AA33A934900001E5351229B0C0
:104D00007F21228F29ED24FD606C147003024DC1B8
:104D1000147003024DFE24036003024E2E7E007FBA
:104D2000407D007B017A0479D3122C95753AFF758A
:104D30003B54753C14753D0085293E7B017A04790E
:104D4000D31238477B017A0479D31263DFE5292433
:104D5000FE600B24FE600724036003024E2E9005C4
:104D6000487401F0900547E529F0900549F0900559
:104D70004BE04401F0227E007F407D007B017A04FD
:104D800079D3122C95753AFF753B54753C30753DBF
:104D90000085293E7B017A0479D31238477B017A5A
:104DA0000479D31263DFE52924FE600824FE600441
:104DB0002403707A9005487401F0900547E529F0C6
:104DC000227E007F407D007B017A0479D3122C95EE
:104DD000753AFF753B54753C4A753D0085293E7B0D
:104DE000017A0479D31238477B017A0479D31263AC
:104DF000DFE52924FC60028035D20402616E7E006A
:104E00007F407D007B017A0479D3122C95753AFF9F
:104E1000753B54753C67753D0085293E7B017A04DE
:104E200079D31238477B017A0479D31263DF22C227
:104E30000278C87C007D017BFF7A0679417E007F85
:104E400020122932E4FF7538FF753906753A667508
:104E50003B01753C00753DC8753E02753F017540CC
:104E60002C7BFF7A0679617D05125C5EEF7005C2CE
:104E700002024F369000D6E0FE9000D5E0FDEEF540
:104E800026EDF527E4F528F529AE26AF277C077D2A
:104E9000D01229E48D2A9000D3E0F52BA3E0F52C65
:104EA000E4F52D852A28E52B64016005E52BB40285
:104EB0000AE52B240CF52915288003852B29E529E3
:104EC0002401FFE433FE7C007D1A1229D27D0A12F0
:104ED00029E4E5281313543F25282F252C24DCF53D
:104EE0002D75F0078485F02DE52D90053F6003F0CA
:104EF00080037407F090053EE52BF0900540E52C0B
:104F0000F090053DE52AF09000D0E0900541F0904A
:104F100000D1E0900542F09000D2E0900543F0FD12
:104F2000900542E075F03CA4AEF07C002D787DF653
:104F3000EC3E18F6D202A202220A3E3E3D3D3DCA98
:104F4000B1BCE4B4C13D3D3D3C3C0A2020202032B0
:104F500030253032642F253032642F253032642DD5
:104F600057253031640A00202020202020202025D1
:104F70003032643A253032643A253032640A0074A3
:104F8000696D655A6F6E655F483A253032642E0A46
:104F9000003E3E3E3E3E3E3E3E74696D65722D25AE
:104FA0003032645F55502121212E0A00000000009C
:104FB00000000000000000000000000000000000F1
:104FC00000000000000000000000000000000000E1
:104FD00000000000000000000000000000000000D1
:104FE00000000000000000000000000000000000C1
:104FF00000000000000000000000000000000000B1
:1050000000000000000000000000000000000000A0
:105010000000000000000000000000000000000090
:105020000000000000000000000000000000000080
:105030000000000000000000138800008B278A2871
:105040008929782A7C007D007BFF7A4F79AC7E002D
:105050007F18122932E4F542FB7A00792AF5487567
:1050600049187F10FE12627EE4F542E54275F003B6
:10507000A4242AF8E6547FFFAB2775F003E542A489
:105080002529F9E52835F0FA12295854804FFF12E6
:10509000299EE54275F003A4242AF8E65480C4133F
:1050A00013135401C43333335480FEEF547F4E1234
:1050B000299EE54275F003A4242BF8E654E0C413BE
:1050C0005407FDE54275F003A4AB272529F9E5282F
:1050D00035F0FAE92401F9E43AFA12295854F84D66
:1050E000FF12299EE54275F003A4242BF8E6541F15
:1050F00033333354F8FEEF54074E12299EE54275C0
:10510000F003A4242CF8E6FDE54275F003A4AB27D8
:105110002529F9E52835F0FA900002ED1229B005AD
:1051200042E5426408600302506B228B278A28897B
:1051300029782A7C007D007BFF7A4F79C47E007F2E
:1051400006122932E4F530FB7A00792AF5487549D0
:10515000067F32FE12627EE4F530E53075F003A47E
:10516000242AF8E6547FFFAB2775F003E530A42529
:1051700029F9E52835F0FA12295854804FFF1229F1
:105180009EE53075F003A4242AF8E65480C4131376
:10519000135401C43333335480FEEF547F4E12292D
:1051A0009EE53075F003A4242BF8E654E0C41354B4
:1051B00007FDE53075F003A4AB272529F9E528356F
:1051C000F0FAE92401F9E43AFA12295854F84DFFAB
:1051D00012299EE53075F003A4242BF8E6541F3302
:1051E000333354F8FEEF54074E12299EE53075F024
:1051F00003A4242CF8E6FDE53075F003A4AB2725C5
:1052000029F9E52835F0FA900002ED1229B00530B1
:10521000E5306402600302515A22900344E07003B7
:105220000252D1900343E030E03378C87C007D0126
:105230007BFF7A0D79E37E007F03122932900343CE
:10524000E054FEF07B017A0079C87530037D0E745E
:10525000FFFFFE1261B87F327E001265D2E50B704F
:105260006AE50C1460191460332402705EC2A390C6
:10527000026BE4F0A374C8F0750B00750C0122906A
:10528000026BE07002A3E0707DD2A390026B7417F2
:10529000F0A37470F0750B00750C022290026BE0A5
:1052A0007002A3E07060F50BF50CFE7F40FD7B0102
:1052B0007A0479D3122C95753AFF753B01753C46FB
:1052C000900344E0753D00F53E8029E4F50BF50CB4
:1052D00022E4F50BF50CD2A3750D03756C03FE7F6C
:1052E00040FD7B017A0479D3122C95753AFF753B0A
:1052F00001753C6A7B017A0479D31238477B017AC5
:105300000479D31263DF22E4F52890054AE0FFF523
:1053100028E52724FE602904705CE52630E007EFCD
:10532000640190054AF0E52630E10790054AE06403
:1053300002F0E52630E23F90054AE06404F0803652
:10534000E52690054A30E006E04401F08004E05490
:10535000FEF0E52690054A30E106E04402F08004C4
:10536000E054FDF0E52690054A30E206E04404F002
:105370008004E054FBF0126370E490054CF090055B
:105380004AE0FF540790054CF0EF5401FFE5285424
:10539000016F6006E04420F0802A90054AE0FC544A
:1053A00002FEE52854026E600990054CE04440F08E
:1053B0008012EC5404FFE52854046F600790054CFC
:1053C000E04480F090054AE0FF6006E4787AF60851
:1053D000F690054DE0B401158F287B007A007928FE
:1053E0007537007538017F027E00125FC422746F2A
:1053F000756368506164207370656369616C2074C3
:105400007269673A6E776B4F70656E3A2530326419
:10541000732E0A00746F7563685061643A253032E8
:10542000582C2073686F727450726573732E0A0063
:10543000746F7563685061643A253032582C20636C
:105440006E7450726573732E0A00746F75636850C2
:1054500061643A253032582C206C6F6E675072654B
:1054600073735F412E0A00746F7563685061643A0C
:10547000253032582C206C6F6E6750726573735FE5
:10548000422E0A00746F7563685061643A253032A9
:10549000582C202530325874696D65207072657300
:1054A000734F7665722E0A00000A0BB82710EA6067
:1054B00000140BB82710EA60E493F54F7B017A00E3
:1054C00079C88B458A468947854F50E4F551AE51DE
:1054D00005518E82F58374FE1229B0AF5105518FAC
:1054E00082758300E54F1229B0AF4B7E007C00E54A
:1054F000472551F9EC3546A801FCAD45AB48AA4912
:10550000A94A122932E54B2551F551E4FEEEC39527
:105510004B5013AB48AA49A94A8E827583001229C1
:105520007162500E80E7AF4F7E007C00E547255149
:10553000F9EC3546A801FCAD45AB4CAA4DA94E127D
:105540002932E54F2551F551E4FEEEC3954F501336
:10555000AB4CAA4DA94E8E82758300122971625000
:105560000E80E7AB45AA46A947AF5105518F82751A
:105570008300E5501229B0AF51226D61635F7265FF
:10558000616C65733A253032582025303258202519
:10559000303258200025303258202530325820250E
:1055A0003032582E0A000000000000000000000009
:1055B00000000000000000000000000000000000EB
:1055C00000000000000000000000000000000000DB
:1055D00000000000000000000000000000000000CB
:1055E00000000000000000000000000000000000BB
:1055F00000000000000000000000000000000000AB
:10560000000000000000000000000000000000009A
:10561000000000000000000000000000000000008A
:10562000000000000000900513E014601E147003D9
:105630000256B4240260030256C09005167403F0AB
:10564000A374E8F09005137401F022900516E0FEB3
:10565000A3E0FF4E60487C007DC71229E4D3ED949F
:1056600063EC9400401BA3E0441FF090051BE04452
:105670001FF090051EE0441FF0900525E0441FF048
:1056800022900518E054E0F090051BE054E0F09003
:10569000051EE054E0F0900525E054E0F02290056E
:1056A000167402F0A37458F07F0F125CD7900513A4
:1056B0007402F022900516E07002A3E070078001EA
:1056C000E4900513F022785B7C017D017BFF7A5525
:1056D00079A67E007F801229327B017A01795B7581
:1056E0003700753880E4FFFE125FC490015B74A13F
:1056F000F07B017A01795B7537007538017F017E97
:1057000000125FC490015B7408F07B017A01795B41
:105710007537007538017F407E00125FC490015BD1
:105720007405F07B017A01795B7537007538017F6C
:10573000417E00125FC4E490015BF07B017A017945
:105740005BF5377538037F06FE125FC47E007F036A
:105750007D007B007A00796E122C957F0A7E001204
:1057600065D20200008B268A2789281266A8405C31
:10577000D219201D02D21DD39054AA740193951DF5
:10578000E493951C501BC39054AC740193951DE495
:1057900093951C400C201709AA2AA92B122AE5D29E
:1057A00017D39054AC740193951DE493951C5050FD
:1057B000C39054AE740193951DE493951C40412011
:1057C000183EAA2DA92E122AE5D21822C21D301980
:1057D0002FC219D39054AA740193951DE493951C7C
:1057E00040159054A8740193951DE493951C50079F
:1057F000AA27A928122AE5E4F51CF51DC217C2182C
:10580000228B358A36893778757C017D017BFF7A5A
:105810000579307E007F60122932E4F543853548F2
:1058200085364985374A754B0285384C85394D8513
:105830003A4E853B4F7B017A0179751254C28F44F1
:10584000E4F543E543C39540504FC21690026BE523
:1058500041F0A3E542F07B017A017975AD44126411
:10586000E090026BE07002A3E0602A3016F3C216EB
:10587000853C49853D4A853E4B853F4C7B017A03FB
:1058800079457D80125ADBEA494B60D57F027E0064
:105890001265D2D322054380AAC322785E7C007DA4
:1058A000017BFF7A4F79CA7E007F50122932753A08
:1058B000FF753B4F753C39753D0085273E753F00B0
:1058C000852840754100852A427543008529447B1F
:1058D000017A00795E1238477B017A00795E1263A3
:1058E000DF753AFF753B4F753C67753D00852B3E74
:1058F000753F00852C40754100852D427B017A0063
:10590000795E1238477B017A00795E1263DF753A5F
:10591000FF753B4F753C7F900545E0753D00F53EBA
:105920007B017A00795E1238477B017A00795E024A
:1059300063DFC0E0C0F0C083C082C0D075D000C0BB
:1059400000C001C002C003C004C005C006C00730CB
:105950009831C298E517702B201314D213F50EF569
:105960000FFE7F807DFF7B017A0379C7122C95AFF4
:105970000F050F74C72FF582E43403F583E599F022
:10598000750E00309927C299E5126513601C7447A3
:105990002512F582E43404F583E0F5990512E51249
:1059A000C3948040087512008003751400D007D09E
:1059B00006D005D004D003D002D001D000D0D0D082
:1059C00082D083D0F0D0E032787FE4F6D8FD7581C4
:1059D0008A025A0F0260D8E493A3F8E493A3400329
:1059E000F68001F208DFF48029E493A3F854072439
:1059F0000CC8C333C4540F4420C8834004F45680F9
:105A00000146F6DFE4800B0102040810204080907C
:105A10003460E47E019360BCA3FF543F30E5095439
:105A20001FFEE493A360010ECF54C025E060A840A0
:105A3000B8E493A3FAE493A3F8E493A3C8C582C897
:105A4000CAC583CAF0A3C8C582C8CAC583CADFE96C
:105A5000DEE780BE8B318A3289338C348D357869AC
:105A60007C017D017BFF7A0C79967E007F481229AC
:105A700032E4F53BFE7F60FDAB31AA32A933122C34
:105A800095900169E535F0E534A3F0A3E536F0A380
:105A9000F0A3740DF090016FF0E4A3F0A37407F08D
:105AA000A3E53AF0FF7E0078737C017D01AB37AA55
:105AB00038A9391229327548FF75490C754A947511
:105AC0004B02754C01754D01754E69E53A240AF596
:105AD0004FAB31AA32A9331254C2228D488B458A6A
