:10000000024795756D0A756E032222020800438E21
:10001000805389F0758A50758CFBC28DD2A9C2B904
:10002000D28C2202270E8B268A2789288C298D2A9A
:1000300078047C017D017BFF7A3B79DE7E007F6066
:10004000123DD0C200AB26AA27A928123DF624569D
:10005000604E24DE6002C1AAD200E92407F9E43A26
:10006000FA78A27C047D017E007F06123DD09003C9
:1000700012E024F3FFE434FFFEAB26E528240DF95B
:10008000E43527FAC003C002C001E5282401F9E4E1
:100090003527A801FCAD03D001D002D003123DD01A
:1000A000C201C202C203AB26E5282405F9E43527C4
:1000B000FA7D1C1217CAAB26AA27A92890000412A1
:1000C0003E0FB50702D202E5282405F9E43527A83A
:1000D00001FCAD267B017A0479A97E007F051241DF
:1000E00014EF7002D203AB26AA27A92890000312AE
:1000F0003E0FFFB43904D203800BEF64146004EFA9
:10010000B41902D202300205300202D201200102EB
:10011000C1AAC202C2037531FF75323375331B7534
:1001200034008F357B017A0079C01241D07B017A8F
:100130000079C0120FC97E007F607D007B017A01CB
:100140007904124138AB26AA27A928900003123E51
:100150000F123F6201BD1006351103381406351524
:1001600006351601DD1701F418020B1902EA1A030D
:10017000021B03331F032F22019739048B4104FE16
:1001800042052C4305764405A04505E547061A4877
:1001900006355000000633302502C135122D9B90E4
:1001A0000100EEF0A3EFF0900100E0FCA3E0FDEC15
:1001B000900112F0A3EDF0D202C203C135AB26AA22
:1001C00027A92890000B123E0FFF9004BEF0A374E5
:1001D00002F0D202C20390010FEFF0C135752C017D
:1001E000D2257B007A00792C7537007538017F05A0
:1001F0007E008012E4F52CC225FB7A00792CF537BD
:100200007538017F05FE122D3AC135AB26AA27A904
:100210002890000D123E0F2460601114605C146081
:100220007E14700241A824A3600241D9E4F52C7B1E
:10023000017A017912F53E753F0C7F10FE122F886E
:10024000E4F52C74017E00A82C088005C333CE335E
:10025000CED8F9FF7882E6FDEF5D6013E52C75F0EE
:1002600003A42412F582E43401F583E05480F00500
:100270002CE52CB404CDD203805F787CE6FE08E642
:10028000FF4E7002800C7C007D3C123E82C378855C
:10029000E69F900112F07884E6900113F0803A789E
:1002A0007BE6900112F080317B017A017912753E74
:1002B00000753F067F227E00122F88900110E030EB
:1002C00025054401F0800354FEF0900110E0302237
:1002D000054402F0800354FDF0AB26AA27A928901C
:1002E000000D123E0F900111C12EE4F52CFB7A0097
:1002F000792CF53E753F017F22FE122F88532C800A
:100300008016E4F52CFB7A00792CF53E753F017FD1
:1003100022FE122F88432C7F7B007A00792C7537C0
:10032000007538017F227E00122D3AD202C135D2EB
:1003300002C135122E39C135E4F52CAB26AA27A906
:100340002890000D123E0F245F700261EF147002BE
:100350008123147002816F240360028187E4F52CED
:10036000AB26AA27A92875F003E52CA4240EF58254
:10037000E435F0F583123E0F64807056AF2C04A86C
:1003800007088002C333D8FC788246F6AB2675F0A6
:1003900003E52CA4240EF582E435F0F583E5282549
:1003A00082F9E5273583FAC003C002C001123DF689
:1003B000FFAA27A92890001F123E0F14FE7401A85F
:1003C00006088002C333D8FC4FD001D002D00312FC
:1003D0003E3C052CE52C64047086AB26E528240EF3
:1003E000F9E43527FA75370075380C7F108182AB38
:1003F00026AA27A92890000E123E0FFF78836014CA
:10040000E64402F67885A60790000F123E0F788426
:10041000F6E48008E654FDF6E47885F6787CF60884
:10042000F68064AB26AA27A92890000E123E0FFF83
:100430007883600BE64401F6787BA607E48008E643
:1004400054FEF6E4787BF6787EF608F67B007A00B8
:1004500079837537007538017F207E00122D3A7B35
:10046000007A00797B7537007538017F218013ABE6
:1004700026E528240EF9E43527FA75370075380685
:100480007F227E00122D3AD202C135E4F52CAB2634
:10049000AA27A92890000C123E0FF52DE4F52CAFE9
:1004A0002CE52DA807088002C313D8FC30E042E5F4
:1004B0002CFD7C002406FFEC33FEED240EFDEC3316
:1004C000FCAB26E5282DF9E5273CFA753700753891
:1004D00001122D3A740E252CF582E433F583AB26F8
:1004E000AA27A928123E0FFF741B252CF8A607D2B5
:1004F0001B052CE52CC3940340A5D202C135E4F5BD
:100500002CF52CE52C2406FFE433FE7412252CF97F
:10051000E43401FA7B01753E00753F01122F880516
:100520002CE52CC3940340DBD202C135AB26E52871
:10053000240EF9E43527FA7537007538017F307ECF
:1005400000122D3AAB26E528240FF9E43527FA7579
:1005500037007538017F317E00122D3AAB26AA276D
:10056000A92890000E123E0FF56F90000F123E0F5B
:10057000F56BD202C1357B017A017912753E0075A7
:100580003F017F307E00122F887B017A017913753D
:100590003E00753F017F317E00122F88D202C135A7
:1005A000122D9B900102EEF0A3EFF0AB26AA27A933
:1005B0002890000C123E0FFF90000E123E0FFD120D
:1005C0002C729204300407E4900110F08006900130
:1005D00010740AF0900102E0FCA3E0FDEC9001121F
:1005E000F0A3ED8049AB26AA27A92890000C123E63
:1005F0000FFF1231068F2CE52C64F060139004BFBE
:100600007402F09004BEE52CF0E4900110F0800636
:10061000900110740AF0D202801BAB26AA27A928E9
:1006200090000C123E0FFF122EC3E4900110F0D286
:10063000028002C202300272E4F52CC202A20092D1
:1006400005752E01752F0175300475312175320A3B
:10065000AB26AA27A928900003123E0FF533A20368
:1006600092061220008F2C750F019002B0E529F040
:10067000A3E52AF09002AFE52BF07E007F487D00D5
:100680007B017A027966124138AF2C7E0078667C55
:10069000027D017B017A017904123DD09002AEE522
:1006A0002CF0E49002FAF0750E0422E4F525F5260C
:1006B000F527123286EF7002E15B201123D21190F0
:1006C00049A1E493FF7401939004BCCFF0A3EFF031
:1006D0009004BA7401F0A3745EF01232868F722215
:1006E000123286EF65726002E1EE9004BCE0FEA378
:1006F000E0FFC39049A17401939FF527E4939EF511
:1007000026C390499D7401939527E4939526501B29
:10071000C390499F7401939527E4939526400C203C
:100720001209D2127D04AF72122E7EC390499F74BB
:1007300001939527E49395264002E1EEC39049A1E9
:100740007401939527E49395265002E1EE3013024D
:10075000E1EED2137D05AF72022E7E30115C900463
:10076000BCE0FEA3E0FFC39049A17401939FF5276D
:10077000E4939EF526C390499B7401939527E493D7
:1007800095265036C390499D7401939527E493951F
:100790002640279004BAE07002A3E060020573E5EA
:1007A00073D3940150047D0280027D03AF72122E38
:1007B0007E7B037D327F031231BF9004BAE070026A
:1007C000A3E0701DE5736019F525E4F573E525C315
:1007D0009402400AAD25AF72121FDBE4F525E4F563
:1007E00072C212C213E49004BCF0A3F0C211227DC5
:0F07F000367C07ED1D70011C144C70F7DFF122F1
:10080000C0E0C0F0C083C082C0D075D000C000C0BE
:1008100001C002C003C004C005C006C0079049A5BE
:10082000E493FFE578C39F500405788066757800EF
:10083000900264E07002A3E0600E900265E024FF85
:10084000F0900264E034FFF030140A0575E575702D
:100850000A057480067574007575009004BCE0701C
:1008600002A3E0600E9004BDE024FFF09004BCE021
:1008700034FFF09004BAE07002A3E0600E9004BB75
:10088000E024FFF09004BAE034FFF0900492E060BE
:100890000214F0D39049A37401939577E49395766D
:1008A000400A0577E57770020576215A757600755E
:1008B0007700201A10E50FC394065004050F800539
:1008C000750F00D21A7883E6FB30E13A7885E6FFAF
:1008D0007E007C007D3C123E70C3787DE69F18E66A
:1008E0009E50090806E618701D06801A787C76006E
:1008F000087600EB54FD7883F69004BF7402F0781C
:1009000084E69004BEF07883E630E0389004C0E0DE
:100910006032787BE6FF7E007C007D3C123E70C337
:10092000787FE69F18E69E50090806E618701506BF
:100930008012787E76000876009004BF7402F090F2
:1009400004BEE4F0788106E618700106E56D6002E9
:10095000156D9004B7E0600214F030193AE510C349
:10096000940A50040510802F201C2AD21C7E007F80
:10097000807DFF7B017A0279FE12413878FE7C028D
:100980007D017B017A03797F7E007F80123DD090CC
:10099000037EE513F0C219900490E0FFA3E0C39F2B
:1009A0005005E004F04151900491E4F0E56C24FE20
:1009B0006048147002414024026002414F90049C40
:1009C000E05407900490F0FD90049DE075F014A4AD
:1009D000FFAEF07C00123E8290047FEEF0A3EFF0B9
:1009E00090049EE0541F25E0900483F0900481E47D
:1009F000F0A3F0D224756C028057900483E0603B32
:100A000090047FE0FEA3E0FFC3900482E09F900487
:100A100081E09E5017A3E004F07006900481E0048A
:100A2000F0302404B2B28029D2B28025900481E44F
:100A3000F0A3F0B224A3E014F08016756C038011CB
:100A4000900481E4F0A3F0D224D2B2F56C8002D2FB
:100A5000B29049A6E493FFE579D39F5002611875DF
:100A60007900900493E0541FFF900484E054E04F19
:100A7000F0900494E0541FFF900485E054E04FF0A0
:100A8000900495E0541FFF900486E054E04FF090EE
:100A90000496E0541FFF900487E054E04FF0900468
:100AA00097E0541FFF900488E054E04FF0900498C2
:100AB000E0541FFF900489E054E04FF0900499E067
:100AC000541FFF90048AE054E04FF090049AE054E1
:100AD0001FFF90048BE054E04FF090049BE0541F04
:100AE000FF90048CE054E04FF090049FE0541FFF0F
:100AF00090048DE054E04FF09004A0E0541FFF906C
:100B0000048EE054E04FF09004A1E0541FFF9004E5
:100B10008FE054E04FF081740579E579D39400407B
:100B20006DE579D394205066900484E0FF541F60F3
:100B30000EEF54E0FEEF14541F4EF0C2A08002D21C
:100B4000A0900487E0FF541F600EEF54E0FEEF1406
:100B5000541F4EF0C2A68002D2A690048AE0FF5431
:100B60001F600EEF54E0FEEF14541F4EF0C2818060
:100B700002D28190048DE0FF541F600EEF54E0FE1E
:100B8000EF14541F4EF0C2CD8174D2CD8174E5793B
:100B9000D39420406DE579D394405066900485E06D
:100BA000FF541F600EEF54E0FEEF14541F4EF0C2CE
:100BB000A18002D2A1900488E0FF541F600EEF5480
:100BC000E0FEEF14541F4EF0C2A58002D2A590049F
:100BD0008BE0FF541F600EEF54E0FEEF14541F4EE5
:100BE000F0C2808002D28090048EE0FF541F600E1D
:100BF000EF54E0FEEF14541F4EF0C2CC8076D2CCFE
:100C00008072E579D39440406BE579D39460506469
:100C1000900486E0FF541F600EEF54E0FEEF145482
:100C20001F4EF0C2A28002D2A2900489E0FF541F9E
:100C3000600EEF54E0FEEF14541F4EF0C2A4800289
:100C4000D2A490048CE0FF541F600EEF54E0FEEF3E
:100C500014541F4EF0C2A78002D2A790048FE0FF69
:100C6000541F600EEF54E0FEEF14541F4EF0C28389
:100C70008002D283D007D006D005D004D003D002A2
:100C8000D001D000D0D0D082D083D0F0D0E032E4F8
:100C9000F52578007C007D017BFF7A47797FFE7F18
:100CA0000C123DD0780C7C007D017BFF7A47798B5C
:100CB0007E007F06123DD0904791E493FE7401932D
:100CC000FFC39004AFE09F9004AEE09E500EA3E0FF
:100CD00004F070239004AEE004F0801BE49004AEB6
:100CE000F0A3F078267C00FD7B017A0479B0FE7FCA
:100CF00007123DD0122BFF202128D2217B007A0041
:100D00007983753E00753F017F207E00122F887B1E
:100D1000007A00797B753E00753F017F217E0012CD
:100D20002F887880E6FA08E6FB7C007D3CFFAE0267
:100D3000123E829004B5EFF07C007D3CAF03AE0222
:100D4000123E82A3EDF0C37881E6941018E6940E6B
:100D5000402DE47880F608F69004B4E0C39418407F
:100D600004E4F080069004B4E004F09004B2E0D310
:100D7000940740057401F080069004B2E004F07B13
:100D8000017A00790C12241D90000CE0FF547FFEC4
:100D9000BE7F04D222806EEF30E76890000DE01332
:100DA0001313541FFF7E007C007D3C123E70A3E0B5
:100DB0002FFBEC3EFA9004B4E0FF7E00123E70A3DD
:100DC000E0F92FFFEC3EFED3EF9BEE9A403190000E
:100DD00010E0131313541FFF7E00123E70A3E02F88
:100DE000FBEC3EFA9004B4E0FF7E00123E70E92F67
:100DF000FFEC3EFED3EF9BEE9A5004D2228006C257
:100E0000228002C2227B017A00790012232F9000F7
:100E100000E020E718900003E020E711900006E0D2
:100E200020E70A900009E020E703C22322D223E44E
:100E3000F525E52575F003A42400F582E43400F5DA
:100E400083E0547FFD9004B2E0FF1230DC4002E109
:100E5000BDE52575F003A42400F582E43400F58394
:100E6000E0C4131313540120E002E1BDE52575F041
:100E700003A42401F582E43400F583E01313135432
:100E80001FFF7E007C007D3C123E70E52575F0035F
:100E9000A42402F582E43400F583E02FFBEC3EFA53
:100EA0009004B4E0FF7E00123E70A3E02FFFEC3E02
:100EB000FEEF6B7002EE6A7070A3E0D3940AE494C4
:100EC00000506674017E00A825088005C333CE3328
:100ED000CED8F9FF7882E6FDFBEF5B602EAF25747C
:100EE00001A807088002C333D8FCF45D7882F6E5D8
:100EF0002575F003A42410FFE435F0FE7BFF7A474C
:100F00007993753700753801122D3A9004BF740239
:100F1000F0E52575F003A42401F582E43400F5839F
:100F2000E054079004BEF0E1BDE52575F003A4246C
:100F300001F582E43400F583E0131313541FFF7EA0
:100F4000007C007D3C123E70E52575F003A4240270
:100F5000F582E43400F583E02FFBEC3EFA9004B414
:100F6000E0FF7E00123E70A3E02FFFEC3EFED3EFC9
:100F70009BEE9A404874017E00A825088005C33383
:100F8000CE33CED8F9FF7882E6FDFBEF5B602EAF63
:100F9000257401A807088002C333D8FCF45D788269
:100FA000F6E52575F003A42410FFE435F0FE7BFF81
:100FB0007A477994753700753801122D3A0525E581
:100FC00025C394045002C132228B2E8A2F89307F90
:100FD0000F7E0012324BE5A2543F4440F5A27F0F32
:100FE0007E0012324BAB2EAA2FA9301232997F0FFE
:0F0FF0007E0012324B53A23F7F0F7E0002324B26
:10100000900492E070767406F0904992E493FFE5C4
:1010100064D39F401CE4F564E565D394074005E480
:10102000F56580020565E4F569F568F567F56680A4
:101030004B0564E564C394004009E56494205003C3
:10104000856466E564C39420400CE56494405006D2
:10105000E56424E0F567E564C39440400CE56494DE
:10106000605006E56424C0F568E564C39460400CF4
:10107000E56494805006E56424A0F569E565B4074D
:10108000004002610F90108B25E073019901D4019B
:10109000FF2154218D21CA4147E56675F00584542E
:1010A0001FFF9004A0E054E04FF0E56775F0058461
:1010B000541FFF90049AE054E04FF0E56875F00586
:1010C00084541FFF900497E054E04FF0E56975F0F9
:1010D00005848078E566541FFF90049FE054E04F3C
:1010E000F0E567541FFF900499E054E04FF0E56885
:1010F000541FFF900496E054E04FF0E56921C2E5EB
:101100006675F00584FFC374069F541FFF9004A00A
:10111000E054E04FF0E56775F00584FFC374069F67
:10112000541FFF90049AE054E04FF0E56875F00515
:1011300084FFC374069F541FFF900497E054E04F50
:10114000F0E56975F00584FFC374069F541FFF9096
:101150000494610AE566C313541FFF9004A1E05490
:10116000E04FF0E567C313541FFF90049BE054E089
:101170004FF0E568C313541FFF900498E054E04F0C
:10118000F0E569C313541FFF900495610AC3741FEF
:101190009566541FFF90049FE054E04FF0C3741F06
:1011A0009567541FFF900499E054E04FF0C3741FFB
:1011B0009568541FFF900496E054E04FF0C3741FED
:1011C0009569541FFF900493610AE56675F00384E6
:1011D000541FFF9004A0E054E04FF0E56775F00362
:1011E00084541FFF90049AE054E04FF0E56875F0D6
:1011F0000384541FFF900497E054E04FF0E56975B5
:10120000F00384541FFF900494E054E04FF0E5662F
:10121000C313541FFF90049FE054E04FF0E567C3F1
:1012200013541FFF900499E054E04FF0E568C31396
:10123000541FFF900496E054E04FF0E569C3135447
:101240001FFF900493610AE566C313FFC3740F9FE9
:10125000541FFD9004A1E054E04DF0E567C313FF77
:10126000C3740F9F541FFC90049BE054E04CF0E5C6
:1012700068C313FFC3740F9F541FFB900498E0547E
:10128000E04BF0E569C313FFC3740F9F541FFF9039
:101290000495E054E04FF0E56675F00384FEC374F6
:1012A0000A9E541FFE9004A0E054E04EF0E56775DE
:1012B000F00384FEC3740A9E541FFE90049AE05407
:1012C000E04EF0E56875F00384FEC3740A9E541F77
:1012D000FE900497E054E04EF0E56975F00384FE5B
:1012E000C3740A9E541FFE900494E054E04EF090A4
:1012F000049FE054E04DF0900499E054E04CF090ED
:101300000496E054E04BF0900493E054E04FF02258
:1013100078C07C007D017BFF7A3A797D7E007F403A
:10132000123DD0E4F526E51130E0105311FE851290
:101330000EE4F508F509F50AD2A322E508D3940EC8
:101340004016E4F508F509F50AD2A39004B7740A2B
:10135000F0750E01756E0322200007E50870037515
:101360000807E50864076004E50870069004B77490
:101370000AF0E5087073E5086002A1F4E50914605D
:101380001514602E24026002A1F4C2A3900264E44A
:10139000F0A374C8A198900264E07002A3E0600218
:1013A000A1F4D2A39002647417F0A37470F07509CD
:1013B0000222900264E07002A3E07002F509201C92
:1013C00002A1F4C21C7549FF754A35754B789035FA
:1013D000B8E493F54C7B017A0279FE7D8012291CDA
:1013E000EA494B7002A1F4A1EDE508D39400500244
:1013F00081C2E5089409400281C2E50914607404C1
:101400006002A1F4E50AD394024002A15AE50875EE
:10141000F086A4FFAEF02435F974353E7548FFF52B
:1014200049894A754B0274372FF974353E754CFF64
:10143000F54D894E75F086E508A42477F582E5F030
:101440003435F58312250B8F267B017A0079C0ADE8
:101450002612315475F086E508A424B9F582E5F02A
:101460003435F583E493FF740193900264CFF0A3C5
:10147000EFA198900264E07002A3E07002A1A7209F
:101480001C02A1F4C21CE50875F086A42478F97446
:101490003535F07549FFF54A894B75F086E508A4A6
:1014A00024B8F582E5F03435F583E493F54C7B01FF
:1014B0007A0279FE7D8012291CEA494B7002A1F460
:1014C000A1EDE508C394095002A1F478277C007DC2
:1014D000007BFF7A3A79BD7E007F10123DD0903AB2
:1014E0002DE493FF7E0078277C007D007BFF7A3916
:1014F00079ED123DD0E508C3940B502FE50875F047
:1015000003A4245CF582E4343AF583E493F527E5FB
:101510000875F003A4245DF582E4343AF583E4937E
:10152000FE740193F52AEEF52B801E740F2508F842
:10153000E6FFC39410400FEF94FF500A8F27752ADF
:101540000DE4F52B8003050822E50914604F0460C3
:1015500002A1F4E50AD394024006E4F50AF5082254
:101560007548FF754939754AEB754B02754C007526
:101570004D00754E27903A2D12250B8F267B017A50
:101580000079C0AD26123154903A6FE493FF740194
:1015900093900264CFF0A3EFF075090122900264EA
:1015A000E07002A3E07005050AF50922301C45C26F
:1015B0001C7549FF754A3A754B2E903A6EE493F5C7
:1015C0004C7B017A0279FE7D8012291CEA494B701E
:1015D0001C7549FF754A3A754B71754C067B017A4B
:1015E0000279FE7D8012291CEA494B6007E4F50967
:1015F000F50A050822E55E701D20201A9049919396
:10160000FEE55FC39E5004055F800BE4F55FF56364
:10161000F562F561F560E55E7004D2208009E55E53
:10162000D394504002C220900492E0706FAE5E20CE
:101630002004155E8002055EEE541FFE90498FE483
:1016400093FDEE8DF084FEA3E493FDEE8DF0A49067
:101650000492F0E55EC394004009E55E94205003D7
:10166000855E60E55EC39410400CE55E94305006E4
:10167000E55E24F0F561E55EC39420400CE55E94E0
:10168000405006E55E24E0F562E55EC39430400C10
:10169000E55E94505006E55E24D0F563EF147002C9
:1016A000E135046002E1C9E55F6002E1C930205420
:1016B000E55EC3942E5015E55E75F00F84E5F0D31A
:1016C000940A9004A1E05002E158E191E55ED394C0
:1016D0002D40079004A1E0441FF0E55ED394324012
:1016E0000790049BE0441FF0E55ED3943C400790D4
:1016F0000498E0441FF0E55ED394465002E1C9909F
:101700000495E190E563541FFF9004A1E054E04F7D
:10171000F0E562541FFF90049BE054E04FF0E56158
:10172000541FFF900498E054E04FF0E560541FFF11
:10173000900495E1C4E55F6002E1C9302057E55EA1
:10174000C3942E5017E55E75F00F84E5F0D3940A2C
:101750009004A1E04002803954E0F022E55ED39489
:101760002D4007900495E0441FF0E55ED39432408D
:1017700007900498E0441FF0E55ED3943C40079046
:10178000049BE0441FF0E55ED39446403C9004A1E6
:10179000E0441FF022E563541FFF900495E054E0FD
:1017A0004FF0E562541FFF900498E054E04FF0E5DD
:1017B00061541FFF90049BE054E04FF0E560541F1C
:1017C000FF9004A1E054E04FF0228B348A35893633
:1017D000E4FFFEEFC39D5013AB34AA35A9368F82C8
:1017E000758300123E0F2EFE0F80E86306FF63062E
:1017F000A7AF06221231FE123260122FC502312E1F
:1018000078007C007D017BFF7A3C79407E007F6020
:10181000123DD078607C007D017BFF7A3C79A07E10
:10182000007F60123DD09004B7E07006740AF01299
:101830001ED2E50E24FE70024193147002419A14E8
:10184000700241A22403600241A5E51130E002418B
:10185000AA30160DC2167F0C7E647DFE7C221222F9
:101860003B301A6EC21AB21790000074ABF0A3742A
:101870000EF0301706A37422F08006900002742345
:10188000F078047C007D017B017A0479A97E007FD9
:1018900005123DD0E49002B0F0A3F09002AF740DB9
:1018A000F07E007F487D007B017A02796612413824
:1018B00078667C027D017B017A0079007E007F0ED4
:1018C000123DD09002AE740EF0E49002FAF0750E64
:1018D00004227E007F607D007B017A007900124146
:1018E00038E57A7002218FE50E64016002218F785D
:1018F00086F67886E6FFC394034002218F74017E4A
:1019000000A807088005C333CE33CED8F9FFEF55C2
:101910007A60777886E6FF7401A807088002C333EF
:10192000D8FCF4527A9004C0E0FEA807088002C3F5
:1019300013D8FC5401900000F07886E6241BF8E6EA
:10194000FFD394104044EF94FF503F74FF9002B0D7
:10195000F0A3F09002AFEFF07E007F487D007B01A6
:101960007A02796612413878667C027D017B017AC1
:101970000079007E007F01123DD09002AE7401F02C
:10198000E49002FAF0750E04800578860601F27E76
:10199000007F607D007B017A007900124138201CB5
:1019A0000241B0C21C9002FEE064FE600241B078C9
:1019B000007C037D017BFF7A3C793EFE7F02124171
:1019C00014EF600241B0900306E0FDA3E07887F6D3
:1019D000ED08F6A3E008F6A3E008F6E4F56AFE7F5A
:1019E00060FD7B017A007960124138900312E0FFBC
:1019F0007E0078607C007D017B017A037913123DC3
:101A0000D07889E6FFD39410405FEF94FF505A904E
:101A100004C0E0F525E6B51B13E51B600F9004BF7D
:101A20007402F05325FE900060E080367889E6FD70
:101A3000B51C15E51C60119004BF7402F05325FD20
:101A4000900060E025E0801AED651D7063E51D6083
:101A50005F9004BF7402F05325FB900060E025E026
:101A600025E045259004BEF0227889E624F2601A2C
:101A700004703D7887E6FC08E6FD4C70337B017A04
:101A800000796008E6F52B0200267B017A00796078
:101A9000022135756A03D2008005756A02C2000210
:101AA0001310021CFEE51130E0065311FE85120EE4
:101AB00022302205756E048019E56EB4040312000D
:101AC00003E56D700DE56EB403087F0F122AA27551
:101AD0006E02E56E24FD601614601314700281EA34
:101AE00014700281F32404600281FD021000E51EDF
:101AF00030E06C9004C0E030E02CE56F75F003A49A
:101B0000246AF582E43449F583E493541FFDE56FBC
:101B100075F003A4246BF582E43449F583E493540F
:101B20001FFBE56F802AE56B75F003A4246AF5823C
:101B3000E43449F583E493541FFDE56B75F003A489
:101B4000246BF582E43449F583E493541FFBE56B81
:101B500075F003A4246CF582E43449F583800F907A
:101B60004967E493541FFDA3E493541FFBA3E4933C
:101B7000541FF528E4FF122B8CE51E30E16C900415
:101B8000C0E030E12CE56F75F003A4246AF582E42F
:101B90003449F583E493541FFDE56F75F003A424E5
:101BA0006BF582E43449F583E493541FFBE56F80C1
:101BB0002AE56B75F003A4246AF582E43449F583C1
:101BC000E493541FFDE56B75F003A4246BF582E4E8
:101BD0003449F583E493541FFBE56B75F003A424AB
:101BE0006CF582E43449F583800F904967E493549F
:101BF0001FFDA3E493541FFBA3E493541FF5287F18
:101C000001122B8CE51E30E26C9004C0E030E22C17
:101C1000E56F75F003A4246AF582E43449F583E4A2
:101C200093541FFDE56F75F003A4246BF582E43433
:101C300049F583E493541FFBE56F802AE56B75F04B
:101C400003A4246AF582E43449F583E493541FFD28
:101C5000E56B75F003A4246BF582E43449F583E465
:101C600093541FFBE56B75F003A4246CF582E434F8
:101C700049F583800F904967E493541FFDA3E493D3
:101C8000541FFBA3E493541FF5287F02122B8CD31F
:101C90009049887401939555E493955440090555EE
:101CA000E5557059055422B21DE4F554F555E56A21
:101CB00014601214601714601D24037040E4F528AA
:101CC0007B14FD8020E4F528FB7D148018E4F528C2
:101CD0007B0A7D1E800FE4301D07F528FB7D1480F4
:101CE00004F528FBFD7F03022B8C7F0F122AA27FB5
:101CF0000180077F0F122AA2E4FF1215F52278C097
:101D00007C007D017BFF7A3B79177E007F60123D6E
:101D1000D0E4F52678207C017D017BFF7A3B797742
:101D2000FE7F40123DD0E4F52778287C00FD7BFF44
:101D30007A3B79B7FE7F03123DD0E51130E00C53BA
:101D400011FE85120EE4F50CF50D22E4F528900243
:101D5000AFE0F529752A0D7548FF75493B754ABAFC
:101D6000754B02754C00754D00754E28754F037B01
:101D7000017A0179201225158F279002B0E0FCA38B
:101D8000E0FD9002AFE0F530753101753202753338
:101D9000669002AEE0F5347B017A0079C012289596
:101DA0008F26E50C14603F147002C132147002C11A
:101DB00094147002C1A324046002C1CEE50DD39433
:101DC000034008750B01E4F50DC1CED2A37B017A67
:101DD0000079C0AD261231549002647403F0A374EC
:101DE000E8F0750C0122900264E07002A3E070023A
:101DF000804A201C02C1D1C21C754901754A017577
:101E00004B2085274C7B017A0279FE7D8012291CAC
:101E1000EA494B60169002FAE070028073750C027A
:101E20009002647401F0A374F4F022900302E0F5D0
:101E30000B22900264E07002A3E07005050DF50C22
:101E400022201C02C1D1900306E0FDA3E0788BF6AE
:101E5000ED08F6900309E008F6C21C9002FAE0FFD4
:101E60007E0078137C037D017B017A0279B21241F6
:101E700014EF705D788BE6FE08E6FF9002FCE06EE2
:101E80007003A3E06F704A9002FBE0788D667041AA
:101E9000750C0322301B07C21B750E03802A750EBA
:101EA000018025301B07C21B750E038003750E01D0
:101EB000E50B60142433600A24E4600624E9700210
:101EC0008000756A01E4F50BE4F50DF50C22750C44
:101ED0000422C20078C07C007D017BFF7A34797DCA
:101EE0007E007F20123DD0E4FF7534FF75353475D8
:101EF00036A27537017538007539C0753A02753BE1
:101F000001753C2C7BFF7A34799D7D051229A3EF66
:101F10007004C200E1D89000CEE0FE9000CDE0FD5C
:101F2000EEF526EDF527E4F528F529AE26AF277C5A
:101F3000077DD0123E828D2A9000CBE0F52BA3E0E6
:101F4000F52CE4F52D852A28E52B64016005E52BA9
:101F5000B4020AE52B240CF52915288003852B29CA
:101F6000E5292401FFE433FE7C007D1A123E707DDA
:101F70000A123E82E5281313543F25282F252C24CE
:101F8000DCF52D75F0078485F02DE52D9004B26009
:101F900003F080037407F09004B1E52BF09004B3D4
:101FA000E52CF09004B0E52AF09000C8E09004B46D
:101FB000F09000C9E09004B5F09000CAE09004B63B
:101FC000F0FD9004B5E075F03CA4AEF07C002D78F7
:101FD00081F6EC3E18F6D200A200228D288F7AEF0F
:101FE00024FE601A24FE601724037013E52824FCE5
:101FF000700DD201752D05122CD8756E0522222286
:10200000AB2EAA2FA930900002E532123E4E90006E
:1020100003E533123E4E20060EAB2EAA2FA93090B8
:10202000000AE51F123E4EE5302405F9E4352FA8DD
:1020300001FCAD2E7B017A0479A97E007F05123D5B
:10204000D0AB2EE5302405F9E4352FFA7D1C1217AC
:10205000CAAB2EAA2FA930900004EF123E4E2005E5
:1020600002211978647C017D017BFF7A33792C7E13
:10207000007F40123DD0AB2EAA2FA93074CC123E67
:102080003CE531240CAB2EAA2FA930900001123E62
:102090004EE53124F3FFE434FFFEE92401F9E43A8C
:1020A000FA78647C017D01123DD0E53124FFFFE424
:1020B00034FFFE7D00AB2EE5302401F9E4352FFA24
:1020C000124138E53124F3FFE434FFFEE530240DFE
:1020D000F9E4352FA801FCAD2E7B017A0179641259
:1020E0003DD0E5302401F9E4352FA801FCAD2E7B6D
:1020F000017A0479A27E007F06123DD0E5302408E3
:10210000F9E4352FA801FCAD2E7B017A0479A97E74
:10211000007F05123DD07F2D22AB2EAA2FA930744F
:10212000AA123E3CAB2EAA2FA930900001E5311235
:102130003E4E7F21228B268A27892878C07C007D0D
:10214000017BFF7A3B79BC7E007F22123DD0AB261B
:10215000AA27A928123DF69000C0F0900001123E77
:102160000FFF7E00E92402F9E43AFA78C17C007D91
:1021700001123DD0AB26AA27A928900001123E0FDC
:102180009000E1F09000C0E02497601504600241E7
:102190003AC200D2019000C1E0F52D122CD8920075
:1021A00022C200E4F52CF52BF52AF5299000C1E0B8
:1021B000FFE52C4FF52CE52BF52BE52AF52AE52933
:1021C000F529A3E0FFE4FCFDFE7808123F4FE52C63
:1021D0004FF52CE52B4EF52BE52A4DF52AE5294C3C
:1021E000F529A3E0FFE4FCFDFE7810123F4FE52C3B
:1021F0004FF52CE52B4EF52BE52A4DF52AE5294C1C
:10220000F529A3E0FFE4FCFDFE7818123F4FE52C12
:102210004FF52CE52B4EF52BE52A4DF52AE5294CFB
:10222000F529E4252CFFE52B344CFEE52A3492FDFC
:10223000E52934C7FC12223B9200228F308E2F8D6D
:102240002E8C2D78E27C007D017BFF7A35792A7E09
:10225000007F0B123DD0C201853034852F33852E8F
:1022600032852D319004B9E0FF3395E0FEFDFCE4AA
:102270007B3CFAF9F8123EEDC004C005C006C00769
:102280009004B8E0FF3395E0FEFDFCE47B107A0E8D
:10229000F9F8123EEDD003D002D001D000EF2BFFB1
:1022A000EE3AFEED39FDEC38FCE5342FF534E5333C
:1022B0003EF533E5323DF532E5313CF531E534FFAD
:1022C0009000E2EFF0E4FFE533FEE4FDFC78081255
:1022D0003F3CA3EFF0E4FFFEE532FDE4FC78101292
:1022E0003F3CA3EFF0E4FFFEFDE531FC7818123F20
:1022F0003CA3EFF0753801753900753AE29034E689
:10230000E493F53B753CFF753D34753EE79035270A
:10231000E493F53F754002A3E493F541740193F50E
:10232000427BFF7A3479A41225CD9201A201228B3F
:10233000268A27892878297C007D007BFF7A4779C7
:102340001D7E007F0C123DD0E4F535FB7A00792923
:10235000F53E753F0C7F10FE122F88E4F535E5350C
:1023600075F003A42429F8E6547FFFAB2675F0032B
:10237000E535A42528F9E52735F0FA123DF6548015
:102380004FFF123E3CE53575F003A42429F8E654CE
:1023900080C41313135401C43333335480FEEF54F9
:1023A0007F4E123E3CE53575F003A4242AF8E6542E
:1023B000E0C4135407FDE53575F003A4AB262528CA
:1023C000F9E52735F0FAE92401F9E43AFA123DF685
:1023D00054F84DFF123E3CE53575F003A4242AF86D
:1023E000E6541F33333354F8FEEF54074E123E3C8D
:1023F000E53575F003A4242BF8E6FDE53575F0030B
:10240000A4AB262528F9E52735F0FA900002ED1255
:102410003E4E0535E53564046002615E228B268AF6
:1024200027892878297C007D007BFF7A4779297EDF
:10243000007F06123DD0E4F52FFB7A007929F53EA6
:10244000753F067F22FE122F88E4F52FE52F75F0E9
:1024500003A42429F8E6547FFFAB2675F003E52F8B
:10246000A42528F9E52735F0FA123DF654804FFFF0
:10247000123E3CE52F75F003A42429F8E65480C4ED
:102480001313135401C43333335480FEEF547F4E7F
:10249000123E3CE52F75F003A4242AF8E654E0C46C
:1024A000135407FDE52F75F003A4AB262528F9E5A5
:1024B0002735F0FAE92401F9E43AFA123DF654F826
:1024C0004DFF123E3CE52F75F003A4242AF8E65494
:1024D0001F33333354F8FEEF54074E123E3CE52FC2
:1024E00075F003A4242BF8E6FDE52F75F003A4ABEB
:1024F000262528F9E52735F0FA900002ED123E4E28
:10250000052FE52F64026002814C22E493F54F7B96
:10251000017A0079C08B458A468947854F50E4F59A
:1025200051AE5105518E82F58374FE123E4EAF516D
:1025300005518F82758300E54F123E4EAF4B7E00F2
:102540007C00E5472551F9EC3546A801FCAD45ABCB
:1025500048AA49A94A123DD0E54B2551F551E4FE60
:10256000EEC3954B5013AB48AA49A94A8E82758396
:1025700000123E0F62500E80E7AF4F7E007C00E5F8
:10258000472551F9EC3546A801FCAD45AB4CAA4DA9
:10259000A94E123DD0E54F2551F551E4FEEEC3950D
:1025A0004F5013AB4CAA4DA94E8E82758300123E3C
:1025B0000F62500E80E7AB45AA46A947AF510551BF
:1025C0008F82758300E550123E4EAF51228B358AC3
:1025D00036893778ED7C007D017BFF7A33796C7E1C
:1025E000007F60123DD0E4F5438535488536498546
:1025F000374A754B0285384C85394D853A4E853BB7
:102600004F7B017A0079ED1225158F44E4F543E5FF
:1026100043C39540505AC21C900264E541F0A3E5C3
:1026200042F07B017A0079EDAD441231549002649E
:1026300074FFF5F0123ED745F060317F027E001244
:10264000324B301CE8C21C853C49853D4A853E4BD7
:10265000853F4C7B017A0279FE7D8012291CEA4974
:102660004B60CA7F027E0012324BD3220543809F0B
:10267000C3228B258A2689271232D6405CD21020AD
:102680001402D214D39049957401939575E49395EF
:1026900074501BC39049977401939575E493957496
:1026A000400C200E09AA29A92A123F88D20ED390E5
:1026B00049977401939575E49395745050C390496C
:1026C000997401939575E49395744041200F3EAA47
:1026D0002CA92D123F88D20F22C21430102FC21005
:1026E000D39049957401939575E493957440159032
:1026F00049937401939575E49395745007AA26A99C
:1027000027123F88E4F574F575C20EC20F22C0E0AF
:10271000C0F0C083C082C0D075D000C000C001C06E
:1027200002C003C004C005C006C007309831C2987B
:10273000E51A702B201914D219F510F513FE7F80BD
:102740007DFF7B017A03797F124138AF1305137443
:102750007F2FF582E43403F583E599F0751000309E
:102760009927C299E5156516601C74FF2515F58239
:10277000E43403F583E0F5990515E515C39480402D
:10278000087515008003751700D007D006D005D056
:1027900004D003D002D001D000D0D0D082D083D0DA
:1027A000F0D0E032E478647C017D017BFF7A4879E7
:1027B00048FE7F1F123DD07B017A017964753E008F
:1027C000753F1F7F407E00122F88E4FF3005127492
:1027D000642FF582E43401F583E06018B4FF1180C2
:1027E0001374642FF582E43401F583E065326004EC
:0E27F0000FBF1FD8EFC3941F5001227FFF229E
:10280000E4F527E52624FE602904705CE52530E028
:10281000079004C0E06401F0E52530E1079004C0B2
:10282000E06402F0E52530E23F9004C0E06404F08B
:102830008036E5259004C030E006E04401F08004D5
:10284000E054FEF0E5259004C030E106E04402F0DB
:102850008004E054FDF0E5259004C030E206E04439
:1028600004F08004E054FBF01230799004C0E0FFE3
:102870006006E4787EF608F69004C1E0B401158F96
:10288000277B007A0079277537007538017F027E33
:1028900000122D3A228B2B8A2C892D8C2E8D2F788D
:1028A000607C017D017BFF7A3A79CF7E007F481200
:1028B0003DD0E4F535FE7F60FDAB2BAA2CA92D128F
:1028C0004138900160E52FF0E52EA3F0A3E530F04C
:1028D000A3F0A3740DF0900166F0E4A3F0A37407D5
:1028E000F0A3E534F0FF7E00786A7C017D01AB3116
:1028F000AA32A933123DD07548FF75493A754ACDC1
:10290000754B02754C01754D01754E60E534240A16
:10291000F54FAB2BAA2CA92D122515228D488B45DE
:102920008A468947E4F54D8B4E8A4F895085495137
:10293000854A52854B53C3E5509547FFE54F954671
:10294000FE7C00EF254CFFEC3EFED3EF95487480F3
:10295000F86E985047AB510553E553AA52700205E3
:102960005214F9123DF6FFAB4E0550E550AA4F70D8
:1029700002054F14F9123DF6B50713054DE54DB5A7
:102980004CD3C3E550954CF9E54F9400FA228549A4
:1029900051854A52854B53E4F54D809A7B007A006D
:1029A0007900228B308A3189328D33853B3D853CDD
:1029B0003EE4F53FF53FE53FC3953A5067C21C90B2
:1029C0000264E53BF0A3E53CF0AB30AA31A932AD9F
:1029D0003312315490026474FFF5F0123ED745F083
:1029E000603E7F027E0012324B301CE8C21C780031
:1029F0007C037D01AB34AA35A9367E007F021241EB
:102A000014EF70D090037EE0FF7E00A839AC38ADA3
:102A1000377B017A0279FE123DD090037EE0FF22DF
:102A2000053F80927F0022C2AFD2BCE598543F445C
:102A300040F598E4752834F527F526F525C3952843
:102A4000F528E49527F52774019526F526E49525C4
:102A5000F525AF28AE27AD26FC7808123F3C8FD66F
:102A60008528D7538EEF438E01538EF7438E045340
:102A7000AFFB538EF7438E10D2ACD29C53A23F7E55
:102A8000007F807D007B017A0379FF124138D2AF4D
:102A90007BFF7A3279D91232997BFF7A337900023F
:102AA0000FC9AD07ED30E015900495E054E0F090CB
:102AB0000494E054E0F0900493E054E0F0ED54020C
:102AC000C3136015900498E054E0F0900497E0542C
:102AD000E0F0900496E054E0F0ED54041313543FFA
:102AE000601590049BE054E0F090049AE054E0F00C
:102AF000900499E054E0F0ED5408131313541F6050
:102B0000159004A1E054E0F09004A0E054E0F090AF
:102B1000049FE054E0F0227525C8E4F526C20012B7
:102B20002F07788EA60712321B8F1E788EE6FF6560
:102B3000706010E571C39525500405718005E4F5BA
:102B400071D200300045C200E5706FF5268F70E548
:102B50002630E210E5709004C130E2057401F08087
:102B6000037402F0E52654306021E5705430C454FB
:102B70000F14600C14600D1460042403700D8008A1
:102B8000751F3922751F3A22751F3B22E56E6403BB
:102B90006006E56E64047066E56EB4041790498AB9
:102BA000E493FEED8EF084FDEB8EF084FBE5288E41
:102BB000F084F528EF14601314601914601F2403C7
:102BC000703CED541FFF9004938019ED541FFF904B
:102BD00004968010ED541FFF9004998007ED541F58
:102BE000FF90049FE054E04FF0EB541FFFA3E0542C
:102BF000E04FF0E528541FFFA3E054E04FF02278A7
:102C0000127C007D017BFF7A47792F7E007F501276
:102C10003DD07531FF7532467533D9753400852640
:102C200035753600852737753800852939753A009E
:102C300085283B7B017A0079121241D07B017A0012
:102C40007912120FC97531FF753247753305753426
:102C500000852A35753600852B37753800852C3967
:102C60007B017A0079121241D07B017A007912023D
:102C70000FC98F2E8D2FE4F530F531C205852E3228
:102C80001227A48F31E531F46006852F30EF802DB7
:102C9000D205E4F5321227A48F31E531F460358591
:102CA0002F30EF2440FFE433FE7B007A007930754B
:102CB0003700753801122D3A852E30E5312460FF3A
:102CC000E433FE7B007A00793075370075380112E5
:102CD0002D3A8002C322D322C202E4F52E78E27C90
:102CE000007D017BFF7A347952FE7F03123DD030A4
:102CF00001089000E4E52DF08005E49000E4F07513
:102D00003801753900753AE290340EE493F53B755D
:102D10003CFF753D34753E0F90344FE493F53F759D
:102D20004002A3E493F541740193F5427BFF7A33AB
:102D300079CC1225CD9202A202228E328F338B34AF
:102D40008A35893678E47C017D017BFF7A4879E712
:102D50007E007F80123DD07B017A0179E4753E00D0
:102D6000753F80E4FFFE122F88E4FF1231DFAE379B
:102D7000AF3874E42533F974013532A801FC7D01C4
:102D8000AB34AA35A936123DD07B017A0179E475BE
:102D90003E00753F80E4FFFE023000E4F52EF52F83
:102DA00078647C017D017BFF7A347955FE7F2012A7
:102DB0003DD0E4FF7534FF75353475367B753701CA
:102DC000753801753964753A02753B01753C2C7B89
:102DD000FF7A3479757D061229A3EF600C900169A2
:102DE000E0422FA3E0FEEE422EAE2EAF2F22E4787B
:102DF00086F653B1C743B238C2B5C2B4C2B3900469
:102E0000C1E0B4011C7B007A007986753E00753FF5
:102E1000017F027E00122F887886E69004C0F08041
:102E200014E47886F6FB7A007986F5377538017FE9
:102E300002FE122D3A1230792278647C017D017BEA
:102E4000FF7A4879677E007F80123DD07B017A014E
:102E50007964753700753880E4FFFE122D3A9001D1
:102E60006474A1F07B017A017964753700753801CB
:102E70007F017E00122D3A7F0A7E0002324BED2444
:102E8000FD602514603B14603924037035EF24FE87
:102E9000600824FE6004240370289004BF7401F0CD
:102EA0009004BEEFF0F57A22EF24FE600824FE6065
:102EB000042403700D9004BF7401F09004BEEFF081
:102EC000222222E4F52EF52FC2058F321227A48F7D
:102ED0002FE52FF4602FEF2440FFE433FE7B007AD0
:102EE00000792E753700753801122D3AE52F2460D0
:102EF000FFE433FE7B007A00792E753700753801C8
:102F0000122D3AD322C322E4FF2090030F800353F3
:102F100007FE20910543070280035307FD20920519
:102F200043070480035307FB2093054307088003EE
:102F30005307F720930543071080035307EF2094AE
:102F40000543072080035307DF221232AC1217F427
:102F500012319D7512034311011206AB7528FF75DE
:102F60002900752A0A752BFF752C00752D0A7BFF29
:102F70007A3279CC122672122B17120C8F1230B2C1
:102F8000121800121AB180D1AD07AC06C2AF75C7D6
:102F90008075C5018CC3AF058FC475C65A75C6A5AB
:102FA00000E5C2123E3C0DBD00010C740129F9E49C
:102FB0003AFAE53F153F7002153E14453E70D512B2
:102FC00032BED2AF227B007A00796F753E00753F2A
:102FD000017F307E00122F887B007A00796B753E6E
:102FE00000753F017F317E00122F88E56FD3940971
:102FF0004003756F01E56BD394094003E4F56B2240
:10300000AD07AC06C2AF75C78075C5028CC3AF05EE
:103010008FC4123DF6F5C275C65A75C6A5000DBD22
:1030200000010C740129F9E43AFAE53F153F7002FA
:10303000153E14453E70D51232BED2AF22539508CC
:103040004396F75393F443940B53C9CF43CA307557
:103050006E03E4F528FBFDFF122B8CE4F528FBFD45
:103060007F01122B8CE4F528FBFD7F02122B8CE4F0
:10307000F528FBFD7F03022B8CE51E30E00D90044C
:10308000C0E030E004D2B38002C2B3E51E30E10DEF
:103090009004C0E030E104D2B48002C2B4E51E3036
:1030A000E20D9004C0E030E204D2B58002C2B50265
:1030B00000039004BFE06403602178257C007D005C
:1030C0007B017A0479BE7E007F02123DD012280077
:1030D0009004BF7403F0E49004BEF022AC07A9058D
:1030E0001CE4FD74017E00A805088005C333CE33BF
:1030F000CED8F9FFE9FBEF5B6006EDB50402D32201
:103100000DBD07DFC322E4F52EFEC2058F32122764
:10311000A4EFF460167B007A00792E753E00753FAF
:10312000017F607E00122F88AF2E227FF0227B016C
:103130007A0479B8753E00753F017F037E00122F37
:10314000887B017A0479B9753E00753F017F047E62
:1031500000022F888B458A468947E4FEEEC39D50C6
:1031600018AB450547E547AA467002054614F91213
:103170003DF6FF12317A0E80E32274FF2516F582A8
:10318000E43403F583EFF00516E516C3948040039D
:10319000E4F516E5177005751701D29922E4900041
:1031A00000F07B017A007900F53E753F017F01FE5A
:1031B000122F88900000E064A16003122E392220B3
:1031C000221CEF5407FF90049CE054F84FF0A3ED4D
:1031D000F0EB541FFFA3E054E04FF0756C0122ADFB
:1031E00007AC06C2AF8CC3AF058FC475C78075C569
:1031F0000375C65A75C6A5001232BED2AF227FF83B
:103200007E7FEF24FAFFEE34FFFAA9077BFF78A850
:103210007C047D017E007F06023DD07F07E51FB460
:103220003B028010E51FB43A047F038007E51FB41A
:1032300039027F012253911F53921F5393FB5394E2
:10324000FB2092069004C17401F022AB07AA06EBA2
:103250001B70011A144A60077F011207EF80F022E9
:103260007B007A00791B753E00753F037F067E0068
:10327000022F8853B1FD43B20243B10153B2FE5352
:1032800095F743960822E4FF2096010F2097034309
:10329000070220950343070422123DF6FF600C123B
:1032A000317A740129F9E43AFA80EE2212000E1202
:1032B0003273122A2712303D123235022DEEE4F518
:1032C000C7F5C5F5C675C3FF75C4FF22756E0675D3
:1032D000120243110122A2822269276D2055415218
:1032E000543120666F722077696669206461746169
:1032F000207472616E736C617465202121210A0053
:1033000069276D20554152543120666F72206461E7
:1033100074734C6F67202121210A00636D64436F31
:103320006D696E673A253032582E0A0000000000A1
:10333000000000000000000000000000000000008D
:10334000000000000000000000000000000000007D
:10335000000000000000000000000000000000006D
:10336000000000000000000000000000000000005D
:10337000000000000000000000000000000000004D
:10338000000000000000000000000000000000003D
:10339000000000000000000000000000000000002D
:1033A000000000000000000000000000000000001D
:1033B000000000000000000000000000000000000D
:1033C0000000000000000000000000002608FCFFD4
:1033D00000000000000000000000000000000000ED
:1033E00000000000000000000000000000000000DD
:1033F00000000000000000000000000000000000CD
:10340000000000000000000000000000000003FEBB
:10341000016608006F0000000000000000000000CE
:10342000000000000000000000000000000000009C
:10343000000000000000000000000000000000008C
:103440000000000000000000000000000000000676
:103450000096FCFF000000000000000000000000DB
:10346000000000000000000000000000000000005C
:103470000000000000FE0126060627660600000088
:10348000000000000000000000000000000000003C
:1034900000000000000000000000000000FE00210D
:1034A0001130611121100000000000000000000038
:1034B000000000000000000000000000000000000C
:1034C00000000000000000000000000000000000FC
:1034D00000000000000000000000000000000000EC
:1034E0000000000000000BFE016110000000000061
:1034F00000000000000000000000000000000000CC
:1035000000000000000000000000000000000000BB
:1035100000000000000000000000000000000000AB
:103520000000000000000005006400000000000032
:10353000000000000046090000000000000000003C
:10354000000000000000000000000000000000007B
:10355000000000000000000000000000000000006B
:10356000000000000000000000000000000000005B
:103570000000000000000000FE0641800102000281
:103580000603C3000000000000000000000000006F
:10359000000000000000000000000000000000002B
:1035A000000000000000000000000000000000001B
:1035B00000000000000000000B0FA0460900000002
:1035C00000000000000000000000000000000000FB
:1035D00000000000000000000000000000000000EB
:1035E00000000000000000000000000000000000DB
:1035F0000000000000000000000000000000FE06C7
:103600004180010200020603C30000000000000028
:1036100000000000000000000000000000000000AA
:10362000000000000000000000000000000000009A
:1036300000000000000000000000000000000B0F70
:10364000A0260503010300000000000000000000A8
:10365000000000000000000000000000000000006A
:10366000000000000000000000000000000000005A
:10367000000000000000000000000000000000004A
:1036800000000003FE01660500620000000000006B
:10369000000000000000000000000000000000002A
:1036A000000000000000000000000000000000001A
:1036B000000000000000000000000000000000000A
:1036C000000000000601F4460900000000000000B0
:1036D00000000000000000000000000000000000EA
:1036E00000000000000000000000000000000000DA
:1036F00000000000000000000000000000000000CA
:1037000000000000000000000000FE0641800102F1
:1037100000020603C30000000000000000000000DB
:103720000000000000000000000000000000000099
:103730000000000000000000000000000000000089
:10374000000000000000000000000B0FA02605870D
:103750000101000000000000000000000000000067
:103760000000000000000000000000000000000059
:103770000000000000000000000000000000000049
:103780000000000000000000000000000000000336
:10379000FE0166050062000000000000000000005D
:1037A0000000000000000000000000000000000019
:1037B0000000000000000000000000000000000009
:1037C00000000000000000000000000000000000F9
:1037D0000601F42702FFFF000000000000000000C7
:1037E00000000000000000000000000000000000D9
:1037F00000000000000000000000000000000000C9
:1038000000000000000000000000000000000000B8
:10381000000000000002FE016702006400000000DA
:103820000000000000000000000000000000000098
:103830000000000000000000000000000000000088
:103840000000000000000000000000000000000078
:103850000000000000000601F427030080000000C3
:103860000000000000000000000000000000000058
:103870000000000000000000000000000000000048
:103880000000000000000000000000000000000038
:10389000000000000000000000000004FE016703BB
:1038A00000650000000000000000000000000000B3
:1038B0000000000000000000000000000000000008
:1038C00000000000000000000000000000000000F8
:1038D0000000000000000000000000000601F426C7
:1038E00000000000000000000000000000000000D8
:1038F00000000000000000000000000000000000C8
:1039000000000000000000000000000000000000B7
:1039100000000000000000000000000000000000A7
:103920000000FE0145C00783000000000000000009
:103930000000000000000000000000000000000087
:103940000000000000000000000000000000000077
:103950000000000000000000000000000000000067
:103960000000061F402608FCFF00000000000000C9
:103970000000000000000000000000000000000047
:103980000000000000000000000000000000000037
:103990000000000000000000000000000000000027
:1039A0000000000000000003FE016608006F000038
:1039B0000000000000000000000000000000000007
:1039C00000000000000000000000000000000000F7
:1039D00000000000000000000000000000000000E7
:1039E000000000000000000006009624000E0D00FC
:1039F0000D000D00010000010000000000000000AB
:103A000000000000000000000000000000000000B6
:103A100000000000000000000000000000000000A6
:103A2000000000000000000000000000000DFE018A
:103A300064000065000000000000000000000000BD
:103A40000000000000000000000000000000000076
:103A50000000000000000000000000000000000066
:103A6000000000000000000000000000000006014F
:103A7000F4FE016400B8DD0D000D0E000D00000025
:103A80000000000000000000000000000000000036
:103A90000000000000000000000000000000000026
:103AA0000000000000000000000000000000000016
:103AB0000000000000000000000000000000000006
:103AC00000000000000000000000000000240100D1
:103AD00000000000000000000000000000000000E6
:103AE00000000000000000000000000000000000D6
:103AF00000000000000000000000000000000000C6
:103B000000000000000000000000000000000000B5
:103B100000000000000000000000000000000000A5
:103B20000000000000000000000000000000000095
:103B30000000000000000000000000000000000085
:103B40000000000000000000000000000000000075
:103B50000000000000000000000000000000000065
:103B60000000000000000000000000000000000055
:103B70000000000000000000000000000000000045
:103B80000000000000000000000000000000000035
:103B90000000000000000000000000000000000025
:103BA0000000000000000000000000000000000015
:103BB0000000000000000000000044800000000041
:103BC00000000000000000000000000000000000F5
:103BD00000000000000000000000000000000000E5
:103BE00000000000000000000000000000000000D5
:103BF00000000000000000000000000000000000C5
:103C000000000000000000000000000000000000B4
:103C100000000000000000000000000000000000A4
:103C20000000000000000000000000000000000094
:103C300000000000000000000000000000004481BF
:103C40000000000000000000000000000000000074
:103C50000000000000000000000000000000000064
:103C60000000000000000000000000000000000054
:103C70000000000000000000000000000000000044
:103C80000000000000000000000000000000000034
:103C90000000000000000000000000000000000024
:103CA0000000000000000000000000000000000014
:103CB0000000000000000000000000000000000004
:103CC00000000000000000000000000000000000F4
:103CD00000000000000000000000000000000000E4
:103CE00000000000000000000000000000000000D4
:103CF00000000000000000000000000000000000C4
:103D0000E709F608DFFA8046E709F208DFFA803EA5
:103D100088828C83E709F0A3DFFA8032E309F60892
:103D2000DFFA8078E309F208DFFA807088828C83FA
:103D3000E309F0A3DFFA806489828A83E0A3F608AE
:103D4000DFFA805889828A83E0A3F208DFFA804C88
:103D500080D280FA80C680D4806980F2803380105F
:103D600080A680EA809A80A880DA80E280CA8033C8
:103D700089828A83ECFAE493A3C8C582C8CCC58340
:103D8000CCF0A3C8C582C8CCC583CCDFE9DEE78010
:103D90000D89828A83E493A3F608DFF9ECFAA9F08F
:103DA000EDFB2289828A83ECFAE0A3C8C582C8CCE5
:103DB000C583CCF0A3C8C582C8CCC583CCDFEADEFE
:103DC000E880DB89828A83E493A3F208DFF980CC60
:103DD00088F0EF60010E4E60C388F0ED2402B40459
:103DE0000050B9F582EB2402B4040050AF23234500
:103DF0008223903D5073BB010689828A83E0225062
:103E000002E722BBFE02E32289828A83E49322BB7B
:103E1000010CE58229F582E5833AF583E02250061C
:103E2000E92582F8E622BBFE06E92582F8E222E5D2
:103E30008229F582E5833AF583E49322BB01068962
:103E4000828A83F0225002F722BBFE01F322F8BBE4
:103E5000010DE58229F582E5833AF583E8F02250E9
:103E600006E92582C8F622BBFE05E92582C8F222B2
:103E7000EF8DF0A4A8F0CF8CF0A428CE8DF0A42E66
:103E8000FE22BC000BBE0029EF8DF084FFADF022B6
:103E9000E4CCF875F008EF2FFFEE33FEEC33FCEEC8
:103EA0009DEC984005FCEE9DFE0FD5F0E9E4CEFDBB
:103EB00022EDF8F5F0EE8420D21CFEADF075F0088E
:103EC000EF2FFFED33FD4007985006D5F0F222C3E7
:103ED00098FD0FD5F0EA22A3F8E0C5F025F0F0E553
:103EE00082158270021583E0C838F0E822E88FF06E
:103EF000A4CC8BF0A42CFCE98EF0A42CFC8AF0ED71
:103F0000A42CFCEA8EF0A4CDA8F08BF0A42DCC3824
:103F100025F0FDE98FF0A42CCD35F0FCEB8EF0A45C
:103F2000FEA9F0EB8FF0A4CFC5F02ECD39FEE43C16
:103F3000FCEAA42DCE35F0FDE43CFC22E8600FEC59
:103F4000C313FCED13FDEE13FEEF13FFD8F122E8CF
:103F5000600FEFC333FFEE33FEED33FDEC33FCD8DF
:103F6000F122D083D082F8E4937012740193700D23
:103F7000A3A393F8740193F5828883E47374029386
:103F80006860EFA3A3A380DF8A838982E473E3F5EB
:103F9000F009E208B5F06BDFF58067E3F5F009E6BC
:103FA00008B5F05EDFF5805A87F009E608B5F052F3
:103FB000DFF6804E87F009E208B5F046DFF6804272
:103FC00088828C8387F009E0A3B5F036DFF6803273
:103FD00088828C8387F009E493A3B5F025DFF58010
:103FE0002188828C83E3F5F009E0A3B5F014DFF5B6
:103FF000801088828C83E3F5F009E493A3B5F00286
:10400000DFF40240BD808780E9809080D4803E80CC
:1040100015806E807E809D80B7808D80A3805180CA
:1040200074803C0240C989828A83ECFAE493F5F0FB
:10403000A3C8C582C8CCC583CCE493A3C8C582C835
:10404000CCC583CCB5F076DFE3DEE1807089828A6F
:1040500083E493F5F0A3E208B5F062DFF4805E89B3
:10406000828A83E0F5F0A3E608B5F051DFF5804DD4
:1040700089828A83E0F5F0A3E208B5F040DFF5809D
:104080003C89828A83E493F5F0A3E608B5F02EDF3D
:10409000F4802A8002805789828A83ECFAE493F5BF
:1040A000F0A3C8C582C8CCC583CCE0A3C8C582C86C
:1040B000CCC583CCB5F006DFE4DEE280007FFFB53F
:1040C000F0020F2240027F012289828A83ECFAE00B
:1040D000F5F0A3C8C582C8CCC583CCE0A3C8C5820F
:1040E000C8CCC583CCB5F0D5DFE5DEE380CF8982CF
:1040F0008A83ECFAE0F5F0A3C8C582C8CCC583CCAE
:10410000E493A3C8C582C8CCC583CCB5F0AFDFE4C7
:10411000DEE280A988F0EF60010E4E60ABED240274
:10412000B404005098F582EB2402B40400508E23AE
:104130002345822390400573EF4E6012EF60010E1D
:10414000EDBB010B89828A83F0A3DFFCDEFA2289B2
:10415000F05007F709DFFCA9F022BBFEFCF309DFF2
:10416000FCA9F022FAE6FB0808E6F925F0F618E6C5
:10417000CA3AF622E53D2431F8E6053D22782E3094
:104180000C027831E475F001124164023DF620051D
:10419000EB7F2ED2058018EF540F2490D43440D4F6
:1041A000FF30090BEF24BFB41A0050032461FFE570
:1041B0003E6002153E0541E54170020540300C0DA0
:1041C000782EE475F001124164EF023E3C02482172
:1041D0007403D20C8003E4C20CF53D8B2E8A2F8928
:1041E00030E4F53EF540F541E53E60077F201241A1
:1041F000AF80F5753FFFC206C205C207C208C20AFA
:10420000C20BC20D12417DFF700D300C057F0012F4
:1042100041C0AF41AE4022B4255FC2D5C2091241B0
:104220007DFF24D0B40A00501A75F00A783E30D5CC
:104230000508B6FF0106C6A426F620D5047002D2F2
:104240000880D924CFB41A00EF5004C2E5D2090285
:1042500043C0D20680C6D20580C0D20780BCD2D56A
:1042600080BAD20A80B47F201241AF2007077401C0
:10427000B53E0040F1124174FF1241AF0241E8D255
:104280000DD20B8095124174FB124174FA124174E5
:10429000F94A4B700679917A447BFF20072EE53E60
:1042A000602A7E008E82758300123E0F60060EEE3D
:1042B000653F70F0C2D5EBC0E0EAC0E0E9C0E0EED7
:1042C000124407D0E0F9D0E0FAD0E0FB123DF6FF4F
:1042D00060AAEBC0E0EAC0E0E9C0E01241AFD0E084
:1042E0002401F9D0E03400FAD0E0FBE53F0460DCC3
:1042F000D53FD980877BFF7A447903D207809C79A8
:104300001080027908C20BC20D8008D2D5790A80CC
:1043100004790AC2D5E53F047002F53FE4FAFDFED8
:10432000FF124174FC7B08200613124174FD7B10C0
:1043300030050A124174FE124174FF7B20EC338277
:10434000D592D55013C3E43005069FFFE49EFEE4EA
:104350002006039DFDE49CFCE4CBF8C206EC700C47
:10436000CFCECDCCE824F8F870F38017C3EF33FF3D
:10437000EE33FEED33FDEC33FCEB33FB994002FBF7
:104380000FD8E9EB300605F8D0E0C448B206C0E02B
:104390000AEC4D4E4F78207B0070C2EAB53F0040DA
:1043A000BCC0E0124409D0F0D0E0200604C4C0E054
:1043B000C4B206C0F0124198D0F0D5F0EB0241E84B
:1043C000123F6242855342FF5842564C425242438A
:1043D000034F430B44430B49426B4343115542F592
:1043E0004642F54542F54744B150425A2D425E2EB1
:1043F00042812B426223427F20449A2A421A48007B
:104400000042793F3F3F00790AA2D5200814300AC4
:1044100009B910020404B9080104A2D5200B025006
:1044200001042007689207B53E005034C0E07F20A9
:104430003008197F30A207720B720A500F124460C5
:10444000C207C20BC20AC20D7F30800F300A03E9D7
:10445000C0E01241AF300A03D0E0F9D0E0B53ECC65
:10446000300A177F30B9100C1241AF7F583009075E
:104470007F788003B908031241AF3007057F2D0212
:1044800041AF7F20200DF87F2B200BF32292078075
:10449000CF286E756C6C2900D2061241743006F874
:1044A000C206783E30D50108F602421A2D50434923
:1044B000581241742403B405004001E49044AC93C5
:1044C0001241A0743A1241A0D208753E040242FF84
:1044D00002760000017800017900430484000000A6
:1044E00043048700000043048A00000043048D0059
:1044F0000000410490034104910042047F01F44212
:104500000481000041048308C1A4011F3B011E0176
:10451000031B0000004604A8000000000000460441
:10452000A2000000000000C12543049300000043E6
:10453000049600000043049900000043049F00001B
:1045400000016F01016B0043049C000000016E003C
:1045500041049200016D0A016C00016A00025400DE
:1045600000C11D01561FC19E015700015800C19F87
:10457000015900015A00015B00015C00015D00016E
:104580005E00C1A0015F00016000016100016200E6
:10459000016300016400016500016600016700011C
:1045A000680001690002110000C11BC118420264C9
:1045B0000000C11A010F00C11CC119011000011334
:1045C00000608102FE00000000000000000000000A
:1045D00000000000000000000000000000000000DB
:1045E00000000000000000000000000000000000CB
:1045F00000000000000000000000000000000000BB
:1046000000000000000000000000000000000000AA
:10461000000000000000000000000000000000009A
:10462000000000000000000000000000000000008A
:10463000000000000000000000000000000000007A
:10464000000000000000010E000108000109000147
:104650000A00010B00010C00010D00C117C19601F9
:104660008E00C195C114027400004204BC000042D7
:1046700004BA0000017000017100C10EC10FC11029
:10468000017200C111C112C1130173004104C102C2
:104690004104C0004204BE0003017A004704B00098
:1046A0000000000000004104B70A4104B8084104BA
:1046B000B90002800000018200C123C122018300F1
:1046C000027C0000018500018400027E0000017B65
:1046D000004204AE0000C121000A3E3E3D3D3DCAFD
:1046E000B1BCE4B4C13D3D3D3C3C0A202020203219
:1046F0003025642F253032642F253032642D572524
:104700003031640A00202020202020202025303253
:10471000643A253032643A253032640A00000000E1
:104720000000000000000000000000000000000089
:104730000000000000000000000000000000000079
:104740000000000000000000000000000000000069
:104750000000000000000000000000000000000059
:104760000000000000000000000000000000000049
:104770000000000000000000000000000000000039
:104780000000000000000000000000000000000029
:10479000000BB80000787FE4F6D8FD75818E0247E3
:1047A000DC022F4AE493A3F8E493A34003F68001CC
:1047B000F208DFF48029E493A3F85407240CC8C35B
:1047C00033C4540F4420C8834004F456800146F695
:1047D000DFE4800B01020408102040809044D0E404
:1047E0007E019360BCA3FF543F30E509541FFEE4F3
:1047F00093A360010ECF54C025E060A840B8E493B5
:10480000A3FAE493A3F8E493A3C8C582C8CAC583F6
:10481000CAF0A3C8C582C8CAC583CADFE9DEE7807B
:10482000BEEFB40A07740D12482C740A309811A810
:1048300099B8130CC2983098FDA899C298B811F68F
:104840003099FDC299F59922000000000000000097
:104850000000000000000000000000000000000058
:104860000000000000000000000000000000000048
:104870000000000000000000000000000000000038
:104880000000000000000000000000000000000028
:104890000000000000000000000000000000000018
:1048A0000000000000000000000000000000000008
:1048B00000000000000000000000000000000000F8
:1048C00000000000000000000000000000000000E8
:1048D00000000000000000000000000000000000D8
:1048E00000000000000000000000000000000000C8
:1048F00000000000000000000000000000000000B8
:1049000000000000000000000000000000000000A7
:104910000000000000000000000000000000000097
:104920000000000000000000000000000000000087
:104930000000000000000000000000000000000077
:104940000000000000000000000000000000000067
:104950000000000000000000000000000000000057
:10496000000000000000001F0000000000140A1FEB
:104970001F00001F000A080010001F00101F001F6A
:104980000A0000001F000A1F00C8040303010105FC
:10499000040080000A0BB82710EA6000140BB82747
:0749A00010EA604E201460D4
:00000001FF
