:1000000002508E9006C5E0123FA2220261C6125F26
:10001000581260AE1260C11259DD125E97125F92E3
:1000200002009D024F6DEF54E0FEEF14541F4EF09E
:1000300022541FFFE054E04FF022541FFFE054E031
:100040004FF022541FFFE054E04FF022541FFFE016
:1000500054E04FF02274FFF5F0022C90541FFFE0A3
:1000600054E04FF0229063F2E493FFE56B22F090AE
:1000700006EEE04401F022E6FF7E007C007D3C12AB
:100080002C29C3229006CBE4F0A3F0229006EC7456
:1000900001F0229006ECE0FF9006EAE022125F1CDD
:1000A000922822021FF369276D20554152543120B6
:1000B000666F72207769666920646174612074726A
:1000C000616E736C617465202121210A0069276DBE
:1000D00020554152543120666F7220646174734C14
:1000E0006F67202121210A000000000000000000AD
:1000F0000000000000000000000000000000000000
:1001000000000000000000000000000000000000EF
:1001100000000000000000000000000000000000DF
:1001200000000000000000000000000000000000CF
:1001300000000000000000000000000000000000BF
:1001400000000000000000000000000000000000AF
:10015000000000000000000000000000000000009F
:10016000000000000000000000000000000000008F
:10017000000000000000000000000000000000007F
:1001800000000000000000002608FCFF0000000046
:10019000000000000000000000000000000000005F
:1001A000000000000000000000000000000000004F
:1001B000000000000000000000000000000000003F
:1001C0000000000000000000000003FE01660800BF
:1001D0006F000000000000000000000000000000B0
:1001E000000000000000000000000000000000000F
:1001F00000000000000000000000000000000000FF
:100200000000000000000000000000060096FCFF57
:1002100000000000000000000000000000000000DE
:1002200000000000000000000000000000000000CE
:1002300000FE0126060627660600000000000000FA
:1002400000000000000000000000000000000000AE
:10025000000000000000000000FE002111306111CC
:10026000211000000000000000000000000000005D
:10027000000000000000000000000000000000007E
:10028000000000000000000000000000000000006E
:10029000000000000000000000000000000000005E
:1002A00000000BFE016110000000000000000000D3
:1002B000000000000000000000000000000000003E
:1002C000000000000000000000000000000000002E
:1002D000000000000000000000000000000000001E
:1002E00000000005006400000000000000000000A5
:1002F00000460900000000000000000000000000AF
:1003000000000000000000000000000000000000ED
:1003100000000000000000000000000000000000DD
:1003200000000000000000000000000000000000CD
:1003300000000000FE064180010200020603C30027
:1003400000000000000000000000000000000000AD
:10035000000000000000000000000000000000009D
:10036000000000000000000000000000000000008D
:10037000000000000B0FA046090000000000000074
:10038000000000000000000000000000000000006D
:10039000000000000000000000000000000000005D
:1003A000000000000000000000000000000000004D
:1003B00000000000000000000000FE064180010275
:1003C00000020603C300000000000000000000005F
:1003D000000000000000000000000000000000001D
:1003E000000000000000000000000000000000000D
:1003F000000000000000000000000B0FA026050315
:1004000001030000000000000000000000000000E8
:1004100000000000000000000000000000000000DC
:1004200000000000000000000000000000000000CC
:1004300000000000000000000000000000000003B9
:10044000FE016605006200000000000000000000E0
:10045000000000000000000000000000000000009C
:10046000000000000000000000000000000000008C
:10047000000000000000000000000000000000007C
:100480000601F44609000000000000000000000022
:10049000000000000000000000000000000000005C
:1004A000000000000000000000000000000000004C
:1004B000000000000000000000000000000000003C
:1004C000000000000000FE06418001020002060359
:1004D000C300000000000000000000000000000059
:1004E000000000000000000000000000000000000C
:1004F00000000000000000000000000000000000FC
:100500000000000000000B0FA0260587010100007D
:1005100000000000000000000000000000000000DB
:1005200000000000000000000000000000000000CB
:1005300000000000000000000000000000000000BB
:10054000000000000000000000000003FE0166053E
:100550000062000000000000000000000000000039
:10056000000000000000000000000000000000008B
:10057000000000000000000000000000000000007B
:100580000000000000000000000000000601F42749
:1005900002FFFF000000000000000000000000005B
:1005A000000000000000000000000000000000004B
:1005B000000000000000000000000000000000003B
:1005C000000000000000000000000000000000002B
:1005D0000002FE016702006400000000000000004D
:1005E000000000000000000000000000000000000B
:1005F00000000000000000000000000000000000FB
:1006000000000000000000000000000000000000EA
:1006100000000601F4270300800000000000000035
:1006200000000000000000000000000000000000CA
:1006300000000000000000000000000000000000BA
:1006400000000000000000000000000000000000AA
:100650000000000000000004FE01670300650000C8
:10066000000000000000000000000000000000008A
:10067000000000000000000000000000000000007A
:10068000000000000000000000000000000000006A
:1006900000000000000000000601F4260000000039
:1006A000000000000000000000000000000000004A
:1006B000000000000000000000000000000000003A
:1006C000000000000000000000000000000000002A
:1006D0000000000000000000000000000000FE011B
:1006E00045C007830000000000000000000000007B
:1006F00000000000000000000000000000000000FA
:1007000000000000000000000000000000000000E9
:100710000000000000000000000000000000061FB4
:10072000402608FCFF000000000000000000000060
:1007300000000000000000000000000000000000B9
:1007400000000000000000000000000000000000A9
:100750000000000000000000000000000000000099
:1007600000000003FE016608006F000000000000AA
:100770000000000000000000000000000000000079
:100780000000000000000000000000000000000069
:100790000000000000000000000000000000000059
:1007A0000000000006009624000E0D000D000D0054
:1007B0000100000100000000000000000000000037
:1007C0000000000000000000000000000000000029
:1007D0000000000000000000000000000000000019
:1007E0000000000000000000000DFE016400006534
:1007F00000000000000000000000000000000000F9
:1008000000000000000000000000000000000000E8
:1008100000000000000000000000000000000000D8
:10082000000000000000000000000601F4FE01646A
:1008300000B8DD0C000D0D000D0E000D00000000D5
:1008400000000000000000000000000000000000A8
:100850000000000000000000000000000000000098
:100860000000000000000000000000000000000088
:100870000000000000000000000000000000000078
:100880000000000000000000000000002401000043
:100890000000000000000000000000000000000058
:1008A0000000000000000000000000000000000048
:1008B0000000000000000000000000000000000038
:1008C0000000000000000000000000000000000028
:1008D0000000000000000000000000000000000018
:1008E0000000000000000000000000000000000008
:1008F00000000000000000000000000000000000F8
:1009000000000000000000000000000000000000E7
:1009100000000000000000000000000000000000D7
:1009200000000000000000000000000000000000C7
:1009300000000000000000000000000000000000B7
:1009400000000000000000000000000000000000A7
:100950000000000000000000000000000000000097
:100960000000000000000000000000000000000087
:100970000000000000000000000000000000000077
:100980000000000000000000000000000000000067
:100990000000000000000000000000000000000057
:1009A0000000000000000000000000000000000047
:1009B0000000000000000000000000000000000037
:1009C0000000000000000000000000000000000027
:1009D0000000000000000000000000000000000017
:1009E0000000000000000000000000000000000007
:1009F00000000000000000000000000000000000F7
:100A000000000000000000000000000000000000E6
:100A100000000000000000000000000000000000D6
:100A200000000000000000000000000000000000C6
:100A300000000000000000000000000000000000B6
:100A400000000000000000000000000000000000A6
:100A50000000000000000000000000000000000096
:100A60000000000000000000000000000000000086
:100A70000000000000000000000000000000000076
:100A80000000000000000000000000000000000066
:100A900000000000000000000000000044806A0127
:100AA0000000000000000000000000000000000046
:100AB0000000000000000000000000000000000036
:100AC0000000000000000000000000000000000026
:100AD0000000000000000000000000000000000016
:100AE0000000000000000000000000000000000006
:100AF00000000000000000000000000000000000F6
:100B000000000000000000000000000000000000E5
:100B100000000000000000000000000000000000D5
:100B200000000000000000000000000000000000C5
:100B300000000000000000000000000000000000B5
:100B400000000000000000000000000000000000A5
:100B50000000000000000000000000000000000095
:100B60000000000000000000000000000000000085
:100B70000000000000000000000000000000000075
:100B80000000000000000000000000000000000065
:100B90000000000000000000000000000000000055
:100BA000000000000000448145CB00000000000070
:100BB0000000000000000000000000000000000035
:100BC0000000000000000000000000000000000025
:100BD0000000000000000000000000000000000015
:100BE0000000000000000000000000000000000005
:100BF00000000000000000000000000000000000F5
:100C000000000000000000000000000000000000E4
:100C100000000000000000000000000000000000D4
:100C200000000000000000000000000000000000C4
:100C300000000000000000000000000000000000B4
:100C400000000000000000000000000000000000A4
:100C50000000000000000000000000000000000094
:100C60000000000000000000000000000000000084
:100C70000000000000000000000000000000000074
:100C80000000000000000000000000000000000064
:100C90000000000000000000000000000000000054
:100CA0000000000000000000000000000000000044
:100CB0000000000000000000000000000000000034
:100CC0000000000000000000000000000000000024
:100CD00000000000000000000000000000C801F457
:100CE00000000000000000000000000078097C0007
:100CF0007D017BFF7A0B79AA122F6478A27C007D9C
:100D0000017BFF7A0C7943122F6490068FE0700606
:100D1000740AF0124A96E56224FE700302164A1421
:100D20007003021653147003021677147003021630
:100D30007A1470030216802405600302168F900453
:100D400074E0FF30E003021696300116C201C218AB
:100D50007F0C7E647DFE7C22124868125B0C8E6DD7
:100D60008F6EE51FB40603125FFA900482E0701ADA
:100D7000751E01302202C22290031CE0D3941E4053
:100D80000EE4F01232BA75620322E490031CF09074
:100D900004A6E0FF900494E02FFFE433FE9004B833
:100DA000E07C002FFFEC3EFE7881F608EFF64E70F7
:100DB00003020EEB900324E07002A3E06003020E36
:100DC000EB78817D03123117787FA60408A60512FF
:100DD00031EF787FE6FA08E6FB90049475F0121282
:100DE0002D39EA122F84E0701A06E61870010612F7
:100DF00032C1FF7C007D03122C3B787FA60408A63D
:100E00000580CF123212EB122D39EA122F84E078CE
:100E10007F6009E6FE08E61232128015E6FE08E65B
:100E2000FF900493122F7D7402F090049475F012D9
:100E3000EF122F80E014F01232C1FF1230C8C083CD
:100E4000C082123212EF122F80E0D082D083123291
:100E50009CF47002EEF47003020EDA900494122FE8
:100E600077E0FD90048475F012EF122F80EDF09082
:100E70000485122F77E4F0EF1230C8C083C08218C7
:100E8000E6FC08E6FD123212122D39EC122F84E036
:100E9000D082D08312329CFFC006C00790048E75AA
:100EA000F012ED122D39EC122F84E0FDC00518E68A
:100EB000FE08E6FF7C007D12122C2974832FF97442
:100EC000043EFA7B011232C190048D122F7DE0F5B1
:100ED00036D005D007D006125C19900CDCE493FFE5
:100EE000740193900324CFF0A3EFF078267C007A6E
:100EF0000C79E01230A3300867900553E07002A32C
:100F0000E0705D900CDE93FF740193900553CFF079
:100F1000A3EFF0900317E0FF14F0EF603B7E007F3B
:100F2000067D007B007A007926122F2B900317E0B4
:100F3000246FF8E6FFD394104026EF94FF50218FE2
:100F4000297528787B007A007926753603AD2974D7
:100F5000FFFFFE125C1980089003177403F0C208AB
:100F600020050302121D90047CE0600302121D9014
:100F70000007F0C205B202FEFD7A0079091232685C
:100F80009006EDE05407FF9003B5E054F84FF09061
:100F900006EEE030E02954FEF09003B5E0541FFF68
:100FA000F0E0FE9006EFE0FDEEC4135407FEEF54B0
:100FB0001FFFED4E5407C43354E04F9003B5F0A229
:100FC00026E4335401FF9003B6E054FE4FFFF0A235
:100FD00029E433540125E0FEEF54FD4EFFF07897ED
:100FE000E6FE5402C313540125E025E0FDEF54FB57
:100FF0004DFFF0EE540133333354F8FEEF54F74E07
:10100000FFF0A225E4335401C454F0FEEF54EF4E38
:10101000FFF0A221E4335401C43354E0FEEF54DF67
:101020004EF0E4900000F07B017A0379B9F5597530
:101030005A187F10FE125CFFE4900000F090000050
:10104000E0FFC3940850311232608005C333CE33C1
:10105000CED8F9FF7892E6FDEF5D6014900000E0D5
:1010600075F003A424B9F582E43403F5837480F0A9
:10107000900000E004F080C578907D3C123117C3E9
:101080007899E69F9003D1F07898E6A3F0788FE600
:10109000A3F078017C007A0C79E67F06122F577B4B
:1010A000017A007901125229900001E0FF547FFE7D
:1010B000BE7F089003D47401F08005E49003D4F05F
:1010C000EFC4131313540130E0089003D57401F0FA
:1010D0008005E49003D5F0900002E0131313541F31
:1010E0009003D6F0900003E09003D7F0900005E065
:1010F000131313541F9003D8F0900006E09003D907
:10110000F078DA7C037D017B017A0679B27E007F7C
:1011100002122B89E49003DCF07B017A0379DDF580
:1011200059755A037F06FE125CFFE57324C07008F0
:101130009006F1E09003E0F0E565245E6011047034
:101140002178AF7C037D017B017A047976800C786D
:10115000AF7C037D017B017A03791D7E007F06123F
:101160002B89E4900007F0122FCB74FA122FC7E4FA
:1011700012326F7D01122FDA900007E02406F01280
:101180002FCBE565122FC7E573F0E56D12307C12A9
:101190002FD2EFF012307D122FD2E56E122FC774CE
:1011A00007F090069012307B122FD2EFF09006914C
:1011B00012307B122FD2EF12326FA801FC7A037922
:1011C000AF7F3E123066900007E0243EF0E004F06E
:1011D000E090000AF07B017A00790A24FEFD125E9D
:1011E0002B900007E02408F582E43400F583EFF04B
:1011F000E49003AAF0A3F0740D123022900007E0EF
:10120000FF7A007909123059900007E09003A81284
:10121000316AFFEF44F4FF7401123291229006EE1E
:10122000E0FF30E03AD214C215E4900008F0EF5429
:10123000FE9006EEF0A3E054E0C4135407C4335408
:10124000E0FF9003B5E0541F4FF090031DE0440110
:10125000F07565A29005557402F0900323F022907A
:1012600006ECE07003021484E5626401600302147A
:1012700084E57324C724FD500A24FC70030214047F
:10128000021484E47883F67883E6FFC39403400372
:101290000214841232608005C333CE33CED8F9FFF6
:1012A0009006ECE0FDFBEF5B70030213FE7883E633
:1012B000FC7401A804088002C333D8FCF45D9006D6
:1012C000ECF09006EBE01460131470239006EAE053
:1012D000FFA804088002C313D8FC80257883E61297
:1012E00032C8A807088002C313D8FC6401801478B0
:1012F00083E6FF9006EDE0FEA807088002C313D83E
:10130000FC5401900009F07883E6246FF8E6FFD3DF
:10131000941050030213FEEF94FF40030213FE905B
:101320000009E0FF788360081230BD740AF080067F
:101330001230BD740BF07883E6FE24ACF582E43401
:1013400003F583EF1231BCEE25E025E0249AF8E6A0
:10135000FE08E6FF7883E6FD1230C8EEF0A3EFF05A
:10136000ED25E025E0249CF8E6FE08E6FFED75F0AB
:1013700012A42491F582E43404F583EEF0A3EFF097
:10138000ED75F012A42493F582E43404F58374021D
:10139000F0746F2DF8E6FFED75F012A4248EF5823F
:1013A000E43404F583EFF090000A7D007883E6755D
:1013B000F012A42483F9740435F0FAAE83AF8212DC
:1013C00032CFFF7883E6FE75F012A42483F582E421
:1013D0003404F583EFF0EE75F012A42484F582E472
:1013E0003404F583E4F0EE75F012A4248DF582E464
:1013F0003404F5837403F0EE123095740FF07883A3
:10140000060212879006ECE064017078F0E56FD375
:1014100094104070E56F94FF506A9006EBE064030F
:1014200060059006EA80039006EDE0900009F090D8
:1014300006EDE0900009F0900318F09003AC123133
:10144000BC789AE6FF08E690048FCFF0A3EFF0088F
:10145000E6FF08E6A3CFF0A3EFF0A37402F0900438
:101460008EE56FF07E007F0A7D007A047983123268
:10147000CF900483F0E4A3F090048D7403F0900403
:1014800094740FF0200903021699C2099004B9E080
:1014900064FE600302162F7A0B79A61231A4600352
:1014A00002162F9004C1E0FDA3E0FEEDFF7886EE6A
:1014B000F6FE08EFF6A3E008F6A3E008F6EF4E709C
:1014C0000C1232BAE51E64046003E4F51E7F997ABB
:1014D0000079A21230889004CD78A27C007D017A38
:1014E0000479CE1231C47888E6FFD39410500302F9
:1014F00015FEEF94FF40030215FE9006EDE07884A0
:10150000F6E408F61231BDE57324C724FD500A2421
:10151000FC70030215A70215EFE47885F67885E6DE
:10152000FFC3940340030215EF746F2FF8E6FF78B2
:101530008866706DEF606A9000A4E0B478028079EC
:10154000123091E0FE9000A3E0D39E50030215EF0D
:101550001231EF7401A807088002C333D8FCF47875
:101560008456FEF69000A2E0FDA807088002C3336F
:10157000D8FC4E12313EED788560081230BD740AF9
:10158000F080061230BD740BF0123091E4F0900040
:10159000A2E0FE74AC2FF582E43403F583EEF08014
:1015A0004E78850602151D7888E6656F7041E56FF7
:1015B000603D9000A4E0B4780F7885E6FF08E6FC73
:1015C00008E6FD1252AE8027900494E0FF9000A33D
:1015D000E0D39F401A1231EF9000A2E0FF12313E9B
:1015E000900318EFF0E4900494F09003ACEFF090C7
:1015F00006EEE04401F090031DE04404F0227888F8
:10160000E624F3601014602124026003021699128C
:1016100032D9025B517886E6FC08E6FD4C707A12FE
:1016200032D908E6F53102169A1232D90245BA903B
:1016300004B9E064FE70627A0B79A81231A4705983
:101640009004BDE0FF6052026012751E03C222D2F8
:10165000168014751E02C22230280F78ACE6184698
:101660006003C2A322C216023621C2A3900474E012
:1016700030E026D2A3801F023BE9751E05024ECC46
:10168000751E0190047EE0701030070D024E2A9006
:101690000474E030E003123185228B2C8A2D892ED0
:1016A0008C2F8D30787A7C017D017BFF7A0A79C39B
:1016B000122F64C21612318D122BAF2456604F24A4
:1016C000B07003021C21147003021C1C242F600341
:1016D000021F98D216E92407F9E43A78DC7C067FE9
:1016E000061232039004CDE01231CFAB2CE52E244C
:1016F0000DF9E4352DFAC003C002C001E52E240126
:10170000123241AD03D001D002D003122B89123224
:10171000862405F9E4352DFA7D1C125E2B90000419
:10172000122F6EB50702D218E52E2405123241ADF4
:101730002C7B017A0679E47F051230127002D219EF
:10174000AB2C900003122F92FFB43904D219800BF6
:10175000EF64146004EFB41902D218301805301881
:1017600002D217201703021F98C218C219121FE9CC
:101770007A01797A122FF3900003123001122D555D
:1017800018261018B2111A08141BBC151BBC161809
:10179000E51718F618190E1919E41A19EC1B1A0294
:1017A0001F19FD2217BA391AFA411B5B421B8943E4
:1017B0001BA6441BBC5000001BBA302903021BBCF3
:1017C0007F0A126012302202C2229006EDE09001E0
:1017D00085F0A37407F0E56D900188F0A3E56EF045
:1017E000123046FF900690E0B5070E90000D122BC8
:1017F000C8FE900691E06E6025900690EFF0900094
:101800000D122BC81230357F037E001259887B01E0
:101810007A06799112303F7F047E001259887F0A40
:101820001261200218DEE4900185F0122FFEFF54B1
:1018300007900185F0EF5401FF9006EDE0FE5401A2
:101840006F6009900185E04420F0802D90000B121C
:101850002BC8FC5402FDEE54026D6009900185E036
:101860004440F08014EC5404FF9006EDE054046F03
:101870006007900185E04480F0122FFE12313EE5B2
:10188000736439600BE573643A6005E573B43B1526
:101890009006ECE01232C89006EDE06EFEEF4E903E
:1018A00006ECF0800BE573B440069006EC7401F092
:1018B000802C9006EDE05407900185F0E4A3F03011
:1018C0002906E04401F08007900186E054FEF09084
:1018D0000186E03025054402F0800354FDF0D21863
:1018E000C219021BBC753201D22912320B12303FD1
:1018F0007F057E008012E4F532C229FB7A0079323E
:10190000F5427543017F05FE125988021BBC122F58
:101910006B2460601614606114700302199E1470C9
:10192000030219A724A360030219D8E4F5327B014E
:101930007A017988F559755A0C7F10FE125CFFE424
:10194000F53274017E00A832088005C333CE33CE51
:10195000D8F9FF7892E6FDEF5D6013E53275F0038C
:10196000A42488F582E43401F583E05480F0053244
:10197000E532B404CDD219805F7890E6FE08E6FF28
:101980004E7002800C7C007D3C122C3BC37899E6A3
:101990009F900188F07898E6900189F0803A788FDE
:1019A000E6900188F080317B017A017988755900D1
:1019B000755A067F327E00125CFF900186E0302966
:1019C000054401F0800354FEF0900186E0302505C7
:1019D0004402F0800354FDF0122F6B900187F0D287
:1019E00018021BBC121FB95332808006121FB94364
:1019F000327F12320B12303F7F32021B9DD218020F
:101A00001BBC124E2A021BBCE4F532122F6B245F62
:101A1000607D147003021ABD147003021AEF2403D0
:101A20006003021AF5E4F53212318D123249122B9D
:101A3000C864807032AF3204A807088002C333D86C
:101A4000FC789246F6AB2C123249E52E2582F9E558
:101A50002D3583FA122BAFFF1232548002C333D8D4
:101A6000FC4F122BF58012AF327401A807088002D8
:101A7000C333D8FCF4789256F60532E5326404702C
:101A8000A712306F75420075430C121FDE806690FE
:101A9000000E123049FF78976014E64402F67899F8
:101AA000A60790000F122BC87898F6E48008E65439
:101AB000FDF6E47899F67890F608F6803812318DC4
:101AC00090000E122BC8FF7897600BE64401F67861
:101AD0008FA607E48008E654FEF6E4788FF6789344
:101AE000F608F6121F997F0C7E00125988800612A4
:101AF000306F121FCDD218021BBCE4F532123046F3
:101B0000F533E4F532AF32E533A807088002C3139A
:101B1000D8FC30E039E532FD7C002406FFEC33FED2
:101B2000ED240EFDEC33FCAB2CE52E2DF9E52D3C20
:101B3000FA12303F125988740E2532F582E433F5DB
:101B400083122F6EFF746F2532F8A607D206053276
:101B5000E532C3940340AED2188061E4F532F53229
:101B6000E5322406FFE433FE74882532F9E43401BB
:101B7000FA7B01755900755A01125CFF0532E53296
:101B8000C3940340DBD218803312306FC002C0010F
:101B900078B27C067D01D001D0021231017E0012A4
:101BA0005988D218801612306F755900755A027F05
:101BB000387E00125CFFD2188002C218201803027F
:101BC0001F98E4F532C218A216921A7538017539B9
:101BD00001753A7A753B21753C0A12318D900003EC
:101BE000122BC8F53DA219921B124C7C8F32900328
:101BF00023E004F09003AAE52FF0A3E530F0E531EF
:101C0000123022AF327A01797A1230599003A8E566
:101C10003212316A44FAFFE4123291227F061261D5
:101C200020783C7C017A0B79627F3E122FEA1232D7
:101C3000862401F9E4352DFAC002C001122F8F2449
:101C4000FEFDD001D002125E2B122F8D7C0024FFEE
:101C5000F582EC34FFF583122BC8B50702D217E5E5
:101C60002E2402123241AD2C7A0679E47F0512301F
:101C7000B47002D218201703021F98201803021F05
:101C800098AB2CE52E240FF9E4352D783C7C017FB0
:101C90003E12320312318D900008122BC8245E7060
:101CA00003021F77046003021F98785C7C0B7DFFA2
:101CB0001230AE7003021F669003237414F078761E
:101CC0007C047A01793C7F06123066122F8D7E00EB
:101CD00024FEF582EE34FFF583122BC8FF656160A8
:101CE000048F61D219201903021F98121FE9900175
:101CF0003CE0FB30E0519006EDE0FE5407FD900122
:101D000042E05407FC6D603F9006EAECF0A37402D9
:101D1000F0E5736439600BE573643A6005E573B40C
:101D20003B1A9006ECE0FD9006EAE06EFEED4E9068
:101D300006ECF09006EEE04401F0800BE573B44051
:101D4000069006EC7401F0EB30E22690015EE0FFB5
:101D500078976010E64402F67899A607A3E0789891
:101D6000F6E48008E654FEF6E47899F67890F608F2
:101D7000F690013CE030E702D20090013CE030E117
:101D800023E4F532900143E030E107753201D229B6
:101D90008005E4F532C22912320B12303F7F057EF6
:101DA0000012598890013CE030E462E4F532F532EB
:101DB000123194E0FF64807028AE3204A8060880D7
:101DC00002C333D8FC789246F6123194C083C082A5
:101DD0001232548002C333D8FC4FD082D083F080BB
:101DE00012AF327401A807088002C333D8FCF4781C
:101DF0009256F60532E532640870B57B017A0179B6
:101E000046754200754318121FDE1261B690013C00
:101E1000E030E321900160E0FF78976006E644013E
:101E2000F68004E654FEF6788FA607121F997F0C01
:101E30007E0012598890013CE030E53F78327C000A
:101E40007A0B79A01230A3900161E0600543327FE4
:101E50008003533280900162E0600543328080034A
:101E600053327F900163E0F533A3E0F534A3E0F54E
:101E700036A3E0F53712320B121FCD90013CE03053
:101E8000E61478B27C067D017B017A017967123114
:101E9000017E0012598890013DE030E01990014325
:101EA000E0FFC4135407139221302107E49006C1C8
:101EB000F08003125FFA90013DE0C313540760778E
:101EC000E490013BF0F090013BE0FFC394035065C8
:101ED0001232608005C333CE33CED8F9FF90013D76
:101EE000E0C3135407FDEF5D604390013BE0FD2428
:101EF00006FFE433FE746A2DF9E43401FA12303D32
:101F000012598890013BE0FF246AF582E43401F520
:101F100083E0FE746F2FF8A60690013BE0FF74018A
:101F2000A807088002C333D8FCFF125A7A90013BFD
:101F3000E004F08091D20690013DE030E45A900137
:101F40006DE0FF9006F1F0BFFF02E4F07B017A063E
:101F500079F112303F7F097E001259889006EA74A9
:101F600001F0A304F0227F067A04797612302C3037
:101F70000026C200024E2A781D7C037D011230AE7D
:101F800060047565A2229005557414F07F067A03EB
:101F9000791D1230887565A1227B007A00799775CA
:101FA00042007543017F0B7E001259887B007A0046
:101FB000798F75420075430122E4F532FB7A00798E
:101FC00032F559755A017F32FE125CFF22754200CC
:101FD0007543067F327E001259881261A6227F1057
:101FE0007E0012598812619D227B017D327F03128F
:101FF0005FAE22C0E0C0F0C083C082C0D075D00008
:10200000C000C001C002C003C004C005C006C007B4
:10201000D39063F0740193956AE4939569400B053E
:102020006AE56A700205690220AB756900756A008D
:10203000056BE573644070699006F2E060481460D7
:102040002114705D9006F1E0FF60569006F0E0C349
:102050009F502C120065C39F40479006F0E004F0AB
:10206000803F9006F1E060399006F0E0D3940040A4
:102070000E1200659F402A9006F0E014F080229036
:1020800006F2E4F0801B9006EDE020E1149006EAF1
:102090007402F0A312006E302B0512008C8002D265
:1020A0002B120065C39F4003756B009063EFE493B0
:1020B000FFE568C39F5005056802214375680090DD
:1020C0000326E07002A3E06006900326120055305C
:1020D000120A78A806E618700A06800778A7760024
:1020E0000876009006F8E07002A3E060069006F81B
:1020F0001200559006F5E07002A3E060069006F528
:102100001200559006B5E07002A3E060069006B597
:10211000120055900324E07002A3E06006900324AF
:10212000120055900553E07002A3E060069005533D
:102130001200559006FAE07002A3E060069006FADD
:10214000120055D39063ED7401939567E4939566FF
:10215000400B0567E567700205660222F7756600A9
:10216000756700200519900555E0FF900323E0C333
:102170009F5005E004F08007900323E4F0D205208F
:102180000812900481E0600414F0800890048174C7
:1021900028F0D2087897E6FB30E17678991200773C
:1021A0007891E69F18E69E50090806E61870010629
:1021B000805F7890760008760078997600EB54FD81
:1021C0007897F69006EB7402F07898E69006EA129B
:1021D000006E90031DE04404F0E5736439600BE584
:1021E00073643A6005E573B43B12120093FE9006E7
:1021F000EDE06EFEEF4E9006ECF08008E573B44023
:102200000312008C9006FCE04401F09006FF74027B
:10221000F07897E630E05F9006EDE0FB6058788F4D
:102220001200777894E69F18E69E50090806E61893
:102230007044068041789376000876009006EB742F
:1022400002F09006EAE412006E90031DE04408F0EC
:10225000E5736439600BE573643A6005E573B43B7C
:102260000D1200936BFEEF4E9006ECF08008E573C4
:10227000B4400312008C78ACE61846600708E616F6
:102280001870011690047CE0600214F090031BE0CB
:10229000600214F0789606E6187001069006C1E018
:1022A000600530220214F090068FE0600214F09076
:1022B00006BAE0600214F0900480E0600214F0902E
:1022C000047DE0600214F0900700E0600214F090DA
:1022D00006C8E0600214F090047EE0600214F09002
:1022E00006B1E0600214F0900482E0600414F08013
:1022F0000690031CE004F030046AE563C3940A50BE
:10230000040563805F20095AE564C394054053D2F5
:10231000097E007F997DFF7B017A0479B9122F2B0A
:1023200078B97C047D017B017A0579567E007F991E
:10233000122B89900552E564F09004BAE02405FF61
:10234000E433FEE5646F7001EE60179006FCE04434
:1023500001F0900557E09006FDF0A3E564F0A3744A
:1023600001F0C2049006DAE0FFA3E0C39F5006E04C
:1023700004F002241A9006DBE4F09006B4E024FE98
:10238000604914700302240B240260030224189095
:1023900006C2E054079006DAF0FD9006C3E075F03F
:1023A00014A4FFAEF07C00122C3B9006C9EEF0A303
:1023B000EFF09006C4E0541F25E09006CDF0120027
:1023C00084D22D9006B47402F0804F9006CDE06068
:1023D000329006C9E0FEA3E0FFC39006CCE09F90D8
:1023E00006CBE09E5012E475F001122C90302D04C3
:1023F000B2B28026D2B28022120084B22DA3E014A1
:10240000F080179006B47403F0800F120084D22D70
:10241000D2B29006B4F08002D2B29063F3E493FF9C
:10242000E56CD39F50030224B1756C009006B7E0B1
:102430009006CE1200319006B8E09006CF1200311F
:102440009006B9E09006D012003A9006BBE09006E4
:10245000D112003A9006BCE09006D21200439006DA
:10246000BDE09006D31200439006BEE09006D41261
:10247000004C9006BFE09006D512004C9006C0E0DC
:102480009006D612005C9006C5E09006D712005C5C
:102490009006C6E0541FFF9006D8E054E04FF0903D
:1024A00006C7E0541FFF9006D9E054E04FF0022524
:1024B000E8056CE56CD394004062E56CD394205041
:1024C0005B9006CEE0FF541F600CE57230E007120F
:1024D0000026C2A08002D2A09006D1E0FF541F6067
:1024E0000CE57230E107120026C2A68002D2A69047
:1024F00006D4E0FF541F600CE57230E2071200269C
:10250000C2818002D2819006D7E0FF541F6008127A
:102510000026C2CD0225E8D2CD0225E8E56CD39491
:10252000204060E56CD3944050599006CFE0FF54B2
:102530001F600CE57230E007120026C2A18002D2B3
:10254000A19006D2E0FF541F600CE57230E1071243
:102550000026C2A58002D2A59006D5E0FF541F60D8
:102560000CE57230E207120026C2808002D2809011
:1025700006D8E0FF541F6007120026C2CC8069D243
:10258000CC8065E56CD39440405EE56CD39460509C
:10259000579006D0E0FF541F600CE57230E0071240
:1025A0000026C2A28002D2A29006D3E0FF541F6090
:1025B0000CE57230E107120026C2A48002D2A4907A
:1025C00006D6E0FF541F600CE57230E207120026C9
:1025D000C2A78002D2A79006D9E0FF541F6007125D
:1025E0000026C2838002D283D007D006D005D00453
:1025F000D003D002D001D000D0D0D082D083D0F090
:10260000D0E0320266000001680002690000016B40
:1026100000016C004306CE0000004306D10000001C
:102620004306D40000004306D70000004106DA0349
:102630004106DB004206C901F44206CB0000410618
:10264000CD08C1AD017340017201036F0000000CA1
:102650009A000000000000000000000000026D0071
:10266000004606E30000000000004606DC01010110
:102670000101014106E200C129C1284306B700005B
:10268000004306BB0000004306BE0000004306C531
:102690000000004206B20000C1A1011F00011E009F
:1026A0004206B500004106C13CC1224106BA0041C4
:1026B00006C8004106B1004306C20000004106B44E
:1026C0000002080000C11C4106B000010A1FC19DA4
:1026D000010B00010C00C19E010D00010E00010F55
:1026E00000011000011100011200C19F011300013F
:1026F0001400011500011600011700C12001180087
:10270000011900011A00011B00011C00011D0044F9
:1027100006FC0000000060840328000000000000A8
:1027200000000000000000000000000000000000A9
:102730000000000000000000000000000000000099
:102740000000000000000000000000000000000089
:102750000000000000000000000000000000000079
:102760000000000000000000000000000000000069
:102770000000000000000000000000000000000059
:102780000000000000000000000000000000000049
:1027900000000000000000000000000000006036A3
:1027A00004830000000000000000000000000000A2
:1027B0000000000000000000000000000000000019
:1027C0000000000000000000000000000000000009
:1027D00000000000000000004203240000608403A9
:1027E000EE000000000000000000000000000000FB
:1027F00000000000000000000000000000000000D9
:1028000000000000000000000000000000000000C8
:1028100000000000000000000000000000000000B8
:1028200000000000000000000000000000000000A8
:102830000000000000000000000000000000000098
:102840000000000000000000000000000000000088
:102850000000000000000000000000000000000078
:1028600000000000004204720000603E03AF000060
:102870000000000000000000000000000000000058
:102880000000000000000000000000000000000048
:102890000000000000000000000000000000000038
:1028A0000000000000000000000000004604760068
:1028B000000000000046031D00000000000001654C
:1028C000A14204740000C106C103420326000002B5
:1028D000AB001442047F0000C10541032300410501
:1028E000551441047C00410481284205530000C175
:1028F0000841047D034303180000004303AC0000BB
:10290000004103ED0041031B00C109C10401630044
:10291000016400609A04B90000000000000000009B
:1029200000000000000000000000000000000000A7
:102930000000000000000000000000000000000097
:102940000000000000000000000000000000000087
:102950000000000000000000000000000000000077
:102960000000000000000000000000000000000067
:102970000000000000000000000000000000000057
:102980000000000000000000000000000000000047
:102990000000000000000000000000000000000037
:1029A0000000000000000000000000000000000027
:1029B000000162004104821E41031C0041047E00AC
:1029C000C107410313004103140041031500015BDB
:1029D00000015C00015D00015E0041031600025F22
:1029E0000000016100C100C102C181410317030160
:1029F000A900C193C11202A700004206F8000042DC
:102A000006F500004106F7014206FA000001AA009F
:102A100001A600C10AC10BC10C017B00017C004171
:102A200006F400017D00C10DC10EC10F017E004101
:102A300006F3024106ED004206EA00034106EC00FF
:102A4000C12A4206EE0000C12C4306F0000000C17E
:102A5000AB4106E900470688000000000000004185
:102A6000068F0A4106900841069100029500000178
:102A70009200C126C1250197000290000001990033
:102A800001980002930000018F00028D000058069B
:102A9000980000000000000000000000000000009E
:102AA0000000000000000000004606920000000048
:102AB0000000C1234107000000E709F608DFFA80A3
:102AC00046E709F208DFFA803E88828C83E709F046
:102AD000A3DFFA8032E309F608DFFA8078E309F22F
:102AE00008DFFA807088828C83E309F0A3DFFA8024
:102AF0006489828A83E0A3F608DFFA805889828A93
:102B000083E0A3F208DFFA804C80D280FA80C6808E
:102B1000D4806980F28033801080A680EA809A8019
:102B2000A880DA80E280CA803389828A83ECFAE462
:102B300093A3C8C582C8CCC583CCF0A3C8C582C83E
:102B4000CCC583CCDFE9DEE7800D89828A83E493FC
:102B5000A3F608DFF9ECFAA9F0EDFB2289828A835B
:102B6000ECFAE0A3C8C582C8CCC583CCF0A3C8C525
:102B700082C8CCC583CCDFEADEE880DB89828A8329
:102B8000E493A3F208DFF980CC88F0EF60010E4EE9
:102B900060C388F0ED2402B4040050B9F582EB2440
:102BA00002B4040050AF2323458223902B0973BB4A
:102BB000010689828A83E0225002E722BBFE02E3FB
:102BC0002289828A83E49322BB010CE58229F58263
:102BD000E5833AF583E0225006E92582F8E622BB38
:102BE000FE06E92582F8E222E58229F582E5833AAC
:102BF000F583E49322BB010689828A83F022500286
:102C0000F722BBFE01F322F8BB010DE58229F58214
:102C1000E5833AF583E8F0225006E92582C8F622DA
:102C2000BBFE05E92582C8F222EF8DF0A4A8F0CF03
:102C30008CF0A428CE8DF0A42EFE22BC000BBE008A
:102C400029EF8DF084FFADF022E4CCF875F008EFA9
:102C50002FFFEE33FEEC33FCEE9DEC984005FCEECE
:102C60009DFE0FD5F0E9E4CEFD22EDF8F5F0EE84FF
:102C700020D21CFEADF075F008EF2FFFED33FD40C4
:102C800007985006D5F0F222C398FD0FD5F0EA223E
:102C9000C5F0F8A3E028F0C5F0F8E58215827002CF
:102CA0001583E038F022EF2BFFEE3AFEED39FDEC14
:102CB00038FC22E88FF0A4CC8BF0A42CFCE98EF039
:102CC000A42CFC8AF0EDA42CFCEA8EF0A4CDA8F094
:102CD0008BF0A42DCC3825F0FDE98FF0A42CCD3558
:102CE000F0FCEB8EF0A4FEA9F0EB8FF0A4CFC5F0C2
:102CF0002ECD39FEE43CFCEAA42DCE35F0FDE43CBB
:102D0000FC22EB9FF5F0EA9E42F0E99D42F0E89C40
:102D100045F022E8600FECC313FCED13FDEE13FE4B
:102D2000EF13FFD8F122E8600FEFC333FFEE33FE5D
:102D3000ED33FDEC33FCD8F122A42582F582E5F0D9
:102D40003583F58322FAE6FB0808E6F925F0F61844
:102D5000E6CA3AF622D083D082F8E4937012740166
:102D600093700DA3A393F8740193F5828883E473A1
:102D70007402936860EFA3A3A380DF8A838982E44F
:102D800073E3F5F009E208B5F06BDFF58067E3F572
:102D9000F009E608B5F05EDFF5805A87F009E6082D
:102DA000B5F052DFF6804E87F009E208B5F046DF55
:102DB000F6804288828C8387F009E0A3B5F036DF85
:102DC000F6803288828C8387F009E493A3B5F025DE
:102DD000DFF5802188828C83E3F5F009E0A3B5F06C
:102DE00014DFF5801088828C83E3F5F009E493A367
:102DF000B5F002DFF4022EB0808780E9809080D4A5
:102E0000803E8015806E807E809D80B7808D80A3FF
:102E100080518074803C022EBC89828A83ECFAE463
:102E200093F5F0A3C8C582C8CCC583CCE493A3C8EE
:102E3000C582C8CCC583CCB5F076DFE3DEE1807017
:102E400089828A83E493F5F0A3E208B5F062DFF4A7
:102E5000805E89828A83E0F5F0A3E608B5F051DF51
:102E6000F5804D89828A83E0F5F0A3E208B5F04051
:102E7000DFF5803C89828A83E493F5F0A3E608B508
:102E8000F02EDFF4802A8002805789828A83ECFA50
:102E9000E493F5F0A3C8C582C8CCC583CCE0A3C831
:102EA000C582C8CCC583CCB5F006DFE4DEE2800085
:102EB0007FFFB5F0020F2240027F012289828A83C0
:102EC000ECFAE0F5F0A3C8C582C8CCC583CCE0A37A
:102ED000C8C582C8CCC583CCB5F0D5DFE5DEE380BC
:102EE000CF89828A83ECFAE0F5F0A3C8C582C8CC0A
:102EF000C583CCE493A3C8C582C8CCC583CCB5F048
:102F0000AFDFE4DEE280A988F0EF60010E4E60AB37
:102F1000ED2402B404005098F582EB2402B40400BE
:102F2000508E2323458223902DF873EF4E6012EFCD
:102F300060010EEDBB010B89828A83F0A3DFFCDE0A
:102F4000FA2289F05007F709DFFCA9F022BBFEFC4A
:102F5000F309DFFCA9F0227D017BFF7E00022B89B3
:102F60007D017BFF7E007F99022B8990000DAB2CA9
:102F7000AA2DA92E022BC818E6FE08E6FF75F0124E
:102F8000122D39EE75F012A42583F58322AB2C9017
:102F90000001AA2DA92E022BC87D017BFF7E000215
:102FA0002B89A3E0FFE4FCFDFE122D26E5324FFF46
:102FB000E5314EFEE5304DFDE52F4C8F328E318DE3
:102FC00030F52FA3E0FF22F0900007E0FF04F0743B
:102FD000092FF582E43400F58322A801FC7A0679F2
:102FE000E47F057B017E00022B897D017BFF7E0053
:102FF000022B897E007F997D007B01022F2B9000A0
:103000000BAB2CAA2DA92E022BC878BB7C047D010A
:103010007F027E00122F07EF227D017BFF7E0002E0
:103020002B899003A9F07F807A0379287E007D00A8
:103030007B01022F2B900691F07A0679907B017527
:1030400042007543012290000CAB2CAA2DA92E0240
:103050002BC87D017BFF022B897E0078287C037DB5
:10306000017B01022B897D017B017E00022B89AB54
:103070002CE52E240EF9E4352DFA22E0FF9000070E
:10308000E0FE04F074092E227E007D007B01022FF9
:103090002B7885E6FF75F012A42494F582E43404BD
:1030A000F583227E007F067D007BFF022B897A015B
:1030B000793C7F067B017E00122F07EF22E6241861
:1030C000F582E43403F5832275F012A4248FF5828F
:1030D000E43404F58322E4F55DF55C900473E05478
:1030E000FEF0E4900472F0A3E05401F022AB38AAA1
:1030F00039A93A22900691E0FFE4FCFDFE7B3CFA00
:10310000227E007F02122B897B017A0679B27542FA
:10311000007543027F3822E6FE08E6FF7C00022CA1
:103120003BE493F545754602A3E493F54774019398
:10313000F5487BFF227B017A0479B97D99229006BC
:10314000EAF0A37402F0227E007C00E54D2557F9D9
:10315000EC354CA801FCAD4B22FFE434FFFEE4FC4F
:10316000FD7B107A0EF9F8022CB3F0E490046EF0B7
:10317000900473E04401F0E0540122F9E43539A8E9
:1031800001FCAD382254FEF0A3E0F56222AB2CAA7C
:103190002DA92E22E53275F003A42446F582E434ED
:1031A00001F5832278BB7C047BFFFE7F027D011248
:1031B0002F07EF228F82758300022BC8F090047DC9
:1031C0007403F022E0FF7E007B01022B89E53B24A3
:1031D000F3FFE434FFFE22E493FF7401939003268F
:1031E000CFF0A3EF227D017BFFFE122B89E422901A
:1031F0000481740AF022D2A39003267417F0A374FA
:1032000070F022FA7D017E00022B897B007A007922
:10321000322290049375F01222754902754A0175A5
:103220004B2C7BFF22FC122D13A3EFF022900313F3
:10323000E075F08622900475F0900474E04401F08B
:1032400022F9E4352DA801FC2275F003E532900047
:103250000E022D3990068AE014FE7401A806082299
:1032600074017E00A80708227F997B01022F2BF0B2
:10327000900007E02409F9E4340022C2A390032659
:10328000E4F0A374C822C217C218C219AB2CE52EF1
:1032900022900472F0A3EFF07562042275F002121E
:1032A0002D39E0FEA3E022F9E43AFA7D01022B89F0
:1032B000AF5705578F8275830022900482741EF0E9
:1032C00022787FE6FE08E622FF9006EAE0FE227BF7
:1032D00001122F2B900009E0227B017A0079A222B3
:1032E000302511E51F64036006E51F640270317527
:1032F0001F04802CE51FB40403125FFAE51FB4021B
:1033000006202203751F039006C1E07013E51FB469
:10331000030E30220B3021087F0F125741751F0218
:10332000E51F122D55334101334402334703334720
:1033300004354205354C0635540735510800003533
:10334000600200030240759006EDE0FFF526E5738C
:10335000B4390DEF54014226E52625E0F526803FDD
:10336000E573B43A169006EDE0FF54024226E526D6
:1033700025E0F526EF540142268024E573B43B0294
:10338000800BE57364406005E573B43D089006ED7D
:10339000E0F526800AE573B43C051260FA8F26E555
:1033A0007324C0705EE52614602024FD7038123E40
:1033B000DF9006B3123564123F5D541FF52A7F017A
:1033C0001235F2FB9006B202347F123F729006B2C1
:1033D000123EF59006B21235649006B31235ACFB7E
:1033E0009006B302347F123EDF541F123F5D541F1C
:1033F000F52AE4FF1235F29006B21235ACFB9006C6
:10340000B3807CE57230E01EE52630E00E123F729C
:1034100012404F123EF81240568006123EDF124014
:103420005D123F618003123FBB541FF52AE4FF1277
:103430005878E57230E11EE52630E10E123F721237
:10344000404F123EF81240568006123EDF12405D99
:10345000123F618003123FBB541FF52A7F011258AF
:1034600078E57230E21EE52630E20E123F7212401D
:103470004F123EF81240568006123EDF12405D1297
:103480003F618003123FBB541FF52A7F0212587818
:10349000E51EB404089006BAE07002F51ED39063EE
:1034A000B17401939509E493950840090509E5096C
:1034B0007002050822B21CE4F508F509E51E146047
:1034C0002614602914605114600E14605D24057088
:1034D0006DE4F52A7B1E803DE4301C06F52A7B1E38
:1034E0008003F52AFB802EE4F52AFB80203028217A
:1034F00078ACE618466011E4301C07F52AFB7D1E07
:103500008026F52AFBFD8020E4F52A7B0A7D1E80BB
:1035100028E4F52AFBFD8021E4301C08F52A7B0A0B
:103520007D1E8004F52AFBFD800FE4301C07F52A80
:10353000FB7D1E8004F52AFBFD7F03025878E4F52D
:103540001E229006BAE060157F018002E4FF02426D
:103550006602542B9006C8E06003025D62025FFAC7
:10356000751F0322541FFBE075F003A42492F5821B
:10357000E43463F583E493541FF52AE4FF1258788A
:103580009006B3E075F003A42490F582E43463F56B
:1035900083E493541FFD9006B3E075F003A42491D7
:1035A000F582E43463F583E493541F22FBE075F065
:1035B00003A42492F582E43463F583E493541FF565
:1035C0002A7F011258789006B3E075F003A4249086
:1035D000F582E43463F583E493541FFD9006B3E071
:1035E00075F003A42491F582E43463F583E49354E5
:1035F0001F221258789006B2E075F003A42490F5CB
:1036000082E43463F583E493541FFD9006B2E075C1
:10361000F003A42491F582E43463F583E493541F0A
:1036200022783B7C017A08793C7F40123019900166
:103630007B7402F0E4F52C900474E0FF30E00F128C
:103640003185E4900313F0A3F0A3F0D2A3229003FA
:1036500013E0D3940F4028E4F0A3F0A3F0D2A31218
:1036600031EF90068FF0756201751F031232BA3088
:103670001605D217125E05125B0C8E6D8F6E22201E
:10368000160A900313E0B401037407F0900313E0EB
:10369000FF64076003EF700690068F740AF0EF7006
:1036A00061EF60030238F4900314E01460101460BA
:1036B00024240260030238F412327B023892900311
:1036C00026E07002A3E060030238F41231F69003A2
:1036D000147402F022900326E07002A3E0700490BC
:1036E0000314F02009030238F4C209754FFF755026
:1036F000037551349003741238F570030238F402E4
:1037000038E7900313E0FFD3940050030237C7EF6C
:10371000940940030237C7A3E014606F04600302FA
:1037200038F4900313E0FF90017BB40705740CF0AC
:1037300080037402F090017BE0FE900315E0D39EBD
:103740004003023865EF75F086A4FFAEF024F1F96E
:1037500074023E754EFFF54F895075510274F32F78
:10376000F974023E7552FFF553895412322D9003BD
:1037700033122D39123908AD2C125EDB12322D9026
:103780000375122D391231D7023892900326E0705A
:1037900002A3E070030238A42009030238F4C2092E
:1037A00012322DA42434F9740335F0754FFFF5500F
:1037B0008951E075F086900374122D391238F57036
:1037C000030238F40238E7900313E0C3940950036E
:1037D0000238F4782D7C007D007BFF7A08797C7EAE
:1037E000007F10122B899007E9E493FF7E00782D6B
:1037F0007C007A0779A91230A7900313E0FDC394E7
:103800000C502EE0FF75F003A42418F582E4340870
:10381000F583E493F52DEF75F003A42419F582E404
:103820003408F583E493FE740193F530EEF53180AE
:103830001E74632DF8E6FFC3941050030238EEEFB8
:1038400094FF40030238EE8F2D75300DE4F5319072
:103850000314E01460440460030238F4900315E09C
:10386000D394024007E4F0900313F022754EFF75E5
:103870004F077550A7755102755200755300755466
:103880002D9007E9123908AD2C125EDB90082B123F
:1038900031D7F09003147401F022900326E07002F7
:1038A000A3E0700C900315E004F0E4900314F02200
:1038B000300941C209754FFF7550077551EA9008EC
:1038C0002AE493F552123135125813EA494B701716
:1038D000754FFF75500875512D755206123135120E
:1038E0005813EA494B600DE4900314F0A3F09003E1
:1038F00013E004F022E493F5527B017A0479B97D58
:1039000099125813EA494B22E493F5557B017A0149
:10391000793B12511A8F2C7B017A01793B22E4F515
:1039200026202334D223FB7A007997F559755A0162
:103930007F0BFE125CFF7B007A00798F124A5D7F5D
:103940000C7E00125CFF7B017A0679981251A47BF1
:10395000017A067992125229C37896E6941018E6F5
:10396000940E402AE47895F608F690068CE0C3940D
:10397000174015E4F090068AE0D3940740057401DF
:10398000F0800B90068A800390068CE004F0789516
:10399000E6FA08E6FBFF124A8D90068DEFF0AF03C2
:1039A000124A8DA3EDF0900692E0547FFFBF7F0591
:1039B000D225023A4FC224900693E0131313541FEA
:1039C000FF7E007C007D3C122C29124A549000009E
:1039D000F0A3EFF0900696E0131313541F1249CD95
:1039E000124A54900002F0FAA3EFF0FB1249C912F8
:1039F0004A54900004F0A3EFF0C3900001E09B90C4
:103A00000000E09A5004C2248002D224900692E082
:103A100030E73A20241B124A104012900002E0FEC8
:103A2000A3E0FFED9FEC9E5004D2258022C22580AA
:103A30001E124A10500F900002E0FEA3E0FFC3EDFB
:103A40009FEC9E5004D2258006C2258002C225E448
:103A5000F5261249E9C4131313540130E004D226A9
:103A60008009C2260526E526B408E7202603023B86
:103A7000CFE4F5261249E9547FFD90068AE0FF1253
:103A80005D8C4003023BC31249E9C4131313540174
:103A900020E003023BC3124995A3E0F92FFFEC3E5F
:103AA000FEEF6B7002EE6A602174017E00A82608AA
:103AB0008005C333CE33CED8F9124A45600CEFF4FB
:103AC000FFEEF45C18F6ED5F08F6124995E92FFF5A
:103AD000EC3EFEEF6B7002EE6A6003023B82047EF6
:103AE00000A826088005C333CE33CED8F9124A4544
:103AF0006003023B82EC4E18F6ED4F08F67892E632
:103B0000F9FDEF5D601CAF267401A807088002C3B1
:103B100033D8FCF4597892F67A6379DA123BD012F2
:103B2000619D9006EB7402F0E52675F003A42499DC
:103B3000F582E43406F583E054079006EAF0900637
:103B4000EEE04401F090031DE04410F0E5736439A9
:103B5000600BE573643A6005E573B43B189006ECBE
:103B6000E0FF9006EAE0FE9006EDE06EFEEF4E907C
:103B700006ECF0804EE573644070489006EC04F06B
:103B80008041124995124A54FED3EF9BEE9A40337E
:103B900074017E00A826088005C333CE33CED8F941
:103BA000FF7892E6FDFBEF5B6019AF267401A80772
:103BB000088002C333D8FCF45D7892F67A6379DB2F
:103BC000123BD00526E526C394085003023A74221E
:103BD000E52675F003A42410FFE435F0FE7BFF75A5
:103BE000420075430112598822783C7C017D017B9B
:103BF000FF7A0979C0122F64E4F52C78D57C017A1C
:103C00000A79597F401231E5F52D782E7C00FD7B35
:103C1000FF7A0A7999FE7F03122B8975310F900480
:103C200074E0FF30E009123185E4F55CF55D22E4D3
:103C3000F52E9003A9E0F52F75300D754EFF754FE9
:103C40000A75509C75510275520075530075542EBB
:103C50007555037B017A0179D512511A8F2D900386
:103C6000AAE0FCA3E0FD9003A9E0F53C753D0175D9
:103C70003E03753F289003A8E0F5407B017A017967
:103C80003C12532E8F2CE55C146043147003023DEC
:103C900072147003023DD5147003023DE6240460E3
:103CA00003023E38E55DD394034009755B01E4F5FA
:103CB0005D023E38D2A3900473E020E003123E3C44
:103CC0009003267403F0A374E8F0755C012290045D
:103CD00072E0C313FEA3E013FFEE547FFCAD079028
:103CE0000326E0FAA3E0FBFFAE02122C3B90013B5F
:103CF000EFF0EB4A7006055DF55C8050900473E0D0
:103D000030E01190013BE0FF900316E06F6005EF9B
:103D1000F0123E3C200903023E3BC209754F01757B
:103D200050017551D5852D52123135125813EA497B
:103D30004B601E90046EE07005755C03800D755C31
:103D4000029003267401F0A374F4F0E4900316F0DB
:103D5000227BFF7A0A799C12300A6003023E3B9074
:103D600004BDE0F55B900473E030E003023E3B02EB
:103D70003E38900326E07002A3E07005055DF55C17
:103D800022200903023E3B9004C1E0FDA3E0788AB3
:103D9000F6ED08F69004C4E008F6C20990046EE05F
:103DA000FF7E0078CE7C047B017A0379EE1231AD80
:103DB0006003023E3B788AE6FE08E6FF900470E06E
:103DC0006E7003A3E06F707390046FE0788C667080
:103DD0006A755C0322300607C206756203800375AC
:103DE00062011230D622E55B601B302202C222E55E
:103DF0005B2433600A24E4600624E97002800075C5
:103E00001E01E4F55B1230D6E55EC3953150179084
:103E10000555E0B4140CE53175F00384255EF55EBC
:103E20008009055E8005E4F55E8005300606C20661
:103E30007562032275620122755C04227B017A019E
:103E4000793CAD2C125EDB22541FFFE054E04FF0B2
:103E5000C3741F950E541FFF9006C5E054E04FF049
:103E6000C3741F950F541FFF9006BEE054E04FF03F
:103E70009006BBC3741F9510541FFFE054E04FF031
:103E8000229006BF75F00384541FFFE054E04FF00A
:103E90002275F00584FFC374069F541FFFE054E0B1
:103EA0004FF02213139006BC541FFFE054E04FF074
:103EB00022E51AC313541FFFE054E04FF022C374ED
:103EC0001F950F541FFF9006BBE054E04FF0C374E2
:103ED0001F950E9006B7541FFFE054E04FF022905C
:103EE00006B3E075F003A42490F582E43463F5830F
:103EF000E4939006B3541FFDE075F003A42491F5FC
:103F000082E43463F583E49322E51BC313541FFF5B
:103F1000E054E04FF02213139006BF541FFFE0540B
:103F2000E04FF022C3741F95119006C5541FFFE0A7
:103F300054E04FF022E51A849006C6541FFFE05467
:103F4000E04FF022E51CC313541FFFE054E04FF094
:103F5000229006BE541FFFE054E04FF022FB900673
:103F6000B3E075F003A42492F582E43463F583E4AE
:103F700093229006B2E075F003A42490F582E43415
:103F800063F583E4932275F00384FEC3740A9E54A0
:103F90001FFEE054E0229006BB541FFFE054E04FA8
:103FA000F022441FF09006B7E0441FF09006BBE0FB
:103FB000441FF09006BEE0441FF0229063AEE493ED
:103FC000541FFDA3E493541FFBA3E493229006B770
:103FD000E054E0F09006BBE054E0F09006BEE05400
:103FE000E022FFE493FEEF8EF0A4FF9006B5E5F02B
:103FF000F0A3EFF022F0EB541FA3FFE054E04FF0EA
:1040000022E0441FF0A3E054E0440AF022C313FF6F
:10401000C3740F9F541F22C3741F9511541FFF9028
:1040200006B72275F00384FEC3740A9E541FFEE097
:1040300054E022E51275F00F84E5F0D3940AE022F3
:10404000F09006C5E054E0227B027D287F032254D5
:104050001FFD9006B222541FFB9006B222541FFB94
:104060009006B322541FFF9006B82275F00584FF16
:10407000C374069F229006B5E0FEA3E04E707B90CD
:1040800006B5F0A3740CF09063BBE493FFE518D37E
:104090009F401CE4F518E519D394074005E4F51991
:1040A00080020519E4F51DF51CF51BF51A804B057A
:1040B00018E518C394004009E518942050038518AA
:1040C0001AE518C39420400CE51894405006E518F2
:1040D00024E0F51BE518C39440400CE518946050AB
:1040E00006E51824C0F51CE518C39460400CE518DB
:1040F00094805006E51824A0F51DE519122D5541B0
:104100001800413801414B02416E03418D0441B01A
:104110000541ED060000426575F005123F35E51BCF
:1041200075F00584123F18E51C75F00584123EA554
:10413000E51D75F005848030E51A123F29E51B1254
:104140003F51E51C123F96E51D805FE51A9006C6BB
:10415000123E91E51B12406B123F18E51C9006BC05
:10416000123E91E51D12406B1240640242609006BF
:10417000C7123EB19006C0123F099006BD123F44DF
:10418000E51DC313541FFF9006B9024260C3741F9C
:10419000951A123F29C3741F951B123F51C3741FF8
:1041A000951C123F96C3741F951D12401C0242605D
:1041B00075F003123F35E51B123E81E51C75F003D7
:1041C00084123EA5E51D75F00384541F9006B812B5
:1041D0003FFA9006C5123EB19006BE123F09900606
:1041E000BB123F44E51DC31312401C8073E51A1235
:1041F000400DFD9006C7E054E04DF0E51B12400D68
:10420000FC9006C0E054E04CF0E51C12400DFB9021
:1042100006BDE054E04BF0E51D12400DFF9006B9DD
:10422000E054E04FF0E51A9006C6123F864EF0E5E6
:104230001B9006BF1240234EF0E51C9006BC1240B6
:10424000234EF0E51D9006B8123F864E1240404DB9
:10425000123FDA4CF09006BBE054E04BF09006B70A
:10426000E054E04FF022AD07E512701D201F1A90B8
:1042700063BA93FFE513C39F50040513800BE4F565
:1042800013F517F516F515F514E5127004D21F8015
:1042900009E512D394504002C21F9006B5E07002A7
:1042A000A3E07066AF12201F04151280020512EF02
:1042B000541FFF9063B8E493FEEF8EF084A3123F87
:1042C000E2E512C394004009E512942050038512E0
:1042D00014E512C39410400CE51294305006E51218
:1042E00024F0F515E512C39420400CE512944050DB
:1042F00006E51224E0F516E512C39430400CE512F1
:1043000094505006E51224D0F517ED1470030243C3
:10431000A804600302441CE513600302441C301F20
:1043200052E512C3942E50129006C512403340023B
:10433000803D54E0F0A3E00243C0E512D3942D4049
:10434000069006C5124001E512D394324006123F92
:10435000B3124005E512D3943C40069006BB1240D0
:1043600001E512D39446500302441C9006B7E012B4
:10437000400222E517123F29E516123F51E51512BA
:104380003F96E514123ED3E5179006C6123E84E52B
:1043900016123E81E51575F00384123EA5E51475ED
:1043A000F00384124064806FE5137070301F4EE597
:1043B00012C3942E500E9006C6124033400280392C
:1043C00054E0F022E512D3942D40079006B8E04463
:1043D0001FF0E512D3943240079006BCE0441FF072
:1043E000E512D3943C40079006BFE0441FF0E5126D
:1043F000D3944640279006C6E0441FF022E517906C
:1044000006B8123F99E516123EA5E515123F18E5CC
:1044100014541FFF9006C6E054E04FF022AD07C2CF
:1044200010EF24FE604C24FE70030244BC240360A1
:10443000030244FAE573B43907E49006EAF08025F4
:10444000E573B44005125424801BE573B43D11900C
:1044500006EDE0C39403500D9006EAE004F08005F9
:104460009006EAEDF0E57220E00302455BD210020F
:10447000455BE573B439051254248033E573B43ACF
:10448000028018E573B440089006EA7402F0801FB9
:10449000E573B43D159006EDE06007E49006EAF0A0
:1044A000800D9006EA7403F080059006EAEDF0E5D1
:1044B0007220E10302455BD21002455BE573B43A1A
:1044C000089006EA7402F08028E573B4400890066C
:1044D000EA7404F0801BE573B43D119006EDE0D35F
:1044E0009400400D9006EAE014F080059006EAED95
:1044F000F0E57230E265D2108061E57324C6601A7F
:10450000146033240260030245B9ED30E103125414
:1045100009E57230E145D2108041ED30E0031254DC
:1045200009ED30E2079006EAE04402F0E572540536
:104530006029D2108025ED30E003125409ED30E1FE
:10454000079006EAE04402F0ED30E2079006EAE068
:104550004404F0E57254076002D210E573643960D8
:104560000BE573643A6005E573B43B089006EB74A1
:1045700001F080069006EB7402F0A2149214E57329
:104580006439600BE573643A6005E573B43B0A90E7
:1045900006EAE09006ECF0800BE573B44006900666
:1045A000EC7401F09006EAE0600312541130100937
:1045B0007B017D327F03125FAE228B2C8A2D892EE8
:1045C000783B7C017A0A79A17E007F22123052ABBF
:1045D0002CAA2DA92E122BAF90013BF090000112B6
:1045E0002BC8FF7E00E92402783C7C011232A7AB85
:1045F0002CAA2DA92E900001122BC890015CF090DE
:10460000013BE0249760311470030246F824FE70E9
:10461000030247051470030246FD240560030247A8
:1046200031C216D21890013CE0F533125A2C921682
:1046300090013CE0FF026012C216C217E4F532F5A9
:1046400031F530F52F90013CE0FFE5324FFFE531C9
:10465000FEE530FDE52F8F328E318D30F52F780855
:10466000122FA2E4FCFDFE7810122D26E5324FFF3A
:10467000E5314EFEE5304DFDE52F4C8F328E318D0C
:1046800030F52F7818122FA2900690E0B5070C9005
:104690000141E0FE900691E06E6021900690EFF0FF
:1046A000900141E01230357F037E001259887A066E
:1046B000799112303D7F047E00125988900142E0CA
:1046C0006002D2177F807E437D6D7C38AB32AA3189
:1046D000A930A82FD3122D024057E5322480FFE5E0
:1046E0003134BCFEE5303492FDE52F34C7FCA2170F
:1046F0009218124868921622C218025F7590013C07
:10470000E0FF0261209006EDE0788AF69003EDE08C
:10471000FF90013CE0FE6F60189003EDEEF0D39443
:1047200007500E9006EB7402F09003EDE09006EA5D
:10473000F022E4F526F527F5289006FAE07002A3AA
:10474000E0700CFE7F01FDFB7A0079A6122F2B1280
:1047500060FAEF70030247FB200D14D20D9063EB5B
:10476000E493FF7401939006F8CFF0A3EF807B12DF
:1047700060FAEF657D70481253F11253CF501990D3
:1047800063E91253D24011AF7D12602A200E09D284
:104790000E7D04AF7D1254A1C39063E91253D34040
:1047A00003024867C39063EB1253D3500302486778
:1047B000300F03024867D20F7D05AF7D0254A190F0
:1047C00006F8E0FEA3E0FF9063EBE493FC74019332
:1047D000FDC39FFFEC9EFED39063E51253C75003C9
:1047E0000248679006F8ECF0A3EDF09006F574012E
:1047F000F0A3745EF01260FA8F7D22300D2F1253F9
:10480000F1C39063E51253D350231253CF401E904F
:1048100006F5E07002A3E06002057EE57ED3940118
:1048200050047D0280027D03AF7D1254A19006F5F5
:10483000E07002A3E0701DE57E6019F526E4F57EC8
:10484000E526C39402400AAD26AF7D125933E4F544
:1048500026E4F57D300E02C20E300F02C20FE49046
:1048600006F8F0A3F0C20D228F368E358D348C33CE
:10487000785D7C017A0279E67F0B123019C21985C6
:10488000363A85353985343885333720180302495F
:104890003E900690E0D3940C501F1230F4F9F812B9
:1048A0002CB3C004C005C006C007900690E0FFE42A
:1048B000FCFDFE7B107A0E805E900690E0FFD394A4
:1048C0000C4039EFD394185033E024F4123159C01E
:1048D00004C005C006C0071230F4F9F8122CB3D09A
:1048E00003D002D001D000122CA6C3E53A9FFFE509
:1048F000399EFEE5389DFDE5379C803A900690E0B4
:10490000FFC3941E4038EF24EF123159C004C00594
:10491000C006C0071230F4F9F8122CB3D003D0024D
:10492000D001D000122CA6E53A2FFFE5393EFEE576
:10493000383DFDE5373C8F3A8E398D38F537E53A0D
:10494000FF90015DEFF0E4FFE539FEE4FD78081229
:104950003225E4FFFEE538FDE47810123225E4FF4D
:10496000FEFDE537FC7818123226753E01753F01D1
:1049700075405D9002A2E493F5417542FF754302D4
:104980007544A39002E31231217A027960124FFF3D
:104990009219A21922E52675F003A42499F582E460
:1049A0003406F583E0131313541FFF7E007C007D53
:1049B0003C122C29E52675F003A4249AF582E434F0
:1049C00006F583E02FFBEC3EFA90068CE0FF7E00BC
:1049D000022C29FF122BF5E55375F003A422FF12D8
:1049E0002BF5E54175F003A422E52675F003A42418
:1049F00098F582E43406F583E022F8E65480C41387
:104A000013135401C43333335480FEEF547F4E22CA
:104A1000900000E0FEA3E0FF900004E0FCA3E0FDB6
:104A2000C39FEC9E2235F0FAE92401F9E43AFA1228
:104A30002BAF54F84D22F8E6541F33333354F8FEAD
:104A4000EF54074E22FF788DE6FC08E6FDEE5CFA97
:104A5000EF5D4A22A3E02FFFEC3E227B0175590057
:104A6000755A01227D007BFF7E00122B89E42235DE
:104A7000F0FA900002ED022C0735F0FA122BAF5439
:104A8000804F22F8E654E0C4135407FD227C007DD9
:104A90003CAE02022C3BC216783B7C017A0279398B
:104AA0007F20122FEAE4FF7543FF75440275455ECF
:104AB00075460175470175483B1232197A027959DA
:104AC0007D051257ABEF7005C216024B8F9001495E
:104AD000E0FE900148E0FDEEF52CEDF52DE4F52E1D
:104AE000F52FAE2CAF2D7C077DD0122C3B8D309056
:104AF0000146E0F531A3E0F532E4F53385302EE5EB
:104B00003164016005E531B4020AE531240CF52F6A
:104B1000152E800385312FE52F2401FFE433FE7C21
:104B2000007D1A122C297D0A122C3BE52E131354FA
:104B30003F252E2F253224DCF53375F0078485F0D0
:104B400033E53390068A6003F080037407F0900623
:104B500089E531F090068BE532F0900688E530F07B
:104B6000900143E090068CF0900144E090068DF0B7
:104B7000900145E090068EF0FD90068DE075F03CCA
:104B8000A4AEF07C002D7896F6EC3E18F6D216A274
:104B90001622E57324C76071147003024C1D147053
:104BA00003024C4324FB6003024C799006EDE024A1
:104BB000FC60132403701ED2B4C2B5C2B39006F2D7
:104BC0007402F0024C79D2B3C2B5C2B49006F2744A
:104BD00001F0024C79C2B5C2B4C2B39006F2E060F3
:104BE00002E4F09006F0E0FF9006E9E06F70030247
:104BF0004C79EFF07B017A0679F07542007543013C
:104C00007F0A7E001259888070E57230E16B900651
:104C1000EDE030E004D2B38060C2B3805CE5723076
:104C2000E00D9006EDE030E004D2B38002C2B3E5BF
:104C30007230E2459006EDE030E104D2B4803AC231
:104C4000B48036E57230E00D9006EDE030E004D23D
:104C5000B38002C2B3E57230E10D9006EDE030E1C1
:104C600004D2B48002C2B4E57230E20D9006EDE0E9
:104C700030E204D2B58002C2B5025FFA1230ED9084
:104C80000002E53C122C07900003E53D122C0720A2
:104C90001B0B1230ED90000AE573122C07E53A2445
:104CA00005F9E43539AD38122FDAAB38E53A240589
:104CB000F9E43539FA7D1C125E2B1230ED900004B8
:104CC000EF122C07301A7878137C027A0079E87F8B
:104CD00040122F571230ED74CC122BF5E53B240C0B
:104CE0001230ED900001122C071231CDE924017829
:104CF000137C021232A7E53B24FFFFE434FFFE7D64
:104D000000AB38E53A2401F9E43539FA122F2B12B9
:104D100031CDE53A240D12317B7B017A02791312F1
:104D20002B89E53A240112317B7A0679DC7F061261
:104D30002FE3E53A240812317B122FDD7F2D22125A
:104D400030ED74AA122BF51230ED900001E53B1204
:104D50002C077F2122E4F5289006EDE0FFF528E5F9
:104D60002724FE602904705CE52630E007EF64012B
:104D70009006EDF0E52630E1079006EDE06402F0E4
:104D8000E52630E23F9006EDE06404F08036E5264B
:104D90009006ED30E006E04401F08004E054FEF0BF
:104DA000E5269006ED30E106E04402F08004E05490
:104DB000FDF0E5269006ED30E206E04404F08004C4
:104DC000E054FBF0124B92E49006EFF09006EDE019
:104DD000FF54079006EFF0EF5401FFE52854016FF0
:104DE0006004E04420F09006EDE05402FFE5285412
:104DF000026F60079006EFE04440F09006EDE0FCA3
:104E00005404FEE52854046E60079006EFE04480E9
:104E1000F0EC6006E47893F608F69006F3E0B4014F
:104E2000089006EDE0FF125AC42278137C027D013F
:104E30007BFF7A6179C87E007F80122B89125E6DBC
:104E4000754200754380E4FFFE1259889002137486
:104E5000A1125E6C7542007543017F017E001259FC
:104E6000887E007F027DFF125E6D122F2B125E6D19
:104E70007542007543027F387E00125988E4900223
:104E800013125E6CF5427543017F05124EBCF5426C
:104E90007543017F09124EBCF5427543037F06FE40
:104EA0001259887E007F037D007B007A00796F12A3
:104EB0002F2B7F0A7E00126085020000FE125988A7
:104EC000E4900213F07B017A02791322900474E0DB
:104ED00030E011123185E4F55FF560900326F0A310
:104EE000F0D2A322900480E0607590047FE030E06F
:104EF0002D783B7C017A0A799E7F03122F999004CA
:104F00007FE054FEF07B017A01793B7536037D0E1C
:104F100074FFFFFE125C197F327E00126085E55F30
:104F20007037E5601460121460232402702B123273
:104F30007BF0755F0075600122900326E07002A38C
:104F4000E070291231F6755F007560022290032629
:104F5000E07002A3E070158001E4F55FF56022E4E3
:104F6000F55FF560D2A3756203751F0322C0E0C030
:104F7000F0C083C082C0D075D000C000C001C002A4
:104F8000C003C004C005C006C00730982DC298E514
:104F90007A7027200410D204F563F564FE7DFF7A51
:104FA000057956123268AF64056474562FF582E4B1
:104FB0003405F583E599F0756300309927C299E5CA
:104FC000756576601C74EF2575F582E43405F5830C
:104FD000E0F5990575E575C39499400875750080ED
:104FE00003757700D007D006D005D004D003D002D7
:104FF000D001D000D0D0D082D083D0F0D0E0328B9E
:105000003B8A3C893D78687C017A0179287F60126F
:105010002F99E4F549853B4E853C4F853D507551B0
:1050200002853E52853F538540548541557B017A28
:1050300001796812511A8F4AE4F549E549C395464A
:10504000504AC209900326E547F0A3E548F07B01EA
:105050007A017968AD4A125EDB900326E07002A304
:10506000E060253009F3C20985424F8543508544ED
:1050700051854552123135125813EA494B60DA7F97
:10508000027E00126085D322054980AFC322787F5B
:10509000E4F6D8FD7581AC0250D50258DAE493A34A
:1050A000F8E493A34003F68001F208DFF48029E4DA
:1050B00093A3F85407240CC8C333C4540F4420C826
:1050C000834004F456800146F6DFE4800B010204BD
:1050D0000810204080902603E47E019360BCA3FF6B
:1050E000543F30E509541FFEE493A360010ECF54F2
:1050F000C025E060A840B8E493A3FAE493A3F8E4E1
:1051000093A3C8C582C8CAC583CAF0A3C8C582C84C
:10511000CAC583CADFE9DEE780BE8B4B8A4C894D66
:10512000855556E4F557AE5705578E82F58374FEC4
:10513000122C071232B0E555122C07AF511231472D
:10514000AB4EAA4FA950122B89E5512557F557E4CC
:10515000FEEEC395515010AB4EAA4FA9508E82124D
:1051600031B662560E80EAAF55123147AB52AA53A0
:10517000A954122B89E5552557F557E4FEEEC39542
:10518000555010AB52AA53A9548E821231B66256B2
:105190000E80EAAB4BAA4CA94D1232B0E556122C48
:1051A00007AF57228B388A39893A783B7C007A637B
:1051B00079BC7F18124A64F553FB7A00793BF559A4
:1051C000755A187F10FE125CFFE4F5531249D7247C
:1051D0003BF8E6547FFFAB3875F003E553A4253A5E
:1051E000F9E539124A791249D3243B1249FA124996
:1051F000D4243C124A831249D7AB38253AF9E53911
:10520000124A251249D3243C124A361249D4243D6D
:10521000F8E6FD1249D7AB38253AF9E539124A6F5D
:105220000553E553640870A4228B388A39893A788B
:105230003B7C007A6379D47F06124A64F541FB7A9D
:1052400000793BF559755A067F32FE125CFFE4F592
:10525000411249E2243BF8E6547FFFAB3875F00376
:10526000E541A4253AF9E539124A791249DE243B91
:105270001249FA1249DF243C124A831249E2AB3840
:10528000253AF9E539124A251249DE243C124A36FC
:105290001249DF243DF8E6FD1249E2AB38253AF920
:1052A000E539124A6F0541E541640270A4228F2C52
:1052B0008C2D8D2EE490013BF0C227E52CD3940277
:1052C000506BE490013BF090013BE0FFC39402502F
:1052D00025E52C25E025E0249BF8EF25E028F9E5DD
:1052E0002E677004E52D19677004D227800890019D
:1052F0003BE004F080D1202734E52C75F004A4FFB6
:10530000249CF9E4FAFBC001749A2FF9E4A801FC8B
:10531000FDD001FE7F02122B89E52C25E025E0243B
:105320009CF8A62D08A62E125E5B125988228B3798
:105330008A3889398C3A8D3B78157C027A08798EC7
:10534000122F60E4F541FE7F99FDAB37AA38A939E9
:10535000122F2B900215E53BF0E53AA3F0A3E53CB4
:10536000F0A3F0A3740DF090021BF0E4A3F0A3747B
:1053700008F0A3E540F0FF7E00781F7C027D01ABC2
:105380003DAA3EA93F122B89754EFF754F087550F7
:105390008C755102755201755302755415E5402400
:1053A0000AF555AB37AA38A93912511A227A007971
:1053B000A67E007F017D007B00022F2B9063DE78AC
:1053C000A7E6FE08E6FFD37401939FE4939E229024
:1053D00063E7C37401939528E4939527229006F719
:1053E0007401F0FF7E007D007B007A0079AA022F15
:1053F0002B9006F8E0FEA3E0FFC39063EB740193EB
:105400009FF528E4939EF527229006EAE04401F0F8
:10541000229006EEE04401F022547F25E0FEEF5496
:10542000014EF6229006EA7401F0229006B0E014D4
:10543000601814605A240270629006B57403F0A3D9
:1054400074E8F09006B07401F0229006B5E0FEA377
:10545000E0FF4E60247C007DC7122C3BD3ED9463AB
:10546000EC9400400CA3123FA89006C5E0441FF046
:1054700022123FCD124040F0229006B57402F0A3F4
:105480007458F07F0F1257419006B07402F02290CA
:1054900006B5E07002A3E070078001E49006B0F06A
:1054A000228F298D2AE52A24FD60101460351460AE
:1054B0004B2403704CC211C21480219006F7E00403
:1054C000F0E0B4030E78AAE64401FFF6E529125491
:1054D0001980077A0079AA1253B1D214AF29124465
:1054E0001D801E78AAE630E018C313547FB5290A40
:1054F0007F011253E4125D3180078005D218125FDC
:1055000075E52A6403600C1253DDE52A640260032A
:105510001253AD22E4787FF653B1C743B238C2B517
:10552000C2B4C2B37B017A0679F1F559755A017F8D
:1055300009FE125CFF9006F1E0B4FF02E4F07B018B
:105540007A0679F0755900755A017F0A7E00125C5F
:10555000FF9006F0E0B4FF02E4F09006F3E0B4013F
:105560000D1255869006EAEFF0A37402F022E4785B
:105570007FF6FB7A00797FF5427543017F02FE12C8
:105580005988124B922278007C007A6279AC125EC4
:1055900050E4900064F0A3F07B017A007900F559A3
:1055A000755A64FF7E02125CFFE4900064F0900084
:1055B00064E0FFC39464503174002FF582E434003A
:1055C000F583E0B4FF1B900064E07004A3F0801941
:1055D00074FF2FF582E434FFF583E0900065F080DE
:1055E00008900064E004F080C57F007E02125FC96D
:1055F000900065E0FF22C2AFC2BCE598543F444032
:10560000F598E4752934F528F527F526C39529FF83
:10561000E49528FE74019527FDE495268F298E28B0
:105620008D27F526FC7808122D138FD68529D753A0
:105630008EEF438E01538EF7438E0453AFFB538E90
:10564000F7438E10D2ACD29C53A23F7A0579EF1269
:105650002FF3D2AF7BFF7A0079A612610D7BFF7A20
:105660000079CD025CC98B268A2789281261C34044
:105670003FD20C201202D2121253BC5015C39063B9
:10568000E01253C7400C200A09AA2AA92B122D7B2D
:10569000D20A9063E01253BF503BC39063E21253AF
:1056A000C74032200B2FAA2DA92E122D7BD20B2200
:1056B000C212300C20C20C1253BC400F9063DC129B
:1056C00053C75007AA27A928122D7BE478A7F6080C
:1056D000F6C20AC20B227526C8E4F527C214125B73
:1056E0009478A9A607125DB68F7278A9E6FF657B4C
:1056F0006010E57CC395265004057C8005E4F57CAC
:10570000D21430143BC214E57B6FF5278F7B7B02EC
:105710007D287F03125FAE125FFAE52730E210E5C5
:105720007B9006F330E2057401F080037402F0E52B
:10573000275430600BE57B5430C4540FFF125F3A9E
:1057400022AD07ED30E0159006B9E054E0F0900688
:10575000B8E054E0F09006B7E054E0F0ED5402C336
:105760001360159006BDE054E0F09006BCE054E0F4
:10577000F09006BBE054E0F0ED54041313543F6086
:105780000E9006C0E054E0F09006BF123FD7F0ED57
:105790005408131313541F60119006C7E054E0F02F
:1057A0009006C6E054E0124040F0228B3F8A4089C8
:1057B000418D42854A4C854B4DE4F54EF54EE54E04
:1057C000C39549504BC209900326E54AF0A3E54B27
:1057D000F0AB3FAA40A941AD42125EDB900326E048
:1057E0007002A3E060263009F3C209AB43AA44A9C2
:1057F0004512300A70E6900552A848AC47AD467A8B
:105800000479B91231C4900552E0FF22054E80AEF2
:105810007F00228D4E8B4B8A4C894DE4F5538B547F
:105820008A5589561260A4C3E556954DFFE55595F6
:105830004CFE7C00EF2552FFEC3EFED3EF954E74FC
:1058400080F86E98502B785712609AFF7854126047
:105850009AB507150553E553B552EBAB54C3E5565E
:105860009552F9E5559400FA221260A4E4F55380AC
:10587000B67B007A00790022E51F64036006E51F0D
:1058800064047055E51FB404179063B3E493FEED10
:105890008EF084FDEB8EF084FBE52A8EF084F52AF1
:1058A000EF14601014601614601C2403702BED12AA
:1058B000401C8019ED541FFF9006BB8010ED541F53
:1058C000FF9006BE8007ED541FFF9006C5E054E030
:1058D0004F123FF5E52A123FF722125FE212000E47
:1058E000125EB97B017D327F03125FAE125DB68F0F
:1058F000729004757403F0900474E04401F0124750
:10590000321256D67529FF752A5D752B31752CFF1D
:10591000752D61752E317BFF7A61798A1256661278
:10592000391E125BD7120CEC1232E012617E12614A
:10593000C780CB8D29AD07125411E52924FD600CD9
:1059400024FE601F24FB60302408802F78A6E644E4
:1059500001FFF6ED1254199006FA740BF0A374B817
:10596000F0801878A6E630E012C313547FB5050B1B
:105970001253AD125EFC80031261941253DDE529CF
:10598000640360031253AD228E3D8F3E8B3F8A40ED
:10599000894178937C027D017BFF7A6379107E00D8
:1059A0007F80126050755900755A80E4FFFE125CCA
:1059B000FFE4FF125FC9AE42AF437493253EF97412
:1059C00002353DA801FC7D01AB3FAA40A941126010
:1059D00050754900754A80E4FFFE025C927B017AB3
:1059E0000679B2755900755A027F387E00125CFF45
:1059F000E57324C724FD501B24FC702F9006B2E0F1
:105A0000D3940940037408F09006B3E0D39409409E
:105A10001A80159006B2E0D3940940037408F09000
:105A200006B3E0D3940940037405F022C219E4F5EB
:105A300034785D7C017A02790EFE7F031230523099
:105A4000180890015FE533F08005E490015FF07580
:105A50003E01753F0175405D9001CAE493F54175C3
:105A600042FF7543017544CB90020B1231217A013C
:105A70007988124FFF9219A219228F38E4788AF69A
:105A8000F6788AE6FFC39403503474017E00A807B9
:105A9000088005C333CE33CED8F9FFEF55386019EF
:105AA0009000047DFF788AE675F004A4249AF9E456
:105AB000FAFBAE83AF82122F2B788A0680C3125E68
:105AC0005B0259888F2978007C007A627948125EDF
:105AD000509006E2E0C394644008E4F0FF7E0212B6
