:100000000254B2756C067F0F0234F2021000438E68
:10001000805389F0758A50758CFBC28DD2A9C2B904
:10002000D28C220231CD8B268A2789288C298D2AD1
:1000300078C37C017D017BFF7A4779F47E007F6085
:100040001249E9C202AB26AA27A928124A0F245650
:10005000604E24DE6002C190D202E92407F9E43A3E
:10006000FA78AF7C057D017E007F061249E9900495
:100070001AE024F3FFE434FFFEAB26E528240DF953
:10008000E43527FAC003C002C001E5282401F9E4E1
:100090003527A801FCAD03D001D002D0031249E9F5
:1000A000C203C204C205AB26E5282405F9E43527BE
:1000B000FA7D1C1207D5AB26AA27A92890000412A6
:1000C0004A28B50702D204E5282405F9E43527A813
:1000D00001FCAD267B017A0579B67E007F05124DC5
:1000E00028EF7002D205AB26AA27A9289000031298
:1000F0004A28FFB43904D205800BEF64146004EF82
:10010000B41902D204300405300402D203200302E1
:10011000C190C204C2057531FF75323E75338B75CF
:1001200034008F357B017A017981124DE47B017AAD
:10013000017981123A547E007F607D007B017A0153
:1001400079C3124D4CAB26AA27A928900003124A66
:1001500028124B7601F010061B1103C414061B1560
:10016000061B16026617027D1802941903761A03FD
:100170008E1B03BF1F03BB22018E39050441057787
:100180004205A54305EF44061B5000000619302721
:1001900002C11B1238009001C1EEF0A3EFF09001F4
:1001A000C1E0FCA3E0FDEC9001D1F0A3EDF0AB26A3
:1001B000AA27A92890000C124A289005C5F09000A3
:1001C0000D124A289005C6F07B017A0579C5753372
:1001D000007534017F037E001236B17B017A057908
:1001E000C67533007534017F047E001236B180700D
:1001F000E49001CEF0AB26AA27A92890000B124A62
:1002000028FF54079001CEF0EF5401FF9005CAE09B
:10021000FE54016F60099001CEE04420F0802D90E3
:10022000000B124A28FC5402FDEE54026D60099046
:1002300001CEE04440F08014EC5404FF9005CAE085
:1002400054046F60079001CEE04480F0AB26AA27EB
:10025000A92890000B124A289005C7F0A37402F059
:10026000D204C205C11B752C01D2277B007A00790C
:100270002C7533007534017F057E008012E4F52C67
:10028000C227FB7A00792CF5337534017F05FE1205
:1002900036B1C11BAB26AA27A92890000D124A2807
:1002A0002460601114605C14607E1470026131245B
:1002B000A360026162E4F52C7B017A0179D1F53CFF
:1002C000753D0C7F10FE12392CE4F52C74017E0074
:1002D000A82C088005C333CE33CED8F9FF787FE64B
:1002E000FDEF5D6013E52C75F003A424D1F582E4E5
:1002F0003401F583E05480F0052CE52CB404CDD214
:1003000005805F7879E6FE08E6FF4E7002800C7C7F
:10031000007D3C124A9BC37882E69F9001D1F07821
:1003200081E69001D2F0803A7878E69001D1F080B1
:10033000317B017A0179D1753C00753D067F227EC3
:100340000012392C9001CFE03027054401F08003E2
:1003500054FEF09001CFE03024054402F0800354B5
:10036000FDF0AB26AA27A92890000D124A2890017B
:10037000D0F0D204C11BE4F52CFB7A00792CF53CBB
:10038000753D017F22FE12392C532C808016E4F536
:100390002CFB7A00792CF53C753D017F22FE123949
:1003A0002C432C7F7B007A00792C75330075340147
:1003B0007F227E001236B1D204C11BD204C11B12AF
:1003C0003263C11BE4F52CAB26AA27A92890000DA7
:1003D000124A28245F70028168147002819C147094
:1003E0000281E824036002A100E4F52CAB26AA27D1
:1003F000A92875F003E52CA4240EF582E435F0F568
:1004000083124A2864807044AF2C04A80708800235
:10041000C333D8FC787F46F6AB2675F003E52CA4F1
:10042000240EF582E435F0F583E5282582F9E527E9
:100430003583FA124A0FFF9005BFE014FE7401A83D
:1004400006088002C333D8FC4F124A55052CE52C10
:10045000B40499AB26E528240EF9E43527FA753360
:100460000075340C7F1081FBAB26AA27A9289000C9
:100470000E124A28FF78806014E64402F67882A6BD
:100480000790000F124A287881F6E48008E654FDB0
:10049000F6E47882F67879F608F68064AB26AA2727
:1004A000A92890000E124A28FF7880600BE64401CC
:1004B000F67878A607E48008E654FEF6E47878F645
:1004C000787BF608F67B007A007980753300753406
:1004D000017F207E001236B17B007A007978753377
:1004E000007534017F218013AB26E528240EF9E442
:1004F0003527FA7533007534067F227E001236B137
:10050000D204C11BE4F52CAB26AA27A92890000C25
:10051000124A28F52DE4F52CAF2CE52DA80708800C
:1005200002C313D8FC30E042E52CFD7C002406FF1A
:10053000EC33FEED240EFDEC33FCAB26E5282DF963
:10054000E5273CFA7533007534011236B1740E2577
:100550002CF582E433F583AB26AA27A928124A2872
:10056000FF741B252CF8A607D21C052CE52CC39480
:100570000340A5D204C11BE4F52CF52CE52C240680
:10058000FFE433FE74D1252CF9E43401FA7B0175C4
:100590003C00753D0112392C052CE52CC394034019
:1005A000DBD2048076AB26E528240EF9E43527FA61
:1005B0007533007534017F307E001236B1AB26E50D
:1005C00028240FF9E43527FA7533007534017F319B
:1005D0007E001236B1AB26AA27A92890000E124A37
:1005E00028F56D90000F124A28F56BD204802C7B01
:1005F000017A0179D1753C00753D017F307E001292
:10060000392C7B017A0179D2753C00753D017F312F
:100610007E0012392CD2048002C204300472E4F548
:100620002CC204A2029206752E01752F017530C3EB
:1006300075312175320AAB26AA27A928900003122A
:100640004A28F533A2059207121E918F2C751101CD
:100650009003B2E529F0A3E52AF09003B1E52BF071
:100660007E007F487D007B017A037968124D4CAF94
:100670002C7E0078687C037D017B017A0179C312AE
:1006800049E99003B0E52CF0E49003FDF075100407
:1006900022E4F526F527F528123C23EF7002E1410C
:1006A000201223D2129054B0E493FF74019390056A
:1006B000D0CFF0A3EFF09005CE7401F0A3745EF0FC
:1006C000123C238F7022123C23EF65706002E1D44C
:1006D0009005D0E0FEA3E0FFC39054B07401939F57
:1006E000F528E4939EF527C39054AC7401939528A4
:1006F000E4939527501BC39054AE7401939528E45E
:10070000939527400C201309D2137D04AF70122B50
:10071000A7C39054AE7401939528E49395274002A3
:10072000E1D4C39054B07401939528E49395275075
:1007300002E1D4301402E1D4D2147D05AF70022B53
:10074000A730125C9005D0E0FEA3E0FFC39054B048
:100750007401939FF528E4939EF527C39054AA74DF
:1007600001939528E49395275036C39054AC7401B7
:10077000939528E493952740279005CEE07002A337
:10078000E060020571E571D3940150047D0280029E
:100790007D03AF70122BA77B037D327F03123B2AB0
:1007A0009005CEE07002A3E0701DE5716019F5269A
:1007B000E4F571E526C39402400AAD26AF70123706
:1007C00072E4F526E4F570C213C214E49005D0F08B
:1007D000A3F0C212228B348A358936E4FFFEEFC3C0
:1007E0009D5013AB34AA35A9368F82758300124A07
:1007F000282EFE0F80E86306FF6306A7AF062222BD
:1008000078C17C007D017BFF7A4879567E007F604D
:100810001249E978217C017D017BFF7A4879B67E17
:10082000007F601249E99005C4E07006740AF01276
:1008300029B0E51024FE7002A136147002A13D1407
:100840007002A145147002A14824046002A14E90D8
:100850000401E0FF30E002A15530170FC217C204B7
:100860007F0C7E647DFE7C22122800E56CB40603BA
:10087000123CA2301B75C21BB2187E007F607D0047
:100880007B017A0079C1124D4C9000C174ABF0A38A
:10089000740EF0301806A37422F080069000C37422
:1008A00023F078C57C007D017B017A0579B67E0056
:1008B0007F051249E9E49003B2F0A3F09003B1740C
:1008C0000DF07E007F487D007B017A037968124D30
:1008D0004C78687C037D017B017A0079C17E007FC2
:1008E0000E1249E99003B0740E4124900403E060B5
:1008F0000221787403F07E007F607D007B017A0026
:1009000079C1124D4C9000C1746CF0A37409F07859
:10091000C37C007D017B017A0579B67E007F0512DC
:1009200049E9E49000C8F078C97C007D01FB7A00B9
:10093000791BFE7F031249E9E49003B2F0A3F09023
:1009400003B1740EF07E007F487D007B017A03794D
:1009500068124D4C9000C2E02402FFE433FE786838
:100960007C037D017B017A0079C11249E99000C2C4
:10097000E024029003B041249005CBE0FF20E00288
:10098000412BD200C201E4900040F0EF54FE9005EC
:10099000CBF07E007F607D007B017A0079C1124D33
:1009A0004C9005CCE09000CCF07531FF75323E756F
:1009B000339C753400F5357B017A007900124DE4E3
:1009C0007B017A007900123A54A2009206752E013A
:1009D000752F007530C175312175320A753310A23B
:1009E000019207121E91900040EFF0E49003B2F0E4
:1009F000A3F09003B1740DF07E007F487D007B0171
:100A00007A037968124D4C900040E0FF7E007868D0
:100A10007C037D017B017A0079C11249E990004095
:100A2000E09003B0F0E49003FD61C29005C9E0706E
:100A3000026113E5106401600261137883F6788324
:100A4000E6FFC394034002611374017E00A8070807
:100A50008005C333CE33CED8F9FF9005C9E0FDFB46
:100A6000EF5B7002610E7883E6FC7401A8040880D5
:100A700002C333D8FCF45D9005C9F09005CAE0FFCD
:100A8000A804088002C313D8FC54019000C1F07878
:100A900083E6241BF8E6FFD394104072EF94FF50D6
:100AA0006DE07883600FE62463F582E43403F58318
:100AB000740AF0800DE62463F582E43403F5837450
:100AC0000BF09004037403F074FF9003B2F0A3F0F2
:100AD0007883E6241BF8E69003B1F07E007F487D22
:100AE000007B017A037968124D4C78687C037D01A4
:100AF0007B017A0079C17E007F011249E99003B041
:100B00007401F0E49003FDF0751004D2282278837C
:100B100006413E20280261C7C2287531FF75323E6A
:100B20007533AF900364E0753400F5357B017A00CE
:100B30007941124DE47B017A007941123A547E00EA
:100B40007F487D007B017A037968124D4C900368E1
:100B5000746BF0A37406F0A3E51BF0900363E090C0
:100B6000036BF0A3E51CF0900364E090036DF0A329
:100B7000E51DF0900365E090036FF09003B07408FA
:100B8000F0E49003B2F0A3F09003B1740EF07E0095
:100B90007F487D007B017A0379B5124D4C78B57C96
:100BA000037D017BFF7A4979167E007F031249E9B4
:100BB0009003FD7403F0E49003FFF0A3F09003FEB4
:100BC000740EF075100422201D02A15CC21D900459
:100BD00006E064FE6002A15C78087C047D017BFF76
:100BE0007A487954FE7F02124D28EF6002A15C9092
:100BF000040EE0FDA3E07885F6ED08F6A3E008F624
:100C0000A3E008F6E4F56AFE7F60FD7B017A0179D6
:100C100021124D4C90041AE0FF7E0078217C017D6A
:100C2000017B017A04791B1249E97887E6FFD394A6
:100C300010500281FFEF94FF400281FF9005CAE04F
:100C40007884F69004037403F07531FF75323E75B5
:100C500033D27887E6753400F5357B017A007981E7
:100C6000124DE47B017A007981123A547887E6FCD0
:100C7000651B7023E51B601F9005C87402F0788423
:100C8000E654FEFEF6900121E0FD4E9005C7F0ED22
:100C9000900363605F8058EC651C7027E51C60233F
:100CA0009005C87402F07884E654FDFFF6900121A7
:100CB000E0FE25E04F9005C7F0EE900364600280EF
:100CC0002E80317887E6651D702DE51D6029900521
:100CD000C87402F07884E654FBFFF6900121E0FE30
:100CE00025E025E04F9005C7F0EE900365600574A0
:100CF0000AF08003740BF09005CBE04401F02278F9
:100D000087E624F360101460242402704F7B017A7C
:100D1000017921023A1D7885E6FC08E6FD4C703C1D
:100D20007B017A01792108E6F52B0200267B017A06
:100D3000017921021B8F756A03D2028005756A0250
:100D4000C2020220000222E9756A04022D7A900490
:100D500001E030E00754FEF0A3E0F510223024104B
:100D6000E56C64036005E56CB40220756C04801BBF
:100D7000E56CB40403123CA2900595E0700DE56C9F
:100D8000B403087F0F1234F2756C02E56C14B407DB
:100D9000004002E1F5900D9F25E05002058373E1CC
:100DA000F8A1ADA1B0A1B0E1C5E1EDE1F20214D12D
:100DB000E51E30E06C9005CAE030E02CE56D75F082
:100DC00003A42451F582E43455F583E493541FFDC4
:100DD000E56D75F003A42452F582E43455F583E4FF
:100DE00093541FFBE56D802AE56B75F003A4245135
:100DF000F582E43455F583E493541FFDE56B75F0FB
:100E000003A42452F582E43455F583E493541FFB84
:100E1000E56B75F003A42453F582E43455F5838023
:100E20000F90554EE493541FFDA3E493541FFBA36E
:100E3000E493541FF529E4FF1235DCE51E30E16C24
:100E40009005CAE030E12CE56D75F003A42451F55E
:100E500082E43455F583E493541FFDE56D75F0038A
:100E6000A42452F582E43455F583E493541FFBE542
:100E70006D802AE56B75F003A42451F582E43455A6
:100E8000F583E493541FFDE56B75F003A42452F53C
:100E900082E43455F583E493541FFBE56B75F0034E
:100EA000A42453F582E43455F583800F90554EE425
:100EB00093541FFDA3E493541FFBA3E493541FF525
:100EC000297F011235DCE51E30E26C9005CAE03066
:100ED000E22CE56D75F003A42451F582E43455F558
:100EE00083E493541FFDE56D75F003A42452F5824D
:100EF000E43455F583E493541FFBE56D802AE56BDC
:100F000075F003A42451F582E43455F583E4935439
:100F10001FFDE56B75F003A42452F582E43455F50A
:100F200083E493541FFBE56B75F003A42453F5820F
:100F3000E43455F583800F90554EE493541FFDA380
:100F4000E493541FFBA3E493541FF5297F02123549
:100F5000DCD390556F7401939555E49395544009F3
:100F60000555E5557002055422B21EE4F554F555B9
:100F7000E56A14601514601A14602014602F2404AC
:100F8000703FE4F5297B1EFD8021E4F529FB7D1EE1
:100F90008019E4F5297B0A7D1E8021E4301E08F5C6
:100FA000297B0A7D1E8004F529FBFD800FE4301E9D
:100FB00007F529FB7D1E8004F529FBFD7F03023523
:100FC000DCE4F56A22900588E060047F018020124D
:100FD0003CA27531FF75325575333E7B017A00793D
:100FE00000124DE47B017A007900023A54E4FF02DA
:100FF0002528022F1D756C0322A282224E20146028
:10100000C0E0C0F0C083C082C0D075D000C000C0B6
:1010100001C002C003C004C005C006C007900FFE97
:10102000E493FFE576C39F500405768076757600DD
:10103000900366E07002A3E0600E900367E024FF77
:10104000F0900366E034FFF030150A0573E5737025
:101050000A057280067572007573009005D0E07005
:1010600002A3E0600E9005D1E024FFF09005D0E0EF
:1010700034FFF09005CEE07002A3E0600E9005CF43
:10108000E024FFF09005CEE034FFF090058AE07098
:1010900002A3E0600E90058BE024FFF090058AE04B
:1010A00034FFF0D3900FFC7401939575E49395741D
:1010B000400A0575E5757002057421927574007516
:1010C0007500201B10E511C394065004051180051E
:1010D000751100D21B7880E6FB30E1417882E6FF93
:1010E0007E007C007D3C124A89C3787AE69F18E630
:1010F0009E50090806E6187024068021787976004B
:10110000087600EB54FD7880F69005C87402F078FC
:1011100081E69005C7F09005CBE04401F07880E6C9
:1011200030E03F9005CAE060397878E6FF7E007CC9
:10113000007D3C124A89C3787CE69F18E69E5009E0
:101140000806E618701C068019787B760008760081
:101150009005C87402F09005C7E4F09005CBE04418
:1011600001F0787E06E618700106900595E06002B1
:1011700014F09005C4E0600214F0900588E060026D
:1011800014F0900405E0600214F0900403E06002A3
:1011900014F0301A3AE512C3940A50040512802F55
:1011A000201D2AD21D7E007F807DFF7B017A04797D
:1011B00006124D4C78067C047D017B017A04798708
:1011C0007E007F801249E9900486E513F0C21A90F0
:1011D00005ADE0FFA3E0C39F5005E004F04193900C
:1011E00005AEE4F0900589E024FE604B14700241E6
:1011F00080240260024191900596E054079005AD6D
:10120000F0FD900597E075F014A4FFAEF07C00129D
:101210004A9B90059CEEF0A3EFF0900598E0541FD8
:1012200025E09005A0F090059EE4F0A3F0D2269072
:1012300005897402F0805C9005A0E0603B90059CFD
:10124000E0FEA3E0FFC390059FE09F90059EE09E17
:101250005017A3E004F0700690059EE004F03026DD
:1012600004B2B2802ED2B2802A90059EE4F0A3F0A0
:10127000B226A3E014F0801B9005897403F080135C
:1012800090059EE4F0A3F0D226D2B2900589F080BA
:1012900002D2B2900FFFE493FFE577D39F50026133
:1012A0005A75770090058CE0541FFF9005A1E0541B
:1012B000E04FF090058DE0541FFF9005A2E054E050
:1012C0004FF090058EE0541FFF9005A3E054E04FCF
:1012D000F090058FE0541FFF9005A4E054E04FF01C
:1012E000900590E0541FFF9005A5E054E04FF0906A
:1012F0000591E0541FFF9005A6E054E04FF09005E3
:1013000092E0541FFF9005A7E054E04FF090059342
:10131000E0541FFF9005A8E054E04FF0900594E0E2
:10132000541FFF9005A9E054E04FF0900599E05458
:101330001FFF9005AAE054E04FF090059AE0541F7B
:10134000FF9005ABE054E04FF090059BE0541FFF89
:101350009005ACE054E04FF081B60577E577D39483
:1013600000406DE577D3942050669005A1E0FF54CE
:101370001F600EEF54E0FEEF14541F4EF0C2A08029
:1013800002D2A09005A4E0FF541F600EEF54E0FECF
:10139000EF14541F4EF0C2A68002D2A69005A7E01B
:1013A000FF541F600EEF54E0FEEF14541F4EF0C2C6
:1013B000818002D2819005AAE0FF541F600EEF5495
:1013C000E0FEEF14541F4EF0C2CD81B6D2CD81B6EF
:1013D000E577D39420406DE577D39440506690052F
:1013E000A2E0FF541F600EEF54E0FEEF14541F4EB6
:1013F000F0C2A18002D2A19005A5E0FF541F600EAB
:10140000EF54E0FEEF14541F4EF0C2A58002D2A5A7
:101410009005A8E0FF541F600EEF54E0FEEF145457
:101420001F4EF0C2808002D2809005ABE0FF541FB7
:10143000600EEF54E0FEEF14541F4EF0C2CC8076E5
:10144000D2CC8072E577D39440406BE577D394603B
:1014500050649005A3E0FF541F600EEF54E0FEEFD0
:1014600014541F4EF0C2A28002D2A29005A6E0FF43
:10147000541F600EEF54E0FEEF14541F4EF0C2A450
:101480008002D2A49005A9E0FF541F600EEF54E043
:10149000FEEF14541F4EF0C2A78002D2A79005ACF5
:1014A000E0FF541F600EEF54E0FEEF14541F4EF0A7
:1014B000C2838002D283D007D006D005D004D003E7
:1014C000D002D001D000D0D0D082D083D0F0D0E0F4
:1014D0003290058AE0FEA3E04E707B90058AF0A36F
:1014E0007406F0905579E493FFE564D39F401CE4C3
:1014F000F564E565D394074005E4F565800205656C
:10150000E4F569F568F567F566804B0564E564C345
:1015100094004009E56494205003856466E564C343
:101520009420400CE56494405006E56424E0F5679F
:10153000E564C39440400CE56494605006E564247F
:10154000C0F568E564C39460400CE564948050067F
:10155000E56424A0F569E565B407004002E1E9907F
:10156000156525E073A173A1AEA1D9C12EC167C1D4
:10157000A4E121E56675F00584541FFF90059AE00B
:1015800054E04FF0E56775F00584541FFF90059314
:10159000E054E04FF0E56875F00584541FFF9005B6
:1015A00090E054E04FF0E56975F005848078E566D9
:1015B000541FFF900599E054E04FF0E567541FFF7A
:1015C000900592E054E04FF0E568541FFF90058FBE
:1015D000E054E04FF0E569C19CE56675F00584FFD5
:1015E000C374069F541FFF90059AE054E04FF0E546
:1015F0006775F00584FFC374069F541FFF90059321
:10160000E054E04FF0E56875F00584FFC374069F71
:10161000541FFF900590E054E04FF0E56975F00528
:1016200084FFC374069F541FFF90058DE1E4E566B7
:10163000C313541FFF90059BE054E04FF0E567C3D0
:1016400013541FFF900594E054E04FF0E568C31376
:10165000541FFF900591E054E04FF0E569C3135427
:101660001FFF90058EE1E4C3741F9566541FFF9021
:101670000599E054E04FF0C3741F9567541FFF9025
:101680000592E054E04FF0C3741F9568541FFF901B
:10169000058FE054E04FF0C3741F9569541FFF900D
:1016A000058CE1E4E56675F00384541FFF90059A0C
:1016B000E054E04FF0E56775F00384541FFF900598
:1016C00093E054E04FF0E56875F00384541FFF90F9
:1016D0000590E054E04FF0E56975F00384541FFF76
:1016E00090058DE054E04FF0E566C313541FFF9062
:1016F0000599E054E04FF0E567C313541FFF9005D0
:1017000092E054E04FF0E568C313541FFF90058F3B
:10171000E054E04FF0E569C313541FFF90058CE1DE
:10172000E4E566C313FFC3740F9F541FFD90059B30
:10173000E054E04DF0E567C313FFC3740F9F541FDF
:10174000FC900594E054E04CF0E568C313FFC374CB
:101750000F9F541FFB900591E054E04BF0E569C3E7
:1017600013FFC3740F9F541FFF90058EE054E04F8A
:10177000F0E56675F00384FEC3740A9E541FFE9064
:10178000059AE054E04EF0E56775F00384FEC374FB
:101790000A9E541FFE900593E054E04EF0E56875F4
:1017A000F00384FEC3740A9E541FFE900590E0541B
:1017B000E04EF0E56975F00384FEC3740A9E541F81
:1017C000FE90058DE054E04EF0900599E054E04D18
:1017D000F0900592E054E04CF090058FE054E04B1F
:1017E000F090058CE054E04FF02253911F53921F6C
:1017F0005393FB5394FB2092069005CD7401F02285
:10180000E4F52678007C007D017BFF7A5379D2FED7
:101810007F0C1249E9780C7C007D017BFF7A5379BB
:10182000DE7E007F061249E9C2239053E4E493FE72
:10183000740193FFC39005BCE09F9005BBE09E50F0
:101840000EA3E004F070239005BBE004F0801BE4DD
:101850009005BBF0A3F078277C00FD7B017A057929
:10186000BDFE7F071249E9123136202228D2227BA1
:10187000007A007980753C00753D017F207E001262
:10188000392C7B007A007978753C00753D017F2109
:101890007E0012392C787DE6FA08E6FB7C007D3C60
:1018A000FFAE02124A9B9005C2EFF07C007D3CAF78
:1018B00003AE02124A9BA3EDF0C3787EE6941018A3
:1018C000E6940E402DE4787DF608F69005C1E0C35D
:1018D00094184004E4F080069005C1E004F09005FF
:1018E000BFE0D3940740057401F080069005BFE087
:1018F00004F07B017A00790C122AB990000CE0FF09
:10190000547FFEBE7F04D224806EEF30E7689000E3
:101910000DE0131313541FFF7E007C007D3C124A20
:1019200089A3E02FFBEC3EFA9005C1E0FF7E001298
:101930004A89A3E0F92FFFEC3EFED3EF9BEE9A40DD
:1019400031900010E0131313541FFF7E00124A89D8
:10195000A3E02FFBEC3EFA9005C1E0FF7E00124AA7
:1019600089E92FFFEC3EFED3EF9BEE9A5004D22480
:101970008006C2248002C2247B017A0079001227EB
:1019800009900000E020E718900003E020E71190A4
:101990000006E020E70A900009E020E703C22522C4
:1019A000D225E4F526E52675F003A42400F582E4AB
:1019B0003400F583E0547FFD9005BFE0FF123AB498
:1019C00040026183E52675F003A42400F582E43427
:1019D00000F583E0C4131313540120E0026183E592
:1019E0002675F003A42401F582E43400F583E013A6
:1019F0001313541FFF7E007C007D3C124A89E526AC
:101A000075F003A42402F582E43400F583E02FFB93
:101A1000EC3EFA9005C1E0FF7E00124A89A3E0F98E
:101A20002FFFEC3EFEEFB50309EEB50205302302B1
:101A3000C223E52675F003A42401F582E43400F501
:101A400083E0131313541FFF7E007C007D3C124A79
:101A500089E52675F003A42402F582E43400F583B9
:101A6000E02FFBEC3EFA9005C1E0FF7E00124A89B0
:101A7000E92FFFEC3EFEEF6B7002EE6A70712023DF
:101A80006ED223047E00A826088005C333CE33CE51
:101A9000D8F9FF787FE6FDFBEF5B602EAF2674017F
:101AA000A807088002C333D8FCF45D787FF6E526EA
:101AB00075F003A42410FFE435F0FE7BFF7A537920
:101AC000E67533007534011236B19005C87402F022
:101AD000E52675F003A42401F582E43400F583E0E3
:101AE00054079005C7F09005CBE04401F06183E511
:101AF0002675F003A42401F582E43400F583E01395
:101B00001313541FFF7E007C007D3C124A89E5269A
:101B100075F003A42402F582E43400F583E02FFB82
:101B2000EC3EFA9005C1E0FF7E00124A89A3E02F47
:101B3000FFEC3EFED3EF9BEE9A404874017E00A876
:101B400026088005C333CE33CED8F9FF787FE6FD73
:101B5000FBEF5B602EAF267401A807088002C33339
:101B6000D8FCF45D787FF6E52675F003A42410FF19
:101B7000E435F0FE7BFF7A5379E775330075340165
:101B80001236B10526E526C39404500221A5228B06
:101B9000268A27892878C17C027D017BFF7A4779D4
:101BA000D27E007F221249E9AB26AA27A928124A31
:101BB0000F9002C1F0900001124A28FF7E00E92434
:101BC00002F9E43AFA78C27C027D011249E9AB26B7
:101BD000AA27A928900001124A289002E2F0900258
:101BE000C1E024976048147002A17424FE7002A121
:101BF0009424046002C190C202D2049002C2E0F5B3
:101C00002D12364F92027F0C123C897531FF7532CE
:101C10003D7533BE9002C2E0753400F5357B017A24
:101C2000017981124DE47B017A017981A171C202AF
:101C3000C203E4F52CF52BF52AF5299002C2E0FF4A
:101C4000E52C4FF52CE52BF52BE52AF52AE529F5B2
:101C500029A3E0FFE4FCFDFE7808124B63E52C4F5E
:101C6000F52CE52B4EF52BE52A4DF52AE5294CF50B
:101C700029A3E0FFE4FCFDFE7810124B63E52C4F36
:101C8000F52CE52B4EF52BE52A4DF52AE5294CF5EB
:101C900029A3E0FFE4FCFDFE7818124B63E52C4F0E
:101CA000F52CE52B4EF52BE52A4DF52AE5294CF5CB
:101CB00029A3E0FF9005C5E0B5070C9002C7E0FE40
:101CC0009005C6E06E60339005C5EFF09002C7E066
:101CD0009005C6F07B017A0579C57533007534012E
:101CE0007F037E001236B17B017A0579C675330019
:101CF0007534017F047E001236B19002C8E06002A4
:101D0000D2037F807E437D6D7C38AB2CAA2BA92A21
:101D1000A829D3124B3F401DE52C2480FFE52B342E
:101D2000BCFEE52A3492FDE52934C7FCA2039204E7
:101D300012280092027531FF75323D7533DF900233
:101D4000C5E0753400F5359002C4E0753600F5370E
:101D50009002C3E0753800F5399002C2E0753A0090
:101D6000F53B7B017A0179C1124DE47B017A01795F
:101D7000C1023A547531FF75323E7533087B017AE2
:101D8000027901124DE47B017A027901123A54C2C0
:101D9000040239E29005CAE0788AF69003B4E0FFC5
:101DA0009002C2E06F60367531FF75323E753325A3
:101DB0007B017A027941124DE47B017A027941126A
:101DC0003A549002C2E09003B4F0D39407500E90BE
:101DD00005C87402F09003B4E09005C7F078C37CA6
:101DE000027D017B017A0379637E007F03124D2817
:101DF000EF7002C1907531FF75323E753347900325
:101E000063E0753400F535A3E0753600F537A3E0DF
:101E1000753800F5397B017A027981124DE47B0136
:101E20007A027981123A5478637C037D017B017ACE
:101E30000279C37E007F031249E9E47889F6788944
:101E4000E6FFC39403504974632FF582E43403F52D
:101E500083E0FFB40A11E6FE7401A806088002C3FD
:101E600033D8FC788A46F6EFB40B147889E6FF7411
:101E700001A807088002C333D8FCF4788A56F6908C
:101E800005C87402F0788AE69005C7F0180680AE9F
:101E900022AB2EAA2FA930900002E532124A679099
:101EA0000003E533124A6720070EAB2EAA2FA93094
:101EB00090000AE51F124A67E5302405F9E4352F42
:101EC000A801FCAD2E7B017A0579B67E007F051254
:101ED00049E9AB2EE5302405F9E4352FFA7D1C12D3
:101EE00007D5AB2EAA2FA930900004EF124A672025
:101EF0000602E1AA78237C027D017BFF7A3E79FC11
:101F00007E007F401249E9AB2EAA2FA93074CC1273
:101F10004A55E531240CAB2EAA2FA93090000112AE
:101F20004A67E53124F3FFE434FFFEE92401F9E4D4
:101F30003AFA78237C027D011249E9E53124FFFF5A
:101F4000E434FFFE7D00AB2EE5302401F9E4352FAB
:101F5000FA124D4CE53124F3FFE434FFFEE5302462
:101F60000DF9E4352FA801FCAD2E7B017A0279230F
:101F70001249E9E5302401F9E4352FA801FCAD2E22
:101F80007B017A0579AF7E007F061249E9E53024AE
:101F900008F9E4352FA801FCAD2E7B017A0579B64E
:101FA0007E007F051249E97F2D22AB2EAA2FA93092
:101FB00074AA124A55AB2EAA2FA930900001E53120
:101FC000124A677F2122E51E30E00D9005CAE030FD
:101FD000E004D2B38002C2B3E51E30E10D9005CA21
:101FE000E030E104D2B48002C2B4E51E30E20D90CC
:0F1FF00005CAE030E204D2B58002C2B5023CA2BD
:1020000078817C017D017BFF7A4679507E007F409C
:102010001249E9E4F526900401E0FF30E01154FE96
:10202000F0A3E0F510E4F508F509F50AD2A322E5DE
:1020300008D3940F4016E4F508F509F50AD2A390E9
:1020400005C4740AF0751001756C0322200207E5BF
:10205000087003750807E50864076004E508700662
:102060009005C4740AF0E5087073E508600241E861
:10207000E50914601514602E2402600241E8C2A331
:10208000900366E4F0A374C8418C900366E070028C
:10209000A3E0600241E8D2A39003667417F0A37432
:1020A00070F075090222900366E07002A3E07002EE
:1020B000F509201D0241E8C21D7549FF754A4175A9
:1020C0004B48904188E493F54C7B017A0479067D76
:1020D00080123377EA494B700241E841E1E508D3C9
:1020E0009400500221B6E5089409400221B6E509A2
:1020F00014607404600241E8E50AD394024002418E
:102100004EE50875F086A4FFAEF02405F974413E53
:102110007548FFF549894A754B0274072FF97441D8
:102120003E754CFFF54D894E75F086E508A42447B1
:10213000F582E5F03441F583122E5B8F267B017A20
:10214000017981AD26123B0475F086E508A4248947
:10215000F582E5F03441F583E493FF740193900335
:1021600066CFF0A3EF418C900366E07002A3E070AD
:1021700002419B201D0241E8C21DE50875F086A4BE
:102180002448F9744135F07549FFF54A894B75F0DB
:1021900086E508A42488F582E5F03441F583E493CC
:1021A000F54C7B017A0479067D80123377EA494B3E
:1021B000700241E841E1E508C39409500241E87822
:1021C000277C007D007BFF7A4679907E007F10128D
:1021D00049E99045FDE493FF7E0078277C007D006F
:1021E0007BFF7A4579BD1249E9E508C3940C502F6D
:1021F000E50875F003A4242CF582E43446F583E465
:1022000093F527E50875F003A4242DF582E4344600
:10221000F583E493FE740193F52AEEF52B801E748A
:102220000F2508F8E6FFC39410400FEF94FF500A03
:102230008F27752A0DE4F52B8003050822E5091484
:10224000604F04600241E8E50AD394024006E4F5D9
:102250000AF508227548FF754945754ABB754B025A
:10226000754C00754D00754E279045FD122E5B8F05
:10227000267B017A017981AD26123B0490463FE42A
:1022800093FF740193900366CFF0A3EFF0750901FB
:1022900022900366E07002A3E07005050AF50922AA
:1022A000301D45C21D7549FF754A45754BFE904668
:1022B0003EE493F54C7B017A0479067D80123377F6
:1022C000EA494B701C7549FF754A46754B41754C80
:1022D000067B017A0479067D80123377EA494B60E8
:1022E00007E4F509F50A05082278017C027D017BE7
:1022F000FF7A47793A7E007F501249E9E4F5267863
:10230000517C027D017BFF7A47798AFE7F4012492A
:10231000E9E4F52778287C00FD7BFF7A4779CAFE3F
:102320007F031249E9900401E0FF30E00D54FEF014
:10233000A3E0F510E4F50CF50D22E4F5289003B1C7
:10234000E0F529752A0D7548FF754947754ACD7521
:102350004B02754C00754D00754E28754F037B017F
:102360007A027951122E658F279003B2E0FCA3E028
:10237000FD9003B1E0F532753301753403753568AE
:102380009003B0E0F5367B017A0279011232F08FCA
:1023900026E50C14603F147002813A14700281C863
:1023A00014700281D724046002A124E50DD39403A4
:1023B0004008750B01E4F50DA124D2A37B017A023C
:1023C0007901AD26123B049003667403F0A374E810
:1023D000F0750C0122900366E07002A3E0700280A9
:1023E00063201D02A127C21D754901754A02754B64
:1023F0005185274C7B017A0479067D80123377EA78
:10240000494B60169003FDE070028197750C0290B5
:1024100003667401F0A374F4F02278087C047D0153
:102420007BFF7A4779CD7E007F02124D28EF600254
:10243000A12790040AE0F50BA124900366E0700246
:10244000A3E07005050DF50C22201D02A1279004C4
:102450000EE0FDA3E07889F6ED08F6900411E0089F
:10246000F6C21D9003FDE0FF7E00781B7C047D0119
:102470007B017A0379B5124D28EF701F7889E6FE4B
:1024800008E6FF9003FFE0B50611A3E0B5070C9046
:1024900003FEE008667004750C03227531FF753287
:1024A0003C7533F7788BE6753400F5357889E6FEB0
:1024B00008E68E36F5377B017A017981124DE47B8F
:1024C000017A017981023A54301C07C21C7510034D
:1024D000804C7510018047301C07C21C75100380AA
:1024E00003751001E50B60367531FF75323D7533AC
:1024F0001D753400F5357B017A0179C1124DE47BFD
:10250000017A0179C1123A54E50B2433600A24E4BC
:10251000600624E970028000756A01E4F50BE4F5B9
:102520000DF50C22750C0422AD07E55E701D20210F
:102530001A90557893FFE55FC39F5004055F800BA9
:10254000E4F55FF563F562F561F560E55E7004D270
:10255000218009E55ED394504002C22190058AE0B3
:102560007002A3E07075AF5E202104155E80020545
:102570005EEF541FFF905576E493FEEF8EF084FFDC
:10258000A3E493FEEF8EF0A4FF90058AE5F0F0A39C
:10259000EFF0E55EC394004009E55E9420500385AA
:1025A0005E60E55EC39410400CE55E94305006E535
:1025B0005E24F0F561E55EC39420400CE55E944036
:1025C0005006E55E24E0F562E55EC39430400CE51C
:1025D0005E94505006E55E24D0F563ED147002C1A0
:1025E00074046002E108E55F6002E108302154E50F
:1025F0005EC3942E5015E55E75F00F84E5F0D3941C
:102600000A90059BE05002C197C1D0E55ED3942D9E
:10261000400790059BE0441FF0E55ED394324007ED
:10262000900594E0441FF0E55ED3943C400790058C
:1026300091E0441FF0E55ED394465002E108900516
:102640008EC1CFE563541FFF90059BE054E04FF02F
:10265000E562541FFF900594E054E04FF0E56154AB
:102660001FFF900591E054E04FF0E560541FFF908C
:10267000058EE103E55F6002E108302157E55EC3A6
:10268000942E5017E55E75F00F84E5F0D3940A9010
:10269000059BE04002803954E0F022E55ED3942DA2
:1026A000400790058EE0441FF0E55ED3943240076A
:1026B000900591E0441FF0E55ED3943C40079005FF
:1026C00094E0441FF0E55ED39446403C90059BE0C7
:1026D000441FF022E563541FFF90058EE054E04F45
:1026E000F0E562541FFF900591E054E04FF0E56182
:1026F000541FFF900594E054E04FF0E560541FFF35
:1027000090059BE054E04FF0228B278A2889297896
:102710002A7C007D007BFF7A5379707E007F0C124B
:1027200049E9E4F536FB7A00792AF53C753D0C7FE2
:1027300010FE12392CE4F536E53675F003A4242A90
:10274000F8E6547FFFAB2775F003E536A42529F999
:10275000E52835F0FA124A0F54804FFF124A55E52A
:102760003675F003A4242AF8E65480C413131354D6
:1027700001C43333335480FEEF547F4E124A55E583
:102780003675F003A4242BF8E654E0C4135407FD77
:10279000E53675F003A4AB272529F9E52835F0FACD
:1027A000E92401F9E43AFA124A0F54F84DFF124AAB
:1027B00055E53675F003A4242BF8E6541F33333364
:1027C00054F8FEEF54074E124A55E53675F003A44F
:1027D000242CF8E6FDE53675F003A4AB272529F98E
:1027E000E52835F0FA900002ED124A670536E53625
:1027F00064046002E13822900405E06002E4F02203
:102800008F308E2F8D2E8C2D78E37C027D017BFF07
:102810007A4079FA7E007F0B1249E9C2058530348F
:10282000852F33852E32852D31200402213E9005DF
:10283000C5E0D3940C50409005C6E0FFE4FCFDFEDB
:102840007B3CFAF9F8124AF0C004C005C006C00784
:102850009005C5E0FFE4FCFDFE7B107A0EF9F8124E
:102860004AF0D003D002D001D000EF2BFFEE3AFEA9
:10287000ED39FDEC3821299005C5E0FFD3940C40DB
:102880005EEFD394185058E024F4FFE434FFFEE4E4
:10289000FCFD7B107A0EF9F8124AF0C004C005C0A6
:1028A00006C0079005C6E0FFE4FCFDFE7B3CFAF99C
:1028B000F8124AF0D003D002D001D000EB2FFBEA8F
:1028C0003EFAE93DF9E83CF8C3E5349BF534E533DD
:1028D0009AF533E53299F532E53198F531805F901C
:1028E00005C5E0FFC3941E4055EF24EFFFE434FF1D
:1028F000FEE4FCFD7B107A0EF9F8124AF0C004C029
:1029000005C006C0079005C6E0FFE4FCFDFE7B3C69
:10291000FAF9F8124AF0D003D002D001D000EB2F20
:10292000FFEA3EFEE93DFDE83CFCE5342FF534E5E9
:10293000333EF533E5323DF532E5313CF531E534F2
:10294000FF9002E3EFF0E4FFE533FEE4FDFC7808DE
:10295000124B50A3EFF0E4FFFEE532FDE4FC7810EB
:10296000124B50A3EFF0E4FFFEFDE531FC781812A6
:102970004B50A3EFF0753801753902753AE390407A
:10298000B6E493F53B753CFF753D40753EB790400E
:10299000F7E493F53F754002A3E493F54174019386
:1029A000F5427BFF7A40797412309C9205A2052291
:1029B000C20278817C017D017BFF7A40794D7E00E7
:1029C0007F201249E9E4FF7534FF75354075367292
:1029D000753701753801753981753A02753B017596
:1029E0003C2C7BFF7A40796D7D05123479EF7004C1
:1029F000C20241B690018FE0FE90018EE0FDEEF53F
:102A000026EDF527E4F528F529AE26AF277C077DCE
:102A1000D0124A9B8D2A90018CE0F52BA3E0F52C77
:102A2000E4F52D852A28E52B64016005E52BB40229
:102A30000AE52B240CF52915288003852B29E52987
:102A40002401FFE433FE7C007D1A124A897D0A12BC
:102A50004A9BE5281313543F25282F252C24DCF509
:102A60002D75F0078485F02DE52D9005BF6003F0EE
:102A700080037407F09005BEE52BF09005C0E52CAF
:102A8000F09005BDE52AF0900189E09005C1F09035
:102A9000018AE09005C2F090018BE09005C3F0FD43
:102AA0009005C2E075F03CA4AEF07C002D787EF677
:102AB000EC3E18F6D202A202228B278A28892978B6
:102AC0002A7C007D007BFF7A53797C7E007F061292
:102AD00049E9E4F530FB7A00792AF53C753D067F3B
:102AE00022FE12392CE4F530E53075F003A4242AD7
:102AF000F8E6547FFFAB2775F003E530A42529F9EC
:102B0000E52835F0FA124A0F54804FFF124A55E576
:102B10003075F003A4242AF8E65480C41313135428
:102B200001C43333335480FEEF547F4E124A55E5CF
:102B30003075F003A4242BF8E654E0C4135407FDC9
:102B4000E53075F003A4AB272529F9E52835F0FA1F
:102B5000E92401F9E43AFA124A0F54F84DFF124AF7
:102B600055E53075F003A4242BF8E6541F333333B6
:102B700054F8FEEF54074E124A55E53075F003A4A1
:102B8000242CF8E6FDE53075F003A4AB272529F9E0
:102B9000E52835F0FA900002ED124A670530E5307D
:102BA0006402600241E8228F29ED24FD605914700F
:102BB0000281431470028171240360028192753195
:102BC000FF75325475330E7534008529357B017AD3
:102BD000007900124DE47B017A007900123A54E545
:102BE0002924FE600A24FE6006240360028192907C
:102BF00005C87401F09005C7E529F09005C9F0906B
:102C000005CBE04401F0227531FF75325475332A4B
:102C10007534008529357B017A007940124DE47BBB
:102C2000017A007940123A54E52924FE600824FE16
:102C300060042403705C9005C87401F09005C7E53A
:102C400029F0227531FF753254753344753400858F
:102C500029357B017A007980124DE47B017A007975
:102C600080123A54E52924FC60028026D2040239FD
:102C7000E27531FF7532547533617534008529353D
:102C80007B017A0079C0124DE47B017A0079C01291
:102C90003A5422E4F5289005CAE0FFF528E52724F8
:102CA000FE602904705CE52630E007EF64019005C2
:102CB000CAF0E52630E1079005CAE06402F0E52697
:102CC00030E23F9005CAE06404F08036E5269005C6
:102CD000CA30E006E04401F08004E054FEF0E5264E
:102CE0009005CA30E106E04402F08004E054FDF0B3
:102CF000E5269005CA30E206E04404F08004E05482
:102D0000FBF0121FC6E49005CCF09005CAE0FF541A
:102D1000079005CCF0EF5401FFE52854016F6006E1
:102D2000E04420F0802A9005CAE0FC5402FEE52829
:102D300054026E60099005CCE04440F08012EC54DF
:102D400004FFE52854046F60079005CCE04480F050
:102D50009005CAE0FF6006E4787BF608F69005CDA2
:102D6000E0B401158F287B007A007928753300754F
:102D700034017F027E001236B122900405E0700219
:102D8000C132900404E030E03378817C017D017B26
:102D9000FF7A4779CF7E007F031249E9900404E06F
:102DA00054FEF07B017A017981752C037D0E74FF4E
:102DB000FFFE1238E67F327E00123BE8E50E706CB3
:102DC000E50F14601914603324027060C2A39003ED
:102DD00066E4F0A374C8F0750E00750F012290032D
:102DE00066E07002A3E07072D2A39003667417F0DD
:102DF000A37470F0750E00750F0222900366E070E8
:102E000002A3E07055F50EF50F7531FF75323D7573
:102E10003360900405E0753400F5357B017A017963
:102E200084124DE47B017A017984802BE4F50EF560
:102E30000F22E4F50EF50FD2A3751003756C037520
:102E400031FF75323D7533847B017A0179C4124DAF
:102E5000E47B017A0179C4123A5422E493F54F7B62
:102E6000017A0179818B458A468947854F50E4F57F
:102E700051AE5105518E82F58374FE124A67AF51EF
:102E800005518F82758300E54F124A67AF4B7E0074
:102E90007C00E5472551F9EC3546A801FCAD45AB72
:102EA00048AA49A94A1249E9E54B2551F551E4FEE2
:102EB000EEC3954B5013AB48AA49A94A8E8275833D
:102EC00000124A2862500E80E7AF4F7E007C00E57A
:102ED000472551F9EC3546A801FCAD45AB4CAA4D50
:102EE000A94E1249E9E54F2551F551E4FEEEC3958F
:102EF0004F5013AB4CAA4DA94E8E82758300124AD7
:102F00002862500E80E7AB45AA46A947AF5105514C
:102F10008F82758300E550124A67AF512290058772
:102F2000E014601C147002E1A924026002E1B59073
:102F3000058A7403F0A374E8F09005877401F02209
:102F400090058AE0FEA3E0FF4E60487C007DC7123A
:102F50004A9BD3ED9463EC9400401BA3E0441FF024
:102F600090058FE0441FF0900592E0441FF090051B
:102F700099E0441FF02290058CE054E0F090058F1A
:102F8000E054E0F0900592E054E0F0900599E054B0
:102F9000E0F02290058A7402F0A37458F07F0F12BB
:102FA00034F29005877402F02290058AE07002A343
:102FB000E070078001E4900587F022E4FF20900391
:102FC0000F80035307FE2091054307028003530738
:102FD000FD20920543070480035307FB209305431C
:102FE000070880035307F720930543071080035316
:0E2FF00007EF20940543072080035307DF22DC
:103000008B268A278928120FF9405CD211201502DD
:10301000D215D39054A47401939573E49395725090
:103020001BC39054A67401939573E4939572400C5E
:10303000200F09AA2AA92B124B9CD20FD39054A679
:103040007401939573E49395725050C39054A8748F
:1030500001939573E4939572404120103EAA2DA9E7
:103060002E124B9CD21022C21530112FC211D390B8
:1030700054A47401939573E493957240159054A2EF
:103080007401939573E49395725007AA27A92812A7
:103090004B9CE4F572F573C20FC210228B358A3651
:1030A000893778EE7C027D017BFF7A3F793C7E0098
:1030B0007F601249E9E4F54385354885364985370F
:1030C0004A754B0285384C85394D853A4E853B4FC4
:1030D0007B017A0279EE122E658F44E4F543E543D5
:1030E000C39540504FC21D900366E541F0A3E542F1
:1030F000F07B017A0279EEAD44123B04900366E066
:103100007002A3E0602A301DF3C21D853C49853D55
:103110004A853E4B853F4C7B017A0479067D8012BF
:103120003377EA494B60D57F027E00123BE8D32219
:10313000054380AAC32278127C007D017BFF7A536D
:1031400079827E007F501249E97531FF75325375DF
:10315000331A75340085273575360085283775385C
:1031600000852A39753A0085293B7B017A0079125E
:10317000124DE47B017A007912123A547531FF75D1
:103180003253753346753400852B35753600852CE2
:1031900037753800852D397B017A007912124DE49C
:1031A0007B017A007912123A547531FF75325375EA
:1031B000335E9005C5E0753400F5357B017A007902
:1031C00012124DE47B017A007912023A54C0E0C039
:1031D000F0C083C082C0D075D000C000C001C00262
:1031E000C003C004C005C006C007309831C298E5CE
:1031F0001A702B201A14D21AF512F513FE7F807D57
:10320000FF7B017A047987124D4CAF130513748745
:103210002FF582E43404F583E599F07512003099B6
:1032200027C299E5156516601C74072515F582E41B
:103230003405F583E0F5990515E515C3948040083C
:103240007515008003751700D007D006D005D0048F
:10325000D003D002D001D000D0D0D082D083D0F023
:10326000D0E03278237C027D017BFF7A5579A17E04
:10327000007F801249E97B017A027923753300755A
:103280003480E4FFFE1236B190022374A1F07B017A
:103290007A0279237533007534017F017E0012367E
:1032A000B19002237408F07B017A02792375330010
:1032B0007534017F307E001236B19002237405F020
:1032C0007B017A0279237533007534017F317E00EA
:1032D0001236B1E4900223F07B017A027923F533B0
:1032E0007534037F06FE1236B17F0A7E00023BE88A
:1032F0008B2D8A2E892F8C308D3178917C027D0127
:103300007BFF7A4679A27E007F481249E9E4F537CF
:10331000FE7F50FDAB2DAA2EA92F124D4C9002918D
:10332000E531F0E530A3F0A3E532F0A3F0A3740D8E
:10333000F0900297F0E4A3F0A37407F0A3E536F051
:10334000FF7E00789B7C027D01AB33AA34A9351245
:1033500049E97548FF754946754AA0754B02754C99
:1033600001754D02754E91E536240AF54FAB2DAA35
:103370002EA92F122E65228D488B458A468947E457
:10338000F54D8B4E8A4F8950854951854A52854B60
:1033900053C3E5509547FFE54F9546FE7C00EF256A
:1033A0004CFFEC3EFED3EF95487480F86E98504782
:1033B000AB510553E553AA527002055214F9124A53
:1033C0000FFFAB4E0550E550AA4F7002054F14F9A0
:1033D000124A0FB50713054DE54DB54CD3C3E55063
:1033E000954CF9E54F9400FA22854951854A52855A
:1033F0004B53E4F54D809A7B007A00790022C2AFEE
:10340000D2BCE598543F4440F598E4752934F5283A
:10341000F527F526C39529F529E49528F5287401A3
:103420009527F527E49526F526AF29AE28AD27FC8C
:103430007808124B508FD68529D7538EEF438E01D3
:10344000538EF7438E0453AFFB538EF7438E10D247
:10345000ACD29C53A23F7E007F807D007B017A0529
:103460007907124D4CD2AF7BFF7A3C79B5123C36CE
:103470007BFF7A3C79DC023A548B308A3189328D79
:1034800033853B3D853C3EE4F53FF53FE53FC39545
:103490003A505CC21D900366E53BF0A3E53CF0ABFF
:1034A00030AA31A932AD33123B04900366E07002BA
:1034B000A3E06037301DF3C21D78087C047D01ABAA
:1034C00034AA35A9367E007F02124D28EF70DB90BA
:1034D0000486E0FF7E00A839AC38AD377B017A0462
:1034E00079061249E9900486E0FF22053F809D7F1E
:1034F0000022AD07ED30E01590058EE054E0F0902D
:10350000058DE054E0F090058CE054E0F0ED5402BD
:10351000C3136015900591E054E0F0900590E054DD
:10352000E0F090058FE054E0F0ED54041313543FA5
:103530006015900594E054E0F0900593E054E0F0BD
:10354000900592E054E0F0ED5408131313541F60FB
:103550001590059BE054E0F090059AE054E0F0905F
:103560000599E054E0F0227526C8E4F527C2001260
:103570002FBB788CA607123BCE8F1E788CE6FF659A
:103580006E6010E56FC395265004056F8005E4F565
:103590006FD200300045C200E56E6FF5278F6EE5F3
:1035A0002730E210E56E9005CD30E2057401F08021
:1035B000037402F0E52754306021E56E5430C454A2
:1035C0000F14600C14600D1460042403700D800847
:1035D000751F3922751F3A22751F3B22E56C640363
:1035E0006006E56C64047066E56CB4041790557170
:1035F000E493FEED8EF084FDEB8EF084FBE5298EE6
:10360000F084F529EF14601314601914601F24036B
:10361000703CED541FFF90058C8019ED541FFF90F6
:10362000058F8010ED541FFF9005928007ED541F09
:10363000FF900599E054E04FF0EB541FFFA3E054D6
:10364000E04FF0E529541FFFA3E054E04FF022C201
:1036500005E4F52E78E37C027D017BFF7A40792238
:10366000FE7F031249E93004089002E5E52DF08061
:1036700005E49002E5F0753801753902753AE3907A
:103680003FDEE493F53B753CFF753D3F753EDF90B3
:10369000401FE493F53F754002A3E493F5417401A4
:1036A00093F5427BFF7A3F799C12309C9205A205EC
:1036B000228E2E8F2F8B308A31893278E37C027DE7
:1036C000017BFF7A5679217E007F801249E97B01D8
:1036D0007A0279E3753C00753D80E4FFFE12392CD7
:1036E000E4FF123B92AE33AF3474E3252FF974023A
:1036F000352EA801FC7D01AB30AA31A9321249E96F
:103700007B017A0279E3753A00753B80E4FFFE02A3
:1037100039697B007A00796D753C00753D017F3019
:103720007E0012392C7B007A00796B753C00753D68
:10373000017F317E0012392CE56DD3940940037569
:103740006D08E56BD394094003756B057B007A0027
:10375000796D7533007534017F307E001236B17B90
:10376000007A00796B7533007534017F317E000279
:1037700036B18F298D2A9005C9E529F09005CBE057
:103780004401F07531FF75325475337E7534008510
:103790002935753600852A377B017A007900124D6C
:1037A000E47B017A007900123A54E52924FE601185
:1037B00024FE600E24037013E52A24FC700D0237EA
:1037C000CC22E52A24FC70031227F722D204752D9F
:1037D0000C12364F7F0C123C897531FF75325375D0
:1037E00033E875340075350C7B017A007940124D51
:0A37F000E47B017A007940023A54AC
:10380000E4F52EF52F78237C027D017BFF7A407949
:1038100025FE7F201249E9E4FF7534FF75354075B8
:10382000364B753701753802753923753A02753B89
:1038300001753C2C7BFF7A4079457D06123479EF87
:10384000600C900228E0422FA3E0FEEE422EAE2E46
:10385000AF2F22E47883F653B1C743B238C2B5C262
:10386000B4C2B39005CDE0B4011C7B007A0079832B
:10387000753C00753D017F027E0012392C7883E68D
:103880009005CAF08014E47883F6FB7A007983F51A
:10389000337534017F02FE1236B1121FC622123C6C
:1038A00049123C96123B709004027403F09004019C
:1038B000E04401F01206917529FF752A07752BFF68
:1038C000752CFF752D07752EFF7BFF7A3C795B12F7
:1038D0003000123567121800123A8A120800120DD1
:1038E0005D123CAC80CE8E268F278D288B298A2AAC
:1038F000892B78047C027D017BFF7A4679EA7E0081
:103900007F501249E9852832852933852A34852B51
:1039100035852C367B017A027904AD27AC2612322C
:10392000F0AD077B017A027904023B04AD07AC06D7
:10393000C2AF75C78075C5018CC3AF058FC475C68E
:103940005A75C6A500E5C2124A550DBD00010C749A
:103950000129F9E43AFAE53D153D7002153C14459C
:103960003C70D5123C7BD2AF22AD07AC06C2AF751E
:10397000C78075C5028CC3AF058FC4124A0FF5C24C
:1039800075C65A75C6A5000DBD00010C740129F954
:10399000E43AFAE53B153B7002153A14453A70D506
:1039A000123C7BD2AF225395084396F75393F443CE
:1039B000940B53C9CF43CA30756C03E4F529FBFD62
:1039C000FF1235DCE4F529FBFD7F011235DCE4F55F
:1039D00029FBFD7F021235DCE4F529FBFD7F0302A4
:1039E00035DC90040574F0F0300407900404E044E2
:1039F00001F09004027405F0900401E04401F075B8
:103A00006C077531FF75323D7533467B017A02795B
:103A1000E3124DE47B017A0279E3023A548B268A61
:103A2000278928124A0FFF9005C7F0A37402F0906F
:103A300003B4EFF07531FF75323D75339375340083
:103A4000F5357B017A017981124DE47B017A0179A8
:103A500081023A548B2E8A2F89307F0F7E00123BD1
:103A6000E8E5A2543F4440F5A27F0F7E00123BE8F8
:103A7000AB2EAA2FA930123C367F0F7E00123BE8F6
:103A800053A23F7F0F7E00023BE89005C8E064032D
:103A9000602178267C007D007B017A0579C77E0055
:103AA0007F021249E9122C939005C87403F0E49048
:103AB00005C7F022AC07A9051CE4FD74017E00A82F
:103AC00005088005C333CE33CED8F9FFE9FBEF5BA1
:103AD0006006EDB50402D3220DBD07DFC3227B01D2
:103AE0007A0579C5753C00753D017F037E0012396A
:103AF0002C7B017A0579C6753C00753D017F047EFB
:103B00000002392C8B458A468947E4FEEEC39D505E
:103B100018AB450547E547AA467002054614F91259
:103B20004A0FFF123B4D0E80E32220241FEF540763
:103B3000FF900596E054F84FF0A3EDF0EB541FFF13
:103B4000A3E054E04FF09005897401F0227407253A
:103B500016F582E43405F583EFF00516E516C394F7
:103B6000804003E4F516E5177005751701D2992218
:103B7000E4900000F07B017A007900F53C753D018E
:103B80007F01FE12392C900000E064A16003123224
:103B90006322AD07AC06C2AF8CC3AF058FC475C737
:103BA0008075C50375C65A75C6A500123C7BD2AF99
:103BB000227FF87E7FEF24FAFFEE34FFFAA9077B1D
:103BC000FF78B57C057D017E007F060249E97F070D
:103BD000E51FB43B028010E51FB43A047F03800761
:103BE000E51FB439027F0122AB07AA06EB1B700167
:103BF0001A144A60077F01123C6B80F0227B007A26
:103C000000791B753C00753D037F067E0002392C50
:103C100053B1FD43B20243B10153B2FE5395F74392
:103C2000960822E4FF2096010F2097034307022005
:103C3000950343070422124A0FFF600C123B4D7498
:103C40000129F9E43AFA80EE2212000E123C101219
:103C500033FE1239A61217EA023853900402740296
:103C6000F0900401E04401F00200037D367C07ED92
:103C70001D70011C144C70F7DFF122E4F5C7F5C587
:103C8000F5C675C3FF75C4FF22900588EFF0756C0B
:103C9000057F0F0234F2123BB1123BFD12371202C4
:103CA0003ADE900595743CF0756C0322302903D2FE
:103CB000B622C2B62269276D205541525431206682
:103CC0006F72207769666920646174612074726123
:103CD0006E736C617465202121210A0069276D20B3
:103CE000554152543120666F7220646174734C6F79
:103CF00067202121210A00726376506F7274206957
:103D00007320253032582C207263764E776B4164D5
:103D1000647220697320253034582E0A0072656D54
:103D20006F74652064617461526571756573742088
:103D30006661696C2C20636F64653A5B307825306E
:103D400032585D2E0A00646576486F6C6420737487
:103D5000617274207269676874206E6F772E0A0032
:103D6000646576486F6C642074696D6520636F7557
:103D70006E742072656D696E643A2025303264205D
:103D8000732E0A00646576486F6C642073746F70DC
:103D90002E0A00636D645363656E6172696F4374CC
:103DA000726C20636F6D6D696E672C207374617423
:103DB0007573446174613A253032582E0A006D6182
:103DC0007374657220636D64436F6D696E673A6EDC
:103DD000776B4F70656E3A25303264732E0A006D32
:103DE00061737465722055544320636F6D696E670B
:103DF0003A5B3078253032582530325825303258E9
:103E0000253032585D2E0A006E6F646520636D6444
:103E1000436F6D696E673A6465764E776B20686FA5
:103E20006C642E0A00646966666572207363656E51
:103E300065206465746563742066726F6D20706FB1
:103E40006C696E672E0A006469666665722065613A
:103E500063684374726C2064657465637420667271
:103E60006F6D20706F6C696E672C20637572726560
:103E70006E7456616C2069733A20253032582025C3
:103E800030325820253032582E0A00636D64436F5B
:103E90006D696E673A253032582E0A007377446197
:103EA000746120707573683A253032582E0A0063A9
:103EB000757272656E742065614374726C20696EF0
:103EC0007372745B325D2069733A20253032582E4C
:103ED0000A006374726C20656163684F7468657270
:103EE00020636D6420636F6D696E672C20636C7551
:103EF000737465723A253032642E0A0000000000A7
:103F000000000000000000000000000000000000B1
:103F100000000000000000000000000000000000A1
:103F20000000000000000000000000000000000091
:103F30000000000000000000000000000000000081
:103F40000000000000000000000000000000000071
:103F50000000000000000000000000000000000061
:103F60000000000000000000000000000000000051
:103F70000000000000000000000000000000000041
:103F80000000000000000000000000000000000031
:103F90000000000000000000000000002608FCFFF8
:103FA0000000000000000000000000000000000011
:103FB0000000000000000000000000000000000001
:103FC00000000000000000000000000000000000F1
:103FD000000000000000000000000000000003FEE0
:103FE000016608006F0000000000000000000000F3
:103FF00000000000000000000000000000000000C1
:1040000000000000000000000000000000000000B0
:10401000000000000000000000000000000000069A
:104020000096FCFF000000000000000000000000FF
:104030000000000000000000000000000000000080
:104040000000000000FE01260606276606000000AC
:104050000000000000000000000000000000000060
:1040600000000000000000000000000000FE002131
:10407000113061112110000000000000000000005C
:104080000000000000000000000000000000000030
:104090000000000000000000000000000000000020
:1040A0000000000000000000000000000000000010
:1040B0000000000000000BFE016110000000000085
:1040C00000000000000000000000000000000000F0
:1040D00000000000000000000000000000000000E0
:1040E00000000000000000000000000000000000D0
:1040F0000000000000000005006400000000000057
:104100000000000000460900000000000000000060
:10411000000000000000000000000000000000009F
:10412000000000000000000000000000000000008F
:10413000000000000000000000000000000000007F
:104140000000000000000000FE06418001020002A5
:104150000603C30000000000000000000000000093
:10416000000000000000000000000000000000004F
:10417000000000000000000000000000000000003F
:1041800000000000000000000B0FA0460900000026
:10419000000000000000000000000000000000001F
:1041A000000000000000000000000000000000000F
:1041B00000000000000000000000000000000000FF
:1041C0000000000000000000000000000000FE06EB
:1041D0004180010200020603C3000000000000004D
:1041E00000000000000000000000000000000000CF
:1041F00000000000000000000000000000000000BF
:1042000000000000000000000000000000000B0F94
:10421000A0260503010300000000000000000000CC
:10422000000000000000000000000000000000008E
:10423000000000000000000000000000000000007E
:10424000000000000000000000000000000000006E
:1042500000000003FE01660500620000000000008F
:10426000000000000000000000000000000000004E
:10427000000000000000000000000000000000003E
:10428000000000000000000000000000000000002E
:10429000000000000601F4460900000000000000D4
:1042A000000000000000000000000000000000000E
:1042B00000000000000000000000000000000000FE
:1042C00000000000000000000000000000000000EE
:1042D00000000000000000000000FE064180010216
:1042E00000020603C3000000000000000000000000
:1042F00000000000000000000000000000000000BE
:1043000000000000000000000000000000000000AD
:10431000000000000000000000000B0FA026058731
:10432000010100000000000000000000000000008B
:10433000000000000000000000000000000000007D
:10434000000000000000000000000000000000006D
:10435000000000000000000000000000000000035A
:10436000FE01660500620000000000000000000081
:10437000000000000000000000000000000000003D
:10438000000000000000000000000000000000002D
:10439000000000000000000000000000000000001D
:1043A0000601F42702FFFF000000000000000000EB
:1043B00000000000000000000000000000000000FD
:1043C00000000000000000000000000000000000ED
:1043D00000000000000000000000000000000000DD
:1043E000000000000002FE016702006400000000FF
:1043F00000000000000000000000000000000000BD
:1044000000000000000000000000000000000000AC
:10441000000000000000000000000000000000009C
:104420000000000000000601F427030080000000E7
:10443000000000000000000000000000000000007C
:10444000000000000000000000000000000000006C
:10445000000000000000000000000000000000005C
:10446000000000000000000000000004FE016703DF
:1044700000650000000000000000000000000000D7
:10448000000000000000000000000000000000002C
:10449000000000000000000000000000000000001C
:1044A0000000000000000000000000000601F426EB
:1044B00000000000000000000000000000000000FC
:1044C00000000000000000000000000000000000EC
:1044D00000000000000000000000000000000000DC
:1044E00000000000000000000000000000000000CC
:1044F0000000FE0145C0078300000000000000002E
:1045000000000000000000000000000000000000AB
:10451000000000000000000000000000000000009B
:10452000000000000000000000000000000000008B
:104530000000061F402608FCFF00000000000000ED
:10454000000000000000000000000000000000006B
:10455000000000000000000000000000000000005B
:10456000000000000000000000000000000000004B
:104570000000000000000003FE016608006F00005C
:10458000000000000000000000000000000000002B
:10459000000000000000000000000000000000001B
:1045A000000000000000000000000000000000000B
:1045B000000000000000000006009624000E0D0020
:1045C0000D000D00010000010000000000000000CF
:1045D00000000000000000000000000000000000DB
:1045E00000000000000000000000000000000000CB
:1045F000000000000000000000000000000DFE01AF
:1046000064000065000000000000000000000000E1
:10461000000000000000000000000000000000009A
:10462000000000000000000000000000000000008A
:104630000000000000000000000000000000060173
:10464000F4FE016400B8DD0C000D0D000D0E000D30
:10465000000000000000000000000000000000005A
:10466000000000000000000000000000000000004A
:10467000000000000000000000000000000000003A
:10468000000000000000000000000000000000002A
:10469000000000000000000000000000000000001A
:1046A00024010000000000000000000000000000E5
:1046B00000000000000000000000000000000000FA
:1046C00000000000000000000000000000000000EA
:1046D00000000000000000000000000000000000DA
:1046E00000000000000000000000000000000000CA
:1046F00000000000000000000000000000000000BA
:1047000000000000000000000000000000000000A9
:104710000000000000000000000000000000000099
:104720000000000000000000000000000000000089
:104730000000000000000000000000000000000079
:104740000000000000000000000000000000000069
:104750000000000000000000000000000000000059
:104760000000000000000000000000000000000049
:104770000000000000000000000000000000000039
:104780000000000000000000000000000000000029
:104790000000000000000000000000000000000019
:1047A0000000000000000000000000000000000009
:1047B00000000000000000000000000000000000F9
:1047C0000000000000000000000000000044806ABB
:1047D00001000000000000000000000000000000D8
:1047E00000000000000000000000000000000000C9
:1047F00000000000000000000000000000000000B9
:1048000000000000000000000000000000000000A8
:104810000000000000000000000000000000000098
:104820000000000000000000000000000000000088
:104830000000000000000000000000000000000078
:104840000000000000000000000000000000000068
:104850000000000044810000000000000000000093
:104860000000000000000000000000000000000048
:104870000000000000000000000000000000000038
:104880000000000000000000000000000000000028
:104890000000000000000000000000000000000018
:1048A0000000000000000000000000000000000008
:1048B00000000000000000000000000000000000F8
:1048C00000000000000000000000000000000000E8
:1048D00000000000000000000000000000000000D8
:1048E00000000000000000000000000000000000C8
:1048F00000000000000000000000000000000000B8
:1049000000000000000000000000000000000000A7
:104910000000000000006B0100E709F608DFFA80E4
:1049200046E709F208DFFA803E88828C83E709F0C7
:10493000A3DFFA8032E309F608DFFA8078E309F2B0
:1049400008DFFA807088828C83E309F0A3DFFA80A5
:104950006489828A83E0A3F608DFFA805889828A14
:1049600083E0A3F208DFFA804C80D280FA80C68010
:10497000D4806980F28033801080A680EA809A809B
:10498000A880DA80E280CA803389828A83ECFAE4E4
:1049900093A3C8C582C8CCC583CCF0A3C8C582C8C0
:1049A000CCC583CCDFE9DEE7800D89828A83E4937E
:1049B000A3F608DFF9ECFAA9F0EDFB2289828A83DD
:1049C000ECFAE0A3C8C582C8CCC583CCF0A3C8C5A7
:1049D00082C8CCC583CCDFEADEE880DB89828A83AB
:1049E000E493A3F208DFF980CC88F0EF60010E4E6B
:1049F00060C388F0ED2402B4040050B9F582EB24C2
:104A000002B4040050AF232345822390496973BB4D
:104A1000010689828A83E0225002E722BBFE02E37C
:104A20002289828A83E49322BB010CE58229F582E4
:104A3000E5833AF583E0225006E92582F8E622BBB9
:104A4000FE06E92582F8E222E58229F582E5833A2D
:104A5000F583E49322BB010689828A83F022500207
:104A6000F722BBFE01F322F8BB010DE58229F58296
:104A7000E5833AF583E8F0225006E92582C8F6225C
:104A8000BBFE05E92582C8F222EF8DF0A4A8F0CF85
:104A90008CF0A428CE8DF0A42EFE22BC000BBE000C
:104AA00029EF8DF084FFADF022E4CCF875F008EF2B
:104AB0002FFFEE33FEEC33FCEE9DEC984005FCEE50
:104AC0009DFE0FD5F0E9E4CEFD22EDF8F5F0EE8481
:104AD00020D21CFEADF075F008EF2FFFED33FD4046
:104AE00007985006D5F0F222C398FD0FD5F0EA22C0
:104AF000E88FF0A4CC8BF0A42CFCE98EF0A42CFC65
:104B00008AF0EDA42CFCEA8EF0A4CDA8F08BF0A4E2
:104B10002DCC3825F0FDE98FF0A42CCD35F0FCEB41
:104B20008EF0A4FEA9F0EB8FF0A4CFC5F02ECD3906
:104B3000FEE43CFCEAA42DCE35F0FDE43CFC22EB87
:104B40009FF5F0EA9E42F0E99D42F0E89C45F02294
:104B5000E8600FECC313FCED13FDEE13FEEF13FF43
:104B6000D8F122E8600FEFC333FFEE33FEED33FDE3
:104B7000EC33FCD8F122D083D082F8E49370127425
:104B80000193700DA3A393F8740193F5828883E4D5
:104B9000737402936860EFA3A3A380DF8A83898282
:104BA000E473E3F5F009E208B5F06BDFF58067E345
:104BB000F5F009E608B5F05EDFF5805A87F009E602
:104BC00008B5F052DFF6804E87F009E208B5F046EE
:104BD000DFF6804288828C8387F009E0A3B5F03647
:104BE000DFF6803288828C8387F009E493A3B5F0E6
:104BF00025DFF5802188828C83E3F5F009E0A3B5F9
:104C0000F014DFF5801088828C83E3F5F009E493DB
:104C1000A3B5F002DFF4024CD1808780E980908058
:104C2000D4803E8015806E807E809D80B7808D8090
:104C3000A380518074803C024CDD89828A83ECFA27
:104C4000E493F5F0A3C8C582C8CCC583CCE493A394
:104C5000C8C582C8CCC583CCB5F076DFE3DEE18081
:104C60007089828A83E493F5F0A3E208B5F062DFED
:104C7000F4805E89828A83E0F5F0A3E608B5F051FE
:104C8000DFF5804D89828A83E0F5F0A3E208B5F074
:104C900040DFF5803C89828A83E493F5F0A3E6083F
:104CA000B5F02EDFF4802A8002805789828A83EC57
:104CB000FAE493F5F0A3C8C582C8CCC583CCE0A3C1
:104CC000C8C582C8CCC583CCB5F006DFE4DEE2807F
:104CD000007FFFB5F0020F2240027F012289828A05
:104CE00083ECFAE0F5F0A3C8C582C8CCC583CCE05C
:104CF000A3C8C582C8CCC583CCB5F0D5DFE5DEE35B
:104D000080CF89828A83ECFAE0F5F0A3C8C582C817
:104D1000CCC583CCE493A3C8C582C8CCC583CCB52D
:104D2000F0AFDFE4DEE280A988F0EF60010E4E60B4
:104D3000ABED2402B404005098F582EB2402B404D5
:104D400000508E2323458223904C1973EF4E60123E
:104D5000EF60010EEDBB010B89828A83F0A3DFFCBB
:104D6000DEFA2289F05007F709DFFCA9F022BBFE2A
:104D7000FCF309DFFCA9F022FAE6FB0808E6F925B6
:104D8000F0F618E6CA3AF622E53D2431F8E6053D8C
:104D900022782E300D027831E475F001124D780240
:104DA0004A0F2006EB7F2ED2068018EF540F249076
:104DB000D43440D4FF300A0BEF24BFB41A005003A0
:104DC0002461FFE53E6002153E0541E541700205A4
:104DD00040300D0D782EE475F001124D78EF024A47
:104DE0005502557A7403D20D8003E4C20DF53D8B54
:104DF0002E8A2F8930E4F53EF540F541E53E600707
:104E00007F20124DC380F5753FFFC207C206C2085E
:104E1000C209C20BC20CC20E124D91FF700D300DB3
:104E2000057F00124DD4AF41AE4022B4255FC2D5FC
:104E3000C20A124D91FF24D0B40A00501A75F00A2C
:104E4000783E30D50508B6FF0106C6A426F620D563
:104E5000047002D20980D924CFB41A00EF5004C2E2
:104E6000E5D20A024FD4D20780C6D20680C0D2084B
:104E700080BCD2D580BAD20B80B47F20124DC32023
:104E800008077401B53E0040F1124D88FF124DC372
:104E9000024DFCD20ED20C8095124D88FB124D882B
:104EA000FA124D88F94A4B700679A57A507BFF209B
:104EB000082EE53E602A7E008E82758300124A2805
:104EC00060060EEE653F70F0C2D5EBC0E0EAC0E0D0
:104ED000E9C0E0EE12501BD0E0F9D0E0FAD0E0FBE0
:104EE000124A0FFF60AAEBC0E0EAC0E0E9C0E0129E
:104EF0004DC3D0E02401F9D0E03400FAD0E0FBE566
:104F00003F0460DCD53FD980877BFF7A507917D288
:104F100008809C791080027908C20CC20E8008D2E9
:104F2000D5790A8004790AC2D5E53F047002F53FBD
:104F3000E4FAFDFEFF124D88FC7B08200713124D9A
:104F400088FD7B1030060A124D88FE124D88FF7BCB
:104F500020EC3382D592D55013C3E43006069FFF70
:104F6000E49EFEE42007039DFDE49CFCE4CBF8C234
:104F700007EC700CCFCECDCCE824F8F870F3801796
:104F8000C3EF33FFEE33FEED33FDEC33FCEB33FBCD
:104F9000994002FB0FD8E9EB300705F8D0E0C44890
:104FA000B207C0E00AEC4D4E4F78207B0070C2EA99
:104FB000B53F0040BCC0E012501DD0F0D0E020074B
:104FC00004C4C0E0C4B207C0F0124DACD0F0D5F0BC
:104FD000EB024DFC124B764E99534F13584E6A4CD0
:104FE0004E66424F174F4F1F444F1F494E7F434F4E
:104FF00025554F09464F09454F094750C5504E6E3C
:105000002D4E722E4E952B4E76234E932050AE2A67
:105010004E2E4800004E8D3F3F3F00790AA2D5201A
:105020000914300B09B910020404B9080104A2D50F
:10503000200C025001042008689208B53E0050344C
:10504000C0E07F203009197F30A208720C720B502B
:105050000F125074C208C20CC20BC20E7F30800FF8
:10506000300B03E9C0E0124DC3300B03D0E0F9D0A0
:10507000E0B53ECC300B177F30B9100C124DC37F1A
:1050800058300A077F788003B90803124DC33008EF
:10509000057F2D024DC37F20200EF87F2B200CF3BF
:1050A00022920880CF286E756C6C2900D207124DB1
:1050B000883007F8C207783E30D50108F6024E2E38
:1050C0002D50434958124D882403B405004001E493
:1050D0009050C093124DB4743A124DB4D209753E3B
:1050E00004024F13027400000176000177004305AB
:1050F000A10000004305A40000004305A700000034
:105100004305AA0000004105AD034105AE0042057C
:105110009C01F442059E00004105A008C1A6011FA4
:105120003B011E01031B0000004605B50000000006
:1051300000004605AF010101010101C12743058CB3
:1051400000000043058F000000430592000000436B
:105150000599000000016D08016B05016C00016AF2
:105160000042058A00004105953C41058800430541
:10517000960000004105890002540000C11E41054F
:10518000870001561FC19F015700015800C1A001AF
:105190005900015A00015B00015C00015D00015EE5
:1051A00000C1A1015F000160000161000162000116
:1051B0006300016400016500016600016700016889
:1051C000000169004204010000C11CC119420366CC
:1051D00000004204040000C11B011100410403034C
:1051E0004303630000004103B400C11DC11A011252
:1051F00000011300608104060000000000000000B0
:10520000000000000000000000000000000000009E
:10521000000000000000000000000000000000008E
:10522000000000000000000000000000000000007E
:10523000000000000000000000000000000000006E
:10524000000000000000000000000000000000005E
:10525000000000000000000000000000000000004E
:10526000000000000000000000000000000000003E
:105270000000000000000000000110000108000113
:105280000900010A00010B00010C00010D00020ED3
:105290000000C118C197018C00C196C115027200AF
:1052A000004205D000004205CE0000016E00016FF3
:1052B00000C10FC110C111017000C112C113C1148E
:1052C0000171004105CD024105CA004205C7000336
:1052D0004105C900C1284205CB00004705BD0000BB
:1052E00000000000004105C40A4105C5084105C68B
:1052F00000027D0000017F00C125C1240180000261
:10530000790000018200018100027B000001780029
:105310004205BB0000C122C129000A3E3E3D3D3D81
:10532000CAB1BCE4B4C13D3D3D3C3C0A2020202034
:10533000323025642F253032642F253032642D57CA
:10534000253031640A002020202020202020253014
:1053500032643A253032643A253032640A00746986
:105360006D655A6F6E655F483A253032642E0A00CB
:10537000000000000000000000000000000000002D
:10538000000000000000000000000000000000001D
:10539000000000000000000000000000000000000D
:1053A00000000000000000000000000000000000FD
:1053B00000000000000000000000000000000000ED
:1053C00000000000000000000000000000000000DD
:1053D00000000000000000000000000000000000CD
:1053E0000000000013880000746F756368506164EA
:1053F000207370656369616C20747269673A6E77B7
:105400006B4F70656E3A25303264732E0A00746FEC
:105410007563685061643A253032582C2073686F88
:10542000727450726573732E0A00746F75636850DE
:1054300061643A253032582C20636E745072657363
:10544000732E0A00746F7563685061643A253032B8
:10545000582C206C6F6E6750726573735F412E0A13
:1054600000746F7563685061643A253032582C209F
:105470006C6F6E6750726573735F422E0A00746FB3
:105480007563685061643A253032582C20253032DB
:105490005874696D652070726573734F7665722EEE
:1054A0000A00000A0BB82710EA6000140BB8271096
:1054B000EA60787FE4F6D8FD75818C0254F90238F1
:1054C0009EE493A3F8E493A34003F68001F208DF7F
:1054D000F48029E493A3F85407240CC8C333C454BC
:1054E0000F4420C8834004F456800146F6DFE48070
:1054F0000B01020408102040809050E4E47E0193E8
:1055000060BCA3FF543F30E509541FFEE493A36041
:10551000010ECF54C025E060A840B8E493A3FAE49C
:1055200093A3F8E493A3C8C582C8CAC583CAF0A3ED
:10553000C8C582C8CAC583CADFE9DEE780BE7A690A
:1055400067624E776B20436C6F73652E0A001F00F5
:1055500000000000140A1F1F00001F000A080010AE
:10556000001F00101F001F0A0000001F000A1F007C
:10557000C8040303030105040080EFB40A07740D97
:10558000125585740A309811A899B8130CC2983036
:1055900098FDA899C298B811F63099FDC299F5996D
:1055A00022000000000000000000000000000000D9
:1055B00000000000000000000000000000000000EB
:1055C00000000000000000000000000000000000DB
:1055D00000000000000000000000000000000000CB
:1055E00000000000000000000000000000000000BB
:1055F00000000000000000000000000000000000AB
:10560000000000000000000000000000000000009A
:10561000000000000000000000000000000000008A
:10562000000000000000000000000000000000007A
:10563000000000000000000000000000000000006A
:10564000000000000000000000000000000000005A
:10565000000000000000000000000000000000004A
:10566000000000000000000000000000000000003A
:10567000000000000000000000000000000000002A
:10568000000000000000000000000000000000001A
:10569000000000000000000000000000000000000A
:0156A0000009
:00000001FF
