:10000000026BC253B1FB43B204223202000A438E98
:10001000805389F0758A50758CFBC28DD2A9D2B9F4
:10002000D28C22026A9CC2AFC2BCE598543F4440C5
:10003000F598E4752A34F529F528F527C3952AF5AE
:100040002AE49529F52974019528F528E49527F5E2
:1000500027AF2AAE29AD28FC780812381E8FD68526
:100060002AD7538EEF438E01538EF7438E0453AF3E
:10007000FB538EF7438E10D2ACD29C53A23F7E002E
:100080007F997D007B017A0579E0123A26D2AF7B19
:10009000FF7A0079A61278BA7BFF7A0079CD0275D3
:0100A0006CF3
:1000A300022AB569276D20554152543120666F727B
:1000B30020776966692064617461207472616E736C
:1000C3006C617465202121210A0069276D20554147
:1000D30052543120666F7220646174734C6F6720D1
:1000E3002121210A006E776B5A69676220636F6E64
:1000F3006E6563742F72656A6F696E20616C6C2024
:10010300636F6D706C6574652E0A006E776B5A6948
:10011300676220636F6E6E6563742F72656A6F69C1
:100123006E206D61696E537465702D2530326440A5
:100133006D6574686F643A256420636F6D706C65D8
:1001430074652E0A00657272206672616D6548657A
:1001530061643A253032582E0A00726376506F720A
:100163007420697320253032582C207263764E77C1
:100173006B4164647220697320253034582E0A0061
:1001830072656D6F74652064617461526571756524
:100193007374206661696C2C20636F64653A5B300D
:1001A30078253032585D2E0A00646576486F6C649A
:1001B300207374617274207269676874206E6F773C
:1001C3002E0A00646576486F6C642074696D65203F
:1001D300636F756E742072656D696E643A202530A5
:1001E300326420732E0A00646576486F6C64207352
:1001F300746F702E0A00636D645363656E61726978
:100203006F4374726C20636F6D6D696E672C20731E
:100213007461747573446174613A253032582E0ADF
:10022300006D617374657220636D64436F6D696EF5
:10023300673A6E776B4F70656E3A25303264732E72
:100243000A006D61737465722055544320636F6DAA
:10025300696E673A5B30782530325825303258253D
:10026300303258253032585D2E0A006E6F64652097
:10027300636D64436F6D696E673A6465764E776B41
:1002830020686F6C642E0A006D617374657220635D
:100293006D643A206474506572696F6420686F6C92
:1002A300642C2074696D653A25642E0A00646966BE
:1002B300666572207363656E652064657465637437
:1002C3002066726F6D20706F6C696E672E0A006313
:1002D3006D64436F6D696E673A253032582E0A009C
:1002E3003E3E3E3E3E3E3E3E74696D65725F7461C6
:1002F300623320726573706F6E643A5B25303258D7
:100303002D253032582D253032585D2E0A003E3EC1
:100313003E3E3E3E3E3E74696D65725F746162337C
:1003230020686173206265656E207365743A5B258E
:100333003032582D253032582D253032585D2E0A53
:10034300003E3E3E3E3E3E3E3E696E7465726E65C5
:1003530074206F66666C696E652E0A003E3E3E3EF3
:100363003E3E3E3E72656C617953746174757320D1
:100373007265616C65733A253032582C206375724F
:1003830072656E7456616C3A253032582E0A003EFF
:100393003E3E3E3E3E3E3E64656C61795065726909
:1003A3006F643A5B25645D2C2064656C61795570DC
:1003B3004163743A5B253032585D2E0A003E3E3E5F
:1003C3003E3E3E3E3E666163746F727920726563A2
:1003D3006F766572207374616E644279212E0A0010
:1003E3003E3E3E3E3E3E3E3E6167696E67436D6400
:1003F300206465764C6F636B20636F6D696E672C49
:10040300206C6F636B49663A5B25645D2E0A003E80
:100413003E3E3E3E3E3E3E6167696E67436D6420ED
:1004230074696D657220636F6D696E672C206461FA
:100433007461546162313A5B253032582D25303274
:10044300582D253032585D2E0A003E3E3E3E3E3E3C
:100453003E3E6167696E67436D6420677265656ED2
:100463004D6F646520636F6D696E672C2074696DD1
:10047300655365743A25642E0A003E3E3E3E3E3E79
:100483003E3E6167696E67436D64206E6967687499
:100493004D6F646520636F6D696E6720776974685B
:1004A30020646174733A5B2530325820253032580A
:1004B300202530325800202530325820253032583C
:1004C30020253032585D2E0A003E3E3E3E3E3E3EE3
:1004D3003E6167696E67436D6420626B4C69676850
:1004E3007420636F6D696E672C206F6E2D49737274
:1004F300743A253032642C206F66662D497372740A
:100503003A253032642E0A003E3E3E3E3E3E3E3E9B
:100513006167696E67436D6420686F7273696E67A4
:100523004C6967687420636F6D696E672C206F7008
:1005330072656174446174613A253032582E0A0041
:100543003E3E3E3E3E3E3E3E6167696E67436D649E
:100553002073776974636842696E645365742063BA
:100563006F6D696E672C206F707265617442697478
:10057300486F6C643A253032582062696E64446176
:1005830074613A25303258202530325820253032D4
:10059300582E0A003E3E3E3E3E3E3E3E6167696E39
:1005A30067436D64206375727461696E4F7262692B
:1005B30074616C53657420636F6D696E672C20766C
:1005C300616C5365743A2564202E0A003E3E3E3E1C
:1005D3003E3E3E3E666163746F7279207265636F5F
:1005E30076657220646F696E67206E6F77212E0ABD
:1005F3000063757272656E745061696E206765740D
:10060300206973203A253034582E0A003E3E3E645A
:10061300744374726C45616368206C6F6F705061D2
:1006230072616D3A25642025642025642E0A0063D7
:1006330074726C20656163684F7468657220636DC2
:100643006420636F6D696E672C20636C75737465CA
:10065300723A253032642C2076616C3A253032644C
:100663002C206C6F6F703A253032642E0A00000024
:100673000000000000000000000000000000000077
:100683000000000000000000000000000000000067
:100693000000000000000000000000000000000057
:1006A3000000000000000000000000000000000047
:1006B3000000000000000000000000000000000037
:1006C3000000000000000000000000000000000027
:1006D3000000000000000000000000000000000017
:1006E3000000000000000000000000000000000007
:1006F30000000000000000000000000000000000F7
:1007030000000000000000000000000000002608B8
:10071300FCFF0000000000000000000000000000DB
:1007230000000000000000000000000000000000C6
:1007330000000000000000000000000000000000B6
:1007430000000000000000000000000000000000A6
:1007530003FE016608006F000000000000000000B7
:100763000000000000000000000000000000000086
:100773000000000000000000000000000000000076
:100783000000000000000000000000000000000066
:1007930000060096FCFF00000000000000000000BF
:1007A3000000000000000000000000000000000046
:1007B30000000000000000FE012606062766060072
:1007C3000000000000000000000000000000000026
:1007D300000000000000000000000000000000FE18
:1007E3000021113061112110000000000000000001
:1007F30000000000000000000000000000000000F6
:1008030000000000000000000000000000000000E5
:1008130000000000000000000000000000000000D5
:1008230000000000000000000BFE0161100000004A
:1008330000000000000000000000000000000000B5
:1008430000000000000000000000000000000000A5
:100853000000000000000000000000000000000095
:10086300000000000000000000050064000000001C
:100873000000000000000046090000000000000026
:100883000000000000000000000000000000000065
:100893000000000000000000000000000000000055
:1008A3000000000000000000000000000000000045
:1008B30000000000000000000000FE06418001026D
:1008C30000020603C3000000000000000000000057
:1008D3000000000000000000000000000000000015
:1008E3000000000000000000000000000000000005
:1008F300000000000000000000000B0FA0460900EC
:1009030000000000000000000000000000000000E4
:1009130000000000000000000000000000000000D4
:1009230000000000000000000000000000000000C4
:1009330000000000000000000000000000000000B4
:10094300FE064180010200020603C300000000000E
:100953000000000000000000000000000000000094
:100963000000000000000000000000000000000084
:100973000000000000000000000000000000000074
:100983000B0FA02605030103000000000000000078
:100993000000000000000000000000000000000054
:1009A3000000000000000000000000000000000044
:1009B3000000000000000000000000000000000034
:1009C300000000000003FE01660500620000000055
:1009D3000000000000000000000000000000000014
:1009E3000000000000000000000000000000000004
:1009F30000000000000000000000000000000000F4
:100A03000000000000000601F44609000000000099
:100A130000000000000000000000000000000000D3
:100A230000000000000000000000000000000000C3
:100A330000000000000000000000000000000000B3
:100A4300000000000000000000000000FE064180DE
:100A5300010200020603C3000000000000000000C2
:100A63000000000000000000000000000000000083
:100A73000000000000000000000000000000000073
:100A83000000000000000000000000000B0FA02683
:100A930005870101000000000000000000000000C5
:100AA3000000000000000000000000000000000043
:100AB3000000000000000000000000000000000033
:100AC3000000000000000000000000000000000023
:100AD3000003FE0166050062000000000000000044
:100AE3000000000000000000000000000000000003
:100AF30000000000000000000000000000000000F3
:100B030000000000000000000000000000000000E2
:100B130000000601F42702FFFF00000000000000B0
:100B230000000000000000000000000000000000C2
:100B330000000000000000000000000000000000B2
:100B430000000000000000000000000000000000A2
:100B53000000000000000002FE01670200640000C4
:100B63000000000000000000000000000000000082
:100B73000000000000000000000000000000000072
:100B83000000000000000000000000000000000062
:100B930000000000000000000601F42703008000AD
:100BA3000000000000000000000000000000000042
:100BB3000000000000000000000000000000000032
:100BC3000000000000000000000000000000000022
:100BD3000000000000000000000000000004FE010F
:100BE3006703006500000000000000000000000033
:100BF30000000000000000000000000000000000F2
:100C030000000000000000000000000000000000E1
:100C130000000000000000000000000000000601CA
:100C2300F4260000000000000000000000000000A7
:100C330000000000000000000000000000000000B1
:100C430000000000000000000000000000000000A1
:100C53000000000000000000000000000000000091
:100C630000000000FE0145C00783000000000000F3
:100C73000000000000000000000000000000000071
:100C83000000000000000000000000000000000061
:100C93000000000000000000000000000000000051
:100CA30000000000061F402608FCFF0000000000B3
:100CB3000000000000000000000000000000000031
:100CC3000000000000000000000000000000000021
:100CD3000000000000000000000000000000000011
:100CE30000000000000000000003FE016608006F22
:100CF30000000000000000000000000000000000F1
:100D030000000000000000000000000000000000E0
:100D130000000000000000000000000000000000D0
:100D23000000000000000000000006009624000EF2
:100D33000D000D000D000100000100000000000087
:100D430000000000000000000000000000000000A0
:100D53000000000000000000000000000000000090
:100D63000000000000000000000000000000000D73
:100D7300FE016400006500000000000000000000A8
:100D83000000000000000000000000000000000060
:100D93000000000000000000000000000000000050
:100DA3000000000000000000000000000000000040
:100DB3000601F4FE016400B8DD0C000D0D000D0EFC
:100DC300000D000000000000000000000000000013
:100DD3000000000000000000000000000000000010
:100DE3000000000000000000000000000000000000
:100DF30000000000000000000000000000000000F0
:100E030000000000000000000000000000000000DF
:100E130000002401000000000000000000000000AA
:100E230000000000000000000000000000000000BF
:100E330000000000000000000000000000000000AF
:100E4300000000000000000000000000000000009F
:100E5300000000000000000000000000000000008F
:100E6300000000000000000000000000000000007F
:100E7300000000000000000000000000000000006F
:100E8300000000000000000000000000000000005F
:100E9300000000000000000000000000000000004F
:100EA300000000000000000000000000000000003F
:100EB300000000000000000000000000000000002F
:100EC300000000000000000000000000000000001F
:100ED300000000000000000000000000000000000F
:100EE30000000000000000000000000000000000FF
:100EF30000000000000000000000000000000000EF
:100F030000000000000000000000000000000000DE
:100F130000000000000000000000000000000000CE
:100F230000000000000000000000000000000000BE
:100F330000000000000000000000000000000000AE
:100F4300000000000000000000000000000000009E
:100F5300000000000000000000000000000000008E
:100F6300000000000000000000000000000000007E
:100F7300000000000000000000000000000000006E
:100F8300000000000000000000000000000000005E
:100F9300000000000000000000000000000000004E
:100FA300000000000000000000000000000000003E
:100FB300000000000000000000000000000000002E
:100FC300000000000000000000000000000000001E
:100FD300000000000000000000000000000000000E
:100FE30000000000000000000000000000000000FE
:100FF30000000000000000000000000000000000EE
:1010030000000000000000000000000000000000DD
:1010130000000000000000000000000000000000CD
:10102300000044806A01000000000000000000008E
:1010330000000000000000000000000000000000AD
:10104300000000000000000000000000000000009D
:10105300000000000000000000000000000000008D
:10106300000000000000000000000000000000007D
:10107300000000000000000000000000000000006D
:10108300000000000000000000000000000000005D
:10109300000000000000000000000000000000004D
:1010A300000000000000000000000000000000003D
:1010B300000000000000000000000000000000002D
:1010C300000000000000000000000000000000001D
:1010D300000000000000000000000000000000000D
:1010E30000000000000000000000000000000000FD
:1010F30000000000000000000000000000000000ED
:1011030000000000000000000000000000000000DC
:1011130000000000000000000000000000000000CC
:101123000000000000000000000000448145CB00E7
:1011330000000000000000000000000000000000AC
:10114300000000000000000000000000000000009C
:10115300000000000000000000000000000000008C
:10116300000000000000000000000000000000007C
:10117300000000000000000000000000000000006C
:10118300000000000000000000000000000000005C
:10119300000000000000000000000000000000004C
:1011A300000000000000000000000000000000003C
:1011B300000000000000000000000000000000002C
:1011C300000000000000000000000000000000001C
:1011D300000000000000000000000000000000000C
:1011E30000000000000000000000000000000000FC
:1011F30000000000000000000000000000000000EC
:1012030000000000000000000000000000000000DB
:1012130000000000000000000000000000000000CB
:1012230000000000000000000000000000000000BB
:1012330000000000000000000000000000000000AB
:10124300000000000000000000000000000000009B
:10125300000000000000000000000000000000008B
:101263000000FB0000000000008B278A2889298CDE
:101273002A8D2B78797C017D017BFF7A10794C7E56
:10128300007F991236B7C202AB27AA28A9291236C2
:10129300DD2456605C24B07003021A4F14700302FD
:1012A3001A20242F6003022138D202E92407F9E42B
:1012B3003AFA78797C067D017E007F061236B79074
:1012C30004C0E024F3FFE434FFFEAB27E529240D3B
:1012D300F9E43528FAC003C002C001E5292401F965
:1012E300E43528A801FCAD03D001D002D0031236A7
:1012F300B7C203C204C205AB27E5292405F9E435C7
:1013030028FA7D1C1275A2AB27AA28A929900004EC
:101313001236F6B50702D204E5292405F9E4352887
:10132300A801FCAD277B017A0679817E007F051237
:101333003A02EF7002D205AB27AA28A9299000032D
:101343001236F6FFB43904D205800BEF641460043F
:10135300EFB41902D204300405300402D20320038F
:1013630003022138C204C2057E007F407D007B0159
:101373007A067986123A26753BFF753C02753DD293
:10138300AB27AA28A9299000031236F6753E00F56B
:101393003F7B017A0679861246BF7B017A067986FE
:1013A30012756C7E007F997D007B017A0179791239
:1013B3003A26AB27AA28A9299000031236F6123839
:1013C30050146A1014DC1116BB14198F15198F16DB
:1013D300150F17152618153E19166A1A16821B16AD
:1013E300B51F16B02213FE3918774118EB421919AD
:1013F30043196344198F500000198D3032030219C9
:101403008F1277D1302A02C22A90071DE0900184FF
:10141300F0A37407F0E518900187F0A3E519F0AB8A
:1014230027AA28A92990000C1236F69006D0F0902E
:10143300000D1236F69006D1F07B017A0679D0754D
:1014430038007539017F037E001271067B017A062D
:1014530079D17538007539017F047E001271067FDA
:101463000A127842021508E4900184F0AB27AA28F7
:10147300A92990000B1236F6FF5407900184F0EF70
:101483005401FF90071DE0FE54016F600990018431
:10149300E04420F0802D90000B1236F6FC5402FD40
:1014A300EE54026D6009900184E04440F08014EC36
:1014B3005404FF90071DE054046F6007900184E01B
:1014C3004480F0AB27AA28A92990000B1236F69086
:1014D300071AF0A37402F0802C90071DE0540790C4
:1014E3000184F0E4A3F0303206E04401F080079079
:1014F3000185E054FEF0900185E0302D054402F0B3
:10150300800354FDF0D204C20502198F752D01D258
:10151300327B007A00792D7538007539017F057E9D
:10152300008012E4F52DC232FB7A00792DF538756F
:1015330039017F05FE12710602198FAB27AA28A96C
:101543002990000D1236F6246060191470030215F9
:10155300F614700302161B14700302162424A360EE
:1015630003021655E4F52D7B017A017987F554754D
:10157300550C7F10FE127534E4F52D74017E00A81E
:101583002D088005C333CE33CED8F9FF7890E6FD1E
:10159300EF5D6013E52D75F003A42487F582E43431
:1015A30001F583E05480F0052DE52DB404CDD2057B
:1015B3007E007F407D007B017A067986123A26758C
:1015C3003BFF753C02753DE390018DE0753E00F5F0
:1015D3003FA3E0754000F541A3E0754200F5437B6E
:1015E300017A0679861246BF7B017A0679861275DF
:1015F3006C805F788EE6FE08E6FF4E7002800C7CFE
:10160300007D3C123769C37897E69F900187F07895
:1016130096E6900188F0803A788DE6900187F08015
:10162300317B017A0179877554007555067F327EC7
:1016330000127534900185E03032054401F08003D7
:1016430054FEF0900185E0302D054402F0800354F0
:10165300FDF0AB27AA28A92990000D1236F69001B8
:1016630086F0D20402198FE4F52DFB7A00792DF56B
:10167300547555017F32FE127534532D808016E464
:10168300F52DFB7A00792DF5547555017F32FE1245
:101693007534432D7F7B007A00792D7538007539B9
:1016A300017F327E00127106D20402198FD2040226
:1016B300198F12661602198FE4F52DAB27AA28A9F4
:1016C3002990000D1236F6245F70030217D21470AE
:1016D3000302180614700302185724036003021848
:1016E30072E4F52DAB27AA28A92975F003E52DA4EB
:1016F300240EF582E435F0F5831236F664807046E5
:10170300AF2D04A807088002C333D8FC789046F6AF
:10171300AB2775F003E52DA4240EF582E435F0F52F
:1017230083E5292582F9E5283583FA1236DDFF9012
:1017330006CAE014FE7401A806088002C333D8FC6D
:101743004F1237238012AF2D7401A807088002C3FC
:1017530033D8FCF4789056F6052DE52D6404708497
:10176300AB27E529240EF9E43528FA7538007539D5
:101773000C7F107E001271061279317E007F407D4E
:10178300007B017A067986123A26753BFF753C0386
:10179300753D11AB27AA28A9299000141236F675B6
:1017A3003E00F53F9000151236F6754000F5419066
:1017B30000161236F6754200F5437B017A067986E8
:1017C3001246BF7B017A06798612756C021872ABDA
:1017D30027AA28A92990000E1236F6FF78956014DF
:1017E300E64402F67897A60790000F1236F678962D
:1017F300F6E48008E654FDF6E47897F6788EF6086A
:10180300F6806CAB27AA28A92990000E1236F6FFA2
:101813007895600BE64401F6788DA607E48008E628
:1018230054FEF6E4788DF67891F608F67B007A009C
:1018330079957538007539017F307E001271067B0A
:10184300007A00798D7538007539017F317E001279
:101853007106801BAB27E529240EF9E43528FA75B8
:1018630038007539067F327E0012710612793AD23A
:101873000402198FE4F52DAB27AA28A92990000C9F
:101883001236F6F52EE4F52DAF2DE52EA8070880C8
:1018930002C313D8FC30E042E52DFD7C002406FF93
:1018A300EC33FEED240EFDEC33FCAB27E5292DF9DB
:1018B300E5283CFA753800753901127106740E2556
:1018C3002DF582E433F583AB27AA28A9291236F62E
:1018D300FF741A252DF8A607D221052DE52DC394F3
:1018E3000340A5D20402198FE4F52DF52DE52D242F
:1018F30006FFE433FE7487252DF9E43401FA7B01F6
:10190300755400755501127534052DE52DC39403E7
:1019130040DBD2048076AB27E529240EF9E4352891
:10192300FA7538007539017F407E00127106AB27C6
:10193300E529240FF9E43528FA7538007539017F54
:10194300417E00127106AB27AA28A92990000E1226
:1019530036F6F56F90000F1236F6F56DD204802C33
:101963007B017A0179877554007555017F407E00AC
:101973001275347B017A0179887554007555017F9E
:10198300417E00127534D2048002C2042004030293
:101993002138E4F52DC204A2029206753301753491
:1019A3000175357975362175370AAB27AA28A92918
:1019B3009000031236F6F538A2059207125AD18F1A
:1019C3002D900321E004F09003A8E52AF0A3E52B72
:1019D300F09003A7E52CF07E007F807D007B017AE9
:1019E300037926123A26AF2D7E0078267C037D01EB
:1019F3007B017A0179791236B79003A6E52DF0E4DD
:101A030090046BF0900470E04401F0E0540144FA58
:101A1300FF90046FE4F0A3EFF0750D04227F06122C
:101A230078427E007F407D007B017A067986123AF8
:101A330026753BFF753C03753D447B017A06798629
:101A43001246BF7B017A06798612756C783C7C015D
:101A53007D017BFF7A1079EB7E007F3D1236B7C2A2
:101A630003C204AB27E5292401F9E43528FAC002AF
:101A7300C001AA28A9299000011236F624FEFDD040
:101A830001D0021275A2AB27AA28A929900001123E
:101A930036F67C0024FFF582EC34FFF5831236F62C
:101AA300B50702D203E5292402F9E43528A801FC8D
:101AB300AD277B017A0679817E007F05123A02EF1A
:101AC3007002D204200303022138200403022138C8
:101AD300AB27E529240FF9E43528FA783C7C017D0E
:101AE300017E007F3D1236B7AB27AA28A9299000B3
:101AF300081236F6245E70030221060460030221F5
:101B03003878E57C107DFF7B017A01793C7E007F8C
:101B130006123A02EF70030220C59003217414F0F9
:101B23007B017D327F0312762678737C047D017BF3
:101B3300017A01793C7E007F061236B790013CE0C2
:101B430030E06290071DE05407FF900142E0540724
:101B53006F6052E0540790071AF0A37402F09007E5
:101B63001EE04401F07E007F407D007B017A067910
:101B730086123A26753BFF753C03753D5F90071D42
:101B8300E0753E005407F53F900142E0540775406D
:101B930000F5417B017A0679861246BF7B017A06FE
:101BA300798612756C90013CE030E26290015EE050
:101BB3007895604DE64402F6E07897F6A3E07896D0
:101BC300F6E4788EF608F6FE7F40FD7B017A06790F
:101BD30086123A26753BFF753C03753D927897E66E
:101BE300753E00F53F7896E6754000F5417B017A36
:101BF3000679861246BF7B017A06798612756C8058
:101C03000DE654FEF6E47897F6788EF608F6900122
:101C13003CE030E72CD21B7E007F407D007B017AC5
:101C2300067986123A26753BFF753C03753DC07BEA
:101C3300017A0679861246BF7B017A067986127588
:101C43006C90013CE030E15FE4F52DFE7F40FD7BCD
:101C5300017A067986123A26753BFF753C03753D7A
:101C6300E3900143E0FFC3135401753E00F53F7B4E
:101C7300017A0679861246BF7B017A067986127548
:101C83006C900143E030E107752D01D2328005E409
:101C9300F52DC2327B007A00792D75380075390134
:101CA3007F057E0012710690013CE020E403021DD3
:101CB3007BE4F52DFE7F40FD7B017A067986123A9F
:101CC30026753BFF753C04753D12900146E0753E59
:101CD30000F53FA3E0754000F541A3E0754200F530
:101CE300437B017A0679861246BF7B017A067986A1
:101CF30012756CE4F52DE52D75F003A42446F582E9
:101D0300E43401F583E06480703EAF2D04A8070836
:101D13008002C333D8FC789046F6E52D75F003A412
:101D23002446F582E43401F583C083C082E0FF904A
:101D330006CAE014FE7401A806088002C333D8FC67
:101D43004FD082D083F08012AF2D7401A807088092
:101D530002C333D8FCF4789056F6052DE52D6408BC
:101D630070947B017A0179467538007539187F10B4
:101D73007E0012710612793190013CE030E3727EED
:101D8300007F407D007B017A067986123A26753BF7
:101D9300FF753C04753D4D900160E0753E00F53FD5
:101DA3007B017A0679861246BF7B017A0679861211
:101DB300756C900160E078956006E64401F6800456
:101DC300E654FEF6900160E0788DF67B007A0079A8
:101DD300957538007539017F307E001271067B00DE
:101DE3007A00798D7538007539017F317E00127163
:101DF3000690013CE020E503021ED7782D7C007D90
:101E0300007BFF7A1179287E007F061236B77E00A9
:101E13007F407D007B017A067986123A26753BFF67
:101E2300753C04753D7D900161E0753E00F53FA36F
:101E3300E0754000F541A3E0754200F5437B017A6C
:101E43000679861246BF7B017A06798612756C7E07
:101E5300007F407D007B017A067986123A26753B26
:101E6300FF753C04753DB9900164E0753E00F53F94
:101E7300A3E0754000F541A3E0754200F5437B0103
:101E83007A0679861246BF7B017A06798612756CCB
:101E9300900161E06005432D7F8003532D80900105
:101EA30062E06005432D808003532D7F900163E042
:101EB300F52EA3E0F52FA3E0F531A3E0F5327B0087
:101EC3007A00792D7538007539067F327E001271DC
:101ED3000612793A90013CE030E6577E007F407D60
:101EE300007B017A067986123A26753BFF753C041E
:101EF300753DCC900167E0753E00F53FA3E075406A
:101F030000F5417B017A0679861246BF7B017A068A
:101F1300798612756C900167E0F56FA3E0F56D7B30
:101F2300017A0179677538007539027F407E0012A6
:101F3300710690013DE030E0517E007F407D007BE3
:101F4300017A067986123A26753BFF753C05753D85
:101F53000B900143E0FFC4135401753E00F53F7B32
:101F6300017A0679861246BF7B017A067986127555
:101F73006C900143E0FFC4135407139229302907DF
:101F8300E49006FFF080031277D190013DE0C31384
:101F930054077003022057E490013BF0FE7F40FD9D
:101FA3007B017A067986123A26753BFF753C0575E7
:101FB3003D4390013DE0FFC3135407753E00F53FD9
:101FC30090016AE0754000F541A3E0754200F543D6
:101FD300A3E0754400F5457B017A0679861246BF76
:101FE3007B017A06798612756CE490013BF09001CF
:101FF3003BE0FFC39403505A74017E00A807088096
:1020030005C333CE33CED8F9FF90013DE0C313545B
:1020130007FDEF5D603490013BE0FD2406FFE433F0
:10202300FE746A2DF9E43401FA7B017538007539C1
:102033000112710690013BE0FF246AF582E434014A
:10204300F583E0FE741A2FF8A60690013BE004F036
:10205300809CD22190013DE020E4030221387E00E0
:102063007F407D007B017A067986123A26753BFF15
:10207300753C05753D9790016DE0753E00F53F7B1E
:10208300017A0679861246BF7B017A067986127534
:102093006C90016DE0900721F07B017A077921753F
:1020A30038007539017F097E00127106900721E01F
:1020B300FF700474F0F022EFF4707A900721740A31
:1020C300F0227E007F067D007B017A047973123A49
:1020D30026301B617E007F407D007B017A06798676
:1020E300123A26753BFF753C05753DCF7B017A0699
:1020F30079861246BF7B017A06798612756CC21BFC
:10210300026616781B7C037D017B017A01793C7E94
:10211300007F06123A02EF60047510A22290054672
:102123007414F07E007F067D007B017A03791B1215
:102133003A267510A12278097C007D017BFF7A1174
:1021430079327E007F991236B778A27C007D017BBD
:10215300FF7A1179CB7E007F991236B79006CFE0D4
:102163007006740AF0125E2FE50D24FE7003022A36
:102173007F147003022A86147003022A8E147003DC
:10218300022A91147003022A9724056003022AA6E7
:10219300900471E0FF30E003022AAD301C46C21CFC
:1021A300C2047F0C7E647DFE7C221254FE12721ADE
:1021B3008E188F197E007F407D007B017A06798619
:1021C300123A26753BFF753C05753DF485183E852F
:1021D300193F7B017A0679861246BF7B017A06791D
:1021E3008612756CE56EB406031277D190047EE017
:1021F3007003756C0190049CE0FF90048DE02FFF49
:10220300E433FE9004ABE07C002FFFEC3EFE787FCE
:10221300F608EFF64E7003022387900322E0700264
:10222300A3E06003022387787FE6FE08E6FF7C00D5
:102233007D03123769787DA60408A605ED4C70432B
:10224300FE7F40FD7B017A067986123A26753BFFB5
:10225300753C06753D0F90048DE0753E00F53F908B
:10226300049CE0754000F5419004ABE0754200F535
:10227300437B017A0679861246BF7B017A0679860B
:1022830012756C787DE6FA08E6FB90048D75F00F05
:10229300123844EA75F00FA42583F583E0701D0618
:1022A300E618700106787DE6FE08E6FF7C007D03F4
:1022B300123769787DA60408A60580C7787DE6FEF7
:1022C30008E6FF90048D75F00F123844EE75F00F99
:1022D300A42583F583E014F090048D75F00FEF12BD
:1022E3003844EE75F00FA42583F583E0FF18E6FC70
:1022F30008E6FD90048075F00F123844EC75F00F7A
:10230300A42583F583EFF090048B75F00FED12385D
:1023130044EC75F00FA42583F583E0FEA3E0FFC032
:1023230006C00790048A75F00FED123844EC75F07F
:102333000FA42583F583E0FDC0057C007D0FAF036B
:10234300AE02123757747F2FF974043EFA7B01787B
:102353007DE6FE08E690048975F00F123844EE75A9
:10236300F00FA42583F583E0F531D005D007D0061F
:102373001273F7901264E493FF740193900322CFD6
:10238300F0A3EFF02020030226F2900479E060032B
:102393000226F2900007F0C220B21DFE7F99FD7B5A
:1023A300017A007909123A2690071DE05407FF903D
:1023B30003B3E054F84FF054E7F0541FF0A22EE4B7
:1023C300335401FFA3E054FE4FFFF0A232E4335431
:1023D3000125E0FEEF54FD4EFFF07895E6FE540232
:1023E300C313540125E025E0FDEF54FB4DFFF0EE50
:1023F300540133333354F8FEEF54F74EFFF0A22D5C
:10240300E4335401C454F0FEEF54EF4EFFF0A2291D
:10241300E4335401C43354E0FEEF54DF4EF0E49050
:102423000000F07B017A0379B7F5547555187F10D6
:10243300FE127534E4900000F0900000E0FFC394B6
:1024430008503574017E00A807088005C333CE33D6
:10245300CED8F9FF7890E6FDEF5D6014900000E0C0
:1024630075F003A424B7F582E43403F5837480F094
:10247300900000E004F080C1788EE6FE08E6FF7C61
:10248300007D3C123769C37897E69F9003CFF078BD
:1024930096E6A3F0788DE6A3F078017C007D017BBE
:1024A300FF7A1279667E007F061236B77B017A00C7
:1024B300790112612D900001E0FF547FFEBE7F0879
:1024C3009003D27401F08005E49003D2F0EFC413BB
:1024D3001313540130E0089003D37401F08005E432
:1024E3009003D3F0900002E0131313541F9003D40E
:1024F300F0900003E09003D5F0900005E013131370
:10250300541F9003D6F0900006E09003D7F07B01B0
:102513007A0379D87554007555027F407E00127591
:1025230034E49003DAF07B017A0379DBF5547555D3
:10253300037F06FE127534E51E24C0700890072140
:10254300E09003DEF0E510245E601104702178ADA5
:102553007C037D017B017A047973800C78AD7C0365
:102563007D017B017A03791B7E007F061236B7E477
:10257300900007F0E0FF04F074092FF582E43400C3
:10258300F58374FAF0900007E0FF04F074092FF567
:1025930082E43400F583E4F0900007E02409F9E4D1
:1025A3003400A801FC7D017B017A0679817E007FDE
:1025B300051236B7900007E02406F0E0FF04F0743C
:1025C300092FF582E43400F583E510F0900007E06D
:1025D300FF04F074092FF582E43400F583E51EF05F
:1025E300E518FF900007E0FE04F074092EF582E47D
:1025F3003400F583EFF0900007E0FE04F074092E39
:10260300F582E43400F583E519F0900007E0FF0458
:10261300F074092FF582E43400F5837407F0900613
:10262300D0E0FF900007E0FE04F074092EF582E489
:102633003400F583EFF09006D1E0FF900007E0FE51
:1026430004F074092EF582E43400F583EFF0900072
:1026530007E02409F9E43400A801FC7D017B017A39
:102663000379AD7E007F3D1236B7900007E0243D2D
:10267300F0E004F0E090000AF07B017A00790A248C
:10268300FEFD1275A2900007E02408F582E43400F1
:10269300F583EFF0E49003A8F0A3F09003A7740D83
:1026A300F07E007F807D007B017A037926123A2633
:1026B300900007E0FF7E0078267C037D017B017A92
:1026C3000079091236B7900007E09003A6F0E49072
:1026D300046BF0900470E04401F0E05401FFEF4418
:1026E300F4FF90046F7401F0A3EFF0750D042290D2
:1026F300071EE0FF30E03AD200C201E4900008F088
:10270300EF54FE90071EF0A3E054E0C4135407C433
:102713003354E0FF9003B3E0541F4FF090031BE0EA
:102723004401F07510A29005467402F0900321F065
:102733002290071CE07003022881E50D6401600309
:102743000228817881F67881E6FFC394034003026F
:10275300288174017E00A807088005C333CE33CED9
:10276300D8F9FF90071CE0FDFBEF5B700302287BA9
:102773007881E6FC7401A804088002C333D8FCF412
:102783005D90071CF090071DE0FFA804088002C3BA
:1027930013D8FC5401900009F07881E6241AF8E676
:1027A300FFD39410500302287BEF94FF40030228C9
:1027B3007BE0FF7881600FE62417F582E43403F5AC
:1027C30083740AF0800DE62417F582E43403F5835D
:1027D300740BF07881E6FE24AAF582E43403F583D2
:1027E300EFF090047A7403F0EE75F00FA4248BF5E8
:1027F30082E43404F58374FFF0A3F0741A2EF8E630
:10280300FFEE75F00FA4248AF582E43404F583EF18
:10281300F090000A7D007881E675F00FA4247FF91B
:10282300740435F0FA7B01AE83AF82123A2690002E
:1028330009E0FF7881E6FE75F00FA4247FF582E4BA
:102843003404F583EFF0EE75F00FA42480F582E4F1
:102853003404F583E4F0EE75F00FA42489F582E4E3
:102863003404F5837402F0EE75F00FA4248DF58221
:10287300E43404F583741EF078810602274920238B
:1028830003022AB4C2239004ACE064FE6003022A6C
:102893005A78AE7C047D017BFF7A11792EFE7F028C
:1028A300123A02EF6003022A5A9004B4E0FDA3E057
:1028B300FEEDFF7884EEF6FE08EFF6A3E008F6A33C
:1028C300E008F6EF4E700F90047E741EF0E56C6422
:1028D300046003E4F56C7E007F997D007B017A0040
:1028E30079A2123A269004C0E0FF7E0078A27C0011
:1028F3007D017B017A0479C11236B77886E6FFD36E
:1029030094105003022A20EF94FF4003022A2090E0
:10291300071DE07882F6E408F690047A7403F07EEB
:10292300007F407D007B017A067986123A26753B4B
:10293300FF753C06753D327886E6753E00F53F909F
:1029430000A2E0754000F541A3E0754200F5437B2A
:10295300017A0679861246BF7B017A06798612755B
:102963006CE47883F67883E6FFC394034003022A7A
:1029730018741A2FF8E6FF7886666003022A12EFAE
:102983007003022A127883E6FF75F00FA4248DF5F5
:1029930082E43404F583E0FE9000A3E0D39E407507
:1029A3007401A807088002C333D8FCF4788256FE6A
:1029B300F69000A2E0FDA807088002C333D8FC4EBE
:1029C30090071AF0A37402F0ED7883600FE62417E2
:1029D300F582E43403F583740AF0800DE62417F5D9
:1029E30082E43403F583740BF07883E6FF75F00F0C
:1029F300A4248DF582E43404F583E4F09000A2E08E
:102A0300FE74AA2FF582E43403F583EEF080067892
:102A1300830602296890071EE04401F0227886E6C7
:102A230024F3601314602724026003022AB47B0199
:102A33007A0079A20270417884E6FC08E6FD4C70C6
:102A4300707B017A0079A208E6F52C02126C7B01F7
:102A53007A0079A2024FF99004ACE064FE705278D8
:102A6300AE7C047D017BFF7A117930FE7F02123A3E
:102A730002EF703D9004B0E0FF02782D756C03D235
:102A8300028005756C02C20202429B024CE6756C21
:102A930005025D23756C0190047BE07014302211F4
:102AA300026616900471E030E00754FEF0A3E0F5EF
:102AB3000D22C0E0C0F0C083C082C0D075D000C07A
:102AC30000C001C002C003C004C005C006C007D3D4
:102AD3009079CF7401939515E4939514400B0515E4
:102AE300E51570020514022B7075140075150005A9
:102AF30016E51E64407067900722E0604A14602464
:102B030014705B900721E0FF900720E0C39F5030D3
:102B13009079D1E493FFE516C39F4042900720E0EC
:102B230004F0803A900720E0D3940040139079D1C9
:102B3300E493FFE5169F4026900720E014F0801EE3
:102B4300900722E4F0801790071DE06402600F9065
:102B5300071A7402F0A3F090071EE04401F0907985
:102B6300D1E493FFE516C39F40037516009079CE19
:102B7300E493FFE513C39F50050513022C27751338
:102B830000900324E07002A3E0600E900325E0248C
:102B9300FFF0900324E034FFF030180A057CE57C55
:102BA300700A057B8006757B00757C00900728E022
:102BB3007002A3E0600E900729E024FFF09007283D
:102BC300E034FFF0900725E07002A3E0600E900769
:102BD30026E024FFF0900725E034FFF09006F3E0B1
:102BE3007002A3E0600E9006F4E024FFF09006F379
:102BF300E034FFF0900322E07002A3E0600E900344
:102C030023E024FFF0900322E034FFF090072AE052
:102C13007002A3E0600E90072BE024FFF090072AD8
:102C2300E034FFF0D39079CC7401939512E493953B
:102C330011400B0512E51270020511022D7A751170
:102C430000751200202019900546E0FF900321E053
:102C5300C39F5005E004F08007900321E4F0D220E5
:102C63007895E6FB30E1597897E6FF7E007C007D9E
:102C73003C123757C3788FE69F18E69E5009080623
:102C8300E618703C068039788E76000876007897CF
:102C93007600EB54FD7895F690071B7402F0789656
:102CA300E690071AF090071EE04401F090031BE042
:102CB3004404F090072CE04401F090072F7402F0D5
:102CC3007895E630E04690071DE06040788DE6FF9A
:102CD3007E007C007D3C123757C37892E69F18E64E
:102CE3009E50090806E61870230680207891760026
:102CF30008760090071B7402F090071AE4F090071F
:102D03001EE04401F090031BE04408F0900479E0D6
:102D1300600214F090031AE0600214F0789406E65F
:102D2300187001069006FFE06005302A0214F09047
:102D330006CFE0600214F09006F8E0600214F09011
:102D4300047DE0600214F090047AE0600214F090D5
:102D53000730E0600214F0900706E0600214F09080
:102D6300047BE0600214F09006F1E0600214F0903E
:102D7300047EE0600214F0301F6AE50EC3940A502B
:102D830004050E805F20235AE50FC394054053D2F8
:102D9300237E007F997DFF7B017A0479AC123A266A
:102DA30078AC7C047D017B017A0579477E007F99AD
:102DB3001236B7900545E50FF09004ADE02405FF0A
:102DC300E433FEE50F6F7001EE601790072CE044CB
:102DD30001F0900548E090072DF0A3E50FF0A374F0
:102DE30001F0C21F900718E0FFA3E0C39F5006E065
:102DF30004F0022EAE900719E4F09006F2E024FEF0
:102E0300604D147003022E9B24026003022EAC90CB
:102E13000700E05407900718F0FD900701E075F0F4
:102E230014A4FFAEF07C00123769900707EEF0A3FD
:102E3300EFF0900702E0541F25E090070BF0900796
:102E430009E4F0A3F0D2319006F27402F0805C90B2
:102E5300070BE0603B900707E0FEA3E0FFC390078A
:102E63000AE09F900709E09E5017A3E004F0700664
:102E7300900709E004F0303104B2B2802ED2B28060
:102E83002A900709E4F0A3F0B231A3E014F0801B09
:102E93009006F27403F08013900709E4F0A3F0D2D4
:102EA30031D2B29006F2F08002D2B29079D2E4939A
:102EB300FFE517D39F5003022F777517009006F590
:102EC300E0541FFF90070CE054E04FF09006F6E04B
:102ED300541FFF90070DE054E04FF09006F7E054C5
:102EE3001FFF90070EE054E04FF09006F9E0541FE7
:102EF300FF90070FE054E04FF09006FAE0541FFFF5
:102F0300900710E054E04FF09006FBE0541FFF9051
:102F13000711E054E04FF09006FCE0541FFF9007C8
:102F230012E054E04FF09006FDE0541FFF900713AA
:102F3300E054E04FF09006FEE0541FFF900714E0CA
:102F430054E04FF0900703E0541FFF900715E0543F
:102F5300E04FF0900704E0541FFF900716E054E0A1
:102F63004FF0900705E0541FFF900717E054E04F20
:102F7300F00231070517E517D3940050030230011F
:102F8300E517D39420507790070CE0FF541F60138C
:102F9300E51D30E00EEF54E0FEEF14541F4EF0C277
:102FA300A08002D2A090070FE0FF541F6013E51D1D
:102FB30030E10EEF54E0FEEF14541F4EF0C2A68032
:102FC30002D2A6900712E0FF541F6013E51D30E202
:102FD3000EEF54E0FEEF14541F4EF0C2818002D274
:102FE30081900715E0FF541F600FEF54E0FEEF14CC
:102FF300541F4EF0C2CD023107D2CD023107E5177F
:10300300D39420407EE517D39440507790070DE08A
:10301300FF541F6013E51D30E00EEF54E0FEEF1484
:10302300541F4EF0C2A18002D2A1900710E0FF54BA
:103033001F6013E51D30E10EEF54E0FEEF14541F43
:103043004EF0C2A58002D2A5900713E0FF541F6083
:1030530013E51D30E20EEF54E0FEEF14541F4EF063
:10306300C2808002D280900716E0FF541F600FEFEA
:1030730054E0FEEF14541F4EF0C2CC023107D2CC01
:10308300023107E517D39440407AE517D394605093
:103093007390070EE0FF541F6013E51D30E00EEF41
:1030A30054E0FEEF14541F4EF0C2A28002D2A2904D
:1030B3000711E0FF541F6013E51D30E10EEF54E0EC
:1030C300FEEF14541F4EF0C2A48002D2A490071442
:1030D300E0FF541F6013E51D30E20EEF54E0FEEFF6
:1030E30014541F4EF0C2A78002D2A7900717E0FF27
:1030F300541F600EEF54E0FEEF14541F4EF0C283D2
:103103008002D283D007D006D005D004D003D002EA
:10311300D001D000D0D0D082D083D0F0D0E0320222
:103123001100000113000214000001160001170032
:1031330043070C00000043070F0000004307120081
:103143000000430715000000410718034107190059
:1031530042070701F4420709000041070B08C1B108
:10316300011E40011D01031A000000021800006047
:103173004006860000000000000000000000000080
:10318300000000000000000000000000000000003C
:10319300000000000000000000000000000000002C
:1031A300000000000000000000000000000000001C
:1031B300000000460680000000000000460679017A
:1031C300010101010141067F00C1324306F5000000
:1031D300004306F90000004306FC00000043070318
:1031E300000000016F08016D05C1A9016E00016CAB
:1031F300004206F300004106FF3CC12A4106F800E5
:10320300410706004106F1004307000000004106A4
:10321300F20002560000C1244106F00001581FC10C
:10322300A5015900015A00C1A6015B00015C000120
:103233005D00015E00015F00016000C1A701610044
:10324300016200016300016400016500C128016699
:1032530000016700016800016900016A00016B0059
:1032630044072C00000000608403260000000000D7
:10327300000000000000000000000000000000004B
:10328300000000000000000000000000000000003B
:10329300000000000000000000000000000000002B
:1032A300000000000000000000000000000000001B
:1032B300000000000000000000000000000000000B
:1032C30000000000000000000000000000000000FB
:1032D30000000000000000000000000000000000EB
:1032E300000000000000000000000000000000607B
:1032F3002D047F000000000000000000000000001B
:1033030000000000000000000000000000000000BA
:1033130000000000000000000000000000000000AA
:103323004203220000608403EB0000000000000061
:10333300000000000000000000000000000000008A
:10334300000000000000000000000000000000007A
:10335300000000000000000000000000000000006A
:10336300000000000000000000000000000000005A
:10337300000000000000000000000000000000004A
:10338300000000000000000000000000000000003A
:10339300000000000000000000000000000000002A
:1033A3000000000000000000000000000042046F65
:1033B3000000603D03AD00000000000000000000BD
:1033C30000000000000000000000000000000000FA
:1033D30000000000000000000000000000000000EA
:1033E30000000000000000000000000000000000DA
:1033F30000000046047300000000000046031B00A9
:1034030000000000000110A14204710000C121C1AD
:103413001E420324000042047C0000C1204103211A
:1034230000410546144104790041047A034303171C
:103433000000004303AA0000004103EA0041031A0D
:1034430000C123C11F010E00010F00609A04AC00EC
:103453000000000000000000000000000000000069
:103463000000000000000000000000000000000059
:103473000000000000000000000000000000000049
:103483000000000000000000000000000000000039
:103493000000000000000000000000000000000029
:1034A3000000000000000000000000000000000019
:1034B3000000000000000000000000000000000009
:1034C30000000000000000000000000000000000F9
:1034D30000000000000000000000000000000000E9
:1034E300000000000000000000010D0041047E1EEA
:1034F30041047B00C1224103130041031400410333
:103503001500410312FF010800010900010A0041EF
:10351300031600020B0000C11BC11DC19C011F004B
:10352300C199C118027B0000420728000042072509
:10353300000041072701C11AC11742072A0000C131
:103543000FC110C111017700017800410724000168
:103553007900C112C113C114017A0041072302414A
:10356300071D00430720000A0042071A0003410712
:103573001C00C12F42071E0000C1304706C80000CF
:1035830000000000004106CF0A4106D0084106D1E1
:103593000002930000019000C12EC12D019500028D
:1035A3008E000001970001960002910000018D003A
:1035B3005806D800000000000000000000000000D2
:1035C30000000000000000000000004606D20000DA
:1035D30000000000028B00004206C60000C12B4120
:1035E30007300000E709F608DFFA8046E709F2082A
:1035F300DFFA803E88828C83E709F0A3DFFA80320A
:10360300E309F608DFFA8078E309F208DFFA80704D
:1036130088828C83E309F0A3DFFA806489828A833A
:10362300E0A3F608DFFA805889828A83E0A3F208D0
:10363300DFFA804C80D280FA80C680D4806980F221
:103643008033801080A680EA809A80A880DA80E2A6
:1036530080CA803389828A83ECFAE493A3C8C58243
:10366300C8CCC583CCF0A3C8C582C8CCC583CCDF86
:10367300E9DEE7800D89828A83E493A3F608DFF904
:10368300ECFAA9F0EDFB2289828A83ECFAE0A3C865
:10369300C582C8CCC583CCF0A3C8C582C8CCC583BA
:1036A300CCDFEADEE880DB89828A83E493A3F20835
:1036B300DFF980CC88F0EF60010E4E60C388F0ED37
:1036C3002402B4040050B9F582EB2402B404005080
:1036D300AF232345822390363773BB010689828A41
:1036E30083E0225002E722BBFE02E32289828A831F
:1036F300E49322BB010CE58229F582E5833AF58345
:10370300E0225006E92582F8E622BBFE06E925827F
:10371300F8E222E58229F582E5833AF583E49322F0
:10372300BB010689828A83F0225002F722BBFE0185
:10373300F322F8BB010DE58229F582E5833AF5838F
:10374300E8F0225006E92582C8F622BBFE05E925EA
:1037530082C8F222EF8DF0A4A8F0CF8CF0A428CE7B
:103763008DF0A42EFE22BC000BBE0029EF8DF08449
:10377300FFADF022E4CCF875F008EF2FFFEE33FE37
:10378300EC33FCEE9DEC984005FCEE9DFE0FD5F06E
:10379300E9E4CEFD22EDF8F5F0EE8420D21CFEAD77
:1037A300F075F008EF2FFFED33FD4007985006D575
:1037B300F0F222C398FD0FD5F0EA22E88FF0A4CCF3
:1037C3008BF0A42CFCE98EF0A42CFC8AF0EDA42C45
:1037D300FCEA8EF0A4CDA8F08BF0A42DCC3825F014
:1037E300FDE98FF0A42CCD35F0FCEB8EF0A4FEA9FF
:1037F300F0EB8FF0A4CFC5F02ECD39FEE43CFCEA0C
:10380300A42DCE35F0FDE43CFC22EB9FF5F0EA9EBF
:1038130042F0E99D42F0E89C45F022E8600FECC3DA
:1038230013FCED13FDEE13FEEF13FFD8F122E86056
:103833000FEFC333FFEE33FEED33FDEC33FCD8F172
:1038430022A42582F582E5F03583F58322D083D047
:1038530082F8E4937012740193700DA3A393F87428
:103863000193F5828883E4737402936860EFA3A3E2
:10387300A380DF8A838982E473E3F5F009E208B564
:10388300F06BDFF58067E3F5F009E608B5F05EDF7E
:10389300F5805A87F009E608B5F052DFF6804E87C7
:1038A300F009E208B5F046DFF6804288828C838710
:1038B300F009E0A3B5F036DFF6803288828C838787
:1038C300F009E493A3B5F025DFF5802188828C838A
:1038D300E3F5F009E0A3B5F014DFF5801088828CDE
:1038E30083E3F5F009E493A3B5F002DFF40239AB07
:1038F300808780E9809080D4803E8015806E807EB2
:10390300809D80B7808D80A380518074803C023974
:10391300B789828A83ECFAE493F5F0A3C8C582C819
:10392300CCC583CCE493A3C8C582C8CCC583CCB52E
:10393300F076DFE3DEE1807089828A83E493F5F039
:10394300A3E208B5F062DFF4805E89828A83E0F542
:10395300F0A3E608B5F051DFF5804D89828A83E054
:10396300F5F0A3E208B5F040DFF5803C89828A8355
:10397300E493F5F0A3E608B5F02EDFF4802A800285
:10398300805789828A83ECFAE493F5F0A3C8C58251
:10399300C8CCC583CCE0A3C8C582C8CCC583CCB58D
:1039A300F006DFE4DEE280007FFFB5F0020F224085
:1039B300027F012289828A83ECFAE0F5F0A3C8C56D
:1039C30082C8CCC583CCE0A3C8C582C8CCC583CC90
:1039D300B5F0D5DFE5DEE380CF89828A83ECFAE0B8
:1039E300F5F0A3C8C582C8CCC583CCE493A3C8C5EE
:1039F30082C8CCC583CCB5F0AFDFE4DEE280A98812
:103A0300F0EF60010E4E60ABED2402B40400509859
:103A1300F582EB2402B40400508E232345822390C5
:103A230038F373EF4E6012EF60010EEDBB010B89AB
:103A3300828A83F0A3DFFCDEFA2289F05007F709BC
:103A4300DFFCA9F022BBFEFCF309DFFCA9F022FA9C
:103A5300E6FB0808E6F925F0F618E6CA3AF622E48A
:103A6300F5279062FD93FE740193FFC39006C7E0B0
:103A73009F9006C6E09E500EA3E004F070239006CC
:103A8300C6E004F0801BE49006C6F0A3F078287C1F
:103A930000FD7B017A0679C8FE7F071236B7126AEA
:103AA30005202B3AD22B7B007A007995755400754B
:103AB30055017F307E001275347B007A00798D7555
:103AC30054007555017F317E001275347B017A06EF
:103AD30079D812603E7B017A0679D212612D7893F0
:103AE300E6FA08E6FB7C007D3CFFAE0212376990E4
:103AF30006CDEFF07C007D3CAF03AE02123769A325
:103B0300EDF0C37894E6941018E6940E402DE47813
:103B130093F608F69006CCE0C394184004E4F080D2
:103B2300069006CCE004F09006CAE0D39407400563
:103B33007401F080069006CAE004F09006D2E054C7
:103B43007FFFBF7F05D22D023C1CC22C9006D3E021
:103B5300131313541FFF7E007C007D3C123757A3C1
:103B6300E02FFFEC3E900000F0A3EFF09006D6E0CC
:103B7300131313541FFF7E00123757A3E02FFFECDC
:103B83003E900002F0FAA3EFF0FB9006CCE0FF7E3C
:103B930000123757A3E02FFFEC3E900004F0A3EF91
:103BA300F0C3900001E09B900000E09A5004C22C07
:103BB3008002D22C9006D2E030E75C202C2C9000BF
:103BC30000E0FEA3E0FF900004E0FCA3E0FDC39F40
:103BD300EC9E4012900002E0FEA3E0FFED9FEC9EFE
:103BE3005004D22D8033C22D802F900000E0FEA31D
:103BF300E0FF900004E0FCA3E0FDC39FEC9E500FA8
:103C0300900002E0FEA3E0FFC3ED9FEC9E5004D2C0
:103C13002D8006C22D8002C22DE4F527E52775F01D
:103C230003A424D8F582E43406F583E0C413131304
:103C3300540130E004D22E8009C22E0527E527B4B3
:103C430008DA202E03023EC0E4F527E52775F003CA
:103C5300A424D8F582E43406F583E0547FFD90066E
:103C6300CAE0FF1275F64003023EB4E52775F00380
:103C7300A424D8F582E43406F583E0C41313135463
:103C83000120E003023EB4E52775F003A424D9F52F
:103C930082E43406F583E0131313541FFF7E007C84
:103CA300007D3C123757E52775F003A424DAF5822B
:103CB300E43406F583E02FFBEC3EFA9006CCE0FFFC
:103CC3007E00123757A3E0F92FFFEC3EFEEF6B7037
:103CD30002EE6A602C74017E00A827088005C333B6
:103CE300CE33CED8F9FF788BE6FC08E6FDEE5CFA1E
:103CF300EF5D4A600CEFF4FFEEF45C18F6ED5F083D
:103D0300F6E52775F003A424D9F582E43406F58398
:103D1300E0131313541FFF7E007C007D3C123757C2
:103D2300E52775F003A424DAF582E43406F583E08D
:103D33002FFBEC3EFA9006CCE0FF7E00123757E9EA
:103D43002FFFEC3EFEEF6B7002EE6A6003023E2033
:103D5300047E00A827088005C333CE33CED8F9FFED
:103D6300EE788B56FEEF08564E6003023E20FE7F30
:103D730040FD7B017A067986123A26753BFF753C36
:103D830062753D74753E0085273F7B017A0679860F
:103D93001246BF7B017A06798612756C74017E0028
:103DA300A827088005C333CE33CED8F9FF788BE636
:103DB3004EF608E64FF67890E6F9FDEF5D6031AF19
:103DC300277401A807088002C333D8FCF4597890FC
:103DD300F6E52775F003A42410FFE435F0FE7BFF1E
:103DE3007A6279FF753800753901127106127931DB
:103DF30090071B7402F0E52775F003A424D9F5821C
:103E0300E43406F583E0540790071AF090071EE0A8
:103E13004401F090031BE04410F0023EB4E5277523
:103E2300F003A424D9F582E43406F583E0131313D5
:103E3300541FFF7E007C007D3C123757E52775F049
:103E430003A424DAF582E43406F583E02FFBEC3E89
:103E5300FA9006CCE0FF7E00123757A3E02FFFEC69
:103E63003EFED3EF9BEE9A404874017E00A82708DC
:103E73008005C333CE33CED8F9FF7890E6FDFBEF50
:103E83005B602EAF277401A807088002C333D8FCF8
:103E9300F45D7890F6E52775F003A42410FFE4356C
:103EA300F0FE7BFF7A637900753800753901127172
:103EB300060527E527C394085003023C4E22302D04
:103EC30011E56E64036006E56E64027031756E047D
:103ED300802CE56EB404031277D1E56EB40206209C
:103EE3002A03756E039006FFE07013E56EB4030EAC
:103EF300302A0B3029087F0F126F61756E02E56E51
:103F030014B408004003024297903F1A75F003A4CB
:103F1300C58325F0C58373023F32023F35023F3824
:103F2300023F3802423202425902426102425E02B9
:103F330077830249BF90071DE0FFF527E51EB439DB
:103F43000DEF54014227E52725E0F527803FE51EC5
:103F5300B43A1690071DE0FF54024227E52725E0F7
:103F6300F527EF540142278024E51EB43B02800B62
:103F7300E51E64406005E51EB43D0890071DE0F5AD
:103F830027800AE51EB43C051278A78F27E51E2477
:103F9300C07076E52724FC602724037049126C4E19
:103FA300907200E493541FFDA3E493541FFBA3E416
:103FB30093541FF52B7F01126C659072090241889F
:103FC300907209126C51907200E493541FFDA3E4A4
:103FD30093541FFBA3E493541FF52B7F01126C65CD
:103FE300907200024188126C4E907209E493541F40
:103FF300FDA3E493541FFBA3E493541FF52B7F010C
:10400300126C65907200024188E51D30E06AE52775
:1040130030E02CE56F75F003A424F1F582E43471EC
:10402300F583E493541FFDE56F75F003A424F2F5C3
:1040330082E43471F583E493541FFBE56F802AE532
:104043006D75F003A424F1F582E43471F583E493F0
:10405300541FFDE56D75F003A424F2F582E4347179
:10406300F583E493541FFBE56D75F003A424F3F586
:1040730082E43471F583800F9071EEE493541FFD55
:10408300A3E493541FFBA3126C5DE51D30E16AE5C5
:104093002730E12CE56F75F003A424F1F582E434B5
:1040A30071F583E493541FFDE56F75F003A424F2C7
:1040B300F582E43471F583E493541FFBE56F802AA2
:1040C300E56D75F003A424F1F582E43471F583E41E
:1040D30093541FFDE56D75F003A424F2F582E434D7
:1040E30071F583E493541FFBE56D75F003A424F38A
:1040F300F582E43471F583800F9071EEE493541FDD
:10410300FDA3E493541FFBA3E493541FF52B7F01FA
:10411300126C65E51D30E26AE52730E22CE56F7528
:10412300F003A424F1F582E43471F583E493541F7E
:10413300FDE56F75F003A424F2F582E43471F58391
:10414300E493541FFBE56F802AE56D75F003A42407
:10415300F1F582E43471F583E493541FFDE56D7545
:10416300F003A424F2F582E43471F583E493541F3D
:10417300FBE56D75F003A424F3F582E43471F58354
:10418300800F9071EEE493541FFDA3E493541FFB3F
:10419300A3E493541FF52B7F02126C65E56CB40402
:1041A300089006F8E07002F56CD390720F740193D7
:1041B3009557E493955640090557E5577002055600
:1041C30022B224E4F556F557E56C14602714602CED
:1041D30014603214600E14603E2405704EE4F52B17
:1041E3007B1E800DE4302406F52B7B1E8003F52B0C
:1041F300FBFD8021E4F52BFB7D1E8019E4F52B7B71
:104203000A7D1E8021E4302408F52B7B0A7D1E8065
:1042130004F52BFBFD800FE4302407F52BFB7D1EFB
:104223008004F52BFBFD7F03026C65E4F56C2290A3
:1042330006F8E060047F01801F1277D17E007F4083
:104243007D007B017A067986123A26753BFF753C21
:1042530071753DC7802CE4FF0252AE02682F9007B0
:1042630006E060030272BD1277D17E007F407D00BD
:104273007B017A067986123A26753BFF753C717588
:104283003DD77B017A0679861246BF7B017A067990
:104293008602756C756E0322783B7C017D017BFF82
:1042A3007A0D79C57E007F401236B790017B740288
:1042B300F0E4F527900471E0FF30E01354FEF0A31F
:1042C300E0F50DE4900313F0A3F0A3F0D2A3229042
:1042D3000313E0D3940F4045E4F0A3F0A3F0D2A37B
:1042E3009006CF740AF0750D01756E0312721A8E63
:1042F300188F197E007F407D007B017A0679861234
:104303003A26753BFF753C00753DE87B017A0679DB
:10431300861246BF7B017A06798602756C200209F4
:10432300900313E070037407F0900313E0FF640736
:104333006003EF70069006CF740AF0900312E06FEB
:104343006042A3E0900312F07E007F407D007B017A
:104353007A067986123A26753BFF753C01753D0E48
:10436300900312E0753E00F53FA202E4337540006E
:10437300F5417B017A0679861246BF7B017A06797D
:104383008612756C900313E0FF6003024411EF6023
:1043930003024662900314E014601714603424028D
:1043A3006003024662C2A3900324E4F0A374C8022C
:1043B30045F6900324E07002A3E06003024662D254
:1043C300A39003247417F0A37470F0900314740281
:1043D300F022900324E07002A3E07004900314F031
:1043E300202303024662C223754AFF754B08754CAE
:1043F300BD9008FDE493F54D7B017A0479AC7D997A
:10440300126DE8EA494B7003024662024655900377
:1044130013E0FFD394005003024515EF94094003C2
:10442300024515A3E01470030244C104600302466D
:1044330062900313E0FF90017BB40705740CF080D6
:10444300037402F090017BE0FE900315E0D39E40DD
:10445300030245B7EF75F086A4FFAEF0247AF97432
:10446300083E7549FFF54A894B754C02747C2FF958
:1044730074083E754DFFF54E894F900313E075F0B8
:1044830086A424BCF582E5F03408F5831264988F82
:10449300277B017A01793BAD271276BD900313E0A8
:1044A30075F086A424FEF582E5F03408F583E493E1
:1044B300FF740193900324CFF0A3EF0245F690031A
:1044C30024E07002A3E0700302460820230302469F
:1044D30062C223900313E075F086A424BDF9740827
:1044E30035F0754AFFF54B894CE075F086A424FD41
:1044F300F582E5F03408F583E493F54D7B017A0406
:1045030079AC7D99126DE8EA494B70030246620269
:104513004655900313E0C39409500302466278287A
:104523007C007D007BFF7A0E79057E007F101236BA
:10453300B7900D72E493FF7E0078287C007D007BAA
:10454300FF7A0D79321236B7900313E0FDC3940C52
:10455300502EE0FF75F003A424A1F582E4340DF599
:1045630083E493F528EF75F003A424A2F582E434E1
:104573000DF583E493FE740193F52BEEF52C801E69
:10458300740E2DF8E6FFC39410500302465CEF94BB
:10459300FF400302465C8F28752B0DE4F52C900336
:1045A30014E0146056046003024662900315E0D3DE
:1045B30094024007E4F0900313F0227549FF754A13
:1045C3000D754B30754C02754D00754E00754F28B7
:1045D300900D721264988F277B017A01793BAD2786
:1045E3001276BD900DB4E493FF740193900324CF2E
:1045F300F0A3EFF09003147401F022900324E07011
:1046030002A3E0700C900315E004F0E4900314F0AF
:104613002230234BC223754AFF754B0D754C7390A3
:104623000DB3E493F54D7B017A0479AC7D99126D5A
:10463300E8EA494B701C754AFF754B0D754CB6750E
:104643004D067B017A0479AC7D99126DE8EA494BFA
:10465300600DE4900314F0A3F0900313E004F02240
:10466300E547243BF8E60547227838300D02783BCE
:10467300E475F001123A520236DD2006EB7F2ED2AA
:10468300068018EF540F2490D43440D4FF300A0B23
:10469300EF24BFB41A0050032461FFE548600215FC
:1046A30048054BE54B7002054A300D0D7838E4752B
:1046B300F001123A52EF0237230276707403D20DDF
:1046C3008003E4C20DF5478B388A39893AE4F5480B
:1046D300F54AF54BE54860077F2012469E80F57545
:1046E30049FFC207C206C208C209C20BC20CC20EEE
:1046F30012466CFF700D300D057F001246AFAF4BB5
:10470300AE4A22B4255FC2D5C20A12466CFF24D03A
:10471300B40A00501A75F00A784830D50508B6FF78
:104723000106C6A426F620D5047002D20980D92436
:10473300CFB41A00EF5004C2E5D20A0248AFD20741
:1047430080C6D20680C0D20880BCD2D580BAD20B34
:1047530080B47F2012469E2008077401B5480040AC
:10476300F1124663FF12469E0246D7D20ED20C8048
:1047730095124663FB124663FA124663F94A4B707D
:104783000679807A497BFF20082EE548602A7E005F
:104793008E827583001236F660060EEE654970F060
:1047A300C2D5EBC0E0EAC0E0E9C0E0EE1248F6D0C3
:1047B300E0F9D0E0FAD0E0FB1236DDFF60AAEBC0EF
:1047C300E0EAC0E0E9C0E012469ED0E02401F9D05F
:1047D300E03400FAD0E0FBE5490460DCD549D98038
:1047E300877BFF7A4879F2D208809C79108002791E
:1047F30008C20CC20E8008D2D5790A8004790AC295
:10480300D5E549047002F549E4FAFDFEFF1246635B
:10481300FC7B08200713124663FD7B1030060A1247
:104823004663FE124663FF7B20EC3382D592D5505C
:1048330013C3E43006069FFFE49EFEE42007039DB6
:10484300FDE49CFCE4CBF8C207EC700CCFCECDCCDE
:10485300E824F8F870F38017C3EF33FFEE33FEED6F
:1048630033FDEC33FCEB33FB994002FB0FD8E9EB50
:10487300300705F8D0E0C448B207C0E00AEC4D4E5B
:104883004F78207B0070C2EAB5490040BCC0E012FB
:1048930048F8D0F0D0E0200704C4C0E0C4B207C099
:1048A300F0124687D0F0D5F0EB0246D712385047C6
:1048B300745347EE5847454C47414247F24F47FA36
:1048C3004447FA49475A4348005547E44647E445B5
:1048D30047E44749A05047492D474D2E47702B4782
:1048E3005123476E2049892A470948000047683FFA
:1048F3003F3F00790AA2D5200914300B09B91002F1
:104903000404B9080104A2D5200C025001042008B4
:10491300689208B548005034C0E07F203009197F01
:1049230030A208720C720B500F12494FC208C20C0E
:10493300C20BC20E7F30800F300B03E9C0E012467A
:104943009E300B03D0E0F9D0E0B548CC300B177F95
:1049530030B9100C12469E7F58300A077F788003C7
:10496300B9080312469E3008057F2D02469E7F201C
:10497300200EF87F2B200CF322920880CF286E752F
:104983006C6C2900D2071246633007F8C2077848D7
:1049930030D50108F60247092D50434958124663A2
:1049A3002403B405004001E490499B9312468F749D
:1049B3003A12468FD2097548040247EE9006F3E097
:1049C300FEA3E04E707B9006F3F0A3740CF090729C
:1049D30019E493FFE566D39F401CE4F566E567D3CE
:1049E30094074005E4F56780020567E4F56BF56A13
:1049F300F569F568804B0566E566C394004009E5F3
:104A03006694205003856668E566C39420400CE5F0
:104A13006694405006E56624E0F569E566C3944074
:104A2300400CE56694605006E56624C0F56AE566C9
:104A3300C39460400CE56694805006E56624A0F5B7
:104A43006BE567B407004003024CE5904A55F8282C
:104A53002873024A6A024AA5024AD1024B27024B33
:104A630061024B9F024C1DE56875F00584541FFFDE
:104A7300900704E054E04FF0E56975F00584541F96
:104A8300FF9006FDE054E04FF0E56A75F0058454AD
:104A93001FFF9006FAE054E04FF0E56B75F00584D4
:104AA3008079E568541FFF900703E054E04FF0E579
:104AB30069541FFF9006FCE054E04FF0E56A541F71
:104AC300FF9006F9E054E04FF0E56B024B96E56882
:104AD30075F00584FFC374069F541FFF900704E01D
:104AE30054E04FF0E56975F00584FFC374069F54E5
:104AF3001FFF9006FDE054E04FF0E56A75F0058472
:104B0300FFC374069F541FFF9006FAE054E04FF072
:104B1300E56B75F00584FFC374069F541FFF900671
:104B2300F6024CE0E568C313541FFF900705E054F9
:104B3300E04FF0E569C313541FFF9006FEE054E015
:104B43004FF0E56AC313541FFF9006FBE054E04F98
:104B5300F0E56BC313541FFF9006F7024CE0C374D8
:104B63001F9568541FFF900703E054E04FF0C37490
:104B73001F9569541FFF9006FCE054E04FF0C37487
:104B83001F956A541FFF9006F9E054E04FF0C37479
:104B93001F956B541FFF9006F5024CE0E56875F016
:104BA3000384541FFF900704E054E04FF0E5697558
:104BB300F00384541FFF9006FDE054E04FF0E56AD4
:104BC30075F00384541FFF9006FAE054E04FF0E5BC
:104BD3006B75F00384541FFF9006F6E054E04FF02A
:104BE300E568C313541FFF900703E054E04FF0E55B
:104BF30069C313541FFF9006FCE054E04FF0E56ACD
:104C0300C313541FFF9006F9E054E04FF0E56BC364
:104C130013541FFF9006F5024CE0E568C313FFC36E
:104C2300740F9F541FFD900705E054E04DF0E569B4
:104C3300C313FFC3740F9F541FFC9006FEE054E0A0
:104C43004CF0E56AC313FFC3740F9F541FFB900618
:104C5300FBE054E04BF0E56BC313FFC3740F9F54A9
:104C63001FFF9006F7E054E04FF0E56875F003840A
:104C7300FEC3740A9E541FFE900704E054E04EF0F6
:104C8300E56975F00384FEC3740A9E541FFE900603
:104C9300FDE054E04EF0E56A75F00384FEC3740A48
:104CA3009E541FFE9006FAE054E04EF0E56B75F05B
:104CB3000384FEC3740A9E541FFE9006F6E054E07C
:104CC3004EF0900703E054E04DF09006FCE054E012
:104CD3004CF09006F9E054E04BF09006F5E054E018
:104CE3004FF022783C7C017D017BFF7A0F79497E6E
:104CF300007F991236B7E4F52778D57C017D017BD7
:104D0300FF7A0F79E2FE7F401236B7E4F52878295F
:104D13007C00FD7BFF7A107922FE7F031236B79069
:104D23000471E0FF30E00D54FEF0A3E0F50DE4F56F
:104D330009F50A22E4F5299003A7E0F52A752B0D5E
:104D43007549FF754A10754B25754C02754D0075F5
:104D53004E00754F297550037B017A0179D5126492
:104D6300A28F289003A8E0FCA3E0FD9003A7E0F541
:104D730037753801753903753A269003A6E0F53B7C
:104D83007B017A01793C126D618F27E50914604B31
:104D9300147003024E9A147003024F7314700302CB
:104DA3004F8224046003024FF5E50AD394034009BC
:104DB300750801E4F50A024FF5D2A3900470E020D0
:104DC300E00B7B017A01793CAD271276BD90032479
:104DD3007403F0A374E8F07509012290046FE0C333
:104DE30013FEA3E013FFEE547FFCAD07900324E012
:104DF300FAA3E0FBFFAE0212376990013BEFF0EB41
:104E03004A7006050AF509805D900470E030E019E8
:104E130090013BE0FF900316E06F600DEFF07B0124
:104E23007A01793CAD271276BD202303024FF8C2E5
:104E330023754A01754B01754CD585284D7B017A45
:104E43000479AC7D99126DE8EA494B601E90046BBE
:104E5300E07005750903800D750902900324740140
:104E6300F0A374F4F0E4900316F02278AE7C047D92
:104E7300017BFF7A1079257E007F02123A02EF60F0
:104E830003024FF89004B0E0F508900470E030E0BE
:104E930003024FF8024FF5900324E07002A3E07081
:104EA30005050AF50922202303024FF89004B4E014
:104EB300FDA3E07888F6ED08F69004B7E008F6C2A3
:104EC300239004ACE064FE60337E007F407D007B72
:104ED300017A067986123A26753BFF753C01753DCA
:104EE300489004ACE0753E00F53F7B017A06798675
:104EF3001246BF7B017A06798612756C90046BE0CB
:104F0300FF7E0078C17C047D017B017A0379EB127B
:104F13003A02EF701F7888E6FE08E6FF90046DE022
:104F2300B50611A3E0B5070C90046CE008667004A5
:104F3300750903227E007F407D007B017A06798616
:104F4300123A26753BFF753C01753D5D788AE6751F
:104F53003E00F53F7888E6FE08E68E40F5417B018A
:104F63007A0679861246BF7B017A06798602756CCA
:104F7300302107C221750D038061750D01805C30FE
:104F83002107C221750D038003750D01E508604BF0
:104F93007E007F407D007B017A067986123A267572
:104FA3003BFF753C01753D83753E0085083F7B01E2
:104FB3007A0679861246BF7B017A06798612756C6A
:104FC300302A02C22AE5082433600A24E460062456
:104FD300E970028000756C01E4F508E4F50AF5094F
:104FE300900470E054FEF0E490046FF0A3E05401E9
:104FF300F022750904228B278A28892978BB7C0132
:105003007D017BFF7A10792A7E007F221236B7ABAF
:1050130027AA28A9291236DD9001BBF090000112BE
:1050230036F6FF7E00E92402F9E43AFA78BC7C0103
:105033007D011236B7AB27AA28A9299000011236A1
:10504300F69001DCF09001BBE024976064147003D8
:105053000251FA24FE7003025255147003025229BE
:10506300240560030252ADC202D2049001BCE0F5F4
:105073002E1270A492029001BCE0FF12782D7E00E4
:105083007F407D007B017A067986123A26753BFFC5
:10509300753C02753D249001BCE0753E00F53F7BF5
:1050A300017A0679861246BF7B017A067986025118
:1050B300F7C202C203E4F52DF52CF52BF52A900176
:1050C300BCE0FFE52D4FF52DE52CF52CE52BF52B5D
:1050D300E52AF52AA3E0FFE4FCFDFE780812383147
:1050E300E52D4FF52DE52C4EF52CE52B4DF52BE558
:1050F3002A4CF52AA3E0FFE4FCFDFE7810123831B8
:10510300E52D4FF52DE52C4EF52CE52B4DF52BE537
:105113002A4CF52AA3E0FFE4FCFDFE78181238318F
:10512300E52D4FF52DE52C4EF52CE52B4DF52BE517
:105133002A4CF52AA3E0FF9006D0E0B5070C9001B6
:10514300C1E0FE9006D1E06E60339006D0EFF090A0
:1051530001C1E09006D1F07B017A0679D075380061
:105163007539017F037E001271067B017A0679D1BE
:105173007538007539017F047E001271069001C2F3
:10518300E06002D2037F807E437D6D7C38AB2DAA25
:105193002CA92BA82AD312380D401DE52D2480FFFE
:1051A300E52C34BCFEE52B3492FDE52A34C7FCA282
:1051B3000392041254FE9202753BFF753C02753D47
:1051C300459001BFE0753E00F53F9001BEE075409C
:1051D30000F5419001BDE0754200F5439001BCE04C
:1051E300754400F5457B017A01793B1246BF7B018B
:1051F3007A01793B02756C7E007F407D007B017AEA
:10520300067986123A26753BFF753C02753D6E7B27
:10521300017A0679861246BF7B017A067986127572
:105223006CC20402735D753BFF753C02753D8B9048
:1052330001BCE0753E00F53F7B017A01797B1246A4
:10524300BF7B017A01797B12756C9001BCE0FF0290
:10525300784290071DE07888F69003EAE0FF90011A
:10526300BCE06F60457E007F407D007B017A06795C
:1052730086123A26753BFF753C02753DB07B017A79
:105283000679861246BF7B017A06798612756C9081
:1052930001BCE09003EAF0D39407500E90071B740F
:1052A30002F09003EAE090071AF022AD07E5607080
:1052B3001D20271A90721893FFE561C39F500405C0
:1052C30061800BE4F561F565F564F563F562E5600E
:1052D3007004D2278009E560D394504002C227901E
:1052E30006F3E07002A3E07075AF60202704156039
:1052F30080020560EF541FFF907216E493FEEF8E59
:10530300F084FFA3E493FEEF8EF0A4FF9006F3E591
:10531300F0F0A3EFF0E560C394004009E56094204A
:105323005003856062E560C39410400CE5609430DF
:105333005006E56024F0F563E560C39420400CE576
:105343006094405006E56024E0F564E560C3943062
:10535300400CE56094505006E56024D0F565ED14EB
:1053630070030254680460030254FDE561600302A4
:1053730054FD30277AE560C3942E501BE56075F029
:105383000F84E5F0D3940A900703E040028055545C
:10539300E0F0A3E002548CE560D3942D400E900717
:1053A30003E0441FF0A3E054E0440AF0E560D39423
:1053B30032400E9006FCE0441FF0A3E054E0440AA0
:1053C300F0E560D3943C400E9006F9E0441FF0A34F
:1053D300E054E0440AF0E560D3944650030254FDE0
:1053E3009006F5E0441FF0A3E054E0440AF022E500
:1053F30065541FFF900703E054E04FF0E564541F2A
:10540300FF9006FCE054E04FF0E563541FFF900665
:10541300F9E054E04FF0E562541FFF9006F5E054C5
:10542300E04FF0E56575F00384541FFF900704E037
:1054330054E04FF0E56475F00384541FFF9006FDBC
:10544300E054E04FF0E56375F00384541FFF9006CA
:10545300FAE054E04FF0E56275F00384541FFF90C7
:1054630006F60254F8E56160030254FD302757E560
:1054730060C3942E5017E56075F00F84E5F0D39464
:105483000A900704E04002803954E0F022E560D33B
:10549300942D40079006F6E0441FF0E560D3943264
:1054A30040079006FAE0441FF0E560D3943C4007C0
:1054B3009006FDE0441FF0E560D39446403C90071E
:1054C30004E0441FF022E565541FFF9006F6E05404
:1054D300E04FF0E564541FFF9006FAE054E04FF00C
:1054E300E563541FFF9006FDE054E04FF0E562547E
:1054F3001FFF900704E054E04FF0228F318E308D70
:105503002F8C2E78DD7C017D017BFF7A08796F7EFD
:10551300007F0B1236B7C205853135853034852FB0
:1055230033852E3220040302563E9006D0E0D394F6
:105533000C50419006D1E0FFE4FCFDFE7B3CFAF900
:10554300F81237BEC004C005C006C0079006D0E0FD
:10555300FFE4FCFDFE7B107A0EF9F81237BED00390
:10556300D002D001D000EF2BFFEE3AFEED39FDEC77
:10557300380256299006D0E0FFD3940C405EEFD357
:1055830094185058E024F4FFE434FFFEE4FCFD7B60
:10559300107A0EF9F81237BEC004C005C006C00762
:1055A3009006D1E0FFE4FCFDFE7B3CFAF9F81237EC
:1055B300BED003D002D001D000EB2FFBEA3EFAE9C4
:1055C3003DF9E83CF8C3E5359BF535E5349AF53408
:1055D300E53399F533E53298F532805F9006D0E0F4
:1055E300FFC3941E4055EF24EFFFE434FFFEE4FCB9
:1055F300FD7B107A0EF9F81237BEC004C005C00651
:10560300C0079006D1E0FFE4FCFDFE7B3CFAF9F80D
:105613001237BED003D002D001D000EB2FFFEA3EF9
:10562300FEE93DFDE83CFCE5352FF535E5343EF577
:1056330034E5333DF533E5323CF532E535FF900192
:10564300DDEFF0E4FFE534FEE4FDFC780812381EDC
:10565300A3EFF0E4FFFEE533FDE4FC781012381EFF
:10566300A3EFF0E4FFFEFDE532FC781812381EA329
:10567300EFF0753901753A01753BDD90082BE49322
:10568300F53C753DFF753E08753F2C90086CE4931F
:10569300F540754102A3E493F542740193F5437B0E
:1056A300FF7A0779E912696B9205A205226D61639E
:1056B3005F7265616C65733A25303258202530324C
:1056C30058202530325820002530325820253032DA
:1056D3005820253032582E0A00696E736572742083
:1056E30063617463683A2025642C2076616C3A25E3
:1056F3003032582E0A0000000000000000000000B5
:105703000000000000000000000000000000000096
:105713000000000000000000000000000000000086
:105723000000000000000000000000000000000076
:105733000000000000000000000000000000000066
:105743000000000000000000000000000000000056
:105753000000000000000000000000000000000046
:105763000000000000000000000000000000000036
:105773000000000000000000000000000000000026
:105783000000000000000000000000000000000016
:105793000000000000000000000000000000000006
:1057A30000000000000000000000000000000000F6
:1057B30000000000000000000000000000000000E6
:1057C30000000000000000000000000000000000D6
:1057D30000000000000000000000000000000000C6
:1057E30000000000000000000000000000000000B6
:1057F30000000000000000000000000000000000A6
:105803000000000000000000000000000000000095
:105813000000000000000000000000000000000085
:105823000000000000000000000000000000000075
:105833000000000000000000000000000000E4F58C
:1058430027F528F52990072AE07002A3E07002C229
:10585300171278A7EF7003025907201223D2129070
:10586300603CE493FF740193900728CFF0A3EFF01B
:105873009007257401F0A3745EF01278A78F792244
:105883001278A7EF65796003025997900728E0FE25
:10589300A3E0FFC390603C7401939FF529E4939EBA
:1058A300F528C39060387401939529E493952850A3
:1058B30020C390603A7401939529E493952840118D
:1058C300AF791277E9201309D2137D04AF79125906
:1058D30098C390603A7401939529E4939528400303
:1058E300025997C390603C7401939529E4939528DA
:1058F3005003025997301403025997D2147D05AF10
:1059030079025998301253900728E0FEA3E0FFC3B1
:1059130090603C7401939FF529E4939EF528C3900E
:1059230060367401939529E4939528502DC39060B4
:10593300387401939529E4939528401E900725E038
:105943007002A3E06002057AE57AD3940150047DE6
:105953000280027D03AF79125998900725E0700207
:10596300A3E0701DE57A6019F527E4F57AE527C30E
:105973009402400AAD27AF79126780E4F527E4F576
:1059830079301302C213301402C214E4900728F0D2
:10599300A3F0C212228F2A8D2BE52B24FD6047141E
:1059A3007003025A31147003025A85240360030200
:1059B3005ABAC2167E007F407D007B017A06798643
:1059C300123A26753BFF753C5F753D5F753E00855A
:1059D3002A3F7B017A0679861246BF7B017A0679D4
:1059E3008612756C80407E007F407D007B017A06C5
:1059F3007986123A26753BFF753C5F753D7B753E94
:105A030000852A3F7B017A0679861246BF7B017A9D
:105A130006798612756C900727E004F0E0B403045E
:105A2300D21A8002C21AAF2A125C07025ABA301A7B
:105A33001FC21A1278577E007F407D007B017A06D1
:105A43007986123A26753BFF753C5F753D95801E3E
:105A53007E007F407D007B017A067986123A2675A7
:105A63003BFF753C5F753DB2753E00852A3F7B0168
:105A73007A0679861246BF7B017A06798612756C9F
:105A830080357E007F407D007B017A067986123A5D
:105A930026753BFF753C5F753DCF753E00852A3FFC
:105AA3007B017A0679861246BF7B017A06798612D4
:105AB300756CD20412735DE52B64036010900727A5
:105AC3007401F0C21AE52B64026002C21722AB33E1
:105AD300AA34A935900002E537123735900003E563
