:100000000264E69006BBE0124BE4220200A1438E9C
:10001000805389F0758A50758CFBC28DD2A9D2B9F4
:10002000D28C220263C58D498B468A478948E4F504
:100030004E8B4F8A5089511275F5C3E5519548FF93
:10004000E5509547FE7C00EF254DFFEC3EFED3EFDB
:1000500095497480F86E985041AB520554E554AA06
:10006000537002055314F91232F5FFAB4F0551E5F9
:1000700051AA507002055014F91232F5B507130554
:100080004EE54EB54DD3C3E551954DF9E55094007D
:10009000FA221275F5E4F54E80A07B007A00790013
:0200A00022320A
:1000A30002270869276D20554152543120666F722B
:1000B30020776966692064617461207472616E736C
:1000C3006C617465202121210A0069276D20554147
:1000D30052543120666F7220646174734C6F6720D1
:1000E3002121210A006E776B5A69676220636F6E64
:1000F3006E6563742F72656A6F696E20616C6C2024
:10010300636F6D706C6574652E0A006E776B5A6948
:10011300676220636F6E6E6563742F72656A6F69C1
:100123006E206D61696E537465702D2530326440A5
:100133006D6574686F643A256420636F6D706C65D8
:1001430074652E0A00657272206672616D6548657A
:1001530061643A253032582E0A00726376506F720A
:100163007420697320253032582C207263764E77C1
:100173006B4164647220697320253034582E0A0061
:1001830072656D6F74652064617461526571756524
:100193007374206661696C2C20636F64653A5B300D
:1001A30078253032585D202D2D6C6F6F7025642EAD
:1001B3000A003E3E3E64744661696C20746F6F2092
:1001C3006D6F72652C207A6967626565207265635D
:1001D3006F6E6E656374207269676874206E6F77E3
:1001E3002E0A00646576486F6C64207374617274C0
:1001F300207269676874206E6F772E0A00646576D3
:10020300486F6C642074696D6520636F756E74202C
:1002130072656D696E643A202530326420732E0A4C
:1002230000646576486F6C642073746F702E0A00E7
:10023300636D645363656E6172696F4374726C209E
:10024300636F6D6D696E672C20737461747573448D
:100253006174613A253032582E0A006D61737465FA
:100263007220636D64436F6D696E673A6E776B4F8F
:1002730070656E3A25303264732E0A006D617374B3
:1002830065722055544320636F6D696E673A5B3026
:1002930078253032582530325825303258253032BF
:1002A300585D2E0A006E6F646520636D64436F6D45
:1002B300696E673A6465764E776B20686F6C642E5F
:1002C3000A006D617374657220636D643A2064740F
:1002D300506572696F6420686F6C642C2074696D5B
:1002E300653A25642E0A0064696666657220736345
:1002F300656E65206465746563742066726F6D2036
:10030300706F6C696E672E0A00636D64436F6D696D
:100313006E673A253032582E0A003E3E3E3E3E3E40
:100323003E3E74696D65725F7461623320726573FA
:10033300706F6E643A5B253032582D253032582D5C
:10034300253032585D2E0A003E3E3E3E3E3E3E3E46
:1003530074696D65725F74616233206861732062D2
:1003630065656E207365743A5B253032582D2530F0
:1003730032582D253032585D2E0A003E3E3E3E3E19
:100383003E3E3E696E7465726E6574206F66666C80
:10039300696E652E0A003E3E3E3E3E3E3E3E72651F
:1003A3006C6179537461747573207265616C6573E4
:1003B3003A253032582C2063757272656E7456611B
:1003C3006C3A253032582E0A003E3E3E3E3E3E3EBB
:1003D3003E64656C6179506572696F643A5B25644C
:1003E3005D2C2064656C617955704163743A5B25BB
:1003F3003032585D2E0A003E3E3E3E3E3E3E3E6655
:100403006163746F7279207265636F7665722073AE
:1004130074616E644279212E0A003E3E3E3E3E3EAA
:100423003E3E6167696E67436D64206465764C6F19
:10043300636B20636F6D696E672C206C6F636B4910
:10044300663A5B25645D2E0A003E3E3E3E3E3E3EDE
:100453003E6167696E67436D642074696D657220E0
:10046300636F6D696E672C206461746154616231DE
:100473003A5B253032582D253032582D25303258ED
:100483005D2E0A003E3E3E3E3E3E3E3E6167696E45
:1004930067436D6420677265656E4D6F64652063A5
:1004A3006F6D696E672C2074696D655365743A25A9
:1004B300642E0A003E3E3E3E3E3E3E3E6167696E0E
:1004C30067436D64206E696768744D6F646520636C
:1004D3006F6D696E67207769746820646174733A1D
:1004E3005B253032582025303258202530325800D1
:1004F3002025303258202530325820253032585D9F
:100503002E0A003E3E3E3E3E3E3E3E6167696E67BA
:10051300436D6420626B4C6967687420636F6D6917
:100523006E672C206F6E2D497372743A25303264D6
:100533002C206F66662D497372743A253032642E0F
:100543000A003E3E3E3E3E3E3E3E6167696E674365
:100553006D6420686F7273696E674C696768742095
:10056300636F6D696E672C206F707265617444618F
:1005730074613A253032582E0A003E3E3E3E3E3EDE
:100583003E3E6167696E67436D6420737769746388
:100593006842696E6453657420636F6D696E672C7E
:1005A300206F7072656174426974486F6C643A2598
:1005B3003032582062696E64446174613A25303286
:1005C30058202530325820253032582E0A003E3E1E
:1005D3003E3E3E3E3E3E6167696E67436D64206307
:1005E30075727461696E4F72626974616C5365747C
:1005F30020636F6D696E672C2076616C5365743A66
:100603002564202E0A003E3E3E3E3E3E3E3E66614F
:1006130063746F7279207265636F76657220646F9D
:10062300696E67206E6F77212E0A0063757272659B
:100633006E745061696E20676574206973203A2572
:10064300642E0A003E3E3E636F6F7264696E61748E
:100653006F72206C6F737420746F6F206C6F6E6792
:100663002C207A6967626565207265636F6E6E65BB
:100673006374207269676874206E6F772E0A003E78
:100683003E3E64744374726C45616368206C6F6FA3
:1006930070506172616D3A25642025642025642CB5
:1006A30020646174613A25642E0A006374726C20BD
:1006B300656163684F7468657220636D6420636F5E
:1006C3006D696E672C20636C75737465723A25309F
:1006D30032642C2076616C3A253032642C206C6FA6
:1006E3006F703A253032642E0A007A6967624E775A
:1006F3006B206F70656E206E6F746963652067652C
:10070300743A2564732E0A00000000000000000004
:1007130000000000000000000000000000000000D6
:1007230000000000000000000000000000000000C6
:1007330000000000000000000000000000000000B6
:1007430000000000000000000000000000000000A6
:100753000000000000000000000000000000000096
:100763000000000000000000000000000000000086
:100773000000000000000000000000000000000076
:100783000000000000000000000000000000000066
:100793000000000000000000000000000000000056
:1007A30000000000000000002608FCFF000000001D
:1007B3000000000000000000000000000000000036
:1007C3000000000000000000000000000000000026
:1007D3000000000000000000000000000000000016
:1007E3000000000000000000000003FE0166080096
:1007F3006F00000000000000000000000000000087
:1008030000000000000000000000000000000000E5
:1008130000000000000000000000000000000000D5
:100823000000000000000000000000060096FCFF2E
:1008330000000000000000000000000000000000B5
:1008430000000000000000000000000000000000A5
:1008530000FE0126060627660600000000000000D1
:100863000000000000000000000000000000000085
:10087300000000000000000000FE002111306111A3
:100883002110000000000000000000000000000034
:100893000000000000000000000000000000000055
:1008A3000000000000000000000000000000000045
:1008B3000000000000000000000000000000000035
:1008C30000000BFE016110000000000000000000AA
:1008D3000000000000000000000000000000000015
:1008E3000000000000000000000000000000000005
:1008F30000000000000000000000000000000000F5
:10090300000000050064000000000000000000007B
:100913000046090000000000000000000000000085
:1009230000000000000000000000000000000000C4
:1009330000000000000000000000000000000000B4
:1009430000000000000000000000000000000000A4
:1009530000000000FE064180010200020603C300FE
:100963000000000000000000000000000000000084
:100973000000000000000000000000000000000074
:100983000000000000000000000000000000000064
:10099300000000000B0FA04609000000000000004B
:1009A3000000000000000000000000000000000044
:1009B3000000000000000000000000000000000034
:1009C3000000000000000000000000000000000024
:1009D30000000000000000000000FE06418001024C
:1009E30000020603C3000000000000000000000036
:1009F30000000000000000000000000000000000F4
:100A030000000000000000000000000000000000E3
:100A1300000000000000000000000B0FA0260503EB
:100A230001030000000000000000000000000000BF
:100A330000000000000000000000000000000000B3
:100A430000000000000000000000000000000000A3
:100A53000000000000000000000000000000000390
:100A6300FE016605006200000000000000000000B7
:100A73000000000000000000000000000000000073
:100A83000000000000000000000000000000000063
:100A93000000000000000000000000000000000053
:100AA3000601F446090000000000000000000000F9
:100AB3000000000000000000000000000000000033
:100AC3000000000000000000000000000000000023
:100AD3000000000000000000000000000000000013
:100AE300000000000000FE06418001020002060330
:100AF300C300000000000000000000000000000030
:100B030000000000000000000000000000000000E2
:100B130000000000000000000000000000000000D2
:100B23000000000000000B0FA02605870101000054
:100B330000000000000000000000000000000000B2
:100B430000000000000000000000000000000000A2
:100B53000000000000000000000000000000000092
:100B6300000000000000000000000003FE01660515
:100B73000062000000000000000000000000000010
:100B83000000000000000000000000000000000062
:100B93000000000000000000000000000000000052
:100BA3000000000000000000000000000601F42720
:100BB30002FFFF0000000000000000000000000032
:100BC3000000000000000000000000000000000022
:100BD3000000000000000000000000000000000012
:100BE3000000000000000000000000000000000002
:100BF3000002FE0167020064000000000000000024
:100C030000000000000000000000000000000000E1
:100C130000000000000000000000000000000000D1
:100C230000000000000000000000000000000000C1
:100C330000000601F427030080000000000000000C
:100C430000000000000000000000000000000000A1
:100C53000000000000000000000000000000000091
:100C63000000000000000000000000000000000081
:100C73000000000000000004FE016703006500009F
:100C83000000000000000000000000000000000061
:100C93000000000000000000000000000000000051
:100CA3000000000000000000000000000000000041
:100CB30000000000000000000601F4260000000010
:100CC3000000000000000000000000000000000021
:100CD3000000000000000000000000000000000011
:100CE3000000000000000000000000000000000001
:100CF3000000000000000000000000000000FE01F2
:100D030045C0078300000000000000000000000051
:100D130000000000000000000000000000000000D0
:100D230000000000000000000000000000000000C0
:100D33000000000000000000000000000000061F8B
:100D4300402608FCFF000000000000000000000037
:100D53000000000000000000000000000000000090
:100D63000000000000000000000000000000000080
:100D73000000000000000000000000000000000070
:100D830000000003FE016608006F00000000000081
:100D93000000000000000000000000000000000050
:100DA3000000000000000000000000000000000040
:100DB3000000000000000000000000000000000030
:100DC3000000000006009624000E0D000D000D002B
:100DD300010000010000000000000000000000000E
:100DE3000000000000000000000000000000000000
:100DF30000000000000000000000000000000000F0
:100E03000000000000000000000DFE01640000650A
:100E130000000000000000000000000000000000CF
:100E230000000000000000000000000000000000BF
:100E330000000000000000000000000000000000AF
:100E4300000000000000000000000601F4FE016441
:100E530000B8DD0C000D0D000D0E000D00000000AC
:100E6300000000000000000000000000000000007F
:100E7300000000000000000000000000000000006F
:100E8300000000000000000000000000000000005F
:100E9300000000000000000000000000000000004F
:100EA300000000000000000000000000240100001A
:100EB300000000000000000000000000000000002F
:100EC300000000000000000000000000000000001F
:100ED300000000000000000000000000000000000F
:100EE30000000000000000000000000000000000FF
:100EF30000000000000000000000000000000000EF
:100F030000000000000000000000000000000000DE
:100F130000000000000000000000000000000000CE
:100F230000000000000000000000000000000000BE
:100F330000000000000000000000000000000000AE
:100F4300000000000000000000000000000000009E
:100F5300000000000000000000000000000000008E
:100F6300000000000000000000000000000000007E
:100F7300000000000000000000000000000000006E
:100F8300000000000000000000000000000000005E
:100F9300000000000000000000000000000000004E
:100FA300000000000000000000000000000000003E
:100FB300000000000000000000000000000000002E
:100FC300000000000000000000000000000000001E
:100FD300000000000000000000000000000000000E
:100FE30000000000000000000000000000000000FE
:100FF30000000000000000000000000000000000EE
:1010030000000000000000000000000000000000DD
:1010130000000000000000000000000000000000CD
:1010230000000000000000000000000000000000BD
:1010330000000000000000000000000000000000AD
:10104300000000000000000000000000000000009D
:10105300000000000000000000000000000000008D
:10106300000000000000000000000000000000007D
:10107300000000000000000000000000000000006D
:10108300000000000000000000000000000000005D
:10109300000000000000000000000000000000004D
:1010A300000000000000000000000000000000003D
:1010B30000000000000000000000000044806A01FE
:1010C300000000000000000000000000000000001D
:1010D300000000000000000000000000000000000D
:1010E30000000000000000000000000000000000FD
:1010F30000000000000000000000000000000000ED
:1011030000000000000000000000000000000000DC
:1011130000000000000000000000000000000000CC
:1011230000000000000000000000000000000000BC
:1011330000000000000000000000000000000000AC
:10114300000000000000000000000000000000009C
:10115300000000000000000000000000000000008C
:10116300000000000000000000000000000000007C
:10117300000000000000000000000000000000006C
:10118300000000000000000000000000000000005C
:10119300000000000000000000000000000000004C
:1011A300000000000000000000000000000000003C
:1011B300000000000000000000000000000000002C
:1011C300000000000000448145CB00000000000047
:1011D300000000000000000000000000000000000C
:1011E30000000000000000000000000000000000FC
:1011F30000000000000000000000000000000000EC
:1012030000000000000000000000000000000000DB
:1012130000000000000000000000000000000000CB
:1012230000000000000000000000000000000000BB
:1012330000000000000000000000000000000000AB
:10124300000000000000000000000000000000009B
:10125300000000000000000000000000000000008B
:10126300000000000000000000000000000000007B
:10127300000000000000000000000000000000006B
:10128300000000000000000000000000000000005B
:10129300000000000000000000000000000000004B
:1012A300000000000000000000000000000000003B
:1012B300000000000000000000000000000000002B
:1012C300000000000000000000000000000000001B
:1012D300000000000000000000000000000000000B
:1012E30000000000000000000000000000000000FB
:1012F30000000000000000000000000000FB0000F0
:10130300000000008B278A2889298C2A8D2B787A64
:101313007C017D017BFF7A1079E61236B7C2021297
:101323003A291232F52456604F24B070030218E2B2
:101333001470030218C8242F6003021DC9D202E9E6
:101343002407F9E43A78D27C067F0612395F9004C9
:10135300C3E0123929AB27E529240DF9E43528FA2E
:10136300C003C002C001E52924011239ADAD03D089
:1013730001D002D0031232CF1239DB2405F9E43550
:1013830028FA7D1C127314AB279000041236ACB5F7
:101393000702D204E52924051239ADAD277B017A72
:1013A3000679DA7F051237407002D2051236BEFF86
:1013B300B43904D205800BEF64146004EFB419024E
:1013C300D204300405300402D203200303021DC9F2
:1013D300C204C205121E6212367E753C03753D0CB3
:1013E3001236BE123692123E291236971271587A6D
:1013F30001797A12372D1236BE123468148F101504
:101403001E11168614186E15186E161551171562CF
:1014130018157A1916621A166A1B16801F167B2274
:1014230014393917A741180D42183B43185844186B
:101433006E500000186C30310302186E12745E3067
:101443002802C2289006E2E0900185F0A37407F019
:10145300E570900188F0A3E571F090000C1236C19D
:10146300900686F090000D12330E1237477F037EED
:1014730000126D3A7B017A0679871237517F047E19
:1014830000126D3A7F0A12758102154AE4900185B4
:10149300F090000B1236F9FF5407900185F0EF54DA
:1014A30001FF9006E2E0FE54016F6009900185E0C0
:1014B3004420F0802D90000B12330EFC5402FDEEFD
:1014C30054026D6009900185E04440F08014EC54AF
:1014D30004FF9006E2E054046F6007900185E04446
:1014E30080F090000B12378512381EE57664396060
:1014F3000BE576643A6005E576B43B12123A30FEAA
:101503009006E2E06EFEEF4E9006E1F0800BE5768A
:10151300B440069006E17401F0802C9006E2E0549A
:1015230007900185F0E4A3F0303106E04401F08038
:1015330007900186E054FEF0900186E0302B0544CD
:1015430002F0800354FDF0D204C20502186E752D1B
:1015530001D2311239671237517F057E008012E4C0
:10156300F52DC231FB7A00792DF53D753E017F05DE
:10157300FE126D3A02186E1236F62460601614607D
:101583007314700302161C14700302162524A3603F
:1015930003021656E4F52D7B017A017988F554751B
:1015A300550C7F10FE1271F2E4F52D74017E00A834
:1015B3002D088005C333CE33CED8F9FF78D1E6FDAD
:1015C300EF5D6013E52D75F003A42488F582E43400
:1015D30001F583E05480F0052DE52DB404CDD2054B
:1015E30012367E753C03753D1D90018E121DCA1285
:1015F3007158805F78CFE6FE08E6FF4E7002800CDC
:101603007C007D3C123381C378D8E69F900188F03B
:1016130078D7E6900189F0803A78CEE6900188F099
:1016230080317B017A0179887554007555067F32C4
:101633007E001271F2900186E03031054401F080A2
:101643000354FEF0900186E0302B054402F0800342
:1016530054FDF01236F6900187F0D20402186E1290
:101663001E32532D808006121E32432D7F1239679E
:101673001237517F3202184FD20402186E12628C55
:1016830002186EE4F52D1236F6245F700302174537
:1016930014700302177014700302179C2403600371
:1016A3000217A2E4F52D123A291238E712330E6419
:1016B300807031AF2D04A807088002C333D8FC78AB
:1016C300D146F6AB271238E7E5292582F9E5283517
:1016D30083FA1232F512396E8002C333D8FC4F12EB
:1016E300333B8012AF2D7401A807088002C333D89F
:1016F300FCF478D156F6052DE52D640470A8123755
:10170300B3753D00753E0C121E5712367E753C03B1
:10171300753D4B900014123785753E00F53F9000E0
:101723001512330E754000F54190001612330E75F5
:101733004200F543123697123E291236971271581A
:10174300805D1237F6FF78D66014E64402F678D847
:10175300A60790000F12330E78D7F6E48008E654FC
:10176300FDF6E478D8F678CFF608F680321237F62D
:10177300FF78D6600BE64401F678CEA607E480082E
:10178300E654FEF6E478CEF678D2F608F6121E1288
:101793007F0C7E00126D3A80061237B3121E46D2BA
:1017A3000402186EE4F52D90000C1237F9F52EE4BF
:1017B300F52DAF2DE52EA807088002C313D8FC3002
:1017C300E03BE52DFD7C002406FFEC33FEED240E0B
:1017D300FDEC33FCAB27E5292DF9E5283CFA12375C
:1017E30051126D3A740E252DF582E433F583AB2740
:1017F3001236ACFF7472252DF8A607D21F052DE50E
:101803002DC3940340ACD2048061E4F52DF52DE59E
:101813002D2406FFE433FE7488252DF9E43401FA00
:101823007B017554007555011271F2052DE52DC329
:10183300940340DBD20480331237B3C002C0017873
:10184300A87C067D01D001D00212384E7E00126DB5
:101853003AD20480161237B37554007555027F3897
:101863007E001271F2D2048002C204200403021D1E
:10187300C9E4F52DC204A202920675330175340141
:1018830075357A75362175370A1236BEF538A205D5
:101893009207125D248F2D900323E004F09003AA96
:1018A300E52AF0A3E52BF0E52C123772AF2D7A0170
:1018B300797A12378E9003A8E52D1238C444FAFFC3
:1018C300E41239E6227F0612758112367E753C03D7
:1018D300753D7E123697123E29123697127158784B
:1018E3003C7C017A1179857F3E1237021239DB2461
:1018F30001F9E43528FAC002C0011236A924FEFD1D
:10190300D001D0021273141236A77C0024FFF58293
:10191300EC34FFF58312330EB50702D203E5292415
:10192300021239ADAD277A0679DA7F051237ED70E9
:1019330002D204200303021DC9200403021DC9AB04
:1019430027E529240FF9E43528783C7C017F3E12F2
:10195300395F123A2990000812330E245E70030295
:101963001DA8046003021DC9787F7C117DFF123717
:10197300E77003021D829003237414F078767C04CD
:101983007A01793C7F061237DE1236A77E0024FEE9
:10199300F582EE34FFF58312330EFF655C60048F2E
:1019A3005CD205200503021DC9121E6290013CE0B2
:1019B30030E0729006E2E0FC5407FE900142E054EE
:1019C300076E6036E0540712381EE5766439600B03
:1019D300E576643A6005E576B43B14123A306CFE62
:1019E300EF4E9006E1F09006E3E04401F0800BE552
:1019F30076B440069006E17401F012367E753C031E
:101A0300753D999006E2E0753E005407F53F90015D
:101A130042E05407754000F541123697123E2912F1
:101A2300369712715890013CE030E25190015EE02C
:101A330078D6603CE64402F6E078D8F6A3E078D79F
:101A4300F6E478CFF608F6FE7F40FDFB1236867586
:101A53003C03753DCC78D8123A0B78D7E675400035
:101A6300F541123697123E29123697127158800D9E
:101A7300E654FEF6E478D8F678CFF608F690013C03
:101A8300E030E717D21912367E753C03753DFA1222
:101A93003697123E2912369712715890013CE03066
:101AA300E146E4F52DFE7F40FDFB123686753C04CE
:101AB300753D1D900143E0FFC3135401123692128A
:101AC3003E29123697127158900143E030E10775B1
:101AD3002D01D2318005E4F52DC231123967123759
:101AE300517F057E00126D3A90013CE030E47AE4C8
:101AF300F52DFE7F40FDFB123686753C04753D4C8B
:101B0300900146121DCA127158E4F52D1238F7E000
:101B130064807029AF2D04A807088002C333D8FC62
:101B230078D146F61238F7C083C082E012396E804E
:101B330002C333D8FC4FD082D083F08012AF2D7410
:101B430001A807088002C333D8FCF478D156F60500
:101B53002DE52D640870B57B017A017946753D004A
:101B6300753E18121E5712762890013CE030E33B75
:101B730012367E753C04753D8790016012369112D2
:101B83003E29123697127158900160E078D66006AC
:101B9300E64401F68004E654FEF6900160E078CE58
:101BA300F6121E127F0C7E00126D3A90013CE0305B
:101BB300E565782D7C007A1179C37F061238B2125D
:101BC300367E753C04753DB7900161121DEE1271AE
:101BD3005812367E753C04753DF3900164121DEE78
:101BE300127158900161E06005432D7F8003532DEE
:101BF30080900162E06005432D808003532D7F9028
:101C03000163E0F52EA3E0F52FA3E0F531A3E0F5A2
:101C130032123967121E4690013CE030E633123629
:101C23007E753C05753D06900167123899A3123AFB
:101C33001B123697123E2912369712715878A87CD8
:101C4300067D017B017A01796712384E7E00126DA1
:101C53003A90013DE030E03712367E753C05753D24
:101C630045900143E0FFC4135401123692123E29FA
:101C7300123697127158900143E0FFC413540713AF
:101C83009227302707E49006B7F0800312745E9022
:101C9300013DE0C31354077003021D38E490013B78
:101CA300F0FE7F40FDFB123686753C05753D7D9049
:101CB300013DE0FFC3135407753E00F53F90016AF1
:101CC300123882A3123A22123697123E29123697FD
:101CD300127158E490013BF090013BE0FFC3940381
:101CE30050511239B58005C333CE33CED8F9FF90A6
:101CF300013DE0C3135407FDEF5D602F90013BE00E
:101D0300FD2406FFE433FE746A2DF9E43401FA126C
:101D1300374F126D3A90013BE0FF246AF582E434B9
:101D230001F583E0FE74722FF8A60690013BE004F0
:101D3300F080A5D21F90013DE020E403021DC912EB
:101D4300367E753C05753DD190016D123691123E7C
:101D53002912369712715890016DE0FF9006E6F054
:101D6300BFFF02E4F07B017A0679E61237517F095F
:101D73007E00126D3A9006DF7401F0A304F0227F17
:101D8300067A04797612377C30193B12367E753C1D
:101D930006753D09123697123E291236971271586D
:101DA300C21902628C781D7C037D011237E760043F
:101DB3007560A2229005497414F07F067A03791D99
:101DC3001238277560A122E0753E00F53FA3E07548
:101DD3004000F541A3E0754200F5437B007A0079AA
:101DE3007E123E297B007A00797E22E0753E00F563
:101DF3003FA3E0754000F541A3E0754200F5437B46
:101E0300007A00797E123E297B007A00797E227B5C
:101E1300007A0079D6753D00753E017F0B7E001276
:101E23006D3A7B007A0079CE753D00753E0122E460
:101E3300F52DFB7A00792DF5547555017F32FE128D
:101E430071F222753D00753E067F327E00126D3AB7
:101E5300127611227F107E00126D3A127608227BD1
:101E6300017D327F031273F82278097C007D017BA8
:101E7300FF7A1179CD1236B778A27C007D017BFF02
:101E83007A1279661236B7900685E07006740AF006
:101E9300125A38E55D24FE70030226B8147003025B
:101EA30026C11470030226E51470030226E8147099
:101EB300030226EE240560030226FD900474E0FF6E
:101EC30030E003022704301A2DC21AC2047F0C7EAD
:101ED300647DFE7C221255B5126F6412367A753C0E
:101EE30006753D2E85703E85713F123697123E2949
:101EF300123697127158E51FB4060312745E9004EC
:101F030081E07023751E01302802C22890031CE073
:101F1300D3941E4017E4F0123A047BFF7A06794704
:101F2300127158755D0322E490031CF090049FE046
:101F3300FF900490E02FFFE433FE9004AEE07C00BA
:101F43002FFFEC3EFE78C0F608EFF64E700302203A
:101F530057900324E07002A3E0600302205778C087
:101F63007D0312386478BEA60408A605ED4C7032D2
:101F7300FE7F40FDFB123686753C06753D8290045C
:101F83009012389990049F123A1B9004AE1238892C
:101F9300900482123A22123697123E291236971271
:101FA300715878BEE6FA08E6FB12397BEA12376904
:101FB300E0701A06E618700106123A3AFF7C007DBB
:101FC3000312338178BEA60408A60580D5123A3AD7
:101FD300FF12397BEE123769E014F090049075F02C
:101FE3000FEF12345CEE123769E0FF18E6FC08E6E7
:101FF300FD90048375F00F123765EFF090048E1295
:102003003761E0FEA3E0FFC006C00790048D1237DE
:1020130061E0FDC0057C007D0FAF03AE0212336F9C
:1020230074822FF974043EFA7B01123A3A90048CBD
:1020330012397EEE123769E0F531D005D007D006AC
:1020430012702E9012FFE493FF740193900324CF38
:10205300F0A3EFF0201E0302231490047CE060033E
:10206300022314900007F0C21EB21BFEFD7A007912
:10207300091239BD9006E2E05407FF9003B5E0541E
:10208300F84FF09006E3E030E02954FEF09003B5FA
:10209300E0541FFFF0E0FE9006E4E0FDEEC41354AD
:1020A30007FEEF541FFFED4E5407C43354E04F9027
:1020B30003B5F0A22CE4335401FF9003B6E054FEC1
:1020C3004FFFF0A231E433540125E0FEEF54FD4EFF
:1020D300FFF078D6E6FE5402C313540125E025E051
:1020E300FDEF54FB4DFFF0EE540133333354F8FE50
:1020F300EF54F74EFFF0A22BE4335401C454F0FE27
:10210300EF54EF4EFFF0A227E4335401C43354E0FD
:10211300FEEF54DF4EF0E4900000F07B017A037988
:10212300B9F5547555187F10FE1271F2E490000052
:10213300F0900000E0FFC3940850311239B58005D8
:10214300C333CE33CED8F9FF78D1E6FDEF5D60140B
:10215300900000E075F003A424B9F582E43403F59C
:10216300837480F0900000E004F080C578CF7D3C5C
:10217300123864C378D8E69F9003D1F078D7E6A3EA
:10218300F078CEE6A3F078017C007A1379017F061C
:1021930012369E7B017A00790112670B900001E0F1
:1021A300FF547FFEBE7F089003D47401F08005E4E2
:1021B3009003D4F0EFC4131313540130E0089003D9
:1021C300D57401F08005E49003D5F0900002E0138C
:1021D3001313541F9003D6F0900003E09003D7F03D
:1021E300900005E0131313541F9003D8F0900006DA
:1021F300E09003D9F078DA7C037D017B017A0679DC
:10220300A87E007F021232CFE49003DCF07B017AD8
:102213000379DDF5547555037F06FE1271F2E576F9
:1022230024C070089006E6E09003E0F0E560245EC9
:10223300601104702178AF7C037D017B017A0479FE
:1022430076800C78AF7C037D017B017A03791D7E58
:10225300007F061232CFE4900007F01236E774FADB
:102263001236E3E41239C47D011236CA900007E046
:102273002406F01236E7E5601236E3E576F0E57002
:102283001237C01236EEEFF01237C11236EEE57197
:102293001236E37407F09006861237BF1236EEEF5C
:1022A300F09006871237BF1236EEEF1239C4A80139
:1022B300FC7A0379AF7F3E1237DE900007E0243EBD
:1022C300F0E004F0E090000AF07B017A00790A2440
:1022D300FEFD127314900007E02408F582E4340035
:1022E300F583EFF0E49003AAF0A3F0740D123772B4
:1022F300900007E0FF7A00790912378E900007E01B
:102303009003A81238C4FFEF44F4FF74011239E6B6
:10231300229006E3E0FF30E03AD200C201E49000ED
:1023230008F0EF54FE9006E3F0A3E054E0C4135426
:1023330007C43354E0FF9003B5E0541F4FF09003FC
:102343001DE04401F07560A29005497402F090030A
:1023530023F0229006E1E070030224E6E55D6401C8
:1023630060030224E6E57624C724FD500A24FC70AA
:10237300030224900224E6E478C2F678C2E6FFC39F
:10238300940340030224E61239B58005C333CE33E8
:10239300CED8F9FF9006E1E0FDFBEF5B700302246A
:1023A3008A78C2E6FC7401A804088002C333D8FC0F
:1023B300F45D9006E1F09006E2E0FFA804088002D5
:1023C300C313D8FC5401900009F078C2E62472F8D4
:1023D300E6FFD39410500302248AEF94FF400302D4
:1023E300248AE0FF78C26008123802740AF080067B
:1023F300123802740BF078C2E6FE24ACF582E434A2
:1024030003F583EF12391FEE75F00FA4248EF582C6
:10241300E43404F58374FFF0A3F074722EF8E6FF3E
:10242300EE75F00FA4248DF582E43404F583EFF008
:1024330090000A7D0078C2E675F00FA42482F97437
:102443000435F0FAAE83AF82123A41FF78C2E6FE5A
:1024530075F00FA42482F582E43404F583EFF0EEE3
:1024630075F00FA42483F582E43404F583E4F0EEDD
:1024730075F00FA4248CF582E43404F5837402F020
:10248300EE1237D0741EF078C20602237E9006E166
:10249300E06401704EF0E572D394104046E5729407
:1024A300FF50409006E2E0900009F0900318F0908E
:1024B30003AC12391F74FF90048EF0A3F090048DC7
:1024C300E572F07E007F0A7D007A047982123A4138
:1024D300900482F0E4A3F090048C7402F0900490D2
:1024E300741EF02021030227071239986003022685
:1024F300887A1179C912390760030226889004B7D4
:10250300E0FDA3E0FEEDFF78C5EEF6FE08EFF6A3CF
:10251300E008F6A3E008F6EF4E700C123A04E51E4D
:1025230064046003E4F51E7F997A0079A2123827C8
:102533009004C378A27C007D017A0479C41238BB6D
:1025430078C7E6FFD394105003022654EF94FF405C
:10255300030226549006E2E078C3F6E408F6123943
:102563002012367E753C06753DAE78C7123A0B9045
:1025730000A2123882123697123E29123697127130
:1025830058E57624C724FD500A24FC70030226175D
:10259300022645E478C4F678C4E6FFC394034003F7
:1025A30002264574722FF8E6FF78C7667061EF6004
:1025B3005E1237CCE0FE9000A3E0D39E50030226C8
:1025C300457401A807088002C333D8FCF478C356C6
:1025D300FEF69000A2E0FDA807088002C333D8FCF2
:1025E3004E12381EED78C46008123802740AF08067
:1025F30006123802740BF01237CCE4F09000A2E01C
:10260300FE74AC2FF582E43403F583EEF080337867
:10261300C406808378C7E6B57228E5726024900407
:1026230090E0FF9000A3E0D39F40179000A2E0FF4B
:1026330012381E900318EFF0E4900490F09003AC6E
:10264300EFF09006E3E04401F090031DE04404F052
:102653002278C7E624F36010146024240260030286
:102663002707123A4B026D8F78C5E6FC08E6FD4C4E
:102673006003022707123A4B08E6F52C02130712F0
:102683003A4B024EC012399A707A7A1179CB1239C9
:102693000770719004B3E0FF600312747612367E04
:1026A300753C06753DED9004B3123691123E291226
:1026B3003697027158751E03C228D2028014751E04
:1026C30002C22830300F78DAE618466003C2A3222C
:1026D300C20202447BC2A3900474E030E026D2A37A
:1026E300801F0247C6751E05025FA8751E01900470
:1026F3007EE0701030200D02628C900474E030E0B4
:10270300031238DF22C0E0C0F0C083C082C0D0759E
:10271300D000C000C001C002C003C004C005C00691
:10272300C007D39076BB740193956DE493956C4089
:102733000B056DE56D7002056C0227C0756C0075A5
:102743006D00056EE576644070699006E7E06048C9
:1027530014602114705D9006E6E0FF60569006E574
:10276300E0C39F502C126A2EC39F40479006E5E0BA
:1027730004F0803F9006E6E060399006E5E0D394EC
:1027830000400E126A2E9F402A9006E5E014F08066
:10279300229006E7E4F0801B9006E2E020E114902B
:1027A30006DF7402F0A3126A37302E05126A5580D1
:1027B30002D22E126A2EC39F4003756E009076BA22
:1027C300E493FFE56BC39F5005056B022877756B98
:1027D30000900326E07002A3E0600E900327E0243C
:1027E300FFF0900326E034FFF030170A0567E56732
:1027F300700A056680067566007567009006EDE051
:102803007002A3E0600E9006EEE024FFF09006ED68
:10281300E034FFF09006EAE07002A3E0600E900659
:10282300EBE024FFF09006EAE034FFF09006ABE023
:102833007002A3E0600E9006ACE024FFF09006ABBC
:10284300E034FFF0900324E07002A3E0600E9003F5
:1028530025E024FFF0900324E034FFF09006EFE03E
:102863007002A3E0600E9006F0E024FFF09006EF04
:10287300E034FFF0D39076B8740193956AE49395AE
:1028830069400B056AE56A70020569022A167569D3
:1028930000756A00201E19900549E0FF900323E0AC
:1028A300C39F5005E004F08007900323E4F0D21E99
:1028B30078D6E6FB30E17678D8126A4078D0E69F86
:1028C30018E69E50090806E618700106805F78CF67
:1028D300760008760078D87600EB54FD78D6F6902B
:1028E30006E07402F078D7E69006DF126A379003A9
:1028F3001DE04404F0E5766439600BE576643A60E4
:1029030005E576B43B12126A5CFE9006E2E06EFEC9
:10291300EF4E9006E1F08008E576B44003126A5565
:102923009006F1E04401F09006F47402F078D6E6E4
:1029330030E05F9006E2E0FB605878CE126A4078A0
:10294300D3E69F18E69E50090806E61870440680F1
:102953004178D276000876009006E07402F0900683
:10296300DFE4126A3790031DE04408F0E57664392A
:10297300600BE576643A6005E576B43B0D126A5C5C
:102983006BFEEF4E9006E1F08008E576B44003124B
:102993006A5578DAE61846600708E61618700116D5
:1029A30090047CE0600214F090031BE0600214F0DA
:1029B30078D506E6187001069006B7E06005302862
:1029C3000214F0900685E0600214F09006B0E06017
:1029D3000214F0900480E0600214F090047DE06043
:1029E3000214F09006F5E0600214F09006BEE06079
:1029F3000214F090047EE0600214F09006A7E060F9
:102A03000214F0900481E0600414F0800690031C2B
:102A1300E004F0301D6AE55EC3940A5004055E804D
:102A23005F20215AE55FC394054053D2217E007F86
:102A3300997DFF7B017A0479AF12363E78AF7C042F
:102A43007D017B017A05794A7E007F991232CF900E
:102A53000548E55FF09004B0E02405FFE433FEE5AC
:102A63005F6F7001EE60179006F1E04401F090058E
:102A73004BE09006F2F0A3E55FF0A37401F0C21DF2
:102A83009006D0E0FFA3E0C39F5006E004F0022BC2
:102A93003E9006D1E4F09006AAE024FE604914704B
:102AA30003022B2F24026003022B3C9006B8E05450
:102AB300079006D0F0FD9006B9E075F014A4FFAEC0
:102AC300F07C001233819006BFEEF0A3EFF0900686
:102AD300BAE0541F25E09006C3F0126A4DD232903B
:102AE30006AA7402F080549006C3E060379006BFD4
:102AF300E0FEA3E0FFC39006C2E09F9006C1E09E04
:102B03005017A3E004F070069006C1E004F03032E1
:102B130004B2B28026D2B28022126A4DB232A3E04E
:102B230014F080179006AA7403F0800F126A4DD236
:102B330032D2B29006AAF08002D2B29076BEE4936B
:102B4300FFE56FD39F5003022BD5756F009006AD41
:102B5300E09006C4126A019006AEE09006C5126AC0
:102B6300019006AFE09006C6126A0A9006B1E090A3
:102B730006C7126A0A9006B2E09006C8126A13905A
:102B830006B3E09006C9126A139006B4E09006CA31
:102B9300126A1C9006B5E09006CB126A1C9006B62A
:102BA300E09006CC126A259006BBE09006CD126A2F
:102BB300259006BCE0541FFF9006CEE054E04FF092
:102BC3009006BDE0541FFF9006CFE054E04FF002A3
:102BD3002D0C056FE56FD394004062E56FD394200D
:102BE300505B9006C4E0FF541F600CE57530E007AE
:102BF3001269F6C2A08002D2A09006C7E0FF541F5C
:102C0300600CE57530E1071269F6C2A68002D2A610
:102C13009006CAE0FF541F600CE57530E2071269A5
:102C2300F6C2818002D2819006CDE0FF541F600876
:102C33001269F6C2CD022D0CD2CD022D0CE56FD355
:102C430094204060E56FD3944050599006C5E0FF4F
:102C5300541F600CE57530E0071269F6C2A18002CB
:102C6300D2A19006C8E0FF541F600CE57530E10760
:102C73001269F6C2A58002D2A59006CBE0FF541FCD
:102C8300600CE57530E2071269F6C2808002D280DB
:102C93009006CEE0FF541F60071269F6C2CC80692C
:102CA300D2CC8065E56FD39440405EE56FD39460EA
:102CB30050579006C6E0FF541F600CE57530E007DF
:102CC3001269F6C2A28002D2A29006C9E0FF541F85
:102CD300600CE57530E1071269F6C2A48002D2A444
:102CE3009006CCE0FF541F600CE57530E2071269D3
:102CF300F6C2A78002D2A79006CFE0FF541F600759
:102D03001269F6C2838002D283D007D006D005D0E1
:102D130004D003D002D001D000D0D0D082D083D051
:102D2300F0D0E03202690000016B00026C00000188
:102D33006E00016F004306C40000004306C7000095
:102D4300004306CA0000004306CD0000004106D040
:102D5300034106D1004206BF01F44206C10000410F
:102D630006C308C1B2017640017501037200000079
:102D73000270000020407E00000000000000000000
:102D83000000000000000000000000000000000040
:102D93000000000000000000000000000000000030
:102DA3000000000000000000000000000000000020
:102DB300000000000000004606D9000000000000EB
:102DC3004606D20101010101014106D800C131C10A
:102DD300304306AD0000004306B10000004306B4D3
:102DE3000000004306BB0000004206A80000C1A784
:102DF300011F00011E004206AB00004106B73CC1A3
:102E0300284106B0004106BE004106A7004306B8AC
:102E13000000004106AA0002080000C1224106A6E4
:102E230000010A1FC1A3010B00010C00C1A4010D85
:102E330000010E00010F000110000111000112003A
:102E4300C1A50113000114000115000116000117AB
:102E530000C126011800011900011A00011B00011D
:102E63001C00011D004406F10000000060840328DB
:102E7300000000000000000000000000000000004F
:102E8300000000000000000000000000000000003F
:102E9300000000000000000000000000000000002F
:102EA300000000000000000000000000000000001F
:102EB300000000000000000000000000000000000F
:102EC30000000000000000000000000000000000FF
:102ED30000000000000000000000000000000000EF
:102EE30000000000000000000000000000000000DF
:102EF30000000000602D04820000000000000000BC
:102F030000000000000000000000000000000000BE
:102F130000000000000000000000000000000000AE
:102F230000000000004203240000608403EE000060
:102F3300000000000000000000000000000000008E
:102F4300000000000000000000000000000000007E
:102F5300000000000000000000000000000000006E
:102F6300000000000000000000000000000000005E
:102F7300000000000000000000000000000000004E
:102F8300000000000000000000000000000000003E
:102F9300000000000000000000000000000000002E
:102FA300000000000000000000000000000000001E
:102FB30000004204720000603E03AF000000000006
:102FC30000000000000000000000000000000000FE
:102FD30000000000000000000000000000000000EE
:102FE30000000000000000000000000000000000DE
:102FF300000000000000000000460476000000000E
:10300300000046031D0000000000000160A142040F
:10301300740000C11FC11C420326000002D9001422
:1030230042047F0000C11E410323004105491441AE
:10303300047C0041047D034303180000004303ACF8
:103043000000004103ED0041031B00C121C11D012C
:103053005E00015F00609A04AF0000000000000002
:10306300000000000000000000000000000000005D
:10307300000000000000000000000000000000004D
:10308300000000000000000000000000000000003D
:10309300000000000000000000000000000000002D
:1030A300000000000000000000000000000000001D
:1030B300000000000000000000000000000000000D
:1030C30000000000000000000000000000000000FD
:1030D30000000000000000000000000000000000ED
:1030E30000000000000000000000000000000000DD
:1030F300000000015D004104811E41031C004104E6
:103103007E00C12041031400410315004103160052
:10311300410313FF015600015700015800015900F4
:1031230041031700025A0000015C00C119C11BC111
:103133009A01DB00C198C117026600004206ED0048
:10314300004206EA00004106EC014206EF000001DE
:103153006800016500C10FC110C111016100016266
:10316300004106E900016300C112C113C1140164E7
:10317300004106E8024106E2004206DF0003410681
:10318300E100C12D4206E30000C12F4306E5000024
:1031930000C1AE47067E0000000000000041068526
:1031A3000A410686084106870002D4000001D100C7
:1031B300C12CC12B01D60002CF000001D80001D7DA
:1031C3000002D2000001CE0002CC000058068E009F
:1031D30000000000000000000000000000000000EC
:1031E3000000000000000046068800000000000008
:1031F30042067C0000C1294106F50000E709F608F4
:10320300DFFA8046E709F208DFFA803E88828C8382
:10321300E709F0A3DFFA8032E309F608DFFA8078E2
:10322300E309F208DFFA807088828C83E309F0A354
:10323300DFFA806489828A83E0A3F608DFFA805884
:1032430089828A83E0A3F208DFFA804C80D280FA75
:1032530080C680D4806980F28033801080A680EAA3
:10326300809A80A880DA80E280CA803389828A8348
:10327300ECFAE493A3C8C582C8CCC583CCF0A3C839
:10328300C582C8CCC583CCDFE9DEE7800D89828A9D
:1032930083E493A3F608DFF9ECFAA9F0EDFB2289A6
:1032A300828A83ECFAE0A3C8C582C8CCC583CCF07C
:1032B300A3C8C582C8CCC583CCDFEADEE880DB893E
:1032C300828A83E493A3F208DFF980CC88F0EF606D
:1032D300010E4E60C388F0ED2402B4040050B9F52A
:1032E30082EB2402B4040050AF232345822390329F
:1032F3004F73BB010689828A83E0225002E722BB17
:10330300FE02E32289828A83E49322BB010CE582D5
:1033130029F582E5833AF583E0225006E92582F810
:10332300E622BBFE06E92582F8E222E58229F58240
:10333300E5833AF583E49322BB010689828A83F00D
:10334300225002F722BBFE01F322F8BB010DE582F6
:1033530029F582E5833AF583E8F0225006E92582D0
:10336300C8F622BBFE05E92582C8F222EF8DF0A440
:10337300A8F0CF8CF0A428CE8DF0A42EFE22BC00A2
:103383000BBE0029EF8DF084FFADF022E4CCF8757D
:10339300F008EF2FFFEE33FEEC33FCEE9DEC98408C
:1033A30005FCEE9DFE0FD5F0E9E4CEFD22EDF8F528
:1033B300F0EE8420D21CFEADF075F008EF2FFFED88
:1033C30033FD4007985006D5F0F222C398FD0FD580
:1033D300F0EA22E88FF0A4CC8BF0A42CFCE98EF069
:1033E300A42CFC8AF0EDA42CFCEA8EF0A4CDA8F06A
:1033F3008BF0A42DCC3825F0FDE98FF0A42CCD352E
:10340300F0FCEB8EF0A4FEA9F0EB8FF0A4CFC5F097
:103413002ECD39FEE43CFCEAA42DCE35F0FDE43C90
:10342300FC22EB9FF5F0EA9E42F0E99D42F0E89C16
:1034330045F022E8600FECC313FCED13FDEE13FE21
:10344300EF13FFD8F122E8600FEFC333FFEE33FE33
:10345300ED33FDEC33FCD8F122A42582F582E5F0AF
:103463003583F58322D083D082F8E49370127401FC
:1034730093700DA3A393F8740193F5828883E47387
:103483007402936860EFA3A3A380DF8A838982E435
:1034930073E3F5F009E208B5F06BDFF58067E3F558
:1034A300F009E608B5F05EDFF5805A87F009E60813
:1034B300B5F052DFF6804E87F009E208B5F046DF3B
:1034C300F6804288828C8387F009E0A3B5F036DF6B
:1034D300F6803288828C8387F009E493A3B5F025C4
:1034E300DFF5802188828C83E3F5F009E0A3B5F052
:1034F30014DFF5801088828C83E3F5F009E493A34D
:10350300B5F002DFF40235C3808780E9809080D470
:10351300803E8015806E807E809D80B7808D80A3E5
:1035230080518074803C0235CF89828A83ECFAE42F
:1035330093F5F0A3C8C582C8CCC583CCE493A3C8D4
:10354300C582C8CCC583CCB5F076DFE3DEE18070FD
:1035530089828A83E493F5F0A3E208B5F062DFF48D
:10356300805E89828A83E0F5F0A3E608B5F051DF37
:10357300F5804D89828A83E0F5F0A3E208B5F04037
:10358300DFF5803C89828A83E493F5F0A3E608B5EE
:10359300F02EDFF4802A8002805789828A83ECFA36
:1035A300E493F5F0A3C8C582C8CCC583CCE0A3C817
:1035B300C582C8CCC583CCB5F006DFE4DEE280006B
:1035C3007FFFB5F0020F2240027F012289828A83A6
:1035D300ECFAE0F5F0A3C8C582C8CCC583CCE0A360
:1035E300C8C582C8CCC583CCB5F0D5DFE5DEE380A2
:1035F300CF89828A83ECFAE0F5F0A3C8C582C8CCF0
:10360300C583CCE493A3C8C582C8CCC583CCB5F02D
:10361300AFDFE4DEE280A988F0EF60010E4E60AB1D
:10362300ED2402B404005098F582EB2402B40400A4
:10363300508E232345822390350B73EF4E6012EF98
:1036430060010EEDBB010B89828A83F0A3DFFCDEF0
:10365300FA2289F05007F709DFFCA9F022BBFEFC30
:10366300F309DFFCA9F022FAE6FB0808E6F925F0E6
:10367300F618E6CA3AF6228E708F717E007D007BC3
:10368300007F407A00797E12363E753BFF22E0755B
:103693003E00F53F7B007A00797E227D017BFF7E31
:1036A300000232CFAB27900001AA28A92902330ECA
:1036B3007D017BFF7E007F990232CF900003AB2711
:1036C300AA28A92902330EA801FC7A0679DA7F0514
:1036D3007B017E000232CF7D017BFF7E000232CF71
:1036E300F0900007E0FF04F074092FF582E4340042
:1036F300F5832290000DAB27AA28A92902330E7D5A
:10370300017BFF7E000232CFA3E0FFE4FCFDFE124B
:103713003449E52D4FF52DE52C4EF52CE52B4DF5D4
:103723002BE52A4CF52AA3E0FF227E007F997D003A
:103733007B0102363E78B17C047D017F027E00125C
:10374300361AEF22900687F07A0679867B01753D5B
:1037530000753E01227D017BFF7E000232CF75F0B2
:103763000FED12345CEC75F00FA42583F5832290E2
:1037730003A9F07F807A0379287E007D007B010214
:10378300363EAB27AA28A92902330E7E0078287C6F
:10379300037D017B010232CF900687E0FFE4FCFD4D
:1037A300FE7B3CFAF9F80233D67D017BFF0232CF70
:1037B300AB27E529240EF9E43528FA22E0FF90002F
:1037C30007E0FE04F074092E2278C4E6FF75F00FBB
:1037D300A42490F582E43404F583227D017B017EE9
:1037E300000232CF7A01793C7F067B017E001236DC
:1037F3001AEF2290000EAB27AA28A92902330EE65E
:103803002418F582E43403F58322FFE434FFFEE455
:10381300FCFD7B107A0EF9F80233D69006DFF0A395
:103823007402F0227E007D007B0102363EE4F558EF
:10383300F557900473E054FEF0E4900472F0A3E0B3
:103843005401F022AB33AA34A935227E007F021241
:1038530032CF7B017A0679A8753D00753E027F3829
:1038630022E6FE08E6FF7C00023381E493F540750F
:103873004102A3E493F542740193F5437BFF22E0F5
:10388300754000F541A3E0754200F543227B017AC0
:103893000479AF7D9922E0753E00F53F227E007CDE
:1038A30000E5482552F9EC3547A801FCAD46227DD9
:1038B300007BFF7E000232CFE0FF7E007B010232FD
:1038C300CFF0E490046EF0900473E04401F0E05410
:1038D3000122F9E43534A801FCAD332254FEF0A3F0
:1038E300E0F55D2275F003E52DA4240EF582E435A1
:1038F300F0F58322E52D75F003A42446F582E43424
:1039030001F5832278B17C047BFFFE7F027D0112E7
:10391300361AEF228F8275830002330EF090047DF6
:103923007403F022E53624F3FFE434FFFE22900310
:1039330014E075F086A422E493FF740193900326A8
:10394300CFF0A3EF227D017BFFFE1232CFE422D220
:10395300A39003267417F0A37470F022FA7D017EFE
:10396300000232CF7B007A00792D22FF900680E09F
:1039730014FE7401A806082290049075F00F023417
:103983005C75440275450175462C7BFF22FC12349D
:1039930036A3EFF022C2219004AFE064FE2290042C
:1039A30075F0900474E04401F022F9E43528A8018D
:1039B300FC2274017E00A80708227F997B0102364E
:1039C3003EF0900007E02409F9E4340022C2A390FA
:1039D3000326E4F0A374C822C203C204C205AB27C2
:1039E300E52922900472F0A3EFF0755D0422F9E457
:1039F3003AFA7D010232CFAF5205528F82758300AE
:103A030022900481741EF022E6753E00F53F22AB3E
:103A130027AA28A9290232F5E0754000F54122E0E2
:103A2300754400F54522AB27AA28A929229006E16F
:103A3300E0FF9006DFE02278BEE6FE08E6227B0187
:103A430012363E900009E0227B017A0079A22230EF
:103A53002B11E51F64036006E51F64027031751FB7
:103A630004802CE51FB4040312745EE51FB4020640
:103A7300202803751F039006B7E07013E51FB403F6
:103A83000E30280B3027087F0F126BAD751F02E530
:103A93001F14B408004003023D0C903AAB75F003C9
:103AA300A4C58325F0C58373023AC3023AC6023A1A
:103AB300C9023AC9023CC5023CE0023CE8023CE5CB
:103AC300020003024CC79006E2E0FFF527E576B457
:103AD300390DEF54014227E52725E0F527803FE51F
:103AE30076B43A169006E2E0FF54024227E5272512
:103AF300E0F527EF540142278024E576B43B0280AA
:103B03000BE57664406005E576B43D089006E2E097
:103B1300F527800AE576B43C051275388F27E576DC
:103B230024C0705FE52724FC602024037038124B07
:103B3300219006A9123D10124B9F541FF52B7F01B4
:103B4300123D9EFB9006A8023C02124BB49006A8BD
:103B5300124B379006A8123D109006A9123D58FB50
:103B63009006A9023C02124B21541F124B9F541F73
:103B7300F52BE4FF123D9E9006A8123D58FB9006DC
:103B8300A9807CE57530E01EE52730E00E124BB4CA
:103B9300124CA1124B3A124CA88006124B21124C24
:103BA300AF124BA38003124BFD541FF52BE4FF12FE
:103BB3006C7FE57530E11EE52730E10E124BB41240
:103BC3004CA1124B3A124CA88006124B21124CAF57
:103BD300124BA38003124BFD541FF52B7F01126C74
:103BE3007FE57530E21EE52730E20E124BB4124C2E
:103BF300A1124B3A124CA88006124B21124CAF1261
:103C03004BA38003124BFD541FF52B7F02126C7FD5
:103C1300E51EB404089006B0E07002F51ED3906E62
:103C23002B7401939509E493950840090509E50967
:103C33007002050822B222E4F508F509E51E1460B6
:103C43002614602914605114600E14605D240570FD
:103C53006DE4F52B7B1E803DE4302206F52B7B1EA5
:103C63008003F52BFB802EE4F52BFB8020303021E5
:103C730078DAE618466011E4302207F52BFB7D1E47
:103C83008026F52BFBFD8020E4F52B7B0A7D1E802F
:103C930028E4F52BFBFD8021E4302208F52B7B0A79
:103CA3007D1E8004F52BFBFD800FE4302207F52BEE
:103CB300FB7D1E8004F52BFBFD7F03026C7FE4F587
:103CC3001E229006B0E060047F018013124C4F1255
:103CD300363E753BFF753C6D753DE38020E4FF0286
:103CE30050B402690D9006BEE06003027224124CC8
:103CF3004F12363E753BFF753C6D753DF3124C58C4
:103D0300123E29124C58027158751F0322541FFB8F
:103D1300E075F003A4240CF582E4346EF583E49398
:103D2300541FF52BE4FF126C7F9006A9E075F00396
:103D3300A4240AF582E4346EF583E493541FFD90C2
:103D430006A9E075F003A4240BF582E4346EF58331
:103D5300E493541F22FBE075F003A4240CF582E4E2
:103D6300346EF583E493541FF52B7F01126C7F901F
:103D730006A9E075F003A4240AF582E4346EF58302
:103D8300E493541FFD9006A9E075F003A4240BF5FA
:103D930082E4346EF583E493541F22126C7F900601
:103DA300A8E075F003A4240AF582E4346EF583E4F5
:103DB30093541FFD9006A8E075F003A4240BF5822D
:103DC300E4346EF583E493541F22E547243BF8E67D
:103DD3000547227838300D02783BE475F00112363E
:103DE3006A0232F52006EB7F2ED2068018EF540FBD
:103DF3002490D43440D4FF300A0BEF24BFB41A000C
:103E030050032461FFE54860021548054BE54B70FC
:103E130002054A300D0D7838E475F00112366AEF69
:103E230002333B0272C77403D20D8003E4C20DF563
:103E3300478B388A39893AE4F548F54AF54BE54822
:103E430060077F20123E0880F57549FFC207C2064E
:103E5300C208C209C20BC20CC20E123DD6FF700DBE
:103E6300300D057F00123E19AF4BAE4A22B4255FD9
:103E7300C2D5C20A123DD6FF24D0B40A00501A7527
:103E8300F00A784830D50508B6FF0106C6A426F621
:103E930020D5047002D20980D924CFB41A00EF5080
:103EA30004C2E5D20A024019D20780C6D20680C0F6
:103EB300D20880BCD2D580BAD20B80B47F20123E08
:103EC300082008077401B5480040F1123DCDFF12E8
:103ED3003E08023E41D20ED20C8095123DCDFB121C
:103EE3003DCDFA123DCDF94A4B700679EA7A407B13
:103EF300FF20082EE548602A7E008E82758300121B
:103F0300330E60060EEE654970F0C2D5EBC0E0EAF1
:103F1300C0E0E9C0E0EE124060D0E0F9D0E0FAD0B2
:103F2300E0FB1232F5FF60AAEBC0E0EAC0E0E9C0B3
:103F3300E0123E08D0E02401F9D0E03400FAD0E0EA
:103F4300FBE5490460DCD549D980877BFF7A40795A
:103F53005CD208809C791080027908C20CC20E8062
:103F630008D2D5790A8004790AC2D5E549047002DA
:103F7300F549E4FAFDFEFF123DCDFC7B0820071353
:103F8300123DCDFD7B1030060A123DCDFE123DCD14
:103F9300FF7B20EC3382D592D55013C3E430060661
:103FA3009FFFE49EFEE42007039DFDE49CFCE4CB1D
:103FB300F8C207EC700CCFCECDCCE824F8F870F340
:103FC3008017C3EF33FFEE33FEED33FDEC33FCEB31
:103FD30033FB994002FB0FD8E9EB300705F8D0E03B
:103FE300C448B207C0E00AEC4D4E4F78207B007006
:103FF300C2EAB5490040BCC0E0124062D0F0D0E054
:10400300200704C4C0E0C4B207C0F0123DF1D0F0F1
:10401300D5F0EB023E411234683EDE533F58583E22
:10402300AF4C3EAB423F5C4F3F64443F64493EC4A8
:10403300433F6A553F4E463F4E453F4E47410A5028
:104043003EB32D3EB72E3EDA2B3EBB233ED8204057
:10405300F32A3E734800003ED23F3F3F00790AA255
:10406300D5200914300B09B910020404B90801045E
:10407300A2D5200C025001042008689208B548001C
:104083005034C0E07F203009197F30A208720C72CF
:104093000B500F1240B9C208C20CC20BC20E7F30C4
:1040A300800F300B03E9C0E0123E08300B03D0E071
:1040B300F9D0E0B548CC300B177F30B9100C123E65
:1040C300087F58300A077F788003B90803123E0837
:1040D3003008057F2D023E087F20200EF87F2B201D
:1040E3000CF322920880CF286E756C6C2900D207DE
:1040F300123DCD3007F8C207784830D50108F602E3
:104103003E732D50434958123DCD2403B40500405E
:1041130001E490410593123DF9743A123DF9D20935
:10412300754804023F58E4F527905C2893FE740118
:1041330093FFC390067DE09F90067CE09E500EA304
:10414300E004F0702390067CE004F0801BE490060A
:104153007CF0A3F078287C00FD7B017A06797EFE53
:104163007F071232CF12613E202934D2297B007A95
:104173000079D6125CCF7F0B7E001271F27B007A3E
:104183000079CE125CCF7F0C7E001271F27B017A34
:1041930006798E1266857B017A06798812670B7819
:1041A300D4E6FA08E6FBFF125D1B900683EFF0AF3F
:1041B30003125D1BA3EDF0C378D5E6941018E694C3
:1041C3000E402DE478D4F608F6900682E0C39418E6
:1041D3004004E4F08006900682E004F0900680E05C
:1041E300D3940740057401F08006900680E004F044
:1041F300900688E0547FFFBF7F05D22B02429CC20A
:104203002A900689E0131313541FFF7E007C007D60
:104213003C12336F125CEE900000F0A3EFF09006B7
:104223008CE0131313541F125C64125CEE900002B3
:10423300F0FAA3EFF0FB125C60125CEE900004F066
:10424300A3EFF0C3900001E09B900000E09A5004BC
:10425300C22A8002D22A900688E030E73A202A1B3D
:10426300125CA74012900002E0FEA3E0FFED9FEC7A
:104273009E5004D22B8022C22B801E125CA7500FAB
:10428300900002E0FEA3E0FFC3ED9FEC9E5004D23A
:104293002B8006C22B8002C22BE4F527125C80C45C
:1042A300131313540130E004D22C8009C22C0527C8
:1042B300E527B408E7202C03024461E4F527125CE8
:1042C30080547FFD900680E0FF12724E400302444B
:1042D30055125C80C4131313540120E003024455A8
:1042E300125C2CA3E0F92FFFEC3EFEEF6B7002EEA5
:1042F3006A6028125CF58005C333CE33CED8F9FF4C
:1043030078CCE6FC08E6FDEE5CFAEF5D4A600CEF64
:10431300F4FFEEF45C18F6ED5F08F6125C2CE92F5F
:10432300FFEC3EFEEF6B7002EE6A6003024418047A
:104333007E00A827088005C333CE33CED8F9FFEE1D
:1043430078CC56FEEF08564E6003024418FE7F40B9
:10435300FDFB7A00797E12363E753BFF753C5B753B
:104363003D9F753E0085273F7B007A00797E123E94
:10437300297B007A00797E127158125CF58005C39F
:1043830033CE33CED8F9FF78CCE64EF608E64FF6B7
:1043930078D1E6F9FDEF5D601CAF277401A807082B
:1043A3008002C333D8FCF45978D1F67A5C792A12A7
:1043B30044621276089006E07402F0E52775F00374
:1043C300A4248FF582E43406F583E054079006DFD6
:1043D300F09006E3E04401F090031DE04410F0E5A3
:1043E300766439600BE576643A6005E576B43B188C
:1043F3009006E1E0FF9006DFE0FE9006E2E06EFE4D
:10440300EF4E9006E1F0804AE576644070449006F2
:10441300E104F0803D125C2C125CEEFED3EF9BEEC8
:104423009A402F125CF58005C333CE33CED8F9FF03
:1044330078D1E6FDFBEF5B6019AF277401A807088D
:104443008002C333D8FCF45D78D1F67A5C792B1201
:1044530044620527E527C3940850030242C122E5BD
:104463002775F003A42410FFE435F0FE7BFF753DB0
:1044730000753E01126D3A22783B7C017A0E795F1A
:104483007F4012375890017B7402F0E4F5279004C3
:1044930074E0FF30E00F1238DFE4900314F0A3F070
:1044A300A3F0D2A322900314E0D3940F4037E4F097
:1044B300A3F0A3F0D2A3900685740AF0755D01758D
:1044C3001F03123A04300205D20312718E126F6475
:1044D30012367A753C00753DE8123697123E291262
:1044E300369702715820020A900314E0B401037452
:1044F30007F0900314E0FF64076003EF7006900673
:1045030085740AF0900313E06F602AA3E09003130D
:10451300F012367E753C01753D0E900313123899E7
:10452300A202E433754000F541123697123E291278
:104533003697127158900314E0FF7061EF60030225
:10454300479C900315E01460101460242402600358
:1045530002479C1239D002473A900326E07002A327
:10456300E0600302479C1239529003157402F02253
:10457300900326E07002A3E07004900315F020215D
:104583000302479CC221754AFF754B09754C57902E
:10459300099712479D700302479C02478F900314AB
:1045A300E0FFD394005003024671EF9409400302E5
:1045B3004671A3E014607704600302479C900314E0
:1045C300E0FF90017BB40705740CF080037402F0E4
:1045D30090017BE0FE900316E0D39E400302470D5B
:1045E300EF75F086A4FFAEF02414F974093E754903
:1045F300FFF54A894B754C0274162FF974093E7501
:104603004DFFF54E894F1239312456F582E5F034CA
:1046130009F5831247B0AD271272EE12393124988F
:10462300F582E5F03409F58312393A02473A9003EB
:1046330026E07002A3E0700302474C2021030247E7
:104643009CC2211239312457F9740935F0754AFF98
:10465300F54B894CE075F086A42497F582E5F03498
:1046630009F58312479D700302479C02478F90030D
:1046730014E0C39409500302479C78287C007A0E07
:10468300799F7F101238B2900E0CE493FF7E00786E
:10469300287C007D007BFF7A0D79CC1232CF90030A
:1046A30014E0FDC3940C502EE0FF75F003A4243BEB
:1046B300F582E4340EF583E493F528EF75F003A453
:1046C300243CF582E4340EF583E493FE740193F500
:1046D3002BEEF52C801E74662DF8E6FFC394105064
:1046E30003024796EF94FF40030247968F28752BEA
:1046F3000DE4F52C900315E01460440460030247B5
:104703009C900316E0D394024007E4F0900314F066
:10471300227549FF754A0D754BCA754C02754D00DC
:10472300754E00754F28900E0C1247B0AD271272CC
:10473300EE900E4E12393AF09003157401F0229068
:104743000326E07002A3E0700C900316E004F0E48B
:10475300900315F022302141C221754AFF754B0E9B
:10476300754C0D900E4DE493F54D123890120026C2
:10477300EA494B7017754AFF754B0E754C50754DD2
:1047830006123890120026EA494B600DE490031597
:10479300F0A3F0900314E004F022E493F54D7B01C1
:1047A3007A0479AF7D99120026EA494B22E493F506
:1047B300507B017A01793B1265728F277B017A0165
:1047C300793B22783C7C017D017BFF7A0F79E312F0
:1047D30036B7E4F52778D57C017A10797C7F4012CF
:1047E3003948F52878297C00FD7BFF7A1079BCFED7
:1047F3007F031232CF752C0F900474E0FF30E00971
:104803001238DFE4F557F55822E4F5299003A9E0BF
:10481300F52A752B0D7549FF754A10754BBF754CFD
:1048230002754D00754E00754F297550037B017A53
:104833000179D51265728F289003AAE0FCA3E0FDED
:104843009003A9E0F537753801753903753A289057
:1048530003A8E0F53B7B017A01793C1268158F27A9
:10486300E55714604314700302494F14700302495F
:10487300EC1470030249FD24046003024A7AE558EC
:10488300D394034009755601E4F558024A7AD2A33A
:10489300900473E020E003124A7E9003267403F031
:1048A300A374E8F075570122900472E0C313FEA3CA
:1048B300E013FFEE547FFCAD07900326E0FAA3E07C
:1048C300FBFFAE0212338190013BEFF0EB4A70061F
:1048D3000558F5578050900473E030E01190013B88
:1048E300E0FF900317E06F6005EFF0124A7E20218E
:1048F30003024A7DC221754A01754B01754CD5856A
:10490300284D123890120026EA494B601E90046E1F
:10491300E07005755703800D7557029003267401E7
:10492300F0A374F4F0E4900317F0227BFF7A10797C
:10493300BF1237386003024A7D9004B3E0F5569006
:104943000473E030E003024A7D024A7A900326E0D2
:104953007002A3E070050558F55722202103024A8F
:104963007D9004B7E0FDA3E078C9F6ED08F6900466
:10497300BAE008F6123998601812367E753C017554
:104983003D489004AF123691123E291236971271A8
:104993005890046EE0FF7E0078C47C047B017A03A8
:1049A30079EE123910701F78C9E6FE08E6FF90040D
:1049B30070E0B50611A3E0B5070C90046FE008663C
:1049C30070047557032212367E753C01753D5D7880
:1049D300CB123A0B78C9E6FE08E68E40F541123653
:1049E30097123E29123697807E301F07C21F755DCE
:1049F300038003755D0112383022E556603C1236A0
:104A03007E753C01753D83753E0085563F754000BC
:104A1300855941123697123E291236971271583032
:104A23002802C228E5562433600A24E4600624E9F8
:104A330070028000751E01E4F556123830E559C343
:104A4300952C5017900549E0B4140CE52C75F00330
:104A5300842559F55980130559800FE4F559755D7F
:104A6300037BFF7A0179B5027158301F06C21F75A7
:104A73005D0322755D0122755704227B017A01795A
:104A83003CAD271272EE22541FFFE054E04FF0C3F7
:104A9300741F950E541FFF9006BBE054E04FF0C304
:104AA300741F950F541FFF9006B4E054E04FF0902D
:104AB30006B1C3741F9510541FFFE054E04FF0225A
:104AC3009006B575F00384541FFFE054E04FF022C5
:104AD30075F00584FFC374069F541FFFE054E04F35
:104AE300F02213139006B2541FFFE054E04FF0225C
:104AF300E51AC313541FFFE054E04FF022C3741FA1
:104B0300950F541FFF9006B1E054E04FF0C3741F9C
:104B1300950E9006AD541FFFE054E04FF02290062F
:104B2300A9E075F003A4240AF582E4346EF583E466
:104B3300939006A9541FFDE075F003A4240BF5829E
:104B4300E4346EF583E49322E51BC313541FFFE0A3
:104B530054E04FF02213139006B5541FFFE054E0C6
:104B63004FF022C3741F95119006BB541FFFE054EE
:104B7300E04FF022E51A849006BC541FFFE054E096
:104B83004FF022E51CC313541FFFE054E04FF02203
:104B93009006B4541FFFE054E04FF022FB9006A9A7
:104BA300E075F003A4240CF582E4346EF583E493FA
:104BB300229006A8E075F003A4240AF582E4346E7B
:104BC300F583E4932275F00384FEC3740A9E541F95
:104BD300FEE054E0229006B1541FFFE054E04FF092
:104BE30022441FF09006ADE0441FF09006B1E0446C
:104BF3001FF09006B4E0441FF022906E28E4935413
:104C03001FFDA3E493541FFBA3E493229006ADE09E
:104C130054E0F09006B1E054E0F09006B4E054E0C4
:104C230022FFE493FEEF8EF0A4FF9006ABE5F0F0D5
:104C3300A3EFF022F0EB541FA3FFE054E04FF02268
:104C4300E0441FF0A3E054E0440AF02212745E7EB5
:104C5300007F407D007B007A00797E22C313FFC36F
:104C6300740F9F541F22C3741F9511541FFF900686
:104C7300AD2275F00384FEC3740A9E541FFEE054F4
:104C8300E022E51275F00F84E5F0D3940AE022F0F8
:104C93009006BBE054E0227B027D287F0322541F51
:104CA300FD9006A822541FFB9006A822541FFB90D8
:104CB30006A922541FFF9006AE2275F00584FFC398
:104CC30074069F229006ABE0FEA3E04E707B900635
:104CD300ABF0A3740CF0906E35E493FFE518D39F0B
:104CE300401CE4F518E519D394074005E4F5198051
:104CF300020519E4F51DF51CF51BF51A804B051883
:104D0300E518C394004009E5189420500385181A48
:104D1300E518C39420400CE51894405006E5182488
:104D2300E0F51BE518C39440400CE5189460500669
:104D3300E51824C0F51CE518C39460400CE51894ED
:104D4300805006E51824A0F51DE519B407004003BB
:104D5300024EBF904D5DF8282873024D72024D92AA
:104D6300024DA5024DC8024DE7024E0A024E477599
:104D7300F005124B77E51B75F00584124B5AE51CC1
:104D830075F00584124AE7E51D75F005848030E56A
:104D93001A124B6BE51B124B93E51C124BD8E51D06
:104DA300805FE51A9006BC124AD3E51B124CBD1274
:104DB3004B5AE51C9006B2124AD3E51D124CBD12A4
:104DC3004CB6024EBA9006BD124AF39006B6124B89
:104DD3004B9006B3124B86E51DC313541FFF900679
:104DE300AF024EBAC3741F951A124B6BC3741F954F
:104DF3001B124B93C3741F951C124BD8C3741F957E
:104E03001D124C6E024EBA75F003124B77E51B125E
:104E13004AC3E51C75F00384124AE7E51D75F003E8
:104E230084541F9006AE124C3C9006BB124AF3907A
:104E330006B4124B4B9006B1124B86E51DC31312F9
:104E43004C6E8073E51A124C5FFD9006BDE054E092
:104E53004DF0E51B124C5FFC9006B6E054E04CF0BD
:104E6300E51C124C5FFB9006B3E054E04BF0E51DEC
:104E7300124C5FFF9006AFE054E04FF0E51A900646
:104E8300BC124BC84EF0E51B9006B5124C754EF0A4
:104E9300E51C9006B2124C754EF0E51D9006AE125D
:104EA3004BC84E124C924D124C1C4CF09006B1E084
:104EB30054E04BF09006ADE054E04FF0228B278A8C
:104EC300288929783B7C017A1079C47E007F2212DD
:104ED30037ACAB27AA28A9291232F590013BF090F1
:104EE300000112330EFF7E00E92402783C7C01129C
:104EF30039F1AB27AA28A92990000112330E90019A
:104F03005CF090013BE02497604314700302503639
:104F130024FE700302507014700302505024056085
:104F2300030250B3C202D20490013CE0F52E126E8C
:104F330085920290013CE0FF12747612367E753C36
:104F430002753D5E90013C12389902502AC202C29A
:104F530003E4F52DF52CF52BF52A90013CE0FFE554
:104F63002D4FF52DE52CF52CE52BF52BE52AF52A10
:104F7300780812370BE4FCFDFE7810123449E52D56
:104F83004FF52DE52C4EF52CE52B4DF52BE52A4C55
:104F9300F52A781812370B900686E0B5070C9001B6
:104FA30041E0FE900687E06E6021900686EFF09068
:104FB3000141E01237477F037E00126D3A7A06798A
:104FC3008712374F7F047E00126D3A900142E060F2
:104FD30002D2037F807E437D6D7C38AB2DAA2CA942
:104FE3002BA82AD3123425401DE52D2480FFE52C60
:104FF30034BCFEE52B3492FDE52A34C7FCA20392B0
:10500300041255B5920212367E753C02753D7F90AF
:10501300013F12389990013E123A1B90013D12381C
:105023008990013C123A22123697123E2912369782
:1050330002715812367E753C02753DA812369712DE
:105043003E29123697127158C2040271C012367E7D
:10505300753C02753DC590013C123691123E2912F2
:10506300369712715890013CE0FF0275819006E279
:10507300E078C9F69003EDE0FF90013CE06F60300B
:1050830012367E753C02753DEA123697123E29129E
:10509300369712715890013CE09003EDF0D39407DA
:1050A300500E9006E07402F09003EDE09006DFF0FE
:1050B30022AD07E512701D20251A906E3493FFE58B
:1050C30013C39F50040513800BE4F513F517F5166E
:1050D300F515F514E5127004D2258009E512D39471
:1050E300504002C2259006ABE07002A3E07066AFA9
:1050F30012202504151280020512EF541FFF906E33
:1051030032E493FEEF8EF084A3124C24E512C39491
:10511300004009E51294205003851214E512C3944C
:1051230010400CE51294305006E51224F0F515E515
:1051330012C39420400CE51294405006E51224E07B
:10514300F516E512C39430400CE51294505006E571
:105153001224D0F517ED1470030251F60460030214
:10516300526AE513600302526A302552E512C39472
:105173002E50129006BB124C854002803D54E0F045
:10518300A3E002520EE512D3942D40069006BB1203
:105193004C43E512D394324006124BF5124C47E5CB
:1051A30012D3943C40069006B1124C43E512D394BB
:1051B30046500302526A9006ADE0124C4422E517B2
:1051C300124B6BE516124B93E515124BD8E51412EF
:1051D3004B15E5179006BC124AC6E516124AC3E5FD
:1051E3001575F00384124AE7E51475F00384124C35
:1051F300B6806FE513707030254EE512C3942E50C0
:105203000E9006BC124C854002803954E0F022E532
:1052130012D3942D40079006AEE0441FF0E512D35D
:10522300943240079006B2E0441FF0E512D3943C59
:1052330040079006B5E0441FF0E512D3944640279B
:105243009006BCE0441FF022E5179006AE124BDB3C
:10525300E516124AE7E515124B5AE514541FFF9061
:1052630006BCE054E04FF0226D61635F7265616CD0
:1052730065733A2530325820253032582025303294
:10528300582000253032582025303258202530321E
:10529300582E0A007A6967624E776B2065787369C6
:1052A30074464C47207265616C65733A25642E0A17
:1052B30000696E736572742063617463683A2025B4
:1052C300642C2076616C3A253032582E0A00000097
:1052D30000000000000000000000000000000000CB
:1052E30000000000000000000000000000000000BB
:1052F30000000000000000000000000000000000AB
:10530300000000000000000000000000000000009A
:10531300000000000000000000000000000000008A
:10532300000000000000000000000000000000007A
:10533300000000000000000000000000000000006A
:10534300000000000000000000000000000000005A
:10535300000000000000000000000000000000004A
:10536300000000000000000000000000000000003A
:10537300000000000000000000000000000000002A
:10538300000000000000000000000000000000001A
:10539300000000000000000000000000000000000A
:1053A30000000000000000000000000000000000FA
:1053B30000000000000000000000000000000000EA
:1053C30000000000000000000000000000000000DA
:1053D30000000000000000000000000000000000CA
:1053E30000000000000000000000000000000000BA
:1053F30000000000000000000000000000000000AA
:105403000000000000000000000000000000000099
:10541300000000000000AD07C215EF24FE604F241A
:10542300FE70030254BB240360030254F6E576B412
:105433003907E49006DFF08028E576B4400890064B
:10544300DF7404F0801BE576B43D119006E2E0C3FF
:105453009403500D9006DFE004F080059006DFED25
:10546300F0E57520E003025557D215025557E5764E
:10547300B4390512680E8033E576B43A028018E534
:1054830076B440089006DF7402F0801FE576B43DE1
:10549300159006E2E06007E49006DFF0800D9006C9
:1054A300DF7403F080059006DFEDF0E57520E1037E
:1054B300025557D215025557E576B43A089006DFE0
:1054C3007402F08025E576B4400512680E801BE572
:1054D30076B43D119006E2E0D39400400D9006DFD0
:1054E300E014F080059006DFEDF0E57530E265D25B
:1054F300158061E57624C6601A14603324026003C4
:105503000255B4ED30E1031267FEE57530E145D293
:10551300158041ED30E0031267FEED30E20790069F
:10552300DFE04402F0E57554056029D2158025EDCE
:1055330030E0031267FEED30E1079006DFE044023E
:10554300F0ED30E2079006DFE04404F0E575540720
:105553006002D215E5766439600BE576643A60053E
:10556300E576B43B089006E07401F080069006E00F
:105573007402F0200026E5766439600BE576643A20
:105583006005E576B43B0A9006DFE09006E1F08023
:105593000BE576B440069006E17401F09006DFE077
:1055A30060031268063015097B017D327F03127395
:1055B300F8228F318E308D2F8C2E785D7C017A0905
:1055C30079097F0B123758C205853135853034850B
:1055D3002F33852E322004030256A2900686E0D391
:1055E300940C502C12379BC004C005C006C0079012
:1055F3000686E0FFE4FCFDFE123815D003D002D08E
:1056030001D000EF2BFFEE3AFEED39FDEC38807A46
:10561300900686E0FFD3940C4042EFD39418503C9D
:10562300E024F412380DC004C005C006C0071237C9
:105633009BD003D002D001D000EB2FFBEA3EFAE966
:105643003DF9E83CF8C3E5359BF535E5349AF53487
:10565300E53399F533E53298F5328043900686E0D9
:10566300FFC3941E4039EF24EF12380DC004C00568
:10567300C006C00712379BD003D002D001D000EB85
:105683002FFFEA3EFEE93DFDE83CFCE5352FF5350D
:10569300E5343EF534E5333DF533E5323CF532E5AB
:1056A30035FF90015DEFF0E4FFE534FEE4FD78089B
:1056B300123990E4FFFEE533FDE47810123990E4EB
:1056C300FFFEFDE532FC7818123991753901753A00
:1056D30001753B5D9008C5E493F53C753DFF753E50
:1056E30008753FC690090612386E7A0879831264EA
:1056F300579205A20522E4F527F528F5299006EF30
:10570300E07002A3E07006FEFDFB1267B412753869
:10571300EF70030257C1201215D212905A36E49348
:10572300FF7401939006EDCFF0A3EF0257B012750B
:1057330038EF656370481267E61267A05019905AF4
:10574300341267A34011AF6312748E201309D2136E
:105753007D04AF6312582EC3905A341267A44003DA
:1057630002582DC3905A361267A4500302582D30A5
:10577300140302582DD2147D05AF6302582E9006F0
:10578300EDE0FEA3E0FF905A36E493FC740193FD31
:10579300C39FFFEC9EFED3905A307401939FE49312
:1057A3009E500302582D9006EDECF0A3EDF0900609
:1057B300EA7401F0A3745EF01275388F632230121D
:1057C3002F1267E6C3905A301267A450231267A0C2
:1057D300401E9006EAE07002A3E060020564E564FF
:1057E300D3940150047D0280027D03AF6312582ECF
:1057F3009006EAE07002A3E0701DE5646019F527E6
:10580300E4F564E527C39402400AAD27AF63126051
:105813007CE4F527E4F563301302C213301402C2AB
:1058230014E49006EDF0A3F0C212228F2A8D2BE52B
:105833002B24FD60281460661470030258E72403C8
:10584300600302590AC216126791753BFF753C59F2
:10585300753D5912591D127158C200803A12679151
:10586300753BFF753C59753D7512591D1271589062
:1058730006ECE004F0E0B40313436801E52A547F27
:1058830025E0FFE56854014FF56880097F017A0040
:105893007968126797D200AF2A1254198069E568B4
:1058A30030E021C313547F652A7019FE7F01FDFB8D
:1058B3001267DF127413126791753BFF753C5975BC
:1058C3003D8F8012126791753BFF753C59753DAC56
:1058D300753E00852A3F1267CB123E291267CB1211
:1058E30071588023126791753BFF753C59753DC90B
:1058F300753E00852A3F1267CB123E291267CB12F1
:105903007158D2041271C0E52B6403600C1267D284
:10591300E52B640260031267AE22753E00852A3FC1
:105923007B007A00797E123E297B007A00797E2201
:10593300746F756368506164207370656369616C2B
:1059430020747269673A6E776B4F70656E3A2530D3
:105953003264732E0A00746F7563685061643A256C
:105963003032582C2073686F727450726573732EC3
:105973000A00746F7563685061643A253032582C9D
:1059830020636E7450726573732E0A00636F6D62C9
:10599300696E6174696F6E2066756E3C3353314C6A
:1059A3003E2074726967210A00746F7563685061E1
:1059B300643A253032582C206C6F6E6750726573D1
:1059C300735F412E0A00746F7563685061643A25F2
:1059D3003032582C206C6F6E6750726573735F4260
:1059E3002E0A00746F7563685061643A253032582B
:1059F3002C202530325874696D652070726573737D
:105A03004F7665722E0A00636F6D62696E61746909
:105A13006F6E2066756E3C335335533E2074726946
:105A230067210A00000A0BB82EE0EA601E00140B7F
:105A3300B84E20EA60C202783B7C017A08795C7F29
:105A430020123702E4FF753EFF753F0875408175EC
:105A5300410175420175433B1239847A08797C7D93
:105A630005126C17EF7005C202025B31900149E029
:105A7300FE900148E0FDEEF527EDF528E4F529F564
:105A83002AAE27AF287C077DD01233818D2B90015E
:105A930046E0F52CA3E0F52DE4F52E852B29E52C26
:105AA30064016005E52CB4020AE52C240CF52A15E3
:105AB300298003852C2AE52A2401FFE433FE7C0098
:105AC3007D1A12336F7D0A123381E5291313543F74
:105AD30025292F252D24DCF52E75F0078485F02E3E
